:020000040800F2
:1000000000000320199E0008434D0008454D0008DC
:10001000474D0008494D00084B4D00080000000006
:100020000000000000000000000000002196000811
:100030004D4D000800000000B1960008D58F000863
:10004000699E0008699E0008699E0008699E000874
:10005000699E0008699E0008699E0008699E000864
:10006000699E0008699E0008699E0008699E000854
:10007000699E0008699E0008699E0008699E000844
:10008000699E0008699E0008699E0008699E000834
:10009000699E0008699E0008699E0008699E000824
:1000A000699E0008699E0008699E0008699E000814
:1000B000699E0008699E0008699E0008699E000804
:1000C000699E0008699E0008699E0008699E0008F4
:1000D000699E0008699E0008699E0008699E0008E4
:1000E000699E0008699E0008699E0008699E0008D4
:1000F000699E0008699E0008699E0008699E0008C4
:10010000699E0008699E0008699E0008699E0008B3
:10011000699E0008699E0008514D0008699E00080C
:10012000699E0008699E0008699E0008699E000893
:10013000699E0008699E0008699E0008699E000883
:10014000699E0008699E0008699E0008699E000873
:10015000699E0008699E0008699E0008699E000863
:10016000699E0008699E0008699E0008699E000853
:10017000699E0008699E0008699E00080000000052
:10018000699E0008699E0008699E0008699E000833
:10019000699E0008699E0008699E0008699E000823
:0C01A0005D4D0008699E0008694D0008D4
:1001B00010B5054C237833B9044B13B10448AFF3A1
:1001C00000800123237010BD6801002000000000A2
:1001D0008438020808B5034B1BB103490348AFF349
:1001E000008008BD000000006C0100208438020877
:1001F00053B94AB9002908BF00281CBF4FF0FF318E
:100200004FF0FF3000F072B9ADF1080C6DE904CE8B
:1002100000F006F8DDF804E0DDE9022304B07047E1
:100220002DE9F047089E04468846002B4BD18A42B0
:10023000154667D9B2FA82F24AB1C2F1200701FA33
:1002400002F320FA07F7954047EA030894404FEA83
:10025000154E230CB8FBFEF71FFA85FC0EFB178822
:1002600043EA084307FB0CF1994209D9EB1807F15F
:10027000FF3080F01B81994240F21881023F2B44ED
:100280005B1AA4B2B3FBFEF00EFB103344EA034446
:1002900000FB0CFCA44509D92C1900F1FF3380F0B8
:1002A0000781A44540F2048102382C4440EA07400B
:1002B000A4EB0C0400271EB1D4400023C6E9004380
:1002C0003946BDE8F0878B4209D9002E00F0EB805B
:1002D0000027C6E9000138463946BDE8F087B3FA81
:1002E00083F7002F47D18B4202D3824200F2FA807B
:1002F000841A61EB030301209846002EE0D0C6E982
:100300000048DDE702B9FFDEB2FA82F2002A40F0CF
:100310008F80491B4FEA154E1FFA85F80127B1FB64
:10032000FEFC230C0EFB1C1143EA014308FB0CF1FD
:10033000994207D9EB180CF1FF3002D2994200F232
:10034000CD808446591AA3B2B1FBFEF00EFB101407
:1003500043EA044408FB00F8A04507D92C1900F132
:10036000FF3302D2A04500F2B6801846A4EB080481
:1003700040EA0C409FE7C7F1200CBB4022FA0CFE7C
:100380004EEA030E01FA07F420FA0CF521FA0CF3F9
:100390004FEA1E482543B3FBF8F92C0C08FB193330
:1003A0001FFA8EFA44EA034309FB0AF49C4202FA5C
:1003B00007F200FA07F10BD91EEB030309F1FF3036
:1003C00080F087809C4240F28480A9F10209734446
:1003D0001B1BADB2B3FBF8F008FB103345EA034436
:1003E00000FB0AFAA24508D91EEB040400F1FF3312
:1003F0006BD2A24569D90238744440EA0940A0FB97
:100400000289A4EB0A044C45C2464B4654D351D052
:10041000002E69D0B1EB0A0564EB030404FA0CFC6E
:10042000FD40FC404CEA0505C6E90054002747E7BB
:10043000C2F1200320FA03F7954001FA02F021FAF5
:1004400003F34FEA154E3843010CB3FBFEF71FFAD6
:1004500085F80EFB173341EA034107FB08F38B4293
:1004600004FA02F407D9691807F1FF3C2FD28B4236
:100470002DD9023F2944CB1A81B2B3FBFEF00EFB0B
:10048000103341EA034100FB08F38B4207D9691896
:1004900000F1FF3C17D28B4215D902382944C91A02
:1004A00040EA07473BE73746304609E70746E7E6B5
:1004B0001846FBE64145ABD2B8EB020A69EB0E02E7
:1004C00001381346A4E76046E9E7184695E7674612
:1004D000D1E781467CE702382C4447E7ACF1020CB7
:1004E0002B442FE7384608E73746E9E6704700BF58
:1004F00001F0FF01102A2BDB10F0070F08D010F8D5
:10050000013B013A8B422DD010F0070F42B3F6D1D8
:10051000F0B441EA012141EA014122F007047FF0F1
:1005200000070023F0E80256083C85EA010586EA48
:10053000010685FA47F5A3FA87F586FA47F6A5FA84
:1005400087F68EB9EED1F0BC01F0FF0102F0070290
:1005500032B110F8013B013A83EA010313B1F8D13B
:100560000020704701387047002D06BF354603381C
:10057000073815F0010F07D1013015F4807F02BF55
:10058000013015F4C03F0130F0BC0138704700BFA6
:10059000704770477047704710B5034B03600446BF
:1005A00000F020FA204610BDE438020810B50446D9
:1005B000FFF7F2FF204641F2A40121F0A1FA204604
:1005C00010BD000010B5044600F016FB014B23607F
:1005D000204610BDE438020800F0D9B9704704384D
:1005E0007047704710B51021044621F089FA204663
:1005F00010BDA0F10400F5E710B500228260044AA6
:10060000C16002F1080420320460426010BD00BFE6
:1006100010390208704704387047704710B5102130
:10062000044621F06DFA204610BDA0F10400F5E764
:1006300010B500228260044AC16002F10804203231
:100640000460426010BD00BF3839020870470000E6
:1006500010B5034B0360044600F074FC204610BD47
:100660006839020810B50446FFF7F2FF204641F250
:10067000A40121F045FA204610BD000010B5044643
:1006800000F090FC014B2360204610BD6839020841
:1006900000F034BC7047000010B5034B0360044603
:1006A00000F022FE204610BD9C39020810B5044619
:1006B000FFF7F2FF204641F25C0121F021FA2046CB
:1006C00010BD000010B5044600F034FE014B23605D
:1006D000204610BD9C39020800F0E2BD7047043886
:1006E0007047704710B51021044621F009FA2046E2
:1006F00010BDA0F10400F5E710B500228260044AA5
:10070000C16002F1080420320460426010BD00BFE5
:10071000C83902087047000010B5034B0360044657
:1007200000F088FF204610BDF839020810B50446D5
:10073000FFF7F2FF204641F2A40121F0E1F9204643
:1007400010BD000010B5044600F0A4FF014B23606B
:10075000204610BDF839020800F048BF7047043841
:100760007047704710B51021044621F0C9F92046A2
:1007700010BDA0F10400F5E710B500228260044A24
:10078000C16002F1080420320460426010BD00BF65
:10079000243A0208704704387047704710B510219A
:1007A000044621F0ADF9204610BDA0F10400F5E7A4
:1007B00010B500228260044AC16002F108042032B0
:1007C0000460426010BD00BF4C3A02087047000050
:1007D00010B5034B0360044601F000F9204610BD3C
:1007E0007C3A020810B50446FFF7F2FF204641F2BA
:1007F000B41121F085F9204610BD000010B5044663
:1008000001F012F9014B2360204610BD7C3A02082A
:1008100001F0C0B8704704387047704710B5102118
:10082000044621F06DF9204610BDA0F10400F5E763
:1008300010B500228260044AC16002F1080420322F
:100840000460426010BD00BFA83A02087047000073
:1008500010B5034B0360044601F07CFA204610BD3E
:10086000D83A020810B50446FFF7F2FF204641F2DD
:10087000A40121F045F9204610BD000010B5044642
:1008800001F08EFA014B2360204610BDD83A0208D1
:1008900001F03CBA0022026070477047704700F5D3
:1008A00098730868496803C37047704701F048BEF1
:1008B00010B54FF4AE71044621F022F9204610BD68
:1008C00010B50446D0F85801FFF7E7FF2046BDE811
:1008D00010400EF0DBBF10B50446D0F8400158B10F
:1008E0000368DB68984738B1D4F8400103689B6817
:1008F00098470023C4F8403110BD000010B50446ED
:1009000001F0E6FD014B2360204610BD0C3B0208C0
:1009100090F8252012B103685B69184770470020E2
:10092000704781807047C180704701817047418165
:10093000704770477047704770477047C38810B45E
:10094000D21A83885DF8044BC91A036812B25B6D32
:1009500009B218474FF6FF7383814FF0FF330362EC
:100960001368C361106070477047704790F8252086
:100970001AB190F8242002B1186070470020704727
:10098000B1F9043083800120704770477047704789
:10099000704730B4C56844686A100346ED0704EB3D
:1009A00002009B6848BFA25830BC48BFD3581847C4
:1009B00043682BB183682BB9C06800F00100704711
:1009C000184670470120704710B50821044621F0F1
:1009D00097F8204610BD10B51021044621F090F87C
:1009E000204610BD10B5034B036004460DF088F996
:1009F000204610BDE83C020810B5064B03600446D3
:100A00000DF07EF9204641F2A40121F079F820464C
:100A100010BD00BFE83C020838B500F50F739942DD
:100A200004460D4603D10EF06DFE01F0A9FD04F55C
:100A3000FA739D4203D10EF065FE01F0F1FD04F55D
:100A4000D674A54205D10EF05DFEBDE8384001F038
:100A5000F7BD38BD0A4A026000228280C28002814E
:100A600042818281C28102824282C0E90522C26142
:100A70000284428480F82420012280F825207047D7
:100A8000AC5D020870B5036804461B6B15469847B9
:100A90002368294620465B6BBDE87040184770B557
:100AA00004461E46BDF91050FFF7ECFF236831469F
:100AB00020469A6B9047236829462046DB6BBDE8A9
:100AC0007040184770B500238380114D114B0360AF
:100AD0002A6892F85810064609B1D06C00B990689F
:100AE0000368DB6A98472B68B0FA80F4D86C640915
:100AF00028B10368DB6A9847002808BF01242CB995
:100B0000054B064A06482C2121F0DEFE304670BD1A
:100B1000BC310120603B0208233C0208143D02085E
:100B2000813C020810B526220446002121F041FF35
:100B30002046FFF78FFF0C4B23600C4BA3624FF650
:100B4000FF7200234FF47F01A285C4E90C3184F8C1
:100B5000383084F83930A387E387A4F84020A4F81C
:100B600042206364204610BD885A0208803B020878
:100B7000F8B51A4B018F1B888B42064629D9184BB2
:100B80001B682BB9174B184A18486C2121F09CFEA2
:100B900013F81120164B1B6853F82250154B186898
:100BA00002F0A8FE2B6807469B6B284698472B68E7
:100BB00004469B6C3946284698472B6814FB00F482
:100BC0005B6A394628469847A4B22044A6F84600F6
:100BD000F8BD0023A0F84630FAE700BF1832012024
:100BE00014320120A03B02084D3D0208E23B0208FE
:100BF0001C320120203201202DE9F04F044691B033
:100C0000A246002510F0FEF9B54BE5634AF8403BDB
:100C100026222946504621F0CCFE5046FFF71AFF07
:100C200004F16C09FF26AF4B236426224FF6FF73B5
:100C3000294684F86660A5664846ADF8383021F04C
:100C4000B8FE4846FFF706FFA74BE36610AB1A460F
:100C500004F1980732F8083DA4F89230114684F860
:100C60009460484605920CF044F838460AF036FF86
:100C700004F5847318460793FFF724FF9B4BC4F8D1
:100C8000083104F58E782433C4F81031C4F81451B7
:100C9000404604F5B27BFFF745FF5846FFF742FF99
:100CA00004F5D673184602930CF064F904F5FA7350
:100CB000184603930CF05EF904F50F73184604937D
:100CC0000CF058F941F29403E2180692884AE25077
:100CD000069B884A5C6041F29C034FF46161E250DC
:100CE00004F5855304F521701D600CF0FFFF4FF4EF
:100CF000A0732A4600932946F0235046FFF7CFFE03
:100D0000261D4FF07F43A3665146304609F08EFA08
:100D10002A4629464846FFF7B5FE07230599ADF850
:100D2000383048460BF0E5FF4946304609F07EFA78
:100D30000A2300933222F02329463846FFF7AFFEFC
:100D40004FF0FF33A022C4F81431A4F81831079BE8
:100D5000C4F8C030114638460AF0D6FFA0224FF43E
:100D6000EB5138460AF0DBFFD4F8D430202B05D005
:100D70002023C4F8D43038460AF0D0FE384601218A
:100D80000AF0D8FF394630464FF0FF3509F04EFAE9
:100D90004FF0000908AF242240464521FFF772FEBC
:100DA00041463846C4F84C51A4F850910BF05CFA17
:100DB00097E8070008F13C0383E80700DFF838A153
:100DC000CDF838A01B230EA94046ADF83C300BF0FF
:100DD000E5FC4146304609F029FA0C2258463221FA
:100DE000FFF750FE59463846C4F89451A4F898913C
:100DF0000BF03AFA97E807000BF13C0383E8070091
:100E00001C230EA95846ADF83C30CDF838A00BF0A5
:100E1000C5FC5946304609F009FA0298F022212112
:100E2000FFF730FE01270EAA0DA90298ADF8347025
:100E3000ADF838900BF097FE1D23A4F8E43102982A
:100E4000FFF796FE069BC4F8D4310299C4F8E85126
:100E50003046C4F8EC5109F0E9F90398AA2221219F
:100E6000FFF710FE0EAA0DA90398ADF83470ADF887
:100E700038900BF078FE1E23A4F82C320398FFF76D
:100E800077FE069BC4F81C320399C4F830523046F2
:100E9000C4F8345209F0CAF9049864222121FFF7FA
:100EA000F1FD0EAA0DA90498ADF83470ADF8389094
:100EB0000BF059FE1F23A4F874320498FFF758FE74
:100EC000069BC4F878523046C4F87C52C4F86432A9
:100ED000049909F0ABF9204611B0BDE8F08F00BFCE
:100EE000E83C0208185B0208685C0208DC5702084C
:100EF000903B0208190A0008803B020870477047BF
:100F000030B4C56844686A100346ED0704EB02007C
:100F10009B6848BFA25830BC48BFD35818474368A5
:100F20002BB183682BB9C06800F0010070471846E8
:100F300070470120704710B51021044620F0E0FDF5
:100F4000204610BD10B5034B036004460CF0D8FEDC
:100F5000204610BDA83D020810B5064B03600446AC
:100F60000CF0CEFE204641F2A40120F0C9FD20463F
:100F700010BD00BFA83D020838B500F5D6739942F0
:100F800004460D4603D10EF0BDFB01F0E9FA04F56D
:100F90000F74A54205D10EF0B5FBBDE8384001F055
:100FA0000FBB38BD2DE9F04F044691B0A246002595
:100FB00010F028F8B34BE5634AF8403B2622294657
:100FC000504621F0F6FC5046FFF744FD04F16C0951
:100FD000FF26AD4B236426224FF6FF73294684F883
:100FE0006660A5664846ADF8383021F0E2FC484618
:100FF000FFF730FDA54BE36610AB1A4604F19807E6
:1010000032F8083DA4F89230114684F894604846BE
:1010100005920BF06EFE38460AF060FD04F584730D
:1010200018460793FFF74EFD994BC4F8083104F5B5
:101030008E782433C4F81031C4F81451404604F5B6
:10104000B27BFFF76FFD5846FFF76CFD04F5D673D2
:10105000184602930BF08EFF04F5FA7318460393BB
:101060000BF088FF04F50F73184604930BF082FF12
:1010700041F29403E2180692864AE250069B864AA1
:101080005C6041F29C034FF46161E25004F58553CA
:1010900004F521701D600CF029FE4FF4A0732A4660
:1010A00000932946F0235046FFF7F9FC261D4FF028
:1010B0007F43A3665146304609F0B8F82A462946D0
:1010C0004846FFF7DFFC07230599ADF8383048465E
:1010D0000BF00FFE4946304609F0A8F80A230093AA
:1010E0003222F02329463846FFF7D9FC4FF0FF3370
:1010F000A022C4F81431A4F81831079BC4F8C030FA
:10110000114638460AF000FEA0224FF4EB51384653
:101110000AF005FED4F8D430202B05D02023C4F8E3
:10112000D43038460AF0FAFC384601210AF002FEB3
:10113000394630464FF0FF3509F078F84FF0000996
:1011400008AF242240464521FFF79CFC4146384623
:10115000C4F84C51A4F850910BF086F897E80700BA
:1011600008F13C0383E80700DFF830A1CDF838A090
:1011700019230EA94046ADF83C300BF00FFB414659
:10118000304609F053F80C2258463221FFF77AFC1A
:1011900059463846C4F89451A4F898910BF064F875
:1011A00097E807000BF13C0383E807001A230EA918
:1011B0005846ADF83C30CDF838A00BF0EFFA594660
:1011C000304609F033F80298F0222121FFF75AFC4B
:1011D00001270EAA0DA90298ADF83470ADF8389029
:1011E0000BF0C1FC1823A4F8E4310298FFF7C0FC0F
:1011F000069BC4F8D4310299C4F8E8513046C4F8CB
:10120000EC5109F013F80398AA222121FFF73AFCC8
:101210000EAA0DA90398ADF83470ADF838900BF014
:10122000A2FC1723A4F82C320398FFF7A1FC039922
:10123000C4F830523046C4F8345208F0F7FF04982E
:1012400064222121FFF71EFC0EAA0DA90498ADF817
:101250003470ADF838900BF086FC1623A4F8743285
:101260000498FFF785FC069BC4F878523046C4F812
:101270007C52C4F86432049908F0D8FF204611B0BB
:10128000BDE8F08FA83D0208185B0208685C020800
:10129000DC570208903D0208790F0008803B0208E5
:1012A0007047704730B4C56844686A100346ED075C
:1012B00004EB02009B6848BFA25830BC48BFD3581B
:1012C000184743682BB183682BB9C06800F0010050
:1012D0007047184670470120704710B5102104462A
:1012E00020F00EFC204610BD10B5034B03600446F1
:1012F0000CF006FD204610BDF43D020810B5064B6B
:10130000036004460CF0FCFC204641F25C0120F036
:10131000F7FB204610BD00BFF43D020800F58E70BB
:10132000884208B505D10EF0EDF9BDE8084001F09E
:1013300017B908BD2DE9F04F044691B0A34600252A
:101340000FF060FEA24BE5634BF8403B2622294696
:10135000584621F02EFB5846FFF77CFB04F16C0A3F
:10136000FF279C4B236426224FF6FF73294684F8FF
:101370006670A5665046ADF8383010AE21F019FB06
:101380005046FFF767FB944BE36636F8083DA4F838
:101390009230314604F1980884F8947050460BF06E
:1013A000A8FC40460AF09AFB04F58473184606939D
:1013B000FFF788FB894BC4F808312433C4F8103197
:1013C00004F58E731846C4F8145104F5B2790593E8
:1013D0000BF0D0FD4846FFF7A5FB04F5D673184681
:1013E0000393FFF79FFB04F5FA7318460493FFF786
:1013F00099FB41F24C03E2180792794AE250079BAD
:10140000784A5C6041F254034FF46161E25041F26A
:10141000580304F50F70E5500CF068FC4FF4A0730E
:101420002A4600932946F0235846FFF738FB271D2C
:101430004FF07F43A3665946384608F0F7FE2A4628
:1014400029465046FFF71EFB072331465046ADF8AC
:1014500038300BF04EFC5146384608F0E7FE0A23C0
:1014600000933222F02329464046FFF718FB4FF045
:10147000FF33A022C4F81431A4F81831069BC4F835
:10148000C030114640460AF03FFCA0224FF4EB5119
:1014900040460AF044FCD4F8D430202B05D0202359
:1014A000C4F8D43040460AF039FB404601210AF026
:1014B00041FC4146384608F0B9FE0598DFF828B1EE
:1014C000F0222121FFF7DEFA4FF0000A32460DA983
:1014D00001230598ADF83430ADF838A00BF043FB8C
:1014E0000D23A4F854310598FFF742FB4FF0FF3865
:1014F000079BC4F844310599C4F858813846C4F8AC
:101500005C8108AD08F092FE5B2248460521FFF79A
:10151000B9FA49462846C4F89481A4F898A10AF07B
:10152000A3FE95E8070009F13C0383E807000E23BA
:1015300031464846ADF83C30CDF838B00BF02EF9C6
:101540004946384608F072FE242203984521FFF7E9
:1015500099FA0399C4F8DC812846A4F8E0A10AF0BE
:1015600083FE95E80700039BCDF838B03C3383E851
:101570000700102331460398ADF83C300BF00EF90C
:101580000399384608F052FE0C2204983221FFF7E6
:1015900079FA0499C4F824822846A4F828A20AF00B
:1015A00063FE95E80700049BCDF838B03C3383E830
:1015B00007000F2331460498ADF83C300BF0EEF8ED
:1015C0003846049908F032FE204611B0BDE8F08F8D
:1015D000F43D0208185B0208685C0208DC57020848
:1015E000DC3D02081D130008803B0208704770476D
:1015F00030B4C56844686A100346ED0704EB020086
:101600009B6848BFA25830BC48BFD35818474368AE
:101610002BB183682BB9C06800F0010070471846F1
:1016200070470120704710B51021044620F068FA79
:10163000204610BD10B5034B036004460CF060FB60
:10164000204610BD403E020810B5064B036004461C
:101650000CF056FB204641F2A40120F051FA20463E
:1016600010BD00BF403E020838B500F5D673994260
:1016700004460D4603D10EF045F800F091FF04F545
:101680000F74A54205D10EF03DF8BDE8384000F0DA
:10169000B7BF38BD2DE9F04F044691B0A2460025F2
:1016A0000FF0B0FCB44BE5634AF8403B26222946D4
:1016B000504621F07EF95046FFF7CCF904F16C0951
:1016C000FF26AE4B236426224FF6FF73294684F88B
:1016D0006660A5664846ADF838300DF1400B21F044
:1016E00068F94846FFF7B6F9A54BE3663BF8083DB5
:1016F000A4F89230594604F1980784F8946048465B
:101700000BF0F7FA38460AF0E9F904F58473184645
:101710000793FFF7D7F99B4BC4F8083104F58E788F
:101720002433C4F81031C4F814514046FFF7FAF9D5
:1017300004F5B27318460293FFF7F4F904F5D67373
:10174000184603930BF016FC04F5FA73184604933D
:101750000BF010FC04F50F73184605930BF00AFC10
:1017600041F29403E2180692874AE250069B874AA8
:101770005C6041F29C034FF46161E25004F58553D3
:1017800004F521701D600CF0B1FA4FF4A0732A46E5
:1017900000932946F0235046FFF781F9261D4FF0AC
:1017A0007F43A3665146304608F040FD2A4629464D
:1017B0004846FFF767F9072359464846ADF83830E1
:1017C0000BF097FA4946304608F030FD0A230093A3
:1017D0003222F02329463846FFF761F94FF0FF33F4
:1017E000A022C4F81431A4F81831079BC4F8C03003
:1017F000114638460AF088FAA0224FF4EB513846D9
:101800000AF08DFAD4F8D430202B05D02023C4F868
:10181000D43038460AF082F9384601210AF08AFAB3
:10182000394630464FF0FF3508F000FD4FF0000913
:1018300008AF242240464521FFF724F941463846A7
:10184000C4F84C51A4F850910AF00EFD97E8070037
:1018500008F13C0383E80700DFF834A1CDF838A095
:101860004FF00C0B0EA94046ADF83CB00AF096FFC5
:101870004146304608F0DAFC5A4602983221FFF71A
:1018800001F90299C4F894513846A4F898910AF0E5
:10189000EBFC97E80700029BCDF838A03C3383E8C7
:1018A00007000B230EA90298ADF83C300AF076FF32
:1018B0000299304608F0BAFC0398F0222121FFF784
:1018C000E1F801270EAA0DA90398ADF83470ADF820
:1018D00038900BF048F90A23A4F8E4310398FFF795
:1018E00047F9069BC4F8D4310399C4F8E85130464F
:1018F000C4F8EC5108F09AFC0498AA222121FFF7C1
:10190000C1F80EAA0DA90498ADF83470ADF838905E
:101910000BF029F90923A4F82C320498FFF728F9D1
:101920000499C4F830523046C4F8345208F07EFCB2
:10193000059864222121FFF7A5F80EAA0DA90598A4
:10194000ADF83470ADF838900BF00DF90823A4F819
:1019500074320598FFF70CF9069BC4F878523046AC
:10196000C4F87C52C4F86432059908F05FFC204644
:1019700011B0BDE8F08F00BF403E0208185B0208BE
:10198000685C0208DC570208283E02086916000855
:10199000803B02087047704730B4C56844686A10DD
:1019A0000346ED0704EB02009B6848BFA25830BC19
:1019B00048BFD358184743682BB183682BB9C06818
:1019C00000F001007047184670470120704710B5BD
:1019D0001021044620F094F8204610BD10B5034BAA
:1019E000036004460CF08CF9204610BD8C3E0208C2
:1019F00010B5064B036004460CF082F9204641F214
:101A0000B41120F07DF8204610BD00BF8C3E0208C6
:101A100000F5D670884208B505D10DF073FEBDE81B
:101A2000084000F0DDBD08BD2DE9F04F044691B03F
:101A3000A34600260FF0E6FAAD4BE6634BF8403BB9
:101A400026223146584620F0B4FF5846FFF702F8E8
:101A500004F16C0AFF25A74B236426224FF6FF737F
:101A6000314684F86650A6665046ADF8383020F00E
:101A7000A0FF5046FEF7EEFF9F4BE36610AB1A4601
:101A800004F1980832F8083DA4F89230114684F821
:101A90009450504605920BF02CF940460AF01EF87F
:101AA00004F5847318460693FFF70CF8934BC4F8BB
:101AB000083104F58E792433C4F81031C4F8146168
:101AC0004846FFF72FF804F5B27318460393FFF763
:101AD00029F804F5D673184604F5FA7504930BF04B
:101AE00049FA28460AF0F8FE41F2A413E2180792D8
:101AF000834AE250079B834A5C6041F2AC134FF487
:101B00006161E25041F2B01304F56570E6500CF0EB
:101B1000EDF84FF4A073324600933146F023584657
:101B2000FEF7BDFF271D4FF07F43A3665946384699
:101B300008F07CFB324631465046FEF7A3FF0723F0
:101B40000599ADF8383050460BF0D3F85146384679
:101B500008F06CFB0A2300933222F0233146404602
:101B6000FEF79DFF4FF0FF33A022C4F81431A4F814
:101B70001831069BC4F8C030114640460AF0C4F83C
:101B8000A0224FF4EB5140460AF0C9F8D4F8D43003
:101B9000202B05D02023C4F8D430404609F0BEFFE6
:101BA000404601210AF0C6F8414638464FF0000889
:101BB00008F03CFB08AE4FF0FF3A2422484645218E
:101BC000FEF760FF49463046C4F84CA1A4F85081A6
:101BD0000AF04AFB96E8070009F13C0383E8070096
:101BE0004FF0020B484B0E930EA948460593ADF8F3
:101BF0003CB00AF0D3FD4946384608F017FB0C22EA
:101C000003983221FEF73EFF0399C4F894A13046B1
:101C1000A4F898810AF028FB96E80700039B03F1DB
:101C20003C0C8CE80700059B03980E9301260EA937
:101C3000ADF83C600AF0B2FD0399384608F0F6FAB8
:101C40000498F0222121FEF71DFF0EAA0DA9049889
:101C5000ADF83460ADF838800AF085FF0498A4F838
:101C6000E481FEF785FF079BC4F8D4310499C4F8DA
:101C7000E8A13846C4F8ECA108F0D8FA0EA9284625
:101C8000ADF838B008F065FA78230093284645226D
:101C90003821FEF704FF3C22114628460AF0C7FE11
:101CA00028465A226FF059010AF046FF4346642243
:101CB00041462846CDF8008008F01DF9284632211B
:101CC0000AF0E4FE21230522284603210AF09AFEA9
:101CD000314628460AF038FE314628460AF037FEDB
:101CE0003846294608F0A2FA204611B0BDE8F08F28
:101CF0008C3E0208185B0208685C0208DC57020888
:101D0000743E0208111A0008803B020870477047B1
:101D100030B4C56844686A100346ED0704EB02005E
:101D20009B6848BFA25830BC48BFD3581847436887
:101D30002BB183682BB9C06800F0010070471846CA
:101D400070470120704710B5102104461FF0D8FEDF
:101D5000204610BD10B5034B036004460BF0D0FFC6
:101D6000204610BDD83E020810B5064B036004465D
:101D70000BF0C6FF204641F2A4011FF0C1FE204631
:101D800010BD00BFD83E020800F5D670884208B5E5
:101D900005D10DF0B7FCBDE8084000F0E1BB08BD7F
:101DA0002DE9F04F044691B0A24600250FF02AF924
:101DB000B24BE5634AF8403B26222946504620F0C4
:101DC000F8FD5046FEF746FE04F16C09FF26AC4BC9
:101DD000236426224FF6FF73294684F86660A566C1
:101DE0004846ADF8383020F0E4FD4846FEF732FEB4
:101DF000A44BE36610AB1A4604F1980732F8083D8D
:101E0000A4F89230114684F89460484605920AF08E
:101E100070FF384609F062FE04F584731846069395
:101E2000FEF750FE984BC4F8083104F58E78243341
:101E3000C4F81031C4F81451404604F5B27BFEF7E3
:101E400071FE5846FEF76EFE04F5D67318460293EF
:101E50000BF090F804F5FA73184603930BF08AF828
:101E600004F50F73184604930BF084F841F29403C1
:101E7000E2180792854AE250079B854A5C6041F26E
:101E80009C034FF46161E25004F5855304F5217021
:101E90001D600BF02BFF4FF4A0732A4600932946D8
:101EA000F0235046FEF7FBFD261D4FF07F43A3664F
:101EB0005146304608F0BAF92A4629464846FEF708
:101EC000E1FD07230599ADF8383048460AF011FFC7
:101ED0004946304608F0AAF90A2300933222F0233B
:101EE00029463846FEF7DBFD4FF0FF33A022C4F849
:101EF0001431A4F81831069BC4F8C0301146384696
:101F000009F002FFA0224FF4EB51384609F007FF19
:101F1000D4F8D430202B05D02023C4F8D430384650
:101F200009F0FCFD3846012109F004FF394630462E
:101F30004FF0FF3508F07AF94FF0000908AF24227E
:101F400040464521FEF79EFD41463846C4F84C51B7
:101F5000A4F850910AF088F997E8070008F13C03CB
:101F600083E80700DFF82CA1CDF838A015230EA9CF
:101F70004046ADF83C300AF011FC4146304608F0CE
:101F800055F90C2258463221FEF77CFD5946384659
:101F9000C4F89451A4F898910AF066F997E80700FC
:101FA0000BF13C0383E8070014230EA95846ADF853
:101FB0003C30CDF838A00AF0F1FB5946304608F025
:101FC00035F90298F0222121FEF75CFD01270EAAC7
:101FD0000DA90298ADF83470ADF838900AF0C3FD41
:101FE0001323A4F8E4310298FEF7C2FD079BC4F85E
:101FF000D4310299C4F8E8513046C4F8EC5108F0E5
:1020000015F90398AA222121FEF73CFD0EAA0DA97D
:102010000398ADF83470ADF838900AF0A4FD12239F
:10202000A4F82C320398FEF7A3FD0399C4F83052AC
:102030003046C4F8345208F0F9F80498642221219B
:10204000FEF720FD0EAA0DA90498ADF83470ADF886
:1020500038900AF088FD1123A4F874320498FEF732
:1020600087FD3046C4F87852C4F87C52049908F0D1
:10207000DDF8204611B0BDE8F08F00BFD83E020861
:10208000185B0208685C0208DC570208C03E0208C0
:10209000891D0008803B0208704770477047416007
:1020A000704710B50022B1F90840B1F90A1002805A
:1020B00042808480C18010BD704770470123037245
:1020C0007047704770477047704770477047704758
:1020D00043681A6800F11001526E184610474368B1
:1020E0001A6800F11001126E1846104770474368D5
:1020F0001A6800F11001526E1846104743681A68BA
:1021000000F11001126E18461047704710B4C468F1
:10211000416862100346E40701EB02009B6848BF78
:102120008A585DF8044B48BFD358184743682BB111
:1021300083682BB9C06800F00100704718467047EB
:102140000120704710B50C2104461FF0D9FC204631
:1021500010BD10B54FF4AE7104461FF0D1FC2046FF
:1021600010BD10B5102104461FF0CAFC204610BD5A
:1021700010B5382104461FF0C3FC204610BD10B531
:10218000282104461FF0BCFC204610BD10B53821A4
:1021900004461FF0B5FC204610BD10B54021044692
:1021A0001FF0AEFC204610BD10B5402104461FF0C4
:1021B000A7FC204610BD10B50DF0A4FA0368BDE8D9
:1021C0001040DB6B184770B5044690F8390094F85E
:1021D00038300130C0B2984284F8390005D9012363
:1021E0002372002384F8393070BDB4F93A200021FD
:1021F0000FF0BAF883B213F0010206D04FF6FF7168
:102200000028D8BF0A46981800B2238AC01AA087AF
:1022100060680368DB69984705464DB1A988A38FBC
:1022200019442B6828461B6B09B29847AD69F4E73F
:1022300060680368BDE870405B69184770B5044684
:1022400090F8390094F838300130C0B2984284F8E0
:10225000390005D901232372002384F8393070BD79
:10226000B4F93A2000210FF07FF883B213F0010295
:1022700006D04FF6FF710028D8BF0A46981800B262
:10228000238AC01AA08760680368DB6998470546FF
:102290004DB1A988A38F19442B6828461B6B09B23E
:1022A0009847AD69F4E760680368BDE870405B6912
:1022B00018470000054B1B783BB143682BB11A68E7
:1022C00000F10C01526E184610477047B9310120D9
:1022D000054B1B783BB143682BB11A6800F10C0128
:1022E000526E184610477047B931012013B50446A5
:1022F000807A637A0130C0B29842A07205D9012376
:1023000023720023A37202B010BDB4F90C20002187
:102310000FF02AF883B213F0010228D1E081184AA5
:10232000B4F90E001288B4F91410A08283B2D21A44
:102330002283144AADF800100020ADF802005B1AA9
:10234000B2F900206068ADF80430ADF806200368EB
:1023500069461B699847A37A012BD4D10A4B1B7895
:10236000002BD0D00DF0CEF90DF0D2F9CBE74FF61F
:10237000FF710028D8BF0A461344E381CFE700BFAE
:10238000AE310120B0310120B831012070B5037A9F
:102390000546BBB940680368DB69984704464CB101
:1023A000A1886B8FC91A236820461B6B09B2984716
:1023B000A469F4E76868036805F10C011B6EBDE8C9
:1023C0007040184770BD70B5037A0546BBB94068C8
:1023D0000368DB69984704464CB1A1886B8FC91A22
:1023E000236820461B6B09B29847A469F4E7686824
:1023F000036805F10C011B6EBDE87040184770BD05
:1024000013B50446807A637A0130C0B29842A07254
:1024100005D9012323720023A37202B010BDB4F9C1
:102420000C2000210EF0A0FF83B213F0010226D190
:10243000E081174BE1891B881648228BB0F9000018
:10244000ADF806005B1A9BB219B22183ADF80010FB
:10245000D31A00216068ADF80210ADF804300368AB
:1024600069461B699847A37A012BD6D10A4B1B7882
:10247000002BD2D00DF046F90DF04AF9CDE74FF61A
:10248000FF710028D8BF0A461344E381D1E700BF9B
:10249000AE310120B0310120B831012070B50368A0
:1024A00004469B6B15469847236829462046DB6BFC
:1024B000BDE8704018470000044B1B6893F8582093
:1024C0000AB1D86C00B99868704700BFBC310120D0
:1024D000F8B5044617460E460DF048FA144BC4F8FA
:1024E00054711C60134B2360134BC4F84431134BDD
:1024F000C4F8586100251868C4F83C51C4F840512C
:10250000C4F84851C4F84C51C4F850510368012133
:102510009B689847284601F0B3F9FFF7CDFF16F006
:1025200072F8FFF7C9FF16F0E9F82046F8BD00BFC2
:10253000103201208C3F0208743F0208BC31012098
:10254000064BC0F84C310023C0F8503100F5A2739F
:10255000C0F84801C0F84031704700BFA527000807
:10256000064BC0F84C310023C0F8503100F5A2737F
:10257000C0F84801C0F84031704700BF192D00086D
:10258000064BC0F84C310023C0F8503100F5A2735F
:10259000C0F84801C0F84031704700BF65300008FE
:1025A000064BC0F84C310023C0F8503100F5A2733F
:1025B000C0F84801C0F84031704700BF7D2E0008C8
:1025C000064BC0F84C310023C0F8503100F5A2731F
:1025D000C0F84801C0F84031704700BFC53100085D
:1025E000064BC0F84C310023C0F8503100F5A273FF
:1025F000C0F84801C0F84031704700BF6D2900089D
:10260000064BC0F84C310023C0F8503100F5A273DE
:10261000C0F84801C0F84031704700BF352B0008B2
:10262000064BC0F84C310023C0F8503100F5A273BE
:10263000C0F84801C0F84031704700BF253300089A
:10264000064BC0F84C310023C0F8503100F5A2739E
:10265000C0F84801C0F84031704700BF8534000819
:102660002DE9F04707469068DDF820A099460368F9
:102670001B6A88461546984741F2A303984205D83D
:10268000424B434AA321434820F01EF9686803687F
:102690001B6A98470F2803D83F4B3D4AA421F2E715
:1026A000E86803681B6A98470B2803D83B4B384AF5
:1026B000A521E8E70DF026F804300DF089F8D9F8E7
:1026C000000010B10368DB689847D9F8000010B12A
:1026D00003681B689847386810B103685B699847BE
:1026E000D8F8000010B103685B689847386810B1EB
:1026F00003681B689847D8F8000010B103689B680E
:102700009847E868036800215B6A9847044620B14F
:10271000002343600372224B0360A8680368002112
:102720005B6A9847064608B1FDF74CFF6868036886
:1027300000215B6A9847054610B13146FDF75CFF02
:10274000C9F80040C8F800503E60E5B12B1DCAF83A
:102750000030C5F808A03368F5633046DB68984759
:102760002B6828461B689847214630460EF0F6FD38
:10277000236820461B699847236820465B69984771
:102780002846BDE8F0872B46E1E700BF8C400208F1
:10279000A14202081A4102085B410208FE410208F8
:1027A000E03F020807B5D0F858310093D0F8542123
:1027B000044B00F59E710448FFF752FF03B05DF82B
:1027C00004FB00BF04320120003201202DE9F74F45
:1027D00007469068994603681B6A884615469847DD
:1027E00041F2A303984205D8574B584AA3215848B1
:1027F00020F06AF8686803681B6A98470F2803D8B6
:10280000544B524AA421F2E7E86803681B6A9847D0
:102810003F2803D8504B4D4AA521E8E70CF072FF42
:1028200004300CF0D5FFD9F8000010B10368DB6864
:102830009847D9F8000010B103681B6898473868BA
:1028400010B103685B699847D8F8000010B10368BD
:102850005B689847386810B103681B689847D8F8D8
:10286000000010B103689B689847E868036800217E
:102870005B6A98470446A0B106460022374B426087
:10288000027246F80C3B3046019209F093FB142388
:102890002387334B019A1B78A287002B38D1012361
:1028A0002372A868036800215B6A9847064608B14E
:1028B000FDF748FF6868036800215B6A9847054692
:1028C00010B13146FDF758FFC9F80040C8F8005074
:1028D0003E60002D35D02B1D0C9A1360AA60336822
:1028E000F5633046DB6898472B6828461B68984795
:1028F000214630460EF032FD236820461B6998477A
:10290000236820465B699847284603B0BDE8F08FEE
:10291000144BDFF854A0B3F90030BAF900B00193BA
:1029200011463046FEF7AEF8019B59461A4630462E
:10293000FFF7B4FD304609F0B8FABAF80030638703
:10294000AFE72B46C8E700BF8C400208994A02084F
:102950001A4102085B410208FE41020828400208B1
:10296000B9310120B0310120AE31012007B5D0F8D6
:1029700058310093D0F85421044B00F59E7104485F
:10298000FFF724FF03B05DF804FB00BF0432012011
:10299000003201202DE9F74F0746906899460368F9
:1029A0001B6A88461546984741F2B313984205D8EA
:1029B000574B584AA32158481FF086FF68680368A0
:1029C0001B6A98470F2803D8544B524AA421F2E7B8
:1029D000E86803681B6A98473F2803D8504B4D4A64
:1029E000A521E8E70CF08EFE04300CF0F1FED9F8DA
:1029F000000010B10368DB689847D9F8000010B1F7
:102A000003681B689847386810B103685B6998478A
:102A1000D8F8000010B103685B689847386810B1B7
:102A200003681B689847D8F8000010B103689B68DA
:102A30009847E868036800215B6A98470446A0B19C
:102A400006460022374B4260027246F80C3B304685
:102A5000019209F0AFFA14232387334B019A1B78B4
:102A6000A287002B38D101232372A86803680021B4
:102A70005B6A9847064608B1FDF7C0FE68680368C0
:102A800000215B6A9847054610B13146FDF790FE7C
:102A9000C9F80040C8F800503E60002D36D02B1D0C
:102AA0000C9A1360AA603368F5633046DB68984778
:102AB0002B6828461B689847214630460EF04EFC8E
:102AC000236820461B699847236820465B6998471E
:102AD000284603B0BDE8F08F144BDFF854A0B3F9DB
:102AE0000030BAF900B0019311463046FDF7CAFF35
:102AF000019B59461A463046FFF7D0FC304609F094
:102B0000D4F9BAF800305B426387AEE72B46C7E7DB
:102B10008C400208CE4B02081A4102085B410208B1
:102B2000FE41020804400208B9310120B031012001
:102B3000AE31012007B5D0F858310093D0F85421B8
:102B4000044B00F59E710448FFF724FF03B05DF8C5
:102B500004FB00BF04320120003201202DE9F041C6
:102B60001A4B0360002500F110060446456005720B
:102B700041728572C5812946282230461FF019FF0F
:102B8000012384F83530124B2361124BA582B3F92F
:102B90000070114BE582B3F9008025832A4629464F
:102BA00030466583A583E58325846584258665860F
:102BB00084F83450A781FDF765FF30464246394618
:102BC000FFF76CFC2046BDE8F08100BF4C400208D6
:102BD0000C3F0208AE310120B03101202DE9F04751
:102BE00007469068DDF820A0994603681B6A88466E
:102BF0001446984741F2A303984205D8414B424AF4
:102C0000A32142481FF060FE606803681B6A984772
:102C10000F2803D83E4B3C4AA421F2E7E068036842
:102C20001B6A9847372803D83A4B374AA521E8E76B
:102C30000CF068FD04300CF0CBFDD9F8000010B1A9
:102C40000368DB689847D9F8000010B103681B6877
:102C50009847386810B103685B699847D8F8000056
:102C600010B103685B689847386810B103681B6847
:102C70009847D8F8000010B103689B689847E0684F
:102C8000036800215B6A9847054610B11421FFF7DD
:102C900065FFA068036800215B6A9847064608B193
:102CA000FDF790FC6068036800215B6A9847044662
:102CB00010B13146FDF7A0FCC9F80050C8F800403B
:102CC0003E60E4B1231DCAF80030C4F808A03368A0
:102CD000F4633046DB689847236820461B689847B2
:102CE000294630460EF03AFB2B6828461B69984768
:102CF0002B6828465B6998472046BDE8F087234645
:102D0000E1E700BF8C400208A94302081A4102080B
:102D10005B410208FE41020807B5D0F85831009324
:102D2000D0F85421044B00F59E710448FFF756FF7C
:102D300003B05DF804FB00BF043201200032012023
:102D40002DE9F04707469068DDF820A09946036812
:102D50001B6A88461446984741F2A303984205D857
:102D6000414B424AA32142481FF0AEFD6068036810
:102D70001B6A98470F2803D83E4B3C4AA421F2E730
:102D8000E06803681B6A9847372803D83A4B374AEC
:102D9000A521E8E70CF0B6FC04300CF019FDD9F8D9
:102DA000000010B10368DB689847D9F8000010B143
:102DB00003681B689847386810B103685B699847D7
:102DC000D8F8000010B103685B689847386810B104
:102DD00003681B689847D8F8000010B103689B6827
:102DE0009847E068036800215B6A9847054610B180
:102DF0001421FFF7B3FEA068036800215B6A9847BF
:102E0000064608B1FDF73AFC6068036800215B6A7A
:102E10009847044610B13146FDF70AFCC9F8005046
:102E2000C8F800403E60E4B1231DCAF80030C4F881
:102E300008A03368F4633046DB689847236820466F
:102E40001B689847294630460EF088FA2B682846BA
:102E50001B6998472B6828465B6998472046BDE860
:102E6000F0872346E1E700BF8C40020817470208BD
:102E70001A4102085B410208FE41020807B5D0F87A
:102E800058310093D0F85421044B00F59E7104484A
:102E9000FFF756FF03B05DF804FB00BF04320120CA
:102EA0000032012003685B6A184700002DE9F041F9
:102EB0001A4B0360002500F11006044645600572B8
:102EC00041728572C5812946282230461FF071FD66
:102ED000012384F83530124B2361124BA582B3F9DC
:102EE0000070114BE582B3F9008025832A462946FC
:102EF00030466583A583E5832584658425866586BC
:102F000084F83450A781FDF7BDFD3046424639466E
:102F1000FFF7C4FA2046BDE8F08100BF7040020808
:102F20000C3F0208AE310120B03101202DE9F047FD
:102F300007469068DDF820A0994603681B6A88461A
:102F40001446984741F2A303984205D8404B414AA2
:102F5000A32141481FF0B8FC606803681B6A9847CA
:102F60000F2803D83D4B3B4AA421F2E7E0680368F1
:102F70001B6A9847372803D8394B364AA521E8E71A
:102F80000CF0C0FB04300CF023FCD9F8000010B1A9
:102F90000368DB689847D9F8000010B103681B6824
:102FA0009847386810B103685B699847D8F8000003
:102FB00010B103685B689847386810B103681B68F4
:102FC0009847D8F8000010B103689B689847002123
:102FD000E068FFF767FF054610B11421FFF766FFB1
:102FE000A068036800215B6A9847064608B1FDF7B0
:102FF00045FB6068036800215B6A9847044610B18E
:103000003146FDF715FBC9F80050C8F800403E6096
:10301000E4B1231DCAF80030C4F808A03368F46393
:103020003046DB689847236820461B689847294646
:1030300030460EF093F92B6828461B6998472B6899
:1030400028465B6998472046BDE8F0872346E1E7BC
:103050008C400208F14502081A4102085B4102084F
:10306000FE41020807B5D0F858310093D0F854213A
:10307000044B00F59E710448FFF758FF03B05DF85C
:1030800004FB00BF04320120003201202DE9F0478B
:1030900007469068DDF820A0994603681B6A8846B9
:1030A0001446984741F2A303984205D8404B414A41
:1030B000A32141481FF008FC606803681B6A984719
:1030C0000F2803D83D4B3B4AA421F2E7E068036890
:1030D0001B6A9847372803D8394B364AA521E8E7B9
:1030E0000CF010FB04300CF073FBD9F8000010B1A9
:1030F0000368DB689847D9F8000010B103681B68C3
:103100009847386810B103685B699847D8F80000A1
:1031100010B103685B689847386810B103681B6892
:103120009847D8F8000010B103689B6898470021C1
:10313000E068FFF7B7FE054610B11421FFF7B6FEB1
:10314000A068036800215B6A9847064608B1FDF74E
:10315000F9FA6068036800215B6A9847044610B179
:103160003146FDF709FBC9F80050C8F800403E6041
:10317000E4B1231DCAF80030C4F808A03368F46332
:103180003046DB689847236820461B6898472946E5
:1031900030460EF0E3F82B6828461B6998472B68E9
:1031A00028465B6998472046BDE8F0872346E1E75B
:1031B0008C400208654902081A4102085B41020876
:1031C000FE41020807B5D0F858310093D0F85421D9
:1031D000044B00F59E710448FFF758FF03B05DF8FB
:1031E00004FB00BF04320120003201202DE9F0472A
:1031F00007469068DDF820A0994603681B6A884658
:103200001446984741F2A303984205D8404B414ADF
:10321000A32141481FF058FB606803681B6A984768
:103220000F2803D83D4B3B4AA421F2E7E06803682E
:103230001B6A9847372803D8394B364AA521E8E757
:103240000CF060FA04300CF0C3FAD9F8000010B1A9
:103250000368DB689847D9F8000010B103681B6861
:103260009847386810B103685B699847D8F8000040
:1032700010B103685B689847386810B103681B6831
:103280009847D8F8000010B103689B689847002160
:10329000E068FFF707FE054610B11421FFF706FEB0
:1032A000A068036800215B6A9847064608B1FDF7ED
:1032B000E5FA6068036800215B6A9847044610B12C
:1032C0003146FDF7B5FAC9F80050C8F800403E6035
:1032D000E4B1231DCAF80030C4F808A03368F463D1
:1032E0003046DB689847236820461B689847294684
:1032F00030460EF033F82B6828461B6998472B6838
:1033000028465B6998472046BDE8F0872346E1E7F9
:103310008C400208CB4402081A4102085B410208B3
:10332000FE41020807B5D0F858310093D0F8542177
:10333000044B00F59E710448FFF758FF03B05DF899
:1033400004FB00BF04320120003201202DE9F047C8
:1033500007469068DDF820A0994603681B6A8846F6
:103360001446984741F25B03984205D8404B414AC6
:10337000A32141481FF0A8FA606803681B6A9847B8
:103380000F2803D83D4B3B4AA421F2E7E0680368CD
:103390001B6A9847372803D8394B364AA521E8E7F6
:1033A0000CF0B0F904300CF013FAD9F8000010B1A9
:1033B0000368DB689847D9F8000010B103681B6800
:1033C0009847386810B103685B699847D8F80000DF
:1033D00010B103685B689847386810B103681B68D0
:1033E0009847D8F8000010B103689B6898470021FF
:1033F000E068FFF757FD054610B11421FFF756FDB1
:10340000A068036800215B6A9847064608B1FDF78B
:1034100059F96068036800215B6A9847044610B157
:103420003146FDF769F9C9F80050C8F800403E6020
:10343000E4B1231DCAF80030C4F808A03368F4636F
:103440003046DB689847236820461B689847294622
:1034500030460DF083FF2B6828461B6998472B6880
:1034600028465B6998472046BDE8F0872346E1E798
:103470008C4002083D4802081A4102085B410208DC
:10348000FE41020807B5D0F858310093D0F8542116
:10349000044B00F59E710448FFF758FF03B05DF838
:1034A00004FB00BF0432012000320120704710B538
:1034B0002C2104461EF024FB204610BD30B5184DCB
:1034C0002C78BFF35B8F14F001048FB024D1284611
:1034D0001EF0EEFA00B33F230993124B0893124BF0
:1034E00007930123CDE9053304930423CDE9024377
:1034F00013232E220D490093CDE90B4417230A9480
:1035000001940B4800F062F828461EF0DDFA094AE3
:10351000094907481EF0EFFA05480FB030BD00BF5B
:1035200084010020EC790208DC79020814690208A1
:103530008801002000000020AD34000813B50022EF
:1035400049B102AB019203F8052D0268946801AA03
:10355000A04702B010BD0846FBE7C0897047008A4B
:103560007047C088704780887047807A00F07F007D
:103570007047807AC0097047406A7047806A704718
:103580008B88C0690A68DB0A50F823001044704732
:1035900010B5C2B1137BB3B1547BD27A240204F4C8
:1035A000E0641443026A98B202EB840213888B42EF
:1035B00002D192F9020010BD05D8013880B2043260
:1035C0000028F3D1F7E70020F5E7000030B58BB015
:1035D0000446BDF860500895BDF85C5007959DF80D
:1035E000505006959DF84C5005959DF8485004950F
:1035F0009DF8445003959DF8405002959DF83C502D
:103600000195BDF8385000950DF012FA064B236075
:10361000159BE361169B2362199B63621A9BA3624D
:1036200020460BB030BD00BF1C4D020830B5184D10
:103630002C78BFF35B8F14F001048FB024D128469F
:103640001EF036FA00B33F230993124B0893124B36
:1036500007930123CDE9053304930423CDE9024305
:103660000A2311220D490093CDE90B440C230A943F
:1036700001940B48FFF7AAFF28461EF025FA094AD5
:10368000094907481EF037FA05480FB030BD00BFA2
:10369000B4010020E8790208E47902088077020882
:1036A000B801002000000020AD34000830B5174DEF
:1036B0002C78BFF35B8F14F001048FB022D1284621
:1036C0001EF0F6F9F0B13F230993114B0893114B0B
:1036D00011490A940122CDE906430423CDE90332BE
:1036E00028230093CDE90B440594CDE901440B4810
:1036F000FFF76CFF28461EF0E7F9094A0949074819
:103700001EF0F9F905480FB030BD00BFE4010020FC
:10371000E0790208907A0208CC790208E8010020DA
:1037200000000020AD340008704710B504210446A5
:103730001EF0E6F9204610BD012908B508D003D3D4
:10374000022909D0002002E000F012F8006808BD4C
:1037500000F00EF84068FAE700F00AF88068F6E733
:1037600000487047884D02080920704720207047A4
:10377000004870471402002010B5FFF79FFE044C6C
:103780002060FFF793FF6060FFF750FFA06010BD5F
:103790001402002000207047002070470EB403B5CB
:1037A00003AB002153F8042B01930CF069FF02B026
:1037B0005DF804EB03B070470CB407B504AB53F8E5
:1037C000042B01930CF05CFF03B05DF804EB02B036
:1037D0007047000010B5436C044673B3038F2BB9D8
:1037E000184B194AC52119481FF06EF8C38E00EB1B
:1037F00043035B8C0BB30EF040FB238F012B03D8EC
:10380000134B144ACB21EEE7E28E531C9BB2092BDB
:10381000194688BFA3F10A0104EB410140F63F10AD
:10382000498C814209D10A2B04EB420228BF0023B4
:1038300004EB4303508C588451842046BDE810406B
:103840000EF01EBA3C4E0208694F0208454E0208AF
:10385000894E0208974E02080EF0D9B910B586B00D
:1038600002AC84E806001A460AAB05930193099B53
:1038700000932146089B0BF0C7FA06B010BD00006C
:1038800038B5D8B9114B12481B681249BBB11A6838
:103890009C681A4402605A681A440A601C446CB15D
:1038A0000D4B00221A80FFF763FF0546FFF75EFF0E
:1038B0000A4B1C600A4B1D600A4B188038BD0A4B2E
:1038C00003600A4B0B600A4B1C68E8E720020020EB
:1038D00024020020280200202C02002014320120A3
:1038E0001C32012018320120E02B10081C2B10087C
:1038F000DC2B1008044B1B6853F82100034B1B689A
:1039000003EB4000704700BF280200202402002083
:10391000012380F8781080F87930704700207047D4
:103920004164034B003118BF01211970704700BF7B
:10393000B931012000207047836B0BB1084618474E
:1039400070474FF6FF707047406803689B691847DF
:103950007047704780F82610704790F8260070472F
:1039600010B50022B1F90840B1F90A100280428076
:103970008480C18010BD0022028042808280C2808B
:1039800070470000034B902283F85A2383F8582392
:10399000704700BF00E100E0094A0A49D3680A48BD
:1039A000C3F30A03013B9BB20B801169C1F30A0107
:1039B000013901801364536B43F001035363704773
:1039C00000680140300200202E020020014B986A5E
:1039D000704700BF84680140024B0122996243F89E
:1039E000602C70478468014010B531B90A4B0B4A0E
:1039F0000B4840F2D2211EF067FFC0E90F120032DF
:103A0000084918BF01220A7002681946D2F88C20B2
:103A1000BDE81040104700BF77500208315102083E
:103A2000AF500208B831012008B5094B1B888B4202
:103A300003D8084B1B88934205D9074B074A08480F
:103A40009E211EF041FF074B1980074B1A8008BDCD
:103A5000AE310120B031012014500208EE500208AE
:103A6000AF500208B4310120B631012070B50446D0
:103A700006F0C7FE23685D6E0BF044FE014620464B
:103A8000A8472368054AD3F888502046AC4600234F
:103A9000A2F51631BDE87040604700BF005802D063
:103AA00006F096BE06F0A0BE06F05CBE06F0BDBFF6
:103AB00010B5044607F0E4FB23682046D3F8AC3089
:103AC000BDE81040184790F87A301BB14068036891
:103AD0001B6818471846704710B590F8784090F862
:103AE00034100C4B8C421A7809D03AB90A4A0B4967
:103AF0001488088810800C8001221A7010BD002ADA
:103B0000FCD0054A05491488088810800C800022E2
:103B1000F3E700BFB2310120AE310120B031012006
:103B2000034B4FF080629A604FF080729A6070474A
:103B300000E100E0084B4FF08062C3F88820BFF33B
:103B40004F8FBFF36F8F4FF08072C3F88820BFF3A1
:103B50004F8FBFF36F8F704700E100E010B5144C3A
:103B6000236823B3134B144A1B6C11888B4213D167
:103B7000124B198803F010FC226892F86A30013366
:103B800082F86A3000F036FA206807F079FB0020EE
:103B9000BDE8104000F042BC03F0FEFB2068036863
:103BA0001B6A98470020BDE8104000F061BC10BDC2
:103BB000BC31012000680140300200202E020020AC
:103BC00003685B6C18470120704703689B6A1847BD
:103BD00082B0002301930D4B1A6B42F400021A636A
:103BE0001A6B02F400020192019A1A6942F400026F
:103BF0001A611A6922F400021A61054B054A1A611A
:103C0000054B4FF080629A6002B070470038024066
:103C1000C83C0120253C000800E100E040F2EF3004
:103C200070470000024B1B68586803685B691847BF
:103C3000BC31012008B50B280BD8DFE800F01206D4
:103C4000100A0A0A0A0808080808012008BD052009
:103C5000FCE7054B054A064865211EF035FE0020AD
:103C6000F4E70220F2E700BF995102086A52020805
:103C7000B451020808B50A2809D8DFE800F0100698
:103C80000E080808080606060600012008BD054BB8
:103C9000054A064886211EF017FE0020F6E702209E
:103CA000F4E700BF99510208B4520208B451020867
:103CB000F8B50C46487FFFF7BDFFA77F054638469D
:103CC000FFF7B8FF06463846FFF7D4FFA38A628B9A
:103CD000D21A494B1A64A18A628B521A9A61A18A3C
:103CE000228B521A1A615863A18AE28A42EA01427F
:103CF0005A642269DA636268DA602268402A70D006
:103D000010D8042A3BD0202A6BD0237F45EA0365D4
:103D1000394B45F40035DD61617FA27F914267D068
:103D2000364A4BE0B2F5807F1BD0B2F5007F23D03E
:103D3000802AEAD1A068021DDA62227F45EA026584
:103D400045F40035DD615E6222695A610278EAB1AC
:103D5000012A35D02A4B2B4A2B484FF488711EF08C
:103D6000B3FD217F294A42EA0162DA61E2681A6200
:103D70005E6222695A6120E0217F254AF3E7227FB3
:103D800045EA026545F40035DD61F1E7D96942880D
:103D9000501E21F47F4222F0100242EA0022DA6132
:103DA0000121154BDA6942F02002DA61DA699206E4
:103DB000FCD410229A600029B2D0164A1A60F8BDCD
:103DC000DA694088217F22F47F4222F01002013814
:103DD00042F01002FF3942EA002218BF0121DA61E5
:103DE000DFE7237F45EA036545F40035024BCBE767
:103DF00040F20122E2E700BF00B0024001020100F0
:103E00007F5102082C520208B45102080A00020035
:103E1000090002000102020010B5887F0C46FFF77E
:103E200029FF1C4B5863A18AE28A42EA01425A6484
:103E30002269DA63628BA18A521A1A642268082AFC
:103E400016D1A18A628B521A9A61A18A628B521A88
:103E50001A615862217F104A42EA0162DA61E2681F
:103E60001A6222695A612269DA600C4A1A6010BD2E
:103E70000022D8611A61E1680A0A480902F478420E
:103E800000F4FC600243C1F3C4010A439A63044A8C
:103E9000ECE700BF00B0024009000100010202008F
:103EA00001020300054B0360054B4FF08062C3F82D
:103EB0008820BFF34F8FBFF36F8F7047E451020824
:103EC00000E100E010B50446FFF7ECFF20464FF498
:103ED0005A611DF015FE204610BD000070B5054664
:103EE0002C460A4B0C30002668602E726E7244F825
:103EF000203B6022214607F01BFB05F55A63E66074
:103F00002434A342FBD1284670BD00BFE45102080F
:103F1000034B1A68D207FCD423229A60704700BF73
:103F200000B0024030B50F4C2568ED07FCD42325C6
:103F30000904A56041F001010225FF2B656361645E
:103F4000E0630AD00849656241EA0363E361074B15
:103F500022626061E060236030BDE561039BA36382
:103F6000034BF8E700B00240090001000100020025
:103F700001000300012108B50022084605F0B9F848
:103F80000A4B186028B90A4B0A4A28210A481EF031
:103F90009BFC00220421012005F04CF9074B18601E
:103FA00018B9074B034A2C21F0E708BD380200205E
:103FB000FF520208B353020848530208340200209B
:103FC00071530208024B4FF0FF31186805F0DCB85E
:103FD00038020020014B186805F002B938020020B1
:103FE000024B0021186805F0CFB800BF380200204E
:103FF000FFF7F0BF03480449006800231A4605F0A4
:1040000055B900BF340200200400002013B5084C4D
:1040100000231A4601A9206805F07AF94FF0FF3312
:10402000002201A9206805F073F902B010BD00BF9D
:1040300034020020704770477047012070474020CD
:10404000704700EB81100830704700EB811008309A
:1040500070470120704741F2B410704741F2B41329
:1040600003FB01000830704741F2B41303FB010069
:1040700008307047012070471020704700EB011096
:104080000830704700EB0110083070470846FEF713
:1040900057BA000010B5034B0360044605F008FF53
:1040A000204610BD5454020810B50446FFF7F2FF35
:1040B000204648211DF024FD204610BD10B5034BBD
:1040C0000360044605F0F4FE204610BD20540208AB
:1040D00010B50446FFF7F2FF204641F2BC111DF077
:1040E0000FFD204610BD000010B5034B03600446D1
:1040F00005F0DEFE204610BDEC53020810B5044664
:10410000FFF7F2FF204618211DF0FAFC204610BDF3
:1041100010B5094B0360044600F58F500830FFF7D7
:10412000B9FF04F12C00FFF7C9FF04F11400FFF7F9
:10413000DBFF204610BD00BF8854020810B50446BE
:10414000FFF7E6FF204641F290311DF0D9FC2046F2
:1041500010BD00002DE9F341FFF702FB0546FFF714
:1041600003FB0024014623462846224600940EF015
:1041700057F9244B244A254D1A602046FFF780FB4F
:1041800023480EF0B5F82B78BFF35B8FDB0733D4F1
:1041900028461DF08DFC78B31E4C1F4F1F4BE76067
:1041A00004F1140000F5915604F12C086060C4F885
:1041B00008802661236005F07DFE194B636140464F
:1041C00005F078FE174BE362384605F073FE164B98
:1041D0003B60301FFCF75EFB2246311F3046FCF788
:1041E0008DFB3046FEF7ACF928461DF06DFC0F4AFA
:1041F0000F4920461DF07FFC0E4802B0BDE8F0419B
:1042000000F0D4B820320120F02300203C0200202E
:1042100008000020400200202814002088540208D2
:10422000EC530208205402085454020800000020F5
:10423000114100087423002070470000014800F07D
:10424000C3B800BF7423002010B5042104461DF03C
:1042500057FC204610BD10B5842104461DF050FCCB
:10426000204610BD10B57C2104461DF049FC2046B7
:1042700010BD0000F8B5394C394D3A4F3A4B3B4927
:104280002B60224628461DF036FC394E3846FFF793
:1042900025FE2246374938461DF02DFC304612F0E7
:1042A00083FB2246344930461DF025FC2246334923
:1042B00033481DF020FC3348334981663349C560DB
:1042C00000230122324D0385C0E90176C0E90433A1
:1042D000C0E90633C0E9083380F82A30C362038698
:1042E000C0E90E33C0E9103380F8483080F8492027
:1042F00080F84A3080F84B30C0E91333436580F8CA
:104300005830C0E91733436680F86C3080F86D3060
:1043100080F86E3080F86F300860F02129801D4DE4
:1043200080F8703029801C4D43674FF4A0712980BC
:104330001A4D80F878302980194980F879300B704F
:10434000184B80F87A2080F87B2080F834200360B6
:1043500022461549BDE8F8401DF0CDBB0000002005
:10436000D0150020D41500207455020835400008EF
:10437000F4230020A53E0008374000082937000834
:10438000080000207423002001000001BC3101203E
:10439000AE310120B4310120B0310120B63101200D
:1043A000B23101209C5402083940000810B504467F
:1043B000FFF75CFB23680349D3F88C302046BDE847
:1043C0001040184700B004D008B503680446D3F87D
:1043D00080309847236820469B6F9847FFF716FE6A
:1043E000236820461B6F9847292000F04FFCFFF7F9
:1043F0000DFE236820461B6F9847F8E7FFF7E6BAE3
:10440000FFF7EABAFFF750BBFFF7BCBAFFF788BB6C
:10441000FFF790BBFFF7C0BA06F09EB9032821D87A
:10442000DFE800F0020B12190F4B1A68B2FA82F2A1
:10443000520904210D4802F0A3B90B4B5A68B2FA95
:1044400082F252090821F5E7074B9A68B2FA82F224
:1044500052091021EEE7044BDA68B2FA82F25209EF
:104460002021E7E7704700BF7824002000100240B9
:10447000032821D8DFE800F0020B12190F4B1A684D
:10448000003218BF012204210D4802F079B90B4B0C
:104490005A68003218BF01220821F5E7074B9A68D5
:1044A000003218BF01221021EEE7044BDA68003217
:1044B00018BF01222021E7E7704700BF78240020C1
:1044C0000010024003280DD8DFE800F00206080AB9
:1044D0000421054802F059B90821FAE71021F8E74C
:1044E0002021F6E7704700BF0010024008B50328FE
:1044F00011D8DFE800F0020A0C0E0421074802F090
:1045000039F9431E5842584108BD0821F6E71021E9
:10451000F4E72021F2E70020F3E700BF001002409B
:1045200070B5084D00240126E0B2FFF7DFFF28B187
:1045300055F82430012B18BF45F824600134052CB0
:10454000F2D170BD7824002038B50C4B0C4C18808B
:104550000C4B822019806368984740F611039842FB
:104560000AD1094D23682C60822098472B6882204D
:10457000DB689847002038BD0120FCE78824002034
:10458000240000208A2400208C2400204FF4A071F5
:10459000F020FFF7D9BF0000F7B5324D2B68044675
:1045A0001B698220984780B22080002852D02B6857
:1045B0000DF106025B6901A982209847BDF806202B
:1045C00040F674639A4247D9ADF80630BDF806202C
:1045D0009B1A9BB20B22B3FBF2F333B1224A12882F
:1045E0009A423CBF02F1FF339BB2BDF8042040F673
:1045F000B8318A4295BFC2F57162C2F56D620E3262
:104600000832ADF80420BDF804100F22B1FBF2F11E
:1046100031B1164A12888A423CBF02F1FF3189B299
:10462000134E144D30682F6882B2814288BF8A1AB7
:10463000B8B298BF521ABB428CBF181AC01A92B2B5
:1046400080B20244052AC4BF31602B6033686380A6
:104650002B68A38003B0F0BDB32A9CBFB422ADF891
:104660000620B3E78C2400208A2400208824002020
:10467000902400209424002037B568460D46144647
:10468000FFF78AFFBDF8000030B1BDF802302B60A3
:10469000BDF804302360012003B030BD054BD3F8D2
:1046A000882042F47002C3F888204FF000629A60BC
:1046B000704700BF00ED00E070B588B000230293A2
:1046C000204B1A6C42F010021A641B6C03F01003AA
:1046D0000293064601A903A8029B01F061F8069B1C
:1046E0004BBB01F04DF8184C184B236040F2E733F8
:1046F000E360174BB0FBF3F0013800236060204605
:104700002361A360A36101F0B5F9054680B9204695
:1047100001F066F8054658B9362001F08BFE0F2EE1
:104720000DD82A463146362001F050FE094B1E6056
:10473000284608B070BD01F023F84000D3E70125FA
:10474000F6E700BF003802401C3B0120001000408B
:1047500040420F001C00002007B5064B02A91B6851
:1047600021F8020D0122044802F027F903B05DF898
:1047700004FB00BF14000020BC3B012008B56420EE
:1047800004F0ABFCFBE7000030B595B0302200210F
:1047900008A81EF00EF91422002103A81EF009F942
:1047A00000241D4B01941A6C42F080521A641B6C59
:1047B00003F080530193019B184B02941A6842F452
:1047C00040421A601B6803F4404302930122029B9B
:1047D0004FF48033CDE9082302254FF48003CDE95F
:1047E0000E5308214FF4A873CDE9101308A8042331
:1047F0001393129500F04CFD0F23CDE903354FF4D0
:10480000A0504FF48053CDE90603052103A8059479
:1048100000F018FF15B030BD0038024000700040B5
:1048200080B59AB002F0D8FDFFF7AEFF1422002148
:104830000DA800241EF0BDF8C04B00941A6BC048B0
:10484000C04D42F010021A631A6B02F0100200927F
:10485000009A01941A6B42F020021A631A6B02F05C
:1048600020020192019A02941A6B42F080021A63AC
:104870001A6B02F080020292029A03941A6B42F0C1
:1048800004021A631A6B02F004020392039A04945E
:104890001A6B42F001021A631A6B02F001020492D1
:1048A000049A05941A6B42F002021A631A6B02F022
:1048B00002020592059A06941A6B42F040021A63AE
:1048C0001A6B02F040020692069A07941A6B42F0A5
:1048D00008021A631B6B03F00803079322463C216E
:1048E000079B01F04DFF22460421974801F048FF45
:1048F00022464FF44051954801F042FF01264FF007
:1049000003083C230DA98E48CDF8408002274FF0C4
:104910000409CDE90D360F9401F03EFE0DA98A4839
:104920000F94CDE90D96109701F036FE0DA94FF4C6
:1049300040538648CDE90D36CDE90F4701F02CFEF6
:104940008348844B036002F0B5FE834A834B2C629C
:10495000C5E9002328464FF48043C5E90434C5E97E
:104960000244C5E9064401F087FA1021284601F007
:10497000D5FC2146284601F0F3FC79487949846248
:104980004FF48273C0E900134FF400751823C0E997
:1049900006530A23744DC362C0E90244C0E90444CB
:1049A000C0E9084401F0AAFF704B0D974FF0100CBE
:1049B000C5E900364023C5E904C34FF4C073C5E917
:1049C00006344FF40063C5E908344FF40053AB627A
:1049D0000DA907232846CDE90E39CDE910384FF04F
:1049E000080AC5E90249CDE9127700F0FBFB4FF652
:1049F000FF7209A9284608940996CDE90AA60C94E5
:104A000000F010FC304602F013FD4FF6FF7209A9CA
:104A10002846CDE9097ACDE90B6400F003FC4FF696
:104A2000FF7209A92846CDE9098ACDE90B9400F067
:104A3000F9FB4FF40C730893089B0C934FF6FF722D
:104A400009A92846CDE9099A0B9600F0EBFB40F244
:104A50006A51284600F004FC342221460DEB020086
:104A60001DF0A7FF424D434B2C61C5E900340923DB
:104A7000C5E905361D2340F20D1EC5E9073840F291
:104A80004313C5E909E340F2171840F24713C5E99B
:104A90000B83C5E90244AC8685F83640284602F00F
:104AA00075FBFF21F022CDE912144FF48069052136
:104AB0004FF4A073CDE90E24CDE91491CDE916424F
:104AC0000DA922462846CDE910372B4D18930D9499
:104AD000ADF864408DF8664002F035FC274B2B6042
:104AE0001B6898472B68264DDB689847254BC5E91E
:104AF0000A47C5E90C442846C5E90034C5E90274F3
:104B000002F096F93146284602F052FA02F0E3FD2F
:104B100002F0E0FD04F06CFA1B4A1C48214604F048
:104B200093FA1B4B1B4A186021461B4804F08CFA71
:104B30001A4B186004F06EFAFEE700BF003802401E
:104B400000100240683B012000080240000C0240B7
:104B5000143C012000300240005C0040A0860100AF
:104B6000BC3B012000500140083D0120400100A055
:104B70001C3C012000680140982400204C000020CB
:104B8000C83C012000B00240C05502087D47000823
:104B9000643B01209C550208E5760008C43C0120D6
:104BA0007047704710B586B006AC074B04F8012D6E
:104BB0001B68029301230A46CDE9004301460348DE
:104BC00001F00AFA06B010BD10000020683B012079
:104BD0007FB506AA002302F8013D084B1B6802932B
:104BE0000123CDE900230A460146054801F088FA71
:104BF0009DF8170007B05DF804FB00BF100000200F
:104C0000683B01201FB5084C24680092CDE90134AF
:104C10000A4601230146054801F072FA003018BF28
:104C2000012004B010BD00BF10000020683B01202F
:104C300002F0FEBB10B5064C00222046042101F014
:104C40009FFD204601220421BDE8104001F098BDDF
:104C50000008024038B50B4C054601224FF40051C4
:104C6000094801F08DFD00220421204601F088FD55
:104C70002846FFF771FD204601220421BDE8384097
:104C800001F07EBD00080240000C024038B50B4C1C
:104C9000054600224FF40051094801F071FD002241
:104CA0000421204601F06CFD2846FFF755FD204603
:104CB00001220421BDE8384001F062BD0008024035
:104CC000000C0240F7B5144C144D07460E46204622
:104CD0000022042101F054FD00224FF40051284627
:104CE00001F04EFD3846FFF737FD0D4B0D481B68B0
:104CF000324601A901F0FDFF284601224FF4005180
:104D0000019E01F03DFD20460122042101F038FD05
:104D1000304603B0F0BD00BF00080240000C024066
:104D200014000020BC3B012002F082BB0268034B50
:104D30009A4201D102F06ABB704700BF00100040E8
:104D400070477047FEE7FEE7FEE7FEE770470000AA
:104D5000014800F083BD00BF1C3B0120014802F068
:104D600091BA00BF1C3C0120014802F091B800BF7D
:104D7000C83C012082B00E4B00220092596C41F4D5
:104D800080415964596C01F480410091009901926D
:104D9000196C41F0805119641B6C03F0805301932E
:104DA000019B0F216FF0010002B001F00FBB00BFAB
:104DB000003802400268094B9A4282B00BD10023AE
:104DC0000193074B1A6B42F480521A631B6B03F476
:104DD00080530193019B02B0704700BF0030024036
:104DE0000038024007B50F4B02689A4216D10022E4
:104DF000A3F5F0430192196B41F4000119631B6B99
:104E000003F40003019305215A20019B01F0DEFA0F
:104E10005A2003B05DF804EB01F00CBB03B05DF861
:104E200004FB00BF00B002402DE9F043044689B006
:104E30001422002103A81DF0BCFD2268244B9A42D5
:104E400043D1244C244800250095236B43F00403F0
:104E50002363236B03F004030093009B0195236BF2
:104E600043F001032363236B03F001030193019BD0
:104E70004FF012094FF400734FF001080327042686
:104E800003A9CDE90339CDE90587079601F084FB35
:104E90004FF4807303A911480796CDE90339CDE992
:104EA000058701F079FB0295236C43F4000323642A
:104EB000236C03F400030293029B236A43F4000370
:104EC0002362236A23F40003236209B0BDE8F08360
:104ED000005C004000380240000802400000024030
:104EE000F0B599B004461422002107A81DF061FD19
:104EF00030220DEB020000211DF05BFD22685E4BAD
:104F00009A4240F0B78008230C93C02310930423E7
:104F100012930CA84FF40033159302F09DFA08B1D8
:104F2000FFF70EFF554B5648002400945A6C42F090
:104F300080625A645A6C02F080620092009A019476
:104F40001A6B42F020021A631A6B02F020020192DF
:104F5000019A02941A6B42F001021A631A6B02F072
:104F600001020292029A03941A6B42F002021A633F
:104F70001A6B02F002020392039A04941A6B42F035
:104F800040021A631A6B02F040020492049A0594DC
:104F90001A6B42F004021A631A6B02F004020592C3
:104FA000059A06941A6B42F008021A631B6B03F011
:104FB0000803069302250E26069B0B964FF480638A
:104FC00007A9CDE90735CDE9094501F0E5FA41F634
:104FD000580307A92B480B96CDE907350927CDE9DA
:104FE000094501F0D9FA032307A927480B97CDE912
:104FF0000735CDE9094501F0CFFA4FF4706307A9F1
:1050000021480B96CDE90735CDE9094501F0C4FAF1
:105010004FF40C6307A91D480B96CDE90735CDE980
:10502000094501F0B9FAC02307A919480B96CDE943
:105030000735CDE9094501F0AFFA082307A915485E
:105040000B96CDE90735CDE9094501F0A5FA4FF4F6
:10505000A05307A90D480B97CDE90735CDE90945C0
:1050600001F09AFA58202246052101F0AFF95820A4
:1050700001F0E0F919B0F0BD0068014000380240CD
:1050800000140240000002400004024000180240E8
:1050900000080240000C024010B5044688B01422FB
:1050A000002103A81DF085FC2268144B9A4223D1ED
:1050B00003F56843002101915A6C114842F48012B3
:1050C0005A645A6C02F480120192019A02911A6B8E
:1050D00042F020021A631B6B03F020030293029B31
:1050E0004FF4607202230321CDE903230523CDE9A8
:1050F000061303A901F050FA08B010BD005001409A
:10510000001402402DE9F04186B01422002101A8CC
:105110001DF04FFC2B4B1C68002C4FD14FF00108A9
:10512000C3F80080284B00949A6B284842EA080292
:105130009A639B6B03EA08030093022703260C255E
:10514000009B01A94FF63F03CDE90137CDE9046586
:1051500001F022FA01A91E480595CDE90187CDE9A4
:10516000034601F019FA48F2331301A919480595CD
:10517000CDE90137CDE9034601F00EFA4FF683730E
:1051800001A915480595CDE90137CDE9034601F0A0
:1051900003FA4CF2037301A910480595CDE90137D4
:1051A000CDE9034601F0F8F9602301A90C48059503
:1051B000CDE90137CDE9034601F0EEF906B0BDE8CF
:1051C000F08100BF9C2400200038024000140240FF
:1051D000000802400018024000100240000C02408B
:1051E0000004024038B50D460446C8B190F82C3092
:1051F00003F0FF021BB980F82D20FFF783FF022385
:1052000084F82C30211D206801F022F962682068A2
:10521000294601F051F9012384F82C30002038BDD3
:105220000120FCE770B5054690F82C00C0B20228BA
:105230000E4612D000F0FB04012C0FD1022385F89A
:105240002C30286801F07AF93368022B06BF052359
:1052500085F82C3085F82C40002070BD0120FCE73B
:1052600038B5044690F82C00C0B202280DD094F84E
:105270002C50EDB2012D09D1022384F82C30206886
:1052800001F080F984F82C50002038BD0120FCE7A3
:105290002DE9F341044608B9012041E00368DD0728
:1052A00010D4236898075AD423681A0700F19C8009
:1052B00023685B0700F1BA80A069002840F01C81D8
:1052C00000202DE0A44B9A6802F00C02042A07D0BB
:1052D0009A6802F00C02082A0AD15B68590207D5C5
:1052E0009D4B1B689A03DCD56368002BD9D1D3E7AB
:1052F0006268994BB2F5803F15D11A6842F480324A
:105300001A606368F3B102F08DF8934D06462B687E
:105310009B03C6D402F086F8801B6428F7D90320CB
:1053200002B0BDE8F081B2F5A02F1A6803D142F4B3
:1053300080221A60E1E722F480321A601A6822F4AF
:105340008022DDE702F06EF8834D06462B689F034E
:10535000A7D502F067F8801B6428F7D9DFE77E4BFA
:105360009A6812F00C0F07D09A6802F00C02082A13
:1053700011D15B685E020ED4774B1A68950702D58F
:10538000E268012A88D11A68216922F0F80242EA0B
:10539000C1021A6088E7E268704BB2B101221A605C
:1053A00002F040F86C4D06462B68980707D52B682D
:1053B000226923F0F80343EAC2032B6074E702F08A
:1053C00031F8801B0228EFD9A9E71A6002F02AF809
:1053D000614D06462B6899077FF566AF02F022F80B
:1053E000801B0228F6D99AE762695D4B7AB10122E7
:1053F0001A6002F017F8584D06466B6F9F073FF58D
:1054000057AF02F00FF8801B0228F6D987E71A6021
:1054100002F008F8504D06466B6F98077FF548AFCD
:1054200002F000F8801B0228F6D978E74A4B1A6C84
:1054300012F080522BD101921A6C42F080521A6401
:105440001B6C03F080530193019B0126454D2B6893
:10545000D9051ED5A268404B012A2AD11A6F42F005
:1054600001021A67A368002B37D001F0DBFF3A4D29
:10547000074641F288382B6F9B0728D5002E3FF452
:105480001BAF354A136C23F08053136414E70026D6
:10549000DCE72B6843F480732B6001F0C3FF074601
:1054A0002B68DA05D6D401F0BDFFC01B0228F7D95E
:1054B00035E7052A1A6F03D142F004021A67CDE7D7
:1054C00022F001021A671A6F22F00402C9E701F004
:1054D000A9FFC01B4045CED921E701F0A3FF1E4D17
:1054E000074641F288382B6F9807C7D501F09AFF1D
:1054F000C01B4045F7D912E7174DAB6803F00C030A
:10550000082B46D0184E00230228336034D101F016
:1055100089FF07462B68990128D4D4E90732134341
:10552000626A43EA8213E26A43EA0263A26A0A4CAD
:105530005208013A43EA02436B600123336001F0F1
:1055400071FF054623689A013FF5BAAE01F06AFF84
:10555000401B0228F6D9E2E600380240000047422C
:10556000800E4742007000406000474201F05AFF41
:10557000C01B0228CED9D2E601F054FF04462B68A6
:105580009B017FF59DAE01F04DFF001B0228F6D96F
:10559000C5E601283FF4C4AE6B68E26903F48001FC
:1055A00091427FF479AE216A03F03F028A427FF490
:1055B00073AE616A47F6C0721A40B2EB811F7FF486
:1055C0006BAEA26A520803F44031013AB1EB024FCC
:1055D0007FF462AEE26A03F07063B3EB026F14BF54
:1055E000012000209CE600BF08B513498B6803F03A
:1055F0000C03042B03D0082B03D0104800E0104804
:1056000008BD4A684B68496813F4800314BF0C480E
:105610000A48C1F3881118BF002302F03F02A1FB22
:105620000001FAF7E5FD044B5B68C3F30143013366
:105630005B00B0FBF3F0E3E7003802400024F40025
:1056400000127A002DE9F0410D46044610B9012000
:10565000BDE8F081454B1A6802F00F028A422AD356
:1056600023689E072FD42368D90743D43F4B1A6879
:1056700002F00F02AA4268D823685A076ED4236842
:105680001B0707D53A4A2169936823F4604343EA2C
:10569000C1039360FFF7A8FF354B364A9B68C3F3FD
:1056A0000313D35CD840344B1860344B1868FFF7B1
:1056B00003F80020CCE7CAB21A701B6803F00F038E
:1056C0008B42C4D1CCE7580741BF294A936843F4C1
:1056D000E05393602368264A13F0080F1EBF9368B7
:1056E00043F4604393609368A16823F0F0030B4395
:1056F0009360B8E762681E4B012A1CD11B6813F443
:10570000003FA4D01A4EB36823F003031343B360E1
:1057100001F088FE41F288380746B368626803F0FA
:105720000C03B3EB820FA1D001F07CFEC01B4045FF
:10573000F3D903208CE7911E01291B6802D813F0CE
:10574000007FDEE713F0020FDBE7EAB21A701B6896
:1057500003F00F03AB427FF47AAF8DE7044AE168B0
:10576000936823F4E0530B43936088E7003C0240C6
:1057700000380240845502080C0000201C00002064
:10578000044B054A9B68C3F38223D35C034A106829
:10579000D840704700380240945502080C000020A1
:1057A0000F2303600B4B9A6802F0030242609A6871
:1057B00002F0F00282609A6802F4E052C2609B68D4
:1057C000DB0803F4E0530361034B1B6803F00F0392
:1057D0000B60704700380240003C024070470000F8
:1057E00090F83D30012B31D10268022380F83D3022
:1057F000D36843F00103D3600368154A93421AD07B
:10580000B3F1804F17D0A2F57C42934213D002F53A
:10581000806293420FD002F5806293420BD002F572
:105820007842934207D002F57052934203D0A2F51A
:105830009432934204D19A6802F00702062A03D0F8
:105840001A6842F001021A60002070470120704778
:1058500000000140704770477047704710B50368FB
:105860001A69910704460FD5DA6892070CD56FF0D4
:1058700002021A610123037703689B699B077AD0B0
:10588000FFF7E9FF0023237723681A69500711D532
:10589000DA6851070ED56FF004021A6102232377EC
:1058A00023689B6913F4407F20466AD0FFF7D3FF3B
:1058B0000023237723681A69120710D5DA681007C6
:1058C0000DD56FF008021A61042323772368DB6982
:1058D000990720465BD0FFF7BEFF0023237723689C
:1058E0001A69D20611D5DA68D0060ED56FF010020B
:1058F0001A61082323772368DB6913F4407F20466D
:105900004BD0FFF7A8FF0023237723681A69D1073C
:1059100008D5DA68D20705D56FF001021A61204672
:10592000FFF704FA23681A69100608D5DA68110629
:1059300005D56FF080021A61204600F033FD236820
:105940001A69520608D5DA68500605D56FF040028C
:105950001A612046FFF781FF23681A69910622D554
:10596000DA6892061FD56FF020021A612046BDE862
:10597000104000F016BDFFF76DFF2046FFF76CFFEB
:1059800080E7FFF767FF2046FFF766FF90E7FFF726
:1059900061FF2046FFF760FF9FE7FFF75BFF2046B0
:1059A000FFF75AFFAFE710BD304A0368904212D0AC
:1059B000B0F1804F0FD0A2F57C4290420BD002F59F
:1059C0008062904207D002F58062904203D002F5D7
:1059D0007842904219D14A6823F070031343234A56
:1059E000904229D0B0F1804F26D0A2F57C4290425F
:1059F00022D002F5806290421ED002F58062904271
:105A00001AD002F57842904216D0194A904213D02B
:105A100002F5806290420FD002F5806290420BD076
:105A2000A2F59832904207D002F58062904203D0EE
:105A300002F58062904203D1CA6823F44073134395
:105A40004A6923F08003134303608B68C3620B68C9
:105A50008362064B984203D003F58063984201D1DC
:105A60000B69036301234361704700BF00000140DD
:105A70000040014010B5044630B390F83D3003F0CB
:105A8000FF021BB980F83C20FFF7A8FE022384F830
:105A90003D302068211DFFF787FF012384F8463041
:105AA000002084F83E3084F83F3084F8403084F899
:105AB000413084F8423084F8433084F8443084F82C
:105AC000453084F83D3010BD0120FCE701684B698A
:105AD00013F480634FF0000210D06FF480634B61C9
