:020000040800F2
:1000000000000320B90C00085129000855290008F8
:10001000592900085D290008612900080000000036
:100020000000000000000000000000008100010846
:10003000652900080000000011010108DDF8000832
:10004000090D0008090D0008090D0008090D000838
:10005000090D0008090D0008090D0008090D000828
:10006000090D000869290008090D0008090D00089C
:10007000090D0008090D0008090D0008090D000808
:10008000090D0008090D0008090D0008090D0008F8
:10009000090D0008090D0008090D0008090D0008E8
:1000A000090D0008090D0008090D0008090D0008D8
:1000B000090D0008090D0008090D0008090D0008C8
:1000C000090D0008090D0008090D0008090D0008B8
:1000D000090D0008090D0008090D0008090D0008A8
:1000E000090D0008090D0008090D0008090D000898
:1000F000090D0008090D0008090D0008090D000888
:10010000090D0008090D0008090D0008090D000877
:10011000090D0008090D000889290008090D0008CB
:10012000090D000805220008090D0008090D000846
:10013000090D0008090D0008090D0008090D000847
:10014000090D0008090D0008090D0008090D000837
:10015000090D0008090D0008090D0008090D000827
:1001600095290008090D0008090D0008090D00086F
:10017000090D0008090D0008090D00080000000025
:10018000090D0008090D0008090D0008090D0008F7
:10019000090D0008090D0008090D0008090D0008E7
:0C01A000A1290008090D0008090D000845
:1001B00010B5054C237833B9044B13B10448AFF3A1
:1001C00000800123237010BD6801002000000000A2
:1001D000F8EB020808B5034B1BB103490348AFF322
:1001E000008008BD000000006C010020F8EB020850
:1001F0004B1C012B98BF70472DE9F003911C9B0805
:10020000B1F80480B1F802900A8831F802CC804439
:10021000814402448444D9F80070D8F8006015681D
:10022000DCF80040C9F80060C8F80070CCF8005055
:100230001460D9F80470D8F804605568DCF80440FC
:10024000C9F80460C8F80470CCF804505460083150
:10025000013BD5D1BDE8F00370474B1C012B98BF83
:1002600070472DE9F003911C9B08B1F80480B1F8A8
:1002700002900A8831F802CC00EB580800EB5909CB
:1002800000EB520200EB5C0CD9F80070D8F800606B
:100290001568DCF80040C9F80060C8F80070CCF8B8
:1002A000005014600831013BDFD1BDE8F003704716
:1002B00001F0FF01102A2BDB10F0070F08D010F817
:1002C000013B013A8B422DD010F0070F42B3F6D11B
:1002D000F0B441EA012141EA014122F007047FF034
:1002E00000070023F0E80256083C85EA010586EA8B
:1002F000010685FA47F5A3FA87F586FA47F6A5FAC7
:1003000087F68EB9EED1F0BC01F0FF0102F00702D2
:1003100032B110F8013B013A83EA010313B1F8D17D
:100320000020704701387047002D06BF354603385E
:10033000073815F0010F07D1013015F4807F02BF97
:10034000013015F4C03F0130F0BC0138704700BFE8
:1003500070B54FF0FF0C4CF4E06C1CEA11541DBF5B
:100360001CEA135594EA0C0F95EA0C0F00F0DEF826
:100370002C4481EA030621EA4C5123EA4C5350EA0B
:10038000013518BF52EA033541F4801143F480135C
:1003900038D0A0FB02CE4FF00005E1FB02E506F0ED
:1003A0000042E0FB03E54FF00006E1FB03569CF042
:1003B000000F18BF4EF0010EA4F1FF04B6F5007F48
:1003C00064F5407404D25FEA4E0E6D4146EB0606BA
:1003D00042EAC62141EA55514FEAC52040EA5E5043
:1003E0004FEACE2EB4F1FD0C88BFBCF5E06F1ED8ED
:1003F000BEF1004F08BF5FEA500E50F1000041EB24
:10040000045170BD06F0004646EA010140EA0200D0
:1004100081EA0301B4EB5C04C2BFD4EB0C0541EAF2
:10042000045170BD41F480114FF0000E013C00F307
:10043000AB8014F1360FDEBF002001F0004170BD2B
:10044000C4F10004203C35DA0C341BDC04F1140444
:10045000C4F1200500FA05F320FA04F001FA05F2D0
:1004600040EA020001F0004221F0004110EBD3709D
:1004700021FA04F642EB06015EEA430E08BF20EAC9
:10048000D37070BDC4F10C04C4F1200500FA04F36C
:1004900020FA05F001FA04F240EA020001F00041FE
:1004A00010EBD37041F100015EEA430E08BF20EA71
:1004B000D37070BDC4F1200500FA05F24EEA020EB9
:1004C00020FA04F301FA05F243EA020321FA04F0E8
:1004D00001F0004121FA04F220EA020000EBD3709F
:1004E0005EEA430E08BF20EAD37070BD94F0000F9F
:1004F0000FD101F00046400041EB010111F4801FD3
:1005000008BF013CF7D041EA060195F0000F18BF83
:10051000704703F00046520043EB030313F4801FBF
:1005200008BF013DF7D043EA0603704794EA0C0F79
:100530000CEA135518BF95EA0C0F0CD050EA41068F
:1005400018BF52EA4306D1D181EA030101F000410C
:100550004FF0000070BD50EA410606BF1046194634
:1005600052EA430619D094EA0C0F02D150EA013640
:1005700013D195EA0C0F05D152EA03361CBF104681
:1005800019460AD181EA030101F0004141F0FE4120
:1005900041F470014FF0000070BD41F0FE4141F4A4
:1005A000780170BD81F0004102E000BF83F000439C
:1005B00030B54FEA41044FEA430594EA050F08BFFE
:1005C00090EA020F1FBF54EA000C55EA020C7FEAC2
:1005D000645C7FEA655C00F0E2804FEA5454D4EB3F
:1005E0005555B8BF6D420CDD2C4480EA020281EA09
:1005F000030382EA000083EA010180EA020281EA41
:100600000303362D88BF30BD11F0004F4FEA013192
:100610004FF4801C4CEA113102D0404261EB4101A1
:1006200013F0004F4FEA03334CEA133302D0524227
:1006300063EB430394EA050F00F0A780A4F10104E3
:10064000D5F1200E0DDB02FA0EFC22FA05F280181D
:1006500041F1000103FA0EF2801843FA05F3594103
:100660000EE0A5F120050EF1200E012A03FA0EFC82
:1006700028BF4CF0020C43FA05F3C01851EBE371AC
:1006800001F0004507D54FF0000EDCF1000C7EEBC9
:1006900000006EEB0101B1F5801F1BD3B1F5001F07
:1006A0000CD349085FEA30004FEA3C0C04F1010426
:1006B0004FEA445212F5800F80F09A80BCF1004F4F
:1006C00008BF5FEA500C50F1000041EB045141EAD1
:1006D000050130BD5FEA4C0C404141EB0101013C9A
:1006E00028BFB1F5801FE9D291F0000F04BF014689
:1006F0000020B1FA81F308BF2033A3F10B03B3F15B
:1007000020020CDA0C3208DD02F1140CC2F10C02EA
:1007100001FA0CF021FA02F10CE002F11402D8BF48
:10072000C2F1200C01FA02F120FA0CFCDCBF41EA14
:100730000C019040E41AA2BF01EB0451294330BDE3
:100740006FEA04041F3C1CDA0C340EDC04F11404C0
:10075000C4F1200220FA04F001FA02F340EA030097
:1007600021FA04F345EA030130BDC4F10C04C4F1DD
:10077000200220FA02F001FA04F340EA03002946BD
:1007800030BD21FA04F0294630BD94F0000F83F407
:10079000801306BF81F480110134013D4EE77FEAEA
:1007A000645C18BF7FEA655C29D094EA050F08BF36
:1007B00090EA020F05D054EA000C04BF1946104617
:1007C00030BD91EA030F1EBF0021002030BD5FEA5B
:1007D000545C05D14000494128BF41F0004130BD83
:1007E00014F580043CBF01F5801130BD01F00045D7
:1007F00045F0FE4141F470014FF0000030BD7FEA4A
:10080000645C1ABF194610467FEA655C1CBF0B4644
:10081000024650EA013406BF52EA033591EA030F5B
:1008200041F4002130BD00BF90F0000F04BF002153
:10083000704730B54FF4806404F132044FF0000586
:100840004FF0000150E700BF90F0000F04BF0021FF
:10085000704730B54FF4806404F1320410F0004565
:1008600048BF40424FF000013EE700BF42004FEA60
:10087000E2014FEA31014FEA02701FBF12F07F43DD
:1008800093F07F4F81F06051704732F07F4208BF94
:10089000704793F07F4F04BF41F40021704730B59B
:1008A0004FF4607401F0004521F000411CE700BFE7
:1008B00050EA010208BF704730B54FF000050AE06A
:1008C00050EA010208BF704730B511F0004502D56B
:1008D000404261EB41014FF4806404F132045FEA6D
:1008E000915C3FF4D8AE4FF003025FEADC0C18BF16
:1008F00003325FEADC0C18BF033202EBDC02C2F108
:10090000200300FA03FC20FA02F001FA03FE40EA99
:100910000E0021FA02F11444BDE600BF4FEA410285
:10092000B2F1E04324BFB3F5001CDCF1FE5C0DD94D
:1009300001F0004C4FEAC0024CEA5070B2F1004F97
:1009400040EB830008BF20F00100704711F0804F9A
:1009500021D113F13872BCBF01F00040704741F45F
:1009600080114FEA5252C2F11802C2F1200C10FA63
:100970000CF320FA02F018BF40F001004FEAC12347
:100980004FEAD32303FA0CFC40EA0C0023FA02F3EB
:100990004FEA4303CCE77FEA625307D150EA0133C1
:1009A0001EBF4FF0FE4040F44000704701F0004091
:1009B00040F0FE4040F40000704700BF53B94AB910
:1009C000002908BF00281CBF4FF0FF314FF0FF3057
:1009D00000F070B9ADF1080C6DE904CE00F006F836
:1009E000DDF804E0DDE9022304B070472DE9F047AB
:1009F000089E0D4604460F46002B4AD18A42944673
:100A000065D9B2FA82F343B102FA03FCC3F12002C2
:100A10009F4020FA02F217439C404FEA1C4E1FFAF7
:100A20008CF5B7FBFEF1220C0EFB117742EA074270
:100A300001FB05F090420AD91CEB020201F1FF37DD
:100A400080F01C81904240F2198102396244121AEE
:100A5000A4B2B2FBFEF00EFB102244EA024400FBFB
:100A600005F5A5420AD91CEB040400F1FF3280F021
:100A70000781A54240F204816444023840EA014003
:100A8000641B00211EB1DC400023C6E90043BDE821
:100A9000F0878B4208D9002E00F0ED800021C6E9D6
:100AA00000050846BDE8F087B3FA83F1002949D173
:100AB000AB4202D3824200F2F880841A65EB030253
:100AC00001201746002EE2D0C6E90047DFE702B951
:100AD000FFDEB2FA82F3002B40F090808A1A4FEAD0
:100AE0001C471FFA8CFE0121B2FBF7F507FB15200E
:100AF000220C42EA00420EFB05F0904208D91CEBA2
:100B0000020205F1FF3802D2904200F2CB80454646
:100B1000121AA4B2B2FBF7F007FB102244EA024417
:100B20000EFB00FEA64508D91CEB040400F1FF32C1
:100B300002D2A64500F2BB801046A4EB0E0440EAA8
:100B400005409FE7C1F120078B4022FA07FC4CEAE1
:100B5000030C05FA01F420FA07F3FD404FEA1C49A3
:100B60002343B5FBF9F81FFA8CFE09FB18551C0C42
:100B700044EA054408FB0EF5A54202FA01F200FA28
:100B800001F00BD91CEB040408F1FF3A80F08880D7
:100B9000A54240F28580A8F102086444641B9DB21E
:100BA000B4FBF9F309FB134445EA044403FB0EFECE
:100BB000A64508D91CEB040403F1FF356CD2A64509
:100BC0006AD9023B644443EA0843A3FB0295A4EBC1
:100BD0000E04AC42C846AE4656D353D056B1B0EB25
:100BE000080264EB0E0404FA07F7CA40CC4017432E
:100BF000C6E9007418460021BDE8F087C3F1200162
:100C000002FA03FC20FA01F225FA01F19D402A4381
:100C10004FEA1C471FFA8CFEB1FBF7F007FB1015DB
:100C2000110C41EA054100FB0EF58D4204FA03F474
:100C300008D91CEB010100F1FF382FD28D422DD9CC
:100C400002386144491B92B2B1FBF7F507FB15115D
:100C500042EA014205FB0EF1914208D91CEB020267
:100C600005F1FF3816D2914214D9023D6244521A5E
:100C700045EA004138E73146304608E73946E6E6BE
:100C80001046FBE64845A9D2B9EB020865EB0C0E0D
:100C9000013BA3E74546EAE72B4694E74046D1E708
:100CA000D0467BE7023D624432E708460AE76444E7
:100CB000023842E7704700BFDFF834D0002103E07C
:100CC0000C4B5B58435004310B480C4B42189A4272
:100CD000F6D30B4A02E0002342F8043B094B9A4248
:100CE000F9D30AF0EBFC2DF00BFA00F097FD7047FA
:100CF000000003206CF50C080000002068010020B3
:100D00006801002084440120FEE7000000F17843E0
:100D100043F6FE72934205D9A3F58041914203D870
:100D20000120704700207047A3F50041914260D92F
:100D3000A3F5404393425ED900F1774303F57F0169
:100D40004FF6FE7291425AD902F5803203F57E01C8
:100D5000914252D903F57C01914252D903F57A01AF
:100D6000914250D903F5780191424ED903F57601AD
:100D700091424CD903F5740191424AD903F57201AD
:100D8000914248D9A0F1016043F6FE71884244D9EE
:100D9000A0F5804C8C4542D9A0F5004C8C4540D93B
:100DA000A0F5404088423ED903F56F004FF6FE7132
:100DB00088423AD903F56E01914238D903F56C01A6
:100DC000914238D903F56A01914232D903F568019D
:100DD000914236D903F56601914230D903F5640199
:100DE00091422AD903F56203934294BF1720002051
:100DF0007047022070470320704705207047042089
:100E00007047062070470720704708207047092068
:100E100070470A2070470B2070470C2070470D2048
:100E200070470E2070470F20704710207047112028
:100E30007047132070471220704716207047152006
:100E400070471420704700BFF0B5074683B01646C0
:100E50000D460AF0F1FD3846FFF758FF044607EB50
:100E60008600FFF753FF431C13481B1BC0E90243D6
:100E70000023036001A9022303610AF05BFE88B925
:100E8000A6B17F1B0446043D043701E0A6420DD005
:100E90007919002355F8042F022001340AF02AFDA5
:100EA0000028F3D00AF0E6FD03B0F0BD0AF0D8FD4B
:100EB000002003B0F0BD00BF840100200B460132CA
:100EC00001EB8201C01A1A5843F8042B8B42FAD165
:100ED000704700BF2DE9F0412DED028B88B000AFC7
:100EE00005460E4601F0FCF90446002800F0898012
:100EF00004229FED457A334612FB0062D3ED007A5F
:100F000077EEC77AE3EC017A9A42F7D123B2DB009D
:100F1000ADEB030D07EE904AE846A1B207F10800D9
:100F2000F8EEE78A2AF040FE0023314607F1080078
:100F30004246C4F347062AF0BBFE324641464046CD
:100F40002BF024FB3B463A1D314640462AF0C4FDB7
:100F5000D7ED007AB8EE678A01F0C4F907EE900A7F
:100F6000F8EE677A9FED297A67EE887A87EEA88A8D
:100F7000B4EEC78AF1EE10FA17D8DFED257AB4EE99
:100F8000E78AF1EE10FA28DB01F0ACF9322304FB1A
:100F900003F3B3FBF0F008EB8000D0ED007A77EEBE
:100FA000A77A012387EEA87A0BE0DFED1A7AB4EE78
:100FB000E78AF1EE10FA1CD901F094F99FED167A48
:100FC00000232846203785ED008A85ED017A2B72B3
:100FD000BD46BDEC028BBDE8F081DFED0E7AB4EECC
:100FE000E78AF1EE10FAE7D8B4EE478AF1EE10FA8C
:100FF000E2D101F077F9C4EB04139B00B3FBF0F0EE
:10100000C9E7034684E700BF00F0FF4400005C42EC
:101010000000344200008242000000002DE9F04F41
:101020002DED048BE3B000AF786001F059F903B205
:101030009B00073323F00703ADEB030D6A46ADEBCE
:10104000030D08EE102A6A46ADEB030D08EE902A58
:101050006A46ADEB030D6B4609EE903A07F1980333
:101060003B6107F148037B6107F1E803FB6009EE90
:10107000102A07F59C738246BB6001F003F9054610
:10108000BAF1000F3ED018EE109A18EE908A19EEC1
:10109000106A19EE90BA002401F020F904FB00F068
:1010A00005EB8003D3ED007AF8EE677AE9EC017A7C
:1010B00001F014F904FB00F0013005EB8003D3EDDF
:1010C000007AF8EE677AE8EC017A01F007F904FBA0
:1010D00000F0023005EB8003D3ED007AF8EE677A7A
:1010E000E6EC017A01F0FAF804FB00F0033005EBBE
:1010F0008003D3ED007A0134F8EE677AA245EBEC79
:10110000017AC9D118EE101A07F11C00FFF7E2FEB0
:101110007C693B6A44F8043B18EE901A07F11C0006
:101120007C61FFF7D7FE3A693B6A42F8043B19EE4F
:10113000101A07F11C003A61FFF7CCFEFA683B6A0F
:1011400042F8043B19EE901A07F11C00FA60FFF711
:10115000C1FEBA683B6A42F8043B07F198039C421F
:10116000BA608AD107F1280207F1480014212AF059
:101170007FFC07F1480007F12C0214212AF004FC3F
:1011800007F1300207F1980014212AF071FC07F1F1
:10119000340207F1980014212AF0F6FB07F1380217
:1011A00007F1E80014212AF063FC07F13C0207F183
:1011B000E80014212AF0E8FB07F1400207F59C70D3
:1011C00014212AF055FC07F1280407F1440207F521
:1011D0009C7014212AF0D8FB0FCC7E6835460FC5D1
:1011E00094E80F0007F5C67785E80F003046BD4646
:1011F000BDEC048BBDE8F08F2DE9F04F2DED088B91
:101200008DB000AF054601F06BF803B29B000733C9
:1012100023F00703ADEB030D6A46ADEB030D08EEBB
:10122000102A6A46ADEB030D08EE902A6A46ADEB34
:10123000030D6B4609EE902A0BEE103AE8B318EE58
:10124000109A18EE908A824616469B46002401F0BA
:1012500045F804FB00F005EB8003D3ED007AF8EECF
:10126000677AE9EC017A01F039F804FB00F001300B
:1012700005EB8003D3ED007AF8EE677AE8EC017AAB
:1012800001F02CF804FB00F0023005EB8003D3EDF5
:10129000007AF8EE677AE6EC017A01F01FF804FBB9
:1012A00000F0033005EB8003D3ED007A0134F8EE53
:1012B000677AA245EBEC017AC9D118EE101A07F152
:1012C0001400FFF707FE18EE901A07F1140097EDCF
:1012D00006AA97ED059AFFF7FDFD19EE901A07F1A2
:1012E0001400D7ED069AD7ED05AAFFF7F3FD1BEE24
:1012F000101A07F11400FFF7EDFD294A294B92ED72
:10130000007AD3ED007A284A284B87EE0A8AD3ED7B
:10131000006A274BC7EEA98A2AEE0AAAD2ED007A04
:10132000244A69EEA99A87EE8A7AC6EEA97A92EDE6
:10133000006AD3ED006A38EE068A78EEA68A38EEA7
:10134000078A78EEA78A78EEC87A38EE288A17EEF0
:10135000900AFFF78BFA10A3D3E90023FEF7F8FFFA
:10136000FFF7DCFA00EE100A2BF026FDF6EE007A0D
:101370009FED117ADFED111A39EE2A1A28EE278A2D
:1013800060EE070A21EE271AB0EE480A3437BD4650
:10139000BDEC088BBDE8F08F4A1BEFA866FD993FB6
:1013A000A4010020A0010020AC010020A801002021
:1013B000980100209C010020E02E65420000000002
:1013C00090ED026AD0ED017A90ED005A91ED027A2B
:1013D000D1ED004A91ED014A66EE066A77EEC65AF3
:1013E00065EE244A66EE876A27EE467AE5EEA46A41
:1013F000A7EE847A67EEA73A77EE864AE4EE636A50
:1014000067EE867A35EE646A27EE277AE5EE067A8D
:10141000A5EE267A65EEA75AC7EE257AC2ED007AC8
:10142000D0ED017A91ED013A91ED007AD0ED026AAA
:10143000D1ED025AD0ED004A67EEA72A33EE476A93
:1014400026EEA65A37EE657A26EE226A77EEA63A9F
:10145000A7EE056A27EEA64A24EEA47A74EEE33AD4
:1014600025EE225AA4EEA34A75EEC35A27EE067A59
:1014700077EEE67AA5EE257A67EE847AC7EE276ADC
:10148000C3ED006AD1ED007A91ED024A90ED026A57
:10149000D1ED016A90ED017A009B74EE675A77EE08
:1014A000E64A65EE865AD0ED007AE7EE245A27EE3A
:1014B000065A77EE064A76EEC46A77EEE44A66EE9E
:1014C000856AA7EEA45AE7EEA56A67EE877A37EE3B
:1014D000467A67EE867A27EE057A67EEA67AC7EE39
:1014E000876AC3ED006A70474A4BDFED4B0A93ED04
:1014F000057AD3ED047A93ED036ADFED483A9FED68
:10150000482A9FED480A9FED484ADFED481A484AAD
:10151000F8EE476AF8EE677AB8EE466A37EEA67AD2
:1015200027EEA65A36EE477AF0EE455AE6EE075A0F
:1015300010B537EEE63A27EEA71A63EE255A20EEED
:10154000E67AF7EE004AC4EEA52A07CA394C66EEE1
:10155000A64A61EE233AA7EE827AE4EE803A26EEBE
:10156000844A66EE065AA7EEA14A62EE411A25EEBB
:10157000833A25EE077A2DED028B9FED2F0A65EE5B
:10158000A35AB2EE048AF0EE613AE4EEA03A88B0D3
:101590000DF1080CA3EE087A8CE8070025EE005A3E
:1015A00064EE814AA6EE045A244A254866EE277A5C
:1015B000A6EE237A6146E4EE825A67EEA67AD3ED70
:1015C000006A93ED016A67EE857AB8EE665AD3ED4C
:1015D000026A1C4B009327EE227A62EEA55AB8EEFF
:1015E000466AF8EE666A67EEA27A82ED007AC0ED8E
:1015F000005A154B154A8DED055A05A88DED066A62
:10160000CDED076AC4ED007AFFF7DAFE08B0BDEC55
:10161000028B10BDB00100200000C8420000204233
:10162000000048420000B4C20000B442000020C2E2
:1016300010EC0208AC010020000048C29C01002010
:10164000A4010020A8010020A00100209801002092
:1016500008B564200EF0C8F9FBE700BF80B5104C58
:10166000DFF848800F4F104E206800231A462146AD
:10167000451ED8F8000025600EF0B2FA22683C231F
:101680003846202112B923600AF028FC30464FF476
:1016900000510AF027FC4FF47A700EF0A5F9E3E749
:1016A0000C0000200010024000180240E801002059
:1016B000F0B583B01F4E204D204C00270097336BB0
:1016C00043F004033363336B03F004030093009B84
:1016D0002B6823F00C032B602B6843F004032B6072
:1016E000AB6943F40033AB610A200AF021F82B68A0
:1016F00043F00C032B600197336B43F020033363FB
:10170000336B03F020030193019BA36823F4403360
:10171000A360636A23F00F036362E36823F440333A
:10172000E3600A200AF004F8236843F4403323609E
:1017300003B0F0BD0038024000080240001402402F
:101740002DE9F8431C469B0007336D46DB08A5EBEB
:10175000C30300AF9D46E84615460E468146224625
:101760004146FFF7ABFB48F8256022464146484614
:10177000FFF76AFB024B43F82560BD46BDE8F883DE
:10178000B001002030B5002495B0CDE90A44CDE980
:101790000C44CDE90344CDE905441E4A0194079465
:1017A000116C1D4B41F080511164126C02F080529B
:1017B0000192019A02941A6842F440421A601B682E
:1017C00003F44043029301224FF48033CDE9082310
:1017D0000823022510934FF480024FF4A873CDE93B
:1017E0000E5211930222042308A8CDE91223029974
:1017F0000CF0B2F90F23CDE903354FF4A0524FF4AA
:10180000805303A80521CDE9054207930CF0BCFBEA
:1018100015B030BD00380240007000402DE980480E
:1018200000249DB009F058FFFFF7ACFFFFF740FF21
:10183000CDE90F44CDE91144C34B00941394196BC7
:10184000C248DFF83CA341F010011963196B01F0A5
:101850001001009100990194196B41F02001196366
:10186000196B01F02001019101990294196B41F06B
:1018700080011963196B01F08001029102990394B0
:10188000196B41F004011963196B01F00401039114
:1018900003990494196B41F001011963196B01F06C
:1018A0000101049104990594196B41F00201196337
:1018B000196B01F00201059105990694196B41F02D
:1018C00040011963196B01F04001069106990794D4
:1018D000196B41F0080119631B6B03F008032246E2
:1018E00007931421079B0AF0F9FA98482021012256
:1018F0000AF0F4FA9648224614210AF0EFFA9548C5
:1019000022464FF480510AF0E9FA934822464FF4F8
:1019100040510AF0E3FA9148224604210AF0DEFA27
:1019200001228E484FF400510AF0D8FA4FF0010816
:101930004FF0030B142385480FA90826CDE90F3873
:10194000CDE9114B0AF086F94FF488137F480F96C2
:101950000FA9109311940AF07DF920237B480F936F
:101960000FA902250427CDE9108412940AF072F918
:10197000774812950FA94FF01009CDE910840F9701
:101980000AF068F9724812940FA9CDE91084CDF8D5
:101990003C900AF05FF94FF480536E480F930FA903
:1019A000CDE9108412940AF055F94FF440536A4877
:1019B00012950FA9CDE910840F930AF04BF942F26A
:1019C000040366480F930FA9CDE9108412940AF01E
:1019D00041F94FF4004362480F930FA90F2313936B
:1019E000CDE9105412940AF035F905212246092058
:1019F00009F0C2FE092009F0FDFE5A485A4A026069
:101A000009F006FF59495A4A5046CAE900124FF4F4
:101A10008042CAF81020CAE90244CAE90544CAE96A
:101A200007440AF0C1FC494650460BF089FE2146A6
:101A300050460BF0A5FEDFF84CC14E48DFF848A138
:101A400084624FF48272C0E900C24FF4007E182213
:101A5000C0E906E20A22C262C0E90244C0E90444C5
:101A6000C0E908440CF07EFD072210921292424A0F
:101A7000CAF8002040204FF4C072CAE905024FF4B2
:101A80000062CAF820200FA94FF400525046CAE95C
:101A90000184CAE90379CDE913B5CAF82820CAF848
:101AA0001C40CAF824400F95119715950CF068FC5E
:101AB0004FF6FF720BA95046CDE90B86CDE90D8498
:101AC00008940CF07FFC404609F032FE4FF6FF729E
:101AD0000BA95046CDE90B56CDE90D840CF072FCF4
:101AE0004FF6FF720BA95046CDE90BB6CDE90D7448
:101AF0000CF068FC4FF40C72089208990E914FF6A6
:101B0000FF720BA95046CDE90B76CDF834800CF06E
:101B100059FC504640F26A510CF072FCDFF86CA0A0
:101B2000342221460FA82CF0ECF9144ACAF8002000
:101B30000922CAF814201D22CAF81C2040F20D13F5
:101B400040F2431224E000BF00380240001002407F
:101B50000008024000040240000C0240001802404D
:101B600000000240F401002000300240005C004010
:101B7000A08601002C030020400100A00068014065
:101B8000FC01002000500140F8020020500200201B
:101B9000CAE9093240F2171140F24712AAF834405C
:101BA0005046CAE90B12CAF81880CAF820B0CAE930
:101BB0000144CAE903448AF836400BF005FEF023DD
:101BC000109319934FF4A07312931A93FF234FF4B9
:101BD000806E22460FA9504614930523CDE916E3E3
:101BE000DFF86C8213950F94119415941894ADF846
:101BF0006C408DF86E400BF0BDFE824BC8F8003093
:101C00001B68DFF850A29847D8F80030DFF8488208
:101C1000DB6898477C4BC8F8003040464FF6FF73AE
:101C2000C8F80C30C8E90144C8F81040C8F818409A
:101C3000CDE90B44CDE90D44CDE90F44CDE9114484
:101C4000CDE9094413940DF07DF84FF480530BA9AE
:101C500040460B930DF050FB0FA94046CDE90F44D1
:101C60000DF0FAFB09A94046CDE909440DF032FD1B
:101C700063234FF0804BA721CAF80C3050468023D5
:101C8000CAF800B0CAF81830CAF80410CDE90F44F9
:101C9000CDE91144CDE90B44CAF80840CAF8104018
:101CA0000DF050F84FF480530FA950460F934FF0AA
:101CB00032080DF021FB0BA95046CDE90B440DF085
:101CC00009FDCBF83480214650460DF095F9394690
:101CD000CBF8388050460DF08FF94C4FCBF83C8054
:101CE000314650460DF088F94949BC606323D12242
:101CF000C7E9033438468023BB61C7E90012CDE948
:101D00000F44CDE91144CDE9134415940DF01AF8B0
:101D100038460DF0E3F84FF0600B22460FA9384625
:101D20003C4E1394CDE91044CDF83CB00DF0D4F9FD
:101D3000384600F0FDFC6323374FF3608023B36126
:101D400030465323C6E90073CDE90B44CDE90D4479
:101D5000CDE90F44CDE91144CDE913441594B460A5
:101D600034610CF0EFFF4FF480530BA930460B9316
:101D70000DF0C2FA30460DF0B1F822460FA93046F8
:101D8000CDE91084CDF83CB013940DF0A5F92146AF
:101D9000C7F8348030460DF02FF9304600F0C8FC0B
:101DA00000F05CFE00F058FEFFF782FC00F058F9EE
:101DB00000F08AF919491A480C22FFF77FF80DF054
:101DC0009BFD2946174A48460DF0D0FE164B174A90
:101DD0001860214616480DF0BBFD164B164A1860D8
:101DE000214616480DF0B4FD154B164A054621460E
:101DF00015481D600DF0ACFD144B18600DF08EFD04
:101E0000FEE700BF1800002000040040840300200B
:101E1000002000405C04002000400140B001002090
:101E200000001E08B4EC0208E8010020F0EC0208F3
:101E300051160008F001002090EC02086D2A0008FD
:101E4000E0010020CCEC02085D160008EC01002047
:101E5000E4010020CC03002014040020704700BFE0
:101E6000704700BF10B5094C86B024680294144630
:101E700001238DF817400DF117040A46019301461E
:101E8000009403480AF058FB06B010BD040000207F
:101E9000FC01002000B50B4B87B01B680293844601
:101EA0000A4601230DF117010020CDE900138DF83A
:101EB0001700614604480AF031FC9DF8170007B08E
:101EC0005DF804FB04000020FC01002010B5094C63
:101ED00084B0844620680290CDE9002306480A4673
:101EE000012361460AF01AFC003818BF012004B033
:101EF00010BD00BF04000020FC01002009F018BC48
:101F000008B506480022042109F0E8FFBDE80840B2
:101F100002480122042109F0E1BF00BF000802408D
:101F200030B5104D83B0044601220F484FF40051E4
:101F300009F0D4FF28460022042109F0CFFF0B4B03
:101F40000B481B68ADF806400DF1060101220CF0AC
:101F50006BFB01220421284603B0BDE8304009F0A4
:101F6000BDBF00BF00080240000C02400800002076
:101F70002C03002030B5104D83B0044600220F48DA
:101F80004FF4005109F0AAFF28460022042109F06D
:101F9000A5FF0B4B0B481B68ADF806400DF1060181
:101FA00001220CF041FB01220421284603B0BDE8C8
:101FB000304009F093BF00BF00080240000C02400F
:101FC000080000202C0300202DE9F043194E1A4F81
:101FD000DFF86890DFF8688083B00C460546002281
:101FE0003046042109F07AFF384600224FF40051B0
:101FF00009F074FFD9F80030ADF8045001A90122AE
:1020000040460CF011FBD9F80030224601A94046A9
:102010000CF0B2FD384601224FF40051019C09F04A
:102020005DFF30460122042109F058FF204603B02D
:10203000BDE8F08300080240000C024008000020C8
:102040002C03002009F074BB034B02689A4200D0B5
:10205000704709F05BBB00BF00100040704700BF35
:1020600010B483B0154B1649002400941A6B42F04B
:1020700020021A631A6B02F020020092009A08688C
:10208000104A40F440500860086840F4403008604E
:102090000194196B41F0040119631B6B03F00403F5
:1020A0000193019B136843F0C0031360136843F06E
:1020B0000C03136003B05DF8044B70470038024016
:1020C000001402400008024010B483B00E4A002001
:1020D0000190116C41F001011164126C4FF08043CA
:1020E00002F00102019243F244310922019C9962FB
:1020F000DA625A68054942F020025A6081F81C03EE
:1021000003B05DF8044B70470038024000E100E086
:1021100010B483B0364A374B374C00210091506CD5
:1021200040F480605064506C00F48060009000982F
:10213000D86A40F44010D862586B40F004005863ED
:10214000586B40F4D0705863586B40F4C0505863DB
:10215000586B40F4B0205863586840F48070586061
:10216000986840F080509860986840F0C06098602F
:10217000986840F4807098600191106B40F4800082
:102180001063126B02F48002019203F5A133019AED
:1021900084F839139A6A22F001029A629A6AD20785
:1021A000FCD49A681548164942F400629A609A6A0B
:1021B00042F080629A629A6A42F480329A629A6A23
:1021C00042F480429A629A6A42F480529A629A6A0F
:1021D00042F480629A629A6A4FF4807442F010026C
:1021E0009A62DC621863596303B05DF8044B704770
:1021F000003802400022014000E100E04C22014092
:10220000A40400201B4B1A68110500D470471A4A19
:102210004FF00071C2F88410BFF34F8FBFF36F8F80
:10222000C2F884119A6A22F001029A629A6AD2076D
:10223000FCD499684FF0804241F4006199601368C2
:102240000E4923F00103136088680D4B20F0010054
:102250008860886820F480708860596A41F48071D1
:102260005962596A21F480715962136823F001039D
:10227000136070470064024000E100E0002201406A
:102280000038024010B54FF4806200210F482BF057
:1022900038FEFFF73DFF0E4A0E49936A0E484FF095
:1022A000007443F001039362C1F884414C60836879
:1022B0004FF0804143F0010383600B6843F001035A
:1022C0000B60936ADB07FCD4004810BDA404002017
:1022D0000064024000E100E0002201400420704759
:1022E000402070474FF42070704700BF82B00E4B03
:1022F00000220092596C41F480415964586C00F4FA
:102300008040009000980192186C40F08050186452
:102310001B6C03F080530193019B0F216FF00100B0
:1023200002B009F029BA00BF003802400B4B026826
:102330009A4200D0704782B000220192D3F8302830
:1023400042F48052C3F8302803F500631B6B03F49A
:1023500080530193019B02B0704700BF00300240E0
:102360002DE970432E4B02688AB000249A42CDE9D1
:102370000444CDE90644089402D00AB0BDE8708355
:10238000284D01942B6B284843F004032B632B6BDF
:1023900003F004030193019B02942B6B43F00103B0
:1023A0002B632B6B03F0010302934FF400724FF089
:1023B00001084FF00309042604A91223CDE90423E0
:1023C000CDE90689029B089609F044FC04A94FF464
:1023D0008072122315480896CDE90423CDE90689B9
:1023E00009F038FC03942B6C43F400032B642B6C32
:1023F00003F400032246052103934820039B09F0C0
:10240000BBF9482009F0F6F92B6A43F400032B626C
:102410002B6A23F400032B620AB0BDE8708300BF6F
:10242000005C00400038024000080240000002400A
:102430002DE9F04104469AB0002130220EA8CDE9E2
:102440000811CDE90A110C912BF05BFD674B226856
:102450009A4202D01AB0BDE8F081C02308210422BC
:1024600012930EA84FF400330E91149217930BF0B1
:102470005BFE002840F0B7805D4B5E48002401946D
:102480005A6C42F080625A645A6C02F08062019287
:10249000019A02941A6B42F020021A631A6B02F03E
:1024A00020020292029A03941A6B42F001021A630C
:1024B0001A6B02F001020392039A04941A6B42F021
:1024C00002021A631A6B02F002020492049A059443
:1024D0001A6B42F040021A631A6B02F04002059236
:1024E000059A06941A6B42F004021A631A6B02F002
:1024F00004020692069A07941A6B42F008021A63C5
:102500001B6B03F00803002602270E25079308A97A
:102510004FF480620223CDE90823CDE90A67079BC7
:102520000C9509F097FB08A941F65802022332489E
:102530000C95CDE908234FF00908CDE90A6709F0A9
:1025400089FB08A9032202232C48CDF83080CDE96D
:102550000823CDE90A6709F07DFB08A94FF47062F2
:10256000022326480C95CDE90823CDE90A6709F036
:1025700071FB08A94FF40C62022321480C95CDE9A8
:102580000823CDE90A6709F065FB08A9C0220223E8
:102590001C480C95CDE90823CDE90A6709F05AFBE0
:1025A00008A90822022318480C95CDE90823CDE993
:1025B0000A6709F04FFB022308A94FF4A052104804
:1025C000CDF83080CDE90823CDE90A6709F042FB58
:1025D00022460521582009F0CFF8582009F00AF9C1
:1025E0001AB0BDE8F081FFF739FD45E7006801400A
:1025F0000038024000140240000002400004024083
:102600000018024000080240000C024000000000D8
:1026100010B51B4A016888B000239142CDE902330E
:10262000CDE90433069301D008B010BD02F568422D
:102630000093506C40F480105064506C00F4801093
:10264000009000980193136B0E4843F0200313632E
:10265000136B9FED097B03F02003019303220523F5
:1026600002A98DED027BCDE90523019C09F0F2FA68
:1026700008B010BDAFF3008080030000020000002E
:1026800000500140001402400368B3F1804F84B051
:1026900018D0224A934207D0214A934221D0214A9E
:1026A00093422CD004B070471F4B002201921A6C49
:1026B00042F002021A641B6C03F002030193019BB7
:1026C00004B0704703F50E33002200921A6C42F0FA
:1026D00001021A641B6C03F001030093009B04B019
:1026E0007047114B002202925A6C42F480325A64B5
:1026F0005B6C03F480330293029B04B070470A4B77
:10270000002203921A6C42F480721A641B6C03F468
:1027100080730393039B04B0704700BF0004004024
:10272000004001400020004000380240000000004E
:1027300000B50268244989B000238A42CDE90233FA
:10274000CDE90433069305D020498A421AD009B056
:102750005DF804FB1E4A0093136B1E4843F001030F
:102760001363136B9FED147B03F00103009302A925
:1027700003238DED027B009A069309F06BFA09B0F2
:102780005DF804FB124A0193136B43F001031363DA
:10279000136B9FED0B7B03F00103019301980D4830
:1027A0000222092302A98DED027B0592069309F00E
:1027B00051FA09B05DF804FB0400000002000000BB
:1027C00080000000020000000040014000200040A6
:1027D0000038024000000240F0B52B4B89B01C6865
:1027E00000220492002C4CD10127284A01941F603A
:1027F000936B27483B439363936B3B4003260C2525
:102800004FF63F02019302A90223CDE90223CDE94D
:102810000565019B09F01EFA1E48029702A90227CE
:10282000CDE90374CDE9056509F014FA48F23313D4
:102830001948029302A9CDE90374CDE9056509F0B1
:1028400009FA4FF683731548029302A9CDE9037480
:10285000CDE9056509F0FEF94CF2037310480293C7
:1028600002A9CDE90374CDE9056509F0F3F9602308
:102870000C48039702A9CDE904460695029309F096
:10288000E9F909B0F0BD00BFA408002000380240FB
:1028900000140240000802400018024000100240EC
:1028A000000C02400004024070B588B0234B0022A7
:1028B00002921A6C42F010021A641B6C03F01003AF
:1028C0000293054601A903A8029B0BF00BFC069B93
:1028D000D3B90BF0F7FB0346194A1A4C1A49A2FB6D
:1028E00003239B0C013B0022C4E90013204640F265
:1028F000E7332261A260A261E3600CF023FA06468E
:1029000030B1304608B070BD0BF0DCFB4300E3E7AC
:1029100020460CF0A5FA06460028F2D1362008F031
:1029200069FF0F2D01D90126EBE7324629463620F3
:1029300008F022FF054B1D60E3E700BF00380240AE
:1029400083DE1B43A8080020001000408000002008
:10295000704700BFFEE700BFFEE700BFFEE700BF15
:10296000FEE700BF704700BF08B5C82008F0E0FED2
:1029700004480022202109F0B1FABDE808400820EF
:1029800009F0BCBA0010024001480CF0F9BD00BFCC
:10299000A808002001480AF011BA00BFFC0100207D
:1029A00001480AF085BF00BF500200200120704797
:1029B00008B52BF09FFB162303604FF0FF3008BDD6
:1029C00008B52BF097FB16230360FEE770B5161EC3
:1029D00007DD0C468D19AFF3008004F8010BA5420A
:1029E000F9D1304670BD00BF70B5161E07DD0C462C
:1029F0008D1914F8010BAFF30080AC42F9D13046C9
:102A000070BD00BF4FF0FF30704700BF4FF4005360
:102A10004B600020704700BF0120704700207047C6
:102A20000B4A08B50346106828B1034469468B4237
:102A300007D8136008BD07481060034469468B42FD
:102A4000F7D92BF057FB0C2303604FF0FF3008BD84
:102A5000F008002088440120704700BF08B500F04E
:102A6000ABFBBDE8084000F033BB00BF00F0A6BBE5
:102A7000704710B5042104462AF057F9204610BDCE
:102A800038B50C4B0C4C18800C4B822019806368B5
:102A9000984740F6110398420AD1094D23682C60EB
:102AA000822098472B688220DB689847002038BD39
:102AB0000120FCE7F408002050000020F608002068
:102AC000F80800204FF4A071F020FFF7D9BF0000F4
:102AD000F7B5334D2B6804461B698220984780B2B6
:102AE000208000284AD02B680DF106025B6901A9FD
:102AF00082209847BDF8063040F6746293423FD971
:102B0000ADF80620BDF80630D21A92B20A2A3DD995
:102B10000B23B2FBF3F2234B1B889A4201D9013BF2
:102B20009AB2BDF8043040F6B8318B4230D8C3F5C4
:102B300071630E339BB20F21B3FBF1F31A4909887D
:102B40008B4201D901398BB2184E194D30682F686C
:102B5000834281B28CBF591AC91AB8B2BA428CBF2B
:102B6000101A801A89B280B201440529C8BF3360A7
:102B70003368C8BF2A6063802B68A38003B0F0BDB0
:102B8000B32B9CBFB423ADF80630BBE70022C8E7E7
:102B9000C3F56D6308339BB20E2BCCD80023D3E76B
:102BA000F8080020F6080020F4080020FC080020A7
:102BB0000009002037B568460D461446FFF788FF28
:102BC000BDF8000048B1BDF802302B60BDF80430FC
:102BD0002360034B3C221A60012003B030BD00BFCC
:102BE0000C00002010B1022809D07047074B1A686A
:102BF000B2FA82F252090421054809F06FB9034B79
:102C00009A68B2FA82F252091021F5E7040900200D
:102C10000010024010B1022809D07047074B1A6813
:102C2000003A18BF01220421054809F057B9034BA7
:102C30009A68003A18BF01221021F5E70409002024
:102C40000010024010B1022804D07047042102484D
:102C500009F048B91021FAE70010024008B530B178
:102C6000022809D00020431E5842584108BD0421C3
:102C7000024809F02DF9F6E71021F9E700100240AB
:102C800070B5084D00240126E0B2FFF7E7FF18B148
:102C90002B68012B18BF2E600134052C05F10405AB
:102CA000F2D170BD04090020012380F8781080F86B
:102CB0007930704700207047034B4164003918BFDA
:102CC00001211970704700BF4B3801200020704768
:102CD000836B0BB10846184770474FF6FF7070477B
:102CE000406803689B691847704770477047000049
:102CF00010B5044600F04EFB23680349D3F88C302E
:102D00002046BDE810401847000000D008B5036811
:102D10000446D3F880309847236820469B6F984735
:102D200000F0ECF8236820461B6F98472920FFF736
:102D300021F900F0E3F8236820461B6F9847F8E775
:102D400010B5044611F05AFA23682046D3F8AC3087
:102D5000BDE81040184700F00FBB00F013BB00F0B7
:102D600037BB00F0DFBA00F0E5BA00F03DBB00F081
:102D7000E9BA10F0AEBC10B57C21044629F0D5FFAD
:102D8000204610BD90F87A301BB1406803681B687C
:102D9000184718467047000010B590F8341090F8A6
:102DA00078400C4B8C421A7809D03AB90A4A0B4940
:102DB0001488088810800C8001221A7010BD002A27
:102DC000FCD0054A05491488088810800C80002230
:102DD000F3E700BF44380120403801204238012089
:102DE00070B50D46194635B9094B0A4A0A4840F2F2
:102DF000D2212AF081FEC0E90F52084B003A18BFD9
:102E000001221A700368BDE87040D3F88C3018476F
:102E10002CED020864ED0208B2ED02084A380120E8
:102E200008B5094B1B888B4203D8084B1B8893427B
:102E300005D9074B074A08489E212AF05DFE074B3B
:102E40001980074B1A8008BD403801204238012004
:102E5000F7ED02085AEE0208B2ED020846380120EA
:102E600048380120012108B5002208460CF0CAFDAF
:102E70000A4B186028B90A4B0A4A28210A482AF046
:102E80003BFE0022042101200CF070FE074B18606D
:102E900018B9074B034A2C21F0E708BD1809002098
:102EA00078EF0208C1EF0208F0EF020814090020D1
:102EB0006AF00208024B4FF0FF3118680CF0F6BDC3
:102EC00018090020014B18680CF024BE18090020D6
:102ED000024B002118680CF0E9BD00BF1809002062
:102EE000FFF7F0BF03480449006800231A460CF0BE
:102EF00077BE00BF140900201000002013B5084C55
:102F000000231A4601A920680CF0A0FE20684FF0AB
:102F1000FF33002201A90CF099FE02B010BD00BFE2
:102F20001409002070470020704770477047002048
:102F30007047704708B5034A034B044822212AF022
:102F4000DBFD00BFCFF00208ACF002080DF1020873
:102F500008B5034A034B044827212AF0CDFD00BFE2
:102F600085F10208ACF002080DF1020810B5442109
:102F7000044629F0DAFE204610BD000038B50446AC
:102F800021460025064B25720C30606065720122D7
:102F900041F8203B11F08AFAE562204638BD00BFB7
:102FA000CCF102080120704738207047382303FB1A
:102FB000010008307047382303FB010008307047D8
:102FC0000120704741F60450704741F6045303FB5B
:102FD00001000830704741F6045303FB010008303C
:102FE0007047012070471020704700EB0110083037
:102FF000704700EB011008307047084602F040BBF4
:1030000010B5034B036004460FF079FA204610BD5B
:1030100084F2020810B50446FFF7F2FF2046402173
:1030200029F083FE204610BD10B5034B0360044613
:103030000FF065FA204610BD50F2020810B50446A4
:10304000FFF7F2FF204641F60C5129F06EFE2046B4
:1030500010BD000010B5034B036004460FF04FFA9B
:10306000204610BD1CF2020810B50446FFF7F2FF1F
:103070002046182129F059FE204610BD10B5094BF5
:103080000360044600F5E9501830FFF7B9FF04F17A
:103090002C00FFF7C9FF04F11400FFF7DBFF204607
:1030A00010BD00BFB8F2020808B50248FFF7E6FFFE
:1030B00008BD00BF2009002010B50446FFF7DEFF61
:1030C000204641F6DC6129F030FE204610BD0000AC
:1030D0002DE9F34100F05CFA054600F05DFA0024AA
:1030E0000146234628462246009419F0FDF8264B57
:1030F000264A274D1A60204607F022FB254819F082
:103100005BF82B68BFF35B8FDB0736D4284629F0CA
:103110000EFE90B3204C214B214F236004F5EC565A
:1031200004F1140004F12C086060C4F80880E76022
:1031300026610FF0E5F91B4B636140460FF0E0F9A3
:10314000194BE36238460FF0DBF904F58053174A58
:10315000C3F8382D03F6785007F070FF2246A6F129
:103160000801304607F072FC304602F089FA104838
:103170002AF0E0FC284629F0E6FD0E4802B0BDE842
:10318000F041FFF7B5BD00BFB0380120C0280020D6
:103190001C0900201400002020090020B8F20208B9
:1031A000582600201CF2020850F2020884F202089D
:1031B000A930000844280020704700000148FFF7AC
:1031C000A5BD00BF4428002070B5224E224C234DDF
:1031D000234B23603046FFF7D1FE28461DF050FBFD
:1031E000204B2148DC6000224FF48071C3E91212A9
:1031F0001E491A86C3E91A121D4999671D4983F8A9
:1032000058200B60F02101801B485A6601801B4842
:1032100083F870204FF4A071C3E90422C3E90622A9
:10322000C3E90822C3E90A22C3E90E22C3E9102236
:10323000C3E91422C3E917225A67C3E90165018073
:103240000F4801800F490A70012283F834200E4A8A
:103250001A6070BD00280020FC270020C428002030
:103260001CED020844280020403801200100000124
:10327000000001014C38012046380120423801206D
:103280004838012044380120A8EE02080020704789
:1032900081807047C18070470181704741817047CC
:1032A0007047704770477047704710B4C488036810
:1032B000121B84885B6D091B12B25DF8044B09B2C6
:1032C00018474FF6FF7383814FF0FF330362136893
:1032D000C3611060704790F825201AB190F824203F
:1032E00002B118607047002070478B8883800120EE
:1032F0007047704780F82610704790F82600704796
:1033000010B50022B1F90840B1F90A1002804280DC
:103310008480C18010BD0022028042808280C280F1
:1033200070470000024B902283F85823704700BF7B
:1033300000E100E0024B4FF080729A60704700BFDE
:1033400000E100E0094A0A49D3680A48C3F30A03C6
:10335000013B9BB20B801169C1F30A010139018065
:103360001364536B43F001035363704700680140DB
:103370004A29002048290020014BD3F8AC007047AF
:1033800000680140024B0122C3F8AC105A6270473A
:103390000068014070B5044610F0F1F923685D6ED5
:1033A00015F066FB01462046A8472368054AD3F876
:1033B00088502046AC460023BDE87040A2F5163187
:1033C000604700BF00B004D010F0C0B910F0CAB917
:1033D00010F085B910F0E7BA90F8252012B1036813
:1033E0005B69184770470000044B4FF08072C3F8C8
:1033F0008820BFF34F8FBFF36F8F704700E100E06D
:1034000070B50023124E8380124B0360336893F82B
:10341000582005460AB1D86C00B998680368DB6A81
:1034200098473368B0FA80F4D86C640930B1036807
:10343000DB6A9847002808BF44F001042CB9064B0A
:10344000064A07482C212AF057FB284670BD00BFCA
:103450004C380120C8F30208C4F2020822F3020823
:103460005BF30208704700002DE9F041FF2BBDF827
:10347000184000EB410105D120F8024B8142FBD8F6
:10348000BDE8F081174F04F4FC6604EA070C04F071
:103490001F0403FB0CFC5E435C43DB43DBB2FF25F4
:1034A000B0F800E00EEA07020EF4FC6803FB02C26B
:1034B00003FB08680EF01F0EB2FBF5F2B8FBF5F83F
:1034C0003A4008F4FC6842EA080203FB0E4EBEFBD9
:1034D000F5FE0EF01F0E42EA0E0220F8022B81428A
:1034E000DED8CDE700F8FFFF10B5144C236823B3F6
:1034F000134B144A1B6C11888B4213D1124B198841
:103500000AF008FB226892F86A30013382F86A30C8
:10351000FFF7E8FC206810F071FEBDE810400020C5
:10352000FFF760BB0AF0F6FA206803681B6A984749
:10353000BDE810400020FFF76DBB10BD4C380120E6
:10354000006801404A29002048290020704710B532
:103550000421044629F0E9FB204610BD08B50329E3
:1035600013D8DFE801F002060A0E07F035F900680B
:1035700008BD07F031F94068FAE707F02DF98068D7
:10358000F6E707F029F9C068F2E70020F0E700004D
:1035900000487047F4F302080C20704713B500246C
:1035A00051B1036801948DF8034001AA9C680DF1A4
:1035B0000303A04702B010BD0846FBE7C08970476F
:1035C000008A7047C088704780887047807A00F012
:1035D0007F007047807AC0097047806A70477047E3
:1035E0007047704770477047704730B50368018176
:1035F00085B06D460146D3F8843004462846984786
:1036000095E807003C3484E8070005B030BD30B5CC
:103610000368418185B06D460146D3F88430044685
:103620002846984795E807003C3484E8070005B031
:1036300030BD0022028042808280C280704780F8C4
:103640003610704770B5036804461B6B15469847E3
:103650002368294620465B6EBDE87040184700206D
:103660007047806C704770470368DB6A18470368CF
:103670001B6B184770477047704730B4C268446886
:103680005510034604EB6200D20748BF62599B689D
:1036900030BC48BFD358184743682BB183682BB957
:1036A000C06800F00100704718467047012070475D
:1036B00010B50821044629F038FB204610BD10B58E
:1036C0004C21044629F031FB204610BD10B51021D5
:1036D000044629F02AFB204610BD10B58C21044673
:1036E00029F023FB204610BD38B50546054B45F8AB
:1036F000E03B044613F0BAFC28460FF06FFB20466F
:1037000038BD00BFDCF7020810B50446FFF7ECFF38
:10371000204641F6045129F008FB204610BD08B5AB
:10372000FFF75AFE08BD0000036870B55E6B124BD0
:103730001B6804468DB22BB9104B114A6C211148FD
:103740002AF0DAF91049828D0988914203D80F4B8B
:103750000B4A6D21F3E713F812200D4B1B6853F849
:10376000220003681B6B9847281A01B23346204693
:10377000BDE87040184700BFA4380120E4F40208F7
:1037800026F5020861F50208A8380120A8F502080C
:10379000AC38012070B5036804461B6B154698478A
:1037A0002368294620465B6BBDE87040184770B51A
:1037B00004461D46BDF91060FFF7ECFF236829465B
:1037C00020469B6B9847236831462046DB6BBDE85B
:1037D000704018474FF480710022818405490160D0
:1037E000C0E90122C0E90322C0E90522C0E907229D
:1037F00082627047041703080022C0E90122C0E971
:103800000322C0E90522C0E907224FF480728284B6
:10381000014A0260704700BF2CF602081A4B73B5CC
:103820001B88018F8B4206462BD9184B1B682BB97E
:10383000174B184A18486C212AF05EF913F811202A
:10384000164B1B6853F82250154B186806F0B4FF4E
:103850002B6801909B6B284698472B6801999B6CBD
:103860000446284698472B6801995B6A14FB00F4CC
:1038700028469847A4B223181BB2A6F8463002B0D7
:1038800070BD0023F9E700BFA8380120A43801204B
:10389000E4F4020826F5020861F50208AC380120BC
:1038A000B038012000224FF0FF31C0E900218260D2
:1038B000704710B50446FFF7F5FF204610BD000025
:1038C00010B50021044626222AF01BFB2046FFF7F4
:1038D00093FF094B2360094BA3624FF6FF73A38547
:1038E0004FF47F020023C4E90C32238704F13C002B
:1038F000FFF7D8FF204610BD5C1B030894F60208B2
:1039000010B50446FFF7DCFF024B23600023A364DD
:10391000204610BD34F7020810B504460B460D4989
:1039200044F8041B0246D3E9010184E80300D3E90B
:10393000030102F10C0484E80300D3E906015C6989
:10394000D161196A9B8C1162C2E9054093841046CB
:1039500010BD00BF7C1F030838B50D460446FFF7B5
:10396000DBFFAB6AA3622B4B2360EB6AE3622B6B3A
:1039700023636B6B636305F1380104F13800FFF7D3
:10398000CBFF2B6E2366244BA36395F8643084F839
:103990006430B5F86630A4F8663005F1680104F1CA
:1039A0006800FFF7B9FFD5F89030C4F890301B4B92
:1039B000A36605F1940104F19400FFF7ADFFB5F89B
:1039C000BA30A4F8BA3095F8BC3084F8BC30144B47
:1039D000C4F89430B5F8BE30A4F8BE30B5F8C030A5
:1039E000A4F8C03005F1C40104F1C400FFF794FF4E
:1039F0000C4BC4F8C430B5F8EA30A4F8EA3095F8B6
:103A0000EC3084F8EC30B5F8F030A4F8F030204613
:103A100038BD00BF9417030858180308A4F602081D
:103A2000541C0308381E0308F0B500F51E739942B4
:103A3000C7B004460D4622D100F1E006314609A880
:103A4000FFF78AFF01A8FDF7E9FADDED037ACF4819
:103A5000FCEEE77A0C2317EE907A17EE901A00220C
:103A6000FDF76EFECA4A3B460A2104F61C6018F0B8
:103A7000ADF9304616F0E4F809A80FF0AFF904F5F7
:103A80000F739D4222D104F1E006314609A8FFF7E9
:103A900063FF01A8FDF7C2FADDED037ABB48FCEE37
:103AA000E77A0C2317EE907A17EE901A0122FDF7B1
:103AB00047FEB74A3B460A2104F6086018F086F92B
:103AC000304616F0BDF809A80FF088F904F5007328
:103AD0009D4222D104F1E006314609A8FFF73CFFE0
:103AE00001A8FDF79BFADDED037AA848FCEEE77A22
:103AF0000C2317EE907A17EE901A0222FDF720FEA3
:103B0000A34A3B460A2104F6F45018F05FF9304608
:103B100016F096F809A80FF061F904F5A1639D422B
:103B200022D104F1E006314609A8FFF715FF01A8EC
:103B3000FDF774FADDED017A9448FCEEE77A0C2388
:103B400017EE907A17EE901A0322FDF7F9FD904ACE
:103B50003B460A2104F6586018F038F9304616F052
:103B60006FF809A80FF03AF904F2CC439D4222D134
:103B700004F1E006314609A8FFF7EEFE01A8FDF7C3
:103B80004DFADDED017A8148FCEEE77A0C2317EE61
:103B9000907A17EE901A0422FDF7D2FD7C4A3B463C
:103BA0000A2104F6446018F011F9304616F048F87E
:103BB00009A80FF013F904F592639D4222D104F194
:103BC000E006314609A8FFF7C7FE01A8FDF726FA6F
:103BD000DDED017A6D48FCEEE77A0C2317EE907A62
:103BE00017EE901A0522FDF7ABFD694A3B460A2104
:103BF00004F5636018F0EAF8304616F021F809A8D9
:103C00000FF0ECF804F5F3639D4222D104F1E006D5
:103C1000314609A8FFF7A0FE01A8FDF7FFF9DDED89
:103C2000077A5A48FCEEE77A0C2317EE907A17EEE3
:103C3000901A0622FDF784FD554A3B460A2104F6F8
:103C4000946018F0C3F8304615F0FAFF09A80FF099
:103C5000C5F804F25C739D4222D104F1E0063146BE
:103C600009A8FFF779FE01A8FDF7D8F9DDED077A7D
:103C70004648FCEEE77A0C2317EE907A17EE901A7E
:103C80000722FDF75DFD424A3B460A2104F56860C4
:103C900018F09CF8304615F0D3FF09A80FF09EF8F5
:103CA00004F5E4639D4222D104F1E006314609A8FF
:103CB000FFF752FE01A8FDF7B1F9DDED077A3348B1
:103CC000FCEEE77A0C2317EE907A17EE901A082292
:103CD000FDF736FD2E4A3B460A2104F66C6018F0CB
:103CE00075F8304615F0ACFF09A80FF077F804F628
:103CF00028239D4222D104F1E006314609A8FFF7AE
:103D00002BFE01A8FDF78AF9DDED057A1F48FCEED0
:103D1000E77A0C2317EE907A17EE901A0922FDF736
:103D20000FFD1B4A3B460A2104F56D6018F04EF862
:103D3000304615F085FF09A80FF050F804F6EC1393
:103D40009D4227D104F1E006314609A8FFF704FEA1
:103D500001A8FDF763F9DDED057A0C48FCEEE77A82
:103D60000C2317EE907A17EE901A0A22FDF7E8FC62
:103D7000074A3B460A2104F6BC6018F027F8304693
:103D800015F05EFF09A80FF029F803E000001E08F7
:103D9000E6F5020804F51B639D4222D104F1E0061A
:103DA000314609A8FFF7D8FD01A8FDF737F9DDED89
:103DB000057A1348FCEEE77A0C2317EE907A17EE9B
:103DC000901A0B22FDF7BCFC0E4A3B460A2104F672
:103DD000A86017F0FBFF304615F032FF09A80EF07F
:103DE000FDFF9834A54208D114F042FE01F058FCC2
:103DF00047B0BDE8F040FDF777BB47B0F0BD00BF6E
:103E000000001E08E6F502085201490110F03ABF11
:103E10005201490110F041BF10B4C46BB4EB411F13
:103E20004FEA411204D05DF8044BC26310F034BE77
:103E30005DF8044B704700002DE9F04F2DED108B1D
:103E40000446ADB0A146002516F092FAE54BE563B5
:103E500049F8403B2622294648462AF052F848466F
:103E6000FFF7CAFC04F16C08FF26DF4B236426220F
:103E70004FF6FF73294684F866604046A566ADF8A4
:103E8000A4302AF03EF84046FFF7B6FCD74BE36675
:103E900084F89460BDF8A430A4F8923029AE31467D
:103EA00004F1980B404612F0E4F8584612F018FA64
:103EB00004F1E003184608EE103A0FF0BDF804F5DF
:103EC000EA73184608EE903AFFF784FC04F5007395
:103ED0001846119312F0A6F804F50F7304F51E7737
:103EE0001846129312F09EF8384612F09BF804F52B
:103EF0002D7318460DEE903AFFF702FD04F540735E
:103F000018460EEE103AFFF7FBFC04F55373184603
:103F10000EEE903AFFF7F4FC04F5667318460AEECD
:103F2000903A10F099FD04F5816318461C93FFF751
:103F300067FAAF4BC4F8083403F1240204F21C41C1
:103F4000C4F810240846C4F8145404F2644A0791D3
:103F5000FFF7B6FC5046FFF73DFC04F592610846BA
:103F6000139112F05FF804F2CC410846149112F05C
:103F700059F804F5A1610846159112F053F804F2BE
:103F8000445108460891FFF7BBFC04F5B2610846AE
:103F90000991FFF7B5FC04F2DC5108460A91FFF7DE
:103FA000AFFC04F5C56108460BEE101A10F054FD85
:103FB00004F5D36108461D91FFF722FA8C4BC4F833
:103FC000983603F1240204F2AC61C4F8A026084636
:103FD000C4F8A4560FEE101AFFF772FC04F2F46155
:103FE000084609EE101AFFF7F5FB04F5E4610846F0
:103FF000169112F017F804F25C710846179112F04E
:1040000011F804F5F3610846189112F00BF804F268
:10401000D47108460B91FFF773FC04F50261084662
:104020000C91FFF76DFC04F66C0108460D91FFF74B
:1040300067FC04F6B80108460BEE901A10F00CFD70
:1040400004F6281108461E91FFF7DAF9684BC4F808
:10405000283903F1240204F63C11C4F8302908463B
:10406000C4F834590FEE901AFFF72AFC04F68411B5
:10407000084609EE901AFFF7ADFB04F51B610846F0
:10408000199111F0CFFF04F6EC1108461A9111F0C6
:10409000C9FF04F6282108461B9111F0C3FF04F65E
:1040A000642108460E91FFF72BFC04F52B610846AE
:1040B0000F91FFF725FC04F6FC2108461091FFF74D
:1040C0001FFC04F6483108460CEE101A10F0C4FC30
:1040D00004F6B83108461F91FFF792F9444BC4F833
:1040E000B83B03F1240204F6CC31C4F8C02B0846D7
:1040F000C4F8C45B0391FFF7E3FB04F614410846E0
:104100000CEE901A10F0A8FC04F6844108462091A9
:10411000FFF776F9364BC4F8843C03F1240204F629
:104120009841C4F88C2C0846C4F8905C0491FFF7C1
:10413000C7FB04F54E6108460DEE101A10F08CFC1A
:1041400004F5556108462191FFF75AF9284BC4F848
:10415000503D03F1240204F66453C4F8582D184668
:10416000C4F85C5D0593FFF7ABFB04F6AC5318464F
:104170000693FFF7A5FB04F580531E4AC3F8F42C01
:104180001D4AC3F8FC2CC3F8F84CC3F8005D4FF48B
:10419000616104F6E46012F05FFF4FF4A0732A46F9
:1041A000484600932946F023FFF701FB4FF07F4379
:1041B000A366231D184649460AEE103A0EF080FB0E
:1041C0002A4640462946FFF7E5FA0823404631468D
:1041D000ADF8A43011F04DFF41461AEE100A0EF072
:1041E0006FFB0BE0DCF70208EC1B0308381E03082A
:1041F00020190308C4F70208293A0008584640F27B
:1042000001122121FFF7C6FA0323324628A9584696
:10421000ADF8A0300223ADF8A43011F034FD3B23FB
:104220005846A4F8D030FFF7F9FA4FF0FF33C4E94D
:10423000353304F5E7531433C4F8C03059461AEE49
:10424000100A02930EF03CFB18EE100A5522294684
:10425000FFF7A0FA062318EE100AADF8A030324698
:10426000072328A9ADF8A4300EF084FF8C2218EEA5
:10427000100A50210EF02CFE18EE100A32210EF01A
:10428000AAFD18EE100A32210EF020FE474B1198BD
:10429000C4F8DC316122C221FFF77CFA4FF0090833
:1042A0004FF0010B27AA1198009628AB26A9ADF86C
:1042B0009850ADF89CB0ADF8A080ADF8A48011F096
:1042C0001CFE029BC4F828321199C4F8385218EE2B
:1042D000900A0EF0F5FA12983D22C221FFF75AFA21
:1042E00027AA1298009628AB26A9ADF89850ADF8E9
:1042F0009CB0ADF8A080ADF8A48011F0FEFD029B4B
:10430000C4F864321299C4F8745218EE900A0EF090
:10431000D7FA38461922C221FFF73CFA27AA3846B5
:1043200028AB26A90096ADF89850ADF89CB0ADF832
:10433000A080ADF8A48011F0E0FD029BC4F8A0328B
:10434000394618EE900AC4F8B0520EF0B9FA682255
:104350001DEE900A0A21FFF71DFA4FF0FF33C4F853
:10436000E432D4F8B432A4F8E85222AFD3F884305F
:104370001DEE901A3846984797E8070004F53C73FD
:1043800083E807000A4B1B6804F6F4592BB9094B64
:10439000094A6021094829F0AFFB094B1B88262BED
:1043A00012D8084B044A6121F4E700BFF000AC00CA
:1043B000A4380120E4F40208E9F5020861F50208D6
:1043C000A8380120A8F50208DB4B2621186806F062
:1043D000F3F9DA4A03460A21484617F0F7FC1DEEC6
:1043E000900AC4F8FC9211F073F8D54B29931DEE96
:1043F000900A27233146ADF8A83011F089F81DEE58
:10440000901A18EE900A0EF05BFA1EEE100A442283
:104410001621FFF7BFF9D4F80033A4F834534FF056
:10442000FF32D3F88430C4F830231EEE101A384619
:10443000984797E8070004F54F7383E80700C14ADF
:10444000136804F60869002BA1D0BF4A1388282BF3
:10445000A7D9B9482821006806F0AEF9B74A034643
:104460000A21484617F0B2FC1EEE100AC4F8489321
:1044700011F02EF8B24B29931EEE100A2923314673
:10448000ADF8A83011F044F81EEE101A18EE900A9C
:104490000EF016FA20221EEE900A1621FFF77AF986
:1044A000D4F84C33A4F880534FF0FF31D3F8843064
:1044B000C4F87C1338461EEE901A984797E8070018
:1044C00004F5627383E807009E490B6804F61C69D3
:1044D000002B3FF45CAF9C4A13882A2B7FF661AF18
:1044E00095482A21006806F067F9944A03460A2194
:1044F000484617F06BFC1EEE900AC4F8949310F037
:10450000E7FF8F4B29931EEE900A31233146ADF819
:10451000A8304FF00A0910F0FBFF1EEE901A18EEBB
:10452000900A0EF0CDF9F0231AEE900A0F222946D8
:10453000CDF80090FFF73BF94FF0FF3C1C99C4F811
:1045400014C40522A4F818C41AEE900AC4F8C013C3
:104550001146FFF759FC05221AEE900AEB21FFF7EE
:1045600057FC1AEE900A5946FFF756FC1AEE900ACD
:10457000594610F09DFB1AEE901A18EE900A0EF0B4
:104580009FF92A4607986021FFF704F94FF0FF3E94
:10459000C4F84CE438460799A4F8505410F01EFDB6
:1045A00097E8070004F58B6383E80700644B0798DE
:1045B000299331462523ADF8A83010F0A9FF0799BB
:1045C00018EE900A0EF07CF918EE901A18EE100A08
:1045D0000EF059FE5D4B1398C4F86C346122C22171
:1045E000FFF7D8F80DF1A00E73460DF19C0E724640
:1045F0000DF1980E714613980096ADF89850ADF8ED
:104600009CB0ADF8A080ADF8A48011F076FC029FBC
:104610001399C4F8B8745046C4F8C8540EF050F951
:1046200014983D22C221FFF7B5F80DF1A00E734694
:104630000DF19C0E72460DF1980E7146149800967D
:10464000ADF89850ADF89CB0ADF8A080ADF8A4805E
:1046500011F053FC029F1499C4F8F4745046C4F846
:1046600004550EF02DF915981922C221FFF792F882
:104670000DF1A00E73460DF19C0E72460DF1980ED1
:10468000714615980096ADF89850ADF89CB0ADF80D
:10469000A080ADF8A48011F030FC029F1599C4F8F9
:1046A00030755046C4F840550EF00AF96822494664
:1046B0000898FFF76FF84FF0FF3EC4F874E5A4F8D0
:1046C00078553046FFF7EEF896E8070004F5B0633A
:1046D00083E807001B490B6804F56367002B3FF470
:1046E00056AE194A13882F2B7FF65BAE12482F2146
:1046F000006806F061F8114A03464946384617F04B
:1047000065FB0898C4F88C7510F0E2FE0C4F089811
:10471000299730233146ADF8A83010F0F9FE0899FA
:1047200050460EF0CDF8442216210998FFF732F8D2
:104730004FF0FF330CE000BFB038012021F6020833
:1047400094F60208A4380120A8380120F000AC003B
:10475000C4F8C035A4F8C4553046FFF7A3F896E86E
:10476000070004F2CC5383E80700DA490B6804F62B
:104770004465002B3FF40BAED74A13882D2B7FF6F0
:1047800010AED648DFF84CB300682D2106F014F8BF
:10479000D34A03464946284617F018FB0998C4F83F
:1047A000D85529AD10F094FE2E230998ADF8A83005
:1047B0002946299710F0ACFE099950460EF080F872
:1047C0004FF0FF36202216210A98FEF7E3FFC4F8C7
:1047D0000C660026A4F810662846FFF763F895E8F3
:1047E000070004F5C36383E80700DBF8003004F634
:1047F0005867002B3FF4CBADB74A13882C2B7FF6BC
:10480000D0ADB6482C21006805F0D6FFB44A034667
:104810004946384617F0DAFA0A98C4F8247610F0B8
:1048200057FEB04F0A9829974FF0310E2946ADF840
:10483000A8E010F06DFE50460A990EF041F81BEE0C
:10484000100AF0230F223146CDF80090FEF7AFFF9B
:104850004FF0FF334FF0FF3C0522C4F8A4361D9BF8
:10486000A4F8A8C6C4F8503611461BEE100AFFF78C
:10487000CBFA05221BEE100AEB21FFF7C9FA1BEE5B
:10488000100A0121FFF7C8FA1BEE100A012110F0EF
:104890000FFA50461BEE101A0EF012F832461FEEB9
:1048A000100A5C21FEF776FF4FF0FF330DF1880C04
:1048B00060461FEE101AC4F8DC36A4F8E06610F06B
:1048C0008DFB0DF1880C9CE807001FEE103A3C337D
:1048D00083E807002B231FEE100A2946ADF8A83005
:1048E000299710F015FE50461FEE101A0DF0E8FF44
:1048F000514618EE100A0EF0C6FC7B491698C4F813
:10490000FC166122C221FEF745FF0DF1A00C6346A3
:104910000DF19C0C62460DF1980C092761464FF091
:10492000010816980095ADF89860ADF89C80ADF838
:10493000A070ADF8A47011F0E0FA029BC4F84837FB
:104940001699C4F8586719EE100A0DF0B9FF1798B8
:104950003D22C221FEF71EFF0DF1A00C63460DF1B2
:104960009C0C62460DF1980C614617980095ADF8C5
:104970009860ADF89C80ADF8A070ADF8A47011F00F
:10498000BCFA029BC4F884371799C4F8946719EEEF
:10499000100A0DF095FF18981922C221FEF7FAFEB1
:1049A0000DF1A00C63460DF19C0C62460DF1980CC4
:1049B000614618980095ADF89860ADF89C80ADF808
:1049C000A070ADF8A47011F098FA029BC4F8C0373B
:1049D0001899C4F8D06719EE100A0DF071FF68221B
:1049E00049460B98FEF7D6FE4FF0FF3CC4F804C8CA
:1049F000A4F808682846FEF755FF95E8070004F577
:104A0000016383E80700DBF8003004F66C6A002BD2
:104A10003FF4BDAC304A1388242B7FF6C2AC2F483C
:104A20002421006805F0C8FE2D4A03464946504639
:104A300017F0CCF90B98C4F81CA810F049FD294BCD
:104A40000B98299329462723ADF8A83010F060FD74
:104A50000B9919EE100A0DF033FF442216210C9821
:104A6000FEF798FE4FF0FF3CC4F850C8A4F8546815
:104A70002846FEF717FF95E8070004F65C0383E875
:104A80000700DBF8003004F5686A002B3FF47FACC8
:104A9000114A1388232B7FF684AC10482321006829
:104AA00005F08AFE0E4A03464946504617F08EF935
:104AB0000C98C4F868A810F00BFD0A4B0C982993C9
:104AC00029462923ADF8A83010F022FD0C9919EEE3
:104AD000100A0BE0A4380120A8380120B0380120CA
:104AE00021F6020894F60208F000AC000DF0E8FE92
:104AF000202216210D98FEF74DFE4FF0FF3CC4F822
:104B00009CC8A4F8A0682846FEF7CCFE95E80700EC
:104B100004F6A80383E80700DBF8003004F6946A83
:104B2000002B3FF434ACDA4A1388222B7FF639ACE1
:104B3000D8482221006805F03FFED74A034649467F
:104B4000504617F043F90D98C4F8B4A810F0C0FC13
:104B50004FF0310ED14B0D98ADF8A8E029462993BE
:104B600010F0D6FC0D9919EE100A0DF0A9FE1BEEFF
:104B7000900AF0230F223146CDF80090FEF717FE81
:104B80004FF0FF304FF6FF730522C4F834091E982A
:104B9000A4F838391146C4F8E0081BEE900AFFF774
:104BA00033F905221BEE900AEB21FFF731F91BEEDA
:104BB000900A4146FFF730F91BEE900A414610F08B
:104BC00077F81BEE901A19EE100A0DF079FE3246B6
:104BD0001FEE900A4921FEF7DDFD4FF0FF301FEE7A
:104BE000901AC4F86C09A4F8706922A810F0F6F9BC
:104BF0001FEE900A00F13C0322A807C883E80700D3
:104C0000A64B2993294621231FEE900AADF8A83020
:104C100010F07EFC1FEE901A19EE100A0DF050FEF7
:104C200019EE101A18EE100A0EF02DFB9C49199877
:104C3000C4F88C196122C221FEF7ACFD27A90A46EF
:104C40001998009528AB26A9ADF89860ADF89C801E
:104C5000ADF8A070ADF8A47011F04FF9029BC4F844
:104C6000D8391999C4F8E86919EE900A0DF028FEB0
:104C70001A983D22C221FEF78DFD27A90A461A98EF
:104C8000009528AB26A9ADF89860ADF89C80ADF8EA
:104C9000A070ADF8A47011F030F9029BC4F8143A7A
:104CA0001A99C4F8246A19EE900A0DF009FE1B98AF
:104CB0001922C221FEF76EFD27A90A461B9800950E
:104CC00028AB26A9ADF89860ADF89C80ADF8A0702F
:104CD000ADF8A47011F011F9029BC4F8503A1B9979
:104CE000C4F8606A19EE900A0DF0EAFD68224946A0
:104CF0000E98FEF74FFD4FF0FF33C4F8943A284664
:104D0000A4F8986AFEF7CEFD95E8070004F52A633B
:104D100083E80700DBF8003004F6A865002B3FF4B9
:104D200036AB5B4A1388202B7FF63BABDFF8648100
:104D3000DFF868A1D8F80000202105F03DFD564AB3
:104D400003464946284617F041F80E98C4F8AC5A75
:104D500029AD10F0BDFB27230E98ADF8A8302946E9
:104D6000CDF8A4A010F0D4FB0E9919EE900A0DF026
:104D7000A7FD4FF0FF37442216210F98FEF70AFDDA
:104D8000C4F8E07AA4F8E46A2846FEF78BFD95E8BB
:104D9000070004F6EC2383E80700DBF8003004F694
:104DA000BC69002B3FF4F3AA394A13881F2B7FF606
:104DB000F8AA1F21D8F8000005F0FEFC364A034689
:104DC0000A21484617F002F80F98C4F8F89A10F034
:104DD0007FFB29230F98ADF8A8302946CDF8A4A071
:104DE00010F096FB0F9919EE900A0DF069FD202244
:104DF00016211098FEF7CEFCC4F82C7BA4F8306B7B
:104E00002846FEF74FFD95E8070004F6383383E89F
:104E10000700DBF8003004F56D69002B3FF4B7AAFA
:104E20001B4A13881E2B7FF6BCAAD8F800001E214F
:104E300005F0C2FC184A03460A21484616F0C6FF90
:104E40001098C4F8449B10F043FB31231098ADF840
:104E5000A83029464FF00A09CDF8A4A010F058FB5D
:104E6000109919EE900A0DF02BFD1CEE100A314638
:104E7000CDF80090F0230F22FEF799FC1F9BC4F899
:104E8000703B05221CEE100A1146C4F8C47B09E0F1
:104E9000A8380120B038012021F6020894F6020853
:104EA000F000AC00A4F8C87BFEF7AEFF05221CEEB4
:104EB000100AEB21FEF7ACFF1CEE100A0121FEF7F1
:104EC000ABFF1CEE100A01210FF0F2FE1CEE101ACF
:104ED00019EE900A0DF188080DF0F2FC32460398A5
:104EE0004921FEF757FC0399C4F8FC7B4046A4F81F
:104EF000006C10F073F898E80700039BCDF8A4A0AD
:104F00003C3383E807001D230398ADF8A8302946F9
:104F100010F0FEFA039919EE900A0DF0D1FC19EE8B
:104F2000901A18EE100A0EF0AEF918EE100A31467B
:104F30000EF09AF918EE101A1AEE100A0DF0C0FCD5
:104F40001CEE900A3146CDF80090F0234B22FEF77C
:104F50002EFC4FF6FF73A4F8943C0522209BC4F866
:104F60003C3C1CEE900A1146C4F8907CFEF74CFFC6
:104F700005221CEE900AEB21FEF74AFF1CEE900A78
:104F80000121FEF749FF1CEE900A01210FF090FE6F
:104F90001CEE901A1AEE100A0DF092FC04983C22B6
:104FA0004621FEF7F7FB0499C4F8C87C4046A4F8F4
:104FB000CC6C10F013F898E80700049BCDF8A4A07F
:104FC0003C3383E807003A230498ADF8A83029461B
:104FD00010F09EFA04991AEE100A0DF071FC1DEE05
:104FE000100A3146CDF80090F0233222FEF7DFFBA5
:104FF000219BC4F8083D05221DEE100A1146C4F895
:105000005C7DA4F8607DFEF7FFFE05221DEE100A10
:10501000EB21FEF7FDFE1DEE100A0121FEF7FCFE5E
:105020001DEE100A01210FF043FE1DEE101A1AEEBC
:10503000100A0DF045FC059823224521FEF7AAFB36
:105040000599C4F8947D4046A4F8986D0FF0C6FF0A
:1050500098E80700059BCDF8A4A03C3383E807003F
:105060003C230598ADF8A830294610F051FA05996F
:105070001AEE100A0DF024FC06980C223621FEF7D9
:1050800089FB0699C4F8DC7D4046A4F8E06D0FF07A
:10509000A5FF98E80700069BCDF8A4A03C3383E861
:1050A00007003D230698ADF8A830294610F030FAE5
:1050B0001AEE100A06990DF003FC20462DB0BDEC47
:1050C000108BBDE8F08F00BF7047704700F59873F4
:1050D0000868496803C3704770477047416070476C
:1050E00010B50022B1F90840B1F90A1002804280DF
:1050F0008480C18010BD704770470000064BC0F827
:105100004C310023C0F8503100F5A273C0F84801BB
:10511000C0F84031704700BFB95400080123037242
:105120007047704770477047704770470146406846
:10513000036810315B6E1847014640680368103100
:105140001B6E1847704701464068036810315B6E5C
:10515000184701464068036810311B6E18477047B6
:1051600010B4C26841685410034601EB6200D207D4
:1051700048BF0A599B685DF8044B48BFD35818478D
:1051800043682BB183682BB9C06800F001007047F9
:10519000184670470120704710B50C21044627F0CF
:1051A000C4FD204610BD10B51021044627F0BDFDFA
:1051B000204610BD10B54FF4AE71044627F0B5FD82
:1051C000204610BD10B53821044627F0AEFD20461C
:1051D00010BD10B52821044627F0A7FD204610BDBC
:1051E00010B53821044627F0A0FD204610BD10B5AB
:1051F00013F03EFC0368BDE81040DB6B184700006D
:1052000013B50446807A637A0130C0B29842A07226
:1052100005D9012323720023A37202B010BDB4F993
:105220000C20002115F094FA10F0010283B22AD16B
:10523000E081194AB4F90E00E3891288B4F9141018
:10524000A0820020D21AADF80200606822835B1AA7
:10525000124AADF804300368B2F900201B69ADF8BA
:105260000010ADF8062069469847A37A012BD4D1E7
:105270000B4B1B78002BD0D013F0FAFB02B0BDE82B
:10528000104013F0FBBB4FF6FF710028D8BF0A4651
:105290001344E381CDE700BF4038012042380120AC
:1052A0004A38012010B50446D0F8400158B10368CF
:1052B000DB68984738B1D4F8400103689B68984789
:1052C0000023C4F8403110BD2DE9F14FD0E9555A03
:1052D0000746A86803681B6A9847972805D8464B75
:1052E000464AA321464828F007FC686803681B6A01
:1052F00098470F2803D8434B404AA421F2E7E868B7
:1053000003681B6A98470B2803D83F4B3B4AA521EB
:10531000E8E713F0ADFBDFF8F890043013F00EFC73
:10532000D9F8000010B10368DB689847D9F800008D
:1053300010B103681B689847DFF8D880D8F80000E0
:1053400010B103685B699847D7F83C0110B1036856
:105350005B689847D8F8000010B103681B6898474D
:10536000D7F83C0110B103689B689847E868036868
:1053700000215B6A98474FF0000B244B0360044602
:10538000C0F804B080F808B0A868036859465B6AA2
:105390009847064605F004FF6868036859465B6A4B
:1053A00098473146054605F0D7FEC9F80040C7F8D2
:1053B0003C51C8F80060E5B12B1DCAF800303368D5
:1053C000C5F808A03046DB68F56398472B68284687
:1053D0001B6898472146304615F076F92368204629
:1053E0001B69984723685B69204601B0BDE8F04F10
:1053F00018472B46E1E700BF10F802089EF80208A4
:10540000ACF90208F3F9020896FA0208500B0308F7
:10541000943801209038012037B50446807A637AA9
:105420000130C0B29842A07205D901232372002333
:10543000A37203B030BDB4F90C20002115F088F937
:1054400010F0010283B228D1E081184B1848198866
:10545000258BE389B0F90000ADF80600CA1A606830
:105460002B445B1A12B2ADF8043003682283ADF806
:10547000002000221B69ADF8022069469847A37AF4
:10548000012BD6D10B4B1B78002BD2D013F0F0FAA6
:1054900003B0BDE8304013F0F1BA4FF6FF710028B9
:1054A000D8BF0A461344E381CFE700BF403801204C
:1054B000423801204A3801202DE9F14FD0E9555AF0
:1054C0000746A86803681B6A9847B0F5905F05D245
:1054D000454B464AA321464828F00EFB68680368FE
:1054E0001B6A98470F2803D8424B404AA421F2E791
:1054F000E86803681B6A98470B2803D83E4B3B4A71
:10550000A521E8E713F0B4FADFF8F490043013F0C3
:1055100015FBD9F8000010B10368DB689847D9F88B
:10552000000010B103681B689847DFF8D880D8F8EE
:10553000000010B103685B699847D7F83C0110B1CF
:1055400003685B689847D8F8000010B103681B68CF
:105550009847D7F83C0110B103689B689847E86802
:10556000036800215B6A98474FF0000B234B0360F0
:105570000446C0F804B080F808B0A868036859462B
:105580005B6A9847064605F0A7FA686803685946BB
:105590005B6A98473146054605F078FAC9F800403D
:1055A000C7F83C51C8F80060E5B12B1DCAF80030BF
:1055B0003368C5F808A03046DB68F56398472B6868
:1055C00028461B6898472146304615F07DF8236829
:1055D00020461B69984723685B69204601B0BDE8F7
:1055E000F04F18472B46E1E710F8020839FB020894
:1055F000ACF90208F3F9020896FA0208500B030806
:105600009438012090380120044B1B6893F85820EF
:105610000AB1D86C00B99868704700BF4C380120B7
:10562000F8B5044617460E4613F056FB104B1C60A7
:10563000104B2360104B0025C4E951350F4BC4E9D2
:1056400053551868036801219B68C4E94F55C4E9A4
:1056500055769847284605F073F8FFF7D5FF1CF0FC
:105660003EFFFFF7D1FF1CF0B5FF2046F8BD00BF9D
:10567000A0380120FC0A0308E40A03084C38012082
:10568000064BC0F84C310023C0F8503100F5A2732E
:10569000C0F84801C0F84031704700BFB954000855
:1056A000064BC0F84C310023C0F8503100F5A2730E
:1056B000C0F84801C0F84031704700BF255B0008C2
:1056C000064BC0F84C310023C0F8503100F5A273EE
:1056D000C0F84801C0F84031704700BFC9660008F3
:1056E000064BC0F84C310023C0F8503100F5A273CE
:1056F000C0F84801C0F84031704700BFE5590008C4
:10570000064BC0F84C310023C0F8503100F5A273AD
:10571000C0F84801C0F84031704700BF89650008F3
:10572000064BC0F84C310023C0F8503100F5A2738D
:10573000C0F84801C0F84031704700BF4964000814
:10574000064BC0F84C310023C0F8503100F5A2736D
:10575000C0F84801C0F84031704700BF0963000835
:10576000064BC0F84C310023C0F8503100F5A2734D
:10577000C0F84801C0F84031704700BFC961000857
:10578000064BC0F84C310023C0F8503100F5A2732D
:10579000C0F84801C0F84031704700BFA558000864
:1057A000064BC0F84C310023C0F8503100F5A2730D
:1057B000C0F84801C0F84031704700BF8960000858
:1057C000064BC0F84C310023C0F8503100F5A273ED
:1057D000C0F84801C0F84031704700BF495F000879
:1057E000064BC0F84C310023C0F8503100F5A273CD
:1057F000C0F84801C0F84031704700BF095E00089A
:10580000064BC0F84C310023C0F8503100F5A273AC
:10581000C0F84801C0F84031704700BFC95C0008BB
:10582000064BC0F84C310023C0F8503100F5A2738C
:10583000C0F84801C0F84031704700BFC9520008A5
:1058400003685B6A18470000124B13B503604FF4FE
:1058500080734363104B417203611049104BB1F9DF
:105860000010B3F90030838100224260027282721C
:10587000C281C0E90522C0E90722C0E90922C0E9C6
:105880000B220446009110301146FDF790FF204690
:1058900002B010BD980B03087C0A030842380120AF
:1058A000403801202DE9F047D0E9554A0746A06865
:1058B00003681B6A984741F2C313984205D8424BCC
:1058C000424AA321424828F017F9606803681B6A1E
:1058D00098470F2803D83F4B3C4AA421F2E7E068E1
:1058E00003681B6A9847372803D83B4B374AA521E2
:1058F000E8E713F0BDF8DFF8E490043013F01EF988
:10590000D9F8000010B10368DB689847D9F80000A7
:1059100010B103681B689847DFF8C480D8F800000E
:1059200010B103685B699847D7F83C0110B1036870
:105930005B689847D8F8000010B103681B68984767
:10594000D7F83C0110B103689B689847E0680021D4
:10595000FFF776FF14210546FFF776FFA06803687E
:1059600000215B6A9847064605F076F9606803688F
:1059700000215B6A98473146044605F047F9C9F8AB
:105980000050C7F83C41C8F80060DCB1231DCAF8DC
:1059900000303368C4F808A03046DB68F4639847E9
:1059A000236820461B6898472946304614F08CFE31
:1059B0002B6828461B6998472B6828465B69BDE819
:1059C000F04718472346E2E710F8020841FC0208B6
:1059D000ACF90208F3F9020896FA0208943801209B
:1059E000903801202DE9F047D0E9554A0746A068D4
:1059F00003681B6A984741F2C313984205D8424B8B
:105A0000424AA321424828F077F8606803681B6A7D
:105A100098470F2803D83F4B3C4AA421F2E7E0689F
:105A200003681B6A9847372803D83B4B374AA521A0
:105A3000E8E713F01DF8DFF8E490043013F07EF887
:105A4000D9F8000010B10368DB689847D9F8000066
:105A500010B103681B689847DFF8C480D8F80000CD
:105A600010B103685B699847D7F83C0110B103682F
:105A70005B689847D8F8000010B103681B68984726
:105A8000D7F83C0110B103689B689847E068002193
:105A9000FFF7D6FE14210546FFF7D6FEA06803687F
:105AA00000215B6A9847064605F076F8606803684F
:105AB00000215B6A98473146044605F047F8C9F86B
:105AC0000050C7F83C41C8F80060DCB1231DCAF89B
:105AD00000303368C4F808A03046DB68F4639847A8
