:020000040800F2
:1000000000000320890E0008B52D0008B72D000858
:10001000B92D0008BB2D0008BD2D00080000000010
:10002000000000000000000000000000C1AC01085A
:10003000BF2D00080000000061AD010899A401086F
:10004000D90E0008D90E0008D90E0008D90E0008F4
:10005000D90E0008D90E0008D90E0008D90E0008E4
:10006000D90E0008C12D0008D90E0008D90E0008CD
:10007000D90E0008D90E0008D90E0008D90E0008C4
:10008000D90E0008D90E0008D90E0008D90E0008B4
:10009000D90E0008D90E0008D90E0008D90E0008A4
:1000A000D90E0008D90E0008D90E0008D90E000894
:1000B000D90E0008D90E0008D90E0008D90E000884
:1000C000D90E0008D90E0008D90E0008D90E000874
:1000D000D90E0008D90E0008D90E0008D90E000864
:1000E000D90E0008D90E0008D90E0008D90E000854
:1000F000D90E0008D90E0008D90E0008D90E000844
:10010000D90E0008D90E0008D90E0008D90E000833
:10011000D90E0008D90E0008E12D0008D90E0008FC
:10012000D90E0008D5260008D90E0008D90E0008FF
:10013000D90E0008D90E0008D90E0008D90E000803
:10014000D90E0008D90E0008D90E0008D90E0008F3
:10015000D90E0008D90E0008D90E0008D90E0008E3
:10016000F12D0008D90E0008D90E0008D90E00089C
:10017000D90E0008D90E0008D90E000800000000B2
:10018000D90E0008D90E0008D90E0008D90E0008B3
:10019000D90E0008D90E0008D90E0008D90E0008A3
:0C01A000012E0008D90E0008D90E00083E
:1001B00010B5054C237833B9044B13B10448AFF3A1
:1001C00000800123237010BD740100200000000096
:1001D0004092030808B5034B1BB103490348AFF332
:1001E000008008BD00000000780100204092030854
:1001F0004B1C012B98BF70472DE9F003911C9B0805
:10020000B1F80480B1F802900A8831F802CC804439
:10021000814402448444D9F80070D8F8006015681D
:10022000DCF80040C9F80060C8F80070CCF8005055
:100230001460D9F80470D8F804605568DCF80440FC
:10024000C9F80460C8F80470CCF804505460083150
:10025000013BD5D1BDE8F00370474B1C012B98BF83
:1002600070472DE9F003911C9B08B1F80480B1F8A8
:1002700002900A8831F802CC00EB580800EB5909CB
:1002800000EB520200EB5C0CD9F80070D8F800606B
:100290001568DCF80040C9F80060C8F80070CCF8B8
:1002A000005014600831013BDFD1BDE8F003704716
:1002B00001F0FF01102A2BDB10F0070F08D010F817
:1002C000013B013A8B422DD010F0070F42B3F6D11B
:1002D000F0B441EA012141EA014122F007047FF034
:1002E00000070023F0E80256083C85EA010586EA8B
:1002F000010685FA47F5A3FA87F586FA47F6A5FAC7
:1003000087F68EB9EED1F0BC01F0FF0102F00702D2
:1003100032B110F8013B013A83EA010313B1F8D17D
:100320000020704701387047002D06BF354603385E
:10033000073815F0010F07D1013015F4807F02BF97
:10034000013015F4C03F0130F0BC0138704700BFE8
:1003500081F0004102E000BF83F0004330B54FEA76
:1003600041044FEA430594EA050F08BF90EA020FE3
:100370001FBF54EA000C55EA020C7FEA645C7FEA76
:10038000655C00F0E2804FEA5454D4EB5555B8BF99
:100390006D420CDD2C4480EA020281EA030382EA0A
:1003A000000083EA010180EA020281EA0303362D9C
:1003B00088BF30BD11F0004F4FEA01314FF4801C6F
:1003C0004CEA113102D0404261EB410113F0004F81
:1003D0004FEA03334CEA133302D0524263EB430338
:1003E00094EA050F00F0A780A4F10104D5F1200ED6
:1003F0000DDB02FA0EFC22FA05F2801841F1000131
:1004000003FA0EF2801843FA05F359410EE0A5F104
:1004100020050EF1200E012A03FA0EFC28BF4CF035
:10042000020C43FA05F3C01851EBE37101F00045EB
:1004300007D54FF0000EDCF1000C7EEB00006EEBF8
:100440000101B1F5801F1BD3B1F5001F0CD3490882
:100450005FEA30004FEA3C0C04F101044FEA4452D9
:1004600012F5800F80F09A80BCF1004F08BF5FEA60
:10047000500C50F1000041EB045141EA050130BD40
:100480005FEA4C0C404141EB0101013C28BFB1F552
:10049000801FE9D291F0000F04BF01460020B1FA9D
:1004A00081F308BF2033A3F10B03B3F120020CDA70
:1004B0000C3208DD02F1140CC2F10C0201FA0CF04E
:1004C00021FA02F10CE002F11402D8BFC2F1200CB3
:1004D00001FA02F120FA0CFCDCBF41EA0C01904069
:1004E000E41AA2BF01EB0451294330BD6FEA0404B2
:1004F0001F3C1CDA0C340EDC04F11404C4F120029D
:1005000020FA04F001FA02F340EA030021FA04F3AE
:1005100045EA030130BDC4F10C04C4F1200220FA05
:1005200002F001FA04F340EA0300294630BD21FA43
:1005300004F0294630BD94F0000F83F4801306BF09
:1005400081F480110134013D4EE77FEA645C18BFFD
:100550007FEA655C29D094EA050F08BF90EA020F94
:1005600005D054EA000C04BF1946104630BD91EA8C
:10057000030F1EBF0021002030BD5FEA545C05D18F
:100580004000494128BF41F0004130BD14F58004CE
:100590003CBF01F5801130BD01F0004545F0FE4142
:1005A00041F470014FF0000030BD7FEA645C1ABF77
:1005B000194610467FEA655C1CBF0B46024650EAAE
:1005C000013406BF52EA033591EA030F41F40021DA
:1005D00030BD00BF90F0000F04BF0021704730B560
:1005E0004FF4806404F132044FF000054FF0000135
:1005F00050E700BF90F0000F04BF0021704730B5F6
:100600004FF4806404F1320410F0004548BF4042CA
:100610004FF000013EE700BF42004FEAE2014FEA1F
:1006200031014FEA02701FBF12F07F4393F07F4FFA
:1006300081F06051704732F07F4208BF704793F0FD
:100640007F4F04BF41F40021704730B54FF4607410
:1006500001F0004521F000411CE700BF50EA010213
:1006600008BF704730B54FF000050AE050EA0102BC
:1006700008BF704730B511F0004502D5404261EB2C
:1006800041014FF4806404F132045FEA915C3FF46D
:10069000D8AE4FF003025FEADC0C18BF03325FEA0A
:1006A000DC0C18BF033202EBDC02C2F1200300FABB
:1006B00003FC20FA02F001FA03FE40EA0E0021FAE0
:1006C00002F11444BDE600BF70B54FF0FF0C4CF4CE
:1006D000E06C1CEA11541DBF1CEA135594EA0C0F80
:1006E00095EA0C0F00F0DEF82C4481EA030621EABB
:1006F0004C5123EA4C5350EA013518BF52EA0335F6
:1007000041F4801143F4801338D0A0FB02CE4FF0A7
:100710000005E1FB02E506F00042E0FB03E54FF0D7
:100720000006E1FB03569CF0000F18BF4EF0010ECF
:10073000A4F1FF04B6F5007F64F5407404D25FEACB
:100740004E0E6D4146EB060642EAC62141EA55517E
:100750004FEAC52040EA5E504FEACE2EB4F1FD0CC0
:1007600088BFBCF5E06F1ED8BEF1004F08BF5FEA3E
:10077000500E50F1000041EB045170BD06F00046F0
:1007800046EA010140EA020081EA0301B4EB5C049D
:10079000C2BFD4EB0C0541EA045170BD41F4801195
:1007A0004FF0000E013C00F3AB8014F1360FDEBFBA
:1007B000002001F0004170BDC4F10004203C35DA96
:1007C0000C341BDC04F11404C4F1200500FA05F319
:1007D00020FA04F001FA05F240EA020001F00042BA
:1007E00021F0004110EBD37021FA04F642EB060130
:1007F0005EEA430E08BF20EAD37070BDC4F10C045A
:10080000C4F1200500FA04F320FA05F001FA04F21D
:1008100040EA020001F0004110EBD37041F1000109
:100820005EEA430E08BF20EAD37070BDC4F1200514
:1008300000FA05F24EEA020E20FA04F301FA05F27C
:1008400043EA020321FA04F001F0004121FA04F224
:1008500020EA020000EBD3705EEA430E08BF20EAF4
:10086000D37070BD94F0000F0FD101F0004640002E
:1008700041EB010111F4801F08BF013CF7D041EAB0
:10088000060195F0000F18BF704703F000465200B4
:1008900043EB030313F4801F08BF013DF7D043EA85
:1008A0000603704794EA0C0F0CEA135518BF95EA3B
:1008B0000C0F0CD050EA410618BF52EA4306D1D1C2
:1008C00081EA030101F000414FF0000070BD50EAE1
:1008D000410606BF1046194652EA430619D094EA6B
:1008E0000C0F02D150EA013613D195EA0C0F05D155
:1008F00052EA03361CBF104619460AD181EA0301A9
:1009000001F0004141F0FE4141F470014FF0000060
:1009100070BD41F0FE4141F4780170BD70B54FF0FB
:10092000FF0C4CF4E06C1CEA11541DBF1CEA13557B
:1009300094EA0C0F95EA0C0F00F0A7F8A4EB05045D
:1009400081EA030E52EA03354FEA013100F0888054
:100950004FEA03334FF0805545EA131343EA12631D
:100960004FEA022245EA111545EA10654FEA0026D2
:100970000EF000419D4208BF964244F1FD0404F58B
:10098000407402D25B084FEA3202B61A65EB0305E7
:100990005B084FEA32024FF480104FF4002CB6EBA4
:1009A000020E75EB030E22BFB61A754640EA0C0024
:1009B0005B084FEA3202B6EB020E75EB030E22BF64
:1009C000B61A754640EA5C005B084FEA3202B6EBA5
:1009D000020E75EB030E22BFB61A754640EA9C0064
:1009E0005B084FEA3202B6EB020E75EB030E22BF34
:1009F000B61A754640EADC0055EA060E18D04FEAF2
:100A0000051545EA16754FEA06164FEAC30343EA91
:100A100052734FEAC2025FEA1C1CC0D111F4801F5E
:100A20000BD141EA00014FF000004FF0004CB6E757
:100A300011F4801F04BF01430020B4F1FD0C88BFF6
:100A4000BCF5E06F3FF6AFAEB5EB030C04BFB6EB01
:100A5000020C5FEA500C50F1000041EB045170BDF4
:100A60000EF0004E4EEA113114EB5C04C2BFD4EB21
:100A70000C0541EA045170BD41F480114FF0000EA5
:100A8000013C90E645EA060E8DE60CEA135594EA21
:100A90000C0F08BF95EA0C0F3FF43BAF94EA0C0F24
:100AA0000AD150EA01347FF434AF95EA0C0F7FF499
:100AB00025AF104619462CE795EA0C0F06D152EAED
:100AC00003353FF4FDAE1046194622E750EA4106D1
:100AD00018BF52EA43067FF4C5AE50EA41047FF4E2
:100AE0000DAF52EA43057FF4EBAE12E74FEA410245
:100AF000B2F1E04324BFB3F5001CDCF1FE5C0DD97C
:100B000001F0004C4FEAC0024CEA5070B2F1004FC5
:100B100040EB830008BF20F00100704711F0804FC8
:100B200021D113F13872BCBF01F00040704741F48D
:100B300080114FEA5252C2F11802C2F1200C10FA91
:100B40000CF320FA02F018BF40F001004FEAC12375
:100B50004FEAD32303FA0CFC40EA0C0023FA02F319
:100B60004FEA4303CCE77FEA625307D150EA0133EF
:100B70001EBF4FF0FE4040F44000704701F00040BF
:100B800040F0FE4040F40000704700BF53B94AB93E
:100B9000002908BF00281CBF4FF0FF314FF0FF3085
:100BA00000F070B9ADF1080C6DE904CE00F006F864
:100BB000DDF804E0DDE9022304B070472DE9F047D9
:100BC000089E0D4604460F46002B4AD18A429446A1
:100BD00065D9B2FA82F343B102FA03FCC3F12002F1
:100BE0009F4020FA02F217439C404FEA1C4E1FFA26
:100BF0008CF5B7FBFEF1220C0EFB117742EA07429F
:100C000001FB05F090420AD91CEB020201F1FF370B
:100C100080F01C81904240F2198102396244121A1C
:100C2000A4B2B2FBFEF00EFB102244EA024400FB29
:100C300005F5A5420AD91CEB040400F1FF3280F04F
:100C40000781A54240F204816444023840EA014031
:100C5000641B00211EB1DC400023C6E90043BDE84F
:100C6000F0878B4208D9002E00F0ED800021C6E904
:100C700000050846BDE8F087B3FA83F1002949D1A1
:100C8000AB4202D3824200F2F880841A65EB030281
:100C900001201746002EE2D0C6E90047DFE702B97F
:100CA000FFDEB2FA82F3002B40F090808A1A4FEAFE
:100CB0001C471FFA8CFE0121B2FBF7F507FB15203C
:100CC000220C42EA00420EFB05F0904208D91CEBD0
:100CD000020205F1FF3802D2904200F2CB80454675
:100CE000121AA4B2B2FBF7F007FB102244EA024446
:100CF0000EFB00FEA64508D91CEB040400F1FF32F0
:100D000002D2A64500F2BB801046A4EB0E0440EAD6
:100D100005409FE7C1F120078B4022FA07FC4CEA0F
:100D2000030C05FA01F420FA07F3FD404FEA1C49D1
:100D30002343B5FBF9F81FFA8CFE09FB18551C0C70
:100D400044EA054408FB0EF5A54202FA01F200FA56
:100D500001F00BD91CEB040408F1FF3A80F0888005
:100D6000A54240F28580A8F102086444641B9DB24C
:100D7000B4FBF9F309FB134445EA044403FB0EFEFC
:100D8000A64508D91CEB040403F1FF356CD2A64537
:100D90006AD9023B644443EA0843A3FB0295A4EBEF
:100DA0000E04AC42C846AE4656D353D056B1B0EB53
:100DB000080264EB0E0404FA07F7CA40CC4017435C
:100DC000C6E9007418460021BDE8F087C3F1200190
:100DD00002FA03FC20FA01F225FA01F19D402A43B0
:100DE0004FEA1C471FFA8CFEB1FBF7F007FB10150A
:100DF000110C41EA054100FB0EF58D4204FA03F4A3
:100E000008D91CEB010100F1FF382FD28D422DD9FA
:100E100002386144491B92B2B1FBF7F507FB15118B
:100E200042EA014205FB0EF1914208D91CEB020295
:100E300005F1FF3816D2914214D9023D6244521A8C
:100E400045EA004138E73146304608E73946E6E6EC
:100E50001046FBE64845A9D2B9EB020865EB0C0E3B
:100E6000013BA3E74546EAE72B4694E74046D1E736
:100E7000D0467BE7023D624432E708460AE7644415
:100E8000023842E7704700BFDFF834D0002103E0AA
:100E90000C4B5B58435004310B480C4B42189A42A0
:100EA000F6D30B4A02E0002342F8043B094B9A4276
:100EB000F9D315F045F937F047FC01F003FA704714
:100EC000000003209CA50D080000002074010020F4
:100ED0007401002064530120FEE700F1784243F6DC
:100EE000FE739A4240F29880A2F5804343F6FE7268
:100EF000934240F2938000F17843A3F5004393427C
:100F000040F28E8000F17843A3F54043934240F2D3
:100F1000898000F1774303F57F034FF6FE72934219
:100F200040F2828000F1774303F57E0302F58032C0
:100F300093427BD900F1774303F57C03934277D941
:100F400000F1774303F57A03934273D900F17743B5
:100F500003F5780393426FD900F1774303F57603E5
:100F600093426BD900F1774303F57403934267D939
:100F700000F1774303F57203934263D9A0F1016254
:100F800043F6FE739A425FD9A2F5804343F6FE72A0
:100F900093425BD9A0F10163A3F50043934257D973
:100FA000A0F10163A3F54043934253D900F1774385
:100FB00003F56F034FF6FE7293424DD900F177436C
:100FC00003F56E0302F58032934247D900F177436F
:100FD00003F56C03934243D900F1774303F56A03A9
:100FE00093423FD900F1774303F5680393423BD91D
:100FF00000F1774303F56603934237D900F1774355
:1010000003F56403934233D900F1774000F56200A1
:1010100090422FD900207047002070470120704770
:101020000220704703207047042070470520704756
:101030000620704707207047082070470920704736
:101040000A2070470B2070470C2070470D20704716
:101050000E2070470F2070471020704711207047F6
:1010600012207047132070471420704715207047D6
:101070001620704717207047F0B583B005460F461D
:10108000164615F0C9F92846FFF727FF044605EB79
:101090008600FFF722FF134B00221A6002221A611A
:1010A0009C60001B0130D86001A9184615F0CAFAEF
:1010B00068B90024A64210DD57F8242000232946F1
:1010C000022015F001FA28B904350134F2E715F0D1
:1010D000C5F905E015F0C2F902E015F0B5F90020F8
:1010E00003B0F0BD9001002050F8043B41F8043BF0
:1010F0001346013A92B2002BF6D1704770B52DED30
:10110000028BADF5087D05460C4600230AE004EB92
:101110008302D2ED007A9FED3A7A77EEC77AC2ED7C
:10112000007A01333F2BF2D9402102A835F060F854
:10113000002308AA214602A835F0DEF820220DEB94
:101140000201084635F046FD01AB6A4620210DEB51
:10115000010034F0E5FF9DED018AB8EE488A01F008
:1011600005FB07EE900AF8EE677A28EE278ADFED96
:10117000257A28EE278ADFED247AB4EEE78AF1EEAD
:1011800010FA06D8DFED217AB4EEE78AF1EE10FA14
:101190000FDADFED1F7AB4EEE78AF1EE10FA0AD823
:1011A000DFED197AB4EEE78AF1EE10FA21DA0026C3
:1011B00002E0322600E00026B40101F0D7FAB4FBC9
:1011C000F0F4C6B108AB03EB8403D3ED007A77EEFD
:1011D000A77A9FED0C7A67EE877A05232B7285ED4F
:1011E000008AC5ED017A28460DF5087DBDEC028B1D
:1011F00070BD3C26E0E700232B72DFED067AEEE7B8
:1012000000F0FF440000803C00005C4200003442DB
:1012100000008242000000002DE9F04190B08046BD
:1012200000245BE01A01815807EE901AF8EE677A05
:10123000494901EB8301C1ED007A0244D2ED017A04
:10124000F8EE677A454901EB8301C1ED007AD2EDF2
:10125000027AF8EE677A424901EB8301C1ED007A28
:10126000D2ED037AF8EE677A3E4A02EB8302C2EDD2
:10127000007A01333F2BD5D904AE37493046FFF70A
:101280003DFFA700384B03EB8403059A1A606D46B7
:1012900032492846FFF732FF95E8070086E8070045
:1012A000324B3B44059A1A602D492846FFF726FF2A
:1012B00095E8070086E807002D4B3B44059A1A6025
:1012C00028492846FFF71AFF95E8070086E8070037
:1012D000284B3B44059A1A600134E4B2092C03D828
:1012E00001F030FA0023C5E71F4C07AA0A21204667
:1012F00034F0E2FE08AA0A21204634F069FE1B4CB5
:1013000009AA0A21204634F0D7FE0AAA0A2120465B
:1013100034F05EFE164C0BAA0A21204634F0CCFEB7
:101320000CAA0A21204634F053FE124C0DAA0A21C1
:10133000204634F0C1FE0EAA0A21204634F048FEB1
:10134000454607AC0FCC0FC50FCC0FC523682B60EB
:10135000404610B0BDE8F0811C0900201C070020A9
:101360001C0500201C030020440200201C02002059
:10137000F4010020CC01002010B50446284B93ED69
:10138000007AC7EE007A274B93ED007A77EE877AE2
:1013900020EE000A244BD3ED006A86EE807A77EEC9
:1013A000877AC0ED007A214BD3ED006A86EEA07AF1
:1013B0001F4BD3ED006A37EE267A60EEA00A1D4B74
:1013C00093ED006AC6EE206A37EE267A80ED017A48
:1013D00077EE876AB6EE006A66EE866AC0ED026A4C
:1013E00077EE677A17EE900AFFF716F90AA3D3E9AA
:1013F0000023FFF793FAFFF779FB00EE100A35F0B0
:10140000FFFFDFED0D7A20EE270A84ED030A204668
:1014100010BD00BFAFF300803333333333B34340E9
:1014200098020020C8010020A002002094020020A1
:10143000A40100209C020020E02E6542F0B52DEDB5
:10144000068B8DB004460D4601F07CF9002327E0A1
:101450001A01815807EE901AF8EE677A6C4901EB91
:101460008301C1ED007A0244D2ED017AF8EE677A89
:10147000684901EB8301C1ED007AD2ED027AF8EE02
:10148000677A654901EB8301C1ED007AD2ED037AF9
:10149000F8EE677A614A02EB8302C2ED007A01330B
:1014A0003F2BD5D909AF5A493846FFF727FEDDED66
:1014B0000A9A9DED098A6E4656493046FFF71EFE90
:1014C00096E8070087E807009DED0AAADDED09AA66
:1014D00051493046FFF712FE96E8070087E80700FB
:1014E000DDED0A8A4D493046FFF708FE96E8070011
:1014F00087E807009DED0A9A78EE2A7AB6EE007A20
:1015000067EE877AC4ED027AF0EE4A0AB0EE690A15
:1015100004A8FFF731FFDDED067AC4ED007A079BE2
:101520006360012D13D0032D28D0D4ED036AB1EEF2
:10153000007AF4EEC76AF1EE10FA03D5012D36D029
:10154000032D4BD020460DB0BDEC068BF0BD344BC7
:1015500093ED007A27EE877A27EE097A314BD3EDA7
:10156000006A67EEA66A66EEA86A37EE267AF6EE9D
:10157000006A27EE267A84ED037AD6E7F4EEC98A6C
:10158000F1EE10FA09D5284B93ED007A27EE877A11
:1015900027EE097A84ED037AC7E7244B93ED007AAE
:1015A00027EE877A27EE287A84ED037ABDE7204B71
:1015B00093ED007A27EE877A27EE097A1D4BD3ED5B
:1015C000006A67EEA67A67EEA87A77EE277AB6EE1B
:1015D000007A67EE877AC4ED037AB3E7F4EEC98A3E
:1015E000F1EE10FA09D5144B93ED007A67EE877A85
:1015F00067EE897AC4ED037AA4E7104B93ED007A85
:1016000067EE877A67EEA87AC4ED037A9AE700BF9F
:101610001C0A00201C0800201C0600201C040020BE
:10162000B8010020C0010020BC010020C40100203E
:10163000A8010020B0010020AC010020B40100206E
:1016400070B58EB006460D46002419E0294668465E
:10165000FFF7F4FE274B03EB8403009A1A60264B36
:1016600003EB8403019A1A60244B03EB8403029A70
:101670001A60234B03EB8403039A1A600134E4B22B
:10168000092CE3D91B4C05AA0A21204634F014FD8D
:1016900009AA0A21204634F09BFC174C06AA0A210D
:1016A000204634F009FD0AAA0A21204634F090FCB5
:1016B000124C07AA0A21204634F0FEFC0BAA0A218C
:1016C000204634F085FC0E4C08AA0A21204634F04E
:1016D000F3FC0CAA0A21204634F07AFC354605AC0E
:1016E0000FCC0FC50FCC0FC523682B6030460EB052
:1016F00070BD00BFCC0200206C020020F40200206C
:10170000A4020020D0ED004A24EEA45A90ED017A04
:1017100090ED026A37EE464A65EE046AD1ED007A32
:1017200066EEA76A67EE075AD1ED017A65EEA75A11
:1017300026EE063AD1ED023A23EE233A75EEC35A6D
:1017400064EEA55A76EEE56A67EE277A66EE233AEE
:1017500077EEE37A67EE277A66EE277A76EEA77A57
:1017600077EE066A64EEA64A35EE645A27EE067AEC
:1017700035EE075A24EE054A87EE847A82ED007A28
:10178000D0ED004A24EEA47AD0ED016A26EEA66AD6
:10179000D1ED005A91ED014A75EEC47A66EE277AD2
:1017A00090ED025A25EE053AD1ED023A75EEE35A74
:1017B00063EE255A77EEE57A67EE277A26EE036A1E
:1017C00034EE634A26EE046A77EE867AF1EE677AA3
:1017D00036EE856A64EE864A37EE647A26EE856ACE
:1017E00037EE067A76EEC56A27EE267AC7EE876A66
:1017F000C3ED006AD0ED006A90ED017A91ED006AC8
:10180000D1ED015A76EE657A67EE277A90ED025AAD
:10181000D1ED024A36EE646A25EE066A77EEC67AA4
:1018200066EEA77A27EE056A75EEE45A66EE255A4B
:1018300077EEA57A66EEA77A67EE277A65EE277AC5
:1018400066EEA65A77EE054A66EEA46A75EEE66A7B
:1018500036EE266A37EE457A26EE076A87EE867AF6
:10186000009B83ED007A704720EE200AC1EE007ADB
:10187000C0ED007A7047000010B52DED088B88B0E0
:10188000514BD3ED007AF8EE677ACDED057AD3EDC2
:10189000017AF8EE677ACDED067AD3ED027AF8EEAA
:1018A000677ACDED077AD3ED037AF8EE677ACDED5E
:1018B000027AD3ED047AF8EE677ACDED037AD3EDB0
:1018C000057AF8EE677ACDED047AD3ED067AB8EEB4
:1018D000678AD3ED077AF8EE67BAD3ED087AB8EEE7
:1018E00067BAD3ED097AF8EE67AAD3ED0A7AB8EEB3
:1018F00067AAD3ED0B7AF8EE679AD3ED0C7AB8EEBF
:10190000679AD3ED0D8AF8EE688A304C304B00931D
:10191000304B314A214602A8FFF7F4FE2F4B0093CB
:101920002F4B304A214605A8FFF7ECFE2E48B1EEBA
:10193000041AD4ED000AB0EE480AFFF795FF9FEDB8
:101940002B8A2B48B0EE481AD4ED000AB0EE6B0A91
:10195000FFF78AFF2748B1EE041AD4ED000AB0EE73
:101960004B0AFFF781FF2448B0EE481AD4ED000A75
:10197000B0EE6A0AFFF778FF2048B1EE041AD4ED02
:10198000000AB0EE4A0AFFF76FFF1D48B0EE481A92
:10199000D4ED000AB0EE690AFFF766FF1948B1EE10
:1019A000041AD4ED000AB0EE490AFFF75DFF1648AD
:1019B000B0EE481AD4ED000AB0EE680AFFF754FF03
:1019C00008B0BDEC088B10BD1C0B002004000020EB
:1019D000A002002098020020C80100209C020020E4
:1019E00094020020A4010020A80100209A99993FA8
:1019F000B8010020B0010020C0010020AC0100208F
:101A0000BC010020B4010020C40100202DE9F047F2
:101A10008EB0002409940A940B940C940D940194B4
:101A2000714B1A6B42F010021A631A6B02F010022B
:101A30000192019A02941A6B42F020021A631A6B07
:101A400002F020020292029A03941A6B42F0800282
:101A50001A631A6B02F080020392039A04941A6BC1
:101A600042F004021A631A6B02F004020492049A10
:101A700005941A6B42F001021A631A6B02F001021C
:101A80000592059A06941A6B42F002021A631A6BC9
:101A900002F002020692069A07941A6B42F0400284
:101AA0001A631A6B02F040020792079A08941A6BA5
:101AB00042F008021A631B6B03F008030893089BAB
:101AC0004A4E22461421304614F013FF01222021F1
:101AD000304614F00EFFDFF82081224614214046E4
:101AE00014F007FFDFF814A122464FF4805150464E
:101AF00014F0FFFEDFF8089122464FF440514846AB
:101B000014F0F7FE3A4F22460421384614F0F1FE55
:101B100001224FF40051384614F0EBFE14230993D0
:101B200001250A950B9403230C9309A9304614F060
:101B3000D5FD082309934FF488130A930B9409A940
:101B4000304614F0CBFD202309930A950B940C9496
:101B500009A9304614F0C2FD042309930A950B9499
:101B600002260C9609A9404614F0B8FD10230993EB
:101B70000A950B940C9409A9404614F0AFFD4FF45C
:101B8000805309930A950B940C9409A9504614F0BC
:101B9000A5FD4FF4405309930A950B940C9609A99F
:101BA000484614F09BFD42F2040309930A950B94F6
:101BB0000C9409A9384614F091FD4FF400430993A1
:101BC0000A960B940C940F230D9309A9094814F05D
:101BD00085FD22460521092014F012FB092014F08E
:101BE00047FB0EB0BDE8F08700380240001002400D
:101BF00000180240000002400008024000040240B9
:101C0000000C024008B50348034B036014F03EFB90
:101C100008BD00BF680B00200030024038B50D4CF5
:101C20000D4B23600D4B63600025A560E5604FF40C
:101C3000804323616561A561E5612562204615F059
:101C40009BFA1021204616F00BFB2946204616F081
:101C500029FB38BD700B0020005C0040A08601000D
:101C600008B50C480C4B03604FF4827343600023AB
:101C70008360C360036143614FF400728261182284
:101C8000C2610362436283620A23C36217F012FBDC
:101C900008BD00BFA00C0020005001402DE9F0431A
:101CA00083B005460C464FF00008CDF804800126AD
:101CB0000E6008274F608E60C1F80C804FF6FF72EF
:101CC00017F0DAF9304614F075FA022323606760E2
:101CD000A660C4F80C804FF6FF722146284617F024
:101CE000CBF90323236067604FF00409C4F8089020
:101CF000C4F80C804FF6FF722146284617F0BCF955
:101D00004FF40C730193C4F800906760A660019BC8
:101D1000E3604FF6FF722146284617F0ADF940F216
:101D20006A51284617F0CAF903B0BDE8F0830000F5
:101D300010B58CB00023059306930793089309937D
:101D40000A930B93154C164A226001226260A3602D
:101D50000421E16010222261402262614FF4C072CE
:101D6000A261E3614FF40062226263624FF40053A8
:101D7000A362022305930722069207910892032289
:101D800009920A930B9305A9204617F055F901A96A
:101D90002046FFF783FF0CB010BD00BF6C0C002085
:101DA000400100A030B58FB03422002101A836F0E8
:101DB000CCFB274C274B236000256560A560E560C0
:101DC0002561092363610123A3611D23E3610323CB
:101DD000236240F20D13636240F24313A36240F2A8
:101DE0001713E36240F24713236384F8345084F8F6
:101DF000355084F83650204616F04CFB0195F02201
:101E0000029203954FF4A073049302210591FF21E0
:101E1000069107954FF480610891052109910A9573
:101E20000B920C938DF834508DF835508DF8365058
:101E30002A4601A9204616F016FC074C074B2360E2
:101E40001B6898472368DB6898470FB030BD00BF18
:101E5000C40B002000680140580B00202400002023
:101E600030B58DB00024089409940A940B9403941F
:101E7000049405940694079401940294104D114B18
:101E80002B606C60AC604FF6FF73EB602C61AC6153
:101E9000284617F059FF4FF48053089308A92846A5
:101EA00018F05DF80394049403A9284618F032F959
:101EB0000194029401A9284618F0E6F90DB030BD4E
:101EC000880D002000040040F0B587B00025029581
:101ED00003950495059500950195174C4FF08046A4
:101EE0002660A7236360A5606323E36025618023E8
:101EF000A361204617F028FF4FF48053029302A9F4
:101F0000204618F02CF8009501956946204618F0F7
:101F1000BBF9322777632946204618F033F9B763B7
:101F20000421204618F02EF9F7630821204618F006
:101F300029F907B0F0BD00BF400D002030B589B0D1
:101F40000024019402940394049405940694079445
:101F50000F4D104B2B60D1236B60AC606323EB60A3
:101F60002C618023AB61284617F0EEFE284617F05F
:101F700017FF60230193029403940594224601A95C
:101F8000284617F071FF284600F074FE09B030BDF6
:101F9000F80C002000200040F0B58DB0002408941B
:101FA00009940A940B940194029403940494059464
:101FB00006940794164D174E2E6053236B60AC6049
:101FC0006323EB602C618023AB61284617F0BCFED5
:101FD0004FF48053089308A9284617F0C0FF2846FD
:101FE00017F0DEFE602301933227029703940594D5
:101FF000224601A9284617F037FF77632146284675
:1020000018F0C0F8284600F035FE0DB0F0BD00BF56
:10201000D00D00200040014000B587B08DF817209A
:10202000074B1B680293012301930DF117020092E5
:102030000A460146034815F07DF907B05DF804FB38
:1020400010000020700B002000B587B00A46002366
:102050008DF81730084B1B680293012301930DF193
:10206000170100910146054815F016FA9DF8170072
:1020700007B05DF804FB00BF10000020700B0020CB
:1020800010B584B0074C2468029401930092012398
:102090000A460146044815F0FFF900B1012004B0DA
:1020A00010BD00BF10000020700B002000B583B0F1
:1020B000ADF80600054B1B6801220DF1060104482E
:1020C00017F057F903B05DF804FB00BF14000020BF
:1020D000A00C002000B583B00246054B1B6801A987
:1020E000044817F03EFB019803B05DF804FB00BF05
:1020F00014000020A00C002008B5642018F064FA39
:10210000FBE7000008B50FE0B42222600022202186
:102110000D4814F0EEFB4FF400510C4814F0EFFBA7
:102120004FF47A7018F050FA094C2368013B236091
:1021300000231A4621460748006818F05BFB236815
:10214000002BE1D0E7E700BF00100240001802407A
:10215000180000205C0B002070B582B000260096AD
:102160001F4D2B6B43F004032B632B6B03F0040315
:102170000093009B1B4C236823F00C03236023680F
:1021800043F004032360A36943F40033A3610A20EE
:1021900014F010F8236843F00C03236001962B6BB6
:1021A00043F020032B632B6B03F020030193019B6F
:1021B00004F54064A36823F44033A360636A23F00A
:1021C0000F036362E36823F44033E3600A2013F0F3
:1021D000F1FF236843F44033236002B070BD00BFB9
:1021E00000380240000802402DE9F84300AF804665
:1021F0000E4615461C469B000733DB086A46A2EBD9
:10220000C3039D46E94622464946FEF76DFF49F85D
:102210002560224649464046FEF72EFF024B43F812
:102220002560BD46BDE8F8831C0B002030B595B095
:102230003022002108A836F088F900240394049481
:1022400005940694079401941C4B1A6C42F080523A
:102250001A641B6C03F080530193019B0294184B8A
:102260001A6842F440421A601B6803F44043029328
:10227000029B012308934FF48033099302250E95A6
:102280004FF480030F93082310934FF4A873119316
:1022900012950423139308A816F03EFA0F23039314
:1022A000049505944FF4A05306934FF4805307937D
:1022B000052103A816F09AFC15B030BD0038024085
:1022C0000070004008B513F049FFFFF7AFFFFFF7BC
:1022D00043FFFFF79BFBFFF795FCFFF79FFCFFF722
:1022E000BFFCFFF725FDFFF75DFDFFF7B9FDFFF729
:1022F000EBFDFFF723FEFFF74FFE00F0E2FD00F0DD
:10230000DFFDFFF729FF00F0E5F800F027F90C22C8
:1023100013491448FEF7E8FEFFF7AEFA18F0C8F8C4
:10232000114A0221102018F01AFA104B1860104AB6
:102330000021104818F0EAF80F4B18600F4A0021EE
:102340000F4818F0E3F80F4B18600F4A00210F48B0
:1023500018F0DCF80E4B186018F0BCF8FEE700BF70
:102360001C0B002000001E08F09203085C0B0020EC
:102370002C930308F9200008640B0020CC9203087A
:10238000CF2E0008540B00200893030805210008F5
:10239000600B00207047704708B5FFF73DFE08BD91
:1023A00008B5FFF751FE08BD08B5FFF769FE80B21A
:1023B00008BD08B513F0FEFE08BD000010B5064CC0
:1023C00000220421204614F094FA01220421204620
:1023D00014F08FFA10BD00BF0008024038B5044663
:1023E00001224FF40051094814F083FA084D0022ED
:1023F0000421284614F07DFA2046FFF757FE0122FB
:102400000421284614F075FA38BD00BF000C0240C4
:102410000008024038B5044600224FF40051094834
:1024200014F067FA084D00220421284614F061FADE
:102430002046FFF73BFE01220421284614F059FAFA
:1024400038BD00BF000C024000080240F8B5054648
:102450000C46104E00220421304614F04AFA0E4F6A
:1024600000224FF40051384614F043FA2846FFF793
:102470001DFE2046FFF72EFE044601224FF40051B8
:10248000384614F036FA01220421304614F031FAAD
:102490002046F8BD00080240000C024008B513F0C9
:1024A00089FE08BD08B50268034B9A4200D008BDFA
:1024B00013F06EFEFBE700BF0010004070470023E2
:1024C00003E0002241F823200133B3EB801FF8D34F
:1024D0007047000082B000200090144B1A6B42F04D
:1024E00020021A631A6B02F020020092009A104A2E
:1024F000116841F440511160116841F4403111609C
:1025000001901A6B42F004021A631B6B03F0040380
:102510000193019B074B1A6842F0C0021A601A68C7
:1025200042F00C021A6002B0704700BF003802404F
:102530000014024000080240074B5A6A42F48072BD
:102540005A625A6A22F480725A624FF080421368CB
:1025500023F00103136070470038024082B000216D
:1025600001910D4B1A6C42F001021A641B6C03F0CE
:1025700001030193019B4FF0804343F244329A627E
:102580000922DA625A6842F020025A60034B83F84B
:102590001C1302B0704700BF0038024000E100E0A9
:1025A00082B000210091364A536C43F48063536437
:1025B000536C03F480630093009B324BD86A40F461
:1025C0004010D862586B40F004005863586B40F4D8
:1025D000D0705863586B40F4C0505863586B40F447
:1025E000B0205863586840F480705860986840F094
:1025F00080509860986840F0C0609860986840F497
:10260000807098600191136B43F480031363136B24
:1026100003F480030193019B1B4B83F8391302F5EC
:102620003052936A23F001039362184B9B6A13F0B4
:10263000010FFAD1154B9A6842F400629A609A6AC7
:1026400042F080629A629A6A42F480329A629A6A8E
:1026500042F480429A629A6A42F480529A629A6A7A
:1026600042F480629A629A6A42F010029A624FF4CF
:102670008072DA62064A1A63064A5A6302B07047E9
:10268000003802400022014000E100E00064024006
:102690004C220140180E00200B4A936A43F00103BC
:1026A00093620A4B4FF00072C3F884215A60084AC3
:1026B000936843F0010393604FF08042136843F046
:1026C00001031360704700BF0064024000E100E0B6
:1026D0000022014008B5184B1B6813F4006F2AD084
:1026E000164B4FF00072C3F88420BFF34F8FBFF337
:1026F0006F8FC3F88421104A936A23F00103936219
:102700000D4B9B6A13F0010FFAD10B4A936843F407
:10271000006393604FF08042136823F0010313605D
:10272000074B9A6822F001029A609A6822F480723C
:102730009A60FFF701FF08BD0064024000E100E07D
:102740000022014008B507490420FFF7B8FEFFF753
:1027500027FFFFF7A1FF044B9B6A13F0010FFAD18B
:10276000004808BD180E0020006402404FF420709D
:10277000704700002DE9F04186B0002301930293D9
:102780000393049305932D4B1B6813B106B0BDE86A
:10279000F0814FF00108294BC3F800800026009615
:1027A000274B9A6B42EA08029A639B6B03EA080381
:1027B0000093009B4FF63F030193022702970325E6
:1027C00004950C24059401A91E4813F087FFCDF849
:1027D0000480029703960495059401A91A4813F002
:1027E0007DFF48F2331301930297039604950594F5
:1027F00001A9164813F072FF4FF6837301930297F5
:1028000003960495059401A9114813F067FF4CF253
:1028100003730193029703960495059401A90D484B
:1028200013F05CFF602301930297039604950594CF
:1028300001A9094813F052FFA8E700BF18120020B1
:102840000038024000140240000802400018024014
:1028500000100240000C02400004024000B583B0AA
:10286000002200920D4B596C41F480415964596C1F
:1028700001F48041009100990192196C41F080515E
:1028800019641B6C03F080530193019B0F216FF0BF
:10289000010013F0B5FC03B05DF804FB0038024002
:1028A0000268094B9A4200D0704782B0002301931E
:1028B000064B1A6B42F480521A631B6B03F480536D
:1028C0000193019B02B07047003002400038024083
:1028D0002DE9F04389B000230393049305930693F5
:1028E000079302682B4B9A4202D009B0BDE8F083EF
:1028F00000250095284C236B43F004032363236BCE
:1029000003F004030093009B0195236B43F0010344
:102910002363236B03F001030193019B4FF40073C6
:1029200003934FF01209CDF810904FF00108CDF845
:102930001480032706970426079603A9174813F067
:10294000CDFE4FF480730393CDF81090CDF8148032
:102950000697079603A9124813F0C0FE0295236C50
:1029600043F400032364236C03F400030293029BEB
:102970002A460521482013F043FC482013F078FC38
:10298000236A43F400032362236A23F400032362CF
:10299000ABE700BF005C0040003802400008024086
:1029A000000002402DE9F04198B004460021139147
:1029B0001491159116911791302207A835F0C5FD95
:1029C0002268634B9A4202D018B0BDE8F081082318
:1029D0000793C0230B9304230D934FF400331093FC
:1029E00007A816F0E7F9002840F0AF800024009413
:1029F000584B5A6C42F080625A645A6C02F0806202
:102A00000092009A01941A6B42F020021A631A6B2A
:102A100002F020020192019A02941A6B42F0010224
:102A20001A631A6B02F001020292029A03941A6B63
:102A300042F002021A631A6B02F002020392039A36
:102A400004941A6B42F040021A631A6B02F04002BF
:102A50000492049A05941A6B42F004021A631A6BEA
:102A600002F004020592059A06941A6B42F00802DD
:102A70001A631B6B03F008030693069B4FF48063F5
:102A8000139302251495159416950E26179613A9DF
:102A9000314813F023FE41F658031393149515940F
:102AA0001695179613A92D4813F018FE03231393B8
:102AB0001495159416954FF00908CDF85C80284FB1
:102AC00013A9384613F00AFE4FF47063139314955C
:102AD00015941695179613A9384613F0FFFD4FF479
:102AE0000C631393149515941695179607F5A05734
:102AF00013A9384613F0F2FDC023139314951594CF
:102B00001695179613A9174813F0E8FD0823139399
:102B1000149515941695179613A9134813F0DEFD16
:102B20004FF4A0531393149515941695CDF85C802B
:102B300013A9384613F0D2FD22460521582013F080
:102B40005FFB582013F094FB3EE7FFF7B7FC4DE71F
:102B500000680140003802400014024000000240BA
:102B60000004024000080240000C024000B589B099
:102B70000023039304930593069307930268154B70
:102B80009A4202D009B05DF804FB0021019103F5DF
:102B900068435A6C42F480125A645A6C02F48012F0
:102BA0000192019A02911A6B42F020021A631B6B88
:102BB00003F020030293029B4FF4607303930223FC
:102BC0000493032306930523079303A9024813F0F4
:102BD00085FDD7E7005001400014024084B003682F
:102BE000B3F1804F15D01F4A934220D01E4A934222
:102BF0002AD01E4A934218D1002303931C4B1A6C0F
:102C000042F480721A641B6C03F480730393039B79
:102C10000BE000230093164B1A6C42F001021A6479
:102C20001B6C03F001030093009B04B0704700236A
:102C300001930F4B1A6C42F002021A641B6C03F0F2
:102C400002030193019BF0E700230293084B5A6CA7
:102C500042F480325A645B6C03F480330293029B2B
:102C6000E3E700BF000400400040014000200040B6
:102C70000038024000B589B0002303930493059304
:102C80000693079303681C4A934205D01B4A93425C
:102C900019D009B05DF804FB00230193184B1A6B9F
:102CA00042F001021A631B6B03F001030193019BC5
:102CB00004230393022304930323079303A91148D6
:102CC00013F00CFDE5E7002302930D4B1A6B42F065
:102CD00001021A631B6B03F001030293029B802322
:102CE00003930223049306930923079303A905483A
:102CF00013F0F4FCCDE700BF00400140002000408D
:102D0000003802400000024008B5FFF733FD08BD5F
:102D100030B589B0044600230193214B1A6C42F070
:102D200010021A641B6C03F010030193019B02A9AB
:102D300003A816F021F8069BCBB916F00DF8034650
:102D4000184AA2FB03239B0C013B1748174A026059
:102D500040F2E732C2604360002303618360836115
:102D600016F0F2FF054630B1284609B030BD15F027
:102D7000F3FF4300E4E70C4816F07CFE054600280C
:102D8000F2D1362013F074FA0F2C01D90125EBE7AC
:102D900000222146362013F033FA054B1C60E3E78E
:102DA0000038024083DE1B431C120020001000404C
:102DB0008C0000207047FEE7FEE7FEE7FEE7704765
:102DC00008B5C82013F0F6F900222021034813F0BB
:102DD00090FD082013F09EFD08BD00BF00100240CA
:102DE00008B5024816F08FFE08BD00BF1C12002077
:102DF00008B5024815F064F908BD00BF700B00204B
:102E000008B5024815F0C2FB08BD00BFC40B002086
:102E10000120704708B535F091FC162303604FF090
:102E2000FF3008BD08B54FF0FF31FFF7F3FFFEE7B5
:102E300070B50C461646002506E0AFF3008021462B
:102E400001F8010B01350C46B542F6DB304670BD8A
:102E500070B50C461646002504E014F8010BAFF3DC
:102E600000800135B542F8DB304670BD4FF0FF30D1
:102E700070474FF400534B600020704701207047AB
:102E80000020704708B503460B4A126842B10A4A4F
:102E9000106803446A46934206D8074A136008BD87
:102EA000054A06491160F2E735F048FC0C2303603F
:102EB0004FF0FF30F3E700BF641200206853012099
:102EC000704708B500F072FF00F0F4FE08BD08B5C9
:102ED00000F06EFF08BD0000024A0260024A026074
:102EE000704700BF709303085893030810B5044659
:102EF000044B0360044B0360042134F03AFA20468B
:102F000010BD00BF709303085893030810B50D4B14
:102F100018800D4B19800D4B5B688220984740F656
:102F20001103984201D0012010BD094C074B2360CA
:102F30001B68822098472368DB688220984700201E
:102F4000F2E700BF681200206A1200205C00002037
:102F50006C12002008B54FF4A071F020FFF7D6FFE7
:102F600008BD000030B583B00446424B1B681B69A6
:102F70008220984780B22080002870D03D4B1B688B
:102F80005B6901AA0DF1060182209847BDF8043063
:102F900040F67462934219D9ADF80420BDF80430AC
:102FA000B43B9BB2ADF80430C3F55C639BB2ADF8A3
:102FB0000430314AA2FB0312D2080A2B0CD92F4B42
:102FC0001B88934209D2013B9AB206E0B32BE5D8A5
:102FD000B423ADF80430E1E70022ADF80420BDF8D9
:102FE000063040F6B8318B4213D8C3F571630E3307
:102FF000ADF80630BDF80610214BA3FB0103DB083A
:103000000E290CD91F490988994209D201398BB27E
:1030100006E0C3F56D630833ADF80630EAE7002338
:10302000ADF806301846184909688B4219D989B29B
:103030005B1A99B21546154B1B689A4215D99BB27B
:10304000D31A9BB21944052903DD0F4B18600F4BAF
:103050001D600D4B1B6863800C4B1B68A38003B085
:1030600030BD89B2C91A89B2E4E79BB29B1A9BB200
:10307000E8E700BF6C120020A38B2EBA6A12002072
:10308000898888886812002070120020741200203D
:1030900030B583B00D4614466846FFF763FFBDF8B0
:1030A000003013B9002003B030BDBDF802302B60F2
:1030B000BDF804302360024BB4221A600120F2E70D
:1030C0001800002008B510B102280BD008BD0B4A2B
:1030D00052F82020B2FA82F252090421084813F073
:1030E00008FCF3E7054A52F82020B2FA82F25209AE
:1030F0001021034813F0FDFBE8E700BF7812002021
:103100000010024008B510B102280BD008BD0B4BCF
:1031100053F8203003B1012002460421084813F07F
:10312000E8FBF3E7054A52F820302BB101221021C9
:10313000034813F0DEFBE9E70022F8E778120020ED
:103140000010024008B510B1022805D008BD0421C6
:10315000044813F0D4FBF9E71021024813F0CFFB29
:10316000F4E700BF0010024008B538B102280AD0C9
:103170000020012814BF0020012008BD04210448BC
:1031800013F0B0FBF5E71021014813F0ABFBF0E7BB
:103190000010024010B5002400E00134042C0EDCC5
:1031A000E0B2FFF7E1FF0028F7D0054B53F82430D9
:1031B000012BF2D0024B012243F82420EDE710BD91
:1031C0007812002080F87810012380F87930704759
:1031D00008B590F87A3023B1406803681B689847B7
:1031E00008BD0020FCE70020704700004164003962
:1031F00018BF0121014B1970704700BF2B470120F8
:103200000020704708B5836B0BB10846984708BD8E
:103210004FF6FF70704708B5406803689B69984790
:1032200008BD000090F8782090F834309A420CD015
:103230000C4B1B78ABB90C4A11880C4B18881080CA
:103240001980084B01221A707047064B1B7843B156
:10325000054A1188054B188810801980014B0022FF
:103260001A7070472447012022470120204701207F
:1032700070477047034A0260034A0260034A0260D3
:10328000704700BF00950308C89B0308B4C4030837
:1032900010B5044600F06AFE2368D3F88C3002496A
:1032A0002046984710BD00BF000000D008B5044676
:1032B0000368D3F88030984723689B6F204698476F
:1032C00000F0E8F823681B6F204698472920FFF795
:1032D000A1F800F0DFF823681B6F20469847F8E755
:1032E00008B500F00FFE08BD08B500F011FE08BDDE
:1032F00008B500F05BFE08BD08B500F0CDFD08BDC7
:1033000008B500F0D1FD08BD08B500F0D5FD08BD39
:1033100008B500F0DDFD08BD10B561B1C163026400
:10332000003A18BF012207490A700268D2F88C20BF
:103330001946904710BD044B044A40F2D22104487C
:1033400034F0FEFE2A47012080930308B893030857
:103350000894030808B5094B1B888B4208D8084B12
:103360001B88934204D8074B1980074B1A8008BD6D
:10337000064B074A9E21074834F0E2FE2047012011
:1033800022470120264701202847012050940308A6
:10339000B49403080894030810B504461BF038FAE7
:1033A0002368D3F8AC302046984710BD08B51AF012
:1033B00080FC08BD10B50446054B0360054B036057
:1033C000054B03607C2133F0D4FF204610BD00BFC5
:1033D00000950308C89B0308B4C4030808B500227D
:1033E0000121084617F0FEF80B4B186040B100228F
:1033F0000421012017F0B3F9084B186030B108BD63
:10340000074B084A2821084834F09AFE074B054A22
:103410002C21054834F094FE8C12002088120020E4
:10342000D09503081C9603084C960308DC96030805
:1034300008B54FF0FF31024B186817F02DF908BDA1
:103440008C12002008B5024B186817F059F908BD16
:103450008C12002008B50021024B186817F01CF9E7
:1034600008BD00BF8C12002008B5024B186817F089
:1034700047F908BD8C12002008B500231A460349FD
:103480000348006817F0B6F908BD00BF1C00002013
:103490008812002010B582B0074C00231A4601A9FB
:1034A000206817F0E9F94FF0FF33002201A92068E6
:1034B00017F0E2F902B010BD88120020704700201A
:1034C000704770477047002070470000044A026050
:1034D000044AC260044AC260044A0260704700BFE6
:1034E00080980308DCC503085C9803088CC50308B2
:1034F00008B5034B034A2221034834F021FE00BFE4
:1035000020970308449703088497030808B5034BE2
:10351000034A2721034834F013FE00BF2097030815
:10352000149803088497030810B50446064B0360FB
:10353000064BC360064BC360064B0360442133F067
:1035400018FF204610BD00BF80980308DCC50308A3
:103550005C9803088CC5030838B50446084B40F84E
:103560000C3B60600025257265722146054B41F8D1
:10357000203B01221BF0A8FAE562204638BD00BFBF
:103580008CC5030880980308014B0360704700BF97
:10359000E49803087047704770477047704770475A
:1035A000014B0360704700BFF498030870477047F1
:1035B00000F598730868496803C3704710B504465E
:1035C000D0F8400158B10368DB68984738B1D4F8A7
:1035D000400103689B6898470023C4F8403110BD40
:1035E000034A0260034A0260034A0260704700BF58
:1035F0003499030860CF0308F4980308074A02606F
:10360000074AC0F84421074AC0F84421064A02602C
:10361000064A0260064A0260704700BFA09903088C
:10362000889903081C9903083499030860CF03089C
:10363000F4980308084A0260084A0260084AC0F881
:103640004421084AC0F84421074A0260074A026040
:10365000074A0260704700BFF4990308A099030865
:10366000889903081C9903083499030860CF03085C
:10367000F4980308024A0260024A0260704700BFE1
:10368000489A0308E4980308024A0260024A02606A
:10369000704700BF889903081C99030801207047F0
:1036A00038207047C1EBC101C90008310844704798
:1036B000C1EBC101C90008310844704701207047BF
:1036C00042F26C20704742F26C2303FB01F1083197
:1036D0000844704742F26C2303FB01F108310844AF
:1036E00070470120704710207047090108310844D5
:1036F0007047090108310844704708B5034641681E
:10370000C26801EB620012F0010F02D19B6898477A
:1037100008BD4FEA620C51F80C209B68D358F6E7BD
:1037200043684BB183680BB101207047C36813F045
:10373000010F03D001207047002070470020704720
:1037400010B50446034B0360042133F012FE2046FB
:1037500010BD00BFF498030810B50446044B036085
:10376000044B0360142133F004FE204610BD00BF5B
:10377000489A0308E498030810B50446034B036015
:10378000142133F0F6FD204610BD00BFE498030875
:1037900010B50446044B0360044B0360102133F062
:1037A000E8FD204610BD00BF889903081C99030856
:1037B00010B50446054B0360054B0360054B0360E1
:1037C0004FF4A27133F0D5FD204610BD34990308A3
:1037D00060CF0308F498030810B50446094B036052
:1037E000094BC0F84431094BC0F84431084B036021
:1037F000084B0360084B03604FF4AE7133F0B9FD22
:10380000204610BDA0990308889903081C99030855
:103810003499030860CF0308F498030810B50446F0
:103820000A4B03600A4B03600A4BC0F844310A4B51
:10383000C0F84431094B0360094B0360094B036036
:103840004FF4AE7133F095FD204610BDF499030896
:10385000A0990308889903081C9903083499030860
:1038600060CF0308F498030808B5084605F068FA25
:1038700008BD08B505F064FA08BD10B50446D0F8D7
:10388000580112F015F8204620F062FF10BD00002C
:1038900010B50446024B036019F012F9204610BD22
:1038A000C49A030810B50446044B036019F008F9E4
:1038B0004021204633F05DFD204610BDC49A030828
:1038C00010B50446024B036019F0FAF8204610BD0B
:1038D000909A030810B50446054B036019F0F0F800
:1038E00042F27421204633F044FD204610BD00BF53
:1038F000909A030810B50446024B036019F0E0F8F3
:10390000204610BD5C9A030810B50446044B0360C2
:1039100019F0D6F81821204633F02BFD204610BDB3
:103920005C9A030810B50446194B036000F5005378
:10393000184AC3F8E822184AC3F8E822174AC3F81D
:103940002C24174AC3F82C24164AC3F8E822164A36
:10395000C3F8E822154AC3F8E822154AC3F8A022A2
:1039600000F50A50203019F0ABF82046114B40F812
:103970002C3F19F0A5F820460F4B40F8143F19F0E2
:103980009FF80E4B23600E4B2360204610BD00BFF6
:10399000F89A0308F4990308A09903088899030882
:1039A0001C9903083499030860CF0308F4980308AE
:1039B000C49A0308909A03085C9A0308489A03087B
:1039C000E49803082DE9F04104460D46012806D08D
:1039D0001CB94FF6FF739D4277D0BDE8F0814FF6DA
:1039E000FF739942F4D1494E494B3360494B3360E0
:1039F000DFF864814046FFF7AFFD474F384628F0B7
:103A000041FE464B464A1A60C3F804809F60DE6060
:103A100000221A615A619A619A83DA831A845A845D
:103A20009A84DA841A8583F82A20DA621A8683F85F
:103A300034209A63DA631A645A6483F848200121B7
:103A400083F8491083F84A2083F84B20DA64A3F8FE
:103A50005020A3F85220A3F85420A3F8562083F84E
:103A60005820DA651A665A6683F8681083F8692068
:103A700083F86A2083F86B1083F86C2083F86D203C
:103A800083F86E2083F86F2083F870205A6783F8DC
:103A9000782083F8792083F87A1083F87B10214806
:103AA0000360F020204E3080204E30804FF4A07014
:103AB0001F4E30801F4E30801F48027083F8341034
:103AC0001E4A1A601E4A1A6082E7144B1C4A1A608A
:103AD0001A4A1A60124A1A601A4B1B4A1A601B4A89
:103AE0001A600D4B1A4A1A601A4A1A601A4B1B4A7E
:103AF0001A601B4ADA601B4ADA601B4A1A60034BE1
:103B0000044A1A60024A1A6067E700BFD8360020EC
:103B10005893030870930308A03700202037002033
:103B2000B4C403082C470120204701202647012068
:103B3000224701202847012024470120C89B030871
:103B40000095030820000020A09C0308D0980308DB
:103B500070D3030808CF0308DC36002080980308E0
:103B6000DCC503085C9803088CC5030810B5194C24
:103B7000194B236004F50053184AC3F8E822184A89
:103B8000C3F8E822174AC3F82C24174AC3F82C2498
:103B9000164AC3F8E822164AC3F8E822154AC3F8C1
:103BA000E822154AC3F8A02203F5287018F088FF10
:103BB0002046124B40F82C3F18F082FF2046104B55
:103BC00040F8143F18F07CFF0E4B23600E4B23602F
:103BD00010BD00BF94120020F89A0308F49903085E
:103BE000A0990308889903081C99030834990308CD
:103BF00060CF0308F4980308C49A0308909A030856
:103C00005C9A0308489A0308E498030810B5044630
:103C10001B4B036000F500531A4AC3F8E8221A4A06
:103C2000C3F8E822194AC3F82C24194AC3F82C24F3
:103C3000184AC3F8E822184AC3F8E822174AC3F81A
:103C4000E822174AC3F8A02200F50A50203018F0E5
:103C500037FF2046134B40F82C3F18F031FF204629
:103C6000114B40F8143F18F02BFF104B2360104B02
:103C7000236042F24441204633F07BFB204610BDD6
:103C8000F89A0308F4990308A0990308889903088F
:103C90001C9903083499030860CF0308F4980308BB
:103CA000C49A0308909A03085C9A0308489A030888
:103CB000E4980308F0B583B000F036FA054600F04A
:103CC00037FA01460024009423462246284624F071
:103CD0000DFA284B284A1A60204610F045FB274869
:103CE00024F06CF9264B1B68BFF35B8F13F0010FB8
:103CF00004D02448FFF7CCFA03B0F0BD204833F0DD
:103D00003AFB0028F5D0204C2046204B40F8143BCD
:103D1000606004F12C07A7601D4EE66006F14805BF
:103D200025611C4B23601C4B236018F0CBFE1B4B02
:103D30006361384618F0C6FE194BE362304618F04E
:103D4000C1FE04F50053174AC3F8A022403630469E
:103D500011F0A8FD22463146284610F0EDFD284618
:103D600004F0EEFF104834F009FA054833F00FFB79
:103D7000BFE700BF904701209C37002020000020B3
:103D8000901200202037002094120020E4980308AD
:103D900034350020489A0308F89A03085C9A03080F
:103DA000909A0308C49A03086D3B0008704700000E
:103DB00008B50248FFF77AFA08BD00BF2037002097
:103DC00008B54FF6FF710120FFF7FCFD08BD08B5EF
:103DD0004FF6FF710020FFF7F5FD08BD08B590F81C
:103DE000253013B103685B69984708BD0020704710
:103DF00081807047C1807047018170474181704761
:103E00007047704770477047704708B5B0F804C0F6
:103E1000A1EB0C01B0F806C0A2EB0C0203685B6DCD
:103E200012B209B2984708BD4FF6FF73838103842D
:103E300043841368C3611060704790F825201AB15D
:103E400090F8242002B11860704700207047B1F943
:103E50000430838001207047704780F82610704737
:103E600090F826007047B1F908C0B1F90A10002295
:103E700002804280A0F804C0C18070470022028006
:103E800042808280C2807047014B0360704700BF50
:103E9000949B030841607047024B902283F858239B
:103EA000704700BF00E100E0024B4FF080729A6063
:103EB000704700BF00E100E0044B4FF08072C3F890
:103EC0008820BFF34F8FBFF36F8F704700E100E092
:103ED000094AD368C3F30A03013B9BB207490B802D
:103EE0001169C1F30A010139054801801364536B5C
:103EF00043F00103536370470068014026380020F7
:103F000024380020014BD3F8AC0070470068014012
:103F1000024BC3F8AC1001225A627047006801409E
:103F2000024A0260024A0260704700BFC89B030851
:103F3000B4C4030810B50446034B0360082133F0F2
:103F400018FA204610BD00BF949B030810B5044624
:103F5000044B0360044B03607C2133F00AFA2046D3
:103F600010BD00BFC89B0308B4C4030838B504469D
:103F700019F0F5FE23685D6E20F026FB0146204611
:103F8000A847054A2368D3F888500023A2F51631C4
:103F90002046A84738BD00BF00B004D008B519F0CE
:103FA000C5FE08BD08B519F0CDFE08BD08B519F06D
:103FB00086FE08BD08B519F0F4FF08BD08B519F074
:103FC00078FE08BD704700002DE9F043079C00EB28
:103FD0004101FF2B3AD0068804F4784204F4FC69CE
:103FE00004F01F0C6FEA030E5FFA8EFE06F47847AA
:103FF0000EFB07F703FB0277174D85FB07823A4458
:10400000D21122F4FF6222F0070217B206F4FC6814
:1040100008FB0EF809FB038885FB08924244D21185
:1040200002F4FC623A4306F01F0606FB0EFE0CFB90
:1040300003EE85FB0E5CF444CCF3C41C42EA0C0294
:1040400020F8022B8142C6D8BDE8F08320F8024B4D
:104050008142FBD8F8E700BF81808080144B1B6849
:104060002BB310B5134B1B6C134A11888B420AD02B
:1040700014F02EFB0E4B186803681B6A984700204B
:10408000FFF740F810BD0D4B198814F021FB084CC8
:10409000226892F86A30013382F86A30FFF7ECF94F
:1040A00020681AF0B5FB0020FFF70CF8EAE770472C
:1040B0002C470120006801402638002024380020C9
:1040C000024A0260024A0260704700BFA09C0308D7
:1040D000D098030808B5032913D8DFE801F00206D9
:1040E0000A0E10F0A9F9006808BD10F0A5F94068A3
:1040F000FAE710F0A1F98068F6E710F09DF9C068C2
:10410000F2E70020F0E7000010B50446044B03601E
:10411000044B0360042133F02CF9204610BD00BF8E
:10412000A09C0308D098030800487047AC9C030883
:104130000C20704769B110B582B0002301938DF84F
:10414000033003689C680DF1030301AAA04702B085
:1041500010BD00207047C0897047008A7047C08832
:10416000704780887047807A00F07F007047807ABF
:10417000C0097047806A7047704770477047704742
:1041800070470000014B0360704700BFEC9F0308BD
:1041900030B585B0044601816D460368D3F884309C
:1041A0000146284698473C3495E8070084E8070014
:1041B00005B030BD30B585B0044641816D46036819
:1041C000D3F884300146284698473C3495E80700E8
:1041D00084E8070005B030BD002202804280828062
:1041E000C280704780F83610704738B504461546CF
:1041F00003681B6B984723685B6E294620469847E7
:1042000038BD0020704708B590F8253013B1036819
:104210005B69984708BD0022028042804FF6FF711B
:104220008180C18082607047806C70477047000059
:10423000044A0260044A0260044A4260044A42603E
:10424000704700BF34A10308B8D00308BCC20308FC
:10425000B4CF030808B50368DB6A984708BD08B502
:1042600003681B6B984708BD024A0260024A02605D
:10427000704700BF68A10308FC9F0308064A02605C
:10428000064A0260064A0260064A8262064A0260E4
:10429000064A0260704700BFA4A0030810CD0308BF
:1042A00038CA0308EC9F03080C9B0308B4CF03082B
:1042B00030B4094A0260094CC4650949C165094A1C
:1042C000C265094DC562C462C162C262074901602C
:1042D000026030BC704700BF14A0030818CE03086A
:1042E0000C9B0308B4CF030830CB0308BCC20308FF
:1042F00010B503464468C26804EB620012F0010F77
:1043000002D19B68984710BD4FEA620C54F80C200C
:104310009B68D358F6E743684BB183680BB1012023
:104320007047C36813F0010F03D0012070470020CD
:10433000704700207047000010B50446034B03602F
:10434000082133F016F8204610BD00BFEC9F03088B
:1043500010B50446064B0360064B0360064B4360F2
:10436000064B4360402133F004F8204610BD00BFE7
:1043700034A10308B8D00308BCC20308B4CF0308B3
:1043800010B50446084B0360084B0360084B0360FC
:10439000084B8362084B0360084B03604C2132F0EA
:1043A000E8FF204610BD00BFA4A0030810CD0308FD
:1043B00038CA0308EC9F03080C9B0308B4CF03081A
:1043C00010B50446044B0360044B0360102132F027
:1043D000D0FF204610BD00BF68A10308FC9F030862
:1043E00038B504460A4B03600A49C1650A4AC265EA
:1043F0000A4BC3650A4DC562C162C262C362094A03
:10440000026003608C2132F0B4FF204638BD00BF4B
:1044100014A0030818CE03080C9B0308B4CF0308AC
:1044200030CB0308BCC2030870B503685D6B124B48
:104430001B68A3B104468EB2828D104909888A4256
:1044400013D213F812200E4B1B6853F82200036896
:104450001B6B9847311A09B22046A84770BD094B1B
:10446000094A6C21094833F06BFE094B064A6D215D
:10447000064833F065FE00BF8447012088470120CD
:104480008C4701209C9D0308E09D03081C9E0308A7
:10449000649E03082DE9F04F83B00446EB4B0360A4
:1044A0001EF08EFB04F50053E94AC3F85C22E94A8A
:1044B000C3F85C2204F5805AE74BCAF8EC32E74FA8
:1044C000CAF81473E64ECAF8EC62E64DCAF8EC522C
:1044D000CAF8A432CAF8CC72CAF8A462CAF8A452C4
:1044E000DFF8A0C3CAF890C20CF1240BCAF898B246
:1044F000DFF894E3CAF898E2DB4ACAF89022DB4975
:10450000CAF89012DA48CAF82002DA4ACAF8202219
:10451000CAF82062CAF82052CAF8D831CAF8007224
:10452000CAF8D861CAF8D851CAF8C4C1CAF8CCB11F
:10453000CAF8CCE1CC4A0192CAF8C421CAF8C41125
:10454000CAF85401CB49CAF85411CAF85461CAF8E0
:104550005451CAF80C31CAF83471CAF80C61CAF85F
:104560000C51C54ACAF8D020DFF82093CAF8D09081
:10457000DFF81C83CAF8D080CAF8D060CAF8D050DF
:10458000BE48CAF88400BE49CAF88410CAF884300C
:10459000CAF8AC70CAF88460CAF88450CAF83C30D3
:1045A000CAF86470CAF83C60CAF83C50C4F8F00F0E
:1045B000C4F8F01FC4F8F03FCAF81870C4F8F06FE0
:1045C000C4F8F05FC4F8B42FC4F8B49FC4F8B48F33
:1045D000C4F8B46FC4F8B45FC4F8A0CFC4F8A8BFDF
:1045E000C4F8A8EFA04AC4F8A02FA04AC4F8A02F8E
:1045F0009F4AC4F8302F9F4AC4F8302FC4F8306F58
:10460000C4F8305FC4F8E83EC4F8107FC4F8E86E20
:10461000C4F8E85EDFF87CA2C4F8BCAEC4F8BC5EA7
:10462000C4F8743EC4F89C7EC4F8746EC4F8745E1A
:10463000914AC4F8382EC4F8389EC4F8388EC4F8AD
:10464000386EC4F8385EC4F8EC0DC4F8EC1DC4F83C
:10465000EC3DC4F8147EC4F8EC6DC4F8EC5DC4F80D
:10466000A43DC4F8CC7DC4F8A46DC4F8A45DC4F81E
:10467000682DC4F8689DC4F8688DC4F8686DC4F8E6
:10468000685DC4F81C0DC4F81C1DC4F81C3DC4F8BA
:10469000447DC4F81C6DC4F81C5DC4F808CDC4F892
:1046A00010BDC4F810ED704AC4F8082D6F4AC4F864
:1046B000082D6F4AC4F8982C6E4AC4F8982CC4F898
:1046C000986CC4F8985CC4F8503CC4F8787CC4F882
:1046D000506CC4F8505CC4F824ACC4F8245CC4F832
:1046E000DC3BC4F8047CC4F8DC6BC4F8DC5BC4F8C5
:1046F000900BC4F8901BC4F8903BC4F8B87BC4F886
:10470000906BC4F8905B5C4AC4F8542BC4F8549B7B
:10471000C4F8548BC4F8546BC4F8545BC4F80C3B15
:10472000C4F8347BC4F80C6BC4F80C5BC4F8C00A42
:10473000C4F8C01AC4F8C03AC4F8E87AC4F8C06A29
:10474000C4F8C05AC4F8842AC4F8849AC4F8848A85
:10475000C4F8846AC4F8845AC4F870CAC4F878BA31
:10476000C4F878EA404AC4F8702A404AC4F8702A6B
:104770003F4AC4F8002A3F4AC4F8002AC4F8006A35
:10478000C4F8005AC4F8B839C4F8E079C4F8B86974
:10479000C4F8B859C4F88CA9C4F88C59364AC4F87E
:1047A0005029C4F85099C4F85089C4F85069C4F825
:1047B0005059C4F81429C4F81499C4F81489C4F8D9
:1047C0001469C4F81459C4F8CC38C4F8F478C4F89F
:1047D000CC68C4F8CC58C4F88008C4F88018C4F871
:1047E0008038C4F8A878C4F88068C4F88058C4F841
:1047F0003838C4F86078C4F83868C4F83858C4F851
:10480000EC07C4F8EC17C4F8EC37C4F81478C4F813
:10481000EC67C4F8EC57C4F8A437C4F8CC77C4F8F4
:10482000A467C4F8A457C4F890C7C4F898B7C4F8EC
:1048300098E70D4AC4F890270C4AC4F890270C4A10
:10484000C4F820270B4AC4F8202725E080A10308DC
:1048500068A10308FC9F030838CA0308EC9F0308FB
:104860000C9B0308B4CF0308A89B0308749B0308A0
:104870003CC8030868C70308A0CD0308A4A0030828
:1048800010CD030800C60308949B03089CCC0308C2
:10489000B4C80308BCC20308C4F82067C4F8205792
:1048A000C4F8F4A6C4F8F456C4F8AC36C4F8D47608
:1048B000C4F8AC66C4F8AC56C4F898C6C4F8A0B640
:1048C000C4F8A0E66F4AC4F898266F4AC4F8982640
:1048D0006E4AC4F828266E4AC4F82826C4F828660A
:1048E000C4F82856C4F8DC05C4F8DC15C4F8DC3577
:1048F000C4F80476C4F8DC65C4F8DC55C4F8900547
:10490000C4F89015C4F89035C4F8B875C4F890652B
:10491000C4F89055C4F84405C4F84415C4F84435A7
:10492000C4F86C75C4F84465C4F84455594AC4F8D1
:104930000825C4F80895C4F80885C4F80865C4F8C3
:104940000855C4F8CC24C4F8CC94C4F8CC84C4F87A
:10495000CC64C4F8CC54C4F89024C4F89094C4F83F
:104960009084C4F89064C4F89054C4F864A4C4F863
:104970006454C4F81C34C4F84474C4F81C64C4F807
:104980001C54C4F808C4C4F810B4C4F810E43D4A78
:10499000C4F808243C4AC4F808243C4AC4F89823C4
:1049A0003B4AC4F89823C4F89863C4F89853C4F8F1
:1049B0004C03C4F84C13C4F84C33C4F87473C4F8F3
:1049C0004C63C4F84C53C4F80003C4F80013C4F893
:1049D0000033C4F82873C4F80063C4F80053C4F863
:1049E000B402C4F8B412C4F8B432C4F8DC72C4F827
:1049F000B462C4F8B452274BC4F87832C4F8789241
:104A0000C4F87882C4F87862C4F87852C4F83C32AA
:104A1000C4F83C92C4F83C82C4F83C62C4F83C52EE
:104A2000C4F80032C4F80092C4F80082C4F80062EE
:104A3000C4F80052C4F8D4A1C4F8D45104F1E00081
:104A400018F0AEFC144BC4F89830C4F8CC70C4F81D
:104A50009890C4F89880C4F89860C4F898500F4BA8
:104A6000E366E666E5660E4B2364266425640D4B1B
:104A700023600D4B2360C4F804A06560204603B09A
:104A8000BDE8F08FA89B0308749B03083CC803088B
:104A900068C70308A0CD030884CE030818CE030816
:104AA000C8CA030834A10308B8D0030810B50446E7
:104AB000FFF7F0FC42F26C21204632F05AFC20460F
:104AC00010BD00002DE9F04FADF55B7D044621F0EF
:104AD000FBF9B64B23600025E5632746B44B47F846
:104AE000403B4FF0260B5A462946384633F02DFD01
:104AF000DFF8E892C4F84090BD80FD803D817D8163
:104B0000BD81FD813D827D827D61BD61FD613D8410
:104B10007D8487F824504FF0010887F82580DFF85E
:104B2000C0A2C4F840A0A34B2364FF2687F82660E8
:104B3000BD6204F16C034FF6FF77ADF8F8705A468A
:104B400029460293184633F000FDC4F86C90029891
:104B50008580C580058145818581C5810582458225
:104B600045618561C5610584458480F8245080F8DD
:104B70002580C4F86CA0904BE366BDF8F830C38480
:104B800080F828603EA91DF01EF804F198031993DF
:104B900018461DF04FF904F1E0030793184618F08A
:104BA0003BFD04F5EA731A460393C4F8D491A4F8C4
:104BB000D851A4F8DA51A4F8DC51A4F8DE51A4F8D5
:104BC000E051A4F8E251A4F8E451A4F8E651C4F885
:104BD000E851C4F8EC51C4F8F051A4F8F451A4F829
:104BE000F65183F8245083F82580744BC4F8D431EF
:104BF000956204F500732A9318461CF0BDFF04F576
:104C00000F732B9318461CF0B7FF04F51E732C93FB
:104C100018461CF0B1FF04F52D765A462946304659
:104C200033F093FCC4F8B492B580F580358175817A
:104C3000B581F581358275827561B561F56135841F
:104C4000758486F8245086F82580C4F8B4A25C4B9D
:104C5000C4F8B4325B4AB262B7853563B58686F86C
:104C6000367086F8375086F8385086F83950B58750
:104C7000F587A6F84070A6F8427075645249C4F8EA
:104C8000B4125248C4F8B402C4F8FC5204F5407699
:104C90005A462946304633F058FCC4F80093B58094
:104CA000F58035817581B581F581358275827561B3
:104CB000B561F5613584758486F8245086F82580C1
:104CC000C4F800A33E4BC4F800333E4AB262B78535
:104CD0003563B58686F8367086F8375086F83850D2
:104CE00086F83950B587F587A6F84070A6F8427067
:104CF00075643549C4F800133448C4F80003C4F897
:104D0000485304F553765A462946304633F01DFC85
:104D1000C4F84C93B580F58035817581B581F581F6
:104D2000358275827561B561F5613584758486F863
:104D3000245086F82580C4F84CA3214BC4F84C338A
:104D4000204AB262B7853563B58686F8367086F834
:104D5000375086F8385086F83950B587F587A6F869
:104D60004070A6F8427075641749C4F84C13174890
:104D7000C4F84C03C4F8945304F566731B931846A7
:104D80001AF054FE04F581631A461893104BC4F8C8
:104D9000083495800F4BC4F808340F4B1B6893F808
:104DA0005820FAB1D86CF0B91CE000BF34A1030858
:104DB00080A10308C8CA030818CE0308BCC20308B0
:104DC00038CA0308EC9F030810CD0308A4A0030809
:104DD000749B0308A89B03082C470120B4CF030849
:104DE0000C9B030898680368DB6A9847B0FA80F662
:104DF0007609B34B1B68D86C30B10368DB6A9847FF
:104E0000002808BF46F00106002E01F0C182AD4B1C
:104E1000189A93600026D660D560AB4BC4F808346E
:104E20002433936004F21C431D460B934FF0260A73
:104E300052463146184633F088FBDFF8AC92C4F88E
:104E40001C94AE80EE802E816E81AE81EE812E822A
:104E50006E826E61AE61EE612E846E8485F8246090
:104E60004FF0010885F82580984AC4F81C24DFF823
:104E70007CB2C4F81CB49649A9624FF6FF77AF859F
:104E80002E63AE8685F8367085F8376085F8386011
:104E900085F83960AE87EE87A5F84070A5F84270B6
:104EA0006E6404F264431A460493C4F86494A4F84C
:104EB0006864A4F86A64A4F86C64A4F86E64A4F846
:104EC0007064A4F87264A4F87464A4F87664C4F8F6
:104ED0007864C4F87C64C4F88064A4F88464A4F89A
:104EE000866483F8246083F825807A4BC4F86434A0
:104EF000966204F592632D9318461CF03DFE04F271
:104F0000CC432E9318461CF037FE04F5A1632F9373
:104F100018461CF031FE04F24455524631462846EC
:104F200033F013FBC4F84495AE80EE802E816E8181
:104F3000AE81EE812E826E826E61AE61EE612E8454
:104F40006E8485F8246085F82580604AC4F844257D
:104F5000C4F844B55E49A962AF852E63AE8685F874
:104F6000367085F8376085F8386085F83960AE8727
:104F7000EE87A5F84070A5F842706E64564BC4F8F1
:104F800044355648C4F84405C4F88C6504F5B26548
:104F900052463146284633F0D8FAC4F89095AE8090
:104FA000EE802E816E81AE81EE812E826E826E61E8
:104FB000AE61EE612E846E8485F8246085F82580CC
:104FC000424AC4F89025C4F890B54149A962AF851A
:104FD0002E63AE8685F8367085F8376085F83860C0
:104FE00085F83960AE87EE87A5F84070A5F8427065
:104FF0006E64394BC4F890353848C4F89005C4F84D
:10500000D86504F2DC5552463146284633F09DFA05
:10501000C4F8DC95AE80EE802E816E81AE81EE818B
:105020002E826E826E61AE61EE612E846E8485F892
:10503000246085F82580254AC4F8DC25C4F8DCB551
:105040002349A962AF852E63AE8685F8367085F850
:10505000376085F8386085F83960AE87EE87A5F847
:105060004070A5F842706E641B4BC4F8DC351B48D9
:10507000C4F8DC05C4F8246604F5C563209318461B
:105080001AF0D4FC04F5D3631A461A93144BC4F8EF
:1050900098369680134BC4F89836094B1B6893F8E2
:1050A00058200AB1D86C00B998680368DB6A984741
:1050B000B0FA80F56D09024B1B68D86CF8B117E0A7
:1050C0002C470120949B030800C603080C9B03088F
:1050D000EC9F0308BCC2030810CD0308A4A003087A
:1050E000749B0308A89B0308B4CF030838CA0308BD
:1050F0000368DB6A9847002808BF45F00105002DCA
:1051000001F04C81BC4B1A9A93600025D560D660A3
:10511000BA4BC4F898362433936004F2AC69262263
:105120002946484633F011FAB549C4F8AC16A9F837
:105130000450A9F80650A9F80850A9F80A50A9F88F
:105140000C50A9F80E50A9F81050A9F81250C9F83F
:105150001450C9F81850C9F81C50A9F82050A9F8E3
:10516000225089F82450012289F82520A54BC4F843
:10517000AC36A54BC4F8AC36A44BC9F828304FF672
:10518000FF73A9F82C30C9F83050A9F8345089F8C9
:10519000363089F8375089F8385089F83950A9F8ED
:1051A0003C50A9F83E50A9F84030A9F84230C9F85F
:1051B000445004F2F4630593C4F8F416A4F8F856C6
:1051C0001946A4F8FA56A4F8FC56A4F8FE56A4F81A
:1051D0000057A4F80257A4F80457A4F80657C4F8D7
:1051E0000857C4F80C57C4F81057A4F81457A4F87B
:1051F000165783F8245083F82520854BC4F8F436DD
:105200008D6204F5E463219318461AF00FFC04F54F
:10521000F2631A461C937F4BC4F8903795807E4BFF
:10522000C4F890377D4B1B6893F858200AB1D86CAE
:1052300000B998680368DB6A9847B0FA80F6760987
:10524000764B1B68D86C30B10368DB6A984700283E
:1052500008BF46F00106002E01F0A680664B1C9A9E
:1052600093600026D660D560644BC4F89037243331
:10527000936004F2A4731D460C934FF0260B5A461C
:105280003146184633F061F9DFF874A1C4F8A4A7D9
:10529000AE80EE802E816E81AE81EE812E826E8296
:1052A0006E61AE61EE612E846E8485F824604FF0ED
:1052B000010885F82580534AC4F8A4275249C4F848
:1052C000A4175248A8624FF6FF77AF852E63AE86CB
:1052D00085F8367085F8376085F8386085F839606C
:1052E000AE87EE87A5F84070A5F842706E6404F2B0
:1052F000EC755A463146284633F027F9C4F8ECA736
:10530000AE80EE802E816E81AE81EE812E826E8225
:105310006E61AE61EE612E846E8485F8246085F83E
:105320002580384AC4F8EC273749C4F8EC173748C9
:10533000A862AF852E63AE8685F8367085F8376033
:1053400085F8386085F83960AE87EE87A5F840703B
:10535000A5F842706E64324BC4F8EC37314DC4F896
:10536000EC57C4F8346804F6380C6546CDF834C000
:105370005A463146604633F0E8F8C4F838A8AE80A3
:10538000EE802E816E81AE81EE812E826E826E6104
:10539000AE61EE612E846E8485F8246085F82580E8
:1053A000184AC4F838281849C4F838181748A862A9
:1053B000AF852E63AE8685F8367085F8376085F840
:1053C000386085F83960AE87EE87A5F84070A5F89B
:1053D00042706E6404F508655A463146284633F03B
:1053E000B4F8C4F880A8AE80EE802E816E81AE81C4
:1053F000EE812E8218E000BF949B030800C60308CC
:10540000B4CF03080C9B030838CA0308EC9F0308B9
:10541000BCC20308749B0308A89B03082C47012007
:1054200010CD0308A4A003086E826E61AE61EE6128
:105430002E846E8485F8246085F82580BF4AC4F8E0
:105440008028BF49C4F88018BE48A862AF852E6383
:10545000AE8685F8367085F8376085F8386085F84F
:105460003960AE87EE87A5F84070A5F842706E648B
:10547000B54BC4F88038B54BC4F88038C4F8C86858
:1054800004F6CC031D460E935A463146184633F0B7
:105490005CF8C4F8CCA82B46AE80EE802E816E81DD
:1054A000AE81EE812E826E826E61AE61EE612E84DF
:1054B0006E8485F8246085F82580A04DC4F8CC580A
:1054C0009F49C4F8CC189F4898629F851E639E86AA
:1054D00083F8367083F8376083F8386083F8396072
:1054E0009E87DE87A3F84070A3F842705E6404F6DE
:1054F0001413309318461CF03FFB04F515633193E9
:1055000018461CF039FB04F68C131A460893C4F8AD
:105510008CA9A4F89069A4F89269A4F89469A4F8F5
:105520009669A4F89869A4F89A69A4F89C69A4F803
:105530009E69C4F8A069C4F8A469C4F8A869A4F86D
:10554000AC69A4F8AE6983F8246083F82580804BA9
:10555000C4F88C39966204F6B8130F935A46314654
:105560009B46184632F0F1FFC4F8B8A9ABF80460C6
:10557000ABF80660ABF80860ABF80A60ABF80C60FB
:10558000ABF80E60ABF81060ABF81260CBF81460AB
:10559000CBF81860CBF81C60ABF82060ABF8226049
:1055A0008BF824608BF82580C4F8B8596449C4F896
:1055B000B8196448CBF82800ABF82C70CBF83060F1
:1055C000ABF834608BF836708BF837608BF8386046
:1055D0008BF83960ABF83C60ABF83E60ABF84070DC
:1055E000ABF84270CBF8446004F52063239318466F
:1055F0001AF01CFA04F527631A461D93554BC4F89C
:10560000703A9680544BC4F8703A544B1B6893F828
:1056100058200AB1D86C00B998680368DB6A9847CB
:10562000B0FA80F56D094D4B1B68D86C30B103683A
:10563000DB6A9847002808BF45F00105002D00F0FF
:10564000B986474B1D9A93600025D560D660454BBF
:10565000C4F8703A2433936004F6842332931846D6
:105660001CF08AFA04F52C664FF0260B5A462946A0
:10567000304632F06AFFDFF8F0A0C4F8C0AAB58067
:10568000F58035817581B581F581358275827561C9
:10569000B561F5613584758486F824504FF00108B2
:1056A00086F82580254BC4F8C03A254AC4F8C02A9C
:1056B0002449B1624FF6FF77B7853563B58686F822
:1056C000367086F8375086F8385086F83950B587E6
:1056D000F587A6F84070A6F8427075641A48C4F8B9
:1056E000C00A1A4BC4F8C03AC4F8085B04F60C3C74
:1056F0006646CDF840C05A462946604632F025FF3E
:10570000C4F80CAB3346B580F58035817581B58121
:10571000F581358275827561B561F5613584758471
:1057200086F8245086F82580044EC4F80C6B044A91
:10573000C4F80C2B0349996218E000BF0C9B0308C6
:1057400038CA0308EC9F030810CD0308A4A003087F
:10575000BCC20308749B0308A89B03082C470120C4
:10576000949B030800C60308B4CF03089F851D63FC
:105770009D8683F8367083F8375083F8385083F865
:1057800039509D87DD87A3F84070A3F842705D64AF
:1057900004F6543CCDF8CCC060461CF0EDF904F59D
:1057A00039665A462946304632F0CFFEC4F890ABEF
:1057B000B580F58035817581B581F5813582758239
:1057C0007561B561F5613584758486F8245086F875
:1057D0002580BF4BC4F8903BBE4AC4F8902BBE490D
:1057E000B162B7853563B58686F8367086F837506E
:1057F00086F8385086F83950B587F587A6F8407096
:10580000A6F842707564B548C4F8900BB448C4F863
:10581000900BC4F8D85B04F6DC30064611905A466B
:10582000294632F092FEC4F8DCAB3346B580F580F1
:1058300035817581B581F581358275827561B56176
:10584000F5613584758486F8245086F82580A04E4D
:10585000C4F8DC6B9F4AC4F8DC2B9F4999629F8592
:105860001D639D8683F8367083F8375083F838506F
:1058700083F839509D87DD87A3F84070A3F8427004
:105880005D6404F624431A460693C4F824ACA4F8D5
:10589000285CA4F82A5CA4F82C5CA4F82E5CA4F87C
:1058A000305CA4F8325CA4F8345CA4F8365CC4F82C
:1058B000385CC4F83C5CC4F8405CA4F8445CA4F8D0
:1058C000465C83F8245083F82580864BC4F8243C3A
:1058D000956204F5456312935A4629469B4618463D
:1058E00032F033FEC4F850ACABF80450ABF80650BD
:1058F000ABF80850ABF80A50ABF80C50ABF80E50B0
:10590000ABF81050ABF81250CBF81450CBF818503D
:10591000CBF81C50ABF82050ABF822508BF8245039
:105920008BF82580C4F8506C6A4AC4F8502C6A4938
:10593000CBF82810ABF82C70CBF83050ABF83450C3
:105940008BF836708BF837508BF838508BF839500D
:10595000ABF83C50ABF83E50ABF84070ABF842703F
:10596000CBF8445004F69843269318461AF05EF894
:1059700004F608531A461E935B4BC4F8083D958005
:105980005A4BC4F8083D5A4B1B6893F858200AB18B
:10599000D86C00B998680368DB6A9847B0FA80F65B
:1059A0007609534B1B68D86C30B10368DB6A9847A3
:1059B000002808BF46F00106002E00F001854D4B7F
:1059C0001E9A93600026D660D5604B4BC4F8083D04
:1059D0002433936004F61C554FF0260B5A4631468B
:1059E000284632F0B2FDDFF814A1C4F81CADAE8039
:1059F000EE802E816E81AE81EE812E826E826E618E
:105A0000AE61EE612E846E8485F824604FF001084B
:105A100085F825802E4BC4F81C3D2E4AC4F81C2D59
:105A20002D49A9624FF6FF77AF852E63AE8685F8C4
:105A3000367085F8376085F8386085F83960AE874C
:105A4000EE87A5F84070A5F842706E642348C4F84C
:105A50001C0D234BC4F81C3DC4F8646D04F6685C4F
:105A6000CDF8D0C060461CF087F804F6A45C65460B
:105A7000CDF84CC05A463146604632F066FDC4F857
:105A8000A4AD2B46AE80EE802E816E81AE81EE817C
:105A90002E826E826E61AE61EE612E846E8485F818
:105AA000246085F825800A4DC4F8A45D094AC4F82D
:105AB000A42D094999629F851E639E8683F83670DE
:105AC00083F8376083F8386083F839609E8717E081
:105AD0000C9B030838CA0308EC9F030810CD030889
