:020000040800F2
:10000000000003204D060008A91B0008AD1B0008D6
:10001000B11B0008B51B0008B91B00080000000058
:10002000000000000000000000000000B1E2000835
:10003000BD1B00080000000041E3000809DB0008C8
:100040009D0600089D0600089D0600089D06000804
:100050009D0600089D0600089D0600089D060008F4
:100060009D060008C11B00089D0600089D060008AB
:100070009D0600089D0600089D0600089D060008D4
:100080009D0600089D0600089D0600089D060008C4
:100090009D0600089D0600089D0600089D060008B4
:1000A0009D0600089D0600089D0600089D060008A4
:1000B0009D0600089D0600089D0600089D06000894
:1000C0009D0600089D0600089D0600089D06000884
:1000D0009D0600089D0600089D0600089D06000874
:1000E0009D0600089D0600089D0600089D06000864
:1000F0009D0600089D0600089D0600089D06000854
:100100009D0600089D0600089D0600089D06000843
:100110009D0600089D060008E11B00089D060008DA
:100120009D060008A51400089D0600089D0600080D
:100130009D0600089D0600089D0600089D06000813
:100140009D0600089D0600089D0600089D06000803
:100150009D0600089D0600089D0600089D060008F3
:10016000ED1B00089D0600089D0600089D0600087E
:100170009D0600089D0600089D060008000000007E
:100180009D0600089D0600089D0600089D060008C3
:100190009D0600089D0600089D0600089D060008B3
:0C01A000F91B00089D0600089D060008E1
:1001B00010B5054C237833B9044B13B10448AFF3A1
:1001C00000800123237010BD6801002000000000A2
:1001D00030CB020808B5034B1BB103490348AFF30A
:1001E000008008BD000000006C01002030CB020838
:1001F0004B1C012B98BF70472DE9F003911C9B0805
:10020000B1F80480B1F802900A8831F802CC804439
:10021000814402448444D9F80070D8F8006015681D
:10022000DCF80040C9F80060C8F80070CCF8005055
:100230001460D9F80470D8F804605568DCF80440FC
:10024000C9F80460C8F80470CCF804505460083150
:10025000013BD5D1BDE8F00370474B1C012B98BF83
:1002600070472DE9F003911C9B08B1F80480B1F8A8
:1002700002900A8831F802CC00EB580800EB5909CB
:1002800000EB520200EB5C0CD9F80070D8F800606B
:100290001568DCF80040C9F80060C8F80070CCF8B8
:1002A000005014600831013BDFD1BDE8F003704716
:1002B00001F0FF01102A2BDB10F0070F08D010F817
:1002C000013B013A8B422DD010F0070F42B3F6D11B
:1002D000F0B441EA012141EA014122F007047FF034
:1002E00000070023F0E80256083C85EA010586EA8B
:1002F000010685FA47F5A3FA87F586FA47F6A5FAC7
:1003000087F68EB9EED1F0BC01F0FF0102F00702D2
:1003100032B110F8013B013A83EA010313B1F8D17D
:100320000020704701387047002D06BF354603385E
:10033000073815F0010F07D1013015F4807F02BF97
:10034000013015F4C03F0130F0BC0138704700BFE8
:1003500053B94AB9002908BF00281CBF4FF0FF312C
:100360004FF0FF3000F070B9ADF1080C6DE904CE2C
:1003700000F006F8DDF804E0DDE9022304B0704780
:100380002DE9F047089E0D4604460F46002B4AD142
:100390008A42944665D9B2FA82F343B102FA03FC69
:1003A000C3F120029F4020FA02F217439C404FEA1B
:1003B0001C4E1FFA8CF5B7FBFEF1220C0EFB1177D9
:1003C00042EA074201FB05F090420AD91CEB020207
:1003D00001F1FF3780F01C81904240F2198102390F
:1003E0006244121AA4B2B2FBFEF00EFB102244EAE1
:1003F000024400FB05F5A5420AD91CEB040400F1F8
:10040000FF3280F00781A54240F204816444023843
:1004100040EA0140641B00211EB1DC400023C6E914
:100420000043BDE8F0878B4208D9002E00F0ED8034
:100430000021C6E900050846BDE8F087B3FA83F15C
:10044000002949D1AB4202D3824200F2F880841ADB
:1004500065EB030201201746002EE2D0C6E90047F3
:10046000DFE702B9FFDEB2FA82F3002B40F09080A2
:100470008A1A4FEA1C471FFA8CFE0121B2FBF7F5DE
:1004800007FB1520220C42EA00420EFB05F09042C9
:1004900008D91CEB020205F1FF3802D2904200F2AB
:1004A000CB804546121AA4B2B2FBF7F007FB10222C
:1004B00044EA02440EFB00FEA64508D91CEB0404E6
:1004C00000F1FF3202D2A64500F2BB801046A4EB39
:1004D0000E0440EA05409FE7C1F120078B4022FA55
:1004E00007FC4CEA030C05FA01F420FA07F3FD407F
:1004F0004FEA1C492343B5FBF9F81FFA8CFE09FBB0
:1005000018551C0C44EA054408FB0EF5A54202FAF6
:1005100001F200FA01F00BD91CEB040408F1FF3AD8
:1005200080F08880A54240F28580A8F102086444EA
:10053000641B9DB2B4FBF9F309FB134445EA044480
:1005400003FB0EFEA64508D91CEB040403F1FF359E
:100550006CD2A6456AD9023B644443EA0843A3FB34
:100560000295A4EB0E04AC42C846AE4656D353D017
:1005700056B1B0EB080264EB0E0404FA07F7CA4068
:10058000CC401743C6E9007418460021BDE8F08747
:10059000C3F1200102FA03FC20FA01F225FA01F16D
:1005A0009D402A434FEA1C471FFA8CFEB1FBF7F02F
:1005B00007FB1015110C41EA054100FB0EF58D42B9
:1005C00004FA03F408D91CEB010100F1FF382FD223
:1005D0008D422DD902386144491B92B2B1FBF7F527
:1005E00007FB151142EA014205FB0EF1914208D9C1
:1005F0001CEB020205F1FF3816D2914214D9023DDC
:100600006244521A45EA004138E73146304608E76D
:100610003946E6E61046FBE64845A9D2B9EB0208A2
:1006200065EB0C0E013BA3E74546EAE72B4694E752
:100630004046D1E7D0467BE7023D624432E70846B8
:100640000AE76444023842E7704700BFDFF834D05D
:10065000002103E00C4B5B58435004310B480C4B1A
:1006600042189A42F6D30B4A02E0002342F8043BB8
:10067000094B9A42F9D309F037F92BF0DDFC00F071
:100680005FFA704700000320C0D30C080000002070
:1006900068010020680100206C440120FEE7000092
:1006A00000F1784343F6FE72934205D9A3F58041E9
:1006B000914203D80120704700207047A3F5004104
:1006C000914260D9A3F5404393425ED900F177434C
:1006D00003F57F014FF6FE7291425AD902F580323E
:1006E00003F57E01914252D903F57C01914252D922
:1006F00003F57A01914250D903F5780191424ED920
:1007000003F5760191424CD903F5740191424AD91F
:1007100003F57201914248D9A0F1016043F6FE71E0
:10072000884244D9A0F5804C8C4542D9A0F5004CB4
:100730008C4540D9A0F5404088423ED903F56F0072
:100740004FF6FE7188423AD903F56E01914238D9CD
:1007500003F56C01914238D903F56A01914232D90F
:1007600003F56801914236D903F56601914230D90B
:1007700003F5640191422AD903F56203934294BFC1
:100780001720002070470220704703207047052083
:1007900070470420704706207047072070470820E4
:1007A0007047092070470A2070470B2070470C20C3
:1007B00070470D2070470E2070470F2070471020A3
:1007C0007047112070471320704712207047162081
:1007D0007047152070471420704700BFF0B50746DA
:1007E00083B016460D4609F03DFA3846FFF758FF2C
:1007F000044607EB8600FFF753FF431C13481B1BFF
:10080000C0E902430023036001A90223036109F048
:10081000A7FA88B9A6B17F1B0446043D043701E05E
:10082000A6420DD07919002355F8042F0220013477
:1008300009F076F90028F3D009F032FA03B0F0BDE0
:1008400009F024FA002003B0F0BD00BF84010020AD
:100850000B46013201EB8201C01A1A5843F8042BEF
:100860008B42FAD1704700BF2DE9F04F2DED028B7E
:1008700091B000AF05468846FA6000F081FE03B2F1
:10088000BB609B007B60073323F00703ADEB030DD8
:100890000446EA46F0B1013DD146D346002600F0B9
:1008A0006DFE06FB005008EB8003D3ED007A0136A5
:1008B000F8EE677AB442EBEC017AF0D17E689FEDF6
:1008C0002B7A5644D9ED007A77EEC77AE9EC017AB3
:1008D0004E45F7D1BB686A46A2EBC3039D4607EEBF
:1008E000904AFB686D46A1B207F12800F8EE678ACE
:1008F00013FB04F929F0C8F964080023514607F1F5
:1009000028002A4629F044FA22462946284629F09A
:10091000ADFE00F037FEB9FBF0F905EB8909D9ED22
:10092000007A77EEA77A07F11803C7EEA80A07F155
:100930001C0221462846C7ED030A29F03DF9D7EDF0
:10094000067AB8EE678A00F01DFE07EE900AF8EE10
:10095000677AD7ED030A67EE887A443787EEA80AEC
:10096000BD46BDEC028BBDE8F08F00BF00F0FF4438
:1009700008B564200DF04EF9FBE700BF80B5104CC0
:10098000DFF848800F4F104E206800231A4621469A
:10099000451ED8F8000025600DF038FA22683C2387
:1009A0003846202112B9236009F0AEFB30464FF4DF
:1009B000005109F0ADFB4FF47A700DF02BF9E3E72D
:1009C0000C0000200010024000180240D00100205E
:1009D000014B1868704700BF0C000020F0B583B0D1
:1009E0001F4E204D204C00270097336B43F004032B
:1009F0003363336B03F004030093009B2B6823F0F5
:100A00000C032B602B6843F004032B60AB6943F4A9
:100A10000033AB610A2008F0A1FF2B6843F00C0300
:100A20002B600197336B43F020033363336B03F088
:100A300020030193019BA36823F44033A360636AFE
:100A400023F00F036362E36823F44033E3600A207A
:100A500008F084FF236843F44033236003B0F0BD03
:100A60000038024000080240001402402DE9F8431B
:100A70001C469B0007336D46DB08A5EBC30300AFA4
:100A80009D466D4616468146884622462946FFF712
:100A9000DFFE45F82680224629464846FFF79EFE9F
:100AA000BD46BDE8F88300BF30B5002495B0CDE960
:100AB0000A44CDE90C44CDE90344CDE905441E4A7E
:100AC00001940794116C1D4B41F080511164126C1C
:100AD00002F080520192019A02941A6842F4404254
:100AE0001A601B6803F44043029301224FF48033E1
:100AF000CDE908230823022510934FF480024FF418
:100B0000A873CDE90E5211930222042308A8CDE95F
:100B1000122302990BF036F90F23CDE903354FF478
:100B2000A0524FF4805303A80521CDE90542079355
:100B30000BF040FB15B030BD0038024000700040A3
:100B40002DE9804800249DB008F0DCFEFFF7ACFFE3
:100B5000FFF744FFCDE90F44CDE91144BE4B0094AB
:100B60001394196BBD48BE4D41F010011963196B08
:100B700001F01001009100990194196B41F02001DE
:100B80001963196B01F02001019101990294196B0D
:100B900041F080011963196B01F080010291029903
:100BA0000394196B41F004011963196B01F00401FE
:100BB000039103990494196B41F001011963196BB6
:100BC00001F00101049104990594196B41F00201AF
:100BD0001963196B01F00201059105990694196BCF
:100BE00041F040011963196B01F04001069106992B
:100BF0000794196B41F0080119631B6B03F008039C
:100C0000224607931421079B09F07EFA934820217E
:100C1000012209F079FA93482246142109F074FA66
:100C2000914822464FF4805109F06EFA8F482246CF
:100C30004FF4405109F068FA8D482246042109F02A
:100C400063FA01228A484FF4005109F05DFA012647
:100C50004FF0030A142381480FA94FF00808CDE98B
:100C60000F36CDE9114A09F00BF94FF488137B4890
:100C7000CDF83C800FA91093119409F001F92023BD
:100C800076480F930FA902274FF0040BCDE91064AB
:100C9000129409F0F5F87348CDF83CB00FA94FF065
:100CA0001009CDE91064129709F0EAF86D48129422
:100CB0000FA9CDE91064CDF83C9009F0E1F84FF4AC
:100CC000805369480F930FA9CDE91064129409F07D
:100CD000D7F84FF4405265480F920FA9CDE9106440
:100CE000129709F0CDF842F2040261480F920FA961
:100CF000CDE91064129409F0C3F84FF400425D4846
:100D00000F920FA90F221392CDE91074129409F0DB
:100D1000B7F805212246092008F044FE092008F012
:100D20007FFE5548554A026008F088FE5449554AEE
:100D30002846C5E900124FF480422A61C5E9024401
:100D4000C5E90544C5E9074409F044FC494628467D
:100D50000AF00CFE214628460AF028FEDFF83CC1C6
:100D600049484A4D84624FF48272C0E900C24FF490
:100D7000007E1822C0E906E20A22C262C0E90244EB
:100D8000C0E90444C0E908440BF002FD07221092B8
:100D900012923F4A2A6040204FF4C072C5E9050212
:100DA0004FF400622A620FA94FF400522846C5E9A9
:100DB0000164C5E903B9AA62EC616C62CDF844B084
:100DC000CDE913A70F9715970BF0F0FB4FF6FF72C5
:100DD0000BA92846CDE90B68CDE90D6408940BF00A
:100DE00007FC304608F0BAFD4FF6FF720BA9284603
:100DF000CDE90B78CDE90D640BF0FAFB4FF6FF72ED
:100E00000BA92846CDE90BA8CDE90DB40BF0F0FBFA
:100E10004FF40C730893089B0E934FF6FF720BA9C7
:100E20002846CDE90BB80D960BF0E2FB284640F2C0
:100E30006A510BF0FBFB174D214634220FA82AF014
:100E4000FCFF154B2B6009236B611D23EB6140F206
:100E50000D1B40F2431323E0003802400010024013
:100E6000E40100200008024000040240000C02409F
:100E70000018024000000240DC0100200030024067
:100E8000005C0040A086010014030020E002002066
:100E9000400100A0380200200068014000500140DD
:100EA000C5E909B340F2171240F24713AC86284651
:100EB000C5E90B23AE61C5E90144C5E90344C5F8A2
:100EC00020A085F836400AF095FDF0231093199381
:100ED0004FF4A07312931A93FF2322460FA92846BA
:100EE00014934FF480660523CDE916636D4D0F947E
:100EF0001194139715941894ADF86C408DF86E40CA
:100F00000AF04EFE684B2B601B68684E98472B68B2
:100F1000674DDB6898474FF6FF78664B3360304685
:100F2000C6E90144C6E90444B461C6F80C80CDE9C1
:100F30000F44CDE91144CDE90B4413940CF018F89B
:100F40000FA93046CDE90F440CF09CFB0BA93046AD
:100F5000CDE90B440CF0D4FC574B2B602846C5E977
:100F60000144C5F80C802C61AC61CDE90B44CDE99E
:100F70000D44CDE90F44CDE91144139409940A942A
:100F80000BF0F6FF4FF480530BA928460B930CF09F
:100F9000C9FA0FA92846494ECDE90F440CF072FB5F
:100FA00009A92846CDE909440CF0AAFC4FF080437A
:100FB000336030464FF0FF33F360C6E901443461DB
:100FC000B461CDE90F44CDE91144CDE90B440BF0F8
:100FD000CFFF4FF480530FA93046394D0F930CF0DB
:100FE000A1FA0BA93046374ECDE90B440CF088FC32
:100FF0005323C5E900636323EB6028468023AB617C
:10100000AC602C61CDE90F44CDE91144CDE9134426
:1010100015940BF0ADFF28460CF076F822466023BD
:101020000FA928460F93CDE9104413940CF06AF9E8
:1010300021237363214628460CF0F4F8284600F07B
:10104000C7FC00F037FE00F033FEFFF7C7FC00F0EE
:1010500057F900F089F91C491C480C22FFF7F8FBEE
:101060000CF060FD1A4A394648460CF095FE194BC3
:10107000194A1860214619480CF080FD184B194A8E
:101080001860214618480CF079FD184B184A05469F
:10109000214618481D600CF071FD174B18600CF0CC
:1010A00053FDFEE7CC010020180000206C03002057
:1010B000440400200000014000040040FC03002024
:1010C000B4030020002000409801002000001E080A
:1010D000E0CB0208D00100201CCC020871090008F6
:1010E000D8010020BCCB0208C51C0008C8010020A4
:1010F000F8CB02087D090008D4010020704700BF2A
:10110000704700BF10B5094C86B02468029414469D
:1011100001238DF817400DF117040A46019301468B
:101120000094034809F01EFB06B010BD0400002027
:10113000E401002000B50B4B87B01B680293844686
:101140000A4601230DF117010020CDE900138DF8A7
:1011500017006146044809F0F7FB9DF8170007B037
:101160005DF804FB04000020E401002010B5094CE8
:1011700084B0844620680290CDE9002306480A46E0
:101180000123614609F0E0FB003818BF012004B0DC
:1011900010BD00BF04000020E401002008F0DEBB09
:1011A00008B506480022042108F0AEFFBDE808405B
:1011B00002480122042108F0A7BF00BF0008024036
:1011C00030B5104D83B0044601220F484FF4005152
:1011D00008F09AFF28460022042108F095FF0B4BE7
:1011E0000B481B68ADF806400DF1060101220BF01B
:1011F00031FB01220421284603B0BDE8304008F04D
:1012000083BF00BF00080240000C0240080000201D
:101210001403002030B5104D83B0044600220F485F
:101220004FF4005108F070FF28460022042108F016
:101230006BFF0B4B0B481B68ADF806400DF1060128
:1012400001220BF007FB01220421284603B0BDE870
:10125000304008F059BF00BF00080240000C0240B7
:1012600008000020140300202DE9F043194E1A4F06
:10127000DFF86890DFF8688083B00C4605460022EE
:101280003046042108F040FF384600224FF4005158
:1012900008F03AFFD9F80030ADF8045001A9012256
:1012A00040460BF0D7FAD9F80030224601A9404653
:1012B0000BF078FD384601224FF40051019C08F0F4
:1012C00023FF30460122042108F01EFF204603B010
:1012D000BDE8F08300080240000C02400800002036
:1012E0001403002008F03ABB034B02689A4200D076
:1012F000704708F021BB00BF00100040704700BFDE
:1013000010B483B0154B1649002400941A6B42F0B8
:1013100020021A631A6B02F020020092009A0868F9
:10132000104A40F440500860086840F440300860BB
:101330000194196B41F0040119631B6B03F0040362
:101340000193019B136843F0C0031360136843F0DB
:101350000C03136003B05DF8044B70470038024083
:10136000001402400008024010B483B00E4A00206E
:101370000190116C41F001011164126C4FF0804337
:1013800002F00102019243F244310922019C996268
:10139000DA625A68054942F020025A6081F81C035B
:1013A00003B05DF8044B70470038024000E100E0F4
:1013B00010B483B0364A374B374C00210091506C43
:1013C00040F480605064506C00F48060009000989D
:1013D000D86A40F44010D862586B40F0040058635B
:1013E000586B40F4D0705863586B40F4C050586349
:1013F000586B40F4B0205863586840F480705860CF
:10140000986840F080509860986840F0C06098609C
:10141000986840F4807098600191106B40F48000EF
:101420001063126B02F48002019203F5A133019A5A
:1014300084F839139A6A22F001029A629A6AD207F2
:10144000FCD49A681548164942F400629A609A6A78
:1014500042F080629A629A6A42F480329A629A6A90
:1014600042F480429A629A6A42F480529A629A6A7C
:1014700042F480629A629A6A4FF4807442F01002D9
:101480009A62DC621863596303B05DF8044B7047DD
:10149000003802400022014000E100E04C220140FF
:1014A0008C0400201B4B1A68110500D470471A4A9F
:1014B0004FF00071C2F88410BFF34F8FBFF36F8FEE
:1014C000C2F884119A6A22F001029A629A6AD207DB
:1014D000FCD499684FF0804241F400619960136830
:1014E0000E4923F00103136088680D4B20F00100C2
:1014F0008860886820F480708860596A41F480713F
:101500005962596A21F480715962136823F001030A
:10151000136070470064024000E100E000220140D7
:101520000038024010B54FF4806200210F482AF0C5
:1015300084FCFFF73DFF0E4A0E49936A0E484FF0B8
:10154000007443F001039362C1F884414C608368E6
:101550004FF0804143F0010383600B6843F00103C7
:101560000B60936ADB07FCD4004810BD8C0400209C
:101570000064024000E100E00022014004207047C6
:10158000402070474FF42070704700BF82B00E4B70
:1015900000220092596C41F480415964586C00F467
:1015A0008040009000980192186C40F080501864C0
:1015B0001B6C03F080530193019B0F216FF001001E
:1015C00002B008F0EFB900BF003802400B4B0268D0
:1015D0009A4200D0704782B000220192D3F830289E
:1015E00042F48052C3F8302803F500631B6B03F408
:1015F00080530193019B02B0704700BF003002404E
:101600002DE970432E4B02688AB000249A42CDE93E
:101610000444CDE90644089402D00AB0BDE87083C2
:10162000284D01942B6B284843F004032B632B6B4C
:1016300003F004030193019B02942B6B43F001031D
:101640002B632B6B03F0010302934FF400724FF0F6
:1016500001084FF00309042604A91223CDE904234D
:10166000CDE90689029B089608F00AFC04A94FF40C
:101670008072122315480896CDE90423CDE9068926
:1016800008F0FEFB03942B6C43F400032B642B6CDB
:1016900003F400032246052103934820039B08F02E
:1016A00081F9482008F0BCF92B6A43F400032B624F
:1016B0002B6A23F400032B620AB0BDE8708300BFDD
:1016C000005C004000380240000802400000024078
:1016D0002DE9F04104469AB0002130220EA8CDE950
:1016E0000811CDE90A110C912AF0A7FB674B22687B
:1016F0009A4202D01AB0BDE8F081C023082104222A
:1017000012930EA84FF400330E91149217930AF01F
:1017100021FE002840F0B7805D4B5E480024019414
:101720005A6C42F080625A645A6C02F080620192F4
:10173000019A02941A6B42F020021A631A6B02F0AB
:1017400020020292029A03941A6B42F001021A6379
:101750001A6B02F001020392039A04941A6B42F08E
:1017600002021A631A6B02F002020492049A0594B0
:101770001A6B42F040021A631A6B02F040020592A3
:10178000059A06941A6B42F004021A631A6B02F06F
:1017900004020692069A07941A6B42F008021A6332
:1017A0001B6B03F00803002602270E25079308A9E8
:1017B0004FF480620223CDE90823CDE90A67079B35
:1017C0000C9508F05DFB08A941F658020223324847
:1017D0000C95CDE908234FF00908CDE90A6708F018
:1017E0004FFB08A9032202232C48CDF83080CDE915
:1017F0000823CDE90A6708F043FB08A94FF470629B
:10180000022326480C95CDE90823CDE90A6708F0A4
:1018100037FB08A94FF40C62022321480C95CDE94F
:101820000823CDE90A6708F02BFB08A9C022022390
:101830001C480C95CDE90823CDE90A6708F020FB88
:1018400008A90822022318480C95CDE90823CDE900
:101850000A6708F015FB022308A94FF4A0521048AC
:10186000CDF83080CDE90823CDE90A6708F008FB00
:1018700022460521582008F095F8582008F0D0F8A5
:101880001AB0BDE8F081FFF739FD45E70068014077
:1018900000380240001402400000024000040240F0
:1018A0000018024000080240000C02400000000046
:1018B00010B51B4A016888B000239142CDE902337C
:1018C000CDE90433069301D008B010BD02F568429B
:1018D0000093506C40F480105064506C00F4801001
:1018E000009000980193136B0E4843F0200313639C
:1018F000136B9FED097B03F0200301930322052363
:1019000002A98DED027BCDE90523019C08F0B8FA10
:1019100008B010BDAFF3008080030000020000009B
:101920000050014000140240244A0368934284B0EE
:1019300019D0B3F1804F07D0214A934221D0214AD8
:1019400093422CD004B0704703F50E33002201926D
:101950001A6C42F001021A641B6C03F0010301933C
:10196000019B04B07047184B002200925A6C42F061
:1019700001025A645B6C03F001030093009B04B006
:101980007047114B002202921A6C42F002021A6454
:101990001B6C03F002030293029B04B070470A4BD6
:1019A000002203921A6C42F480721A641B6C03F4D6
:1019B00080730393039B04B0704700BF0000014095
:1019C00000040040002000400038024000000000F9
:1019D00000B5154A016889B000239142CDE9023370
:1019E000CDE90433069302D009B05DF804FB02F59B
:1019F00006320193136B0D4843F001031363136B1D
:101A00009FED077B03F00103019302A909238DEDEC
:101A1000027B019A069308F033FA09B05DF804FBE3
:101A20008000000002000000002000400000024092
:101A3000F0B52B4B89B01C6800220492002C4CD1CD
:101A40000127284A01941F60936B27483B43936307
:101A5000936B3B4003260C254FF63F02019302A9EE
:101A60000223CDE90223CDE90565019B08F008FAC0
:101A70001E48029702A90227CDE90374CDE9056546
:101A800008F0FEF948F233131948029302A9CDE990
:101A90000374CDE9056508F0F3F94FF68373154833
:101AA000029302A9CDE90374CDE9056508F0E8F9D0
:101AB0004CF203731048029302A9CDE90374CDE9F7
:101AC000056508F0DDF960230C48039702A9CDE90C
:101AD00004460695029308F0D3F909B0F0BD00BFA3
:101AE0008C08002000380240001402400008024028
:101AF0000018024000100240000C024000040240A6
:101B000070B588B0234B002202921A6C42F010028A
:101B10001A641B6C03F010030293054601A903A885
:101B2000029B0AF0F5FB069BD3B90AF0E1FB0346E2
:101B3000194A1A4C1A49A2FB03239B0C013B0022B1
:101B4000C4E90013204640F2E7332261A260A2619B
:101B5000E3600BF00DFA064630B1304608B070BDB8
:101B60000AF0C6FB4300E3E720460BF08FFA064677
:101B70000028F2D1362007F053FF0F2D01D901269E
:101B8000EBE732462946362007F00CFF054B1D6077
:101B9000E3E700BF0038024083DE1B4390080020CB
:101BA0000010004080000020704700BFFEE700BF2B
:101BB000FEE700BFFEE700BFFEE700BF704700BFC3
:101BC00008B5C82007F0CAFE04480022202108F00A
:101BD0009BFABDE80840082008F0A6BA00100240B1
:101BE00001480BF0E3BD00BF90080020014809F058
:101BF000FBB900BFE4010020014809F06FBF00BF3E
:101C0000380200200120704708B52AF00FFA162389
:101C100003604FF0FF3008BD08B52AF007FA16231D
:101C20000360FEE770B5161E07DD0C468D19AFF395
:101C3000008004F8010BA542F9D1304670BD00BF09
:101C400070B5161E07DD0C468D1914F8010BAFF3A5
:101C50000080AC42F9D1304670BD00BF4FF0FF307C
:101C6000704700BF4FF400534B600020704700BF27
:101C700001207047002070470B4A08B503461068E2
:101C800028B1034469468B4207D8136008BD074852
:101C90001060034469468B42F7D92AF0C7F90C2338
:101CA00003604FF0FF3008BDD808002070440120C9
:101CB000704700BF08B500F0ABFBBDE8084000F07E
:101CC00033BB00BF00F0A6BB704710B5042104462B
:101CD00029F09BF8204610BD38B50C4B0C4C1880F1
:101CE0000C4B822019806368984740F61103984294
:101CF0000AD1094D23682C60822098472B688220E6
:101D0000DB689847002038BD0120FCE7DC08002094
:101D100050000020DE080020E00800204FF4A071F1
:101D2000F020FFF7D9BF0000F7B5334D2B6804460C
:101D30001B698220984780B2208000284AD02B68F7
:101D40000DF106025B6901A982209847BDF80630B3
:101D500040F6746293423FD9ADF80620BDF80630D4
:101D6000D21A92B20A2A3DD90B23B2FBF3F2234BCB
:101D70001B889A4201D9013B9AB2BDF8043040F663
:101D8000B8318B4230D8C3F571630E339BB20F214B
:101D9000B3FBF1F31A4909888B4201D901398BB29F
:101DA000184E194D30682F68834281B28CBF591A82
:101DB000C91AB8B2BA428CBF101A801A89B280B25E
:101DC00001440529C8BF33603368C8BF2A606380F7
:101DD0002B68A38003B0F0BDB32B9CBFB423ADF838
:101DE0000630BBE70022C8E7C3F56D6308339BB23A
:101DF0000E2BCCD80023D3E7E0080020DE0800201B
:101E0000DC080020E4080020E808002037B5684618
:101E10000D461446FFF788FFBDF8000048B1BDF835
:101E200002302B60BDF804302360034B3C221A6063
:101E3000012003B030BD00BF0C00002010B102280B
:101E400009D07047074B1A68B2FA82F2520904218E
:101E5000054808F059B9034B9A68B2FA82F2520960
:101E60001021F5E7EC0800200010024010B1022814
:101E700009D07047074B1A68003A18BF01220421A5
:101E8000054808F041B9034B9A68003A18BF01228F
:101E90001021F5E7EC0800200010024010B10228E4
:101EA00004D070470421024808F032B91021FAE743
:101EB0000010024008B530B1022809D00020431EAE
:101EC0005842584108BD0421024808F017F9F6E7C6
:101ED0001021F9E70010024070B5084D00240126DA
:101EE000E0B2FFF7E7FF18B12B68012B18BF2E6097
:101EF0000134052C05F10405F2D170BDEC08002079
:101F0000012380F8781080F87930704700207047FE
:101F1000034B4164003918BF01211970704700BF9D
:101F20003338012000207047836B0BB108461847F7
:101F300070474FF6FF707047406803689B69184709
:101F4000704770477047000010B5044600F04EFB24
:101F500023680349D3F88C302046BDE81040184769
:101F6000000000D008B503680446D3F880309847D5
:101F7000236820469B6F984700F0ECF823682046C2
:101F80001B6F98472920FFF745F900F0E3F8236815
:101F900020461B6F9847F8E710B5044610F046FA44
:101FA00023682046D3F8AC30BDE81040184700F055
:101FB0000FBB00F013BB00F037BB00F0DFBA00F03E
:101FC000E5BA00F03DBB00F0E9BA0FF09ABC10B5DD
:101FD0007C21044628F019FF204610BD90F87A3085
:101FE0001BB1406803681B6818471846704700001B
:101FF00010B590F8341090F878400C4B8C421A7859
:1020000009D03AB90A4A0B491488088810800C8014
:1020100001221A7010BD002AFCD0054A0549148817
:10202000088810800C800022F3E700BF2C380120C4
:10203000283801202A38012070B50D46194635B9D7
:10204000094B0A4A0A4840F2D22129F0F1FCC0E9C2
:102050000F52084B003A18BF01221A700368BDE8FE
:102060007040D3F88C30184758CC020890CC020846
:10207000DECC02083238012008B5094B1B888B42A0
:1020800003D8084B1B88934205D9074B074A0848D9
:102090009E2129F0CDFC074B1980074B1A8008BD03
:1020A000283801202A38012023CD020886CD0208D5
:1020B000DECC02082E38012030380120012108B57D
:1020C000002208460BF0B4FD0A4B186028B90A4BF1
:1020D0000A4A28210A4829F0ABFC002204210120E9
:1020E0000BF05AFE074B186018B9074B034A2C2116
:1020F000F0E708BD00090020A4CE0208EDCE0208DA
:102100001CCF0208FC08002096CF0208024B4FF0BB
:10211000FF3118680BF0E0BD00090020014B186882
:102120000BF00EBE00090020024B002118680BF0D6
:10213000D3BD00BF00090020FFF7F0BF03480449EA
:10214000006800231A460BF061BE00BFFC080020A7
:102150001000002013B5084C00231A4601A920687E
:102160000BF08AFE20684FF0FF33002201A90BF02C
:1021700083FE02B010BD00BFFC08002070470020A5
:1021800070477047704700207047704708B5034A92
:10219000034B0448222129F04BFC00BFFBCF02086F
:1021A000D8CF020839D0020808B5034A034B0448C7
:1021B000272129F03DFC00BFB1D00208D8CF02088A
:1021C00039D0020810B54421044628F01EFE2046EE
:1021D00010BD000038B5044621460025064B257287
:1021E0000C3060606572012241F8203B10F076FAF5
:1021F000E562204638BD00BFF8D0020801207047D4
:1022000038207047382303FB01000830704738231B
:1022100003FB0100083070470120704741F604506D
:10222000704741F6045303FB01000830704741F644
:10223000045303FB01000830704701207047102051
:10224000704700EB01100830704700EB01100830B8
:102250007047084602F08CBB10B5034B0360044680
:102260000EF065FA204610BDB0D1020810B5044644
:10227000FFF7F2FF2046402128F0C7FD204610BDA1
:1022800010B5034B036004460EF051FA204610BD12
:102290007CD1020810B50446FFF7F2FF204641F654
:1022A0000C5128F0B2FD204610BD000010B5034BC4
:1022B000036004460EF03BFA204610BD48D10208E8
:1022C00010B50446FFF7F2FF2046182128F09DFDC7
:1022D000204610BD10B5094B0360044600F5E950D7
:1022E0001830FFF7B9FF04F12C00FFF7C9FF04F124
:1022F0001400FFF7DBFF204610BD00BFE4D1020849
:1023000008B50248FFF7E6FF08BD00BF0809002036
:1023100010B50446FFF7DEFF204641F6DC6128F0E9
:1023200074FD204610BD00002DE9F34100F05CFA79
:10233000054600F05DFA0024014623462846224661
:10234000009418F0E9F8264B264A274D1A602046DB
:1023500006F014FB254818F047F82B68BFF35B8F95
:10236000DB0736D4284628F052FD90B3204C214B91
:10237000214F236004F5EC5604F1140004F12C08FD
:102380006060C4F80880E76026610EF0D1F91B4B4D
:10239000636140460EF0CCF9194BE36238460EF00B
:1023A000C7F904F58053174AC3F8382D03F678505F
:1023B00006F05AFF2246A6F10801304606F064FCFA
:1023C000304602F0D5FA104829F050FB284628F094
:1023D0002AFD0E4802B0BDE8F041FFF7B5BD00BFD1
:1023E00098380120A82800200409002014000020AB
:1023F00008090020E4D102084026002048D1020844
:102400007CD10208B0D10208012300082C2800204A
:10241000704700000148FFF7A5BD00BF2C28002031
:1024200070B5224E224C234D234B23603046FFF7DC
:10243000D1FE28461CF03CFB204B2148DC600022EA
:102440004FF48071C3E912121E491A86C3E91A12A9
:102450001D4999671D4983F858200B60F0210180C0
:102460001B485A6601801B4883F870204FF4A07106
:10247000C3E90422C3E90622C3E90822C3E90A2208
:10248000C3E90E22C3E91022C3E91422C3E91722CB
:102490005A67C3E9016501800F4801800F490A703E
:1024A000012283F834200E4A1A6070BDE82700200C
:1024B000E4270020AC28002048CC02082C2800206B
:1024C00028380120010000010000010134380120FA
:1024D0002E3801202A380120303801202C380120E4
:1024E000D4CD02080020704781807047C1807047BA
:1024F000018170474181704770477047704770474E
:10250000704710B4C4880368121B84885B6D091B74
:1025100012B25DF8044B09B218474FF6FF7383817E
:102520004FF0FF3303621368C3611060704790F887
:1025300025201AB190F8242002B1186070470020BD
:1025400070478B88838001207047704780F8261081
:10255000704790F82600704710B50022B1F9084086
:10256000B1F90A10028042808480C18010BD00222F
:10257000028042808280C28070470000024B90221D
:1025800083F85823704700BF00E100E0024B4FF092
:1025900080729A60704700BF00E100E0094A0A4972
:1025A000D3680A48C3F30A03013B9BB20B8011694D
:1025B000C1F30A01013901801364536B43F0010335
:1025C0005363704700680140322900203029002001
:1025D000014BD3F8AC00704700680140024B012268
:1025E000C3F8AC105A6270470068014070B50446E9
:1025F0000FF0DDF923685D6E14F052FB01462046B2
:10260000A8472368054AD3F888502046AC460023E3
:10261000BDE87040A2F51631604700BF00B004D09D
:102620000FF0ACB90FF0B6B90FF071B90FF0D3BA23
:1026300090F8252012B103685B69184770470000C5
:10264000044B4FF08072C3F88820BFF34F8FBFF365
:102650006F8F704700E100E070B50023124E838059
:10266000124B0360336893F8582005460AB1D86CC2
:1026700000B998680368DB6A98473368B0FA80F459
:10268000D86C640930B10368DB6A9847002808BF3A
:1026900044F001042CB9064B064A07482C2129F0C6
:1026A000C7F9284670BD00BF34380120F4D20208B3
:1026B000F0D102084ED2020887D20208704700000B
:1026C0002DE9F041FF2BBDF8184000EB410105D189
:1026D00020F8024B8142FBD8BDE8F081174F04F48B
:1026E000FC6604EA070C04F01F0403FB0CFC5E43C9
:1026F0005C43DB43DBB2FF25B0F800E00EEA0702E3
:102700000EF4FC6803FB02C203FB08680EF01F0E08
:10271000B2FBF5F2B8FBF5F83A4008F4FC6842EA7F
:10272000080203FB0E4EBEFBF5FE0EF01F0E42EA42
:102730000E0220F8022B8142DED8CDE700F8FFFF21
:1027400010B5144C236823B3134B144A1B6C118827
:102750008B4213D1124B198809F0F2FA226892F8D1
:102760006A30013382F86A30FFF7E8FC20680FF026
:102770005DFEBDE810400020FFF760BB09F0E0FA05
:10278000206803681B6A9847BDE810400020FFF7E7
:102790006DBB10BD34380120006801403229002093
:1027A00030290020704710B50421044628F02DFB85
:1027B000204610BD08B5032913D8DFE801F0020652
:1027C0000A0E06F027F9006808BD06F023F94068F4
:1027D000FAE706F01FF98068F6E706F01BF9C06813
:1027E000F2E70020F0E700000048704720D302081D
:1027F0000C20704713B5002451B1036801948DF883
:10280000034001AA9C680DF10303A04702B010BD6C
:102810000846FBE7C0897047008A7047C088704748
:1028200080887047807A00F07F007047807AC00906
:102830007047806A704770477047704770477047AD
:10284000704730B50368018185B06D460146D3F805
:10285000843004462846984795E807003C3484E8CD
:10286000070005B030BD30B50368418185B06D46C5
:102870000146D3F8843004462846984795E8070077
:102880003C3484E8070005B030BD0022028042805D
:102890008280C280704780F83610704770B5036838
:1028A00004461B6B154698472368294620465B6EF5
:1028B000BDE87040184700207047806C7047704733
:1028C0000368DB6A184703681B6B1847704770473B
:1028D000704730B4C26844685510034604EB620088
:1028E000D20748BF62599B6830BC48BFD3581847CD
:1028F00043682BB183682BB9C06800F001007047B2
:10290000184670470120704710B50821044628F08A
:102910007CFA204610BD10B54C21044628F075FA0B
:10292000204610BD10B51021044628F06EFA20464E
:1029300010BD10B58C21044628F067FA204610BD62
:1029400038B50546054B45F8E03B044612F0A6FCB9
:1029500028460EF05BFB204638BD00BF08D70208B2
:1029600010B50446FFF7ECFF204641F6045128F06D
:102970004CFA204610BD08B5FFF75AFE08BD00000E
:10298000036870B55E6B124B1B6804468DB22BB9A1
:10299000104B114A6C21114829F04AF81049828DD8
:1029A0000988914203D80F4B0B4A6D21F3E713F8C6
:1029B00012200D4B1B6853F8220003681B6B9847CD
:1029C000281A01B233462046BDE87040184700BFC0
:1029D0008C38012010D4020852D402088DD4020889
:1029E00090380120D4D402089438012070B50368CF
:1029F00004461B6B154698472368294620465B6BA7
:102A0000BDE87040184770B504461D46BDF910601A
:102A1000FFF7ECFF2368294620469B6B9847236805
:102A200031462046DB6BBDE8704018474FF480719B
:102A30000022818405490160C0E90122C0E9032226
:102A4000C0E90522C0E90722826270472CF602081D
:102A50000022C0E90122C0E90322C0E90522C0E941
:102A600007224FF480728284014A0260704700BFDF
:102A700058D502081A4B73B51B88018F8B42064646
:102A80002BD9184B1B682BB9174B184A18486C21C7
:102A900028F0CEFF13F81120164B1B6853F8225074
:102AA000154B186805F0A6FF2B6801909B6B284614
:102AB00098472B6801999B6C0446284698472B68D9
:102AC00001995B6A14FB00F428469847A4B22318C6
:102AD0001BB2A6F8463002B070BD0023F9E700BF74
:102AE000903801208C38012010D4020852D40208FA
:102AF0008DD40208943801209838012000224FF02C
:102B0000FF31C0E900218260704710B50446FFF72D
:102B1000F5FF204610BD000010B500210446262216
:102B200029F08BF92046FFF793FF094B2360094BEF
:102B3000A3624FF6FF73A3854FF47F020023C4E91D
:102B40000C32238704F13C00FFF7D8FF204610BD6C
:102B500084FA0208C0D5020810B50446FFF7DCFF6E
:102B6000024B23600023A364204610BD60D60208F8
:102B700010B504460B460D4944F8041B0246D3E940
:102B8000010184E80300D3E9030102F10C0484E8A5
:102B90000300D3E906015C69D161196A9B8C11625B
:102BA000C2E905409384104610BD00BFA4FE020890
:102BB00038B50D460446FFF7DBFFAB6AA3622B4B2B
:102BC0002360EB6AE3622B6B23636B6B636305F13A
:102BD000380104F13800FFF7CBFF2B6E2366244B3E
:102BE000A36395F8643084F86430B5F86630A4F8CF
:102BF000663005F1680104F16800FFF7B9FFD5F808
:102C00009030C4F890301B4BA36605F1940104F199
:102C10009400FFF7ADFFB5F8BA30A4F8BA3095F8D4
:102C2000BC3084F8BC30144BC4F89430B5F8BE30D6
:102C3000A4F8BE30B5F8C030A4F8C03005F1C40126
:102C400004F1C400FFF794FF0C4BC4F8C430B5F88E
:102C5000EA30A4F8EA3095F8EC3084F8EC30B5F8B6
:102C6000F030A4F8F030204638BD00BFBCF60208B2
:102C700080F70208D0D502087CFB020860FD02083C
:102C8000F0B500F198039942C1B004460D4603D156
:102C900014F006F801F07CFE04F51E739D4228D165
:102CA00004F1E007394603A8FFF782FFFEF73AFC7C
:102CB000322201460120FDF7D7FDFCEEE07AD8482C
:102CC0008DED010A17EE906A17EE901A0C23002280
:102CD000CDED020AFDF7CAFED24A33460A2104F6B8
:102CE0001C6017F08BF9384615F0C2F803A80EF0F7
:102CF0008DF904F50F739D4228D104F1E0073946A0
:102D000003A8FFF755FFFEF70DFC32220146012014
:102D1000FDF7AAFDFCEEE07AC1488DED010A17EE41
:102D2000906A17EE901A0C230122CDED020AFDF7EE
:102D30009DFEBC4A33460A2104F6086017F05EF98E
:102D4000384615F095F803A80EF060F904F5007305
:102D50009D4228D104F1E007394603A8FFF728FF78
:102D6000FEF7E0FB322201460120FDF77DFDFCEE7F
:102D7000E07AAB488DED010A17EE906A17EE901AD3
:102D80000C230222CDED020AFDF770FEA54A334660
:102D90000A2104F6F45017F031F9384615F068F8B6
:102DA00003A80EF033F904F5A1639D4228D104F184
:102DB000E007394603A8FFF7FBFEFEF7B3FB32221C
:102DC00001460120FDF750FDFCEEE07A94488DEDC0
:102DD000010A17EE906A17EE901A0C230322CDED2C
:102DE000020AFDF743FE8F4A33460A2104F6586073
:102DF00017F004F9384615F03BF803A80EF006F971
:102E000004F2CC439D4228D104F1E007394603A8DF
:102E1000FFF7CEFEFEF786FB322201460120FDF7CA
:102E200023FDFCEEE07A7E488DED010A17EE906AF4
:102E300017EE901A0C230422CDED020AFDF716FEC0
:102E4000784A33460A2104F6446017F0D7F838462A
:102E500015F00EF803A80EF0D9F804F592639D4220
:102E600028D104F1E007394603A8FFF7A1FEFEF7D9
:102E700059FB322201460120FDF7F6FCFCEEE07A18
:102E800067488DED010A17EE906A17EE901A0C2331
:102E90000522CDED020AFDF7E9FD624A33460A211B
:102EA00004F5636017F0AAF8384614F0E1FF03A8B0
:102EB0000EF0ACF804F5F3639D4228D104F1E0076D
:102EC000394603A8FFF774FEFEF72CFB32220146B9
:102ED0000120FDF7C9FCFCEEE07A51488DED010AB6
:102EE00017EE906A17EE901A0C230622CDED020A17
:102EF000FDF7BCFD4B4A33460A2104F6946017F0F7
:102F00007DF8384614F0B4FF03A80EF07FF804F201
:102F10005C739D4228D104F1E007394603A8FFF70E
:102F200047FEFEF7FFFA322201460120FDF79CFC26
:102F3000FCEEE07A3A488DED010A17EE906A17EE42
:102F4000901A0C230722CDED020AFDF78FFD354ABA
:102F500033460A2104F5686017F050F8384614F03B
:102F600087FF03A80EF052F804F5E4639D4228D1D0
:102F700004F1E007394603A8FFF71AFEFEF7D2FA7C
:102F8000322201460120FDF76FFCFCEEE07A244876
:102F90008DED010A17EE906A17EE901A0C230822A5
:102FA000CDED020AFDF762FD1E4A33460A2104F602
:102FB0006C6017F023F8384614F05AFF03A80EF09F
:102FC00025F804F628239D422ED104F1E007394666
:102FD00003A8FFF7EDFDFEF7A5FA32220146012016
:102FE000FDF742FCFCEEE07A0D488DED010A17EE8C
:102FF000906A17EE901A0C230922CDED020AFDF714
:1030000035FD084A33460A2104F56D6016F0F6FFD7
:10301000384614F02DFF03A80DF0F8FF04E000BFC0
:1030200000001E0812D5020804F6EC139D4228D1B8
:1030300004F1E007394603A8FFF7BAFDFEF772FA7C
:10304000322201460120FDF70FFCFCEEE07A244815
:103050008DED010A17EE906A17EE901A0C230A22E2
:10306000CDED020AFDF702FD1E4A33460A2104F6A1
:10307000BC6016F0C3FF384614F0FAFE03A80DF04A
:10308000C5FF04F51B639D4228D104F1E0063146DB
:1030900003A8FFF78DFDFEF745FA32220146012015
:1030A000FDF7E2FBFCEEE07A0D488DED010A17EE2C
:1030B000905A17EE901A0C230B22CDED020AFDF761
:1030C000D5FC084A2B460A2104F6A86016F096FFA4
:1030D000304614F0CDFE03A80DF098FF41B0F0BDCE
:1030E00000001E0812D50208520149010FF0E2BE8D
:1030F000520149010FF0E9BE10B4C46BB4EB411F9B
:103100004FEA411204D05DF8044BC2630FF0DCBDFE
:103110005DF8044B704700002DE9F04F2DED108B4A
:103120000446ADB0A146002515F03AFAE54BE5633B
:1031300049F8403B26222946484628F07EFE48466C
:10314000FFF786FC04F16C08FF26DF4B2364262280
:103150004FF6FF73294684F866604046A566ADF8D1
:10316000A43028F06AFE4046FFF772FCD74BE366B6
:1031700084F89460BDF8A430A4F8923029AE3146AA
:1031800004F1980B404611F08CF8584611F0C0F944
:1031900004F1E003184608EE103A0EF065F804F565
:1031A000EA73184608EE903AFFF740FC04F5007306
:1031B0001846119311F04EF804F50F7304F51E77BD
:1031C0001846129311F046F8384611F043F804F50A
:1031D0002D7318460DEE903AFFF7BEFC04F54073D0
:1031E00018460EEE103AFFF7B7FC04F55373184675
:1031F0000EEE903AFFF7B0FC04F5667318460AEE3F
:10320000903A0FF041FD04F5816318461C93FFF7D7
:1032100023FAAF4BC4F8083403F1240204F21C4132
:10322000C4F810240846C4F8145404F2644A079100
:10323000FFF772FC5046FFF7F9FB04F59261084670
:10324000139111F007F804F2CC410846149111F0E3
:1032500001F804F5A1610846159110F0FBFF04F296
:10326000445108460891FFF777FC04F5B26108461F
:103270000991FFF771FC04F2DC5108460A91FFF74F
:103280006BFC04F5C56108460BEE101A0FF0FCFC50
:1032900004F5D36108461D91FFF7DEF98C4BC4F8A5
:1032A000983603F1240204F2AC61C4F8A026084663
:1032B000C4F8A4560FEE101AFFF72EFC04F2F461C6
:1032C000084609EE101AFFF7B1FB04F5E461084661
:1032D000169110F0BFFF04F25C710846179110F0D0
:1032E000B9FF04F5F3610846189110F0B3FF04F23A
:1032F000D47108460B91FFF72FFC04F502610846D4
:103300000C91FFF729FC04F66C0108460D91FFF7BC
:1033100023FC04F6B80108460BEE901A0FF0B4FC3B
:1033200004F6281108461E91FFF796F9684BC4F879
:10333000283903F1240204F63C11C4F83029084668
:10334000C4F834590FEE901AFFF7E6FB04F6841127
:10335000084609EE901AFFF769FB04F51B61084661
:10336000199110F077FF04F6EC1108461A9110F04D
:1033700071FF04F6282108461B9110F06BFF04F63C
:10338000642108460E91FFF7E7FB04F52B61084620
:103390000F91FFF7E1FB04F6FC2108461091FFF7BF
:1033A000DBFB04F6483108460CEE101A0FF06CFCFB
:1033B00004F6B83108461F91FFF74EF9444BC4F8A4
:1033C000B83B03F1240204F6CC31C4F8C02B084604
:1033D000C4F8C45B0391FFF79FFB04F61441084651
:1033E0000CEE901A0FF050FC04F684410846209130
:1033F000FFF732F9364BC4F8843C03F1240204F69B
:103400009841C4F88C2C0846C4F8905C0491FFF7EE
:1034100083FB04F54E6108460DEE101A0FF034FCE4
:1034200004F5556108462191FFF716F9284BC4F8B9
:10343000503D03F1240204F66453C4F8582D184695
:10344000C4F85C5D0593FFF767FB04F6AC531846C0
:103450000693FFF761FB04F580531E4AC3F8F42C72
:103460001D4AC3F8FC2CC3F8F84CC3F8005D4FF4B8
:10347000616104F6E46011F007FF4FF4A0732A467F
:10348000484600932946F023FFF7BDFA4FF07F43EB
:10349000A366231D184649460AEE103A0DF028FB94
:1034A0002A4640462946FFF7A1FA4FF00803404656
:1034B0003146ADF8A43010F0F4FE41461AEE100A81
:1034C0000CE000BF08D7020814FB020860FD0208E8
:1034D00048F80208F0D60208812C00080DF008FB1D
:1034E000584640F201122121FFF780FA03233246A9
:1034F00028A95846ADF8A0300223ADF8A43010F04A
:10350000DAFC1F235846A4F8D030FFF7B3FA4FF087
:10351000FF33C4E9353304F5E7531433C4F8C0303E
:1035200059461AEE100A02930DF0E2FA18EE100A4C
:1035300055222946FFF75AFA062318EE100AADF86D
:10354000A0303246072328A9ADF8A4300DF02AFF99
:103550008C2218EE100A50210DF0D2FD18EE100A40
:1035600032210DF050FD18EE100A32210DF0C6FD8B
:10357000474B1198C4F8DC316122C221FFF736FABB
:103580004FF009084FF0010B27AA1198009628ABBD
:1035900026A9ADF89850ADF89CB0ADF8A080ADF874
:1035A000A48010F0C2FD029BC4F828321199C4F81F
:1035B000385218EE900A0DF09BFA12983D22C22163
:1035C000FFF714FA27AA1298009628AB26A9ADF89F
:1035D0009850ADF89CB0ADF8A080ADF8A48010F084
:1035E000A4FD029BC4F864321299C4F8745218EE18
:1035F000900A0DF07DFA38461922C221FFF7F6F93C
:1036000027AA384628AB26A90096ADF89850ADF801
:103610009CB0ADF8A080ADF8A48010F086FD029BB0
:10362000C4F8A032394618EE900AC4F8B0520DF032
:103630005FFA68221DEE900A0A21FFF7D7F94FF0D2
:10364000FF33C4F8E432D4F8B432A4F8E85222AF1D
:10365000D3F884301DEE901A3846984797E8070053
:1036600004F53C7383E807000A4B1B6804F6F45921
:103670002BB9094B094A6021094828F0D9F9094BAF
:103680001B88092B12D8084B044A6121F4E700BFBC
:10369000F000AC008C38012010D4020815D50208C7
:1036A0008DD4020890380120D4D40208D84B41466A
:1036B000186805F09FF9D74A03460A21484616F0D4
:1036C0009DFC1DEE900AC4F8FC9210F019F84FF022
:1036D0000A09D14A29921DEE900A3146ADF8A89008
:1036E00010F02EF81DEE901A18EE900A0DF000FA68
:1036F00044221EEE100A1621FFF778F9D4F80033A1
:10370000A4F834534FF0FF31D3F88430C4F83013A9
:1037100038461EEE101A984797E8070004F54F73D5
:1037200083E8070004F608611191BC490B68002B7F
:103730009FD0BB490B880B2BA5D9B54B0B21186823
:1037400005F058F9B34A03464946119816F056FC5D
:103750001198C4F848031EEE100A0FF0D1FF0C2395
:10376000AD4AADF8A8301EEE100A314629920FF08E
:10377000E7FF1EEE101A18EE900A0DF0B9F920229C
:103780001EEE900A1621FFF731F9D4F84C33A4F855
:1037900080534FF0FF30D3F88430C4F87C031EEE22
:1037A000901A3846984797E8070004F5627383E853
:1037B000070004F61C60119098480368002B3FF442
:1037C00058AF97490B880D2B7FF65DAF904B0D21BD
:1037D000186805F00FF98F4A03464946119816F00C
:1037E0000DFC1198C4F894031EEE900A0FF088FFA8
:1037F000894A299214231EEE900A3146ADF8A8306A
:103800000FF09EFF1EEE901A18EE900A0DF070F960
:10381000F0231AEE900A0F222946CDF80090FFF708
:10382000F2F84FF0FF3C1C98C4F814C40522A4F829
:1038300018C41146C4F8C0031AEE900AFFF754FCEE
:1038400005221AEE900AEB21FFF752FC1AEE900ABD
:103850005946FFF751FC1AEE900A59460FF040FB0B
:103860001AEE901A18EE900A0DF042F92A460798BF
:103870006021FFF7BBF84FF0FF3E38460799C4F8C8
:103880004CE4A4F850540FF0C1FC97E8070004F58D
:103890008B6383E807004FF0080E5F4A0798ADF886
:1038A000A8E0314629920FF04BFF079918EE900AD5
:1038B0000DF01EF918EE901A18EE100A0DF0FBFD2F
:1038C000584A1398C4F86C24C2216122FFF78EF87D
:1038D0000DF1A00E73460DF19C0E72460DF1980E7F
:1038E000714613980096ADF89850ADF89CB0ADF8BD
:1038F000A080ADF8A48010F018FC029F1399C4F8C2
:10390000B8745046C4F8C8540DF0F2F814983D222B
:10391000C221FFF76BF80DF1A00E73460DF19C0E5E
:1039200072460DF1980E714614980096ADF89850B5
:10393000ADF89CB0ADF8A080ADF8A48010F0F5FB18
:10394000029F1499C4F8F4745046C4F804550DF05D
:10395000CFF815981922C221FFF748F80DF1A00EF3
:1039600073460DF19C0E72460DF1980E7146159836
:103970000096ADF89850ADF89CB0ADF8A080ADF8C9
:10398000A48010F0D2FB029F1599C4F83075504600
:10399000C4F840550DF0ACF8682249460898FFF786
:1039A00025F84FF0FF3EC4F874E5A4F8785530468A
:1039B000FFF7A4F896E8070004F5B06383E8070072
:1039C0001648036804F56367002B3FF452AE1449B0
:1039D0000B88122B7FF657AE0D4B1221186805F09D
:1039E00009F80C4A03464946384616F007FB089882
:1039F000C4F88C750FF084FE074F0898299713239D
:103A00003146ADF8A8300FF09BFE089950460BE008
:103A1000983801204DD50208C0D502088C38012005
:103A200090380120F000AC000DF062F816210998E2
:103A30004422FEF7DBFF4FF0FF32C4F8C025A4F8A4
:103A4000C4553046FFF75AF896E8070004F2CC5305
:103A500083E80700D948036804F64465002B3FF467
:103A600008AED7490B88102B7FF60DAED54BDFF88B
:103A70004CB31868102104F0BDFFD34A03464946F1
:103A8000284616F0BBFA0998C4F8D85529AD0FF0AE
:103A900037FE11230998ADF8A830294629970FF071
:103AA0004FFE099950460DF023F84FF0FF362022C3
:103AB00016210A98FEF79AFFC4F80C660026A4F8AF
:103AC00010662846FFF71AF895E8070004F5C36367
:103AD00083E80700DBF8003004F65867002B3FF45A
:103AE000C8ADB7490B880F2B7FF6CDADB54B0F2175
:103AF000186804F07FFFB44A03464946384616F07A
:103B00007DFA0A98C4F824760FF0FAFDAF4F0A98B0
:103B100029974FF0140E2946ADF8A8E00FF010FEDB
:103B200050460A990CF0E4FFF0231BEE100ACDF882
:103B300000900F223146FEF766FF4FF0FF32C4F8C7
:103B4000A4261D9AC4F850264FF0FF3C0522A4F885
:103B5000A8C611461BEE100AFFF7C6FA05221BEE97
:103B6000100AEB21FFF7C4FA1BEE100A0121FFF740
:103B7000C3FA1BEE100A01210FF0B2F950461BEEFA
:103B8000101A0CF0B5FF1FEE100A32465C21FEF74A
:103B90002DFF4FF0FF321FEE101AC4F8DC2622A8CA
:103BA000A4F8E0660FF032FB1FEE102A0DF1880C2E
:103BB00002F13C039CE8070083E807000E231FEE98
:103BC000100A2946ADF8A83029970FF0B9FD5046E4
:103BD0001FEE101A0CF08CFF514618EE100A0DF073
:103BE0006AFC7B48C4F8FC0661221698C221FEF7E5
:103BF000FDFE0DF1A00C63460DF19C0C62460DF12B
:103C0000980C0927614616980095C8464FF001099F
:103C1000ADF89860ADF89C90ADF8A070ADF8A470C8
:103C200010F083FA029A1699C4F8482719EE100A80
:103C3000C4F858670CF05CFF17983D22C221FEF7CC
:103C4000D5FE0DF1A00C63460DF19C0C62460DF102
:103C5000980C614617980095ADF89860ADF89C9067
:103C6000ADF8A070ADF8A47010F05FFA029A179941
:103C7000C4F8842719EE100AC4F894670CF038FFD2
:103C800018981922C221FEF7B1FE0DF1A00C63466F
:103C90000DF19C0C62460DF1980C61461898009548
:103CA000ADF89860ADF89C90ADF8A070ADF8A47038
:103CB00010F03BFA029A1899C4F8C02719EE100ABE
:103CC000C4F8D0670CF014FF682241460B98FEF749
:103CD0008DFE4FF0FF3CC4F804C8A4F808682846DD
:103CE000FEF70CFF95E8070004F5016383E8070081
:103CF000DBF8003004F66C6A002B3FF4BAAC3049B4
:103D00000B88072B7FF6BFAC2E4B0721186804F0F9
:103D100071FE2D4A03464146504616F06FF90B9846
:103D2000C4F81CA80FF0ECFC284A0B9829922946ED
:103D3000ADF8A8800FF004FD0B9919EE100A0CF0F5
:103D4000D7FE442216210C98FEF750FE4FF0FF3CA0
:103D5000C4F850C8A4F854682846FEF7CFFE95E88A
:103D6000070004F65C0383E80700DBF8003004F585
:103D7000686A002B3FF47DAC11490B88062B7FF657
:103D800082AC104B0621186804F034FE0E4A03463C
:103D90004146504616F032F90C98C4F868A80FF066
:103DA000AFFC0C23094A0C98ADF8A830294629929B
:103DB0000FF0C6FC0C9919EE100A0BE08C380120AC
:103DC00090380120983801204DD50208C0D502084E
:103DD000F000AC000CF08CFE202216210D98FEF7AE
:103DE00005FE4FF0FF3CC4F89CC8A4F8A068284624
:103DF000FEF784FE95E8070004F6A80383E80700B1
:103E0000DBF8003004F6946A002B3FF432ACD94959
:103E10000B88052B7FF637ACD74B0521186804F0CB
:103E2000E9FDD64A03464146504616F0E7F80D989C
:103E3000C4F8B4A80FF064FC4FF0140ED04A0D98EB
:103E4000ADF8A8E0294629920FF07AFC0D9919EEF9
:103E5000100A0CF04DFE1BEE900AF0230F223146A3
:103E6000CDF80080FEF7CFFD4FF6FF734FF0FF3C1B
:103E70001E98A4F838390522C4F834C91146C4F88C
:103E8000E0081BEE900AFFF72FF905221BEE900ABF
:103E9000EB21FFF72DF91BEE900A4946FFF72CF9AD
:103EA0001BEE900A49460FF01BF81BEE901A19EE14
:103EB000100A0CF01DFE32461FEE900A4921FEF753
:103EC00095FD4FF0FF3CC4F86CC90DF1880C6046BD
:103ED0001FEE901AA4F870690FF098F91FEE900A7F
:103EE0000DF1880C00F13C039CE8070083E8070013
:103EF0000423A34AADF8A83029461FEE900A299260
:103F00000FF01EFC1FEE901A19EE100A0CF0F0FDD7
:103F100019EE101A18EE100A0DF0CDFA9948C4F8EF
:103F20008C0961221998C221FEF760FD28AA26A8F3
:103F30001346014600951998ADF8986027AAADF888
:103F40009C90ADF8A070ADF8A47010F0EEF8029A55
:103F50001999C4F8D82919EE900AC4F8E8690CF048
:103F6000C7FD1A983D22C221FEF740FD28AA26A8C7
:103F70001346014600951A98ADF8986027AAADF847
:103F80009C90ADF8A070ADF8A47010F0CEF8029A35
:103F90001A99C4F8142A19EE900AC4F8246A0CF08D
:103FA000A7FD1B981922C221FEF720FD28AA26A8EA
:103FB0001346014600951B98ADF8986027AAADF806
:103FC0009C90ADF8A070ADF8A47010F0AEF8029A15
:103FD0001B99C4F8502A19EE900AC4F8606A0CF0D4
:103FE00087FD41460E986822FEF700FD4FF0FF3234
:103FF000C4F8942A2846A4F8986AFEF77FFD95E84D
:10400000070004F52A6383E80700DBF8003004F6B4
:10401000A865002B3FF42DAB56490B88032B7FF688
:1040200032AB554BDFF858A11868032104F0E2FCCD
:10403000524A03464146284615F0E0FF0E98C4F860
:10404000AC5A29AD0FF05CFB0E98CDF8A4A0294620
:10405000ADF8A8800FF074FB0E9919EE900A0CF0E1
:1040600047FD4FF0FF37442216210F98FEF7BEFCA4
:10407000C4F8E07AA4F8E46A2846FEF73FFD95E824
:10408000070004F6EC2383E80700DBF8003004F6B1
:10409000BC69002B3FF4EDAA36490B88022B7FF652
:1040A000F2AA354B0221186804F0A4FC334A0346F7
:1040B0004146484615F0A2FF0F98C4F8F89A0FF051
:1040C0001FFB4FF00C020F98ADF8A8202946CDF841
:1040D000A4A00FF035FB0F9919EE900A0CF008FD23
:1040E000202216211098FEF781FCC4F82C7BA4F83E
:1040F000306B2846FEF702FD95E8070004F63833DA
:1041000083E80700DBF8003004F56D69002B3FF40D
:10411000B0AA18490B88012B7FF6B5AA164B0121CE
:10412000186804F067FC154A03464146484615F0F6
:1041300065FF1098C4F8449B0FF0E2FA142310981E
:10414000ADF8A8302946CDF8A4A00FF0F9FA1099DF
:1041500019EE900A0CF0CCFC1CEE100A3146CDF89A
:104160000080F0230F22FEF74EFC1F9BC4F8703B2B
:10417000052209E090380120983801204DD5020829
:10418000C0D50208F000AC001CEE100A1146C4F8BD
:10419000C47BA4F8C87BFEF7A7FF05221CEE100A1B
:1041A000EB21FEF7A5FF1CEE100A0121FEF7A4FF8C
:1041B0001CEE100A01210EF093FE1CEE101A19EEEF
:1041C000900A0DF188090CF093FC324603984921BE
:1041D000FEF70CFC0399C4F8FC7B4846A4F8006C7D
:1041E0000FF014F899E80700039BCDF8A4A03C3326
:1041F00083E807000398ADF8A86029460FF0A0FAFD
:10420000039919EE900A0CF073FC19EE901A18EE4F
:10421000100A0DF050F918EE100A31460DF03CF975
:1042200018EE101A1AEE100A0CF062FC1CEE900A3E
:104230003146CDF80080F0234B22FEF7E4FB4FF629
:10424000FF73A4F8943C0522209BC4F83C3C1CEE70
:10425000900A1146C4F8907CFEF746FF05221CEE3A
:10426000900AEB21FEF744FF1CEE900A0121FEF7B5
:1042700043FF1CEE900A01210EF032FE1CEE901A54
:104280001AEE100A0CF034FC04983C224621FEF78A
:10429000ADFB0499C4F8C87C4846A4F8CC6C0EF079
:1042A000B5FF99E80700049BCDF8A4A03C3383E850
:1042B00007001E230498ADF8A83029460FF040FAF5
:1042C00004991AEE100A0CF013FC1DEE100A314688
:1042D000CDF80080F0233222FEF795FB219BC4F835
:1042E000083D05221DEE100A1146C4F85C7DA4F8B5
:1042F000607DFEF7F9FE05221DEE100AEB21FEF7A8
:10430000F7FE1DEE100A0121FEF7F6FE1DEE100A63
:1043100001210EF0E5FD1DEE101A1AEE100A0CF048
:10432000E7FB059823224521FEF760FB0599C4F8B9
:10433000947D4846A4F8986D0EF068FF99E8070050
:10434000059BCDF8A4A03C3383E807002023059803
:10435000ADF8A83029460FF0F3F905991AEE100AC6
:104360000CF0C6FB06980C223621FEF73FFB06999F
:10437000C4F8DC7D4846A4F8E06D0EF047FF99E8EC
:104380000700069BCDF8A4A03C3383E80700212357
:104390000698ADF8A83029460FF0D2F91AEE100AA7
:1043A00006990CF0A5FB20462DB0BDEC108BBDE8A6
:1043B000F08F00BF7047704700F598730868496830
:1043C00003C37047704770474160704710B50022C3
:1043D000B1F90840B1F90A10028042808480C1809E
:1043E00010BD704770470000064BC0F84C310023E9
:1043F000C0F8503100F5A273C0F84801C0F8403150
:10440000704700BFA547000801230372704770473B
:104410007047704770477047014640680368103125
:104420005B6E184701464068036810311B6E1847E1
:10443000704701464068036810315B6E18470146BB
:104440004068036810311B6E1847704710B4C2688B
:1044500041685410034601EB6200D20748BF0A5975
:104460009B685DF8044B48BFD358184743682BB18D
:1044700083682BB9C06800F0010070471846704788
:104480000120704710B50C21044626F0BEFC2046E2
:1044900010BD10B51021044626F0B7FC204610BD13
:1044A00010B54FF4AE71044626F0AFFC204610BDA7
:1044B00010B53821044626F0A8FC204610BD10B5E2
:1044C0002821044626F0A1FC204610BD10B5382155
:1044D000044626F09AFC204610BD10B512F0E0FB11
:1044E0000368BDE81040DB6B1847000013B50446B5
:1044F000807A637A0130C0B29842A07205D9012354
:1045000023720023A37202B010BDB4F90C20002165
:1045100014F036FA10F0010283B22AD1E081194A70
:10452000B4F90E00E3891288B4F91410A0820020B7
:10453000D21AADF80200606822835B1A124AADF805
:1045400004300368B2F900201B69ADF80010ADF823
:10455000062069469847A37A012BD4D10B4B1B78D0
:10456000002BD0D012F09CFB02B0BDE8104012F03E
:104570009DBB4FF6FF710028D8BF0A461344E38164
:10458000CDE700BF283801202A3801203238012029
:1045900010B50446D0F8400158B10368DB6898476D
:1045A00038B1D4F8400103689B6898470023C4F8E9
:1045B000403110BD2DE9F14FD0E9555A0746A868A2
:1045C00003681B6A9847972805D8464B464AA3219B
:1045D000464827F02DFA686803681B6A98470F2839
:1045E00003D8434B404AA421F2E7E86803681B6AFA
:1045F00098470B2803D83F4B3B4AA521E8E712F028
:104600004FFBDFF8F890043012F0B0FBD9F800004F
:1046100010B10368DB689847D9F8000010B103684F
:104620001B689847DFF8D880D8F8000010B10368FD
:104630005B699847D7F83C0110B103685B689847FD
:10464000D8F8000010B103681B689847D7F83C0100
:1046500010B103689B689847E868036800215B6AAB
:1046600098474FF0000B244B03600446C0F804B099
:1046700080F808B0A868036859465B6A9847064600
:1046800004F0A4FE6868036859465B6A984731469F
:10469000054604F077FEC9F80040C7F83C51C8F859
:1046A0000060E5B12B1DCAF800303368C5F808A0DA
:1046B0003046DB68F56398472B6828461B689847A7
:1046C0002146304614F018F9236820461B699847A4
:1046D00023685B69204601B0BDE8F04F18472B46C0
:1046E000E1E700BF3CD70208CAD70208D8D80208C1
:1046F0001FD90208C2D902087CEA02087C380120CE
:104700007838012037B50446807A637A0130C0B228
:104710009842A07205D9012323720023A37203B02B
:1047200030BDB4F90C20002114F02AF910F0010278
:1047300083B228D1E081184B18481988258BE3896A
:10474000B0F90000ADF80600CA1A60682B445B1A85
:1047500012B2ADF8043003682283ADF800200022C5
:104760001B69ADF8022069469847A37A012BD6D180
:104770000B4B1B78002BD2D012F092FA03B0BDE89D
:10478000304012F093BA4FF6FF710028D8BF0A46A6
:104790001344E381CFE700BF283801202A380120E5
:1047A000323801202DE9F14FD0E9555A0746A86863
:1047B00003681B6A984741F27B13984205D8464B21
:1047C000464AA321464827F033F9686803681B6A04
:1047D00098470F2803D8434B404AA421F2E7E868E2
:1047E00003681B6A98470B2803D83F4B3B4AA52117
:1047F000E8E712F055FADFF8F890043012F0B6FA54
:10480000D9F8000010B10368DB689847D9F80000B8
:1048100010B103681B689847DFF8D880D8F800000B
:1048200010B103685B699847D7F83C0110B1036881
:104830005B689847D8F8000010B103681B68984778
:10484000D7F83C0110B103689B689847E868036893
:1048500000215B6A98474FF0000B244B036004462D
:10486000C0F804B080F808B0A868036859465B6ACD
:104870009847064604F04EFA6868036859465B6A32
:1048800098473146054604F01FFAC9F80040C7F8BA
:104890003C51C8F80060E5B12B1DCAF80030336800
:1048A000C5F808A03046DB68F56398472B682846B2
:1048B0001B6898472146304614F01EF823682046AE
:1048C0001B69984723685B69204601B0BDE8F04F3B
:1048D00018472B46E1E700BF3CD7020865DA02081B
:1048E000D8D802081FD90208C2D902087CEA0208F7
:1048F0007C38012078380120044B1B6893F858203D
:104900000AB1D86C00B99868704700BF34380120EC
:10491000F8B5044617460E4612F0F6FA104B1C6026
:10492000104B2360104B0025C4E951350F4BC4E9EF
:1049300053551868036801219B68C4E94F55C4E9C1
:1049400055769847284604F019F8FFF7D5FF1BF075
:10495000DEFEFFF7D1FF1BF055FF2046F8BD00BF7C
:104960008838012028EA020810EA020834380120B9
:10497000064BC0F84C310023C0F8503100F5A2734B
:10498000C0F84801C0F84031704700BFA547000893
:10499000064BC0F84C310023C0F8503100F5A2732B
:1049A000C0F84801C0F84031704700BF154E0008FC
:1049B000064BC0F84C310023C0F8503100F5A2730B
:1049C000C0F84801C0F84031704700BFB95900082D
:1049D000064BC0F84C310023C0F8503100F5A273EB
:1049E000C0F84801C0F84031704700BFD54C0008FE
:1049F000064BC0F84C310023C0F8503100F5A273CB
:104A0000C0F84801C0F84031704700BF795800082D
:104A1000064BC0F84C310023C0F8503100F5A273AA
:104A2000C0F84801C0F84031704700BF395700084E
:104A3000064BC0F84C310023C0F8503100F5A2738A
:104A4000C0F84801C0F84031704700BFF955000870
:104A5000064BC0F84C310023C0F8503100F5A2736A
:104A6000C0F84801C0F84031704700BFB954000891
:104A7000064BC0F84C310023C0F8503100F5A2734A
:104A8000C0F84801C0F84031704700BF954B00089E
:104A9000064BC0F84C310023C0F8503100F5A2732A
:104AA000C0F84801C0F84031704700BF7953000892
:104AB000064BC0F84C310023C0F8503100F5A2730A
:104AC000C0F84801C0F84031704700BF39520008B3
:104AD000064BC0F84C310023C0F8503100F5A273EA
:104AE000C0F84801C0F84031704700BFF9500008D5
:104AF000064BC0F84C310023C0F8503100F5A273CA
:104B0000C0F84801C0F84031704700BFB94F0008F5
:104B1000064BC0F84C310023C0F8503100F5A273A9
:104B2000C0F84801C0F84031704700BFB5450008E3
:104B300003685B6A18470000124B13B503604FF41B
:104B400080734363104B417203611049104BB1F9FC
:104B50000010B3F900308381002242600272827239
:104B6000C281C0E90522C0E90722C0E90922C0E9E3
:104B70000B220446009110301146FDF744FF2046F9
:104B800002B010BDC4EA0208A8E902082A380120D0
:104B9000283801202DE9F047D0E9554A0746A0689A
:104BA00003681B6A9847B0F58A5F05D2424B434AB7
:104BB000A321434826F03CFF606803681B6A9847BE
:104BC0000F2803D83F4B3D4AA421F2E7E068036871
:104BD0001B6A9847372803D83B4B384AA521E8E79A
:104BE00012F05EF8DFF8E490043012F0BFF8D9F864
:104BF000000010B10368DB689847D9F8000010B1D5
:104C000003681B689847DFF8C880D8F8000010B127
:104C100003685B699847D7F83C0110B103685B688B
:104C20009847D8F8000010B103681B689847D7F878
:104C30003C0110B103689B689847E0680021FFF7CA
:104C400077FF14210546FFF777FFA068036800216E
:104C50005B6A9847064604F01DF960680368002106
:104C60005B6A98473146044604F0EEF8C9F80050F4
:104C7000C7F83C41C8F80060DCB1231DCAF8003019
:104C80003368C4F808A03046DB68F46398472368AB
:104C900020461B6898472946304613F02DFE2B68A6
:104CA00028461B6998472B6828465B69BDE8F04792
:104CB00018472346E2E700BF3CD702086DDB020835
:104CC000D8D802081FD90208C2D902087C380120AE
:104CD000783801202DE9F047D0E9554A0746A06809
:104CE00003681B6A9847B0F58A5F05D2424B434A76
:104CF000A321434826F09CFE606803681B6A98471E
:104D00000F2803D83F4B3D4AA421F2E7E06803682F
:104D10001B6A9847372803D83B4B384AA521E8E758
:104D200011F0BEFFDFF8E490043012F01FF8D9F85C
:104D3000000010B10368DB689847D9F8000010B193
:104D400003681B689847DFF8C880D8F8000010B1E6
:104D500003685B699847D7F83C0110B103685B684A
:104D60009847D8F8000010B103681B689847D7F837
:104D70003C0110B103689B689847E0680021FFF789
:104D8000D7FE14210546FFF7D7FEA068036800216F
:104D90005B6A9847064604F01DF8606803680021C6
:104DA0005B6A98473146044603F0EEFFC9F80050AD
:104DB000C7F83C41C8F80060DCB1231DCAF80030D8
:104DC0003368C4F808A03046DB68F463984723686A
:104DD00020461B6898472946304613F08DFD2B6806
:104DE00028461B6998472B6828465B69BDE8F04751
:104DF00018472346E2E700BF3CD702089DDC0208C3
:104E0000D8D802081FD90208C2D902087C3801206C
:104E1000783801202DE9F047D0E9554A0746A068C7
:104E200003681B6A984741F27B13984205D8424BAE
:104E3000424AA321424826F0FBFD606803681B6AD2
:104E400098470F2803D83F4B3C4AA421F2E7E0687B
:104E500003681B6A9847372803D83B4B374AA5217C
:104E6000E8E711F01DFFDFF8E490043011F07EFF59
:104E7000D9F8000010B10368DB689847D9F8000042
:104E800010B103681B689847DFF8C480D8F80000A9
:104E900010B103685B699847D7F83C0110B103680B
:104EA0005B689847D8F8000010B103681B68984702
:104EB000D7F83C0110B103689B689847E06800216F
:104EC000FFF736FE14210546FFF736FEA06803689B
:104ED00000215B6A9847064603F01CFF6068036880
:104EE00000215B6A98473146044603F0EDFEC9F89D
:104EF0000050C7F83C41C8F80060DCB1231DCAF877
:104F000000303368C4F808A03046DB68F463984783
:104F1000236820461B6898472946304613F0ECFC6E
:104F20002B6828461B6998472B6828465B69BDE8B3
:104F3000F04718472346E2E73CD70208BBDD0208EA
:104F4000D8D802081FD90208C2D902087C3801202B
:104F50007838012003685B6A18470000124B13B5CC
:104F600003604FF480734363104B41720361104937
:104F7000104BB1F90010B3F9003083810022426078
:104F800002728272C281C0E90522C0E90722C0E92B
:104F90000922C0E90B220446009110301146FDF7AA
:104FA00032FD204602B010BDA0EA0208A8E90208BE
:104FB0002A380120283801202DE9F047D0E9554A48
:104FC0000746A06803681B6A984741F2AF039842FE
:104FD00005D8424B424AA321424826F029FD606889
:104FE00003681B6A98470F2803D83F4B3C4AA4210B
:104FF000F2E7E06803681B6A9847372803D83B4B01
:10500000374AA521E8E711F04BFEDFF8E4900430C1
:1050100011F0ACFED9F8000010B10368DB689847C6
:10502000D9F8000010B103681B689847DFF8C48006
:10503000D8F8000010B103685B699847D7F83C01C5
:1050400010B103685B689847D8F8000010B1036896
:105050001B689847D7F83C0110B103689B689847D4
:10506000E0680021FFF776FF14210546FFF776FF81
:10507000A068036800215B6A9847064604F04EF971
:105080006068036800215B6A98473146044604F073
:105090001FF9C9F80050C7F83C41C8F80060DCB1FE
:1050A000231DCAF800303368C4F808A03046DB6816
:1050B000F4639847236820461B6898472946304682
:1050C00013F01AFC2B6828461B6998472B68284662
:1050D0005B69BDE8F04718472346E2E73CD7020882
:1050E000D5DE0208D8D802081FD90208C2D90208A2
:1050F0007C380120783801202DE9F047D0E9554A65
:105100000746A06803681B6A984741F60353984214
:1051100005D8424B424AA321424826F089FC6068E8
:1051200003681B6A98470F2803D83F4B3C4AA421C9
:10513000F2E7E06803681B6A9847372803D83B4BBF
:10514000374AA521E8E711F0ABFDDFF8E490043021
:1051500011F00CFED9F8000010B10368DB68984725
:10516000D9F8000010B103681B689847DFF8C480C5
:10517000D8F8000010B103685B699847D7F83C0184
:1051800010B103685B689847D8F8000010B1036855
:105190001B689847D7F83C0110B103689B68984793
:1051A000E0680021FFF7D6FE14210546FFF7D6FE82
:1051B000A068036800215B6A9847064603F076FC06
:1051C0006068036800215B6A98473146044603F033
:1051D00047FCC9F80050C7F83C41C8F80060DCB192
:1051E000231DCAF800303368C4F808A03046DB68D5
:1051F000F4639847236820461B6898472946304641
:1052000013F07AFB2B6828461B6998472B682846C1
:105210005B69BDE8F04718472346E2E73CD7020840
:10522000F5DF0208D8D802081FD90208C2D902083F
:105230007C380120783801202DE9F047D0E9554A23
:105240000746A06803681B6A984741F25B039842CF
:1052500005D8424B424AA321424826F0E9FB606848
:1052600003681B6A98470F2803D83F4B3C4AA42188
:10527000F2E7E06803681B6A9847372803D83B4B7E
:10528000374AA521E8E711F00BFDDFF8E490043080
:1052900011F06CFDD9F8000010B10368DB68984785
:1052A000D9F8000010B103681B689847DFF8C48084
:1052B000D8F8000010B103685B699847D7F83C0143
:1052C00010B103685B689847D8F8000010B1036814
:1052D0001B689847D7F83C0110B103689B68984752
:1052E000E0680021FFF736FE14210546FFF736FE81
:1052F000A068036800215B6A9847064603F066FED3
:105300006068036800215B6A98473146044603F0F1
:1053100037FEC9F80050C7F83C41C8F80060DCB15E
:10532000231DCAF800303368C4F808A03046DB6893
:10533000F4639847236820461B68984729463046FF
:1053400013F0DAFA2B6828461B6998472B68284621
:105350005B69BDE8F04718472346E2E73CD70208FF
:105360001BE10208D8D802081FD90208C2D90208D6
:105370007C380120783801202DE9F047D0E9554AE2
:105380000746A06803681B6A984741F25B0398428E
:1053900005D8424B424AA321424826F049FB6068A7
:1053A00003681B6A98470F2803D83F4B3C4AA42147
:1053B000F2E7E06803681B6A9847372803D83B4B3D
:1053C000374AA521E8E711F06BFCDFF8E4900430E0
:1053D00011F0CCFCD9F8000010B10368DB689847E5
:1053E000D9F8000010B103681B689847DFF8C48043
:1053F000D8F8000010B103685B699847D7F83C0102
:1054000010B103685B689847D8F8000010B10368D2
:105410001B689847D7F83C0110B103689B68984710
:10542000E0680021FFF796FD14210546FFF796FD81
:10543000A068036800215B6A9847064603F084FD74
:105440006068036800215B6A98473146044603F0B0
:1054500055FDC9F80050C7F83C41C8F80060DCB100
:10546000231DCAF800303368C4F808A03046DB6852
:10547000F4639847236820461B68984729463046BE
:1054800013F03AFA2B6828461B6998472B68284680
:105490005B69BDE8F04718472346E2E73CD70208BE
:1054A0005FE20208D8D802081FD90208C2D9020850
:1054B0007C380120783801202DE9F047D0E9554AA1
:1054C0000746A06803681B6A9847B0F58A5F05D253
:1054D000424B434AA321434826F0AAFA6068036876
:1054E0001B6A98470F2803D83F4B3D4AA421F2E797
:1054F000E06803681B6A9847372803D83B4B384A53
:10550000A521E8E711F0CCFBDFF8E490043011F0BE
:105510002DFCD9F8000010B10368DB689847D9F872
:10552000000010B103681B689847DFF8C880D8F8FE
:10553000000010B103685B699847D7F83C0110B1CF
:1055400003685B689847D8F8000010B103681B68CF
:105550009847D7F83C0110B103689B689847E0680A
:105560000021FFF7F7FC14210546FFF7F7FCA068C0
:10557000036800215B6A9847064603F08BFC60686D
:10558000036800215B6A98473146044603F05CFCDF
:10559000C9F80050C7F83C41C8F80060DCB1231DD1
:1055A000CAF800303368C4F808A03046DB68F463FA
:1055B0009847236820461B6898472946304613F0D1
:1055C0009BF92B6828461B6998472B6828465B691E
:1055D000BDE8F04718472346E2E700BF3CD7020882
:1055E0009FE30208D8D802081FD90208C2D90208CE
:1055F0007C380120783801202DE9F047D0E9554A60
:105600000746A06803681B6A984741F25B0398420B
:1056100005D8424B424AA321424826F009FA606865
:1056200003681B6A98470F2803D83F4B3C4AA421C4
:10563000F2E7E06803681B6A9847372803D83B4BBA
:10564000374AA521E8E711F02BFBDFF8E49004309E
:1056500011F08CFBD9F8000010B10368DB689847A3
:10566000D9F8000010B103681B689847DFF8C480C0
:10567000D8F8000010B103685B699847D7F83C017F
:1056800010B103685B689847D8F8000010B1036850
:105690001B689847D7F83C0110B103689B6898478E
:1056A000E0680021FFF756FC14210546FFF756FC81
:1056B000A068036800215B6A9847064603F0C8FDAE
:1056C0006068036800215B6A98473146044603F02E
:1056D00099FDC9F80050C7F83C41C8F80060DCB13A
:1056E000231DCAF800303368C4F808A03046DB68D0
:1056F000F4639847236820461B689847294630463C
:1057000013F0FAF82B6828461B6998472B6828463F
:105710005B69BDE8F04718472346E2E73CD702083B
:10572000CFE40208D8D802081FD90208C2D902085B
:105730007C380120783801202DE9F047D0E9554A1E
:105740000746A06803681B6A984741F2F7339842FE
:1057500005D8424B424AA321424826F069F96068C5
:1057600003681B6A98470F2803D83F4B3C4AA42183
:10577000F2E7E06803681B6A9847372803D83B4B79
:10578000374AA521E8E711F08BFADFF8E4900430FE
:1057900011F0ECFAD9F8000010B10368DB68984703
:1057A000D9F8000010B103681B689847DFF8C4807F
:1057B000D8F8000010B103685B699847D7F83C013E
:1057C00010B103685B689847D8F8000010B103680F
:1057D0001B689847D7F83C0110B103689B6898474D
:1057E000E0680021FFF7B6FB14210546FFF7B6FB82
:1057F000A068036800215B6A9847064603F088FCAE
:105800006068036800215B6A98473146044603F0EC
:1058100059FCC9F80050C7F83C41C8F80060DCB139
:10582000231DCAF800303368C4F808A03046DB688E
:10583000F4639847236820461B68984729463046FA
:1058400013F05AF82B6828461B6998472B6828469E
:105850005B69BDE8F04718472346E2E73CD70208FA
:1058600011E60208D8D802081FD90208C2D90208D6
:105870007C380120783801202DE9F047D0E9554ADD
:105880000746A06803681B6A9847B0F58A5F05D28F
:10589000424B434AA321434826F0CAF86068036894
:1058A0001B6A98470F2803D83F4B3D4AA421F2E7D3
:1058B000E06803681B6A9847372803D83B4B384A8F
:1058C000A521E8E711F0ECF9DFF8E490043011F0DD
:1058D0004DFAD9F8000010B10368DB689847D9F891
:1058E000000010B103681B689847DFF8C880D8F83B
:1058F000000010B103685B699847D7F83C0110B10C
:1059000003685B689847D8F8000010B103681B680B
:105910009847D7F83C0110B103689B689847E06846
:105920000021FFF717FB14210546FFF717FBA068BE
:10593000036800215B6A9847064603F08FFB6068A6
:10594000036800215B6A98473146044603F060FB18
:10595000C9F80050C7F83C41C8F80060DCB1231D0D
:10596000CAF800303368C4F808A03046DB68F46336
:105970009847236820461B6898472946304612F00E
:10598000BBFF2B6828461B6998472B6828465B6934
:10599000BDE8F04718472346E2E700BF3CD70208BE
:1059A00053E70208D8D802081FD90208C2D9020852
:1059B0007C380120783801202DE9F047D0E9554A9C
:1059C0000746A06803681B6A9847B0F58A5F05D24E
:1059D000424B434AA321434826F02AF860680368F3
:1059E0001B6A98470F2803D83F4B3D4AA421F2E792
:1059F000E06803681B6A9847372803D83B4B384A4E
:105A0000A521E8E711F04CF9DFF8E490043011F03B
:105A1000ADF9D9F8000010B10368DB689847D9F8F0
:105A2000000010B103681B689847DFF8C880D8F8F9
:105A3000000010B103685B699847D7F83C0110B1CA
:105A400003685B689847D8F8000010B103681B68CA
:105A50009847D7F83C0110B103689B689847E06805
:105A60000021FFF777FA14210546FFF777FAA068BF
:105A7000036800215B6A9847064603F0ABF960684B
:105A8000036800215B6A98473146044603F07CF9BD
:105A9000C9F80050C7F83C41C8F80060DCB1231DCC
:105AA000CAF800303368C4F808A03046DB68F463F5
:105AB0009847236820461B6898472946304612F0CD
:105AC0001BFF2B6828461B6998472B6828465B6993
:105AD000BDE8F04718472346E2E700BF3CD702087D
