:020000040800F2
:10000000000003208D050008192100081D210008AB
:1000100021210008252100082921000800000000F6
:1000200000000000000000000000000011C00008F7
:100030002D21000800000000A1C000086DB80008D4
:10004000DD050008DD050008DD050008DD05000808
:10005000DD050008DD050008DD050008DD050008F8
:10006000DD05000831210008DD050008DD05000878
:10007000DD050008DD050008DD050008DD050008D8
:10008000DD050008DD050008DD050008DD050008C8
:10009000DD050008DD050008DD050008DD050008B8
:1000A000DD050008DD050008DD050008DD050008A8
:1000B000DD050008DD050008DD050008DD05000898
:1000C000DD050008DD050008DD050008DD05000888
:1000D000DD050008DD050008DD050008DD05000878
:1000E000DD050008DD050008DD050008DD05000868
:1000F000DD050008DD050008DD050008DD05000858
:10010000DD050008DD050008DD050008DD05000847
:10011000DD050008DD05000851210008DD050008A7
:10012000DD050008DD050008DD050008DD05000827
:10013000DD050008DD050008DD050008DD05000817
:10014000DD050008DD050008DD050008DD05000807
:10015000DD050008DD050008DD050008DD050008F7
:100160005D210008DD050008DD050008DD0500084B
:10017000DD050008DD050008DD05000800000000C1
:10018000DD050008DD050008DD050008DD050008C7
:10019000DD050008DD050008DD050008DD050008B7
:0C01A00069210008DD0500087521000839
:1001B00010B5054C237833B9044B13B10448AFF3A1
:1001C00000800123237010BD6801002000000000A2
:1001D0002085020808B5034B1BB103490348AFF360
:1001E000008008BD000000006C010020208502088E
:1001F00001F0FF01102A2BDB10F0070F08D010F8D8
:10020000013B013A8B422DD010F0070F42B3F6D1DB
:10021000F0B441EA012141EA014122F007047FF0F4
:1002200000070023F0E80256083C85EA010586EA4B
:10023000010685FA47F5A3FA87F586FA47F6A5FA87
:1002400087F68EB9EED1F0BC01F0FF0102F0070293
:1002500032B110F8013B013A83EA010313B1F8D13E
:100260000020704701387047002D06BF354603381F
:10027000073815F0010F07D1013015F4807F02BF58
:10028000013015F4C03F0130F0BC0138704700BFA9
:1002900053B94AB9002908BF00281CBF4FF0FF31ED
:1002A0004FF0FF3000F070B9ADF1080C6DE904CEED
:1002B00000F006F8DDF804E0DDE9022304B0704741
:1002C0002DE9F047089E0D4604460F46002B4AD103
:1002D0008A42944665D9B2FA82F343B102FA03FC2A
:1002E000C3F120029F4020FA02F217439C404FEADC
:1002F0001C4E1FFA8CF5B7FBFEF1220C0EFB11779A
:1003000042EA074201FB05F090420AD91CEB0202C7
:1003100001F1FF3780F01C81904240F219810239CF
:100320006244121AA4B2B2FBFEF00EFB102244EAA1
:10033000024400FB05F5A5420AD91CEB040400F1B8
:10034000FF3280F00781A54240F204816444023804
:1003500040EA0140641B00211EB1DC400023C6E9D5
:100360000043BDE8F0878B4208D9002E00F0ED80F5
:100370000021C6E900050846BDE8F087B3FA83F11D
:10038000002949D1AB4202D3824200F2F880841A9C
:1003900065EB030201201746002EE2D0C6E90047B4
:1003A000DFE702B9FFDEB2FA82F3002B40F0908063
:1003B0008A1A4FEA1C471FFA8CFE0121B2FBF7F59F
:1003C00007FB1520220C42EA00420EFB05F090428A
:1003D00008D91CEB020205F1FF3802D2904200F26C
:1003E000CB804546121AA4B2B2FBF7F007FB1022ED
:1003F00044EA02440EFB00FEA64508D91CEB0404A7
:1004000000F1FF3202D2A64500F2BB801046A4EBF9
:100410000E0440EA05409FE7C1F120078B4022FA15
:1004200007FC4CEA030C05FA01F420FA07F3FD403F
:100430004FEA1C492343B5FBF9F81FFA8CFE09FB70
:1004400018551C0C44EA054408FB0EF5A54202FAB7
:1004500001F200FA01F00BD91CEB040408F1FF3A99
:1004600080F08880A54240F28580A8F102086444AB
:10047000641B9DB2B4FBF9F309FB134445EA044441
:1004800003FB0EFEA64508D91CEB040403F1FF355F
:100490006CD2A6456AD9023B644443EA0843A3FBF5
:1004A0000295A4EB0E04AC42C846AE4656D353D0D8
:1004B00056B1B0EB080264EB0E0404FA07F7CA4029
:1004C000CC401743C6E9007418460021BDE8F08708
:1004D000C3F1200102FA03FC20FA01F225FA01F12E
:1004E0009D402A434FEA1C471FFA8CFEB1FBF7F0F0
:1004F00007FB1015110C41EA054100FB0EF58D427A
:1005000004FA03F408D91CEB010100F1FF382FD2E3
:100510008D422DD902386144491B92B2B1FBF7F5E7
:1005200007FB151142EA014205FB0EF1914208D981
:100530001CEB020205F1FF3816D2914214D9023D9C
:100540006244521A45EA004138E73146304608E72E
:100550003946E6E61046FBE64845A9D2B9EB020863
:1005600065EB0C0E013BA3E74546EAE72B4694E713
:100570004046D1E7D0467BE7023D624432E7084679
:100580000AE76444023842E7704700BFDFF834D01E
:10059000002103E00C4B5B58435004310B480C4BDB
:1005A00042189A42F6D30B4A02E0002342F8043B79
:1005B000094B9A42F9D307F035FB27F035FA00F0E2
:1005C0005FFF704700000320087A14080000002035
:1005D0006801002068010020F4430120FEE70000CC
:1005E000704700BF08B500F035FDBDE8084000F0D9
:1005F000BDBC00BF00F030BD704710B504210446FB
:1006000026F01DF9204610BD38B50C4B0C4C188057
:100610000C4B822019806368984740F6110398427A
:100620000AD1094D23682C60822098472B688220CC
:10063000DB689847002038BD0120FCE784010020DA
:100640005000002086010020880100204FF4A07196
:10065000F020FFF7D9BF0000F7B5334D2B680446F3
:100660001B698220984780B2208000284AD02B68DE
:100670000DF106025B6901A982209847BDF806309A
:1006800040F6746293423FD9ADF80620BDF80630BB
:10069000D21A92B20A2A3DD90B23B2FBF3F2234BB2
:1006A0001B889A4201D9013B9AB2BDF8043040F64A
:1006B000B8318B4230D8C3F571630E339BB20F2132
:1006C000B3FBF1F31A4909888B4201D901398BB286
:1006D000184E194D30682F68834281B28CBF591A69
:1006E000C91AB8B2BA428CBF101A801A89B280B245
:1006F00001440529C8BF33603368C8BF2A606380DE
:100700002B68A38003B0F0BDB32B9CBFB423ADF81E
:100710000630BBE70022C8E7C3F56D6308339BB220
:100720000E2BCCD80023D3E78801002086010020BF
:10073000840100208C0100209001002037B568461C
:100740000D461446FFF788FFBDF8000048B1BDF81C
:1007500002302B60BDF804302360034B3C221A604A
:10076000012003B030BD00BF1400002010B10228EA
:1007700009D07047074B1A68B2FA82F25209042175
:10078000054807F083BD034B9A68B2FA82F252091A
:100790001021F5E7940100200010024010B102285A
:1007A00009D07047074B1A68003A18BF012204218C
:1007B000054807F06BBD034B9A68003A18BF012249
:1007C0001021F5E7940100200010024010B102282A
:1007D00004D070470421024807F05CBD1021FAE7FD
:1007E0000010024008B530B1022809D00020431E95
:1007F0005842584108BD0421024807F041FDF6E780
:100800001021F9E70010024070B5084D00240126C0
:10081000E0B2FFF7E7FF18B12B68012B18BF2E607D
:100820000134052C05F10405F2D170BD94010020BE
:10083000012380F8781080F87930704700207047E5
:10084000034B4164003918BF01211970704700BF84
:10085000BB37012000207047836B0BB10846184757
:1008600070474FF6FF707047406803689B691847F0
:10087000704770477047000010B5044600F0D8FC80
:1008800023680349D3F88C302046BDE81040184750
:10089000000000D008B503680446D3F880309847BC
:1008A000236820469B6F984700F0ECF823682046A9
:1008B0001B6F9847292001F0E5F800F0E3F8236862
:1008C00020461B6F9847F8E710B504460EF0EAFF84
:1008D00023682046D3F8AC30BDE81040184700F03C
:1008E00099BC00F09DBC00F0C1BC00F06FBC00F0F2
:1008F000C9BC00F0D1BC00F073BC0EF03FBA10B51B
:100900007C21044625F09BFF204610BD90F87A30EC
:100910001BB1406803681B68184718467047000001
:1009200010B590F8341090F878400C4B8C421A783F
:1009300009D03AB90A4A0B491488088810800C80FB
:1009400001221A7010BD002AFCD0054A05491488FE
:10095000088810800C800022F3E700BFB437012024
:10096000B0370120B237012070B50D46194635B9B0
:10097000094B0A4A0A4840F2D22126F051FDC0E94B
:100980000F52084B003A18BF01221A700368BDE8E5
:100990007040D3F88C30184790850208C88502084B
:1009A00016860208BA37012008B5094B1B888B420E
:1009B00003D8084B1B88934205D9074B074A0848C0
:1009C0009E2126F02DFD074B1980074B1A8008BD8C
:1009D000B0370120B23701205B860208BE860208CC
:1009E00016860208B6370120B8370120012108B564
:1009F000002208460AF0CEFF0A4B186028B90A4BBD
:100A00000A4A28210A4826F00BFD00220421012071
:100A10000BF074F8074B186018B9074B034A2C21E8
:100A2000F0E708BDA8010020DC870208258802083D
:100A300054880208A4010020CE880208024B4FF01F
:100A4000FF3118680AF0FABFA8010020014B1868AE
:100A50000BF028B8A8010020024B002118680AF00A
:100A6000EDBF00BFA8010020FFF7F0BF0348044915
:100A7000006800231A460BF07BB800BFA4010020D9
:100A80000400002013B5084C00231A4601A9206871
:100A90000BF0A4F820684FF0FF33002201A90BF0FF
:100AA0009DF802B010BD00BFA401002003685B6C7C
:100AB00018470120704703689B6A184782B00023DB
:100AC00001930D4B1A6B42F400021A631A6B02F485
:100AD00000020192019A1A6942F400021A611A692D
:100AE00022F400021A61054B054A1A61054B4FF0CA
:100AF00080629A6002B070470038024034260020BD
:100B0000490B000800E100E040F2EF3070470000C0
:100B1000054B0360054B4FF08062C3F88820BFF39C
:100B20004F8FBFF36F8F7047988A020800E100E093
:100B300010B504464FF45A61FFF7EAFF204625F04E
:100B40007EFE204610BD0000024B1B6858680368FB
:100B50005B691847BC37012070B5044625460A4B2F
:100B60000C30002660602672667245F8203B6022D9
:100B700029460EF0EFFF04F55A63EE602435AB42D0
:100B8000FBD1204670BD00BF988A020808B50B292A
:100B90000BD8DFE801F01206100A0A0A0A08080852
:100BA0000808012008BD0520FCE7054B054A06485A
:100BB000652126F035FC0020F4E70220F2E700BFB3
:100BC000108902082B8902087589020808B50A29CC
:100BD00009D8DFE801F010060E0808080806060626
:100BE0000600012008BD054B054A0648862126F06F
:100BF00017FC0020F6E70220F4E700BF1089020886
:100C0000ED890208758902082DE9F84391F81D80E5
:100C10000C4641460746FFF7B9FF94F81E9005467B
:100C200049463846FFF7B2FF494606463846FFF7C1
:100C3000CDFFA18A628B434B521A1A649A61228BB0
:100C4000521A1A61E28A586342EA01425A642069E0
:100C50006268D863DA602768802F28D0227F0FD897
:100C6000202F65D0402F63D0042F1AD0354B45EA92
:100C7000026545F40035C845DD615FD0324A44E085
:100C8000B7F5807F04D0B7F5007FEFD12F4900E0A2
:100C90002F4941EA0262DA61E2681A625E625861D3
:100CA00032E045EA026242F40032DA61F6E7A76810
:100CB0003A1DDA62217F3A7845EA016545F400354C
:100CC000DD615E62586142B1012A21D0214B224A86
:100CD00022484FF4887126F0A3FBDA69798822F460
:100CE0007F42013922F0100242EA0122DA61012139
:100CF000144BDA6942F02002DA61DA699206FCD418
:100D000010229A600029B9D0154A1A60BDE8F8830C
:100D1000DA69788822F47F42013822F0100242EA30
:100D20000022FF3942F0100218BF0121DA61DFE72B
:100D300045EA0262034B42F40032B6E740F2012278
:100D4000E3E700BF00B00240010201000900020019
:100D50000A000200388A0208528A020875890208CD
:100D60000102020038B50C46897FFFF72FFFA58AE4
:100D7000E28A164B2169586342EA05425A64628B43
:100D8000D963521B1A642568082D0ED19A611A6125
:100D90005862207F0E4A42EA0062DA61E2681A6213
:100DA0000C4A5961D9601A6038BD0022D8611A61B5
:100DB000E1680A0A480902F4784200F4FC60024340
:100DC000C1F3C4010A439A63034AECE700B002404E
:100DD000090001000102020001020300034B1A682E
:100DE000D207FCD423229A60704700BF00B00240B3
:100DF00030B50F4C2568ED07FCD423250904A56008
:100E000041F001010225FF2B65636164E0630AD0B4
:100E10000849656241EA0363E361074B226260614E
:100E2000E060236030BDE561039BA363034BF8E7FB
:100E300000B00240090001000100020001000300AF
:100E40000120704738207047382303FB0100083029
:100E50007047382303FB01000830704701207047BA
:100E600041F2E430704741F2E43303FB0100083003
:100E7000704741F2E43303FB010008307047012062
:100E800070471020704700EB01100830704700EBEE
:100E9000011008307047084602F054B810B5034BF3
:100EA000036004460DF0F3FA204610BD508B020893
:100EB00010B50446FFF7F2FF2046402125F0BFFCA5
:100EC000204610BD10B5034B036004460DF0DFFA59
:100ED000204610BD1C8B020810B50446FFF7F2FF38
:100EE000204641F2EC3125F0AAFC204610BD00005E
:100EF00010B5034B036004460DF0C9FA204610BD3F
:100F0000E88A020810B50446FFF7F2FF20461821D0
:100F100025F095FC204610BD10B5094B0360044632
:100F200000F5A0501830FFF7B9FF04F12C00FFF7CF
:100F3000C9FF04F11400FFF7DBFF204610BD00BF1E
:100F4000848B020808B50248FFF7E6FF08BD00BF22
:100F5000B001002010B50446FFF7DEFF204641F245
:100F6000BC5125F06CFC204610BD00002DE9F3417A
:100F700001F07EF9054601F07FF900240146234681
:100F800028462246009416F005F9264B264A274D9E
:100F90001A60204605F0D6FF254816F063F82B6846
:100FA000BFF35B8FDB0736D4284625F04AFC90B3AD
:100FB000204C214B214F236004F5A35604F114006B
:100FC00004F12C086060C4F80880E76026610DF029
:100FD0005FFA1B4B636140460DF05AFA194BE3620E
:100FE00038460DF055FA04F58053174AC3F8182413
:100FF00003F58B6006F0D6FA2246A6F108013046CA
:1010000006F058F8304601F09DFF104826F026FA09
:10101000284625F022FC0E4802B0BDE8F041FFF75B
:101020002BBC00BF203801208C250020AC01002003
:1010300008000020B0010020848B0208C8150020A1
:10104000E88A02081C8B0208508B0208450F000832
:1010500010250020704700000148FFF71BBC00BFAF
:101060001025002070B5224E224C234D234B2360C7
:101070003046FFF771FD28461AF058FB204B2148F7
:10108000DC6000224FF48071C3E912121E491A86F7
:10109000C3E91A121D4999671D4983F858200B604E
:1010A000F02101801B485A6601801B4883F870209C
:1010B0004FF4A071C3E90422C3E90622C3E9082260
:1010C000C3E90A22C3E90E22C3E91022C3E91422AC
:1010D000C3E917225A67C3E9016501800F480180FF
:1010E0000F490A70012283F834200E4A1A6070BD3D
:1010F000701700206C1700209025002080850208C2
:1011000010250020B037012001000001000001017E
:10111000BC370120B6370120B2370120B837012093
:10112000B43701200C8702080148FFF7F1BC00BF6B
:10113000701700200020704781807047C180704781
:101140000181704741817047704770477047704711
:10115000704710B4C4880368121B84885B6D091B38
:1011600012B25DF8044B09B218474FF6FF73838142
:101170004FF0FF3303621368C3611060704790F84B
:1011800025201AB190F8242002B118607047002081
:1011900070478B88838001207047704780F8261045
:1011A000704790F82600704710B50022B1F908404A
:1011B000B1F90A10028042808480C18010BD0022F3
:1011C000028042808280C28070470000034B9022E0
:1011D00083F85A2383F85823704700BF00E100E0EA
:1011E000094A0A49D3680A48C3F30A03013B9BB280
:1011F0000B801169C1F30A01013901801364536B3B
:1012000043F0010353637047006801401626002035
:1012100014260020014BD3F8AC0070470068014051
:10122000024B0122C3F8AC105A62704700680140BB
:1012300070B504460DF0F7FD23685D6E12F0A0FD59
:1012400001462046A8472368054AD3F8885020461F
:10125000AC460023BDE87040A2F51631604700BFE0
:1012600000B004D00DF0C6BD0DF0D0BD0DF08CBDAA
:101270000DF0EDBE90F8252012B103685B691847A8
:1012800070470000034B4FF080629A604FF080720D
:101290009A60704700E100E0084B4FF08062C3F8AD
:1012A0008820BFF34F8FBFF36F8F4FF08072C3F86A
:1012B0008820BFF34F8FBFF36F8F704700E100E0CE
:1012C00070B50023124E8380124B0360336893F88D
:1012D000582005460AB1D86C00B998680368DB6AE3
:1012E00098473368B0FA80F4D86C640930B1036869
:1012F000DB6A9847002808BF44F001042CB9064B6C
:10130000064A07482C2126F08BF8284670BD00BFFE
:10131000BC370120948C0208908B0208EE8B0208E7
:10132000278C020810B5144C236823B3134B144ABE
:101330001B6C11888B4213D1124B198808F0C2FD27
:10134000226892F86A30013382F86A30FFF78EFB28
:1013500020680EF0A7FABDE810400020FFF706BA9B
:1013600008F0B0FD206803681B6A9847BDE810408C
:101370000020FFF713BA10BDBC3701200068014000
:10138000162600201426002008B564200AF0F4FA7E
:10139000FBE700BF80B5104CDFF848800F4F104EC0
:1013A000206800231A462146451ED8F80000256013
:1013B0000AF0DEFB22683C233846202112B9236064
:1013C00006F064FF30464FF4005106F063FF4FF41F
:1013D0007A700AF0D1FAE3E714000020001002400E
:1013E000001802402026002030B5002495B0CDE939
:1013F0000A44CDE90C44CDE90344CDE905441E4A35
:1014000001940794116C1D4B41F080511164126CD2
:1014100002F080520192019A02941A6842F440420A
:101420001A601B6803F44043029301224FF4803397
:10143000CDE908230823022510934FF480024FF4CE
:10144000A873CDE90E5211930222042308A8CDE916
:101450001223029908F058FD0F23CDE903354FF40C
:10146000A0524FF4805303A80521CDE9054207930C
:1014700008F062FF15B030BD003802400070004037
:101480002DE9804800249DB006F0DAFBFFF7ACFFA1
:10149000CDE90F44CDE91144C14B00941394196B6D
:1014A000C048C14D41F010011963196B01F01001E2
:1014B000009100990194196B41F020011963196B97
:1014C00001F02001019101990294196B41F0800112
:1014D0001963196B01F08001029102990394196B51
:1014E00041F004011963196B01F0040103910399A0
:1014F0000494196B41F001011963196B01F00101AA
:10150000049104990594196B41F002011963196B58
:1015100001F00201059105990694196B41F0400113
:101520001963196B01F04001069106990794196B34
:1015300041F0080119631B6B03F00803224607936F
:101540001421079B06F0A2FE96482021012206F0F6
:101550009DFE96482246042106F098FE94482246B5
:101560004FF4405106F092FE012292484FF4005190
:1015700006F08CFE01264FF00309142389480FA9B9
:101580004FF00808CDE90F36CDE9114906F03AFDD4
:101590004FF488138348CDF83C800FA91093119421
:1015A00006F030FD20237F480F930FA902274FF04C
:1015B000040ACDE91064129406F024FD7B48CDF8AE
:1015C0003CA00FA9CDE91064129706F01BFD4FF463
:1015D000405377480F930FA9CDE91064129706F096
:1015E00011FD4FF4004374480F930FA90F23139379
:1015F0004FF4005BCDE91074129406F003FD6D48C2
:10160000CDF83CB00FA9CDE91064129406F0FAFCB5
:1016100022460521092006F063FB092006F09EFB07
:101620006648674B036006F0A7FB6649664B284691
:10163000C5E900134FF480432B61C5E90244C5E9B5
:101640000544C5E9074407F087F81021284608F04B
:101650004FFA2146284608F06BFADFF884C15B4850
:101660005B4D84624FF482734FF4007EC0E900C387
:101670001823C0E906E30A23C362C0E90244C0E9B3
:101680000444C0E9084409F045F907231093129374
:10169000504B2B6040204FF4C073C5E90503C5F8DB
:1016A00028B04FF400634FF0100B0FA928462B62AF
:1016B000C5E90164C5F80CA0CDE91397EC616C6233
:1016C000CDF844A0C5F810B00F97159709F030F881
:1016D0004FF6FF720BA92846CDE90B68CDE90D64E2
:1016E000089409F047F8304606F0D6FA4FF6FF7234
:1016F0000BA92846CDE90B78CDE90D6409F03AF83D
:101700004FF6FF720BA92846CDE90B98CDE90DA441
:1017100009F030F84FF40C730893089B0E934FF6C2
:10172000FF720BA92846CDE90BA80D9609F022F807
:10173000284640F26A51284DDFF8A88009F038F8B1
:10174000342221460FA826F070F8244B2B60092381
:101750006B611D23C5F82090EB6140F20D1940F23A
:101760004313C5E90993AC8640F24713284640F27B
:10177000171AC5E90BA3AE61C5E90144C5E90344E5
:1017800085F8364008F0F8F9F023109319934FF4D8
:10179000A07312931A93FF234FF4806C24E000BFD0
:1017A0000038024000100240742600200008024069
:1017B000000C024000180240000002402C260020CD
:1017C00000300240005C0040A0860100A4270020F9
:1017D00070270020400100A0C826002000680140BA
:1017E00000500140FC27002022460FA928461493F0
:1017F0000523CDE916C34B4D0F94119413971594FF
:101800001894ADF86C408DF86E4008F08BFA464B9A
:101810002B601B6898472B68444DDB689847444B06
:101820002B60C5E90A47C5E90C442846C5E90147CC
:10183000EC6006F0CBFA3146284606F08DFB4FF6F9
:10184000FF763C4B3C4DC8F800304046CDE90F4494
:10185000CDE91144CDE90B44C8E90144C8E9044489
:101860001394C8F81840C8F80C6009F043FC0FA99D
:101870004046CDE90F4409F0B7FD0BA94046CDE93C
:101880000B4409F0EFFE2D4B2B602846C5E90144BF
:10189000EE602C61AC61CDE90B44CDE90D44CDE99E
:1018A0000F44CDE91144139409940A9409F022FCE1
:1018B0004FF480530BA928460B9309F0E5FC0FA9C0
:1018C0002846CDE90F4409F08FFD09A92846CDE946
:1018D000094409F0C7FEFEF785FEFEF781FE09F018
:1018E000D3FF174A394658460AF008F9154B164AED
:1018F00018602146154809F0F3FF154B154A18608A
:101900002146154809F0ECFF144B154A05462146BF
:1019100014481D6009F0E4FF134B186009F0C6FF7E
:10192000FEE700BF1C2600201800002034260020FF
:1019300000B00240000001404428002000040040A4
:10194000048D020820260020408D0208891300081B
:1019500028260020E08C0208F50500081826002043
:101960001C8D02089513000824260020704700BF34
:10197000704700BF10B5094C86B024680294144625
:1019800001238DF817400DF117040A460193014613
:101990000094034806F0A8FF06B010BD0C0000201C
:1019A0007426002000B50B4B87B01B680293844659
:1019B0000A4601230DF117010020CDE900138DF82F
:1019C00017006146044807F081F89DF8170007B03A
:1019D0005DF804FB0C0000207426002010B5094CB3
:1019E00084B0844620680290CDE9002306480A4668
:1019F0000123614607F06AF8003818BF012004B0DF
:101A000010BD00BF0C0000207426002006F044B971
:101A100008B506480022042106F038FCBDE808405D
:101A200002480122042106F031BC00BF0008024038
:101A300030B5104D83B0044601220F484FF40051D9
:101A400006F024FC28460022042106F01FFC0B4B64
:101A50000B481B68ADF806400DF10601012208F0A5
:101A6000BBFF01220421284603B0BDE8304006F048
:101A70000DBC00BF00080240000C02401000002016
:101A8000A427002030B5104D83B0044600220F4833
:101A90004FF4005106F0FAFB28460022042106F01C
:101AA000F5FB0B4B0B481B68ADF806400DF106012A
:101AB000012208F091FF01220421284603B0BDE86D
:101AC000304006F0E3BB00BF00080240000C0240BB
:101AD00010000020A42700202DE9F043194E1A4FD2
:101AE000DFF86890DFF8688083B00C460546002276
:101AF0003046042106F0CAFB384600224FF400515C
:101B000006F0C4FBD9F80030ADF8045001A9012259
:101B1000404608F061FFD9F80030224601A940464E
:101B200009F002FA384601224FF40051019C06F0F8
:101B3000ADFB30460122042106F0A8FB204603B08D
:101B4000BDE8F08300080240000C024010000020B5
:101B5000A427002006F0A0B8034B02689A4200D0E8
:101B6000704706F087B800BF00100040704700BF04
:101B700082B00E4B00220092596C41F480415964AE
:101B8000586C00F48040009000980192186C40F06E
:101B9000805018641B6C03F080530193019B0F214C
:101BA0006FF0010002B006F09BB800BF00380240A1
:101BB0000B4B02689A4200D0704782B0002201921B
:101BC000D3F8302842F48052C3F8302803F500637C
:101BD0001B6B03F480530193019B02B0704700BF5D
:101BE000003002400E4B02689A4200D0704700B5A8
:101BF00083B0A3F5F04300220192196B41F4000178
:101C000019631B6B03F4000301935A200521019B08
:101C100006F066F85A2003B05DF804EB06F09EB8B3
:101C200000B002402DE970432E4B02688AB00024B8
:101C30009A42CDE90444CDE90644089402D00AB0A2
:101C4000BDE87083284D01942B6B284843F00403B2
:101C50002B632B6B03F004030193019B02942B6B0A
:101C600043F001032B632B6B03F0010302934FF44A
:101C700000724FF001084FF00309042604A9122353
:101C8000CDE90423CDE90689029B089606F0BAF94E
:101C900004A94FF48072122315480896CDE9042355
:101CA000CDE9068906F0AEF903942B6C43F40003EA
:101CB0002B642B6C03F40003224605210393482078
:101CC000039B06F00DF8482006F048F82B6A43F411
:101CD00000032B622B6A23F400032B620AB0BDE8D9
:101CE000708300BF005C00400038024000080240E2
:101CF000000002402DE9F04104469AB00021302254
:101D00000EA8CDE90811CDE90A110C9125F08DFD41
:101D1000674B22689A4202D01AB0BDE8F081C02316
:101D20000821042212930EA84FF400330E9114924E
:101D3000179308F0D1FB002840F0B7805D4B5E4858
:101D4000002401945A6C42F080625A645A6C02F08A
:101D500080620192019A02941A6B42F020021A6387
:101D60001A6B02F020020292029A03941A6B42F05C
:101D700001021A631A6B02F001020392039A04949F
:101D80001A6B42F002021A631A6B02F0020204920A
:101D9000049A05941A6B42F040021A631A6B02F01F
:101DA00040020592059A06941A6B42F004021A63E7
:101DB0001A6B02F004020692069A07941A6B42F01C
:101DC00008021A631B6B03F00803002602270E2586
:101DD000079308A94FF480620223CDE90823CDE9D7
:101DE0000A67079B0C9506F00DF908A941F6580201
:101DF000022332480C95CDE908234FF00908CDE9BC
:101E00000A6706F0FFF808A9032202232C48CDF840
:101E10003080CDE90823CDE90A6706F0F3F808A978
:101E20004FF47062022326480C95CDE90823CDE9D2
:101E30000A6706F0E7F808A94FF40C62022321486C
:101E40000C95CDE90823CDE90A6706F0DBF808A96F
:101E5000C02202231C480C95CDE90823CDE90A676E
:101E600006F0D0F808A90822022318480C95CDE9FD
:101E70000823CDE90A6706F0C5F8022308A94FF444
:101E8000A0521048CDF83080CDE90823CDE90A678B
:101E900006F0B8F822460521582005F021FF582009
:101EA00005F05CFF1AB0BDE8F081FFF75FFE45E783
:101EB0000068014000380240001402400000024067
:101EC000000402400018024000080240000C0240DA
:101ED00010B51B4A016888B000239142CDE9023356
:101EE000CDE90433069301D008B010BD02F5684275
:101EF0000093506C40F480105064506C00F48010DB
:101F0000009000980193136B0E4843F02003136375
:101F1000136B9FED097B03F020030193032205233C
:101F200002A98DED027BCDE90523019C06F06AF83C
:101F300008B010BDAFF30080800300000200000075
:101F40000050014000140240124A0368934282B0DC
:101F500012D0114A934201D002B070470F4B0022B9
:101F600001921A6C42F002021A641B6C03F0020325
:101F70000193019B02B07047084B002200925A6CFB
:101F800042F001025A645B6C03F001030093009B72
:101F900002B07047000001400004004000380240D9
:101FA000F0B52B4B89B01C6800220492002C4CD158
:101FB0000127284A01941F60936B27483B43936392
:101FC000936B3B4003260C254FF63F02019302A979
:101FD0000223CDE90223CDE90565019B06F012F845
:101FE0001E48029702A90227CDE90374CDE90565D1
:101FF00006F008F848F233131948029302A9CDE914
:102000000374CDE9056505F0FDFF4FF683731548B0
:10201000029302A9CDE90374CDE9056505F0F2FF4D
:102020004CF203731048029302A9CDE90374CDE981
:10203000056505F0E7FF60230C48039702A9CDE989
:1020400004460695029305F0DDFF09B0F0BD00BF20
:102050008C28002000380240001402400008024092
:102060000018024000100240000C02400004024030
:1020700070B588B0234B002202921A6C42F0100215
:102080001A641B6C03F010030293054601A903A810
:10209000029B08F0FFF9069BD3B908F0EBF9034661
:1020A000194A1A4C1A49A2FB03239B0C013B00223C
:1020B000C4E90013204640F2E7332261A260A26126
:1020C000E36009F017F8064630B1304608B070BD3D
:1020D00008F0D0F94300E3E7204609F099F80646F6
:1020E0000028F2D1362005F039FE0F2D01D9012646
:1020F000EBE732462946362005F0F2FD054B1D6020
:10210000E3E700BF0038024083DE1B439028002035
:102110000010004080000020704700BFFEE700BFB5
:10212000FEE700BFFEE700BFFEE700BF704700BF4D
:1021300008B5C82005F0B0FD04480022202106F0B3
:10214000A5F8BDE80840082006F0B0B8001002402D
:10215000014809F0DDB900BF90280020014807F0D0
:1021600005B800BF74260020014807F079BD00BF04
:10217000C8260020014805F05BBE00BF34260020C1
:102180000120704708B525F049FC162303604FF085
:10219000FF3008BD08B525F041FC16230360FEE7BB
:1021A00070B5161E07DD0C468D19AFF3008004F8DC
:1021B000010BA542F9D1304670BD00BF70B5161EA7
:1021C00007DD0C468D1914F8010BAFF30080AC420B
:1021D000F9D1304670BD00BF4FF0FF30704700BFEF
:1021E0004FF400534B600020704700BF0120704740
:1021F000002070470B4A08B50346106828B1034415
:1022000069468B4207D8136008BD07481060034435
:1022100069468B42F7D925F001FC0C2303604FF08F
:10222000FF3008BDD8280020F8430120704710B5C2
:102230000421044624F003FB204610BD08B5032901
:1022400013D8DFE801F002060A0E04F0C7FE0068AA
:1022500008BD04F0C3FE4068FAE704F0BFFE8068E2
:10226000F6E704F0BBFEC068F2E70020F0E70000EC
:1022700000487047788D02080D20704713B5002480
:1022800051B1036801948DF8034001AA9C680DF1D7
:102290000303A04702B010BD0846FBE7C0897047A2
:1022A000008A7047C088704780887047807A00F045
:1022B0007F007047807AC009704770477047704749
:1022C00070477047704730B50368018185B06D462F
:1022D0000146D3F8843004462846984795E807001D
:1022E0003C3484E8070005B030BD30B50368418157
:1022F00085B06D460146D3F8843004462846984799
:1023000095E807003C3484E8070005B030BD0022A2
:10231000028042808280C280704780F83610704709
:1023200070B5036804461B6B154698472368294619
:1023300020465B6EBDE87040184700207047806CF7
:10234000704770477047704730B4C2684468551092
:10235000034604EB6200D20748BF62599B6830BC59
:1023600048BFD358184743682BB183682BB9C0685E
:1023700000F001007047184670470120704710B503
:102380000821044624F05BFA204610BD10B54C210C
:10239000044624F054FA204610BD10B5102104461E
:1023A00024F04DFA204610BD10B5034B03600446DF
:1023B0000FF0E4FF204610BDE490020807B5074B7C
:1023C000036001900FF0DAFF019841F2F80124F068
:1023D00036FA019803B05DF804FB00BFE4900208F0
:1023E00008B5FEF747FF08BD036870B55E6B124B7A
:1023F0001B6804468DB22BB9104B114A6C21114851
:1024000025F00EF81049828D0988914203D80F4BB0
:102410000B4A6D21F3E713F812200D4B1B6853F89C
:10242000220003681B6B9847281A01B233462046E6
:10243000BDE87040184700BF143801207C8E0208A8
:10244000BE8E0208F98E020818380120408F02085B
:102450001C38012000F5FC70884208B505D111F048
:102460008FFCBDE8084000F07DBD08BD00224FF0A4
:10247000FF31C0E900218260704770B503680446EF
:102480001B6B154698472368294620465B6BBDE8C1
:102490007040184770B504461D46BDF91060FFF73F
:1024A000ECFF2368294620469B6B984723683146FA
:1024B0002046DB6BBDE87040184700000022C0E9F1
:1024C0000122C0E90322C0E90522C0E907224FF436
:1024D00080728284014A0260704700BFC48F020884
:1024E00010B526220446002125F09FF92046FFF76B
:1024F000E5FF0A4B23600A4BA3624FF6FF73A385E7
:102500004FF47F020023C4E90C324FF0FF32C4E9DC
:1025100010232387E363204610BD00BFFCB30208ED
:102520002C9002081A4B73B51B88018F8B4206460C
:102530002BD9184B1B682BB9174B184A18486C211C
:1025400024F06EFF13F81120164B1B6853F822502D
:10255000154B186804F032FD2B6801909B6B2846E0
:1025600098472B6801999B6C0446284698472B682E
:1025700001995B6A14FB00F428469847A4B223181B
:102580001BB2A6F8463002B070BD0023F9E700BFC9
:1025900018380120143801207C8E0208BE8E0208F3
:1025A000F98E02081C380120203801202DE9F04F57
:1025B0002DED048B04468DB0A346002513F060F882
:1025C000E14BE5634BF8403B26222946584625F06F
:1025D0002CF95846FFF772FF04F16C0AFF26DB4B1B
:1025E000236426224FF6FF73294684F8666050461E
:1025F000A566ADF8283025F018F95046FFF75EFFC4
:10260000D34BE366BDF82830A4F892300AA95046AF
:1026100004F1980984F894600EF0A9FE4846FFF78B
:102620005FFF04F1E407CB4BC4F89830C4F8E050E6
:1026300038460DF065FD04F5AA7318460393FEF7BE
:102640003FFEC54BC4F8543104F5B4782433C4F8C4
:102650005C31C4F860514046FFF742FF04F5D8737F
:10266000184608EE103AFFF73BFF04F5FC731846D6
:1026700008EE903A0EF0BCFF04F51073184609EE10
:10268000103A0EF0B5FF04F52273184609EE903AA1
:102690000EF0AEFFB14A04F58053C3E93A24B04AC4
:1026A0004FF46161C3E93C2504F536700FF05CFE20
:1026B0004FF4A0732A46584600932946F023FFF7AB
:1026C000E9FE261D4FF07F43A366594630460CF0C5
:1026D000BFF82A4650462946FFF7CFFE0923504649
:1026E0000AA9ADF828300EF042FE514630460CF0F3
:1026F000AFF84FF49A7256214846FFF7BEFED4F861
:102700009830A4F8CC500DF1100A4FF0FF3B504622
:10271000D3F88430C4F8C8B0494698479AE807000F
:1027200004F1D40383E807008E4B1B6804F5347A68
:102730002BB98D4B8D4A60218D4824F071FE8D4B55
:102740001B88022B03D88C4B884A6121F4E78B4B02
:102750000221186804F032FC894A034604215046DD
:1027600014F072FC4846C4F8E0A00EF005FA854B60
:102770000A930AA903234846ADF82C300EF01CFA40
:10278000494630460CF064F80A2300933222F023C5
:1027900029463846FFF77EFE039BC4F80C31A02281
:1027A00011463846C4F860B1A4F864B10DF0BEFD1E
:1027B000A0224FF4EB5138460DF0C3FDD4F8203180
:1027C000202B05D02023C4F8203138460DF0B8FC6A
:1027D000384601210DF0C0FD394630460CF038F87E
:1027E0004FF0FF3504AF242240464FF0000A452148
:1027F000FFF743FE41463846C4F89851A4F89CA11F
:102800000DF040FF97E8070008F13C0383E807005C
:10281000DFF87091CDF8289038230AA94046ADF82A
:102820002C300EF0C9F9414630460CF011F818EE84
:10283000100A0C223221FFF720FE18EE101A38463B
:10284000C4F8E051A4F8E4A10DF01CFF97E80700DC
:1028500018EE103A3C3383E80700372318EE100ACD
:102860000AA9ADF82C30CDF828900EF0A5F918EE95
:10287000101A30460BF0ECFF18EE900AF0222121DE
:10288000FFF7FBFD4FF003080AAA022709A918EE7B
:10289000900AADF82480ADF828700EF072FB362354
:1028A00018EE900AA4F83032FFF73CFE04F5875387
:1028B0000833C4F8203218EE901A3046C4E98D551A
:1028C0000BF0C6FF19EE100AAA222121FFF7D5FD51
:1028D0000AAA09A919EE100AADF82480ADF82870EB
:1028E0000EF04FFB3523A4F8783219EE100AFFF7EB
:1028F00019FE19EE101A3046C4E99F550BF0A8FFD7
:1029000019EE900A64222121FFF7B7FD0AAA09A94E
:1029100019EE900AADF82480ADF828700EF031FB66
:10292000342319EE900AA4F8C032FFF7FBFD3046BD
:10293000C4E9B15519EE901A0BF08AFF20460DB08C
:10294000BDEC048BBDE8F08FE49002088CB4020863
:1029500054B602083C900208C0B10208CC900208AC
:1029600055240008143801207C8E02087E8F02084E
:10297000F98E020818380120408F02082038012003
:10298000B68F02082C9002087047704700F59873C4
:102990000868496803C370477047704741607047D3
:1029A00010B50022B1F90840B1F90A100280428046
:1029B0008480C18010BD704770470000064BC0F88E
:1029C0004C310023C0F8503100F5A273C0F8480123
:1029D000C0F84031704700BF792D00080123037211
:1029E00070477047704770477047704701464068AE
:1029F000036810315B6E1847014640680368103168
:102A00001B6E1847704701464068036810315B6EC3
:102A1000184701464068036810311B6E184770471D
:102A200010B4C26841685410034601EB6200D2073B
:102A300048BF0A599B685DF8044B48BFD3581847F4
:102A400043682BB183682BB9C06800F00100704760
:102A5000184670470120704710B50C21044623F03A
:102A6000EEFE204610BD10B51021044623F0E7FE0F
:102A7000204610BD10B54FF4AE71044623F0DFFEC2
:102A8000204610BD10B53821044623F0D8FE20465C
:102A900010BD10B52821044623F0D1FE204610BDFC
:102AA00010B53821044623F0CAFE204610BD10B5EB
:102AB00011F066F90368BDE81040DB6B18470000B1
:102AC00013B50446807A637A0130C0B29842A0728E
:102AD00005D9012323720023A37202B010BDB4F9FB
:102AE0000C20002112F07EFF10F0010283B22AD1E7
:102AF000E081194AB4F90E00E3891288B4F9141080
:102B0000A0820020D21AADF80200606822835B1A0E
:102B1000124AADF804300368B2F900201B69ADF821
:102B20000010ADF8062069469847A37A012BD4D14E
:102B30000B4B1B78002BD0D011F022F902B0BDE86E
:102B4000104011F023B94FF6FF710028D8BF0A4694
:102B50001344E381CDE700BFB0370120B237012035
:102B6000BA37012010B50446D0F8400158B10368C7
:102B7000DB68984738B1D4F8400103689B689847F0
:102B80000023C4F8403110BD2DE9F14FD0E9555A6A
:102B90000746A86803681B6A9847972805D8464BDC
:102BA000464AA321464824F03BFC686803681B6A38
:102BB00098470F2803D8434B404AA421F2E7E8681E
:102BC00003681B6A98470B2803D83F4B3B4AA52153
:102BD000E8E711F0D5F8DFF8F890043011F036F995
:102BE000D9F8000010B10368DB689847D9F80000F5
:102BF00010B103681B689847DFF8D880D8F8000048
:102C000010B103685B699847D7F83C0110B10368BD
:102C10005B689847D8F8000010B103681B689847B4
:102C2000D7F83C0110B103689B689847E8680368CF
:102C300000215B6A98474FF0000B244B0360044669
:102C4000C0F804B080F808B0A868036859465B6A09
:102C50009847064604F058FD6868036859465B6A61
:102C600098473146054604F02BFDC9F80040C7F8E7
:102C70003C51C8F80060E5B12B1DCAF8003033683C
:102C8000C5F808A03046DB68F56398472B682846EE
:102C90001B6898472146304612F09EFE2368204666
:102CA0001B69984723685B69204601B0BDE8F04F77
:102CB00018472B46E1E700BF109102089E910208D9
:102CC000AC920208F39202089693020848A4020804
:102CD000043801200038012037B50446807A637A31
:102CE0000130C0B29842A07205D90123237200239B
:102CF000A37203B030BDB4F90C20002112F072FEB3
:102D000010F0010283B228D1E081184B18481988CD
:102D1000258BE389B0F90000ADF80600CA1A606897
:102D20002B445B1A12B2ADF8043003682283ADF86D
:102D3000002000221B69ADF8022069469847A37A5B
:102D4000012BD6D10B4B1B78002BD2D011F018F8E9
:102D500003B0BDE8304011F019B84FF6FF710028FC
:102D6000D8BF0A461344E381CFE700BFB037012044
:102D7000B2370120BA3701202DE9F14FD0E9555A79
:102D80000746A86803681B6A984741F27B1398427C
:102D900005D8464B464AA321464824F041FB6868C3
:102DA00003681B6A98470F2803D8434B404AA42165
:102DB000F2E7E86803681B6A98470B2803D83F4B83
:102DC0003B4AA521E8E710F0DBFFDFF8F89004307C
:102DD00011F03CF8D9F8000010B10368DB6898479F
:102DE000D9F8000010B103681B689847DFF8D88055
:102DF000D8F8000010B103685B699847D7F83C0128
:102E000010B103685B689847D8F8000010B10368F8
:102E10001B689847D7F83C0110B103689B68984736
:102E2000E868036800215B6A98474FF0000B244B69
:102E300003600446C0F804B080F808B0A8680368CE
:102E400059465B6A9847064604F09CF9686803682F
:102E500059465B6A98473146054604F06DF9C9F852
:102E60000040C7F83C51C8F80060E5B12B1DCAF816
:102E700000303368C5F808A03046DB68F563984732
:102E80002B6828461B6898472146304612F0A4FD5F
:102E9000236820461B69984723685B69204601B078
:102EA000BDE8F04F18472B46E1E700BF109102083C
:102EB00039940208AC920208F39202089693020831
:102EC00048A402080438012000380120044B1B6884
:102ED00093F858200AB1D86C00B99868704700BFC1
:102EE000BC370120F8B5044617460E4611F07CF8B1
:102EF000104B1C60104B2360104B0025C4E951356A
:102F00000F4BC4E953551868036801219B68C4E955
:102F10004F55C4E955769847284604F013F8FFF753
:102F2000D5FF1AF032FAFFF7D1FF1AF0A9FA2046BE
:102F3000F8BD00BF10380120F4A30208DCA302088A
:102F4000BC370120064BC0F84C310023C0F850318B
:102F500000F5A273C0F84801C0F84031704700BFC7
:102F6000792D0008064BC0F84C310023C0F85031D1
:102F700000F5A273C0F84801C0F84031704700BFA7
:102F8000E9330008064BC0F84C310023C0F850313B
:102F900000F5A273C0F84801C0F84031704700BF87
:102FA0008D3F0008064BC0F84C310023C0F850316B
:102FB00000F5A273C0F84801C0F84031704700BF67
:102FC000A9320008064BC0F84C310023C0F850313C
:102FD00000F5A273C0F84801C0F84031704700BF47
:102FE0004D3E0008064BC0F84C310023C0F850316C
:102FF00000F5A273C0F84801C0F84031704700BF27
:103000000D3D0008064BC0F84C310023C0F850318C
:1030100000F5A273C0F84801C0F84031704700BF06
:10302000CD3B0008064BC0F84C310023C0F85031AE
:1030300000F5A273C0F84801C0F84031704700BFE6
:103040008D3A0008064BC0F84C310023C0F85031CF
:1030500000F5A273C0F84801C0F84031704700BFC6
:1030600069310008064BC0F84C310023C0F85031DC
:1030700000F5A273C0F84801C0F84031704700BFA6
:103080004D390008064BC0F84C310023C0F85031D0
:1030900000F5A273C0F84801C0F84031704700BF86
:1030A0000D380008064BC0F84C310023C0F85031F1
:1030B00000F5A273C0F84801C0F84031704700BF66
:1030C000CD360008064BC0F84C310023C0F8503113
:1030D00000F5A273C0F84801C0F84031704700BF46
:1030E0008D350008064BC0F84C310023C0F8503134
:1030F00000F5A273C0F84801C0F84031704700BF26
:10310000892B000803685B6A18470000124B13B54F
:1031100003604FF480734363104B417203611049A5
:10312000104BB1F90010B3F90030838100224260E6
:1031300002728272C281C0E90522C0E90722C0E999
:103140000922C0E90B220446009110301146FFF716
:10315000A1F9204602B010BD90A4020874A3020891
:10316000B2370120B03701202DE9F047D0E9554AA8
:103170000746A06803681B6A9847B0F58A5F05D2C6
:10318000424B434AA321434824F04AF9606803684C
:103190001B6A98470F2803D83F4B3D4AA421F2E70A
:1031A000E06803681B6A9847372803D83B4B384AC6
:1031B000A521E8E710F0E4FDDFF8E490043010F01A
:1031C00045FED9F8000010B10368DB689847D9F8CC
:1031D000000010B103681B689847DFF8C880D8F872
:1031E000000010B103685B699847D7F83C0110B143
:1031F00003685B689847D8F8000010B103681B6843
:103200009847D7F83C0110B103689B689847E0687D
:103210000021FFF777FF14210546FFF777FFA0682D
:10322000036800215B6A9847064604F065F8606809
:10323000036800215B6A98473146044604F036F87B
:10324000C9F80050C7F83C41C8F80060DCB1231D44
:10325000CAF800303368C4F808A03046DB68F4636D
:103260009847236820461B6898472946304612F045
:10327000B3FB2B6828461B6998472B6828465B6977
:10328000BDE8F04718472346E2E700BF1091020867
:1032900041950208AC920208F39202089693020844
:1032A00004380120003801202DE9F047D0E9554AC3
:1032B0000746A06803681B6A9847B0F58A5F05D285
:1032C000424B434AA321434824F0AAF860680368AC
:1032D0001B6A98470F2803D83F4B3D4AA421F2E7C9
:1032E000E06803681B6A9847372803D83B4B384A85
:1032F000A521E8E710F044FDDFF8E490043010F079
:10330000A5FDD9F8000010B10368DB689847D9F82B
:10331000000010B103681B689847DFF8C880D8F830
:10332000000010B103685B699847D7F83C0110B101
:1033300003685B689847D8F8000010B103681B6801
:103340009847D7F83C0110B103689B689847E0683C
:103350000021FFF7D7FE14210546FFF7D7FEA0682E
:10336000036800215B6A9847064603F06BFF6068BC
:10337000036800215B6A98473146044603F03CFF2E
:10338000C9F80050C7F83C41C8F80060DCB1231D03
:10339000CAF800303368C4F808A03046DB68F4632C
:1033A0009847236820461B6898472946304612F004
:1033B00013FB2B6828461B6998472B6828465B69D6
:1033C000BDE8F04718472346E2E700BF1091020826
:1033D00071960208AC920208F392020896930208D2
:1033E00004380120003801202DE9F047D0E9554A82
:1033F0000746A06803681B6A984741F27B1398420E
:1034000005D8424B424AA321424824F009F860689B
:1034100003681B6A98470F2803D83F4B3C4AA421F6
:10342000F2E7E06803681B6A9847372803D83B4BEC
:10343000374AA521E8E710F0A3FCDFF8E490043058
:1034400010F004FDD9F8000010B10368DB6898475C
:10345000D9F8000010B103681B689847DFF8C480F2
:10346000D8F8000010B103685B699847D7F83C01B1
:1034700010B103685B689847D8F8000010B1036882
:103480001B689847D7F83C0110B103689B689847C0
:10349000E0680021FFF736FE14210546FFF736FEEF
:1034A000A068036800215B6A9847064603F06AFE3D
:1034B0006068036800215B6A98473146044603F060
:1034C0003BFEC9F80050C7F83C41C8F80060DCB1C9
:1034D000231DCAF800303368C4F808A03046DB6802
:1034E000F4639847236820461B689847294630466E
:1034F00012F072FA2B6828461B6998472B682846F9
:103500005B69BDE8F04718472346E2E710910208DF
:103510008F970208AC920208F39202089693020871
:10352000043801200038012003685B6A1847000056
:10353000124B13B503604FF480734363104B417219
:1035400003611049104BB1F90010B3F900308381C9
:103550000022426002728272C281C0E90522C0E983
:103560000722C0E90922C0E90B220446009110306D
:103570001146FEF78FFF204602B010BD6CA4020872
:1035800074A30208B2370120B03701202DE9F047BB
:10359000D0E9554A0746A06803681B6A984741F27C
:1035A000AF03984205D8424B424AA321424823F038
:1035B00037FF606803681B6A98470F2803D83F4BA2
:1035C0003C4AA421F2E7E06803681B6A9847372861
:1035D00003D83B4B374AA521E8E710F0D1FBDFF8D1
:1035E000E490043010F032FCD9F8000010B1036808
:1035F000DB689847D9F8000010B103681B6898474A
:10360000DFF8C480D8F8000010B103685B69984700
:10361000D7F83C0110B103685B689847D8F8000000
:1036200010B103681B689847D7F83C0110B10368D4
:103630009B689847E0680021FFF776FF1421054654
:10364000FFF776FFA068036800215B6A984706468B
:1036500004F002F86068036800215B6A984731460D
:10366000044603F0D3FFC9F80050C7F83C41C8F83E
:103670000060DCB1231DCAF800303368C4F808A02C
:103680003046DB68F4639847236820461B689847F8
:103690002946304612F0A0F92B6828461B69984746
:1036A0002B6828465B69BDE8F04718472346E2E7E8
:1036B00010910208A9980208AC920208F39202083D
:1036C0009693020804380120003801202DE9F047C4
:1036D000D0E9554A0746A06803681B6A984741F23B
:1036E000F703984205D8424B424AA321424823F0AF
:1036F00097FE606803681B6A98470F2803D83F4B02
:103700003C4AA421F2E7E06803681B6A984737281F
:1037100003D83B4B374AA521E8E710F031FBDFF82F
:10372000E490043010F092FBD9F8000010B1036867
:10373000DB689847D9F8000010B103681B68984708
:10374000DFF8C480D8F8000010B103685B699847BF
:10375000D7F83C0110B103685B689847D8F80000BF
:1037600010B103681B689847D7F83C0110B1036893
:103770009B689847E0680021FFF7D6FE14210546B4
:10378000FFF7D6FEA068036800215B6A98470646EB
:1037900003F070FC6068036800215B6A984731465B
:1037A000044603F041FCC9F80050C7F83C41C8F892
:1037B0000060DCB1231DCAF800303368C4F808A0EB
:1037C0003046DB68F4639847236820461B689847B7
:1037D0002946304612F000F92B6828461B699847A5
:1037E0002B6828465B69BDE8F04718472346E2E7A7
:1037F00010910208C9990208AC920208F3920208DB
:103800009693020804380120003801202DE9F04782
:10381000D0E9554A0746A06803681B6A984741F2F9
:10382000E333984205D8424B424AA321424823F051
:10383000F7FD606803681B6A98470F2803D83F4B61
:103840003C4AA421F2E7E06803681B6A98473728DE
:1038500003D83B4B374AA521E8E710F091FADFF88F
:10386000E490043010F0F2FAD9F8000010B10368C7
:10387000DB689847D9F8000010B103681B689847C7
:10388000DFF8C480D8F8000010B103685B6998477E
:10389000D7F83C0110B103685B689847D8F800007E
:1038A00010B103681B689847D7F83C0110B1036852
:1038B0009B689847E0680021FFF736FE1421054613
:1038C000FFF736FEA068036800215B6A984706464A
:1038D00003F096FD6068036800215B6A98473146F3
:1038E000044603F067FDC9F80050C7F83C41C8F82A
:1038F0000060DCB1231DCAF800303368C4F808A0AA
:103900003046DB68F4639847236820461B68984775
:103910002946304612F060F82B6828461B69984704
:103920002B6828465B69BDE8F04718472346E2E765
:1039300010910208E79A0208AC920208F39202087A
:103940009693020804380120003801202DE9F04741
:10395000D0E9554A0746A06803681B6A984741F2B8
:10396000E333984205D8424B424AA321424823F010
:1039700057FD606803681B6A98470F2803D83F4BC0
:103980003C4AA421F2E7E06803681B6A984737289D
:1039900003D83B4B374AA521E8E710F0F1F9DFF8EF
:1039A000E490043010F052FAD9F8000010B1036826
:1039B000DB689847D9F8000010B103681B68984786
:1039C000DFF8C480D8F8000010B103685B6998473D
:1039D000D7F83C0110B103685B689847D8F800003D
:1039E00010B103681B689847D7F83C0110B1036811
:1039F0009B689847E0680021FFF796FD1421054673
:103A0000FFF796FDA068036800215B6A98470646A9
:103A100003F0B4FC6068036800215B6A9847314694
:103A2000044603F085FCC9F80050C7F83C41C8F8CB
:103A30000060DCB1231DCAF800303368C4F808A068
:103A40003046DB68F4639847236820461B68984734
:103A50002946304611F0C0FF2B6828461B6998475D
:103A60002B6828465B69BDE8F04718472346E2E724
:103A7000109102082B9C0208AC920208F3920208F3
:103A80009693020804380120003801202DE9F04700
:103A9000D0E9554A0746A06803681B6A9847B0F505
:103AA0008A5F05D2424B434AA321434823F0B8FC26
:103AB000606803681B6A98470F2803D83F4B3D4A4C
:103AC000A421F2E7E06803681B6A9847372803D807
:103AD0003B4B384AA521E8E710F052F9DFF8E490B3
:103AE000043010F0B3F9D9F8000010B10368DB68B6
:103AF0009847D9F8000010B103681B689847DFF8B1
:103B0000C880D8F8000010B103685B699847D7F8FF
:103B10003C0110B103685B689847D8F8000010B109
:103B200003681B689847D7F83C0110B103689B688D
:103B30009847E0680021FFF7F7FC14210546FFF7DE
:103B4000F7FCA068036800215B6A9847064603F00B
:103B5000D3FB6068036800215B6A984731460446DE
:103B600003F0A4FBC9F80050C7F83C41C8F8006056
:103B7000DCB1231DCAF800303368C4F808A0304611
:103B8000DB68F4639847236820461B6898472946FA
:103B9000304611F021FF2B6828461B6998472B6897
:103BA00028465B69BDE8F04718472346E2E700BFB7
:103BB000109102086B9D0208AC920208F392020871
:103BC0009693020804380120003801202DE9F047BF
:103BD000D0E9554A0746A06803681B6A984741F236
:103BE000E333984205D8424B424AA321424823F08E
:103BF00017FC606803681B6A98470F2803D83F4B7F
:103C00003C4AA421F2E7E06803681B6A984737281A
:103C100003D83B4B374AA521E8E710F0B1F8DFF8AD
:103C2000E490043010F012F9D9F8000010B10368E4
:103C3000DB689847D9F8000010B103681B68984703
:103C4000DFF8C480D8F8000010B103685B699847BA
:103C5000D7F83C0110B103685B689847D8F80000BA
:103C600010B103681B689847D7F83C0110B103688E
:103C70009B689847E0680021FFF756FC1421054631
:103C8000FFF756FCA068036800215B6A9847064668
:103C900003F07CFC6068036800215B6A984731464A
:103CA000044603F04DFCC9F80050C7F83C41C8F881
:103CB0000060DCB1231DCAF800303368C4F808A0E6
:103CC0003046DB68F4639847236820461B689847B2
:103CD0002946304611F080FE2B6828461B6998471C
:103CE0002B6828465B69BDE8F04718472346E2E7A2
:103CF000109102089B9E0208AC920208F3920208FF
:103D00009693020804380120003801202DE9F0477D
:103D1000D0E9554A0746A06803681B6A984741F2F4
:103D2000E333984205D8424B424AA321424823F04C
:103D300077FB606803681B6A98470F2803D83F4BDE
:103D40003C4AA421F2E7E06803681B6A98473728D9
:103D500003D83B4B374AA521E8E710F011F8DFF80C
:103D6000E490043010F072F8D9F8000010B1036844
:103D7000DB689847D9F8000010B103681B689847C2
:103D8000DFF8C480D8F8000010B103685B69984779
:103D9000D7F83C0110B103685B689847D8F8000079
:103DA00010B103681B689847D7F83C0110B103684D
:103DB0009B689847E0680021FFF7B6FB1421054691
:103DC000FFF7B6FBA068036800215B6A98470646C8
:103DD00003F09AFB6068036800215B6A98473146EC
:103DE000044603F06BFBC9F80050C7F83C41C8F823
:103DF0000060DCB1231DCAF800303368C4F808A0A5
:103E00003046DB68F4639847236820461B68984770
:103E10002946304611F0E0FD2B6828461B6998477B
:103E20002B6828465B69BDE8F04718472346E2E760
:103E300010910208DD9F0208AC920208F39202087A
:103E40009693020804380120003801202DE9F0473C
:103E5000D0E9554A0746A06803681B6A9847B0F541
:103E60008A5F05D2424B434AA321434823F0D8FA44
:103E7000606803681B6A98470F2803D83F4B3D4A88
:103E8000A421F2E7E06803681B6A9847372803D843
:103E90003B4B384AA521E8E70FF072FFDFF8E490CA
:103EA00004300FF0D3FFD9F8000010B10368DB68CD
:103EB0009847D9F8000010B103681B689847DFF8ED
:103EC000C880D8F8000010B103685B699847D7F83C
:103ED0003C0110B103685B689847D8F8000010B146
:103EE00003681B689847D7F83C0110B103689B68CA
:103EF0009847E0680021FFF717FB14210546FFF7FC
:103F000017FBA068036800215B6A9847064603F028
:103F1000B9FA6068036800215B6A98473146044635
:103F200003F08AFAC9F80050C7F83C41C8F80060AD
:103F3000DCB1231DCAF800303368C4F808A030464D
:103F4000DB68F4639847236820461B689847294636
:103F5000304611F041FD2B6828461B6998472B68B5
:103F600028465B69BDE8F04718472346E2E700BFF3
:103F7000109102081FA10208AC920208F3920208F5
:103F80009693020804380120003801202DE9F047FB
:103F9000D0E9554A0746A06803681B6A9847B0F500
:103FA0008A5F05D2424B434AA321434823F038FAA3
:103FB000606803681B6A98470F2803D83F4B3D4A47
:103FC000A421F2E7E06803681B6A9847372803D802
:103FD0003B4B384AA521E8E70FF0D2FEDFF8E4902A
:103FE00004300FF033FFD9F8000010B10368DB682C
:103FF0009847D9F8000010B103681B689847DFF8AC
:10400000C880D8F8000010B103685B699847D7F8FA
:104010003C0110B103685B689847D8F8000010B104
:1040200003681B689847D7F83C0110B103689B6888
:104030009847E0680021FFF777FA14210546FFF75B
:1040400077FAA068036800215B6A9847064603F088
:10405000F9F86068036800215B6A984731460446B6
:1040600003F0CAF8C9F80050C7F83C41C8F800602E
:10407000DCB1231DCAF800303368C4F808A030460C
:10408000DB68F4639847236820461B6898472946F5
:10409000304611F0A1FC2B6828461B6998472B6815
:1040A00028465B69BDE8F04718472346E2E700BFB2
:1040B000109102084BA20208AC920208F392020887
:1040C000969302080438012000380120806A704766
:1040D0007047704710B54FF46271044622F0AFFB91
:1040E000204610BD2DE9F04F4FF480738046002626
:1040F0002DED028B8384B34B8662C0E90166C0E973
:104100000366C0E90566C0E9076648F82C3B8BB03A
:1041100004464046FEF7E4F904F1740304F1BC0BD5
:104120001846039304F5827AFEF7DAF95846FEF74B
:10413000D7F904F5A879A44D5046FEF7D1F9C4F893
:104140000451C4F84C614846FEF7CAF904F5CE7331
:1041500004F5F4771846C4F85051C4F8986108EE95
:10416000103AFEF7BDF9C4F89C51C4F8E461384632
:104170000CF0C0FD954AA26040466D22D92104ADE5
:10418000FEF77BF94FF0FF33E36541462846A4F87C
:1041900060600CF077FA95E8070004F1680C8CE891
:1041A00007008B4B08931D2208A94046ADF8242038
:1041B0000CF002FD414620460AF04AFB039B3146C3
:1041C00018466D22FEF759F9039BA4F8A8604FF03A
:1041D000FF32C4F8A420194628460CF053FA95E89B
:1041E00007007B4B0893039B04F1B00C8CE807009D
:1041F0001E2208A91846ADF824200CF0DDFC039B14
:10420000204619460AF024FB324658467121FEF733
:1042100034F94FF0FF32C4F8EC2059462846A4F890
:10422000F0600CF02FFA95E8070004F1F80383E83A
:104230000700674B089308A91F235846ADF82430A0
:104240000CF0BAFC594620460AF002FB50467C228C
:104250004C21FEF712F9D4F80431A4F838614FF07C
:10426000FF32C4F8342151462846D3F884309847A9
:1042700095E8070004F5A07383E807004FF01C08D9
:10428000534B089308A95046ADF824800CF094FCD9
:10429000514620460AF0DCFA48468B225621FEF7AA
:1042A000ECF8D4F85031A4F884614FF0FF32C4F830
:1042B000802149462846D3F88430984795E807007E
:1042C00004F5C67383E80700414B089308A91B2334
:1042D0004846ADF824300CF06FFC494620460AF001
:1042E000B7FA18EE100A9A225621FEF7C6F8D4F84B
:1042F0009C31A4F8D0614FF0FF3218EE101AC4F8C8
:10430000CC212846D3F88430984795E8070004F577
:10431000EC7383E807002E4B089318EE100A1A235B
:1043200008A9ADF824300CF047FC18EE101A20460E
:104330000AF08EFA042308A93846ADF820300AF0B6
:1043400019FA122241463846FEF797F8D4F8E831B8
:1043500038469B6BB8219847D4F8E8313846DB6B78
:104360006A2198475C22114638460CF06EFD3846AB
:104370005A226FF059010CF0EDFD33465A223846AF
:1043800000966FF059010AF0A2F8314638460CF059
:104390008BFD35230822384605210CF041FD3846B7
:1043A00001210CF0DFFC384601210CF0DEFC204638
:1043B00039460AF04DFA20460BB0BDEC028BBDE841
:1043C000F08F00BFB4A402083C900208F000A900DE
:1043D0002C900208406A7047806A704770478B884B
:1043E000C0690A68DB0A50F823001044704710B512
:1043F000C2B1137BB3B1547BD27A240204F4E064DB
:104400001443026A98B202EB840213888B4202D1F1
:1044100092F9020010BD05D8013880B2043200289C
:10442000F3D1F7E70020F5E710B52C21044622F080
:1044300006FA204610BD000030B58BB00446BDF82A
:1044400060500895BDF85C5007959DF85050069552
:104450009DF84C5005959DF8485004959DF84450A2
:1044600003959DF8405002959DF83C500195BDF88C
:104470003850009510F01AFE064B2360159BE3613F
:10448000169B2362199B63621A9BA36220460BB0A2
:1044900030BD00BF48A502087047704730B4C268FD
:1044A00044685510034604EB6200D20748BF6259C6
:1044B0009B6830BC48BFD358184743682BB183680A
:1044C0002BB9C06800F00100704718467047012002
:1044D000704710B51021044622F0B1F9204610BDF6
:1044E00010B5034B036004460DF048FF204610BD95
:1044F000C0A5020807B5074B036001900DF03EFF11
:10450000019841F27C1122F09AF9019803B05DF80C
:1045100004FB00BFC0A5020838B500F5347399420A
:1045200004460D4603D10FF02BFCFEF72BFD04F5DE
:1045300022739D4203D10FF023FCFEF7B3FD04F577
:1045400010739D4203D10FF01BFCFEF7BBFD04F579
:104550004674A5420AD106480022202103F096FEA7
:104560000FF00EFCBDE83840FEF7BCBD38BD00BF03
:10457000001002402DE9F04F2DED068B04468FB060
:10458000A346002511F07CF86A4BE5634BF8403BED
:1045900026222946584623F048F95846FDF78EFF53
:1045A00004F16C0AFF26644B236426224FF6FF7346
:1045B000294684F866605046A566ADF8303023F091
:1045C00034F95046FDF77AFF5C4BE366BDF83030B6
:1045D000A4F892300CA9504604F1980984F894602C
:1045E0000CF0C5FE4846FDF77BFF04F1E407544B91
:1045F000C4F89830C4F8E05038460BF081FD04F55B
:10460000AA7318460393FCF75BFE4E4BC4F8543173
:1046100004F5B4782433C4F85C31C4F860514046E2
:10462000FDF75EFF04F5D873184608EE103AFDF763
:1046300057FF04F5FC73184608EE903AFDF750FF5B
:1046400004F51073184609EE103A0CF0D1FF04F58A
:104650002273184609EE903A0CF0CAFF04F5347341
:1046600018460AEE103A0CF0C3FF04F546731846DC
:104670000AEE903A0CF054FE334A04F58053C3E935
:104680005B24324A4FF46161C3E95D2504F557703C
:104690000DF06AFE4FF4A0732A465846009329464F
:1046A000F023FDF7F7FE261D4FF07F43A366594622
:1046B00030460AF0CDF82A4650462946FDF7DDFE81
:1046C000092350460CA9ADF830300CF050FE51468D
:1046D00030460AF0BDF84FF49A7256214846FDF76D
:1046E000CCFED4F89830A4F8CC500DF1100A4FF05D
:1046F000FF3B5046D3F88430C4F8C8B049469847C9
:104700009AE8070004F1D40383E80700104B1B6804
:1047100004F5557A2BB90F4B0F4A60210F4822F050
:104720007FFE0F4B1B88182B1ED80E4B0A4A6121A7
:10473000F4E700BFC0A502088CB4020854B6020812
:104740003C900208C0B10208A8A50208194500085B
:10475000143801207C8E02087E8F0208F98E020830
:1047600018380120408F0208A54B1821186802F064
:1047700025FCA44A03460421504612F065FC484635
:10478000C4F8E0A00CF0F8F99F4B0C930CA9192386
:104790004846ADF834300CF00FFA494630460AF07E
:1047A00057F80A2300933222F02329463846FDF7B2
:1047B00071FE039BC4F80C31A02211463846C4F8A0
:1047C00060B1A4F864B10BF0B1FDA0224FF4EB513D
:1047D00038460BF0B6FDD4F82031202B05D020232D
:1047E000C4F8203138460BF0ABFC384601210BF001
:1047F000B3FD3946304604AD4FF0FF370AF028F8D4
:104800004FF0000A242240464521FDF736FE41467E
:104810002846C4F89871A4F89CA10BF033FF95E8E2
:1048200007000DF1300908F13C0383E80700DFF8C9
:10483000D8B1CDF830B03E2349464046ADF83430CB
:104840000CF0BAF9414630460AF002F818EE100AA8
:104850000C223221FDF711FE18EE101A2846C4F87A
:10486000E071A4F8E4A10BF00DFF95E8070018EE45
:10487000103A3C3383E807003F2318EE100A4946FC
:10488000ADF83430CDF830B00CF096F918EE101ABF
:10489000304609F0DDFF18EE900A3C225821FDF762
:1048A000ECFD18EE901A2846C4F82872A4F82CA241
:1048B0000BF0E8FE95E8070018EE903A3C3383E8E9
:1048C0000700082318EE900A4946ADF83430CDF8B9
:1048D00030B00CF071F918EE901A304609F0B8FFBC
:1048E00019EE100AF0222121FDF7C7FD4FF0030B4E
:1048F0004A464FF002080BA919EE100AADF82CB089
:10490000ADF8308004F58B550CF03BFB4023A4F848
:1049100078320C3519EE100AFDF704FE19EE101A64
:104920003046C4E99F77C4F8685209F091FF19EE48
:10493000900AAA222121FDF7A0FD4A460BA919EEF3
:10494000900AADF82CB0ADF830800CF01AFB412382
:10495000A4F8C03219EE900AFDF7E4FD19EE901AA2
:104960003046C4E9B177C4F8B05209F071FF1AEECD
:10497000100A64222121FDF780FD4A460BA91AEE98
:10498000100AADF82CB0ADF830800CF0FAFA4223E2
:10499000A4F808331AEE100AFDF7C4FD1AEE101A37
:1049A0003046C4E9C377C4F8F85209F051FF1AEE53
:1049B000900A0522C621FDF760FD0123ADF82830DD
:1049C0000A231AEE900AADF82C30ADF830300AAA5E
:1049D0000BAB09A9CDF80090ADF824A00CF00BFCAE
:1049E00030461AEE901AC4F850A3C4F8405309F0A8
:1049F0002FFF20460FB0BDEC068BBDE8F08F00BF47
:104A000020380120B68F02082C90020870477047AA
:104A100030B4C26844685510034604EB6200D20704
:104A200048BF62599B6830BC48BFD3581847436899
:104A30002BB183682BB9C06800F00100704718469D
:104A400070470120704710B51021044621F0F7FE91
:104A5000204610BD10B5034B036004460DF08EFCDC
:104A6000204610BD0CA6020807B5074B0360019055
:104A70000DF084FC01984FF48A5121F0E0FE01987A
:104A800003B05DF804FB00BF0CA6020838B500F5C2
:104A90001073994204460D4603D10FF071F9FEF7E9
:104AA00061FA04F534739D4203D10FF069F9FEF702
:104AB00089FA04F52274A54205D10FF061F9BDE829
:104AC0003840FEF7AFBA38BD2DE9F04F2DED068B1B
:104AD00004468DB0A346002510F0D2FD674BE56378
:104AE0004BF8403B26222946584622F09EFE584667
:104AF000FDF7E4FC04F16C0AFF26614B23642622D7
:104B00004FF6FF73294684F866605046A566ADF8F7
:104B1000283022F08AFE5046FDF7D0FC594BE36660
:104B2000BDF82830A4F892300AA9504604F198093B
:104B300084F894600CF01BFC4846FDF7D1FC524B06
:104B4000C4F8983004F1E4031846C4F8E05004F5C2
:104B5000967708EE903AFDF7C3FC38460BF0D0FA92
:104B600004F5CE7318460393FCF7AAFB474BC4F831
:104B70009C3104F5D8782433C4F8A431C4F8A85182
:104B80004046FDF7ADFC04F5FC73184608EE103AFC
:104B9000FDF7A6FC04F51073184609EE103A0CF068
:104BA00027FD04F52273184609EE903A0CF020FD1B
:104BB00004F5347318460AEE103A0CF019FD344A25
:104BC00004F58053C3E94C24324A4FF46161C3E9D0
:104BD0004E2504F548700DF0C7FB4FF4A0732A462C
:104BE000584600932946F023FDF754FC261D4FF04C
:104BF0007F43A3665946304609F02AFE2A465046AE
:104C00002946FDF73AFC092350460AA9ADF8283099
:104C10000CF0ADFB5146304609F01AFE4FF49A7283
:104C200056214846FDF729FCD4F89820A4F8CC502A
:104C30004FF0FF330DF1100BD2F88420C4F8C830C8
:104C40004946584690479BE8070004F1D40C8CE88D
:104C50000700114A126804F5467A09232AB90F4B56
:104C60000F4A60210F4822F0DBFB0F4A1288092A05
:104C70001ED80E4B0A4A6121F4E700BF0CA60208B9
:104C80008CB4020854B602083C900208C0B1020875
:104C9000F4A502088D4A0008143801207C8E020811
:104CA0007E8F0208F98E020818380120408F020812
:104CB0001946954B186802F081F9944A034604217D
:104CC000504612F0C1F9C4F8E0A048460BF054FF7A
:104CD000DFF83CA2CDF828A00A230AA94846ADF87F
:104CE0002C300BF069FF4946304609F0B1FD3C22FB
:104CF00018EE900A3921FDF7C0FB4FF0FF33C4F8DE
:104D0000143118EE901A5846A4F818510BF0BAFC5A
:104D10009BE8070004F5907C8CE80700172218EE4A
:104D2000900A0AA9ADF82C20CDF828A00BF044FF7A
:104D300018EE901A304609F08BFD0A2300933222B8
:104D4000F02329463846FDF7A5FB4FF0FF33A0229C
:104D5000C4F8A831A4F8AC31039BC4F8543111460F
:104D600038460BF0E3FAA0224FF4EB5138460BF033
:104D7000E8FAD4F86831202B05D02023C4F8683134
:104D800038460BF0DDF9384601210BF0E5FA3946DB
:104D9000304609F05DFD4FF0FF3504AF2422404658
:104DA0004FF0000A4521FDF768FB41463846C4F83C
:104DB000E051A4F8E4A10BF065FC97E8070008F1C6
:104DC0003C0383E80700DFF84891CDF828903C23A6
:104DD0000AA94046ADF82C300BF0EEFE41463046B5
:104DE00009F036FD18EE100A0C223221FDF745FBC2
:104DF00018EE101A3846C4F82852A4F82CA20BF06A
:104E000041FC97E8070018EE103A3C3383E80700AE
:104E10003D2318EE100A0AA9ADF82C30CDF82890E1
:104E20000BF0CAFE18EE101A304609F011FD19EE0B
:104E3000100AF0222121FDF720FB4FF003090AAAF6
:104E40004FF0020809A919EE100AADF82490ADF848
:104E5000288004F589570CF094F83B23A4F87832A5
:104E6000103719EE100AFDF75DFB19EE101A3046E7
:104E7000C4E99F55C4F8687209F0EAFC19EE900A7B
:104E8000AA222121FDF7F9FA0AAA09A919EE900A26
:104E9000ADF82490ADF828800CF073F83A23A4F80C
:104EA000C03219EE900AFDF73DFB19EE901A30461C
:104EB000C4E9B155C4F8B07209F0CAFC1AEE100A80
:104EC00064222121FDF7D9FA0AAA09A91AEE100ACB
:104ED000ADF82490ADF828800CF053F839231AEE81
:104EE000100AA4F80833FDF71DFB3046C4E9C3558A
:104EF0001AEE101AC4F8F87209F0AAFC20460DB098
:104F0000BDEC068BBDE8F08F20380120B68F02087B
:104F10002C9002087047704730B4C268446855103E
:104F2000034604EB6200D20748BF62599B6830BC5D
:104F300048BFD358184743682BB183682BB9C06862
:104F400000F001007047184670470120704710B507
:104F50001021044621F073FC204610BD10B5034B10
:104F6000036004460DF00AFA204610BD58A6020858
:104F700007B5074B036001900DF000FA01984FF45C
:104F80008A5121F05CFC019803B05DF804FB00BF7E
:104F900058A6020838B500F51073994204460D462C
:104FA00003D10EF0EDFEFDF7FDFF04F522739D42E7
:104FB00003D10EF0E5FEFEF765F804F53474A54262
:104FC00005D10EF0DDFEBDE83840FEF74BB838BD28
:104FD0002DE9F04F2DED068B04468DB0A34600253C
:104FE00010F04EFB664BE5634BF8403B262229460A
:104FF000584622F01AFC5846FDF760FA04F16C0A94
:10500000FF26604B236426224FF6FF73294684F85F
:1050100066605046A566ADF8283022F006FC504682
:10502000FDF74CFA584BE366BDF82830A4F89230EF
:105030000AA9504604F1980984F894600CF097F995
:105040004846FDF74DFA04F1E407504BC4F8983098
:10505000C4F8E05038460BF053F804F5AA7318462C
:105060000393FCF72DF94A4BC4F8543104F5B47896
:105070002433C4F85C31C4F860514046FDF730FA7F
:1050800004F5D873184608EE103AFDF729FA04F52E
:10509000FC73184608EE903AFDF722FA04F51073F7
:1050A000184609EE103A0CF0A3FA04F522731846DC
:1050B00009EE903A0CF09CFA04F5347318460AEEA7
:1050C000103A0CF095FA334A04F58053C3E94C24A6
:1050D000314A4FF46161C3E94E2504F548700DF083
:1050E00043F94FF4A0732A46584600932946F0230B
:1050F000FDF7D0F9261D4FF07F43A3665946304691
:1051000009F0A6FB2A4650462946FDF7B6F90923C1
:1051100050460AA9ADF828300CF029F9514630461E
:1051200009F096FB4FF49A7256214846FDF7A5F90F
:10513000D4F89830A4F8CC500DF1100A4FF0FF3B92
:105140005046D3F88430C4F8C8B0494698479AE826
:10515000070004F1D40383E80700104B1B6804F533
:10516000467A2BB90E4B0F4A60210F4822F058F9AE
:105170000E4B1B88042B1DD80D4B0A4A6121F4E706
:1051800058A602088CB4020854B602083C900208E3
:10519000C0B1020840A60208954F0008143801204B
:1051A0007C8E02087E8F0208F98E020818380120D2
:1051B000408F0208934B0421186801F0FFFE924AC9
:1051C00003460421504611F03FFF4846C4F8E0A0D2
:1051D0000BF0D2FC8D4B0A930AA905234846ADF883
:1051E0002C300BF0E9FC4946304609F031FB0A232C
:1051F00000933222F02329463846FDF74BF9039BF2
:10520000C4F80C31A02211463846C4F860B1A4F8A5
:1052100064B10BF08BF8A0224FF4EB5138460BF041
:1052200090F8D4F82031202B05D02023C4F8203169
:1052300038460AF085FF384601210BF08DF83946D3
:10524000304604AD4FF0FF3709F002FB4FF0000A83
:10525000242240464521FDF710F941462846C4F86E
:105260009871A4F89CA10BF00DFA95E8070008F1DD
:105270003C0383E80700DFF89491CDF828902A23B7
:105280000AA94046ADF82C300BF096FC414630465A
:1052900009F0DEFA18EE100A0C223221FDF7EDF8C3
:1052A00018EE101A2846C4F8E071A4F8E4A10BF037
:1052B000E9F995E8070018EE103A3C3383E8070057
:1052C000292318EE100A0AA9ADF82C30CDF8289041
:1052D0000BF072FC18EE101A304609F0B9FA18EE0D
:1052E000900A3C222121FDF7C8F818EE901A2846B2
:1052F000C4F82872A4F82CA20BF0C4F995E80700B2
:1053000018EE903A3C3383E80700132318EE900A16
:105310000AA9ADF82C30CDF828900BF04DFC18EE12
:10532000901A304609F094FA19EE100AF022212161
:10533000FDF7A3F84FF003090AAA4FF0020809A9E4
:1053400019EE100AADF82490ADF8288004F58955BF
:105350000BF017FE2823A4F87832103519EE100A46
:10536000FDF7E0F819EE101A3046C4E99F77C4F84B
:10537000685209F06DFA19EE900AAA222121FDF770
:105380007CF80AAA09A919EE900AADF82490ADF8A4
:1053900028800BF0F6FD2723A4F8C03219EE900AFE
:1053A000FDF7C0F819EE901A3046C4E9B177C4F899
:1053B000B05209F04DFA1AEE100A64222121FDF7CD
:1053C0005CF80AAA09A91AEE100AADF82490ADF803
:1053D00028800BF0D6FD26231AEE100AA4F8083315
:1053E000FDF7A0F83046C4E9C3771AEE101AC4F8E6
:1053F000F85209F02DFA20460DB0BDEC068BBDE841
:10540000F08F00BF20380120B68F02082C900208D0
:10541000704730B4C26844685510034604EB62001C
:10542000D20748BF62599B6830BC48BFD358184761
:1054300043682BB183682BB9C06800F00100704746
:10544000184670470120704710B51021044621F01E
:10545000F6F9204610BD00F50F7001F055BE9830EA
:10546000884208B505D10EF08BFCBDE80840FDF779
:10547000E9BD08BD10B5074B036004460CF07EFF84
:10548000054BC4F83C3204F50F70FEF721FE2046B0
:1054900010BD00BFA4A6020820AB020810B5044648
:1054A000FFF7E8FF204641F2E43121F0C8F9204639
:1054B00010BD00002DE9F04F2DED048B04468DB09A
:1054C000A146002510F0DCF8AC4BE56349F8403B01
:1054D00026222946484622F0A8F94846FCF7EEFF66
:1054E00004F16C08FF26A64B236426224FF6FF73B7
:1054F000294684F866604046A566ADF8283022F05B
:1055000094F94046FCF7DAFF9E4BE366BDF828307D
:10551000A4F892300AA9404684F894600BF027FF63
:1055200004F19803184608EE103A0CF061F804F103
:10553000E00304F59477184608EE903AFCF7D0FFA4
:1055400038460AF0DDFD04F5CC7318460393FBF7EB
:10555000B7FE8D4BC4F8983104F5D67B2433C4F8DC
:10556000A031C4F8A451584604F5FA7AFCF7B8FF04
:105570005046FCF7B5FF04F50F73184609EE103AD4
:1055800001F0B8FD814A04F58053C3E9F524804A4F
:105590004FF46161C3E9F72504F2C4500CF0E4FE56
:1055A0004FF4A0732A46484600932946F023FCF79F
:1055B00071FF261D4FF07F43A3664946304609F030
:1055C00047F92A4640462946FCF757FF092340463B
:1055D0000AA9ADF828300BF0CAFE4146304609F062
:1055E00037F918EE100A40F201122121FCF745FFAD
:1055F00003230AAA09A918EE100AADF824300223E1
:10560000ADF828300BF0BDFC0F2318EE100AA4F8FB
:10561000D030FCF787FF04F59E5314334FF0FF3969
:10562000C4F8C03018EE101A3046C4E9359909F0B4
:105630000FF90DF110083C2218EE900A1721FCF723
:105640001CFF18EE901A4046C4F81091A4F81451AB
:105650000BF018F898E8070004F58E7383E807004C
:105660004C4B0A9318EE900A10230AA9ADF82C307F
:105670000BF0A2FA18EE901A304609F0E9F80A2366
:1056800000933222F02329463846FCF703FF039BA0
:10569000C4F85031A02211463846C4F8A491A4F8A9
:1056A000A8910AF043FEA0224FF4EB5138460AF0CD
:1056B00048FED4F86431202B05D02023C4F864318F
:1056C00038460AF03DFD384601210AF045FE3946CC
:1056D000304609F0BDF80025242258464FF0FF3926
:1056E0004521FCF7CAFE59464046C4F8DC91A4F8AF
:1056F000E0510AF0C7FF98E807000BF13C0383E88C
:105700000700244F0A9711230AA95846ADF82C30F8
:105710000BF052FA5946304609F09AF80C225046DE
:105720003221FCF7AAFE51464046C4F82492A4F860
:1057300028520AF0A7FF98E807000AF13C0383E823
:10574000070012230AA95046ADF82C300A970BF037
:1057500033FA5146304609F07BF819EE100A4E2212
:105760002946FCF78AFE304619EE101A09F070F847
:1057700020460DB0BDEC048BBDE8F08FA4A6020856
:105780008CB4020854B60208C0B102088CA6020804
:105790005F5400082C900208704730B4C268446817
:1057A0005510034604EB6200D20748BF62599B685C
:1057B00030BC48BFD358184743682BB183682BB916
:1057C000C06800F00100704718467047012070471C
:1057D00010B51021044621F032F8204610BD00F526
:1057E0000F7001F091BC9830884208B505D10EF0D9
:1057F000C7FABDE80840FDF725BC08BD10B5074B4A
:10580000036004460CF0BAFD054BC4F83C3204F5C5
:105810000F70FEF75DFC204610BD00BFF0A6020829
:1058200020AB020810B50446FFF7E8FF204641F21E
:10583000E43121F004F8204610BD00002DE9F04FBE
:105840002DED048B04468DB0A14600250FF018FF06
:10585000AC4BE56349F8403B26222946484621F0F7
:10586000E4FF4846FCF72AFE04F16C08FF26A64B2D
:10587000236426224FF6FF73294684F8666040466B
:10588000A566ADF8283021F0D0FF4046FCF716FEA3
:105890009E4BE366BDF82830A4F892300AA9404632
:1058A00084F894600BF063FD04F19803184608EE49
:1058B000103A0BF09DFE04F1E00304F594771846CE
:1058C00008EE903AFCF70CFE38460AF019FC04F595
:1058D000CC7318460393FBF7F3FC8D4BC4F8983157
:1058E00004F5D67B2433C4F8A031C4F8A45158463B
:1058F00004F5FA7AFCF7F4FD5046FCF7F1FD04F5E7
:105900000F73184609EE103A01F0F4FB814A04F5D2
:105910008053C3E9F524804A4FF46161C3E9F72558
:1059200004F2C4500CF020FD4FF4A0732A46484600
:1059300000932946F023FCF7ADFD261D4FF07F4371
:10594000A3664946304608F083FF2A46404629466A
:10595000FCF793FD092340460AA9ADF828300BF067
:1059600006FD4146304608F073FF18EE100A40F27B
:1059700001122121FCF781FD03230AAA09A918EECF
:10598000100AADF824300223ADF828300BF0F9FAF4
:105990000B2318EE100AA4F8D030FCF7C3FD04F571
:1059A0009E5314334FF0FF39C4F8C03018EE101A6C
:1059B0003046C4E9359908F04BFF0DF110083C2240
:1059C00018EE900A1721FCF758FD18EE901A404681
:1059D000C4F81091A4F814510AF054FE98E8070096
:1059E00004F58E7383E807004C4B0A9318EE900A77
:1059F0000C230AA9ADF82C300BF0DEF818EE901A43
:105A0000304608F025FF0A2300933222F02329466E
:105A10003846FCF73FFD039BC4F85031A0221146E5
:105A20003846C4F8A491A4F8A8910AF07FFCA022FB
:105A30004FF4EB5138460AF084FCD4F86431202B43
:105A400005D02023C4F8643138460AF079FB384683
:105A500001210AF081FC3946304608F0F9FE0025A4
:105A6000242258464FF0FF394521FCF706FD5946E0
:105A70004046C4F8DC91A4F8E0510AF003FE98E82F
:105A800007000BF13C0383E80700244F0A970D231E
:105A90000AA95846ADF82C300BF08EF8594630461E
:105AA00008F0D6FE0C2250463221FCF7E6FC5146A7
:105AB0004046C4F82492A4F828520AF0E3FD98E87E
:105AC00007000AF13C0383E807000E230AA95046A9
:105AD000ADF82C300A970BF06FF85146304608F0BD
