:020000040800F2
:10000000000003204D060008CD230008D12300087E
:10001000D5230008D9230008DD23000800000000D4
:1000200000000000000000000000000001D40008F3
:10003000E12300080000000091D4000851CC000822
:100040009D0600089D0600089D0600089D06000804
:100050009D0600089D0600089D0600089D060008F4
:100060009D060008E52300089D0600089D0600087F
:10007000052400089D0600089D0600089D0600084E
:100080009D0600089D0600089D0600089D060008C4
:100090009D0600089D0600089D0600089D060008B4
:1000A0009D0600089D0600089D0600089D060008A4
:1000B000112400089D0600089D0600089D06000802
:1000C0009D0600089D0600089D0600089D06000884
:1000D0009D0600089D0600089D0600089D06000874
:1000E0009D0600089D0600089D0600089D06000864
:1000F0009D0600089D0600089D0600089D06000854
:100100009D0600089D0600089D0600089D06000843
:100110009D0600089D060008452400089D0600086D
:100120009D060008811C00089D0600089D06000829
:100130009D0600089D0600089D0600089D06000813
:100140009D0600089D0600089D0600089D06000803
:100150009D0600089D0600089D0600089D060008F3
:10016000512400089D0600089D0600089D06000811
:100170009D0600089D0600089D060008000000007E
:100180009D0600089D0600089D0600089D060008C3
:100190009D0600089D0600089D0600089D060008B3
:0C01A0005D2400089D0600089D06000874
:1001B00010B5054C237833B9044B13B10448AFF3A1
:1001C00000800123237010BD6801002000000000A2
:1001D00084AF020808B5034B1BB103490348AFF3D2
:1001E000008008BD000000006C01002084AF020800
:1001F0004B1C012B98BF70472DE9F003911C9B0805
:10020000B1F80480B1F802900A8831F802CC804439
:10021000814402448444D9F80070D8F8006015681D
:10022000DCF80040C9F80060C8F80070CCF8005055
:100230001460D9F80470D8F804605568DCF80440FC
:10024000C9F80460C8F80470CCF804505460083150
:10025000013BD5D1BDE8F00370474B1C012B98BF83
:1002600070472DE9F003911C9B08B1F80480B1F8A8
:1002700002900A8831F802CC00EB580800EB5909CB
:1002800000EB520200EB5C0CD9F80070D8F800606B
:100290001568DCF80040C9F80060C8F80070CCF8B8
:1002A000005014600831013BDFD1BDE8F003704716
:1002B00001F0FF01102A2BDB10F0070F08D010F817
:1002C000013B013A8B422DD010F0070F42B3F6D11B
:1002D000F0B441EA012141EA014122F007047FF034
:1002E00000070023F0E80256083C85EA010586EA8B
:1002F000010685FA47F5A3FA87F586FA47F6A5FAC7
:1003000087F68EB9EED1F0BC01F0FF0102F00702D2
:1003100032B110F8013B013A83EA010313B1F8D17D
:100320000020704701387047002D06BF354603385E
:10033000073815F0010F07D1013015F4807F02BF97
:10034000013015F4C03F0130F0BC0138704700BFE8
:1003500053B94AB9002908BF00281CBF4FF0FF312C
:100360004FF0FF3000F070B9ADF1080C6DE904CE2C
:1003700000F006F8DDF804E0DDE9022304B0704780
:100380002DE9F047089E0D4604460F46002B4AD142
:100390008A42944665D9B2FA82F343B102FA03FC69
:1003A000C3F120029F4020FA02F217439C404FEA1B
:1003B0001C4E1FFA8CF5B7FBFEF1220C0EFB1177D9
:1003C00042EA074201FB05F090420AD91CEB020207
:1003D00001F1FF3780F01C81904240F2198102390F
:1003E0006244121AA4B2B2FBFEF00EFB102244EAE1
:1003F000024400FB05F5A5420AD91CEB040400F1F8
:10040000FF3280F00781A54240F204816444023843
:1004100040EA0140641B00211EB1DC400023C6E914
:100420000043BDE8F0878B4208D9002E00F0ED8034
:100430000021C6E900050846BDE8F087B3FA83F15C
:10044000002949D1AB4202D3824200F2F880841ADB
:1004500065EB030201201746002EE2D0C6E90047F3
:10046000DFE702B9FFDEB2FA82F3002B40F09080A2
:100470008A1A4FEA1C471FFA8CFE0121B2FBF7F5DE
:1004800007FB1520220C42EA00420EFB05F09042C9
:1004900008D91CEB020205F1FF3802D2904200F2AB
:1004A000CB804546121AA4B2B2FBF7F007FB10222C
:1004B00044EA02440EFB00FEA64508D91CEB0404E6
:1004C00000F1FF3202D2A64500F2BB801046A4EB39
:1004D0000E0440EA05409FE7C1F120078B4022FA55
:1004E00007FC4CEA030C05FA01F420FA07F3FD407F
:1004F0004FEA1C492343B5FBF9F81FFA8CFE09FBB0
:1005000018551C0C44EA054408FB0EF5A54202FAF6
:1005100001F200FA01F00BD91CEB040408F1FF3AD8
:1005200080F08880A54240F28580A8F102086444EA
:10053000641B9DB2B4FBF9F309FB134445EA044480
:1005400003FB0EFEA64508D91CEB040403F1FF359E
:100550006CD2A6456AD9023B644443EA0843A3FB34
:100560000295A4EB0E04AC42C846AE4656D353D017
:1005700056B1B0EB080264EB0E0404FA07F7CA4068
:10058000CC401743C6E9007418460021BDE8F08747
:10059000C3F1200102FA03FC20FA01F225FA01F16D
:1005A0009D402A434FEA1C471FFA8CFEB1FBF7F02F
:1005B00007FB1015110C41EA054100FB0EF58D42B9
:1005C00004FA03F408D91CEB010100F1FF382FD223
:1005D0008D422DD902386144491B92B2B1FBF7F527
:1005E00007FB151142EA014205FB0EF1914208D9C1
:1005F0001CEB020205F1FF3816D2914214D9023DDC
:100600006244521A45EA004138E73146304608E76D
:100610003946E6E61046FBE64845A9D2B9EB0208A2
:1006200065EB0C0E013BA3E74546EAE72B4694E752
:100630004046D1E7D0467BE7023D624432E70846B8
:100640000AE76444023842E7704700BFDFF834D05D
:10065000002103E00C4B5B58435004310B480C4B1A
:1006600042189A42F6D30B4A02E0002342F8043BB8
:10067000094B9A42F9D308F001FD29F007FF00F079
:10068000D5FE70470000032070EA15080000002026
:100690006801002068010020943A0120FEE7000074
:1006A000704700BF08B500F0A9FBBDE8084000F0A6
:1006B00033BB00BF00F0A4BB704710B50421044653
:1006C00028F0CDFD204610BD38B50C4B0C4C1880E1
:1006D0000C4B822019806368984740F611039842BA
:1006E0000AD1094D23682C60822098472B6882200C
:1006F000DB689847002038BD0120FCE7840100201A
:100700005000002086010020880100204FF4A071D5
:10071000F020FFF7D9BF0000F7B5334D2B68044632
:100720001B698220984780B2208000284AD02B681D
:100730000DF106025B6901A982209847BDF80630D9
:1007400040F6746293423FD9ADF80620BDF80630FA
:10075000D21A92B20A2A3DD90B23B2FBF3F2234BF1
:100760001B889A4201D9013B9AB2BDF8043040F689
:10077000B8318B4230D8C3F571630E339BB20F2171
:10078000B3FBF1F31A4909888B4201D901398BB2C5
:10079000184E194D30682F68834281B28CBF591AA8
:1007A000C91AB8B2BA428CBF101A801A89B280B284
:1007B00001440529C8BF33603368C8BF2A6063801D
:1007C0002B68A38003B0F0BDB32B9CBFB423ADF85E
:1007D0000630BBE70022C8E7C3F56D6308339BB260
:1007E0000E2BCCD80023D3E78801002086010020FF
:1007F000840100208C0100209001002037B568465C
:100800000D461446FFF788FFBDF8000048B1BDF85B
:1008100002302B60BDF804302360034B3C221A6089
:10082000012003B030BD00BF1400002010B1022829
:1008300009D07047074B1A68B2FA82F252090421B4
:10084000054808F0A1BF034B9A68B2FA82F2520938
:100850001021F5E7940100200010024010B1022899
:1008600009D07047074B1A68003A18BF01220421CB
:10087000054808F089BF034B9A68003A18BF012267
:100880001021F5E7940100200010024010B1022869
:1008900004D070470421024808F07ABF1021FAE71B
:1008A0000010024008B530B1022809D00020431ED4
:1008B0005842584108BD0421024808F05FFFF6E79E
:1008C0001021F9E70010024070B5084D0024012600
:1008D000E0B2FFF7E7FF18B12B68012B18BF2E60BD
:1008E0000134052C05F10405F2D170BD94010020FE
:1008F000012380F8781080F8793070470020704725
:10090000034B4164003918BF01211970704700BFC3
:100910005B2E012000207047836B0BB108461847FF
:1009200070474FF6FF707047406803689B6918472F
:10093000704770477047000010B5044600F04CFB4C
:1009400023680349D3F88C302046BDE8104018478F
:10095000000000D008B503680446D3F880309847FB
:10096000236820469B6F984700F0ECF823682046E8
:100970001B6F9847292001F047F800F0E3F823683F
:1009800020461B6F9847F8E710B5044610F082F92F
:1009900023682046D3F8AC30BDE81040184700F07B
:1009A0000DBB00F011BB00F035BB00F0DDBA00F06C
:1009B000E3BA00F03BBB00F0E7BA0FF0D7BB10B5CD
:1009C0007C21044628F04BFC204610BD90F87A307C
:1009D0001BB1406803681B68184718467047000041
:1009E00010B590F8341090F878400C4B8C421A787F
:1009F00009D03AB90A4A0B491488088810800C803B
:100A000001221A7010BD002AFCD0054A054914883D
:100A1000088810800C800022F3E700BF542E0120CC
:100A2000502E0120522E012070B50D46194635B9C1
:100A3000094B0A4A0A4840F2D22129F023FAC0E9B8
:100A40000F52084B003A18BF01221A700368BDE824
:100A50007040D3F88C301847F4AF02082CB002086D
:100A60007AB002085A2E012008B5094B1B888B4228
:100A700003D8084B1B88934205D9074B074A0848FF
:100A80009E2129F0FFF9074B1980074B1A8008BDFA
:100A9000502E0120522E0120BFB0020822B10208C0
:100AA0007AB00208562E0120582E0120012108B5E7
:100AB000002208460CF060F90A4B186028B90A4B6E
:100AC0000A4A28210A4829F0DDF9002204210120E0
:100AD0000CF006FA074B186018B9074B034A2C2193
:100AE000F0E708BDA801002040B2020889B2020860
:100AF000B8B20208A401002032B30208024B4FF042
:100B0000FF3118680CF08CB9A8010020014B18685F
:100B10000CF0BAB9A8010020024B002118680CF0B3
:100B20007FB900BFA8010020FFF7F0BF03480449C8
:100B3000006800231A460CF00DBA00BFA401002083
:100B40000400002013B5084C00231A4601A92068B0
:100B50000CF036FA20684FF0FF33002201A90CF0A8
:100B60002FFA02B010BD00BFA40100207047002082
:100B700070477047704700207047704708B5034AB8
:100B8000034B0448222129F07DF900BF97B30208E6
:100B900074B30208D5B3020808B5034A034B0448EE
:100BA000272129F06FF900BF4DB4020874B3020881
:100BB000D5B3020810B54421044628F050FB204666
:100BC00010BD000038B5044621460025064B2572AD
:100BD0000C3060606572012241F8203B10F0B2F9E0
:100BE000E562204638BD00BF94B40208012070477A
:100BF00038207047382303FB010008307047382342
:100C000003FB0100083070470120704741F2F830C3
:100C1000704741F2F83303FB01000830704741F29E
:100C2000F83303FB010008307047012070471020A3
:100C3000704700EB01100830704700EB01100830DE
:100C40007047084602F0D6BE10B5034B0360044659
:100C50000EF015FE204610BD4CB5020810B5044636
:100C6000FFF7F2FF2046402128F0F9FA204610BD98
:100C700010B5034B036004460EF001FE204610BD84
:100C800018B5020810B50446FFF7F2FF20464FF4EE
:100C9000A05128F0E4FA204610BD000010B5034B27
:100CA000036004460EF0EBFD204610BDE4B40208DC
:100CB00010B50446FFF7F2FF2046182128F0CFFABE
:100CC000204610BD10B5094B0360044600F5A15045
:100CD0000C30FFF7B9FF04F12C00FFF7C9FF04F156
:100CE0001400FFF7DBFF204610BD00BF80B50208EF
:100CF00008B50248FFF7E6FF08BD00BFB0010020BD
:100D000010B50446FFF7DEFF204641F2D05128F02F
:100D1000A6FA204610BD00002DE9F34101F01CFCAD
:100D2000054601F01DFC00240146234628462246C4
:100D3000009417F01BFE264B264A274D1A602046CA
:100D400007F0FAF9254817F079FD2B68BFF35B8FA0
:100D5000DB0737D4284628F084FA98B3204C214B7F
:100D6000236004F1140004F12C0800F5A35608F5E3
:100D7000A0576060C4F80880E76026610EF080FD2F
:100D8000194B636140460EF07BFD184BE362384619
:100D90000EF076FD04F58053154AC3F82C2403F2B7
:100DA0006C4007F02BFE2246A6F10801304607F002
:100DB0001DFB304602F01EFE0E4829F081F8284641
:100DC00028F05BFA0C4802B0BDE8F041FFF7B4BD73
:100DD000C02E012044180020AC0100200800002093
:100DE000B001002080B50208E4B4020818B502087A
:100DF0004CB50208F10C0008C8170020704700002D
:100E00000148FFF7A7BD00BFC817002070B5224EEC
:100E1000224C234D234B23603046FFF7D3FE284658
:100E20001CF070F8204B2148DC6000224FF48071E8
:100E3000C3E912121E491A86C3E91A121D4999679D
:100E40001D4983F858200B60F02101801B485A6629
:100E500001801B4883F870204FF4A071C3E904227D
:100E6000C3E90622C3E90822C3E90A22C3E90E2224
:100E7000C3E91022C3E91422C3E917225A67C3E960
:100E8000016501800F4801800F490A70012283F833
:100E900034200E4A1A6070BD84170020801700208D
:100EA00048180020E4AF0208C8170020502E012087
:100EB00001000001000001015C2E0120562E0120DE
:100EC000522E0120582E0120542E012070B102080C
:100ED0000020704781807047C18070470181704752
:100EE000418170477047704770477047704710B432
:100EF000C4880368121B84885B6D091B12B25DF8FD
:100F0000044B09B218474FF6FF7383814FF0FF334C
:100F100003621368C3611060704790F825201AB10E
:100F200090F8242002B118607047002070478B8829
:100F3000838001207047704780F82610704790F832
:100F40002600704710B50022B1F90840B1F90A1027
:100F5000028042808480C18010BD002202804280D5
:100F60008280C28070470000024B902283F8582391
:100F7000704700BF00E100E0024B4FF080729A60C2
:100F8000704700BF00E100E0094A0A49D3680A48F7
:100F9000C3F30A03013B9BB20B801169C1F30A0141
:100FA000013901801364536B43F0010353637047AD
:100FB00000680140CE180020CC180020014BD3F867
:100FC000AC00704700680140024B0122C3F8AC102E
:100FD0005A6270470068014070B504460FF01BF973
:100FE00023685D6E14F0C4F801462046A8472368C4
:100FF000054AD3F888502046AC460023BDE870402F
:10100000A2F51631604700BF00B004D00FF0EAB877
:101010000FF0F4B80FF0B0B80FF011BA90F8252027
:1010200012B103685B69184770470000044B4FF02A
:101030008072C3F88820BFF34F8FBFF36F8F704764
:1010400000E100E070B50023124E8380124B036074
:10105000336893F8582005460AB1D86C00B99868EF
:101060000368DB6A98473368B0FA80F4D86C640987
:1010700030B10368DB6A9847002808BF44F00104D8
:101080002CB9064B064A07482C2128F0FBFE2846BF
:1010900070BD00BF5C2E012090B602088CB502081E
:1010A000EAB5020823B60208704700002DE9F041B6
:1010B000FF2BBDF8184000EB410105D120F8024B91
:1010C0008142FBD8BDE8F081174F04F4FC6604EAC6
:1010D000070C04F01F0403FB0CFC5E435C43DB4382
:1010E000DBB2FF25B0F800E00EEA07020EF4FC6860
:1010F00003FB02C203FB08680EF01F0EB2FBF5F201
:10110000B8FBF5F83A4008F4FC6842EA080203FB31
:101110000E4EBEFBF5FE0EF01F0E42EA0E0220F848
:10112000022B8142DED8CDE700F8FFFF10B5144C4A
:10113000236823B3134B144A1B6C11888B4213D1C1
:10114000124B19880AF03CF9226892F86A30013390
:1011500082F86A30FFF7EAFC20680FF09BFDBDE8DB
:1011600010400020FFF762BB0AF02AF920680368EC
:101170001B6A9847BDE810400020FFF76FBB10BD09
:101180005C2E012000680140CE180020CC18002001
:101190002DE9F04F2DED028B91B000AF054688464A
:1011A000FA6000F017FE03B2BB609B007B60073360
:1011B00023F00703ADEB030D0446EA46F0B1013D11
:1011C000D146D346002600F003FE06FB005008EB94
:1011D0008003D3ED007A0136F8EE677AB442EBEC87
:1011E000017AF0D17E689FED2B7A5644D9ED007AD2
:1011F00077EEC77AE9EC017A4E45F7D1BB686A46CB
:10120000A2EBC3039D4607EE904AFB686D46A1B270
:1012100007F12800F8EE678A13FB04F926F05EFF59
:1012200064080023514607F128002A4626F0DAFF19
:1012300022462946284627F043FC00F0CDFDB9FBA5
:10124000F0F905EB8909D9ED007A77EEA77A07F175
:101250001803C7EEA80A07F11C0221462846C7ED6D
:10126000030A26F0D3FED7ED067AB8EE678A00F0BF
:10127000B3FD07EE900AF8EE677AD7ED030A67EE42
:10128000887A443787EEA80ABD46BDEC028BBDE8DC
:10129000F08F00BF00F0FF4408B564200BF05EFD46
:1012A000FBE700BF80B5104CDFF848800F4F104EB1
:1012B000206800231A462146451ED8F80000256004
:1012C0000BF048FE22683C233846202112B92360E7
:1012D00008F05AFA30464FF4005108F059FA4FF42A
:1012E0007A700BF03BFDE3E7140000200010024091
:1012F00000180240D8180020014B1868704700BF42
:1013000014000020F0B583B01F4E204D204C002764
:101310000097336B43F004033363336B03F0040330
:101320000093009B2B6823F00C032B602B6843F089
:1013300004032B60AB6943F40033AB610A2007F070
:10134000D7FE2B6843F00C032B600197336B43F0FF
:1013500020033363336B03F020030193019BA368E5
:1013600023F44033A360636A23F00F036362E368EE
:1013700023F44033E3600A2007F0BAFE236843F405
:101380004033236003B0F0BD003802400008024043
:101390000014024030B5002495B0CDE90A44CDE9EF
:1013A0000C44CDE90344CDE905441E4A0194079459
:1013B000116C1D4B41F080511164126C02F080528F
:1013C0000192019A02941A6842F440421A601B6822
:1013D00003F44043029301224FF48033CDE9082304
:1013E0000823022510934FF480024FF4A873CDE92F
:1013F0000E5211930222042308A8CDE91223029968
:101400000AF000F80F23CDE903354FF4A0524FF452
:10141000805303A80521CDE9054207930AF00AFA93
:1014200015B030BD00380240007000402DE9804802
:1014300000249BB007F030FEFFF7ACFFFFF762FF20
:10144000CDE90D44CDE90F44BE4B00941194196BC6
:10145000BD48BE4D41F010011963196B01F0100138
:10146000009100990194196B41F020011963196BE7
:1014700001F02001019101990294196B41F0800162
:101480001963196B01F08001029102990394196BA1
:1014900041F004011963196B01F0040103910399F0
:1014A0000494196B41F001011963196B01F00101FA
:1014B000049104990594196B41F002011963196BA9
:1014C00001F00201059105990694196B41F0400164
:1014D0001963196B01F04001069106990794196B85
:1014E00041F0080119631B6B03F0080322460793C0
:1014F0001421079B08F048F993482021012208F0A5
:1015000043F993482246142108F03EF991482246B7
:10151000802108F039F9904822464FF4805108F0B4
:1015200033F98E4822464FF4405108F02DF98C488B
:101530002246042108F028F9012289484FF400517D
:1015400008F022F901264FF0030B14237E480DA961
:101550004FF00809CDE90D36CDE90F4B07F0D0FF6C
:101560004FF4881378480E930DA9CDF834900F945A
:1015700007F0C6FF202374480D930DA902274FF0F2
:10158000040ACDE90E64109407F0BAFF7048CDF854
:1015900034A00DA9CDE90E64109707F0B1FF8023A8
:1015A0006C480D930DA94FF01008CDE90E6410940E
:1015B00007F0A6FF664810940DA9CDE90E64CDF89A
:1015C000348007F09DFF4FF4805363480D930DA9BD
:1015D000CDE90E64109407F093FF4FF440525F483A
:1015E0000D920DA9CDE90E64109707F089FF42F224
:1015F00004025B480D920DA9CDE90E64109407F02A
:101600007FFF4FF4004253480D920DA90F22119213
:10161000CDE90E74109407F073FF052122460920CE
:1016200007F08AFD092007F0C5FD4E484E4A0260CA
:1016300007F0CEFD4D494E4A2846C5E900124FF449
:1016400080422A61C5E90244C5E90544C5E9074469
:1016500008F000FB4146284609F0C8FC2146284610
:1016600009F0E4FCDFF818C14248434D84624FF4AE
:1016700082724FF4007EC0E900C21822C0E906E27F
:101680000A22C262C0E90244C0E90444C0E9084435
:101690000AF0BEFB07220E921092384A2A604020C0
:1016A0004FF4C072C5E905024FF400622A620DA929
:1016B0004FF400522846C5E90164C5E903A8AA62AF
:1016C000CDE911B7EC616C62CDF83CA00D97139792
:1016D0000AF0ACFA4FF6FF7209A92846CDE909696C
:1016E000CDE90B6408940AF0C3FA304607F000FD18
:1016F0004FF6FF7209A92846CDE90B64CDE90979B7
:101700000AF0B6FA4FF6FF7209A92846CDE909B9E1
:10171000CDE90BA40AF0ACFA4FF40C7208920899C8
:101720000C914FF6FF7209A92846CDE909A90B963D
:101730000AF09EFA284640F26A510AF0B7FA3422BB
:1017400020E000BF00380240001002404C19002089
:10175000000802400000024000040240000C024069
:1017600000180240E418002000300240005C0040F5
:10177000A08601007C1A0020481A0020400100A029
:10178000005001404A4D21460DEB020028F07FFD3C
:10179000484A2A601D22EA6140F20D1A40F24312C3
:1017A000C5E909A2AE61C5F820B040F24712AC8687
:1017B0000926284640F2171BC5E90BB2C5E90144CA
:1017C000C5E9034485F836406E6109F053FC2846AC
:1017D000F0250E9517954FF4A07510951895FF25D7
:1017E0004FF4806C0DA9224612950525CDE914C54C
:1017F0000D94314D0F94119713941694ADF86440E5
:101800008DF8664009F00CFD2C4A2A60126890475A
:101810002A682B4DD268904780234FF0804EAB61F1
:10182000284643F24433C5E900E3EE60AC602C6126
:10183000CDE90D44CDE90F44CDE909440AF0D8FEC5
:101840004FF480530DA928460D930AF09BFF09A978
:101850002846CDE909840BF0F7F8FEF723FFFEF7E1
:101860001FFF00F047F900F079F90BF0FFF9154A76
:10187000394640460BF034FB134B144A186021469E
:1018800013480BF01FFA134B134A186021461348F4
:101890000BF018FA124B134A0546214612481D60F8
:1018A0000BF010FA114B18600BF0F2F9FEE700BFD5
:1018B000A019002000680140D41800201800002062
:1018C000D41A002000B70208D81800203CB702083C
:1018D00099120008E0180020DCB60208B5060008DE
:1018E000D018002018B70208A5120008DC18002044
:1018F000704700BF704700BF10B5094C86B0246820
:101900000294144601238DF817400DF117040A467E
:10191000019301460094034808F064FA06B010BD34
:101920000C0000204C19002000B50B4B87B01B6841
:10193000029384460A4601230DF117010020CDE9E8
:1019400000138DF817006146044808F03DFB9DF830
:10195000170007B05DF804FB0C0000204C190020B4
:1019600010B5094C84B0844620680290CDE900236C
:1019700006480A460123614608F026FB003818BFD6
:10198000012004B010BD00BF0C0000204C19002045
:1019900007F0AEBB08B506480022042107F0F4FEAC
:1019A000BDE8084002480122042107F0EDBE00BF57
:1019B0000008024030B5104D83B0044601220F48A4
:1019C0004FF4005107F0E0FE28460022042107F002
:1019D000DBFE0B4B0B481B68ADF806400DF1060112
:1019E00001220AF077FA01220421284603B0BDE85B
:1019F000304007F0C9BE00BF00080240000C0240A2
:101A0000100000207C1A002030B5104D83B0044631
:101A100000220F484FF4005107F0B6FE284600227E
:101A2000042107F0B1FE0B4B0B481B68ADF80640D4
:101A30000DF1060101220AF04DFA01220421284687
:101A400003B0BDE8304007F09FBE00BF0008024071
:101A5000000C0240100000207C1A00202DE9F04309
:101A6000194E1A4FDFF86890DFF8688083B00C4693
:101A7000054600223046042107F086FE3846002243
:101A80004FF4005107F080FED9F80030ADF8045053
:101A900001A9012240460AF01DFAD9F80030224679
:101AA00001A940460AF0BEFC384601224FF400511D
:101AB000019C07F069FE30460122042107F064FE14
:101AC000204603B0BDE8F08300080240000C02404D
:101AD000100000207C1A002007F00ABB034B0268AC
:101AE0009A4200D0704707F0F1BA00BF00100040E2
:101AF000704700BF10B483B0154B16490024009402
:101B00001A6B42F020021A631A6B02F02002009254
:101B1000009A0868104A40F440500860086840F491
:101B2000403008600194196B41F0040119631B6B8C
:101B300003F004030193019B136843F0C003136097
:101B4000136843F00C03136003B05DF8044B704757
:101B500000380240001402400008024082B00C4AE3
:101B600000230193116C41F001011164126C4FF0DC
:101B7000804302F00102019243F2443109220198AC
:101B80009962DA625A6842F020025A6002B07047E5
:101B90000038024010B483B03449354A0024009420
:101BA0004B6C43F480634B644B6C03F48063009391
:101BB000009BD06A2F4B40F44010D062506B40F035
:101BC00004005063506B40F4D0705063506B40F48D
:101BD000C0505063506B40F4B0205063506840F4E4
:101BE00080705060906840F080509060906840F045
:101BF000C0609060906840F48070906001940A6BBF
:101C000042F480020A630A6B02F480020192019A94
:101C10009A6A22F001029A629A6AD207FCD49A6800
:101C20001548164942F400629A609A6A42F080624E
:101C30009A629A6A42F480329A629A6A42F48042C4
:101C40009A629A6A42F480529A629A6A42F4806274
:101C50009A629A6A4FF4807442F010029A62DC62CF
:101C60001863596303B05DF8044B704700380240B5
:101C700000220140006402404C2201401C1B002055
:101C800008B501221021254807F07EFD2449254B87
:101C90000A6801320A601A68110506D4BDE80840D6
:101CA0001E480022102107F06FBD1F4A4FF000713F
:101CB000C2F88410BFF34F8FBFF36F8FC2F8841147
:101CC0009A6A22F001029A629A6AD207FCD4996851
:101CD0004FF0804241F4006199601368134923F08A
:101CE000010313608868124B20F001008860886847
:101CF00020F480708860596A0E4841F480715962FE
:101D0000596A21F48071596213684FF0010C23F075
:101D10000103136080F800C0C0E700BF0008024064
:101D2000201F00200064024000E100E0002201408A
:101D3000003802401C1F002010B54FF480620021C3
:101D40001B481C4C28F0A3FA012204211A4807F072
:101D50001BFD012007F0CCF9FFF71CFF16480022FD
:101D6000042107F011FDA36A1449154A4FF00070D1
:101D700043F00103A362C1F88401486093684FF007
:101D8000804143F0010393600B680E4A43F0010366
:101D90000B6011680C4B99420C4903DD0B78012B49
:101DA00000D0FEE7002302480B70136010BD00BF97
:101DB0001C1B0020006402400018024000E100E00B
:101DC00000220140241F00209F8601001C1F0020CC
:101DD00004207047402070474FF42070704700BFC8
:101DE00082B00E4B00220092596C41F4804159643C
:101DF000586C00F48040009000980192186C40F0FC
:101E0000805018641B6C03F080530193019B0F21D9
:101E10006FF0010002B007F08FB900BF0038024038
:101E20000B4B02689A4200D0704782B000220192A8
:101E3000D3F8302842F48052C3F8302803F5006309
:101E40001B6B03F480530193019B02B0704700BFEA
:101E5000003002402DE970432E4B02688AB0002406
:101E60009A42CDE90444CDE90644089402D00AB070
:101E7000BDE87083284D01942B6B284843F0040380
:101E80002B632B6B03F004030193019B02942B6BD8
:101E900043F001032B632B6B03F0010302934FF418
:101EA00000724FF001084FF00309042604A9122321
:101EB000CDE90423CDE90689029B089607F020FBB3
:101EC00004A94FF48072122315480896CDE9042323
:101ED000CDE9068907F014FB03942B6C43F400034F
:101EE0002B642B6C03F40003224605210393482046
:101EF000039B07F021F9482007F05CF92B6A43F4B3
:101F000000032B622B6A23F400032B620AB0BDE8A6
:101F1000708300BF005C00400038024000080240AF
:101F2000000002402DE9F04104469AB00021302221
:101F30000EA8CDE90811CDE90A110C9128F0A7F9F6
:101F4000674B22689A4202D01AB0BDE8F081C023E4
:101F50000821042212930EA84FF400330E9114921C
:101F6000179309F037FD002840F0B7805D4B5E48BD
:101F7000002401945A6C42F080625A645A6C02F058
:101F800080620192019A02941A6B42F020021A6355
:101F90001A6B02F020020292029A03941A6B42F02A
:101FA00001021A631A6B02F001020392039A04946D
:101FB0001A6B42F002021A631A6B02F002020492D8
:101FC000049A05941A6B42F040021A631A6B02F0ED
:101FD00040020592059A06941A6B42F004021A63B5
:101FE0001A6B02F004020692069A07941A6B42F0EA
:101FF00008021A631B6B03F00803002602270E2554
:10200000079308A94FF480620223CDE90823CDE9A4
:102010000A67079B0C9507F073FA08A941F6580266
:10202000022332480C95CDE908234FF00908CDE989
:102030000A6707F065FA08A9032202232C48CDF8A5
:102040003080CDE90823CDE90A6707F059FA08A9DD
:102050004FF47062022326480C95CDE90823CDE9A0
:102060000A6707F04DFA08A94FF40C6202232148D1
:102070000C95CDE90823CDE90A6707F041FA08A9D4
:10208000C02202231C480C95CDE90823CDE90A673C
:1020900007F036FA08A90822022318480C95CDE962
:1020A0000823CDE90A6707F02BFA022308A94FF4A9
:1020B000A0521048CDF83080CDE90823CDE90A6759
:1020C00007F01EFA22460521582007F035F858205F
:1020D00007F070F81AB0BDE8F081FFF709FD45E799
:1020E0000068014000380240001402400000024035
:1020F000000402400018024000080240000C0240A8
:1021000010B51B4A016888B000239142CDE9023323
:10211000CDE90433069301D008B010BD02F5684242
:102120000093506C40F480105064506C00F48010A8
:10213000009000980193136B0E4843F02003136343
:10214000136B9FED097B03F020030193032205230A
:1021500002A98DED027BCDE90523019C07F0D0F9A2
:1021600008B010BDAFF30080800300000200000043
:10217000005001400014024030B5314A03689342D8
:1021800085B007D0B3F1804F20D02E4A93420FD0B4
:1021900005B030BD2C4B002201925A6C42F0010276
:1021A0005A645B6C03F001030193019B05B030BDE1
:1021B000254B002203921A6C42F002021A641B6C37
:1021C00003F002030393039B05B030BD00231E4AB6
:1021D0000293116C1D4D41F001011164126C1C49F8
:1021E000EB6002F0010202924FF0C062C5E90012FA
:1021F00040214FF48062A9602A614FF480514FF46E
:102200008042C5E9051204464FF4003202986B6221
:102210002846C5E9073206F0EFFF68B92562E56296
:102220001C2000220521AC6306F086FF1C2005B0AF
:10223000BDE8304006F0BEBFFFF75AFCEEE700BF36
:10224000000001400004004000380240EC1800206B
:1022500028600240F0B52B4B89B01C680022049224
:10226000002C4CD10127284A01941F60936B27480A
:102270003B439363936B3B4003260C254FF63F0291
:10228000019302A90223CDE90223CDE90565019B53
:1022900007F036F91E48029702A90227CDE9037418
:1022A000CDE9056507F02CF948F23313194802937C
:1022B00002A9CDE90374CDE9056507F021F94FF6D0
:1022C00083731548029302A9CDE90374CDE905652E
:1022D00007F016F94CF203731048029302A9CDE9F6
:1022E0000374CDE9056507F00BF960230C480397EB
:1022F00002A9CDE904460695029307F001F909B059
:10230000F0BD00BF281F002000380240001402402A
:10231000000802400018024000100240000C024079
:102320000004024070B588B0234B002202921A6C60
:1023300042F010021A641B6C03F01003029305466E
:1023400001A903A8029B09F023FB069BD3B909F05E
:102350000FFB0346194A1A4C1A49A2FB03239B0C94
:10236000013B0022C4E90013204640F2E73322611A
:10237000A260A261E3600AF03BF9064630B1304644
:1023800008B070BD09F0F4FA4300E3E720460AF014
:10239000BDF906460028F2D1362006F00BFF0F2DBE
:1023A00001D90126EBE732462946362006F0C4FE65
:1023B000054B1D60E3E700BF0038024083DE1B438E
:1023C0002C1F00200010004080000020704700BF3C
:1023D000FEE700BFFEE700BFFEE700BFFEE700BF6D
:1023E000704700BF08B5C82006F082FE04480022EE
:1023F000202107F0C9F9BDE80840082007F0D4B94A
:1024000000100240014806F0A1BF00BFEC180020F8
:1024100010B50A4C01224FF48051204607F0B4F960
:10242000012006F065FE06480AF064FA2046002204
:10243000BDE810404FF4805107F0A6B900040240F7
:10244000D41A002001480AF055BA00BF2C1F002002
:10245000014808F009B900BF4C190020014808F0F4
:102460007DBE00BFA01900200120704708B528F0EC
:1024700007F8162303604FF0FF3008BD08B527F0BA
:10248000FFFF16230360FEE770B5161E07DD0C463E
:102490008D19AFF3008004F8010BA542F9D1304645
:1024A00070BD00BF70B5161E07DD0C468D1914F8FF
:1024B000010BAFF30080AC42F9D1304670BD00BFD4
:1024C0004FF0FF30704700BF4FF400534B600020C7
:1024D000704700BF01207047002070470B4A08B5C5
:1024E0000346106828B1034469468B4207D813603D
:1024F00008BD07481060034469468B42F7D927F0AE
:10250000BFFF0C2303604FF0FF3008BD741F002095
:10251000983A0120704710B50421044626F09FFE2A
:10252000204610BD08B5032913D8DFE801F00206E4
:102530000A0E05F04DFE006808BD05F049FE406832
:10254000FAE705F045FE8068F6E705F041FEC06851
:10255000F2E70020F0E700000048704774B7020877
:102560000D20704713B5002451B1036801948DF814
:10257000034001AA9C680DF10303A04702B010BDFF
:102580000846FBE7C0897047008A7047C0887047DB
:1025900080887047807A00F07F007047807AC00999
:1025A000704770477047704770477047704730B545
:1025B0000368018185B06D460146D3F88430044636
:1025C0002846984795E807003C3484E8070005B0A2
:1025D00030BD30B50368418185B06D460146D3F802
:1025E000843004462846984795E807003C3484E840
:1025F000070005B030BD0022028042808280C28088
:10260000704780F83610704770B5036804461B6B3E
:10261000154698472368294620465B6EBDE8704002
:10262000184700207047806C7047704770477047AC
:1026300030B4C26844685510034604EB6200D20708
:1026400048BF62599B6830BC48BFD358184743689D
:102650002BB183682BB9C06800F0010070471846A1
:1026600070470120704710B50821044626F0F7FD99
:10267000204610BD10B54C21044626F0F0FD204642
:1026800010BD10B51021044626F0E9FD204610BD0E
:1026900010B5034B0360044611F068F8204610BDE6
:1026A000E0BA020807B5074B0360019011F05EF82D
:1026B00001984FF48A5126F0D2FD019803B05DF8DD
:1026C00004FB00BFE0BA020808B5FEF7A7FC08BD8E
:1026D000036870B55E6B124B1B6804468DB22BB954
:1026E000104B114A6C21114827F0CCFB1049828D08
:1026F0000988914203D80F4B0B4A6D21F3E713F879
:1027000012200D4B1B6853F8220003681B6B98477F
:10271000281A01B233462046BDE87040184700BF72
:10272000B42E012078B80208BAB80208F5B8020839
:10273000B82E01203CB90208BC2E012038B500F5A6
:102740001073994204460D4603D112F011FD01F0B9
:1027500011F904F534739D4203D112F009FD01F023
:10276000D9F904F52274A54205D112F001FDBDE8A6
:10277000384001F0DFB938BD00224FF0FF31C0E929
:1027800000218260704770B5036804461B6B1546D4
:1027900098472368294620465B6BBDE87040184780
:1027A00070B504461D46BDF91060FFF7ECFF2368C5
:1027B000294620469B6B9847236831462046DB6BB1
:1027C000BDE87040184700000022C0E90122C0E9BE
:1027D0000322C0E90522C0E907224FF480728284F7
:1027E000014A0260704700BFC0B9020810B5262236
:1027F0000446002127F04BFD2046FFF7E5FF0A4B7A
:1028000023600A4BA3624FF6FF73A3854FF47F0248
:102810000023C4E90C324FF0FF32C4E910232387B0
:10282000E363204610BD00BF18E3020828BA02087F
:102830001A4B73B51B88018F8B4206462BD9184B58
:102840001B682BB9174B184A18486C2127F01AFB44
:1028500013F81120164B1B6853F82250154B1868BB
:1028600005F0A6FC2B6801909B6B284698472B68C7
:1028700001999B6C0446284698472B6801995B6A2E
:1028800014FB00F428469847A4B223181BB2A6F8FC
:10289000463002B070BD0023F9E700BFB82E01201A
:1028A000B42E012078B80208BAB80208F5B80208B8
:1028B000BC2E0120C02E01202DE9F04F2DED068BFE
:1028C00004468DB0A346002514F0D2F8664BE563AC
:1028D0004BF8403B26222946584627F0D8FC58465C
:1028E000FFF772FF04F16C0AFF26604B2364262277
:1028F0004FF6FF73294684F866605046A566ADF82A
:10290000283027F0C4FC5046FFF75EFF584BE366C3
:10291000BDF82830A4F892300AA9504604F198096D
:1029200084F894600FF01BFF4846FFF75FFF04F147
:10293000E407504BC4F89830C4F8E05038460EF025
:10294000D7FD04F5AA7318460393FEF77BFB4A4BA9
:10295000C4F8543104F5B4782433C4F85C31C4F8B5
:1029600060514046FFF742FF04F5D873184608EE61
:10297000103AFFF73BFF04F5FC73184608EE903A57
:10298000FFF734FF04F51073184609EE103A10F003
:1029900027F804F52273184609EE903A10F020F853
:1029A00004F5347318460AEE103A10F019F8334A59
:1029B00004F58053C3E94C24314A4FF46161C3E903
:1029C0004E2504F5487010F0C7FE4FF4A0732A4658
:1029D000584600932946F023FFF7E2FE261D4FF0EC
:1029E0007F43A366594630460DF02AF92A465046E1
:1029F0002946FFF7C8FE092350460AA9ADF828303A
:102A00000FF0ADFE514630460DF01AF94FF49A72B0
:102A100059214846FFF7B7FED4F89830A4F8CC50B7
:102A20000DF1100A4FF0FF3B5046D3F88430C4F844
:102A3000C8B0494698479AE8070004F1D40383E8F0
:102A40000700104B1B6804F5467A2BB90E4B0F4A52
:102A500060210F4827F016FA0E4B1B88142B1DD847
:102A60000D4B0A4A6121F4E7E0BA0208A8E3020824
:102A700070E5020838BA0208DCE00208C8BA0208A9
:102A80003D270008B42E012078B802087AB9020860
:102A9000F5B80208B82E01203CB90208934B142166
:102AA000186805F085FB924A03460421504615F04C
:102AB000CFFC4846C4F8E0A00FF056FA8D4B0A93BD
:102AC0000AA915234846ADF82C300FF06DFA494697
:102AD00030460DF0B5F80A2300933222F023294640
:102AE0003846FFF75DFE039BC4F80C31A022114667
:102AF0003846C4F860B1A4F864B10EF00FFEA0220D
:102B00004FF4EB5138460EF014FED4F82031202B50
:102B100005D02023C4F8203138460EF009FD384690
:102B200001210EF011FE3946304604AD4FF0FF375B
:102B30000DF086F84FF0000A3C2240464621FFF790
:102B400022FE41462846C4F89871A4F89CA10EF0D4
:102B500091FF95E8070008F13C0383E80700DFF8E0
:102B60009491CDF828900D230AA94046ADF82C3059
:102B70000FF01AFA414630460DF062F818EE100ACE
:102B800023224521FFF7FFFD18EE101A2846C4F84E
:102B9000E071A4F8E4A10EF06DFF95E8070018EECF
:102BA000103A3C3383E807004A2318EE100A0AA9BA
:102BB000ADF82C30CDF828900FF0F6F918EE101A79
:102BC00030460DF03DF818EE900A0C223621FFF742
:102BD000DAFD18EE901A2846C4F82872A4F82CA240
:102BE0000EF048FF95E8070018EE903A3C3383E872
:102BF0000700492318EE900A0AA9ADF82C30CDF849
:102C000028900FF0D1F918EE901A30460DF018F810
:102C100019EE100AF0222121FFF7B5FD4FF003094C
:102C20000AAA4FF0020809A919EE100AADF824907B
:102C3000ADF8288004F589550FF09BFB4823A4F8D4
:102C40007832103519EE100AFFF7F2FD19EE101A5E
:102C50003046C4E99F77C4F868520CF0F1FF19EED2
:102C6000900AAA222121FFF78EFD0AAA09A919EECE
:102C7000900AADF82490ADF828800FF07AFB472336
:102C8000A4F8C03219EE900AFFF7D2FD19EE901A9F
:102C90003046C4E9B177C4F8B0520CF0D1FF1AEE57
:102CA000100A64222121FFF76EFD0AAA09A91AEE73
:102CB000100AADF82490ADF828800FF05AFB462397
:102CC0001AEE100AA4F80833FFF7B2FD3046C4E943
:102CD000C3771AEE101AC4F8F8520CF0B1FF204670
:102CE0000DB0BDEC068BBDE8F08F00BFC02E0120FB
:102CF000B2B9020828BA02087047704730B4C268F7
:102D000044685510034604EB6200D20748BF62597D
:102D10009B6830BC48BFD358184743682BB18368C1
:102D20002BB9C06800F001007047184670470120B9
:102D3000704710B51021044626F091FA204610BDC8
:102D400010B5034B0360044610F010FD204610BD83
:102D50002CBB020807B5074B0360019010F006FD7D
:102D6000019841F25C0126F07AFA019803B05DF80F
:102D700004FB00BF2CBB02089830884208B505D17F
:102D800012F0F6F9BDE8084000F0B4BE08BD00003E
:102D90002DE9F04F2DED028B04468DB0A1460025A4
:102DA00013F066FEA54BE56349F8403B2622294611
:102DB000484627F06CFA4846FFF706FD04F16C0818
:102DC000FF269F4B236426224FF6FF73294684F883
:102DD00066604046A566ADF8283027F058FA4046B0
:102DE000FFF7F2FC974BE366BDF82830A4F8923069
:102DF0000AA904F1980B404684F894600FF0AFFCE8
:102E000058460FF0EDFD04F1E00304F59477184601
:102E100008EE903AFFF7EAFC38460EF069FB04F53D
:102E2000CC7318460393FEF70DF9874BC4F898311D
:102E30002433C4F8A03104F5D6731846C4F8A4515D
:102E400004F5FA7A08EE103AFFF7D0FC5046FFF787
:102E5000CDFC7E4A04F58053C3E913247C4A4FF429
:102E60006161C3E9152504F50F7010F075FC4FF48E
:102E7000A0732A46484600932946F023FFF790FCAA
:102E8000261D4FF07F43A366494630460CF0D8FE1E
:102E90002A4640462946FFF776FC4FF0090940468E
:102EA0000AA9ADF828900FF05AFC414630460CF0C4
:102EB000C7FE584640F201122121FFF764FC0323AC
:102EC0000AAA09A95846ADF824300223ADF82830E3
:102ED0000FF04FFA5846A4F8D090FFF7A9FC04F57C
:102EE00082530C334FF0FF39C4F8C0305946304696
:102EF000C4E935990CF0A4FE0DF110083C2218EE3F
:102F0000900A2021FFF73FFC18EE901A4046C4F8C3
:102F10001091A4F814510EF0ADFD98E8070004F5E7
:102F20008E7383E80700DFF82CB1CDF828B00A23B0
:102F300018EE900A0AA9ADF82C300FF035F818EE0B
:102F4000901A30460CF07CFE0A2300933222F023C4
:102F500029463846FFF724FC039BC4F85031A022D1
:102F600011463846C4F8A491A4F8A8910EF0D6FBF7
:102F7000A0224FF4EB5138460EF0DBFBD4F864315D
:102F8000202B05D02023C4F8643138460EF0D0FA47
:102F9000384601210EF0D8FB394630460CF050FE81
:102FA0004FF0FF3718EE100A232200254521FFF7C6
:102FB000EAFB18EE101A4046C4F8DC71A4F8E051A0
:102FC0000EF058FD98E8070018EE103A3C3383E8FD
:102FD00007000B2318EE100A0AA9ADF82C30CDF823
:102FE00028B00EF0E1FF18EE101A30460CF028FE63
:102FF0000C2250463621FFF7C6FB51464046C4F826
:103000002472A4F828520EF035FD98E807000AF162
:103010003C0383E807000C230AA95046ADF82C3086
:10302000CDF828B00EF0C0FF304651460CF008FE37
:1030300020460DB0BDEC028BBDE8F08F2CBB020822
:10304000A8E3020870E50208DCE0020814BB0208ED
:10305000792D000828BA02087047704730B4C2685A
:1030600044685510034604EB6200D20748BF62591A
:103070009B6830BC48BFD358184743682BB183685E
:103080002BB9C06800F00100704718467047012056
:10309000704710B51021044626F0E1F8204610BD17
:1030A00010B5034B0360044610F060FB204610BDD2
:1030B00078BB020807B5074B0360019010F056FB80
:1030C000019841F25C0126F0CAF8019803B05DF85E
:1030D00004FB00BF78BB02089830884208B505D1D0
:1030E00012F046F8BDE8084000F004BD08BD00003D
:1030F0002DE9F04F2DED028B04468DB0A146002541
:1031000013F0B6FCA54BE56349F8403B262229465F
:10311000484627F0BCF84846FFF756FB04F16C0818
:10312000FF269F4B236426224FF6FF73294684F81F
:1031300066604046A566ADF8283027F0A8F84046FE
:10314000FFF742FB974BE366BDF82830A4F89230B6
:103150000AA904F1980B404684F894600FF0FFFA36
:1031600058460FF03DFC04F1E00304F5947718464F
:1031700008EE903AFFF73AFB38460EF0B9F904F53D
:10318000CC7318460393FDF75DFF874BC4F8983165
:103190002433C4F8A03104F5D6731846C4F8A451FA
:1031A00004F5FA7A08EE103AFFF720FB5046FFF7D5
:1031B0001DFB7E4A04F58053C3E913247C4A4FF477
:1031C0006161C3E9152504F50F7010F0C5FA4FF4DD
:1031D000A0732A46484600932946F023FFF7E0FAF9
:1031E000261D4FF07F43A366494630460CF028FD6C
:1031F0002A4640462946FFF7C6FA092340460AA94F
:10320000ADF828300FF0ABFA414630460CF018FD0F
:10321000584640F201122121FFF7B5FA03230AAA0A
:1032200009A95846ADF824300223ADF828300FF034
:10323000A0F80F235846A4F8D030FFF7F9FA04F5A8
:1032400082530C334FF0FF39C4F8C0305946304632
:10325000C4E935990CF0F4FC0DF110083C2218EE8D
:10326000900A3A21FFF78FFA18EE901A4046C4F8F8
:103270001091A4F814510EF0FDFB98E8070004F536
:103280008E7383E80700DFF82CB1CDF828B00E2349
:1032900018EE900A0AA9ADF82C300EF085FE18EE53
:1032A000901A30460CF0CCFC0A2300933222F02313
:1032B00029463846FFF774FA039BC4F85031A02220
:1032C00011463846C4F8A491A4F8A8910EF026FA45
:1032D000A0224FF4EB5138460EF02BFAD4F86431AB
:1032E000202B05D02023C4F8643138460EF020F995
:1032F000384601210EF028FA394630460CF0A0FC81
:103300004FF0FF3718EE100A232200254521FFF762
:103310003AFA18EE101A4046C4F8DC71A4F8E051ED
:103320000EF0A8FB98E8070018EE103A3C3383E84B
:103330000700102318EE100A0AA9ADF82C30CDF8BA
:1033400028B00EF031FE18EE101A30460CF078FC62
:103350000C2250463621FFF716FA51464046C4F873
:103360002472A4F828520EF085FB98E807000AF1B1
:103370003C0383E8070011230AA95046ADF82C301E
:10338000CDF828B00EF010FE304651460CF058FC37
:1033900020460DB0BDEC028BBDE8F08F78BB020873
:1033A000A8E3020870E50208DCE0020860BB02083E
:1033B000D930000828BA02087047704700F59873A2
:1033C0000868496803C37047704770474160704799
:1033D00010B50022B1F90840B1F90A10028042800C
:1033E0008480C18010BD704770470000064BC0F854
:1033F0004C310023C0F8503100F5A273C0F84801E9
:10340000C0F84031704700BFA9370008012303729C
:103410007047704770477047704770470146406873
:10342000036810315B6E184701464068036810312D
:103430001B6E1847704701464068036810315B6E89
:10344000184701464068036810311B6E18477047E3
:1034500010B4C26841685410034601EB6200D20701
:1034600048BF0A599B685DF8044B48BFD3581847BA
:1034700043682BB183682BB9C06800F00100704726
:10348000184670470120704710B50C21044625F0FE
:10349000E6FE204610BD10B51021044625F0DFFEE3
:1034A000204610BD10B54FF4AE71044625F0D7FE8E
:1034B000204610BD10B53821044625F0D0FE204628
:1034C00010BD10B52821044625F0C9FE204610BDC8
:1034D00010B53821044625F0C2FE204610BD10B5B7
:1034E00011F046FE0368BDE81040DB6B1847000092
:1034F00013B50446807A637A0130C0B29842A07254
:1035000005D9012323720023A37202B010BDB4F9C0
:103510000C20002113F05EFC10F0010283B22AD1CE
:10352000E081194AB4F90E00E3891288B4F9141045
:10353000A0820020D21AADF80200606822835B1AD4
:10354000124AADF804300368B2F900201B69ADF8E7
:103550000010ADF8062069469847A37A012BD4D114
:103560000B4B1B78002BD0D011F002FE02B0BDE84F
:10357000104011F003BE4FF6FF710028D8BF0A4675
:103580001344E381CDE700BF502E0120522E0120CD
:103590005A2E012010B50446D0F8400158B10368F6
:1035A000DB68984738B1D4F8400103689B689847B6
:1035B0000023C4F8403110BD2DE9F14FD0E9555A30
:1035C0000746A86803681B6A9847972805D8464BA2
:1035D000464AA321464826F055FC686803681B6AE2
:1035E00098470F2803D8434B404AA421F2E7E868E4
:1035F00003681B6A98470B2803D83F4B3B4AA52119
:10360000E8E711F0B5FDDFF8F890043011F016FE90
:10361000D9F8000010B10368DB689847D9F80000BA
:1036200010B103681B689847DFF8D880D8F800000D
:1036300010B103685B699847D7F83C0110B1036883
:103640005B689847D8F8000010B103681B6898477A
:10365000D7F83C0110B103689B689847E868036895
:1036600000215B6A98474FF0000B244B036004462F
:10367000C0F804B080F808B0A868036859465B6ACF
:103680009847064605F06CFA6868036859465B6A15
:1036900098473146054605F03FFAC9F80040C7F89B
:1036A0003C51C8F80060E5B12B1DCAF80030336802
:1036B000C5F808A03046DB68F56398472B682846B4
:1036C0001B6898472146304613F07EFB236820464E
:1036D0001B69984723685B69204601B0BDE8F04F3D
:1036E00018472B46E1E700BFA4BB020832BC020822
:1036F00040BD020887BD02082ABE020870D2020837
:10370000A42E0120A02E012037B50446807A637ACA
:103710000130C0B29842A07205D901232372002360
:10372000A37203B030BDB4F90C20002113F052FB9A
:1037300010F0010283B228D1E081184B1848198893
:10374000258BE389B0F90000ADF80600CA1A60685D
:103750002B445B1A12B2ADF8043003682283ADF833
:10376000002000221B69ADF8022069469847A37A21
:10377000012BD6D10B4B1B78002BD2D011F0F8FCCB
:1037800003B0BDE8304011F0F9BC4FF6FF710028DE
:10379000D8BF0A461344E381CFE700BF502E012073
:1037A000522E01205A2E01202DE9F14FD0E9555A11
:1037B0000746A86803681B6A984741F2F7339842A6
:1037C00005D8464B464AA321464826F05BFB68686D
:1037D00003681B6A98470F2803D8434B404AA4212B
:1037E000F2E7E86803681B6A98470B2803D83F4B49
:1037F0003B4AA521E8E711F0BBFCDFF8F890043064
:1038000011F01CFDD9F8000010B10368DB6898477F
:10381000D9F8000010B103681B689847DFF8D8801A
:10382000D8F8000010B103685B699847D7F83C01ED
:1038300010B103685B689847D8F8000010B10368BE
:103840001B689847D7F83C0110B103689B689847FC
:10385000E868036800215B6A98474FF0000B244B2F
:1038600003600446C0F804B080F808B0A868036894
:1038700059465B6A9847064605F01EF86868036873
:1038800059465B6A98473146054604F0EFFFC9F890
:103890000040C7F83C51C8F80060E5B12B1DCAF8DC
:1038A00000303368C5F808A03046DB68F5639847F8
:1038B0002B6828461B6898472146304613F084FA47
:1038C000236820461B69984723685B69204601B03E
:1038D000BDE8F04F18472B46E1E700BFA4BB020844
:1038E000CDBE020840BD020887BD02082ABE0208FC
:1038F00070D20208A42E0120A02E0120044B1B68C8
:1039000093F858200AB1D86C00B99868704700BF86
:103910005C2E0120F8B5044617460E4611F05CFDFA
:10392000104B1C60104B2360104B0025C4E951352F
:103930000F4BC4E953551868036801219B68C4E91B
:103940004F55C4E955769847284604F0F5FBFFF734
:10395000D5FF1BF006F9FFF7D1FF1BF07DF92046DC
:10396000F8BD00BFB02E01201CD2020804D202080C
:103970005C2E0120064BC0F84C310023C0F85031BA
:1039800000F5A273C0F84801C0F84031704700BF8D
:10399000B93F0008064BC0F84C310023C0F8503145
:1039A00000F5A273C0F84801C0F84031704700BF6D
:1039B000DD4D0008064BC0F84C310023C0F85031F3
:1039C00000F5A273C0F84801C0F84031704700BF4D
:1039D000793E0008064BC0F84C310023C0F8503146
:1039E00000F5A273C0F84801C0F84031704700BF2D
:1039F0009D4C0008064BC0F84C310023C0F85031F4
:103A000000F5A273C0F84801C0F84031704700BF0C
:103A1000A9370008064BC0F84C310023C0F85031DC
:103A200000F5A273C0F84801C0F84031704700BFEC
:103A30005D4B0008064BC0F84C310023C0F85031F4
:103A400000F5A273C0F84801C0F84031704700BFCC
:103A50001D4A0008064BC0F84C310023C0F8503115
:103A600000F5A273C0F84801C0F84031704700BFAC
:103A7000DD480008064BC0F84C310023C0F8503137
:103A800000F5A273C0F84801C0F84031704700BF8C
:103A9000393D0008064BC0F84C310023C0F85031C6
:103AA00000F5A273C0F84801C0F84031704700BF6C
:103AB0009D470008064BC0F84C310023C0F8503138
:103AC00000F5A273C0F84801C0F84031704700BF4C
:103AD0005D460008064BC0F84C310023C0F8503159
:103AE00000F5A273C0F84801C0F84031704700BF2C
:103AF0001D450008064BC0F84C310023C0F850317A
:103B000000F5A273C0F84801C0F84031704700BF0B
:103B1000F93B0008064BC0F84C310023C0F8503187
:103B200000F5A273C0F84801C0F84031704700BFEB
:103B3000DD430008064BC0F84C310023C0F850317B
:103B400000F5A273C0F84801C0F84031704700BFCB
:103B50009D420008064BC0F84C310023C0F850319C
:103B600000F5A273C0F84801C0F84031704700BFAB
:103B70005D410008064BC0F84C310023C0F85031BD
:103B800000F5A273C0F84801C0F84031704700BF8B
:103B9000B935000803685B6A18470000124B13B57B
:103BA00003604FF480734363104B4172036110490B
:103BB000104BB1F90010B3F900308381002242604C
:103BC00002728272C281C0E90522C0E90722C0E9FF
:103BD0000922C0E90B220446009110301146FEF77D
:103BE000DFFD204602B010BDB8D202089CD1020809
:103BF000522E0120502E01202DE9F047D0E9554AE0
:103C00000746A06803681B6A9847B0F58A5F05D22B
:103C1000424B434AA321434826F034F960680368C5
:103C20001B6A98470F2803D83F4B3D4AA421F2E76F
:103C3000E06803681B6A9847372803D83B4B384A2B
:103C4000A521E8E711F094FADFF8E490043011F0D0
:103C5000F5FAD9F8000010B10368DB689847D9F885
:103C6000000010B103681B689847DFF8C880D8F8D7
:103C7000000010B103685B699847D7F83C0110B1A8
:103C800003685B689847D8F8000010B103681B68A8
:103C90009847D7F83C0110B103689B689847E068E3
:103CA0000021FFF777FF14210546FFF777FFA06893
:103CB000036800215B6A9847064604F0DBFA6068F7
:103CC000036800215B6A98473146044604F0ACFA69
:103CD000C9F80050C7F83C41C8F80060DCB1231DAA
:103CE000CAF800303368C4F808A03046DB68F463D3
:103CF0009847236820461B6898472946304613F0AA
:103D000063F82B6828461B6998472B6828465B692F
:103D1000BDE8F04718472346E2E700BFA4BB02080E
:103D2000FDBF020840BD020887BD02082ABE020886
:103D3000A42E0120A02E01202DE9F047D0E9554AFC
:103D40000746A06803681B6A9847B0F58A5F05D2EA
:103D5000424B434AA321434826F094F86068036825
:103D60001B6A98470F2803D83F4B3D4AA421F2E72E
:103D7000E06803681B6A9847372803D83B4B384AEA
:103D8000A521E8E711F0F4F9DFF8E490043011F030
:103D900055FAD9F8000010B10368DB689847D9F8E4
:103DA000000010B103681B689847DFF8C880D8F896
:103DB000000010B103685B699847D7F83C0110B167
:103DC00003685B689847D8F8000010B103681B6867
:103DD0009847D7F83C0110B103689B689847E068A2
:103DE0000021FFF7D7FE14210546FFF7D7FEA06894
:103DF000036800215B6A9847064604F01FFC606870
:103E0000036800215B6A98473146044604F0F0FBE2
:103E1000C9F80050C7F83C41C8F80060DCB1231D68
:103E2000CAF800303368C4F808A03046DB68F46391
:103E30009847236820461B6898472946304612F069
:103E4000C3FF2B6828461B6998472B6828465B6987
:103E5000BDE8F04718472346E2E700BFA4BB0208CD
:103E60001BC1020840BD020887BD02082ABE020825
:103E7000A42E0120A02E01202DE9F047D0E9554ABB
:103E80000746A06803681B6A9847B0F58A5F05D2A9
:103E9000424B434AA321434825F0F4FF606803687E
:103EA0001B6A98470F2803D83F4B3D4AA421F2E7ED
:103EB000E06803681B6A9847372803D83B4B384AA9
:103EC000A521E8E711F054F9DFF8E490043011F08F
:103ED000B5F9D9F8000010B10368DB689847D9F844
:103EE000000010B103681B689847DFF8C880D8F855
:103EF000000010B103685B699847D7F83C0110B126
:103F000003685B689847D8F8000010B103681B6825
:103F10009847D7F83C0110B103689B689847E06860
:103F20000021FFF737FE14210546FFF737FEA06892
:103F3000036800215B6A9847064604F01FFB60682F
:103F4000036800215B6A98473146044604F0F0FAA2
:103F5000C9F80050C7F83C41C8F80060DCB1231D27
:103F6000CAF800303368C4F808A03046DB68F46350
:103F70009847236820461B6898472946304612F028
:103F800023FF2B6828461B6998472B6828465B69E6
:103F9000BDE8F04718472346E2E700BFA4BB02088C
:103FA0004BC2020840BD020887BD02082ABE0208B3
:103FB000A42E0120A02E01202DE9F047D0E9554A7A
:103FC0000746A06803681B6A984741F27B13984232
:103FD00005D8424B424AA321424825F053FF60686E
:103FE00003681B6A98470F2803D83F4B3C4AA4211B
:103FF000F2E7E06803681B6A9847372803D83B4B11
:10400000374AA521E8E711F0B3F8DFF8E49004306F
:1040100011F014F9D9F8000010B10368DB68984773
:10402000D9F8000010B103681B689847DFF8C48016
:10403000D8F8000010B103685B699847D7F83C01D5
:1040400010B103685B689847D8F8000010B10368A6
:104050001B689847D7F83C0110B103689B689847E4
:10406000E0680021FFF796FD14210546FFF796FD55
:10407000A068036800215B6A9847064604F01EFAB0
:104080006068036800215B6A98473146044604F083
:10409000EFF9C9F80050C7F83C41C8F80060DCB13E
:1040A000231DCAF800303368C4F808A03046DB6826
:1040B000F4639847236820461B6898472946304692
:1040C00012F082FE2B6828461B6998472B68284609
:1040D0005B69BDE8F04718472346E2E7A4BB020846
:1040E00069C3020840BD020887BD02082ABE020853
:1040F000A42E0120A02E012003685B6A184700004F
:10410000124B13B503604FF480734363104B41723D
:1041100003611049104BB1F90010B3F900308381ED
:104120000022426002728272C281C0E90522C0E9A7
:104130000722C0E90922C0E90B2204460091103091
:104140001146FEF72DFB204602B010BD94D20208A6
:104150009CD10208522E0120502E01202DE9F0475B
:10416000D0E9554A0746A06803681B6A984741F2A0
:10417000AF03984205D8424B424AA321424825F05A
:1041800081FE606803681B6A98470F2803D83F4B7D
:104190003C4AA421F2E7E06803681B6A9847372885
:1041A00003D83B4B374AA521E8E710F0E1FFDFF8E1
:1041B000E490043011F042F8D9F8000010B103681F
:1041C000DB689847D9F8000010B103681B6898476E
:1041D000DFF8C480D8F8000010B103685B69984725
:1041E000D7F83C0110B103685B689847D8F8000025
:1041F00010B103681B689847D7F83C0110B10368F9
:104200009B689847E0680021FFF776FF1421054678
:10421000FFF776FFA068036800215B6A98470646AF
:1042200004F046FC6068036800215B6A98473146E9
:10423000044604F017FCC9F80050C7F83C41C8F820
:104240000060DCB1231DCAF800303368C4F808A050
:104250003046DB68F4639847236820461B6898471C
:104260002946304612F0B0FD2B6828461B69984756
:104270002B6828465B69BDE8F04718472346E2E70C
:10428000A4BB020883C4020840BD020887BD02081F
:104290002ABE0208A42E0120A02E01202DE9F047FD
:1042A000D0E9554A0746A06803681B6A984741F25F
:1042B0005B03984205D8424B424AA321424825F06D
:1042C000E1FD606803681B6A98470F2803D83F4BDD
:1042D0003C4AA421F2E7E06803681B6A9847372844
:1042E00003D83B4B374AA521E8E710F041FFDFF840
:1042F000E490043010F0A2FFD9F8000010B1036878
:10430000DB689847D9F8000010B103681B6898472C
:10431000DFF8C480D8F8000010B103685B699847E3
:10432000D7F83C0110B103685B689847D8F80000E3
:1043300010B103681B689847D7F83C0110B10368B7
:104340009B689847E0680021FFF7D6FE14210546D8
:10435000FFF7D6FEA068036800215B6A984706460F
:1043600003F0E2FF6068036800215B6A984731460A
:10437000044603F0B3FFC9F80050C7F83C41C8F841
:104380000060DCB1231DCAF800303368C4F808A00F
:104390003046DB68F4639847236820461B689847DB
:1043A0002946304612F010FD2B6828461B699847B5
:1043B0002B6828465B69BDE8F04718472346E2E7CB
:1043C000A4BB0208A3C5020840BD020887BD0208BD
:1043D0002ABE0208A42E0120A02E01202DE9F047BC
:1043E000D0E9554A0746A06803681B6A984741F21E
:1043F0005B03984205D8424B424AA321424825F02C
:1044000041FD606803681B6A98470F2803D83F4B3B
:104410003C4AA421F2E7E06803681B6A9847372802
:1044200003D83B4B374AA521E8E710F0A1FEDFF89F
:10443000E490043010F002FFD9F8000010B10368D6
:10444000DB689847D9F8000010B103681B689847EB
:10445000DFF8C480D8F8000010B103685B699847A2
:10446000D7F83C0110B103685B689847D8F80000A2
:1044700010B103681B689847D7F83C0110B1036876
:104480009B689847E0680021FFF736FE1421054637
:10449000FFF736FEA068036800215B6A984706466E
:1044A00003F084FF6068036800215B6A9847314627
:1044B000044603F055FFC9F80050C7F83C41C8F85E
:1044C0000060DCB1231DCAF800303368C4F808A0CE
:1044D0003046DB68F4639847236820461B6898479A
:1044E0002946304612F070FC2B6828461B69984715
:1044F0002B6828465B69BDE8F04718472346E2E78A
:10450000A4BB0208CBC6020840BD020887BD020852
:104510002ABE0208A42E0120A02E01202DE9F0477A
:10452000D0E9554A0746A06803681B6A9847B0F56A
:104530008A5F05D2424B434AA321434825F0A2FC9F
:10454000606803681B6A98470F2803D83F4B3D4AB1
:10455000A421F2E7E06803681B6A9847372803D86C
:104560003B4B384AA521E8E710F002FEDFF8E49063
:10457000043010F063FED9F8000010B10368DB6866
:104580009847D9F8000010B103681B689847DFF816
:10459000C880D8F8000010B103685B699847D7F865
:1045A0003C0110B103685B689847D8F8000010B16F
:1045B00003681B689847D7F83C0110B103689B68F3
:1045C0009847E0680021FFF797FD14210546FFF7A3
:1045D00097FDA068036800215B6A9847064603F0D0
:1045E00049FE6068036800215B6A984731460446CB
:1045F00003F01AFEC9F80050C7F83C41C8F8006043
:10460000DCB1231DCAF800303368C4F808A0304676
:10461000DB68F4639847236820461B68984729465F
:10462000304612F0D1FB2B6828461B6998472B684F
:1046300028465B69BDE8F04718472346E2E700BF1C
:10464000A4BB0208F1C7020840BD020887BD0208EA
:104650002ABE0208A42E0120A02E01202DE9F04739
:10466000D0E9554A0746A06803681B6A984741F29B
:10467000E333984205D8424B424AA321424825F0F1
:1046800001FC606803681B6A98470F2803D83F4BFA
:104690003C4AA421F2E7E06803681B6A9847372880
:1046A00003D83B4B374AA521E8E710F061FDDFF85E
:1046B000E490043010F0C2FDD9F8000010B1036896
:1046C000DB689847D9F8000010B103681B68984769
:1046D000DFF8C480D8F8000010B103685B69984720
:1046E000D7F83C0110B103685B689847D8F8000020
:1046F00010B103681B689847D7F83C0110B10368F4
:104700009B689847E0680021FFF7F6FC14210546F6
:10471000FFF7F6FCA068036800215B6A984706462D
:1047200004F028F86068036800215B6A9847314606
:10473000044603F0F9FFC9F80050C7F83C41C8F837
:104740000060DCB1231DCAF800303368C4F808A04B
:104750003046DB68F4639847236820461B68984717
:104760002946304612F030FB2B6828461B699847D3
:104770002B6828465B69BDE8F04718472346E2E707
:10478000A4BB02080FC9020840BD020887BD020889
:104790002ABE0208A42E0120A02E01202DE9F047F8
:1047A000D0E9554A0746A06803681B6A984741F25A
:1047B000E333984205D8424B424AA321424825F0B0
:1047C00061FB606803681B6A98470F2803D83F4B5A
:1047D0003C4AA421F2E7E06803681B6A984737283F
:1047E00003D83B4B374AA521E8E710F0C1FCDFF8BE
:1047F000E490043010F022FDD9F8000010B10368F5
:10480000DB689847D9F8000010B103681B68984727
:10481000DFF8C480D8F8000010B103685B699847DE
:10482000D7F83C0110B103685B689847D8F80000DE
:1048300010B103681B689847D7F83C0110B10368B2
:104840009B689847E0680021FFF756FC1421054655
:10485000FFF756FCA068036800215B6A984706468C
:1048600003F046FF6068036800215B6A98473146A1
:10487000044603F017FFC9F80050C7F83C41C8F8D8
:104880000060DCB1231DCAF800303368C4F808A00A
:104890003046DB68F4639847236820461B689847D6
:1048A0002946304612F090FA2B6828461B69984733
:1048B0002B6828465B69BDE8F04718472346E2E7C6
:1048C000A4BB020853CA020840BD020887BD020803
:1048D0002ABE0208A42E0120A02E01202DE9F047B7
:1048E000D0E9554A0746A06803681B6A9847B0F5A7
:1048F0008A5F05D2424B434AA321434825F0C2FABE
:10490000606803681B6A98470F2803D83F4B3D4AED
:10491000A421F2E7E06803681B6A9847372803D8A8
:104920003B4B384AA521E8E710F022FCDFF8E49081
:10493000043010F083FCD9F8000010B10368DB6884
:104940009847D9F8000010B103681B689847DFF852
:10495000C880D8F8000010B103685B699847D7F8A1
:104960003C0110B103685B689847D8F8000010B1AB
:1049700003681B689847D7F83C0110B103689B682F
:104980009847E0680021FFF7B7FB14210546FFF7C1
:10499000B7FBA068036800215B6A9847064603F0EE
:1049A0004DFE6068036800215B6A98473146044603
:1049B00003F01EFEC9F80050C7F83C41C8F800607B
:1049C000DCB1231DCAF800303368C4F808A03046B3
:1049D000DB68F4639847236820461B68984729469C
:1049E000304612F0F1F92B6828461B6998472B686E
:1049F00028465B69BDE8F04718472346E2E700BF59
:104A0000A4BB020893CB020840BD020887BD020880
:104A10002ABE0208A42E0120A02E01202DE9F04775
:104A2000D0E9554A0746A06803681B6A984741F2D7
:104A3000E333984205D8424B424AA321424825F02D
:104A400021FA606803681B6A98470F2803D83F4B18
:104A50003C4AA421F2E7E06803681B6A98473728BC
:104A600003D83B4B374AA521E8E710F081FBDFF87C
:104A7000E490043010F0E2FBD9F8000010B10368B4
:104A8000DB689847D9F8000010B103681B689847A5
:104A9000DFF8C480D8F8000010B103685B6998475C
:104AA000D7F83C0110B103685B689847D8F800005C
:104AB00010B103681B689847D7F83C0110B1036830
:104AC0009B689847E0680021FFF716FB1421054614
:104AD000FFF716FBA068036800215B6A984706464B
:104AE00003F080FF6068036800215B6A98473146E5
:104AF000044603F051FFC9F80050C7F83C41C8F81C
:104B00000060DCB1231DCAF800303368C4F808A087
:104B10003046DB68F4639847236820461B68984753
:104B20002946304612F050F92B6828461B699847F1
:104B30002B6828465B69BDE8F04718472346E2E743
:104B4000A4BB0208C3CC020840BD020887BD02080E
:104B50002ABE0208A42E0120A02E01202DE9F04734
:104B6000D0E9554A0746A06803681B6A984741F296
:104B7000F733984205D8424B424AA321424825F0D8
:104B800081F9606803681B6A98470F2803D83F4B78
:104B90003C4AA421F2E7E06803681B6A984737287B
:104BA00003D83B4B374AA521E8E710F0E1FADFF8DC
:104BB000E490043010F042FBD9F8000010B1036813
:104BC000DB689847D9F8000010B103681B68984764
:104BD000DFF8C480D8F8000010B103685B6998471B
:104BE000D7F83C0110B103685B689847D8F800001B
:104BF00010B103681B689847D7F83C0110B10368EF
:104C00009B689847E0680021FFF776FA1421054673
:104C1000FFF776FAA068036800215B6A98470646AA
:104C200003F04AFE6068036800215B6A98473146DA
:104C3000044603F01BFEC9F80050C7F83C41C8F811
:104C40000060DCB1231DCAF800303368C4F808A046
:104C50003046DB68F4639847236820461B68984712
:104C60002946304612F0B0F82B6828461B69984751
:104C70002B6828465B69BDE8F04718472346E2E702
:104C8000A4BB020805CE020840BD020887BD020889
:104C90002ABE0208A42E0120A02E01202DE9F047F3
:104CA000D0E9554A0746A06803681B6A9847B0F5E3
:104CB0008A5F05D2424B434AA321434825F0E2F8DC
:104CC000606803681B6A98470F2803D83F4B3D4A2A
:104CD000A421F2E7E06803681B6A9847372803D8E5
:104CE0003B4B384AA521E8E710F042FADFF8E490A0
:104CF000043010F0A3FAD9F8000010B10368DB68A3
:104D00009847D9F8000010B103681B689847DFF88E
:104D1000C880D8F8000010B103685B699847D7F8DD
:104D20003C0110B103685B689847D8F8000010B1E7
:104D300003681B689847D7F83C0110B103689B686B
:104D40009847E0680021FFF7D7F914210546FFF7DF
:104D5000D7F9A068036800215B6A9847064603F00C
:104D600051FD6068036800215B6A9847314604463C
:104D700003F022FDC9F80050C7F83C41C8F80060B4
:104D8000DCB1231DCAF800303368C4F808A03046EF
:104D9000DB68F4639847236820461B6898472946D8
:104DA000304612F011F82B6828461B6998472B688B
:104DB00028465B69BDE8F04718472346E2E700BF95
:104DC000A4BB020847CF020840BD020887BD020805
:104DD0002ABE0208A42E0120A02E01202DE9F047B2
:104DE000D0E9554A0746A06803681B6A9847B0F5A2
:104DF0008A5F05D2424B434AA321434825F042F83B
:104E0000606803681B6A98470F2803D83F4B3D4AE8
:104E1000A421F2E7E06803681B6A9847372803D8A3
:104E20003B4B384AA521E8E710F0A2F9DFF8E490FF
:104E3000043010F003FAD9F8000010B10368DB6801
:104E40009847D9F8000010B103681B689847DFF84D
:104E5000C880D8F8000010B103685B699847D7F89C
:104E60003C0110B103685B689847D8F8000010B1A6
:104E700003681B689847D7F83C0110B103689B682A
:104E80009847E0680021FFF737F914210546FFF73E
:104E900037F9A068036800215B6A9847064603F06B
:104EA0006DFB6068036800215B6A984731460446E1
:104EB00003F03EFBC9F80050C7F83C41C8F8006059
:104EC000DCB1231DCAF800303368C4F808A03046AE
:104ED000DB68F4639847236820461B689847294697
:104EE000304611F071FF2B6828461B6998472B68E4
:104EF00028465B69BDE8F04718472346E2E700BF54
:104F0000A4BB020873D0020840BD020887BD020896
:104F10002ABE0208A42E0120A02E0120806A70471C
:104F20007047704710B54FF46271044624F097F94A
:104F3000204610BD2DE9F04F4FF4807380460026C7
:104F40002DED028B8384B24B8662C0E90166C0E915
:104F50000366C0E90566C0E9076648F82C3B8BB0DC
:104F600004464046FDF742FC04F1740304F1BC0B17
:104F70001846039304F5827AFDF738FC5846FDF78E
:104F800035FC04F5A879A34D5046FDF72FFCC4F875
:104F90000451C4F84C614846FDF728FC04F5CE7373
:104FA00004F5F4771846C4F85051C4F8986108EE37
:104FB000103AFDF71BFCC4F89C51C4F8E461384674
:104FC0000DF090F8944AA26040466D22D92104ADBC
:104FD000FDF7D9FB4FF0FF33E36541462846A4F8BF
:104FE00060600CF047FD95E8070004F1680C8CE860
:104FF00007008A4B08932F2208A94046ADF82420C9
:105000000CF0D2FF414620460AF01AFE039B3146BF
:1050100018466D22FDF7B7FB039BA4F8A8604FF07C
:10502000FF32C4F8A420194628460CF023FD95E869
:1050300007007A4B0893039B04F1B00C8CE807003F
:10504000302208A91846ADF824200CF0ADFF039BD0
:10505000204619460AF0F4FD324658467121FDF704
:1050600092FB4FF0FF32C4F8EC2059462846A4F8D2
:10507000F0600CF0FFFC95E8070004F1F80383E80A
:105080000700664B089308A931235846ADF8243031
:105090000CF08AFF594620460AF0D2FD50467C2289
:1050A0004C21FDF770FBD4F80431A4F838614FF0BF
:1050B000FF32C4F8342151462846D3F8843098474B
:1050C00095E8070004F5A07383E80700534B0893A5
:1050D00008A92E235046ADF824300CF065FF514648
:1050E00020460AF0ADFD48468B225621FDF74BFBCA
:1050F000D4F85031A4F884614FF0FF32C4F8802115
:1051000049462846D3F88430984795E8070004F5C7
:10511000C67383E80700414B089308A92D2348462E
:10512000ADF824300CF040FF494620460AF088FDD7
:1051300018EE100A9A225621FDF725FBD4F89C316F
:10514000A4F8D0614FF0FF3218EE101AC4F8CC2149
:105150002846D3F88430984795E8070004F5EC73A7
:1051600083E807002D4B089318EE100A2C2308A99A
:10517000ADF824300CF018FF18EE101A20460AF093
:105180005FFD042308A93846ADF820300AF0EAFC98
:10519000122238461C21FDF7F6FAD4F8E8313846D9
:1051A0009B6BB8219847D4F8E8313846DB6B6A210D
:1051B00098475C22114638460DF03FF838465A228F
:1051C0006FF059010DF0BEF833465A22384600966A
:1051D0006FF059010AF073FB314638460DF05CF868
:1051E00035230822384605210DF012F838460121F2
:1051F0000CF0B0FF384601210CF0AFFF20463946D5
:105200000AF01EFD20460BB0BDEC028BBDE8F08F0E
:10521000DCD2020838BA0208F000A90028BA020855
:10522000406A7047806A704770478B88C0690A6817
:10523000DB0A50F823001044704710B5C2B1137B4D
:10524000B3B1547BD27A240204F4E0641443026ABA
:1052500098B202EB840213888B4202D192F90200C9
:1052600010BD05D8013880B204320028F3D1F7E729
:105270000020F5E710B52C21044623F0F0FF20466E
:1052800010BD000030B58BB00446BDF860500895E5
:10529000BDF85C5007959DF8505006959DF84C5010
:1052A00005959DF8485004959DF8445003959DF848
:1052B000405002959DF83C500195BDF8385000953E
:1052C00011F0ECF8064B2360159BE361169B2362FB
:1052D000199B63621A9BA36220460BB030BD00BFCE
:1052E00070D302087047704730B4C26844685510E4
:1052F000034604EB6200D20748BF62599B6830BC8A
:1053000048BFD358184743682BB183682BB9C0688E
:1053100000F001007047184670470120704710B533
:105320001021044623F09BFF204610BD10B5034B0F
:10533000036004460EF01AFA204610BDE8D30208B6
:1053400007B5074B036001900EF010FA019841F287
:105350007C1123F084FF019803B05DF804FB00BFCB
:10536000E8D3020838B500F53473994204460D4677
:1053700003D10FF0FDFEFEF70DFB04F522739D42F5
:1053800003D10FF0F5FEFEF7A5FB04F510739D4267
:1053900003D10FF0EDFEFEF7DDFB04F54674A542E8
:1053A0000AD106480022202104F0EEF90FF0E0FEB9
:1053B000BDE83840FEF7DEBB38BD00BF001002403C
:1053C0002DE9F04F2DED068B04468FB0A346002546
:1053D00011F04EFB6A4BE5634BF8403B2622294611
:1053E000584624F054FF5846FDF7EEF904F16C0AD4
:1053F000FF26644B236426224FF6FF73294684F868
:1054000066605046A566ADF8303024F040FF504647
:10541000FDF7DAF95C4BE366BDF83030A4F8923062
:105420000CA9504604F1980984F894600DF097F99E
:105430004846FDF7DBF904F1E407544BC4F8983013
:10544000C4F8E05038460CF053F804F5AA73184637
:105450000393FBF7F7FD4E4BC4F8543104F5B478D1
:105460002433C4F85C31C4F860514046FDF7BEF9FE
:1054700004F5D873184608EE103AFDF7B7F904F5AD
:10548000FC73184608EE903AFDF7B0F904F5107376
:10549000184609EE103A0DF0A3FA04F522731846E7
:1054A00009EE903A0DF09CFA04F5347318460AEEB2
:1054B000103A0DF095FA04F5467318460AEE903A44
:1054C0000DF026F9334A04F58053C3E95B24324AD0
:1054D0004FF46161C3E95D2504F557700EF03CF9A6
:1054E0004FF4A0732A46584600932946F023FDF74F
:1054F00057F9261D4FF07F43A366594630460AF000
:105500009FFB2A4650462946FDF73DF909235046A0
:105510000CA9ADF830300DF022F9514630460AF0B2
:105520008FFB4FF49A7256214846FDF72CF9D4F8B8
:105530009830A4F8CC500DF1100A4FF0FF3B5046C4
:10554000D3F88430C4F8C8B0494698479AE80700B1
:1055500004F1D40383E80700104B1B6804F5557A67
:105560002BB90F4B0F4A60210F4824F08BFC0F4BD7
:105570001B882A2B1ED80E4B0A4A6121F4E700BF74
:10558000E8D30208A8E3020870E5020838BA020866
:10559000DCE00208D0D3020865530008B42E0120D5
:1055A00078B802087AB90208F5B80208B82E0120C6
:1055B0003CB90208A54B2A21186802F0F9FDA44A5B
:1055C00003460421504612F043FF4846C4F8E0A0C9
:1055D0000CF0CAFC9F4B0C930CA92B234846ADF84A
:1055E00034300CF0E1FC494630460AF029FB0A232E
:1055F00000933222F02329463846FDF7D1F8039B69
:10560000C4F80C31A02211463846C4F860B1A4F8A1
:1056100064B10CF083F8A0224FF4EB5138460CF043
:1056200088F8D4F82031202B05D02023C4F820316D
:1056300038460BF07DFF384601210CF085F83946DD
:10564000304604AD4FF0FF370AF0FAFA4FF0000A87
:10565000232240464521FDF796F841462846C4F8E6
:105660009871A4F89CA10CF005FA95E807000DF1DB
:10567000300908F13C0383E80700DFF8D8B1CDF822
:1056800030B0502349464046ADF834300CF08CFC25
:10569000414630460AF0D4FA18EE100A0C223621A0
:1056A000FDF771F818EE101A2846C4F8E071A4F856
:1056B000E4A10CF0DFF995E8070018EE103A3C334E
:1056C00083E80700512318EE100A4946ADF834303C
:1056D000CDF830B00CF068FC18EE101A30460AF025
:1056E000AFFA18EE900A3C225821FDF74CF818EE5C
:1056F000901A2846C4F82872A4F82CA20CF0BAF923
:1057000095E8070018EE903A3C3383E807001A2327
:1057100018EE900A4946ADF83430CDF830B00CF0B0
:1057200043FC18EE901A30460AF08AFA19EE100A75
:10573000F0222121FDF727F84FF0030B4A464FF0E6
:1057400002080BA919EE100AADF82CB0ADF83080A4
:1057500004F58B550CF00DFE5223A4F878320C356D
:1057600019EE100AFDF764F819EE101A3046C4E974
:105770009F77C4F868520AF063FA19EE900AAA22D9
:105780002121FDF700F84A460BA919EE900AADF861
:105790002CB0ADF830800CF0ECFD5323A4F8C032EF
:1057A00019EE900AFDF744F819EE901A3046C4E954
:1057B000B177C4F8B0520AF043FA1AEE100A642224
:1057C0002121FCF7E0FF4A460BA91AEE100AADF8BA
:1057D0002CB0ADF830800CF0CCFD5423A4F8083385
:1057E0001AEE100AFDF724F81AEE101A3046C4E932
:1057F000C377C4F8F8520AF023FA1AEE900A052289
:10580000C621FCF7C0FF0123ADF828300A231AEEA9
:10581000900AADF82C30ADF830300AAA0BAB09A9CC
:10582000CDF80090ADF824A00CF0DDFE30461AEE65
:10583000901AC4F850A3C4F840530AF001FA204665
:105840000FB0BDEC068BBDE8F08F00BFC02E01206D
:10585000B2B9020828BA02087047704730B4C2686B
:1058600044685510034604EB6200D20748BF6259F2
:105870009B6830BC48BFD358184743682BB1836836
:105880002BB9C06800F0010070471846704701202E
:10589000704710B51021044623F0E1FC204610BDEE
:1058A00010B5034B036004460DF060FF204610BDA9
:1058B00034D4020807B5074B036001900DF056FF82
:1058C00001984FF48A5123F0CAFC019803B05DF8A7
:1058D00004FB00BF34D4020838B500F510739942B8
:1058E00004460D4603D10FF043FCFEF743F804F5E0
:1058F00034739D4203D10FF03BFCFEF76BF804F5C7
:105900002274A54205D10FF033FCBDE83840FEF704
:10591000A1B838BD2DE9F04F2DED068B04468DB0B2
:10592000A346002511F0A4F8664BE5634BF8403B15
:1059300026222946584624F0AAFC5846FCF744FF84
:1059400004F16C0AFF26604B236426224FF6FF7396
:10595000294684F866605046A566ADF8283024F0E4
:1059600096FC5046FCF730FF584BE366BDF82830F4
:10597000A4F892300AA9504604F1980984F894607A
:105980000CF0EDFE4846FCF731FF514BC4F898305F
:1059900004F1E4031846C4F8E05004F5967708EEE5
:1059A000903AFCF723FF38460BF0A2FD04F5CE73C6
:1059B00018460393FBF746FB464BC4F89C3104F5AD
:1059C000D8782433C4F8A431C4F8A8514046FCF771
:1059D0000DFF04F5FC73184608EE103AFCF706FFBD
:1059E00004F51073184609EE103A0CF0F9FF04F5AF
:1059F0002273184609EE903A0CF0F2FF04F5347366
:105A000018460AEE103A0CF0EBFF334A04F58053C7
:105A1000C3E94C24314A4FF46161C3E94E2504F5D2
:105A200048700DF099FE4FF4A0732A465846009333
:105A30002946F023FCF7B4FE261D4FF07F43A366F2
:105A4000594630460AF0FCF82A4650462946FCF7EB
:105A50009AFE092350460AA9ADF828300CF07FFEC3
:105A6000514630460AF0ECF84FF49A7256214846F7
:105A7000FCF789FE4FF0FF33C4F8C830D4F89830F3
:105A8000A4F8CC500DF1100BD3F884304946584699
:105A900098479BE8070004F1D40383E80700104B04
:105AA0001B6804F5467A2BB90E4B0F4A60210F484C
:105AB00024F0E8F90E4B1B881B2B1DD80D4B0A4A0E
:105AC0006121F4E734D40208A8E3020870E5020873
:105AD00038BA0208DCE002081CD40208D9580008D1
