:020000040800F2
:10000000000003204D060008F1220008F522000838
:10001000F9220008FD22000801230008000000006A
:10002000000000000000000000000000E1D1000816
:10003000052300080000000071D2000839CA00083A
:100040009D0600089D0600089D0600089D06000804
:100050009D0600089D0600089D0600089D060008F4
:100060009D060008092300089D0600089D0600085B
:100070009D0600089D0600089D0600089D060008D4
:100080009D0600089D0600089D0600089D060008C4
:100090009D0600089D0600089D0600089D060008B4
:1000A0009D0600089D0600089D0600089D060008A4
:1000B0009D0600089D0600089D0600089D06000894
:1000C0009D0600089D0600089D0600089D06000884
:1000D0009D0600089D0600089D0600089D06000874
:1000E0009D0600089D0600089D0600089D06000864
:1000F0009D0600089D0600089D0600089D06000854
:100100009D0600089D0600089D0600089D06000843
:100110009D0600089D060008292300089D0600088A
:100120009D060008291C00089D0600089D06000881
:100130009D0600089D0600089D0600089D06000813
:100140009D0600089D0600089D0600089D06000803
:100150009D0600089D0600089D0600089D060008F3
:10016000352300089D0600089D0600089D0600082E
:100170009D0600089D0600089D060008000000007E
:100180009D0600089D0600089D0600089D060008C3
:100190009D0600089D0600089D0600089D060008B3
:0C01A000412300089D0600089D06000891
:1001B00010B5054C237833B9044B13B10448AFF3A1
:1001C00000800123237010BD6801002000000000A2
:1001D00064AD020808B5034B1BB103490348AFF3F4
:1001E000008008BD000000006C01002064AD020822
:1001F0004B1C012B98BF70472DE9F003911C9B0805
:10020000B1F80480B1F802900A8831F802CC804439
:10021000814402448444D9F80070D8F8006015681D
:10022000DCF80040C9F80060C8F80070CCF8005055
:100230001460D9F80470D8F804605568DCF80440FC
:10024000C9F80460C8F80470CCF804505460083150
:10025000013BD5D1BDE8F00370474B1C012B98BF83
:1002600070472DE9F003911C9B08B1F80480B1F8A8
:1002700002900A8831F802CC00EB580800EB5909CB
:1002800000EB520200EB5C0CD9F80070D8F800606B
:100290001568DCF80040C9F80060C8F80070CCF8B8
:1002A000005014600831013BDFD1BDE8F003704716
:1002B00001F0FF01102A2BDB10F0070F08D010F817
:1002C000013B013A8B422DD010F0070F42B3F6D11B
:1002D000F0B441EA012141EA014122F007047FF034
:1002E00000070023F0E80256083C85EA010586EA8B
:1002F000010685FA47F5A3FA87F586FA47F6A5FAC7
:1003000087F68EB9EED1F0BC01F0FF0102F00702D2
:1003100032B110F8013B013A83EA010313B1F8D17D
:100320000020704701387047002D06BF354603385E
:10033000073815F0010F07D1013015F4807F02BF97
:10034000013015F4C03F0130F0BC0138704700BFE8
:1003500053B94AB9002908BF00281CBF4FF0FF312C
:100360004FF0FF3000F070B9ADF1080C6DE904CE2C
:1003700000F006F8DDF804E0DDE9022304B0704780
:100380002DE9F047089E0D4604460F46002B4AD142
:100390008A42944665D9B2FA82F343B102FA03FC69
:1003A000C3F120029F4020FA02F217439C404FEA1B
:1003B0001C4E1FFA8CF5B7FBFEF1220C0EFB1177D9
:1003C00042EA074201FB05F090420AD91CEB020207
:1003D00001F1FF3780F01C81904240F2198102390F
:1003E0006244121AA4B2B2FBFEF00EFB102244EAE1
:1003F000024400FB05F5A5420AD91CEB040400F1F8
:10040000FF3280F00781A54240F204816444023843
:1004100040EA0140641B00211EB1DC400023C6E914
:100420000043BDE8F0878B4208D9002E00F0ED8034
:100430000021C6E900050846BDE8F087B3FA83F15C
:10044000002949D1AB4202D3824200F2F880841ADB
:1004500065EB030201201746002EE2D0C6E90047F3
:10046000DFE702B9FFDEB2FA82F3002B40F09080A2
:100470008A1A4FEA1C471FFA8CFE0121B2FBF7F5DE
:1004800007FB1520220C42EA00420EFB05F09042C9
:1004900008D91CEB020205F1FF3802D2904200F2AB
:1004A000CB804546121AA4B2B2FBF7F007FB10222C
:1004B00044EA02440EFB00FEA64508D91CEB0404E6
:1004C00000F1FF3202D2A64500F2BB801046A4EB39
:1004D0000E0440EA05409FE7C1F120078B4022FA55
:1004E00007FC4CEA030C05FA01F420FA07F3FD407F
:1004F0004FEA1C492343B5FBF9F81FFA8CFE09FBB0
:1005000018551C0C44EA054408FB0EF5A54202FAF6
:1005100001F200FA01F00BD91CEB040408F1FF3AD8
:1005200080F08880A54240F28580A8F102086444EA
:10053000641B9DB2B4FBF9F309FB134445EA044480
:1005400003FB0EFEA64508D91CEB040403F1FF359E
:100550006CD2A6456AD9023B644443EA0843A3FB34
:100560000295A4EB0E04AC42C846AE4656D353D017
:1005700056B1B0EB080264EB0E0404FA07F7CA4068
:10058000CC401743C6E9007418460021BDE8F08747
:10059000C3F1200102FA03FC20FA01F225FA01F16D
:1005A0009D402A434FEA1C471FFA8CFEB1FBF7F02F
:1005B00007FB1015110C41EA054100FB0EF58D42B9
:1005C00004FA03F408D91CEB010100F1FF382FD223
:1005D0008D422DD902386144491B92B2B1FBF7F527
:1005E00007FB151142EA014205FB0EF1914208D9C1
:1005F0001CEB020205F1FF3816D2914214D9023DDC
:100600006244521A45EA004138E73146304608E76D
:100610003946E6E61046FBE64845A9D2B9EB0208A2
:1006200065EB0C0E013BA3E74546EAE72B4694E752
:100630004046D1E7D0467BE7023D624432E70846B8
:100640000AE76444023842E7704700BFDFF834D05D
:10065000002103E00C4B5B58435004310B480C4B1A
:1006600042189A42F6D30B4A02E0002342F8043BB8
:10067000094B9A42F9D308F053FC29F0F7FD00F03A
:100680008FFE70470000032020E8150800000020BE
:100690006801002068010020B43A0120FEE7000054
:1006A000704700BF08B500F0ABFBBDE8084000F0A4
:1006B00033BB00BF00F0A6BB704710B50421044651
:1006C00028F0BDFC204610BD38B50C4B0C4C1880F2
:1006D0000C4B822019806368984740F611039842BA
:1006E0000AD1094D23682C60822098472B6882200C
:1006F000DB689847002038BD0120FCE7840100201A
:100700005000002086010020880100204FF4A071D5
:10071000F020FFF7D9BF0000F7B5334D2B68044632
:100720001B698220984780B2208000284AD02B681D
:100730000DF106025B6901A982209847BDF80630D9
:1007400040F6746293423FD9ADF80620BDF80630FA
:10075000D21A92B20A2A3DD90B23B2FBF3F2234BF1
:100760001B889A4201D9013B9AB2BDF8043040F689
:10077000B8318B4230D8C3F571630E339BB20F2171
:10078000B3FBF1F31A4909888B4201D901398BB2C5
:10079000184E194D30682F68834281B28CBF591AA8
:1007A000C91AB8B2BA428CBF101A801A89B280B284
:1007B00001440529C8BF33603368C8BF2A6063801D
:1007C0002B68A38003B0F0BDB32B9CBFB423ADF85E
:1007D0000630BBE70022C8E7C3F56D6308339BB260
:1007E0000E2BCCD80023D3E78801002086010020FF
:1007F000840100208C0100209001002037B568465C
:100800000D461446FFF788FFBDF8000048B1BDF85B
:1008100002302B60BDF804302360034B3C221A6089
:10082000012003B030BD00BF1400002010B1022829
:1008300009D07047074B1A68B2FA82F252090421B4
:10084000054808F009BE034B9A68B2FA82F25209D1
:100850001021F5E7940100200010024010B1022899
:1008600009D07047074B1A68003A18BF01220421CB
:10087000054808F0F1BD034B9A68003A18BF012201
:100880001021F5E7940100200010024010B1022869
:1008900004D070470421024808F0E2BD1021FAE7B5
:1008A0000010024008B530B1022809D00020431ED4
:1008B0005842584108BD0421024808F0C7FDF6E738
:1008C0001021F9E70010024070B5084D0024012600
:1008D000E0B2FFF7E7FF18B12B68012B18BF2E60BD
:1008E0000134052C05F10405F2D170BD94010020FE
:1008F000012380F8781080F8793070470020704725
:10090000034B4164003918BF01211970704700BFC3
:100910007B2E012000207047836B0BB108461847DF
:1009200070474FF6FF707047406803689B6918472F
:10093000704770477047000010B5044600F04EFB4A
:1009400023680349D3F88C302046BDE8104018478F
:10095000000000D008B503680446D3F880309847FB
:10096000236820469B6F984700F0ECF823682046E8
:100970001B6F9847292001F01BF800F0E3F823686B
:1009800020461B6F9847F8E710B5044610F072F840
:1009900023682046D3F8AC30BDE81040184700F07B
:1009A0000FBB00F013BB00F037BB00F0DFBA00F064
:1009B000E5BA00F03DBB00F0E9BA0FF0C7BA10B5D8
:1009C0007C21044628F03BFB204610BD90F87A308D
:1009D0001BB1406803681B68184718467047000041
:1009E00010B590F8341090F878400C4B8C421A787F
:1009F00009D03AB90A4A0B491488088810800C803B
:100A000001221A7010BD002AFCD0054A054914883D
:100A1000088810800C800022F3E700BF742E0120AC
:100A2000702E0120722E012070B50D46194635B981
:100A3000094B0A4A0A4840F2D22129F013F9C0E9C9
:100A40000F52084B003A18BF01221A700368BDE824
:100A50007040D3F88C301847D4AD02080CAE0208B1
:100A60005AAE02087A2E012008B5094B1B888B422A
:100A700003D8084B1B88934205D9074B074A0848FF
:100A80009E2129F0EFF8074B1980074B1A8008BD0B
:100A9000702E0120722E01209FAE020802AF0208C4
:100AA0005AAE0208762E0120782E0120012108B5C9
:100AB000002208460CF054F80A4B186028B90A4B7B
:100AC0000A4A28210A4829F0CDF8002204210120F1
:100AD0000CF0FAF8074B186018B9074B034A2C21A1
:100AE000F0E708BDA801002020B0020869B00208A4
:100AF00098B00208A401002012B10208024B4FF086
:100B0000FF3118680CF080B8A8010020014B18686C
:100B10000CF0AEB8A8010020024B002118680CF0C0
:100B200073B800BFA8010020FFF7F0BF03480449D5
:100B3000006800231A460CF001B900BFA401002090
:100B40000400002013B5084C00231A4601A92068B0
:100B50000CF02AF920684FF0FF33002201A90CF0B5
:100B600023F902B010BD00BFA4010020704700208F
:100B700070477047704700207047704708B5034AB8
:100B8000034B0448222129F06DF800BF77B1020819
:100B900054B10208B5B1020808B5034A034B044832
:100BA000272129F05FF800BF2DB2020854B10208D6
:100BB000B5B1020810B54421044628F040FA204699
:100BC00010BD000038B5044621460025064B2572AD
:100BD0000C3060606572012241F8203B10F0A2F8F1
:100BE000E562204638BD00BF74B20208012070479C
:100BF00038207047382303FB010008307047382342
:100C000003FB0100083070470120704741F2F430C7
:100C1000704741F2F43303FB01000830704741F2A2
:100C2000F43303FB010008307047012070471020A7
:100C3000704700EB01100830704700EB01100830DE
:100C40007047084602F008BE10B5034B0360044627
:100C50000EF005FD204610BD2CB3020810B5044669
:100C6000FFF7F2FF2046402128F0E9F9204610BDA9
:100C700010B5034B036004460EF0F1FC204610BD96
:100C8000F8B2020810B50446FFF7F2FF204641F221
:100C9000FC3128F0D4F9204610BD000010B5034BFC
:100CA000036004460EF0DBFC204610BDC4B202080F
:100CB00010B50446FFF7F2FF2046182128F0BFF9CF
:100CC000204610BD10B5094B0360044600F5A15045
:100CD0000830FFF7B9FF04F12C00FFF7C9FF04F15A
:100CE0001400FFF7DBFF204610BD00BF60B3020811
:100CF00008B50248FFF7E6FF08BD00BFB0010020BD
:100D000010B50446FFF7DEFF204641F2CC5128F033
:100D100096F9204610BD00002DE9F34101F08EFB4D
:100D2000054601F08FFB0024014623462846224653
:100D3000009417F00BFD264B264A274D1A602046DB
:100D400007F05AF9254817F069FC2B68BFF35B8F51
:100D5000DB0736D4284628F074F990B3204C214F95
:100D6000214B236007F1480604F1140004F12C081C
:100D70006060C4F80880E76026610EF071FC1B4BD0
:100D8000636140460EF06CFC194BE36238460EF08E
:100D900067FC04F58053174AC3F8282403F58D60D7
:100DA00007F07EFD224607F14001304607F07EFA4B
:100DB000304602F051FD104828F072FF284628F016
:100DC0004CF90E4802B0BDE8F041FFF7B5BD00BFD9
:100DD000E02E012040180020AC0100200800002077
:100DE000B0010020D815002060B30208C4B2020888
:100DF000F8B202082CB30208F10C0008C417002056
:100E0000704700000148FFF7A5BD00BFC4170020D0
:100E100070B5224E224C234D234B23603046FFF702
:100E2000D1FE28461BF05EFF204B2148DC600022EB
:100E30004FF48071C3E912121E491A86C3E91A12CF
:100E40001D4999671D4983F858200B60F0210180E6
:100E50001B485A6601801B4883F870204FF4A0712C
:100E6000C3E90422C3E90622C3E90822C3E90A222E
:100E7000C3E90E22C3E91022C3E91422C3E91722F1
:100E80005A67C3E9016501800F4801800F490A7064
:100E9000012283F834200E4A1A6070BD80170020AA
:100EA0007C17002044180020C4AD0208C41700209D
:100EB000702E012001000001000001017C2E0120A4
:100EC000762E0120722E0120782E0120742E012012
:100ED00050AF02080020704781807047C180704782
:100EE0000181704741817047704770477047704774
:100EF000704710B4C4880368121B84885B6D091B9B
:100F000012B25DF8044B09B218474FF6FF738381A4
:100F10004FF0FF3303621368C3611060704790F8AD
:100F200025201AB190F8242002B1186070470020E3
:100F300070478B88838001207047704780F82610A7
:100F4000704790F82600704710B50022B1F90840AC
:100F5000B1F90A10028042808480C18010BD002255
:100F6000028042808280C28070470000024B902243
:100F700083F85823704700BF00E100E0024B4FF0B8
:100F800080729A60704700BF00E100E0094A0A4998
:100F9000D3680A48C3F30A03013B9BB20B80116973
:100FA000C1F30A01013901801364536B43F001035B
:100FB0005363704700680140CA180020C818002019
:100FC000014BD3F8AC00704700680140024B01228E
:100FD000C3F8AC105A6270470068014070B504460F
:100FE0000FF009F823685D6E13F0B2FF014620464A
:100FF000A8472368054AD3F888502046AC4600230A
:10100000BDE87040A2F51631604700BF00B004D0C3
:101010000EF0D8BF0EF0E2BF0EF09EBF0FF0FFB88B
:1010200090F8252012B103685B69184770470000EB
:10103000044B4FF08072C3F88820BFF34F8FBFF38B
:101040006F8F704700E100E070B50023124E83807F
:10105000124B0360336893F8582005460AB1D86CE8
:1010600000B998680368DB6A98473368B0FA80F47F
:10107000D86C640930B10368DB6A9847002808BF60
:1010800044F001042CB9064B064A07482C2128F0ED
:10109000E9FD284670BD00BF7C2E012070B4020817
:1010A0006CB30208CAB3020803B402087047000018
:1010B0002DE9F041FF2BBDF8184000EB410105D1AF
:1010C00020F8024B8142FBD8BDE8F081174F04F4B1
:1010D000FC6604EA070C04F01F0403FB0CFC5E43EF
:1010E0005C43DB43DBB2FF25B0F800E00EEA070209
:1010F0000EF4FC6803FB02C203FB08680EF01F0E2F
:10110000B2FBF5F2B8FBF5F83A4008F4FC6842EAA5
:10111000080203FB0E4EBEFBF5FE0EF01F0E42EA68
:101120000E0220F8022B8142DED8CDE700F8FFFF47
:1011300010B5144C236823B3134B144A1B6C11884D
:101140008B4213D1124B198809F0A2FF226892F842
:101150006A30013382F86A30FFF7E8FC20680FF04C
:1011600089FCBDE810400020FFF760BB09F090FF4C
:10117000206803681B6A9847BDE810400020FFF70D
:101180006DBB10BD7C2E012000680140CA180020F4
:10119000C81800202DE9F04F2DED028B91B000AF63
:1011A00005468846FA6000F0CFFD03B2BB609B00A5
:1011B0007B60073323F00703ADEB030D0446EA46DB
:1011C000F0B1013DD146D346002600F0BBFD06FB41
:1011D000005008EB8003D3ED007A0136F8EE677A11
:1011E000B442EBEC017AF0D17E689FED2B7A564445
:1011F000D9ED007A77EEC77AE9EC017A4E45F7D15E
:10120000BB686A46A2EBC3039D4607EE904AFB68A3
:101210006D46A1B207F12800F8EE678A13FB04F9C6
:1012200026F04CFE64080023514607F128002A46A8
:1012300026F0C8FE22462946284627F031FB00F05A
:1012400085FDB9FBF0F905EB8909D9ED007A77EE58
:10125000A77A07F11803C7EEA80A07F11C02214676
:101260002846C7ED030A26F0C1FDD7ED067AB8EE91
:10127000678A00F06BFD07EE900AF8EE677AD7ED0B
:10128000030A67EE887A443787EEA80ABD46BDECAC
:10129000028BBDE8F08F00BF00F0FF4408B564206A
:1012A0000BF050FCFBE700BF80B5104CDFF8488026
:1012B0000F4F104E206800231A462146451ED8F8CD
:1012C000000025600BF03AFD22683C2338462021BF
:1012D00012B9236008F0C0F830464FF4005108F00E
:1012E000BFF84FF47A700BF02DFCE3E714000020F8
:1012F0000010024000180240D4180020014B18686A
:10130000704700BF1400002030B5002495B0CDE92F
:101310000A44CDE90C44CDE90344CDE905441E4A15
:1013200001940794116C1D4B41F080511164126CB3
:1013300002F080520192019A02941A6842F44042EB
:101340001A601B6803F44043029301224FF4803378
:10135000CDE908230823022510934FF480024FF4AF
:10136000A873CDE90E5211930222042308A8CDE9F7
:101370001223029909F0AEFE0F23CDE903354FF495
:10138000A0524FF4805303A80521CDE905420793ED
:101390000AF0B8F815B030BD0038024000700040C7
:1013A0002DE9804800249DB007F0C8FDFFF7ACFF91
:1013B000CDE90F44CDE91144C14B00941394196B4E
:1013C000C048C14D41F010011963196B01F01001C3
:1013D000009100990194196B41F020011963196B78
:1013E00001F02001019101990294196B41F08001F3
:1013F0001963196B01F08001029102990394196B32
:1014000041F004011963196B01F004010391039980
:101410000494196B41F001011963196B01F001018A
:10142000049104990594196B41F002011963196B39
:1014300001F00201059105990694196B41F04001F4
:101440001963196B01F04001069106990794196B15
:1014500041F0080119631B6B03F008032246079350
:101460001421079B07F0F8FF96482021012207F07E
:10147000F3FF96482246042107F0EEFF94482246E7
:101480004FF4405107F0E8FF012292484FF4005119
:1014900007F0E2FF01264FF00309142389480FA942
:1014A0004FF00808CDE90F36CDE9114907F090FE5D
:1014B0004FF488138348CDF83C800FA91093119402
:1014C00007F086FE20237F480F930FA902274FF0D5
:1014D000040ACDE91064129407F07AFE7B48CDF837
:1014E0003CA00FA9CDE91064129707F071FE4FF4EC
:1014F000405377480F930FA9CDE91064129707F076
:1015000067FE4FF4004374480F930FA90F23139302
:101510004FF4005BCDE91074129407F059FE6D484A
:10152000CDF83CB00FA9CDE91064129407F050FE3D
:1015300022460521092007F051FD092007F08CFD06
:101540006648674B036007F095FD6649664B284681
:10155000C5E900134FF480432B61C5E90244C5E996
:101560000544C5E9074408F0DDF91021284609F0D3
:10157000A5FB2146284609F0C1FBDFF884C15B4882
:101580005B4D84624FF482734FF4007EC0E900C368
:101590001823C0E906E30A23C362C0E90244C0E994
:1015A0000444C0E908440AF09BFA072310931293FD
:1015B000504B2B6040204FF4C073C5E90503C5F8BC
:1015C00028B04FF400634FF0100B0FA928462B6290
:1015D000C5F80CA0C5E90164CDE91397EC616C6214
:1015E000CDF844A0C5F810B00F9715970AF086F90A
:1015F0004FF6FF720BA92846CDE90B68CDE90D64C3
:1016000008940AF09DF9304607F0C4FC4FF6FF72CB
:101610000BA92846CDE90B78CDE90D640AF090F9C5
:101620004FF6FF720BA92846CDE90B98CDE90DA422
:101630000AF086F94FF40C730893089B0E934FF64B
:10164000FF720BA92846CDE90BA80D960AF078F990
:10165000284640F26A51284DDFF8A8800AF08EF93A
:10166000342221460FA828F002FD244B2B600923C9
:101670006B611D23C5F82090EB6140F20D1940F21B
:101680004313C5E90993AC8640F24713284640F25C
:10169000171AC5E90BA3C5E90144C5E90344AE61C6
:1016A00085F8364009F04EFBF023109319934FF460
:1016B000A07312931A93FF234FF4806C24E000BFB1
:1016C00000380240001002402819002000080240A3
:1016D000000C02400018024000000240E018002008
:1016E00000300240005C0040A0860100581A002033
:1016F000241A0020400100A07C190020006801404D
:1017000000500140F81A002022460FA928461493E1
:101710000523CDE916C34E4D0F94119413971594DC
:101720001894ADF86C408DF86E4009F0E1FB494B20
:101730002B601B6898472B68474DDB6898474FF62E
:10174000FF79464B2B602846C5E90144C5E90444AE
:10175000AC61C5F80C90CDE90F44CDE91144CDE959
:101760000B4413940AF0ACFD0FA92846CDE90F44B1
:101770000AF020FF0BA92846CDE90B440BF058F8DE
:10178000374BC8F800304046CDE90B44CDE90D4455
:10179000CDE90F44CDE91144C8E90144C8F80C90E3
:1017A00013940994C8F81040C8F818400A940AF035
:1017B00087FD4FF480530BA940462A4D0B930AF046
:1017C00049FE0FA94046CDE90F440AF0F3FE09A9EE
:1017D0004046CDE909440BF02BF8234B2B60C5E9BB
:1017E0000A44C5E90C442846C5E90144EC6007F009
:1017F0006BFC3146284607F095FCFEF753FFFEF7D9
:101800004FFF00F04BF900F07DF90BF023F9174A78
:10181000394658460BF058FA154B164A18602146BF
:1018200015480BF043F9154B154A18602146154829
:101830000BF03CF9144B154A0546214614481D602F
:101840000BF034F9134B18600BF016F9FEE700BFEC
:10185000D018002018000020B01A0020000001401D
:1018600000040040E818002000B00240E0B4020884
:10187000D41800201CB502089D120008DC180020B6
:10188000BCB40208B5060008CC180020F8B4020861
:10189000A9120008D8180020704700BF704700BF89
:1018A00010B5094C86B024680294144601238DF8C3
:1018B00017400DF117040A460193014600940348AE
:1018C00008F0F8F806B010BD0C0000202819002020
:1018D00000B50B4B87B01B68029384460A46012370
:1018E0000DF117010020CDE900138DF817006146B6
:1018F000044808F0D1F99DF8170007B05DF804FB23
:101900000C0000202819002010B5094C84B0844632
:1019100020680290CDE9002306480A46012361466B
:1019200008F0BAF9003818BF012004B010BD00BF9C
:101930000C0000202819002007F02CBB08B5064831
:101940000022042107F088FDBDE80840024801227A
:10195000042107F081BD00BF0008024030B5104DE2
:1019600083B0044601220F484FF4005107F074FD84
:1019700028460022042107F06FFD0B4B0B481B6823
:10198000ADF806400DF1060101220AF00BF9012223
:101990000421284603B0BDE8304007F05DBD00BF1C
:1019A00000080240000C024010000020581A0020DD
:1019B00030B5104D83B0044600220F484FF400515B
:1019C00007F04AFD28460022042107F045FD0B4B95
:1019D0000B481B68ADF806400DF1060101220AF024
:1019E000E1F801220421284603B0BDE8304007F0A9
:1019F00033BD00BF00080240000C02401000002070
:101A0000581A00202DE9F043194E1A4FDFF868905C
:101A1000DFF8688083B00C4605460022304604217A
:101A200007F01AFD384600224FF4005107F014FD6C
:101A3000D9F80030ADF8045001A9012240460AF05F
:101A4000B1F8D9F80030224601A940460AF052FB0D
:101A5000384601224FF40051019C07F0FDFC30464E
:101A60000122042107F0F8FC204603B0BDE8F08312
:101A700000080240000C024010000020581A00200C
:101A800007F088BA034B02689A4200D0704707F00B
:101A90006FBA00BF00100040704700BF10B483B0A1
:101AA000154B1649002400941A6B42F020021A6369
:101AB0001A6B02F020020092009A0868104A40F463
:101AC00040500860086840F4403008600194196B89
:101AD00041F0040119631B6B03F004030193019BA4
:101AE000136843F0C0031360136843F00C031360E2
:101AF00003B05DF8044B7047003802400014024008
:101B00000008024082B00C4A00230193116C41F09E
:101B100001011164126C4FF0804302F00102019246
:101B200043F24431092201989962DA625A6842F01C
:101B300020025A6002B070470038024010B483B0EF
:101B40003449354A002400944B6C43F480634B6461
:101B50004B6C03F480630093009BD06A2F4B40F4DE
:101B60004010D062506B40F004005063506B40F462
:101B7000D0705063506B40F4C0505063506B40F4D1
:101B8000B0205063506840F480705060906840F01E
:101B900080509060906840F0C0609060906840F421
:101BA0008070906001940A6B42F480020A630A6BB1
:101BB00002F480020192019A9A6A22F001029A626A
:101BC0009A6AD207FCD49A681548164942F4006212
:101BD0009A609A6A42F080629A629A6A42F400328B
:101BE0009A629A6A42F480429A629A6A42F48052F5
:101BF0009A629A6A42F480629A629A6A4FF4807496
:101C000042F010029A62DC621863596303B05DF817
:101C1000044B70470038024000220140006402403B
:101C20004C220140401B00202049214B0A68013210
:101C30000A601A68110500D470471E4A4FF00071FF
:101C4000C2F88410BFF34F8FBFF36F8FC2F88411B7
:101C50009A6A22F001029A629A6AD207FCD49968C1
:101C60004FF0804241F4006199601368124923F0FB
:101C7000010313608868114B20F0010088608868B8
:101C800020F480708860596A0D4841F4807159626F
:101C9000596A21F48071596213684FF0010C23F0E6
:101CA0000103136080F800C0704700BF441F00208C
:101CB0000064024000E100E00022014000380240E0
:101CC000401F002010B5184C18484FF480620021C6
:101CD00028F0CDF9FFF732FFA36A1549154A4FF0F6
:101CE000007043F00103A362C1F884014860936867
:101CF0004FF0804143F0010393600B680E4A43F0BC
:101D000001030B6011680D4B99420D4903DD0B78FF
:101D1000012B00D0FEE7002364200B70136007F056
:101D200039F9024810BD00BF00640240401B00208A
:101D300000E100E000220140481F00209F860100D2
:101D4000401F002004207047402070474FF420704F
:101D5000704700BF82B00E4B00220092596C41F4D4
:101D600080415964586C00F48040009000980192C2
:101D7000186C40F0805018641B6C03F08053019382
:101D8000019B0F216FF0010002B007F027B900BFDF
:101D9000003802400B4B02689A4200D0704782B074
:101DA00000220192D3F8302842F48052C3F8302840
:101DB00003F500631B6B03F480530193019B02B096
:101DC000704700BF003002400A4B02689A4200D0C0
:101DD000704782B0A3F5F043002201921A6B42F4DF
:101DE00000021A631B6B03F400030193019B02B012
:101DF000704700BF00B002402DE970432E4B0268CF
:101E00008AB000249A42CDE90444CDE906440894FE
:101E100002D00AB0BDE87083284D01942B6B28488E
:101E200043F004032B632B6B03F004030193019B2A
:101E300002942B6B43F001032B632B6B03F0010324
:101E400002934FF400724FF001084FF0030904268B
:101E500004A91223CDE90423CDE90689029B089643
:101E600007F0B6F904A94FF48072122315480896BA
:101E7000CDE90423CDE9068907F0AAF903942B6C78
:101E800043F400032B642B6C03F40003224605216A
:101E900003934820039B07F0A1F8482007F0DCF8E3
:101EA0002B6A43F400032B622B6A23F400032B629A
:101EB0000AB0BDE8708300BF005C004000380240FB
:101EC00000080240000002402DE9F04104469AB0AB
:101ED000002130220EA8CDE90811CDE90A110C919C
:101EE00028F0C5F8674B22689A4202D01AB0BDE8C4
:101EF000F081C0230821042212930EA84FF400336E
:101F00000E911492179309F0CDFB002840F0B78092
:101F10005D4B5E48002401945A6C42F080625A6422
:101F20005A6C02F080620192019A02941A6B42F09C
:101F300020021A631A6B02F020020292029A0394A2
:101F40001A6B42F001021A631A6B02F0010203924B
:101F5000039A04941A6B42F002021A631A6B02F09D
:101F600002020492049A05941A6B42F040021A632A
:101F70001A6B02F040020592059A06941A6B42F021
:101F800004021A631A6B02F004020692069A07947E
:101F90001A6B42F008021A631B6B03F00803002659
:101FA00002270E25079308A94FF480620223CDE98A
:101FB0000823CDE90A67079B0C9507F009F908A9E2
:101FC00041F65802022332480C95CDE908234FF020
:101FD0000908CDE90A6707F0FBF808A903220223E4
:101FE0002C48CDF83080CDE90823CDE90A6707F009
:101FF000EFF808A94FF47062022326480C95CDE94A
:102000000823CDE90A6707F0E3F808A94FF40C624A
:10201000022321480C95CDE90823CDE90A6707F092
:10202000D7F808A9C02202231C480C95CDE9082343
:10203000CDE90A6707F0CCF808A90822022318485E
:102040000C95CDE90823CDE90A6707F0C1F8022312
:1020500008A94FF4A0521048CDF83080CDE90823EC
:10206000CDE90A6707F0B4F822460521582006F0AA
:10207000B5FF582006F0F0FF1AB0BDE8F081FFF779
:102080000BFD45E7006801400038024000140240A3
:102090000000024000040240001802400008024014
:1020A000000C02400000000010B51B4A016888B017
:1020B00000239142CDE90233CDE90433069301D0E8
:1020C00008B010BD02F568420093506C40F48010D7
:1020D0005064506C00F48010009000980193136BD2
:1020E0000E4843F020031363136B9FED097B03F04D
:1020F000200301930322052302A98DED027BCDE984
:102100000523019C07F064F808B010BDAFF3008010
:102110008003000002000000005001400014024053
:10212000124A0368934282B012D0114A934201D0FE
:1021300002B070470F4B002201921A6C42F002026B
:102140001A641B6C03F002030193019B02B07047F9
:10215000084B002200925A6C42F001025A645B6CF8
:1021600003F001030093009B02B0704700000140A0
:102170000004004000380240F0B52B4B89B01C68C9
:1021800000220492002C4CD10127284A01941F60A0
:10219000936B27483B439363936B3B4003260C258B
:1021A0004FF63F02019302A90223CDE90223CDE9B4
:1021B0000565019B07F00CF81E48029702A902274B
:1021C000CDE90374CDE9056507F002F848F2331351
:1021D0001948029302A9CDE90374CDE9056506F01B
:1021E000F7FF4FF683731548029302A9CDE90374F4
:1021F000CDE9056506F0ECFF4CF20373104802933D
:1022000002A9CDE90374CDE9056506F0E1FF60237D
:102210000C48039702A9CDE904460695029306F0FF
:10222000D7FF09B0F0BD00BF4C1F002000380240AE
:102230000014024000080240001802400010024052
:10224000000C02400004024070B588B0234B00220D
:1022500002921A6C42F010021A641B6C03F0100315
:102260000293054601A903A8029B09F0F9F9069B10
:10227000D3B909F0E5F90346194A1A4C1A49A2FBE9
:1022800003239B0C013B0022C4E90013204640F2CB
:10229000E7332261A260A261E3600AF011F806460A
:1022A00030B1304608B070BD09F0CAF94300E3E729
:1022B00020460AF093F806460028F2D1362006F0B0
:1022C000CBFE0F2D01D90126EBE7324629463620F9
:1022D00006F084FE054B1D60E3E700BF00380240B6
:1022E00083DE1B43501F00200010004080000020B0
:1022F000704700BFFEE700BFFEE700BFFEE700BF7C
:10230000FEE700BF704700BF08B5C82006F042FED8
:1023100004480022202107F09FF8BDE8084008206B
:1023200007F0AAB80010024001480AF0D7B900BF70
:10233000501F0020014807F0FFBF00BF28190020F0
:10234000014808F073BD00BF7C19002001207047D0
:1023500008B527F085FF162303604FF0FF3008BD56
:1023600008B527F07DFF16230360FEE770B5161E43
:1023700007DD0C468D19AFF3008004F8010BA54270
:10238000F9D1304670BD00BF70B5161E07DD0C4692
:102390008D1914F8010BAFF30080AC42F9D130462F
:1023A00070BD00BF4FF0FF30704700BF4FF40053C7
:1023B0004B600020704700BF01207047002070472D
:1023C0000B4A08B50346106828B1034469468B429E
:1023D00007D8136008BD07481060034469468B4264
:1023E000F7D927F03DFF0C2303604FF0FF3008BD05
:1023F000981F0020B83A0120704710B50421044608
:1024000026F01DFE204610BD08B5032913D8DFE8CD
:1024100001F002060A0E05F03BFE006808BD05F05B
:1024200037FE4068FAE705F033FE8068F6E705F00E
:102430002FFEC068F2E70020F0E700000048704778
:1024400054B502080D20704713B5002451B103683C
:1024500001948DF8034001AA9C680DF10303A04785
:1024600002B010BD0846FBE7C0897047008A70477C
:10247000C088704780887047807A00F07F0070477E
:10248000807AC0097047704770477047704770473F
:10249000704730B50368018185B06D460146D3F8B9
:1024A000843004462846984795E807003C3484E881
:1024B000070005B030BD30B50368418185B06D4679
:1024C0000146D3F8843004462846984795E807002B
:1024D0003C3484E8070005B030BD00220280428011
:1024E0008280C280704780F83610704770B50368EC
:1024F00004461B6B154698472368294620465B6EA9
:10250000BDE87040184700207047806C70477047E6
:102510007047704730B4C26844685510034604EBF6
:102520006200D20748BF62599B6830BC48BFD3588D
:10253000184743682BB183682BB9C06800F00100CD
:102540007047184670470120704710B508210446AF
:1025500026F075FD204610BD10B54C21044626F02E
:102560006EFD204610BD10B51021044626F067FD13
:10257000204610BD10B5034B0360044610F0E6FF83
:10258000204610BDC0B8020807B5074B0360019094
:1025900010F0DCFF01984FF48A5126F050FD0198AD
:1025A00003B05DF804FB00BFC0B8020808B5FEF731
:1025B00037FD08BD036870B55E6B124B1B6804469F
:1025C0008DB22BB9104B114A6C21114827F04AFBF0
:1025D0001049828D0988914203D80F4B0B4A6D2117
:1025E000F3E713F812200D4B1B6853F82200036821
:1025F0001B6B9847281A01B233462046BDE870404D
:10260000184700BFD42E012058B602089AB6020817
:10261000D5B60208D82E01201CB70208DC2E0120F6
:1026200038B500F51073994204460D4603D112F0F7
:102630008FFC01F021F904F534739D4203D112F0AF
:1026400087FC01F0D9F904F52274A54205D112F0F6
:102650007FFCBDE8384001F0DFB938BD00224FF003
:10266000FF31C0E900218260704770B503680446FD
:102670001B6B154698472368294620465B6BBDE8CF
:102680007040184770B504461D46BDF91060FFF74D
:10269000ECFF2368294620469B6B98472368314608
:1026A0002046DB6BBDE87040184700000022C0E9FF
:1026B0000122C0E90322C0E90522C0E907224FF444
:1026C00080728284014A0260704700BFA0B702088E
:1026D00010B526220446002127F0C9FC2046FFF74A
:1026E000E5FF0A4B23600A4BA3624FF6FF73A385F5
:1026F0004FF47F020023C4E90C324FF0FF32C4E9EB
:1027000010232387E363204610BD00BFC8E0020802
:1027100008B802081A4B73B51B88018F8B42064616
:102720002BD9184B1B682BB9174B184A18486C212A
:1027300027F098FA13F81120164B1B6853F8225013
:10274000154B186805F094FC2B6801909B6B28468C
:1027500098472B6801999B6C0446284698472B683C
:1027600001995B6A14FB00F428469847A4B2231829
:102770001BB2A6F8463002B070BD0023F9E700BFD7
:10278000D82E0120D42E012058B602089AB602088D
:10279000D5B60208DC2E0120E02E01202DE9F04FF5
:1027A0002DED068B04468DB0A346002514F050F89D
:1027B000664BE5634BF8403B26222946584627F0F6
:1027C00056FC5846FFF772FF04F16C0AFF26604B77
:1027D000236426224FF6FF73294684F8666050462C
:1027E000A566ADF8283027F042FC5046FFF75EFFA3
:1027F000584BE366BDF82830A4F892300AA9504639
:1028000004F1980984F894600FF099FE4846FFF7A8
:102810005FFF04F1E407504BC4F89830C4F8E0506F
:1028200038460EF055FD04F5AA7318460393FEF7DB
:102830000BFC4A4BC4F8543104F5B4782433C4F883
:102840005C31C4F860514046FFF742FF04F5D8738D
:10285000184608EE103AFFF73BFF04F5FC731846E4
:1028600008EE903AFFF734FF04F51073184609EEAE
:10287000103A0FF0A5FF04F52273184609EE903ABE
:102880000FF09EFF04F5347318460AEE103A0FF06D
:1028900097FF334A04F58053C3E94C24314A4FF47F
:1028A0006161C3E94E2504F5487010F045FE4FF410
:1028B000A0732A46584600932946F023FFF7E2FE0C
:1028C000261D4FF07F43A366594630460DF0A8F809
:1028D0002A4650462946FFF7C8FE092350460AA952
:1028E000ADF828300FF02BFE514630460DF098F829
:1028F0004FF49A7259214846FFF7B7FED4F8983042
:10290000A4F8CC500DF1100A4FF0FF3B5046D3F81D
:102910008430C4F8C8B0494698479AE8070004F1E3
:10292000D40383E80700104B1B6804F5467A2BB9E3
:102930000E4B0F4A60210F4827F094F90E4B1B886D
:10294000142B1DD80D4B0A4A6121F4E7C0B80208C8
:1029500058E1020820E3020818B802088CDE0208D9
:10296000A8B8020821260008D42E012058B6020873
:102970005AB70208D5B60208D82E01201CB70208A3
:10298000934B1421186805F073FB924A0346042107
:10299000504615F04DFC4846C4F8E0A00FF0D4F9BD
:1029A0008D4B0A930AA915234846ADF82C300FF039
:1029B000EBF9494630460DF033F80A2300933222F2
:1029C000F02329463846FFF75DFE039BC4F80C311F
:1029D000A02211463846C4F860B1A4F864B10EF0E4
:1029E0008DFDA0224FF4EB5138460EF092FDD4F845
:1029F0002031202B05D02023C4F8203138460EF09A
:102A000087FC384601210EF08FFD3946304604AD73
:102A10004FF0FF370DF004F84FF0000A3C2240461B
:102A20004621FFF722FE41462846C4F89871A4F8D3
:102A30009CA10EF00FFF95E8070008F13C0383E826
:102A40000700DFF89491CDF828900D230AA940469D
:102A5000ADF82C300FF098F9414630460CF0E0FF0D
:102A600018EE100A23224521FFF7FFFD18EE101A79
:102A70002846C4F8E071A4F8E4A10EF0EBFE95E856
:102A8000070018EE103A3C3383E807004A2318EE9B
:102A9000100A0AA9ADF82C30CDF828900FF074F97F
:102AA00018EE101A30460CF0BBFF18EE900A0C22FC
:102AB0003621FFF7DAFD18EE901A2846C4F828727E
:102AC000A4F82CA20EF0C6FE95E8070018EE903A86
:102AD0003C3383E80700492318EE900A0AA9ADF8B1
:102AE0002C30CDF828900FF04FF918EE901A3046A0
:102AF0000CF096FF19EE100AF0222121FFF7B5FD28
:102B00004FF003090AAA4FF0020809A919EE100AAA
:102B1000ADF82490ADF8288004F589550FF019FB25
:102B20004823A4F87832103519EE100AFFF7F2FDA9
:102B300019EE101A3046C4E99F77C4F868520CF0B9
:102B40006FFF19EE900AAA222121FFF78EFD0AAA33
:102B500009A919EE900AADF82490ADF828800FF07D
:102B6000F8FA4723A4F8C03219EE900AFFF7D2FD15
:102B700019EE901A3046C4E9B177C4F8B0520CF09F
:102B80004FFF1AEE100A64222121FFF76EFD0AAAF8
:102B900009A91AEE100AADF82490ADF828800FF0BC
:102BA000D8FA46231AEE100AA4F80833FFF7B2FD4C
:102BB0003046C4E9C3771AEE101AC4F8F8520CF084
:102BC0002FFF20460DB0BDEC068BBDE8F08F00BF97
:102BD000E02E012092B7020808B80208704770473B
:102BE00030B4C26844685510034604EB6200D20753
:102BF00048BF62599B6830BC48BFD35818474368E8
:102C00002BB183682BB9C06800F0010070471846EB
:102C100070470120704710B51021044626F00FFAC6
:102C2000204610BD10B5034B0360044610F08EFC27
:102C3000204610BD0CB9020807B5074B0360019090
:102C400010F084FC019841F25C0126F0F8F901983B
:102C500003B05DF804FB00BF0CB90208983088424D
:102C600008B505D112F074F9BDE8084000F0B4BE13
:102C700008BD00002DE9F04F2DED028B04468DB00C
:102C8000A146002513F0E4FDA54BE56349F8403B60
:102C900026222946484627F0EAF94846FFF706FD6E
:102CA00004F16C08FF269F4B236426224FF6FF7326
:102CB000294684F866604046A566ADF8283027F0BE
:102CC000D6F94046FFF7F2FC974BE366BDF8283093
:102CD000A4F892300AA904F1980B404684F8946055
:102CE0000FF02DFC58460FF06BFD04F1E00304F5E6
:102CF0009477184608EE903AFFF7EAFC38460EF053
:102D0000E7FA04F5CC7318460393FEF79DF9874B59
:102D1000C4F898312433C4F8A03104F5D6731846AA
:102D2000C4F8A45104F5FA7A08EE103AFFF7D0FC83
:102D30005046FFF7CDFC7E4A04F58053C3E91324C7
:102D40007C4A4FF46161C3E9152504F50F7010F05A
:102D5000F3FB4FF4A0732A46484600932946F0231C
:102D6000FFF790FC261D4FF07F43A366494630468F
:102D70000CF056FE2A4640462946FFF776FC4FF0F7
:102D8000090940460AA9ADF828900FF0D8FB414642
:102D900030460CF045FE584640F201122121FFF763
:102DA00064FC03230AAA09A95846ADF8243002237B
:102DB000ADF828300FF0CDF95846A4F8D090FFF7C1
:102DC000A9FC04F582530C334FF0FF39C4F8C0302E
:102DD00059463046C4E935990CF022FE0DF1100831
:102DE0003C2218EE900A2021FFF73FFC18EE901AC3
:102DF0004046C4F81091A4F814510EF02BFD98E849
:102E0000070004F58E7383E80700DFF82CB1CDF8D6
:102E100028B00A2318EE900A0AA9ADF82C300EF05B
:102E2000B3FF18EE901A30460CF0FAFD0A23009317
:102E30003222F02329463846FFF724FC039BC4F8CE
:102E40005031A02211463846C4F8A491A4F8A891A4
:102E50000EF054FBA0224FF4EB5138460EF059FB14
:102E6000D4F86431202B05D02023C4F864313846CF
:102E70000EF04EFA384601210EF056FB3946304628
:102E80000CF0CEFD4FF0FF3718EE100A232200257C
:102E90004521FFF7EAFB18EE101A4046C4F8DC7132
:102EA000A4F8E0510EF0D6FC98E8070018EE103AAE
:102EB0003C3383E807000B2318EE100A0AA9ADF88B
:102EC0002C30CDF828B00EF05FFF18EE101A304607
:102ED0000CF0A6FD0C2250463621FFF7C6FB5146EA
:102EE0004046C4F82472A4F828520EF0B3FC98E8C7
:102EF00007000AF13C0383E807000C230AA95046A7
:102F0000ADF82C30CDF828B00EF03EFF30465146DB
:102F10000CF086FD20460DB0BDEC028BBDE8F08FB5
:102F20000CB9020858E1020820E302088CDE02080E
:102F3000F4B802085D2C000808B802087047704712
:102F400030B4C26844685510034604EB6200D207EF
:102F500048BF62599B6830BC48BFD3581847436884
:102F60002BB183682BB9C06800F001007047184688
:102F700070470120704710B51021044626F05FF815
:102F8000204610BD10B5034B0360044610F0DEFA76
:102F9000204610BD58B9020807B5074B03600190E1
:102FA00010F0D4FA019841F25C0126F048F801983B
:102FB00003B05DF804FB00BF58B90208983088429E
:102FC00008B505D111F0C4FFBDE8084000F004BD0C
:102FD00008BD00002DE9F04F2DED028B04468DB0A9
:102FE000A146002513F034FCA54BE56349F8403BAE
:102FF00026222946484627F03AF84846FFF756FB6E
:1030000004F16C08FF269F4B236426224FF6FF73C2
:10301000294684F866604046A566ADF8283027F05A
:1030200026F84046FFF742FB974BE366BDF8283091
:10303000A4F892300AA904F1980B404684F89460F1
:103040000FF07DFA58460FF0BBFB04F1E00304F5E6
:103050009477184608EE903AFFF73AFB38460EF0A0
:1030600037F904F5CC7318460393FDF7EDFF874B52
:10307000C4F898312433C4F8A03104F5D673184647
:10308000C4F8A45104F5FA7A08EE103AFFF720FBD1
:103090005046FFF71DFB7E4A04F58053C3E9132415
:1030A0007C4A4FF46161C3E9152504F50F7010F0F7
:1030B00043FA4FF4A0732A46484600932946F0236A
:1030C000FFF7E0FA261D4FF07F43A36649463046DE
:1030D0000CF0A6FC2A4640462946FFF7C6FA09230B
:1030E00040460AA9ADF828300FF029FA414630468B
:1030F0000CF096FC584640F201122121FFF7B5FA78
:1031000003230AAA09A95846ADF824300223ADF8D2
:1031100028300FF01EF80F235846A4F8D030FFF7E0
:10312000F9FA04F582530C334FF0FF39C4F8C0307C
:1031300059463046C4E935990CF072FC0DF110087F
:103140003C2218EE900A3A21FFF78FFA18EE901AF7
:103150004046C4F81091A4F814510EF07BFB98E897
:10316000070004F58E7383E80700DFF82CB1CDF873
:1031700028B00E2318EE900A0AA9ADF82C300EF0F4
:1031800003FE18EE901A30460CF04AFC0A23009316
:103190003222F02329463846FFF774FA039BC4F81D
:1031A0005031A02211463846C4F8A491A4F8A89141
:1031B0000EF0A4F9A0224FF4EB5138460EF0A9F915
:1031C000D4F86431202B05D02023C4F8643138466C
:1031D0000EF09EF8384601210EF0A6F93946304629
:1031E0000CF01EFC4FF0FF3718EE100A23220025CA
:1031F0004521FFF73AFA18EE101A4046C4F8DC7180
:10320000A4F8E0510EF026FB98E8070018EE103AFB
:103210003C3383E80700102318EE100A0AA9ADF822
:103220002C30CDF828B00EF0AFFD18EE101A304655
:103230000CF0F6FB0C2250463621FFF716FA5146E9
:103240004046C4F82472A4F828520EF003FB98E814
:1032500007000AF13C0383E8070011230AA950463E
:10326000ADF82C30CDF828B00EF08EFD304651462A
:103270000CF0D6FB20460DB0BDEC028BBDE8F08F04
:1032800058B9020858E1020820E302088CDE02085F
:1032900040B90208BD2F000808B8020870477047FF
:1032A00000F598730868496803C370477047704712
:1032B0004160704710B50022B1F90840B1F90A1019
:1032C000028042808480C18010BD7047704700003A
:1032D000064BC0F84C310023C0F8503100F5A27302
:1032E000C0F84801C0F84031704700BF8D36000873
:1032F00001230372704770477047704770477047EB
:1033000001464068036810315B6E1847014640680B
:10331000036810311B6E1847704701464068036808
:1033200010315B6E184701464068036810311B6E10
:103330001847704710B4C26841685410034601EB47
:103340006200D20748BF0A599B685DF8044B48BF2A
:10335000D358184743682BB183682BB9C06800F075
:1033600001007047184670470120704710B50C21C6
:10337000044625F064FE204610BD10B51021044619
:1033800025F05DFE204610BD10B54FF4AE71044629
:1033900025F055FE204610BD10B53821044625F015
:1033A0004EFE204610BD10B52821044625F047FEEC
:1033B000204610BD10B53821044625F040FE2046B9
:1033C00010BD10B511F0C4FD0368BDE81040DB6B03
:1033D0001847000013B50446807A637A0130C0B202
:1033E0009842A07205D9012323720023A37202B070
:1033F00010BDB4F90C20002113F0DCFB10F0010229
:1034000083B22AD1E081194AB4F90E00E389128807
:10341000B4F91410A0820020D21AADF8020060683E
:1034200022835B1A124AADF804300368B2F9002017
:103430001B69ADF80010ADF8062069469847A37ADD
:10344000012BD4D10B4B1B78002BD0D011F080FD79
:1034500002B0BDE8104011F081BD4FF6FF710028A9
:10346000D8BF0A461344E381CDE700BF702E012088
:10347000722E01207A2E012010B50446D0F84001AA
:1034800058B10368DB68984738B1D4F84001036845
:103490009B6898470023C4F8403110BD2DE9F14FD7
:1034A000D0E9555A0746A86803681B6A98479728C9
:1034B00005D8464B464AA321464826F0D3FB686808
:1034C00003681B6A98470F2803D8434B404AA4213E
:1034D000F2E7E86803681B6A98470B2803D83F4B5C
:1034E0003B4AA521E8E711F033FDDFF8F8900430FE
:1034F00011F094FDD9F8000010B10368DB6898471B
:10350000D9F8000010B103681B689847DFF8D8802D
:10351000D8F8000010B103685B699847D7F83C0100
:1035200010B103685B689847D8F8000010B10368D1
:103530001B689847D7F83C0110B103689B6898470F
:10354000E868036800215B6A98474FF0000B244B42
:1035500003600446C0F804B080F808B0A8680368A7
:1035600059465B6A9847064605F04CFA6868036856
:1035700059465B6A98473146054605F01FFAC9F877
:103580000040C7F83C51C8F80060E5B12B1DCAF8EF
:1035900000303368C5F808A03046DB68F56398470B
:1035A0002B6828461B6898472146304613F0FCFAE2
:1035B000236820461B69984723685B69204601B051
:1035C000BDE8F04F18472B46E1E700BF84B9020879
:1035D00012BA020820BB020867BB02080ABC020834
:1035E00028D00208C42E0120C02E012037B5044681
:1035F000807A637A0130C0B29842A07205D9012363
:1036000023720023A37203B030BDB4F90C20002153
:1036100013F0D0FA10F0010283B228D1E081184BE8
:1036200018481988258BE389B0F90000ADF8060029
:10363000CA1A60682B445B1A12B2ADF804300368F2
:103640002283ADF8002000221B69ADF802206946F4
:103650009847A37A012BD6D10B4B1B78002BD2D0E5
:1036600011F076FC03B0BDE8304011F077BC4FF6A6
:10367000FF710028D8BF0A461344E381CFE700BF9B
:10368000702E0120722E01207A2E01202DE9F14F9B
:10369000D0E9555A0746A86803681B6A984741F263
:1036A0007B13984205D8464B464AA321464826F04C
:1036B000D9FA686803681B6A98470F2803D8434BF8
:1036C000404AA421F2E7E86803681B6A98470B2880
:1036D00003D83F4B3B4AA521E8E711F039FCDFF85E
:1036E000F890043011F09AFCD9F8000010B103688A
:1036F000DB689847D9F8000010B103681B68984749
:10370000DFF8D880D8F8000010B103685B699847EB
:10371000D7F83C0110B103685B689847D8F80000FF
:1037200010B103681B689847D7F83C0110B10368D3
:103730009B689847E868036800215B6A98474FF0E8
:10374000000B244B03600446C0F804B080F808B0B6
:10375000A868036859465B6A9847064604F00EFE5F
:103760006868036859465B6A98473146054604F025
:10377000DFFDC9F80040C7F83C51C8F80060E5B16A
:103780002B1DCAF800303368C5F808A03046DB6846
:10379000F56398472B6828461B68984721463046B2
:1037A00013F002FA236820461B69984723685B6977
:1037B000204601B0BDE8F04F18472B46E1E700BFB7
:1037C00084B90208ADBC020820BB020867BB02082E
:1037D0000ABC020828D00208C42E0120C02E0120F5
:1037E000044B1B6893F858200AB1D86C00B998684C
:1037F000704700BF7C2E0120F8B5044617460E46E0
:1038000011F0DAFC104B1C60104B2360104B0025AC
:10381000C4E951350F4BC4E95355186803680121B9
:103820009B68C4E94F55C4E955769847284604F08B
:10383000E3FBFFF7D5FF1BF084F8FFF7D1FF1BF088
:10384000FBF82046F8BD00BFD02E0120D4CF0208DF
:10385000BCCF02087C2E0120064BC0F84C3100235F
:10386000C0F8503100F5A273C0F84801C0F84031EB
:10387000704700BF8D360008064BC0F84C3100235E
:10388000C0F8503100F5A273C0F84801C0F84031CB
:10389000704700BF9D3E0008064BC0F84C31002326
:1038A000C0F8503100F5A273C0F84801C0F84031AB
:1038B000704700BFC14C0008064BC0F84C310023D4
:1038C000C0F8503100F5A273C0F84801C0F840318B
:1038D000704700BF5D3D0008064BC0F84C31002327
:1038E000C0F8503100F5A273C0F84801C0F840316B
:1038F000704700BF814B0008064BC0F84C310023D5
:10390000C0F8503100F5A273C0F84801C0F840314A
:10391000704700BF414A0008064BC0F84C310023F5
:10392000C0F8503100F5A273C0F84801C0F840312A
:10393000704700BF01490008064BC0F84C31002316
:10394000C0F8503100F5A273C0F84801C0F840310A
:10395000704700BFC1470008064BC0F84C31002338
:10396000C0F8503100F5A273C0F84801C0F84031EA
:10397000704700BF1D3C0008064BC0F84C310023C7
:10398000C0F8503100F5A273C0F84801C0F84031CA
:10399000704700BF81460008064BC0F84C31002339
:1039A000C0F8503100F5A273C0F84801C0F84031AA
:1039B000704700BF41450008064BC0F84C3100235A
:1039C000C0F8503100F5A273C0F84801C0F840318A
:1039D000704700BF01440008064BC0F84C3100237B
:1039E000C0F8503100F5A273C0F84801C0F840316A
:1039F000704700BFDD3A0008064BC0F84C31002389
:103A0000C0F8503100F5A273C0F84801C0F8403149
:103A1000704700BFC1420008064BC0F84C3100237C
:103A2000C0F8503100F5A273C0F84801C0F8403129
:103A3000704700BF81410008064BC0F84C3100239D
:103A4000C0F8503100F5A273C0F84801C0F8403109
:103A5000704700BF41400008064BC0F84C310023BE
:103A6000C0F8503100F5A273C0F84801C0F84031E9
:103A7000704700BF9D34000803685B6A1847000068
:103A8000124B13B503604FF480734363104B4172C4
:103A900003611049104BB1F90010B3F90030838174
:103AA0000022426002728272C281C0E90522C0E92E
:103AB0000722C0E90922C0E90B2204460091103018
:103AC0001146FEF7DFFD204602B010BD70D002089F
:103AD00054CF0208722E0120702E01202DE9F047EC
:103AE000D0E9554A0746A06803681B6A9847B0F5B5
:103AF0008A5F05D2424B434AA321434826F0B2F8DD
:103B0000606803681B6A98470F2803D83F4B3D4AFB
:103B1000A421F2E7E06803681B6A9847372803D8B6
:103B20003B4B384AA521E8E711F012FADFF8E490A0
:103B3000043011F073FAD9F8000010B10368DB68A3
:103B40009847D9F8000010B103681B689847DFF860
:103B5000C880D8F8000010B103685B699847D7F8AF
:103B60003C0110B103685B689847D8F8000010B1B9
:103B700003681B689847D7F83C0110B103689B683D
:103B80009847E0680021FFF777FF14210546FFF70B
:103B900077FFA068036800215B6A9847064604F037
:103BA000C9FA6068036800215B6A98473146044699
:103BB00004F09AFAC9F80050C7F83C41C8F8006010
:103BC000DCB1231DCAF800303368C4F808A03046C1
:103BD000DB68F4639847236820461B6898472946AA
:103BE000304612F0E1FF2B6828461B6998472B6886
:103BF00028465B69BDE8F04718472346E2E700BF67
:103C000084B90208B5BD020820BB020867BB0208E0
:103C10000ABC0208C42E0120C02E01202DE9F04765
:103C2000D0E9554A0746A06803681B6A9847B0F573
:103C30008A5F05D2424B434AA321434826F012F83B
:103C4000606803681B6A98470F2803D83F4B3D4ABA
:103C5000A421F2E7E06803681B6A9847372803D875
:103C60003B4B384AA521E8E711F072F9DFF8E49000
:103C7000043011F0D3F9D9F8000010B10368DB6803
:103C80009847D9F8000010B103681B689847DFF81F
:103C9000C880D8F8000010B103685B699847D7F86E
:103CA0003C0110B103685B689847D8F8000010B178
:103CB00003681B689847D7F83C0110B103689B68FC
:103CC0009847E0680021FFF7D7FE14210546FFF76B
:103CD000D7FEA068036800215B6A9847064604F097
:103CE0000DFC6068036800215B6A98473146044612
:103CF00004F0DEFBC9F80050C7F83C41C8F800608A
:103D0000DCB1231DCAF800303368C4F808A030467F
:103D1000DB68F4639847236820461B689847294668
:103D2000304612F041FF2B6828461B6998472B68E4
:103D300028465B69BDE8F04718472346E2E700BF25
:103D400084B90208D3BE020820BB020867BB020880
:103D50000ABC0208C42E0120C02E01202DE9F04724
:103D6000D0E9554A0746A06803681B6A9847B0F532
:103D70008A5F05D2424B434AA321434825F072FF94
:103D8000606803681B6A98470F2803D83F4B3D4A79
:103D9000A421F2E7E06803681B6A9847372803D834
:103DA0003B4B384AA521E8E711F0D2F8DFF8E49060
:103DB000043011F033F9D9F8000010B10368DB6862
:103DC0009847D9F8000010B103681B689847DFF8DE
:103DD000C880D8F8000010B103685B699847D7F82D
:103DE0003C0110B103685B689847D8F8000010B137
:103DF00003681B689847D7F83C0110B103689B68BB
:103E00009847E0680021FFF737FE14210546FFF7C9
:103E100037FEA068036800215B6A9847064604F0F5
:103E20000DFB6068036800215B6A984731460446D1
:103E300004F0DEFAC9F80050C7F83C41C8F8006049
:103E4000DCB1231DCAF800303368C4F808A030463E
:103E5000DB68F4639847236820461B689847294627
:103E6000304612F0A1FE2B6828461B6998472B6844
:103E700028465B69BDE8F04718472346E2E700BFE4
:103E800084B9020803C0020820BB020867BB02080D
:103E90000ABC0208C42E0120C02E01202DE9F047E3
:103EA000D0E9554A0746A06803681B6A984741F263
:103EB0007B13984205D8424B424AA321424825F041
:103EC000D1FE606803681B6A98470F2803D83F4BF0
:103ED0003C4AA421F2E7E06803681B6A9847372848
:103EE00003D83B4B374AA521E8E711F031F8DFF85A
:103EF000E490043011F092F8D9F8000010B1036892
:103F0000DB689847D9F8000010B103681B68984730
:103F1000DFF8C480D8F8000010B103685B699847E7
:103F2000D7F83C0110B103685B689847D8F80000E7
:103F300010B103681B689847D7F83C0110B10368BB
:103F40009B689847E0680021FFF796FD142105461D
:103F5000FFF796FDA068036800215B6A9847064654
:103F600004F00CFA6068036800215B6A98473146E8
:103F7000044604F0DDF9C9F80050C7F83C41C8F820
:103F80000060DCB1231DCAF800303368C4F808A013
:103F90003046DB68F4639847236820461B689847DF
:103FA0002946304612F000FE2B6828461B699847C8
:103FB0002B6828465B69BDE8F04718472346E2E7CF
:103FC00084B9020821C1020820BB020867BB0208AD
:103FD0000ABC0208C42E0120C02E012003685B6ABF
:103FE00018470000124B13B503604FF4807343630E
:103FF000104B417203611049104BB1F90010B3F935
:10400000003083810022426002728272C281C0E964
:104010000522C0E90722C0E90922C0E90B220446B3
:10402000009110301146FEF72DFB204602B010BD66
:104030004CD0020854CF0208722E0120702E0120AD
:104040002DE9F047D0E9554A0746A06803681B6A86
:10405000984741F2AF03984205D8424B424AA32108
:10406000424825F0FFFD606803681B6A98470F28E7
:1040700003D83F4B3C4AA421F2E7E06803681B6A7F
:104080009847372803D83B4B374AA521E8E710F07B
:104090005FFFDFF8E490043010F0C0FFD9F80000B3
:1040A00010B10368DB689847D9F8000010B10368C5
:1040B0001B689847DFF8C480D8F8000010B1036887
:1040C0005B699847D7F83C0110B103685B68984773
:1040D000D8F8000010B103681B689847D7F83C0176
:1040E00010B103689B689847E0680021FFF776FFEE
:1040F00014210546FFF776FFA068036800215B6A7C
:104100009847064604F026FC6068036800215B6A55
:1041100098473146044604F0F7FBC9F80050C7F849
:104120003C41C8F80060DCB1231DCAF80030336898
:10413000C4F808A03046DB68F4639847236820463B
:104140001B6898472946304612F02EFD2B682846FA
:104150001B6998472B6828465B69BDE8F0471847FC
:104160002346E2E784B902083BC2020820BB0208EA
:1041700067BB02080ABC0208C42E0120C02E012021
:104180002DE9F047D0E9554A0746A06803681B6A45
:10419000984741F25B03984205D8424B424AA3211B
:1041A000424825F05FFD606803681B6A98470F2846
:1041B00003D83F4B3C4AA421F2E7E06803681B6A3E
:1041C0009847372803D83B4B374AA521E8E710F03A
:1041D000BFFEDFF8E490043010F020FFD9F80000B3
:1041E00010B10368DB689847D9F8000010B1036884
:1041F0001B689847DFF8C480D8F8000010B1036846
:104200005B699847D7F83C0110B103685B68984731
:10421000D8F8000010B103681B689847D7F83C0134
:1042200010B103689B689847E0680021FFF7D6FE4D
:1042300014210546FFF7D6FEA068036800215B6ADB
:104240009847064603F0D0FF6068036800215B6A68
:1042500098473146044603F0A1FFC9F80050C7F85B
:104260003C41C8F80060DCB1231DCAF80030336857
:10427000C4F808A03046DB68F463984723682046FA
:104280001B6898472946304612F08EFC2B6828465A
:104290001B6998472B6828465B69BDE8F0471847BB
:1042A0002346E2E784B902085BC3020820BB020888
:1042B00067BB02080ABC0208C42E0120C02E0120E0
:1042C0002DE9F047D0E9554A0746A06803681B6A04
:1042D000984741F25B03984205D8424B424AA321DA
:1042E000424825F0BFFC606803681B6A98470F28A6
:1042F00003D83F4B3C4AA421F2E7E06803681B6AFD
:104300009847372803D83B4B374AA521E8E710F0F8
:104310001FFEDFF8E490043010F080FED9F80000B2
:1043200010B10368DB689847D9F8000010B1036842
:104330001B689847DFF8C480D8F8000010B1036804
:104340005B699847D7F83C0110B103685B689847F0
:10435000D8F8000010B103681B689847D7F83C01F3
:1043600010B103689B689847E0680021FFF736FEAC
:1043700014210546FFF736FEA068036800215B6A3A
:104380009847064603F072FF6068036800215B6A85
:1043900098473146044603F043FFC9F80050C7F878
:1043A0003C41C8F80060DCB1231DCAF80030336816
:1043B000C4F808A03046DB68F463984723682046B9
:1043C0001B6898472946304612F0EEFB2B682846BA
:1043D0001B6998472B6828465B69BDE8F04718477A
:1043E0002346E2E784B9020883C4020820BB02081E
:1043F00067BB02080ABC0208C42E0120C02E01209F
:104400002DE9F047D0E9554A0746A06803681B6AC2
:104410009847B0F58A5F05D2424B434AA3214348EF
:1044200025F020FC606803681B6A98470F2803D8B2
:104430003F4B3D4AA421F2E7E06803681B6A9847B6
:10444000372803D83B4B384AA521E8E710F080FD18
:10445000DFF8E490043010F0E1FDD9F8000010B16D
:104460000368DB689847D9F8000010B103681B683F
:104470009847DFF8C880D8F8000010B103685B697E
:104480009847D7F83C0110B103685B689847D8F8A3
:10449000000010B103681B689847D7F83C0110B1C1
:1044A00003689B689847E0680021FFF797FD142197
:1044B0000546FFF797FDA068036800215B6A9847EF
:1044C000064603F037FE6068036800215B6A984780
:1044D0003146044603F008FEC9F80050C7F83C41D5
:1044E000C8F80060DCB1231DCAF800303368C4F896
:1044F00008A03046DB68F4639847236820461B68B1
:1045000098472946304612F04FFB2B6828461B6916
:1045100098472B6828465B69BDE8F0471847234653
:10452000E2E700BF84B90208A9C5020820BB02085F
:1045300067BB02080ABC0208C42E0120C02E01205D
:104540002DE9F047D0E9554A0746A06803681B6A81
:10455000984741F2E333984205D8424B424AA3219F
:10456000424825F07FFB606803681B6A98470F2864
:1045700003D83F4B3C4AA421F2E7E06803681B6A7A
:104580009847372803D83B4B374AA521E8E710F076
:10459000DFFCDFF8E490043010F040FDD9F80000B3
:1045A00010B10368DB689847D9F8000010B10368C0
:1045B0001B689847DFF8C480D8F8000010B1036882
:1045C0005B699847D7F83C0110B103685B6898476E
:1045D000D8F8000010B103681B689847D7F83C0171
:1045E00010B103689B689847E0680021FFF7F6FC6C
:1045F00014210546FFF7F6FCA068036800215B6AFA
:104600009847064604F016F86068036800215B6A64
:1046100098473146044603F0E7FFC9F80050C7F851
:104620003C41C8F80060DCB1231DCAF80030336893
:10463000C4F808A03046DB68F46398472368204636
:104640001B6898472946304612F0AEFA2B68284678
:104650001B6998472B6828465B69BDE8F0471847F7
:104660002346E2E784B90208C7C6020820BB020855
:1046700067BB02080ABC0208C42E0120C02E01201C
:104680002DE9F047D0E9554A0746A06803681B6A40
:10469000984741F2E333984205D8424B424AA3215E
:1046A000424825F0DFFA606803681B6A98470F28C4
:1046B00003D83F4B3C4AA421F2E7E06803681B6A39
:1046C0009847372803D83B4B374AA521E8E710F035
:1046D0003FFCDFF8E490043010F0A0FCD9F80000B3
:1046E00010B10368DB689847D9F8000010B103687F
:1046F0001B689847DFF8C480D8F8000010B1036841
:104700005B699847D7F83C0110B103685B6898472C
:10471000D8F8000010B103681B689847D7F83C012F
:1047200010B103689B689847E0680021FFF756FCCA
:1047300014210546FFF756FCA068036800215B6A58
:104740009847064603F034FF6068036800215B6AFF
:1047500098473146044603F005FFC9F80050C7F8F2
:104760003C41C8F80060DCB1231DCAF80030336852
:10477000C4F808A03046DB68F463984723682046F5
:104780001B6898472946304612F00EFA2B682846D7
:104790001B6998472B6828465B69BDE8F0471847B6
:1047A0002346E2E784B902080BC8020820BB0208CE
:1047B00067BB02080ABC0208C42E0120C02E0120DB
:1047C0002DE9F047D0E9554A0746A06803681B6AFF
:1047D0009847B0F58A5F05D2424B434AA32143482C
:1047E00025F040FA606803681B6A98470F2803D8D1
:1047F0003F4B3D4AA421F2E7E06803681B6A9847F3
:10480000372803D83B4B384AA521E8E710F0A0FB36
:10481000DFF8E490043010F001FCD9F8000010B18A
:104820000368DB689847D9F8000010B103681B687B
:104830009847DFF8C880D8F8000010B103685B69BA
:104840009847D7F83C0110B103685B689847D8F8DF
:10485000000010B103681B689847D7F83C0110B1FD
:1048600003689B689847E0680021FFF7B7FB1421B5
:104870000546FFF7B7FBA068036800215B6A98470D
:10488000064603F03BFE6068036800215B6A9847B8
:104890003146044603F00CFEC9F80050C7F83C410D
:1048A000C8F80060DCB1231DCAF800303368C4F8D2
:1048B00008A03046DB68F4639847236820461B68ED
:1048C00098472946304612F06FF92B6828461B6935
:1048D00098472B6828465B69BDE8F0471847234690
:1048E000E2E700BF84B902084BC9020820BB0208F6
:1048F00067BB02080ABC0208C42E0120C02E01209A
:104900002DE9F047D0E9554A0746A06803681B6ABD
:10491000984741F2E333984205D8424B424AA321DB
:10492000424825F09FF9606803681B6A98470F2882
:1049300003D83F4B3C4AA421F2E7E06803681B6AB6
:104940009847372803D83B4B374AA521E8E710F0B2
:10495000FFFADFF8E490043010F060FBD9F80000B3
:1049600010B10368DB689847D9F8000010B10368FC
:104970001B689847DFF8C480D8F8000010B10368BE
:104980005B699847D7F83C0110B103685B689847AA
:10499000D8F8000010B103681B689847D7F83C01AD
:1049A00010B103689B689847E0680021FFF716FB89
:1049B00014210546FFF716FBA068036800215B6A17
:1049C0009847064603F060FF6068036800215B6A51
:1049D00098473146044603F031FFC9F80050C7F844
:1049E0003C41C8F80060DCB1231DCAF800303368D0
:1049F000C4F808A03046DB68F46398472368204673
:104A00001B6898472946304612F0CEF82B68284696
:104A10001B6998472B6828465B69BDE8F047184733
:104A20002346E2E784B902087BCA020820BB0208D9
:104A300067BB02080ABC0208C42E0120C02E012058
:104A40002DE9F047D0E9554A0746A06803681B6A7C
:104A5000984741F2F333984205D8424B424AA3218A
:104A6000424825F0FFF8606803681B6A98470F28E2
:104A700003D83F4B3C4AA421F2E7E06803681B6A75
:104A80009847372803D83B4B374AA521E8E710F071
:104A90005FFADFF8E490043010F0C0FAD9F80000B3
:104AA00010B10368DB689847D9F8000010B10368BB
:104AB0001B689847DFF8C480D8F8000010B103687D
:104AC0005B699847D7F83C0110B103685B68984769
:104AD000D8F8000010B103681B689847D7F83C016C
:104AE00010B103689B689847E0680021FFF776FAE9
:104AF00014210546FFF776FAA068036800215B6A77
:104B00009847064603F038FE6068036800215B6A38
:104B100098473146044603F009FEC9F80050C7F82B
:104B20003C41C8F80060DCB1231DCAF8003033688E
:104B3000C4F808A03046DB68F46398472368204631
:104B40001B6898472946304612F02EF82B682846F5
:104B50001B6998472B6828465B69BDE8F0471847F2
:104B60002346E2E784B90208BDCB020820BB020855
:104B700067BB02080ABC0208C42E0120C02E012017
:104B80002DE9F047D0E9554A0746A06803681B6A3B
:104B90009847B0F58A5F05D2424B434AA321434868
:104BA00025F060F8606803681B6A98470F2803D8EF
:104BB0003F4B3D4AA421F2E7E06803681B6A98472F
:104BC000372803D83B4B384AA521E8E710F0C0F955
:104BD000DFF8E490043010F021FAD9F8000010B1A9
:104BE0000368DB689847D9F8000010B103681B68B8
:104BF0009847DFF8C880D8F8000010B103685B69F7
:104C00009847D7F83C0110B103685B689847D8F81B
:104C1000000010B103681B689847D7F83C0110B139
:104C200003689B689847E0680021FFF7D7F91421D3
:104C30000546FFF7D7F9A068036800215B6A98472B
:104C4000064603F03FFD6068036800215B6A9847F1
:104C50003146044603F010FDC9F80050C7F83C4146
:104C6000C8F80060DCB1231DCAF800303368C4F80E
:104C700008A03046DB68F4639847236820461B6829
:104C800098472946304611F08FFF2B6828461B694C
:104C900098472B6828465B69BDE8F04718472346CC
:104CA000E2E700BF84B90208FFCC020820BB02087B
:104CB00067BB02080ABC0208C42E0120C02E0120D6
:104CC0002DE9F047D0E9554A0746A06803681B6AFA
:104CD0009847B0F58A5F05D2424B434AA321434827
:104CE00024F0C0FF606803681B6A98470F2803D848
:104CF0003F4B3D4AA421F2E7E06803681B6A9847EE
:104D0000372803D83B4B384AA521E8E710F020F9B3
:104D1000DFF8E490043010F081F9D9F8000010B108
:104D20000368DB689847D9F8000010B103681B6876
:104D30009847DFF8C880D8F8000010B103685B69B5
:104D40009847D7F83C0110B103685B689847D8F8DA
:104D5000000010B103681B689847D7F83C0110B1F8
:104D600003689B689847E0680021FFF737F9142132
:104D70000546FFF737F9A068036800215B6A98478A
:104D8000064603F05BFB6068036800215B6A984796
:104D90003146044603F02CFBC9F80050C7F83C41EB
:104DA000C8F80060DCB1231DCAF800303368C4F8CD
:104DB00008A03046DB68F4639847236820461B68E8
:104DC00098472946304611F0EFFE2B6828461B69AC
:104DD00098472B6828465B69BDE8F047184723468B
:104DE000E2E700BF84B902082BCE020820BB02080C
:104DF00067BB02080ABC0208C42E0120C02E012095
:104E0000806A70477047704710B54FF4627104466E
:104E100024F015F9204610BD2DE9F04F4FF48073B2
:104E2000804600262DED028B8384B24B8662C0E95A
:104E30000166C0E90366C0E90566C0E9076648F88F
:104E40002C3B8BB004464046FDF742FC04F1740352
:104E500004F1BC0B1846039304F5827AFDF738FC85
:104E60005846FDF735FC04F5A879A34D5046FDF7EB
:104E70002FFCC4F80451C4F84C614846FDF728FCE7
:104E800004F5CE7304F5F4771846C4F85051C4F80D
:104E9000986108EE103AFDF71BFCC4F89C51C4F869
:104EA000E46138460DF00EF8944AA26040466D2247
:104EB000D92104ADFDF7D9FB4FF0FF33E36541463F
:104EC0002846A4F860600CF0C5FC95E8070004F1E2
:104ED000680C8CE807008A4B08932F2208A94046EB
:104EE000ADF824200CF050FF414620460AF098FD12
:104EF000039B314618466D22FDF7B7FB039BA4F8D0
:104F0000A8604FF0FF32C4F8A420194628460CF0E0
:104F1000A1FC95E807007A4B0893039B04F1B00CC1
:104F20008CE80700302208A91846ADF824200CF0C0
:104F30002BFF039B204619460AF072FD3246584665
:104F40007121FDF792FB4FF0FF32C4F8EC20594677
:104F50002846A4F8F0600CF07DFC95E8070004F109
:104F6000F80383E80700664B089308A931235846E5
:104F7000ADF824300CF008FF594620460AF050FDE9
:104F800050467C224C21FDF770FBD4F80431A4F884
:104F900038614FF0FF32C4F8342151462846D3F827
:104FA0008430984795E8070004F5A07383E807006C
:104FB000534B089308A92E235046ADF824300CF02B
:104FC000E3FE514620460AF02BFD48468B2256212F
:104FD000FDF74BFBD4F85031A4F884614FF0FF3259
:104FE000C4F8802149462846D3F88430984795E88C
:104FF000070004F5C67383E80700414B089308A92E
:105000002D234846ADF824300CF0BEFE494620461C
:105010000AF006FD18EE100A9A225621FDF725FB2C
:10502000D4F89C31A4F8D0614FF0FF3218EE101A7A
:10503000C4F8CC212846D3F88430984795E8070077
:1050400004F5EC7383E807002D4B089318EE100A63
:105050002C2308A9ADF824300CF096FE18EE101A97
:1050600020460AF0DDFC042308A93846ADF82030BC
:105070000AF068FC122238461C21FDF7F6FAD4F833
:10508000E83138469B6BB8219847D4F8E831384668
:10509000DB6B6A2198475C22114638460CF0BDFF55
:1050A00038465A226FF059010DF03CF833465A2227
:1050B000384600966FF059010AF0F1FA3146384649
:1050C0000CF0DAFF35230822384605210CF090FF5A
:1050D000384601210CF02EFF384601210CF02DFF3F
:1050E000204639460AF09CFC20460BB0BDEC028BF2
:1050F000BDE8F08F94D0020818B80208F000A900AB
:1051000008B80208406A7047806A704770478B8809
:10511000C0690A68DB0A50F823001044704710B5D4
:10512000C2B1137BB3B1547BD27A240204F4E0649D
:105130001443026A98B202EB840213888B4202D1B4
:1051400092F9020010BD05D8013880B2043200285F
:10515000F3D1F7E70020F5E710B52C21044623F042
:105160006EFF204610BD000030B58BB00446BDF880
:1051700060500895BDF85C5007959DF85050069515
:105180009DF84C5005959DF8485004959DF8445065
:1051900003959DF8405002959DF83C500195BDF84F
:1051A0003850009511F06AF8064B2360159BE361B7
:1051B000169B2362199B63621A9BA36220460BB065
:1051C00030BD00BF28D102087047704730B4C268B4
:1051D00044685510034604EB6200D20748BF625989
:1051E0009B6830BC48BFD358184743682BB18368CD
:1051F0002BB9C06800F001007047184670470120C5
:10520000704710B51021044623F019FF204610BD49
:1052100010B5034B036004460EF098F9204610BD0C
:10522000A0D1020807B5074B036001900EF08EF97C
:10523000019841F27C1123F002FF019803B05DF860
:1052400004FB00BFA0D1020838B500F534739942C1
:1052500004460D4603D10FF07BFEFEF71DFB04F55F
:1052600022739D4203D10FF073FEFEF7A5FB04F5F8
:1052700010739D4203D10FF06BFEFEF7DDFB04F5CA
:105280004674A5420AD106480022202104F0E4F821
:105290000FF05EFEBDE83840FEF7DEBB38BD00BF54
:1052A000001002402DE9F04F2DED068B04468FB023
:1052B000A346002511F0CCFA6A4BE5634BF8403B5E
:1052C00026222946584624F0D2FE5846FDF7EEF92C
:1052D00004F16C0AFF26644B236426224FF6FF7309
:1052E000294684F866605046A566ADF8303024F053
:1052F000BEFE5046FDF7DAF95C4BE366BDF8303090
:10530000A4F892300CA9504604F1980984F89460EE
:105310000DF015F94846FDF7DBF904F1E407544BAD
:10532000C4F89830C4F8E05038460BF0D1FF04F5CB
:10533000AA7318460393FBF787FE4E4BC4F854310B
:1053400004F5B4782433C4F85C31C4F860514046A5
:10535000FDF7BEF904F5D873184608EE103AFDF7CC
:10536000B7F904F5FC73184608EE903AFDF7B0F96A
:1053700004F51073184609EE103A0DF021FA04F501
:105380002273184609EE903A0DF01AFA04F53473B8
:1053900018460AEE103A0DF013FA04F54673184653
:1053A0000AEE903A0DF0A4F8334A04F58053C3E9AD
:1053B0005B24324A4FF46161C3E95D2504F55770FF
:1053C0000EF0BAF84FF4A0732A46584600932946C7
:1053D000F023FDF757F9261D4FF07F43A36659468A
:1053E00030460AF01DFB2A4650462946FDF73DF996
:1053F000092350460CA9ADF830300DF0A0F8514605
:1054000030460AF00DFB4FF49A7256214846FDF7DC
:105410002CF9D4F89830A4F8CC500DF1100A4FF0C4
:10542000FF3B5046D3F88430C4F8C8B0494698478B
:105430009AE8070004F1D40383E80700104B1B68C7
:1054400004F5557A2BB90F4B0F4A60210F4824F011
:1054500009FC0F4B1B882A2B1ED80E4B0A4A6121D0
:10546000F4E700BFA0D1020858E1020820E30208D7
:1054700018B802088CDE020888D1020849520008D8
:10548000D42E012058B602085AB70208D5B6020831
:10549000D82E01201CB70208A54B2A21186802F05B
:1054A000E7FDA44A03460421504612F0C1FE4846D7
:1054B000C4F8E0A00CF048FC9F4B0C930CA92B23E4
:1054C0004846ADF834300CF05FFC494630460AF0EF
:1054D000A7FA0A2300933222F02329463846FDF723
:1054E000D1F8039BC4F80C31A02211463846C4F809
:1054F00060B1A4F864B10CF001F8A0224FF4EB51B4
:1055000038460CF006F8D4F82031202B05D02023A3
:10551000C4F8203138460BF0FBFE384601210CF070
:1055200003F83946304604AD4FF0FF370AF078FAF9
:105530004FF0000A232240464521FDF796F84146E8
:105540002846C4F89871A4F89CA10CF083F995E85A
:1055500007000DF1300908F13C0383E80700DFF88C
:10556000D8B1CDF830B0502349464046ADF834307C
:105570000CF00AFC414630460AF052FA18EE100AC6
:105580000C223621FDF771F818EE101A2846C4F8DF
:10559000E071A4F8E4A10CF05DF995E8070018EEBD
:1055A000103A3C3383E80700512318EE100A4946AD
:1055B000ADF83430CDF830B00CF0E6FB18EE101A30
:1055C00030460AF02DFA18EE900A3C225821FDF7D9
:1055D0004CF818EE901A2846C4F82872A4F82CA2A9
:1055E0000CF038F995E8070018EE903A3C3383E860
:1055F00007001A2318EE900A4946ADF83430CDF86A
:1056000030B00CF0C1FB18EE901A30460AF008FAE0
:1056100019EE100AF0222121FDF727F84FF0030BB5
:105620004A464FF002080BA919EE100AADF82CB04B
:10563000ADF8308004F58B550CF08BFD5223A4F8A7
:1056400078320C3519EE100AFDF764F819EE101ACD
:105650003046C4E99F77C4F868520AF0E1F919EEC0
:10566000900AAA222121FDF700F84A460BA919EE5B
:10567000900AADF82CB0ADF830800CF06AFD5323E1
:10568000A4F8C03219EE900AFDF744F819EE901A0A
:105690003046C4E9B177C4F8B0520AF0C1F91AEE45
:1056A000100A64222121FCF7E0FF4A460BA91AEEFA
:1056B000100AADF82CB0ADF830800CF04AFD542340
:1056C000A4F808331AEE100AFDF724F81AEE101A9F
:1056D0003046C4E9C377C4F8F8520AF0A1F91AEECB
:1056E000900A0522C621FCF7C0FF0123ADF828303F
:1056F0000A231AEE900AADF82C30ADF830300AAA21
:105700000BAB09A9CDF80090ADF824A00CF05BFE1E
:1057100030461AEE901AC4F850A3C4F840530AF069
:105720007FF920460FB0BDEC068BBDE8F08F00BFBF
:10573000E02E012092B7020808B8020870477047AF
:1057400030B4C26844685510034604EB6200D207C7
:1057500048BF62599B6830BC48BFD358184743685C
:105760002BB183682BB9C06800F001007047184660
:1057700070470120704710B51021044623F05FFCEC
:10578000204610BD10B5034B036004460DF0DEFE4D
:10579000204610BDECD1020807B5074B036001900D
:1057A0000DF0D4FE01984FF48A5123F048FC019883
:1057B00003B05DF804FB00BFECD1020838B500F57A
:1057C0001073994204460D4603D10FF0C1FBFEF75A
:1057D00053F804F534739D4203D10FF0B9FBFEF783
:1057E0007BF804F52274A54205D10FF0B1FBBDE8AA
:1057F0003840FEF7A1B838BD2DE9F04F2DED068BEE
:1058000004468DB0A346002511F022F8664BE563EF
:105810004BF8403B26222946584624F028FC58469F
:10582000FCF744FF04F16C0AFF26604B2364262238
:105830004FF6FF73294684F866605046A566ADF8BA
:10584000283024F014FC5046FCF730FF584BE36638
:10585000BDF82830A4F892300AA9504604F19809FE
:1058600084F894600CF06BFE4846FCF731FF514B16
:10587000C4F8983004F1E4031846C4F8E05004F585
:10588000967708EE903AFCF723FF38460BF020FDA0
:1058900004F5CE7318460393FBF7D6FB464BC4F8CA
:1058A0009C3104F5D8782433C4F8A431C4F8A85145
:1058B0004046FCF70DFF04F5FC73184608EE103A5D
:1058C000FCF706FF04F51073184609EE103A0CF0C9
:1058D00077FF04F52273184609EE903A0CF070FF3A
:1058E00004F5347318460AEE103A0CF069FF334A97
:1058F00004F58053C3E94C24314A4FF46161C3E994
:105900004E2504F548700DF017FE4FF4A0732A469B
:10591000584600932946F023FCF7B4FE261D4FF0AD
:105920007F43A366594630460AF07AF82A46504625
:105930002946FCF79AFE092350460AA9ADF82830FB
:105940000CF0FDFD514630460AF06AF84FF49A72A9
:1059500056214846FCF789FE4FF0FF33C4F8C830A3
:10596000D4F89830A4F8CC500DF1100BD3F8843053
:105970004946584698479BE8070004F1D40383E85A
:105980000700104B1B6804F5467A2BB90E4B0F4AE3
:1059900060210F4824F066F90E4B1B881B2B1DD885
:1059A0000D4B0A4A6121F4E7ECD1020858E10208E4
:1059B00020E3020818B802088CDE0208D4D10208DD
:1059C000BD570008D42E012058B602085AB7020865
:1059D000D5B60208D82E01201CB70208954B1B2112
:1059E000186802F045FB944A03460421504612F021
:1059F0001FFCC4F8E0A048460CF0A6F9DFF83CA272
:105A0000CDF828A01C230AA94846ADF82C300CF08C
:105A1000BBF9494630460AF003F83C2218EE900ADA
:105A20003D21FCF722FE4FF0FF3318EE901AC4F828
:105A300014315846A4F818510BF00CFF9BE80700EE
:105A400004F5907383E80700292318EE900A0AA949
:105A5000ADF82C30CDF828A00CF096F918EE901A7D
:105A6000304609F0DDFF0A2300933222F023294655
:105A70003846FCF707FE4FF0FF33A022C4F8A831E8
:105A8000A4F8AC31039BC4F85431114638460BF0EE
:105A900035FDA0224FF4EB5138460BF03AFDD4F817
:105AA0006831202B05D02023C4F8683138460BF02C
:105AB0002FFC384601210BF037FD3946304609F0FE
:105AC000AFFF4FF0FF3504AF232240464FF0000AEE
:105AD0004521FCF7CAFD41463846C4F8E051A4F818
