:020000040800F2
:1000000000000320890E0008C52D0008C92D000836
:10001000CD2D0008D12D0008D52D000800000000CE
:10002000000000000000000000000000A1DF000848
:10003000D92D00080000000031E00008FDD70008BD
:10004000D90E0008D90E0008D90E0008D90E0008F4
:10005000D90E0008D90E0008D90E0008D90E0008E4
:10006000D90E0008DD2D0008D90E0008D90E0008B1
:10007000D90E0008D90E0008D90E0008D90E0008C4
:10008000D90E0008D90E0008D90E0008D90E0008B4
:10009000D90E0008D90E0008D90E0008D90E0008A4
:1000A000D90E0008D90E0008D90E0008D90E000894
:1000B000D90E0008D90E0008D90E0008D90E000884
:1000C000D90E0008D90E0008D90E0008D90E000874
:1000D000D90E0008D90E0008D90E0008D90E000864
:1000E000D90E0008D90E0008D90E0008D90E000854
:1000F000D90E0008D90E0008D90E0008D90E000844
:10010000D90E0008D90E0008D90E0008D90E000833
:10011000D90E0008D90E0008FD2D0008D90E0008E0
:10012000D90E000839270008D90E0008D90E00089A
:10013000D90E0008D90E0008D90E0008D90E000803
:10014000D90E0008D90E0008D90E0008D90E0008F3
:10015000D90E0008D90E0008D90E0008D90E0008E3
:10016000092E0008D90E0008D90E0008D90E000883
:10017000D90E0008D90E0008D90E000800000000B2
:10018000D90E0008D90E0008D90E0008D90E0008B3
:10019000D90E0008D90E0008D90E0008D90E0008A3
:0C01A000152E0008D90E0008D90E00082A
:1001B00010B5054C237833B9044B13B10448AFF3A1
:1001C00000800123237010BD6801002000000000A2
:1001D000CCBC020808B5034B1BB103490348AFF37D
:1001E000008008BD000000006C010020CCBC0208AB
:1001F0004B1C012B98BF70472DE9F003911C9B0805
:10020000B1F80480B1F802900A8831F802CC804439
:10021000814402448444D9F80070D8F8006015681D
:10022000DCF80040C9F80060C8F80070CCF8005055
:100230001460D9F80470D8F804605568DCF80440FC
:10024000C9F80460C8F80470CCF804505460083150
:10025000013BD5D1BDE8F00370474B1C012B98BF83
:1002600070472DE9F003911C9B08B1F80480B1F8A8
:1002700002900A8831F802CC00EB580800EB5909CB
:1002800000EB520200EB5C0CD9F80070D8F800606B
:100290001568DCF80040C9F80060C8F80070CCF8B8
:1002A000005014600831013BDFD1BDE8F003704716
:1002B00001F0FF01102A2BDB10F0070F08D010F817
:1002C000013B013A8B422DD010F0070F42B3F6D11B
:1002D000F0B441EA012141EA014122F007047FF034
:1002E00000070023F0E80256083C85EA010586EA8B
:1002F000010685FA47F5A3FA87F586FA47F6A5FAC7
:1003000087F68EB9EED1F0BC01F0FF0102F00702D2
:1003100032B110F8013B013A83EA010313B1F8D17D
:100320000020704701387047002D06BF354603385E
:10033000073815F0010F07D1013015F4807F02BF97
:10034000013015F4C03F0130F0BC0138704700BFE8
:1003500081F0004102E000BF83F0004330B54FEA76
:1003600041044FEA430594EA050F08BF90EA020FE3
:100370001FBF54EA000C55EA020C7FEA645C7FEA76
:10038000655C00F0E2804FEA5454D4EB5555B8BF99
:100390006D420CDD2C4480EA020281EA030382EA0A
:1003A000000083EA010180EA020281EA0303362D9C
:1003B00088BF30BD11F0004F4FEA01314FF4801C6F
:1003C0004CEA113102D0404261EB410113F0004F81
:1003D0004FEA03334CEA133302D0524263EB430338
:1003E00094EA050F00F0A780A4F10104D5F1200ED6
:1003F0000DDB02FA0EFC22FA05F2801841F1000131
:1004000003FA0EF2801843FA05F359410EE0A5F104
:1004100020050EF1200E012A03FA0EFC28BF4CF035
:10042000020C43FA05F3C01851EBE37101F00045EB
:1004300007D54FF0000EDCF1000C7EEB00006EEBF8
:100440000101B1F5801F1BD3B1F5001F0CD3490882
:100450005FEA30004FEA3C0C04F101044FEA4452D9
:1004600012F5800F80F09A80BCF1004F08BF5FEA60
:10047000500C50F1000041EB045141EA050130BD40
:100480005FEA4C0C404141EB0101013C28BFB1F552
:10049000801FE9D291F0000F04BF01460020B1FA9D
:1004A00081F308BF2033A3F10B03B3F120020CDA70
:1004B0000C3208DD02F1140CC2F10C0201FA0CF04E
:1004C00021FA02F10CE002F11402D8BFC2F1200CB3
:1004D00001FA02F120FA0CFCDCBF41EA0C01904069
:1004E000E41AA2BF01EB0451294330BD6FEA0404B2
:1004F0001F3C1CDA0C340EDC04F11404C4F120029D
:1005000020FA04F001FA02F340EA030021FA04F3AE
:1005100045EA030130BDC4F10C04C4F1200220FA05
:1005200002F001FA04F340EA0300294630BD21FA43
:1005300004F0294630BD94F0000F83F4801306BF09
:1005400081F480110134013D4EE77FEA645C18BFFD
:100550007FEA655C29D094EA050F08BF90EA020F94
:1005600005D054EA000C04BF1946104630BD91EA8C
:10057000030F1EBF0021002030BD5FEA545C05D18F
:100580004000494128BF41F0004130BD14F58004CE
:100590003CBF01F5801130BD01F0004545F0FE4142
:1005A00041F470014FF0000030BD7FEA645C1ABF77
:1005B000194610467FEA655C1CBF0B46024650EAAE
:1005C000013406BF52EA033591EA030F41F40021DA
:1005D00030BD00BF90F0000F04BF0021704730B560
:1005E0004FF4806404F132044FF000054FF0000135
:1005F00050E700BF90F0000F04BF0021704730B5F6
:100600004FF4806404F1320410F0004548BF4042CA
:100610004FF000013EE700BF42004FEAE2014FEA1F
:1006200031014FEA02701FBF12F07F4393F07F4FFA
:1006300081F06051704732F07F4208BF704793F0FD
:100640007F4F04BF41F40021704730B54FF4607410
:1006500001F0004521F000411CE700BF50EA010213
:1006600008BF704730B54FF000050AE050EA0102BC
:1006700008BF704730B511F0004502D5404261EB2C
:1006800041014FF4806404F132045FEA915C3FF46D
:10069000D8AE4FF003025FEADC0C18BF03325FEA0A
:1006A000DC0C18BF033202EBDC02C2F1200300FABB
:1006B00003FC20FA02F001FA03FE40EA0E0021FAE0
:1006C00002F11444BDE600BF70B54FF0FF0C4CF4CE
:1006D000E06C1CEA11541DBF1CEA135594EA0C0F80
:1006E00095EA0C0F00F0DEF82C4481EA030621EABB
:1006F0004C5123EA4C5350EA013518BF52EA0335F6
:1007000041F4801143F4801338D0A0FB02CE4FF0A7
:100710000005E1FB02E506F00042E0FB03E54FF0D7
:100720000006E1FB03569CF0000F18BF4EF0010ECF
:10073000A4F1FF04B6F5007F64F5407404D25FEACB
:100740004E0E6D4146EB060642EAC62141EA55517E
:100750004FEAC52040EA5E504FEACE2EB4F1FD0CC0
:1007600088BFBCF5E06F1ED8BEF1004F08BF5FEA3E
:10077000500E50F1000041EB045170BD06F00046F0
:1007800046EA010140EA020081EA0301B4EB5C049D
:10079000C2BFD4EB0C0541EA045170BD41F4801195
:1007A0004FF0000E013C00F3AB8014F1360FDEBFBA
:1007B000002001F0004170BDC4F10004203C35DA96
:1007C0000C341BDC04F11404C4F1200500FA05F319
:1007D00020FA04F001FA05F240EA020001F00042BA
:1007E00021F0004110EBD37021FA04F642EB060130
:1007F0005EEA430E08BF20EAD37070BDC4F10C045A
:10080000C4F1200500FA04F320FA05F001FA04F21D
:1008100040EA020001F0004110EBD37041F1000109
:100820005EEA430E08BF20EAD37070BDC4F1200514
:1008300000FA05F24EEA020E20FA04F301FA05F27C
:1008400043EA020321FA04F001F0004121FA04F224
:1008500020EA020000EBD3705EEA430E08BF20EAF4
:10086000D37070BD94F0000F0FD101F0004640002E
:1008700041EB010111F4801F08BF013CF7D041EAB0
:10088000060195F0000F18BF704703F000465200B4
:1008900043EB030313F4801F08BF013DF7D043EA85
:1008A0000603704794EA0C0F0CEA135518BF95EA3B
:1008B0000C0F0CD050EA410618BF52EA4306D1D1C2
:1008C00081EA030101F000414FF0000070BD50EAE1
:1008D000410606BF1046194652EA430619D094EA6B
:1008E0000C0F02D150EA013613D195EA0C0F05D155
:1008F00052EA03361CBF104619460AD181EA0301A9
:1009000001F0004141F0FE4141F470014FF0000060
:1009100070BD41F0FE4141F4780170BD70B54FF0FB
:10092000FF0C4CF4E06C1CEA11541DBF1CEA13557B
:1009300094EA0C0F95EA0C0F00F0A7F8A4EB05045D
:1009400081EA030E52EA03354FEA013100F0888054
:100950004FEA03334FF0805545EA131343EA12631D
:100960004FEA022245EA111545EA10654FEA0026D2
:100970000EF000419D4208BF964244F1FD0404F58B
:10098000407402D25B084FEA3202B61A65EB0305E7
:100990005B084FEA32024FF480104FF4002CB6EBA4
:1009A000020E75EB030E22BFB61A754640EA0C0024
:1009B0005B084FEA3202B6EB020E75EB030E22BF64
:1009C000B61A754640EA5C005B084FEA3202B6EBA5
:1009D000020E75EB030E22BFB61A754640EA9C0064
:1009E0005B084FEA3202B6EB020E75EB030E22BF34
:1009F000B61A754640EADC0055EA060E18D04FEAF2
:100A0000051545EA16754FEA06164FEAC30343EA91
:100A100052734FEAC2025FEA1C1CC0D111F4801F5E
:100A20000BD141EA00014FF000004FF0004CB6E757
:100A300011F4801F04BF01430020B4F1FD0C88BFF6
:100A4000BCF5E06F3FF6AFAEB5EB030C04BFB6EB01
:100A5000020C5FEA500C50F1000041EB045170BDF4
:100A60000EF0004E4EEA113114EB5C04C2BFD4EB21
:100A70000C0541EA045170BD41F480114FF0000EA5
:100A8000013C90E645EA060E8DE60CEA135594EA21
:100A90000C0F08BF95EA0C0F3FF43BAF94EA0C0F24
:100AA0000AD150EA01347FF434AF95EA0C0F7FF499
:100AB00025AF104619462CE795EA0C0F06D152EAED
:100AC00003353FF4FDAE1046194622E750EA4106D1
:100AD00018BF52EA43067FF4C5AE50EA41047FF4E2
:100AE0000DAF52EA43057FF4EBAE12E74FEA410245
:100AF000B2F1E04324BFB3F5001CDCF1FE5C0DD97C
:100B000001F0004C4FEAC0024CEA5070B2F1004FC5
:100B100040EB830008BF20F00100704711F0804FC8
:100B200021D113F13872BCBF01F00040704741F48D
:100B300080114FEA5252C2F11802C2F1200C10FA91
:100B40000CF320FA02F018BF40F001004FEAC12375
:100B50004FEAD32303FA0CFC40EA0C0023FA02F319
:100B60004FEA4303CCE77FEA625307D150EA0133EF
:100B70001EBF4FF0FE4040F44000704701F00040BF
:100B800040F0FE4040F40000704700BF53B94AB93E
:100B9000002908BF00281CBF4FF0FF314FF0FF3085
:100BA00000F070B9ADF1080C6DE904CE00F006F864
:100BB000DDF804E0DDE9022304B070472DE9F047D9
:100BC000089E0D4604460F46002B4AD18A429446A1
:100BD00065D9B2FA82F343B102FA03FCC3F12002F1
:100BE0009F4020FA02F217439C404FEA1C4E1FFA26
:100BF0008CF5B7FBFEF1220C0EFB117742EA07429F
:100C000001FB05F090420AD91CEB020201F1FF370B
:100C100080F01C81904240F2198102396244121A1C
:100C2000A4B2B2FBFEF00EFB102244EA024400FB29
:100C300005F5A5420AD91CEB040400F1FF3280F04F
:100C40000781A54240F204816444023840EA014031
:100C5000641B00211EB1DC400023C6E90043BDE84F
:100C6000F0878B4208D9002E00F0ED800021C6E904
:100C700000050846BDE8F087B3FA83F1002949D1A1
:100C8000AB4202D3824200F2F880841A65EB030281
:100C900001201746002EE2D0C6E90047DFE702B97F
:100CA000FFDEB2FA82F3002B40F090808A1A4FEAFE
:100CB0001C471FFA8CFE0121B2FBF7F507FB15203C
:100CC000220C42EA00420EFB05F0904208D91CEBD0
:100CD000020205F1FF3802D2904200F2CB80454675
:100CE000121AA4B2B2FBF7F007FB102244EA024446
:100CF0000EFB00FEA64508D91CEB040400F1FF32F0
:100D000002D2A64500F2BB801046A4EB0E0440EAD6
:100D100005409FE7C1F120078B4022FA07FC4CEA0F
:100D2000030C05FA01F420FA07F3FD404FEA1C49D1
:100D30002343B5FBF9F81FFA8CFE09FB18551C0C70
:100D400044EA054408FB0EF5A54202FA01F200FA56
:100D500001F00BD91CEB040408F1FF3A80F0888005
:100D6000A54240F28580A8F102086444641B9DB24C
:100D7000B4FBF9F309FB134445EA044403FB0EFEFC
:100D8000A64508D91CEB040403F1FF356CD2A64537
:100D90006AD9023B644443EA0843A3FB0295A4EBEF
:100DA0000E04AC42C846AE4656D353D056B1B0EB53
:100DB000080264EB0E0404FA07F7CA40CC4017435C
:100DC000C6E9007418460021BDE8F087C3F1200190
:100DD00002FA03FC20FA01F225FA01F19D402A43B0
:100DE0004FEA1C471FFA8CFEB1FBF7F007FB10150A
:100DF000110C41EA054100FB0EF58D4204FA03F4A3
:100E000008D91CEB010100F1FF382FD28D422DD9FA
:100E100002386144491B92B2B1FBF7F507FB15118B
:100E200042EA014205FB0EF1914208D91CEB020295
:100E300005F1FF3816D2914214D9023D6244521A8C
:100E400045EA004138E73146304608E73946E6E6EC
:100E50001046FBE64845A9D2B9EB020865EB0C0E3B
:100E6000013BA3E74546EAE72B4694E74046D1E736
:100E7000D0467BE7023D624432E708460AE7644415
:100E8000023842E7704700BFDFF834D0002103E0AA
:100E90000C4B5B58435004310B480C4B42189A42A0
:100EA000F6D30B4A02E0002342F8043B094B9A4276
:100EB000F9D309F017F92AF08DF901F029F87047F4
:100EC00000000320EC091608000000206801002043
:100ED00068010020EC390120FEE70000704700BFE8
:100EE00008B500F0A9FBBDE8084000F033BB00BF27
:100EF00000F0A4BB704710B50421044628F07FFF22
:100F0000204610BD38B50C4B0C4C18800C4B822081
:100F100019806368984740F6110398420AD1094D39
:100F200023682C60822098472B688220DB689847D2
:100F3000002038BD0120FCE7840100205000002083
:100F400086010020880100204FF4A071F020FFF7F7
:100F5000D9BF0000F7B5334D2B6804461B698220CA
:100F6000984780B2208000284AD02B680DF10602F5
:100F70005B6901A982209847BDF8063040F674628B
:100F800093423FD9ADF80620BDF80630D21A92B28E
:100F90000A2A3DD90B23B2FBF3F2234B1B889A425A
:100FA00001D9013B9AB2BDF8043040F6B8318B420A
:100FB00030D8C3F571630E339BB20F21B3FBF1F34D
:100FC0001A4909888B4201D901398BB2184E194D43
:100FD00030682F68834281B28CBF591AC91AB8B2DF
:100FE000BA428CBF101A801A89B280B20144052916
:100FF000C8BF33603368C8BF2A6063802B68A38092
:1010000003B0F0BDB32B9CBFB423ADF80630BBE7F3
:101010000022C8E7C3F56D6308339BB20E2BCCD812
:101020000023D3E7880100208601002084010020EE
:101030008C0100209001002037B568460D4614460B
:10104000FFF788FFBDF8000048B1BDF802302B6003
:10105000BDF804302360034B3C221A60012003B02A
:1010600030BD00BF1400002010B1022809D0704725
:10107000074B1A68B2FA82F252090421054809F0B6
:1010800049BA034B9A68B2FA82F252091021F5E785
:10109000940100200010024010B1022809D07047CE
:1010A000074B1A68003A18BF01220421054809F0CD
:1010B00031BA034B9A68003A18BF01221021F5E7B4
:1010C000940100200010024010B1022804D07047A3
:1010D0000421024809F022BA1021FAE70010024068
:1010E00008B530B1022809D00020431E58425841AB
:1010F00008BD0421024809F007FAF6E71021F9E7D4
:101100000010024070B5084D00240126E0B2FFF740
:10111000E7FF18B12B68012B18BF2E600134052C96
:1011200005F10405F2D170BD94010020012380F87F
:10113000781080F87930704700207047034B416485
:10114000003918BF01211970704700BFB32D01206D
:1011500000207047836B0BB10846184770474FF665
:10116000FF707047406803689B6918477047704775
:101170007047000010B5044600F04CFB236803499B
:10118000D3F88C302046BDE810401847000000D04E
:1011900008B503680446D3F8803098472368204692
:1011A0009B6F984700F0ECF8236820461B6F984728
:1011B000292001F079F900F0E3F8236820461B6F3D
:1011C0009847F8E710B5044610F034FB2368204632
:1011D000D3F8AC30BDE81040184700F00DBB00F06C
:1011E00011BB00F035BB00F0DDBA00F0E3BA00F04F
:1011F0003BBB00F0E7BA0FF089BD10B57C21044677
:1012000028F0FDFD204610BD90F87A301BB14068F3
:1012100003681B68184718467047000010B590F81F
:10122000341090F878400C4B8C421A7809D03AB9B7
:101230000A4A0B491488088810800C8001221A7011
:1012400010BD002AFCD0054A054914880888108082
:101250000C800022F3E700BFAC2D0120A82D012057
:10126000AA2D012070B50D46194635B9094B0A4A19
:101270000A4840F2D22129F0A9FCC0E90F52084BDC
:10128000003A18BF01221A700368BDE87040D3F815
:101290008C30184760BD020898BD0208E6BD020800
:1012A000B22D012008B5094B1B888B4203D8084B8F
:1012B0001B88934205D9074B074A08489E2129F00D
:1012C00085FC074B1980074B1A8008BDA82D01200B
:1012D000AA2D01202BBE02088EBE0208E6BD020820
:1012E000AE2D0120B02D0120012108B500220846B5
:1012F0000CF018FB0A4B186028B90A4B0A4A28213F
:101300000A4829F063FC0022042101200CF0BEFBF6
:10131000074B186018B9074B034A2C21F0E708BDAA
:10132000A8010020ACBF0208F5BF020824C00208D3
:10133000A4010020B4C00208024B4FF0FF3118682E
:101340000CF044BBA8010020014B18680CF072BBE4
:10135000A8010020024B002118680CF037BB00BF29
:10136000A8010020FFF7F0BF0348044900680023EC
:101370001A460CF0C5BB00BFA401002004000020E9
:1013800013B5084C00231A4601A920680CF0EEFBA7
:1013900020684FF0FF33002201A90CF0E7FB02B0F8
:1013A00010BD00BFA40100207047002070477047A7
:1013B000704700207047704708B5034A034B044844
:1013C000222129F003FC00BF19C10208F6C002085F
:1013D00057C1020808B5034A034B0448272129F0E6
:1013E000F5FB00BFE5C10208F6C0020857C10208BC
:1013F00010B54421044628F002FD204610BD00002F
:1014000038B5044621460025064B25720C30606035
:101410006572012241F8203B10F064FBE562204632
:1014200038BD00BF2CC20208012070473820704729
:10143000382303FB010008307047382303FB010009
:10144000083070470120704741F2F830704741F290
:10145000F83303FB01000830704741F2F83303FB17
:10146000010008307047012070471020704700EBE2
:1014700001100830704700EB011008307047084633
:1014800003F024BA10B5034B036004460EF0C7FF07
:10149000204610BDE4C2020810B50446FFF7F2FF73
:1014A0002046402128F0ABFC204610BD10B5034B70
:1014B000036004460EF0B3FF204610BDB0C2020820
:1014C00010B50446FFF7F2FF20464FF4A05128F074
:1014D00096FC204610BD000010B5034B0360044687
:1014E0000EF09DFF204610BD7CC2020810B50446D8
:1014F000FFF7F2FF2046182128F081FC204610BD9E
:1015000010B5094B0360044600F5A1500C30FFF7FD
:10151000B9FF04F12C00FFF7C9FF04F11400FFF735
:10152000DBFF204610BD00BF18C3020808B5024803
:10153000FFF7E6FF08BD00BFB001002010B504466C
:10154000FFF7DEFF204641F2D05128F058FC20463C
:1015500010BD00002DE9F34101F0DAFC054601F071
:10156000DBFC00240146234628462246009417F05F
:10157000CDFF264B264A274D1A60204607F086FDF0
:10158000254817F02BFF2B68BFF35B8FDB0737D4A1
:10159000284628F036FC98B3204C214B236004F1F8
:1015A000140004F12C0800F5A35608F5A05760605C
:1015B000C4F80880E76026610EF032FF194B6361C2
:1015C00040460EF02DFF184BE36238460EF028FF20
:1015D00004F58053154AC3F82C2403F26C4008F03C
:1015E00041FA2246A6F10801304607F03FFF304697
:1015F00003F06CF90E4829F007FB284628F00DFC93
:101600000C4802B0BDE8F041FFF7B4BD182E012030
:1016100044180020AC01002008000020B001002088
:1016200018C302087CC20208B0C20208E4C2020861
:101630002D150008C8170020704700000148FFF76B
:10164000A7BD00BFC817002070B5224E224C234D05
:10165000234B23603046FFF7D3FE28461CF022FAC6
:10166000204B2148DC6000224FF48071C3E9121244
:101670001E491A86C3E91A121D4999671D4983F844
:1016800058200B60F02101801B485A6601801B48DE
:1016900083F870204FF4A071C3E90422C3E9062245
:1016A000C3E90822C3E90A22C3E90E22C3E91022D2
:1016B000C3E91422C3E917225A67C3E9016501800F
:1016C0000F4801800F490A70012283F834200E4A26
:1016D0001A6070BD84170020801700204818002071
:1016E00050BD0208C8170020A82D012001000001EC
:1016F00000000101B42D0120AE2D0120AA2D0120F2
:10170000B02D0120AC2D0120DCBE02080020704766
:1017100081807047C1807047018170474181704767
:101720007047704770477047704710B4C4880368AB
:10173000121B84885B6D091B12B25DF8044B09B261
:1017400018474FF6FF7383814FF0FF33036213682E
:10175000C3611060704790F825201AB190F82420DA
:1017600002B118607047002070478B888380012089
:101770007047704780F82610704790F82600704731
:1017800010B50022B1F90840B1F90A100280428078
:101790008480C18010BD0022028042808280C2808D
:1017A00070470000024B902283F85823704700BF17
:1017B00000E100E0024B4FF080729A60704700BF7A
:1017C00000E100E0094A0A49D3680A48C3F30A0362
:1017D000013B9BB20B801169C1F30A010139018001
:1017E0001364536B43F00103536370470068014077
:1017F000CE180020CC180020014BD3F8AC00704765
:1018000000680140024B0122C3F8AC105A627047D5
:101810000068014070B504460FF0CDFA23685D6E94
:1018200014F076FA01462046A8472368054AD3F803
:1018300088502046AC460023BDE87040A2F5163122
:10184000604700BF00B004D00FF09CBA0FF0A6BAFA
:101850000FF062BA0FF0C3BB90F8252012B10368F5
:101860005B69184770470000044B4FF08072C3F863
:101870008820BFF34F8FBFF36F8F704700E100E008
:1018800070B50023124E8380124B0360336893F8C7
:10189000582005460AB1D86C00B998680368DB6A1D
:1018A00098473368B0FA80F4D86C640930B10368A3
:1018B000DB6A9847002808BF44F001042CB9064BA6
:1018C000064A07482C2129F081F9284670BD00BF3F
:1018D000B42D012028C4020824C3020882C30208D0
:1018E000BBC30208704700002DE9F041FF2BBDF893
:1018F000184000EB410105D120F8024B8142FBD892
:10190000BDE8F081174F04F4FC6604EA070C04F00C
:101910001F0403FB0CFC5E435C43DB43DBB2FF258F
:10192000B0F800E00EEA07020EF4FC6803FB02C206
:1019300003FB08680EF01F0EB2FBF5F2B8FBF5F8DA
:101940003A4008F4FC6842EA080203FB0E4EBEFB74
:10195000F5FE0EF01F0E42EA0E0220F8022B814225
:10196000DED8CDE700F8FFFF10B5144C236823B391
:10197000134B144A1B6C11888B4213D1124B1988DC
:101980000AF0E4FB226892F86A30013382F86A3088
:10199000FFF7EAFC20680FF04DFFBDE81040002083
:1019A000FFF762BB0AF0D2FB206803681B6A984706
:1019B000BDE810400020FFF76FBB10BDB42D012023
:1019C00000680140CE180020CC1800202DE9F04F0F
:1019D0002DED028B8DB000AF0D46F860904600F003
:1019E00019FF03B2BB609B007B60073323F0070342
:1019F000ADEB030D0446EB46F0B1013DD946DA46A6
:101A0000002600F005FF06FB005008EB8003D3ED35
:101A1000007A0136F8EE677AB442EAEC017AF0D146
:101A20007E689FED477A5E44D9ED007A77EEC77AFB
:101A3000E9EC017A4E45F7D1BB686A46A2EBC303D5
:101A400007EE904A9D466D46A1B207F11800F8EEE8
:101A5000678A640827F012F90023594607F1180035
:101A60002A4627F08FF922462946284627F0F8FD16
:101A700007F1100307F114022146284627F096F8D3
:101A8000D7ED047AB8EE678A00F0C6FE07EE900A3A
:101A9000F8EE677A9FED2B7A67EE887A87EEA88A50
:101AA000B4EEC78AF1EE10FA1BD8DFED277AB4EE58
:101AB000E78AF1EE10FA2DDBBB6803EB830900F037
:101AC000ABFE09EB89094FEA4909B9FBF0F005EBD8
:101AD0008000D0ED007A77EEA77A012387EEA87A0E
:101AE0000BE0DFED1A7AB4EEE78AF1EE10FA1DD9B9
:101AF00000F092FE9FED167A0023FA683437104604
:101B000082ED008A82ED017A1372BD46BDEC028B34
:101B1000BDE8F08FDFED0D7AB4EEE78AF1EE10FA52
:101B2000E6D8B4EE478AF1EE10FAE1D1BB68C3EB18
:101B3000031900F071FE4FEA8909B9FBF0F0C6E71E
:101B400000F0FF4400005C4200003442000082428A
:101B50000000000090ED016AD0ED025AD0ED004A7D
:101B6000D1ED026AD1ED013A91ED004A2E492F4A9A
:101B70002F4B76EE257A26EE251A74EEE77AB0EE34
:101B8000417AA4EEA77A36EE653A66EEE57A23EE60
:101B9000077AB7EE005AC5EE071AE6EE237A26EE6C
:101BA000065A24EEA47A65EEA50A27EE033A23EE40
:101BB000C50A67EE817AA0EEA60AE3EE047A76EE15
:101BC000C42AE4EE807A33EEC42A67EEA17A22EECC
:101BD000052A62EEA52A20EE853A24EE865AC1ED4A
:101BE000007A74EE667A34EE634A65EE255AB0EEFA
:101BF000625AA0EEA72AA6EE045A73EEE67A27EE02
:101C0000027A67EE817A76EEE36AE4EE857AA3EEF5
:101C1000267A65EEA77A27EE217A67EEA17A82ED21
:101C2000007AC3ED007A7047D0180020D418002045
:101C3000D8180020000000002DE9F0434A4BDFF8DF
:101C40003491DFF83481494F2DED048B044693E83D
:101C500007008FB002AD85E8070003F10C0207CA48
:101C60000DF1140C18338CE8070093E8070008AE58
:101C700086E8070060462946FFF76CFF2946304694
:101C8000FFF768FF00F098FD0121024601900BA8C4
:101C9000FFF79CFEDDED0C7A99ED007A98ED006A75
:101CA000019AC7EE278A0BA8022167EEA76A97ED73
:101CB000007AC6EE267A78EE878A78EEA78AFFF752
:101CC00085FEDDED0C7A99ED007A98ED006A67EEFD
:101CD000A76A87EE278AC6EE267A97ED007A38EE55
:101CE000078A38EE278A78EEC87A17EE900AFEF750
:101CF00093FC02460B461AA1D1E90001FEF70EFE45
:101D00000F460646FEF7F2FE00EE100A28F0BEF877
:101D100007F100413046B0EE409AFEF7E7FE00EED4
:101D2000100A28F0B3F838EE887ADFED117AC4EDA6
:101D3000008AF6EE006A27EE267A69EE277A2046B8
:101D400084ED019A84ED028A84ED030A84ED047A1D
:101D5000C4ED057A0FB0BDEC048BBDE8F08300BF85
:101D60003333333333B34340E4BC0208D01800208C
:101D7000E02E6542D4180020D818002008B5642051
:101D80000BF0C2FDFBE700BF80B5104CDFF84880C8
:101D90000F4F104E206800231A462146451ED8F8E2
:101DA000000025600BF0ACFE22683C233846202161
:101DB00012B9236008F0AEFB30464FF4005108F032
:101DC000ADFB4FF47A700BF09FFDE3E714000020A9
:101DD0000010024000180240E4180020014B18686F
:101DE000704700BF14000020F0B583B01F4E204D97
:101DF000204C00270097336B43F004033363336BAD
:101E000003F004030093009B2B6823F00C032B606A
:101E10002B6843F004032B60AB6943F40033AB61E0
:101E20000A2008F099F92B6843F00C032B60019706
:101E3000336B43F020033363336B03F020030193D0
:101E4000019BA36823F44033A360636A23F00F036C
:101E50006362E36823F44033E3600A2008F07CF90E
:101E6000236843F44033236003B0F0BD00380240E0
:101E7000000802400014024030B5002495B0CDE9BE
:101E80000A44CDE90C44CDE90344CDE905441E4A9A
:101E900001940794116C1D4B41F080511164126C38
:101EA00002F080520192019A02941A6842F4404270
:101EB0001A601B6803F44043029301224FF48033FD
:101EC000CDE908230823022510934FF480024FF434
:101ED000A873CDE90E5211930222042308A8CDE97C
:101EE000122302990AF054F90F23CDE903354FF478
:101EF000A0524FF4805303A80521CDE90542079372
:101F00000AF05EFB15B030BD0038024000700040A2
:101F10002DE9804800249BB008F0F2F8FFF7ACFFF1
:101F2000FFF762FFCDE90D44CDE90F44BE4B0094AD
:101F30001194196BBD48BE4D41F010011963196B26
:101F400001F01001009100990194196B41F02001FA
:101F50001963196B01F02001019101990294196B29
:101F600041F080011963196B01F08001029102991F
:101F70000394196B41F004011963196B01F004011A
:101F8000039103990494196B41F001011963196BD2
:101F900001F00101049104990594196B41F00201CB
:101FA0001963196B01F00201059105990694196BEB
:101FB00041F040011963196B01F040010691069947
:101FC0000794196B41F0080119631B6B03F00803B8
:101FD000224607931421079B08F09CFA934820217E
:101FE000012208F097FA93482246142108F092FA49
:101FF00091482246802108F08DFA904822464FF4FD
:10200000805108F087FA8E4822464FF4405108F07C
:1020100081FA8C482246042108F07CFA0122894882
:102020004FF4005108F076FA01264FF0030914230B
:102030007E480DA94FF00808CDE90D36CDE90F49CE
:1020400008F024F94FF4881378480E930DA9CDF8C1
:1020500034800F9408F01AF9202374480D930DA9C9
:1020600002274FF0040BCDE90E64109408F00EF92E
:102070007048CDF834B00DA9CDE90E64109708F082
:1020800005F980236C480D930DA94FF0100ACDE996
:102090000E64109408F0FAF8664810940DA9CDE982
:1020A0000E64CDF834A008F0F1F84FF48053634883
:1020B0000D930DA9CDE90E64109408F0E7F84FF4E4
:1020C00040535F480D930DA9CDE90E64109708F0B9
:1020D000DDF842F204035B480D930DA9CDE90E64CF
:1020E000109408F0D3F84FF4004353480D930DA912
:1020F0000F231193CDE90E74109408F0C7F822460F
:102100000521092008F04CF8092008F087F84E480E
:102110004E4B036008F090F84D494E4B2846C5E9F8
:1021200000134FF480432B61C5E90244C5E905441F
:10213000C5E9074408F054FC5146284609F01CFE46
:102140002146284609F038FEDFF818C14248434DC1
:1021500084624FF48273C0E900C34FF4007E1823F9
:10216000C0E906E30A23C362C0E90244C0E90444AB
:10217000C0E908440AF012FD07230E931093384B70
:102180002B6040204FF4C073C5E905034FF4006392
:102190002B620DA94FF400532846AB62C5E90164D8
:1021A000C5E903BAEC616C62CDF83CB0CDE911979A
:1021B0000D9713970AF000FC4FF6FF7209A9284605
:1021C000CDE90968CDE90B6408940AF017FC3046A4
:1021D00007F0C2FF4FF6FF7209A92846CDE90B644C
:1021E000CDE909780AF00AFC4FF6FF7209A92846E2
:1021F000CDE90BB4CDE909980AF000FC4FF40C735B
:102200000893089B0C934FF6FF7209A92846CDE965
:1022100009B80B960AF0F2FB284640F26A510AF020
:102220000BFC342220E000BF0038024000100240C6
:10223000F81800200008024000000240000402409C
:10224000000C024000180240F0180020003002404C
:10225000005C0040A0860100281A0020F41900202C
:10226000400100A0005001403A4D21460DEB020014
:1022700028F0B1FE384B2B6009236B611D23EB6105
:1022800040F20D1B40F24313C5E909B340F21712A7
:1022900040F24713AC862846C5E90B23AE61C5E979
:1022A0000144C5E90344C5F8209085F8364009F09B
:1022B000A7FDF0230E9317934FF4A0731093189378
:1022C000FF230DA92246284612934FF4806605236A
:1022D000224D0D94CDE914630F9411971394169425
:1022E000ADF864408DF8664009F060FE1C4B2B6031
:1022F0001B6898472B68DB689847FEF7F1FDFEF7EF
:10230000EDFDFFF771FD00F045F900F077F90BF0F6
:1023100083FA144A394650460BF0B8FB124B134A65
:102320001860214612480BF0A3FA124B124A1860AB
:10233000214612480BF09CFA114B124A05462146E1
:1023400011481D600BF094FA104B18600BF076FAF0
:10235000FEE700BF4C19002000680140E018002093
:102360001800002098C40208E4180020D4C4020811
:102370007D1D0008EC18002074C40208F10E00084E
:10238000DC180020B0C40208891D0008E8180020ED
:10239000704700BF704700BF10B5094C86B0246875
:1023A0000294144601238DF817400DF117040A46D4
:1023B000019301460094034808F0DAFB06B010BD13
:1023C0000C000020F818002000B50B4B87B01B68EC
:1023D000029384460A4601230DF117010020CDE93E
:1023E00000138DF817006146044808F0B3FC9DF80F
:1023F000170007B05DF804FB0C000020F81800205F
:1024000010B5094C84B0844620680290CDE90023C1
:1024100006480A460123614608F09CFC003818BFB4
:10242000012004B010BD00BF0C000020F8180020EF
:1024300007F092BE08B506480022042108F06AF8A9
:10244000BDE8084002480122042108F063B800BF3B
:102450000008024030B5104D83B0044601220F48F9
:102460004FF4005108F056F828460022042108F0E5
:1024700051F80B4B0B481B68ADF806400DF10601F7
:1024800001220AF0EDFB01220421284603B0BDE839
:10249000304008F03FB800BF00080240000C024086
:1024A00010000020281A002030B5104D83B00446DB
:1024B00000220F484FF4005108F02CF82846002263
:1024C000042108F027F80B4B0B481B68ADF80640B9
:1024D0000DF1060101220AF0C3FB01220421284666
:1024E00003B0BDE8304008F015B800BF0008024056
:1024F000000C024010000020281A00202DE9F043B3
:10250000194E1A4FDFF86890DFF8688083B00C46E8
:10251000054600223046042107F0FCFF3846002221
:102520004FF4005107F0F6FFD9F80030ADF8045031
:1025300001A9012240460AF093FBD9F80030224657
:1025400001A940460AF034FE384601224FF40051FA
:10255000019C07F0DFFF30460122042107F0DAFF7B
:10256000204603B0BDE8F08300080240000C0240A2
:1025700010000020281A002007F0EEBD034B02686F
:102580009A4200D0704707F0D5BD00BF0010004050
:10259000704700BF10B483B0154B16490024009457
:1025A0001A6B42F020021A631A6B02F020020092AA
:1025B000009A0868104A40F440500860086840F4E7
:1025C000403008600194196B41F0040119631B6BE2
:1025D00003F004030193019B136843F0C0031360ED
:1025E000136843F00C03136003B05DF8044B7047AD
:1025F00000380240001402400008024010B483B0CA
:102600000E4A00200190116C41F001011164126C1E
:102610004FF0804302F00102019243F2443109225B
:10262000019C9962DA625A68054942F020025A60B8
:1026300081F81C0303B05DF8044B7047003802407A
:1026400000E100E010B483B0364A374B374C00212C
:102650000091506C40F480605064506C00F48060D5
:1026600000900098D86A40F44010D862586B40F04F
:1026700004005863586B40F4D0705863586B40F4B2
:10268000C0505863586B40F4B0205863586840F409
:1026900080705860986840F080509860986840F06A
:1026A000C0609860986840F4807098600191106BE9
:1026B00040F480001063126B02F48002019203F573
:1026C000A133019A84F839139A6A22F001029A62BE
:1026D0009A6AD207FCD49A681548164942F40062F7
:1026E0009A609A6A42F080629A629A6A42F48032F0
:1026F0009A629A6A42F480429A629A6A42F48052DA
:102700009A629A6A42F480629A629A6A4FF480747A
:1027100042F010029A62DC621863596303B05DF8FC
:10272000044B7047003802400022014000E100E005
:102730004C220140801A00201B4B1A68110500D45E
:1027400070471A4A4FF00071C2F88410BFF34F8FE0
:10275000BFF36F8FC2F884119A6A22F001029A6265
:102760009A6AD207FCD499684FF0804241F4006124
:10277000996013680E4923F00103136088680D4BBC
:1027800020F001008860886820F480708860596AB1
:1027900041F480715962596A21F480715962136859
:1027A00023F00103136070470064024000E100E081
:1027B000002201400038024010B54FF48062002131
:1027C0000F4828F008FCFFF73DFF0E4A0E49936AB8
:1027D0000E484FF0007443F001039362C1F8844146
:1027E0004C6083684FF0804143F0010383600B68C5
:1027F00043F001030B60936ADB07FCD4004810BD73
:10280000801A00200064024000E100E00022014044
:1028100004207047402070474FF42070704700BF7D
:1028200082B00E4B00220092596C41F480415964F1
:10283000586C00F48040009000980192186C40F0B1
:10284000805018641B6C03F080530193019B0F218F
:102850006FF0010002B007F0A3BC00BF00380240D7
:102860000B4B02689A4200D0704782B0002201925E
:10287000D3F8302842F48052C3F8302803F50063BF
:102880001B6B03F480530193019B02B0704700BFA0
:10289000003002402DE970432E4B02688AB00024BC
:1028A0009A42CDE90444CDE90644089402D00AB026
:1028B000BDE87083284D01942B6B284843F0040336
:1028C0002B632B6B03F004030193019B02942B6B8E
:1028D00043F001032B632B6B03F0010302934FF4CE
:1028E00000724FF001084FF00309042604A91223D7
:1028F000CDE90423CDE90689029B089607F0C6FCC2
:1029000004A94FF48072122315480896CDE90423D8
:10291000CDE9068907F0BAFC03942B6C43F400035D
:102920002B642B6C03F400032246052103934820FB
:10293000039B07F035FC482007F070FC2B6A43F43A
:1029400000032B622B6A23F400032B620AB0BDE85C
:10295000708300BF005C0040003802400008024065
:10296000000002402DE9F04104469AB000213022D7
:102970000EA8CDE90811CDE90A110C9128F02BFB26
:10298000674B22689A4202D01AB0BDE8F081C0239A
:102990000821042212930EA84FF400330E911492D2
:1029A000179309F0DDFE002840F0B7805D4B5E48CC
:1029B000002401945A6C42F080625A645A6C02F00E
:1029C00080620192019A02941A6B42F020021A630B
:1029D0001A6B02F020020292029A03941A6B42F0E0
:1029E00001021A631A6B02F001020392039A049423
:1029F0001A6B42F002021A631A6B02F0020204928E
:102A0000049A05941A6B42F040021A631A6B02F0A2
:102A100040020592059A06941A6B42F004021A636A
:102A20001A6B02F004020692069A07941A6B42F09F
:102A300008021A631B6B03F00803002602270E2509
:102A4000079308A94FF480620223CDE90823CDE95A
:102A50000A67079B0C9507F019FC08A941F6580274
:102A6000022332480C95CDE908234FF00908CDE93F
:102A70000A6707F00BFC08A9032202232C48CDF8B3
:102A80003080CDE90823CDE90A6707F0FFFB08A9EC
:102A90004FF47062022326480C95CDE90823CDE956
:102AA0000A6707F0F3FB08A94FF40C6202232148E0
:102AB0000C95CDE90823CDE90A6707F0E7FB08A9E3
:102AC000C02202231C480C95CDE90823CDE90A67F2
:102AD00007F0DCFB08A90822022318480C95CDE971
:102AE0000823CDE90A6707F0D1FB022308A94FF4B8
:102AF000A0521048CDF83080CDE90823CDE90A670F
:102B000007F0C4FB22460521582007F049FB582056
:102B100007F084FB1AB0BDE8F081FFF739FD45E707
:102B200000680140003802400014024000000240EA
:102B3000000402400018024000080240000C02405D
:102B400010B51B4A016888B000239142CDE90233D9
:102B5000CDE90433069301D008B010BD02F56842F8
:102B60000093506C40F480105064506C00F480105E
:102B7000009000980193136B0E4843F020031363F9
:102B8000136B9FED097B03F02003019303220523C0
:102B900002A98DED027BCDE90523019C07F076FBB0
:102BA00008B010BDAFF300808003000002000000F9
:102BB000005001400014024000B5214A03689342CE
:102BC00085B008D0B3F1804F23D01E4A934211D074
:102BD00005B05DF804FB1C4B002201925A6C42F0D8
:102BE00001025A645B6C03F001030193019B05B081
:102BF0005DF804FB144B002203921A6C42F00202AF
:102C00001A641B6C03F002030393039B05B05DF889
:102C100004FB03F50E3300220292196C41F001010E
:102C200019641B6C03F0010302931C200521029B15
:102C300007F0B6FA1C2005B05DF804EB07F0EEBA19
:102C4000000001400004004000380240F0B52B4B6A
:102C500089B01C6800220492002C4CD10127284A1C
:102C600001941F60936B27483B439363936B3B40F6
:102C700003260C254FF63F02019302A90223CDE95A
:102C80000223CDE90565019B07F000FB1E48029772
:102C900002A90227CDE90374CDE9056507F0F6FA2C
:102CA00048F233131948029302A9CDE90374CDE920
:102CB000056507F0EBFA4FF683731548029302A9F6
:102CC000CDE90374CDE9056507F0E0FA4CF2037332
:102CD0001048029302A9CDE90374CDE9056507F018
:102CE000D5FA60230C48039702A9CDE9044606955E
:102CF000029307F0CBFA09B0F0BD00BF801E0020A0
:102D0000003802400014024000080240001802404F
:102D100000100240000C02400004024070B588B070
:102D2000234B002202921A6C42F010021A641B6CB0
:102D300003F010030293054601A903A8029B09F0C2
:102D4000EDFC069BD3B909F0D9FC0346194A1A4C8D
:102D50001A49A2FB03239B0C013B0022C4E9001388
:102D6000204640F2E7332261A260A261E3600AF0EC
:102D700005FB064630B1304608B070BD09F0BEFC18
:102D80004300E3E720460AF087FB06460028F2D11D
:102D9000362007F043FA0F2D01D90126EBE7324622
:102DA0002946362007F0FCF9054B1D60E3E700BF1C
:102DB0000038024083DE1B43841E002000100040C8
:102DC00080000020704700BFFEE700BFFEE700BFA5
:102DD000FEE700BFFEE700BF704700BF08B5C82090
:102DE00007F0BAF904480022202107F093FBBDE860
:102DF0000840082007F09EBB0010024001480AF07E
:102E00008FBB00BF841E0020014808F0F3BA00BF4A
:102E1000F8180020014809F067B800BF4C190020DD
:102E20000120704708B528F0CFF9162303604FF052
:102E3000FF3008BD08B528F0C7F916230360FEE788
:102E400070B5161E07DD0C468D19AFF3008004F82F
:102E5000010BA542F9D1304670BD00BF70B5161EFA
:102E600007DD0C468D1914F8010BAFF30080AC425E
:102E7000F9D1304670BD00BF4FF0FF30704700BF42
:102E80004FF400534B600020704700BF0120704793
:102E9000002070470B4A08B50346106828B1034468
:102EA00069468B4207D8136008BD07481060034489
:102EB00069468B42F7D928F087F90C2303604FF05D
:102EC000FF3008BDCC1E0020F0390120704710B53E
:102ED0000421044626F093FF204610BD08B50329BF
:102EE00013D8DFE801F002060A0E06F01BF90068AD
:102EF00008BD06F017F94068FAE706F013F9806894
:102F0000F6E706F00FF9C068F2E70020F0E70000EE
:102F1000004870470CC502080D20704713B5002407
:102F200051B1036801948DF8034001AA9C680DF12A
:102F30000303A04702B010BD0846FBE7C0897047F5
:102F4000008A7047C088704780887047807A00F098
:102F50007F007047807AC00970477047704770479C
:102F600070477047704730B50368018185B06D4682
:102F70000146D3F8843004462846984795E8070070
:102F80003C3484E8070005B030BD30B503684181AA
:102F900085B06D460146D3F88430044628469847EC
:102FA00095E807003C3484E8070005B030BD0022F6
:102FB000028042808280C280704780F8361070475D
:102FC00070B5036804461B6B15469847236829466D
:102FD00020465B6EBDE87040184700207047806C4B
:102FE000704770477047704730B4C26844685510E6
:102FF000034604EB6200D20748BF62599B6830BCAD
:1030000048BFD358184743682BB183682BB9C068B1
:1030100000F001007047184670470120704710B556
:103020000821044626F0EBFE204610BD10B54C21C9
:10303000044626F0E4FE204610BD10B510210446DB
:1030400026F0DDFE204610BD10B5034B036004469C
:1030500011F05CF9204610BD78C8020807B5074B8F
:103060000360019011F052F901984FF48A5126F053
:10307000C6FE019803B05DF804FB00BF78C80208E3
:1030800008B5FEF7E9FB08BD036870B55E6B124B2F
:103090001B6804468DB22BB9104B114A6C211148A4
:1030A00027F094FD1049828D0988914203D80F4B77
:1030B0000B4A6D21F3E713F812200D4B1B6853F8F0
:1030C000220003681B6B9847281A01B2334620463A
:1030D000BDE87040184700BF0C2E012010C6020842
:1030E00052C602088DC60208102E0120D4C602085E
:1030F000142E012038B500F51073994204460D4690
:1031000003D112F005FE01F0F1FB04F534739D428A
:1031100003D112F0FDFD01F0A9FC04F52274A542D3
:1031200005D112F0F5FDBDE8384001F0AFBC38BD67
:1031300000224FF0FF31C0E900218260704770B576
:10314000036804461B6B15469847236829462046AA
:103150005B6BBDE87040184770B504461D46BDF96D
:103160001060FFF7ECFF2368294620469B6B9847C9
:10317000236831462046DB6BBDE8704018470000ED
:103180000022C0E90122C0E90322C0E90522C0E90A
:1031900007224FF480728284014A0260704700BFA8
:1031A00058C7020810B526220446002127F013FF55
:1031B0002046FFF7E5FF0A4B23600A4BA3624FF658
:1031C000FF73A3854FF47F020023C4E90C324FF054
:1031D000FF32C4E910232387E363204610BD00BFFC
:1031E00090F00208C0C702081A4B73B51B88018F04
:1031F0008B4206462BD9184B1B682BB9174B184A24
:1032000018486C2127F0E2FC13F81120164B1B68BC
:1032100053F82250154B186805F074FF2B68019085
:103220009B6B284698472B6801999B6C044628465F
:1032300098472B6801995B6A14FB00F4284698476D
:10324000A4B223181BB2A6F8463002B070BD00230A
:10325000F9E700BF102E01200C2E012010C6020835
:1032600052C602088DC60208142E0120182E012015
:103270002DE9F04F2DED068B04468DB0A3460025B9
:1032800014F0C6F9664BE5634BF8403B262229460D
:10329000584627F0A0FE5846FFF772FF04F16C0A6B
:1032A000FF26604B236426224FF6FF73294684F8DD
:1032B00066605046A566ADF8283027F08CFE504673
:1032C000FFF75EFF584BE366BDF82830A4F8923054
:1032D0000AA9504604F1980984F8946010F00FF898
:1032E0004846FFF75FFF04F1E407504BC4F89830FD
:1032F000C4F8E05038460EF0CBFE04F5AA73184629
:103300000393FEF7BDFA4A4BC4F8543104F5B47880
:103310002433C4F85C31C4F860514046FFF742FFE3
:1033200004F5D873184608EE103AFFF73BFF04F592
:10333000FC73184608EE903AFFF734FF04F510735B
:10334000184609EE103A10F01BF904F522731846DE
:1033500009EE903A10F014F904F5347318460AEEA9
:10336000103A10F00DF9334A04F58053C3E94C24A8
:10337000314A4FF46161C3E94E2504F5487010F0FD
:10338000BBFF4FF4A0732A46584600932946F0230A
:10339000FFF7E2FE261D4FF07F43A36659463046F5
:1033A0000DF01EFA2A4650462946FFF7C8FE0923AB
:1033B00050460AA9ADF828300FF0A1FF514630461B
:1033C0000DF00EFA4FF49A7259214846FFF7B7FEF6
:1033D000D4F89830A4F8CC500DF1100A4FF0FF3B10
:1033E0005046D3F88430C4F8C8B0494698479AE8A4
:1033F000070004F1D40383E80700104B1B6804F5B1
:10340000467A2BB90E4B0F4A60210F4827F0DEFB9E
:103410000E4B1B88242B1DD80D4B0A4A6121F4E763
:1034200078C8020820F10208E8F20208D0C70208B2
:1034300054EE020860C80208F53000080C2E012086
:1034400010C6020812C702088DC60208102E0120FD
:10345000D4C60208934B2421186805F053FE924A03
:1034600003460421504615F0C3FD4846C4F8E0A0C9
:103470000FF04AFB8D4B0A930AA925234846ADF865
:103480002C300FF061FB494630460DF0A9F90A23B4
:1034900000933222F02329463846FFF75DFE039B56
:1034A000C4F80C31A02211463846C4F860B1A4F823
:1034B00064B10EF003FFA0224FF4EB5138460EF03A
:1034C00008FFD4F82031202B05D02023C4F8203168
:1034D00038460EF0FDFD384601210EF005FF394655
:1034E000304604AD4FF0FF370DF07AF94FF0000A87
:1034F0003C2240464621FFF722FE41462846C4F8BA
:103500009871A4F89CA10FF085F895E8070008F1E0
:103510003C0383E80700DFF89491CDF828901D2341
:103520000AA94046ADF82C300FF00EFB414630465C
:103530000DF056F918EE100A23224521FFF7FFFD82
:1035400018EE101A2846C4F8E071A4F8E4A10FF0B0
:1035500061F895E8070018EE103A3C3383E807005D
:103560005A2318EE100A0AA9ADF82C30CDF828908D
:103570000FF0EAFA18EE101A30460DF031F918EE95
:10358000900A0C223621FFF7DAFD18EE901A284631
:10359000C4F82872A4F82CA20FF03CF895E80700B4
:1035A00018EE903A3C3383E80700592318EE900A4E
:1035B0000AA9ADF82C30CDF828900FF0C5FA18EE16
:1035C000901A30460DF00CF919EE100AF022212164
:1035D000FFF7B5FD4FF003090AAA4FF0020809A949
:1035E00019EE100AADF82490ADF8288004F589553D
:1035F0000FF08FFC5823A4F87832103519EE100A1A
:10360000FFF7F2FD19EE101A3046C4E99F77C4F8AF
:1036100068520DF0E5F819EE900AAA222121FFF771
:103620008EFD0AAA09A919EE900AADF82490ADF80A
:1036300028800FF06EFC5723A4F8C03219EE900AD0
:10364000FFF7D2FD19EE901A3046C4E9B177C4F8FD
:10365000B0520DF0C5F81AEE100A64222121FFF7CE
:103660006EFD0AAA09A91AEE100AADF82490ADF869
:1036700028800FF04EFC56231AEE100AA4F80833E7
:10368000FFF7B2FD3046C4E9C3771AEE101AC4F84A
:10369000F8520DF0A5F820460DB0BDEC068BBDE844
:1036A000F08F00BF182E01204AC70208C0C70208C9
:1036B00070477047704730B4C2684468551003467D
:1036C00004EB6200D20748BF62599B6830BC48BF18
:1036D000D358184743682BB183682BB9C06800F0F2
:1036E00001007047184670470120704710B510213F
:1036F000044626F084FB204610BD000010B5034BA5
:103700000360044610F002FE204610BDC4C8020843
:1037100007B5074B0360019010F0F8FD01984FF4D6
:103720008F5126F06CFB019803B05DF804FB00BFDD
:10373000C4C8020810B500F58054D4F8DC21013269
:10374000052AC4F8DC2105D10368DB6A9847002309
:10375000C4F8DC3110BD00F5E470884208B505D12D
:1037600012F0D6FABDE8084001F070B908BD0000BB
:1037700010B50446FFF716FD024B23600023A36437
:10378000204610BDD0C702082DE9F04F2DED068B65
:1037900004468DB0A346002513F03AFF694BE5635C
:1037A0004BF8403B26222946584627F014FC584641
:1037B000FFF7E6FC04F16C06FF27634B2364262227
:1037C0004FF6FF73294684F866703046A566ADF85B
:1037D000283027F000FC3046FFF7D2FC5B4BE36655
:1037E000BDF82830A4F892300AA9304604F1980AAE
:1037F00084F894700FF083FD04F1E4095046FFF75C
:10380000B7FF4846FFF7B4FF04F59873184609EE72
:10381000103AFFF7ADFF04F5BE73184609EE903A73
:10382000FFF7A6FF04F5E47318460AEE103A0FF00E
:10383000A7FE04F50473184604F516780AEE903ACC
:10384000FFF7B0FC40460EF023FC04F53273184637
:103850000293FEF715F83E4BC4F8C8322433C4F87F
:10386000D03204F537731846C4F8D45208EE103A33
:10387000FFF798FC04F54973184608EE903AFFF7F5
:1038800091FC344A04F58053C3E97324324AC3F8E7
:10389000DC51C3E975254FF4616104F56F7010F0D8
:1038A0002BFD4FF4A0732A46584600932946F02377
:1038B000FFF752FC271D4FF07F43A3665946384659
:1038C0000CF08EFF2A4630462946FFF738FC0923C4
:1038D00030460AA9ADF828300FF011FD31463846C0
:1038E0000CF07EFF1B23A02200932946CF235046D5
:1038F000FFF732FCD4F89830A4F8CC5004AE4FF067
:10390000FF3BD3F88430C4F8C8B0514630469847DE
:1039100096E8070004F1D40383E8070004F55B731D
:1039200003930E4B1B682BB90D4B0E4A60210E48BA
:1039300027F04CF90D4B1B88E3B90D4B094A612167
:10394000F5E700BFC4C8020820F10208E8F2020847
:1039500054EE0208ACC80208573700080C2E0120AC
:1039600010C6020812C702088DC60208102E0120D8
:10397000D4C60208D74B2946186805F0C3FBD64ABF
:1039800003460A21039815F033FB0399D34BC4F87F
:10399000E01050460A930AA90123ADF82C300FF02D
:1039A000D3F8514638460CF01BFF1621BB2200917C
:1039B000CF2319214846FFF7CFFBD4F8E430C4F8F1
:1039C00014B1D3F88430A4F81851494630469847CA
:1039D00096E8070004F5907383E80700C0490B6878
:1039E00004F5607A002B9FD0BE480388022BA4D92F
:1039F000B84A0221106805F085FBB74A03460A2140
:103A0000504615F0F5FA0DF1280CB44BC4F82CA172
:103A1000614648464FF0030A0A93ADF82CA00FF018
:103A200093F8494638460CF0DBFE4FF0160C77222F
:103A300019EE100ACDF800C0CF231921FFF78CFB37
:103A4000D4F83031C4F860B1D3F88430A4F86451AC
:103A500019EE101A3046984796E8070004F5B67339
:103A600083E807009E490B6804F56579002B3FF455
:103A70005BAF9C480388042B7FF65FAF954A042117
:103A8000106805F03FFB944A03460A21484615F0AA
:103A9000AFFA0DF1280C914BC4F87891614619EEFC
:103AA000100A0A930523ADF82C300FF04DF819EEEB
:103AB000101A38460CF094FE4FF01B0C5C2219EEE5
:103AC000900ACDF800C0CF232946FFF745FBD4F874
:103AD0007C31C4F8ACB1D3F88430A4F8B05119EEFD
:103AE000901A3046984796E8070004F5DC7383E89F
:103AF00007007B490B6804F56A79002B3FF414AF8B
:103B000078480388062B7FF618AF724A06211068A2
:103B100005F0F8FA704A03460A21484615F068FA9B
:103B20006E4B0A9319EE900A07230AA9C4F8C491B0
:103B3000ADF82C300FF008F819EE901A38460CF05A
:103B40004FFE1AEE100A40F201122121FFF7F7FA98
:103B50000AAA022309A91AEE100AADF82830ADF816
:103B600024A00FF0D6F919231AEE100AA4F8003297
:103B7000FFF73AFB04F58E530C33C4F8F0311AEE1C
:103B8000101A3846C4E981BB0CF02AFE3C221AEE1A
:103B9000900A2021FFF7D3FA1AEE901A3046C4F8A3
:103BA00040B2A4F844520EF035FD96E8070004F543
:103BB000137383E80700494B0A931AEE900A1A23FD
:103BC0000AA9ADF82C300EF0BFFF1AEE901A384655
:103BD0000CF006FE0A2300933222F02329464046C9
:103BE000FFF7BAFA029BC4F88032A0221146404681
:103BF000C4F8D4B2A4F8D8B20EF060FBA0224FF4FF
:103C0000EB5140460EF065FBD4F89432202B05D0E2
:103C10002023C4F8943240460EF05AFA404601215F
:103C20000EF062FB414638460CF0DAFD04AD18EEAA
:103C3000100A23224FF0FF394FF000084521FFF70B
:103C40007EFA18EE101A2846C4F80C93A4F81083D4
:103C50000EF0E0FC95E8070018EE103A3C3383E8DC
:103C600007001E4E0A961B2318EE100A0AA9ADF88B
:103C70002C300EF069FF18EE101A38460CF0B0FD2B
:103C800018EE900A0C223621FFF759FA18EE901A16
:103C90002846C4F85493A4F858830EF0BBFC95E86A
:103CA000070018EE903A3C3383E807001C2318EE17
:103CB000900A0AA9ADF82C300A960EF045FF384656
:103CC00018EE901A0CF08CFD20460DB0BDEC068B62
:103CD000BDE8F08F182E01204AC70208C0C70208AD
:103CE0000C2E0120102E012070477047704730B411
:103CF000C26844685510034604EB6200D20748BF0F
:103D000062599B6830BC48BFD358184743682BB1F1
:103D100083682BB9C06800F00100704718467047EF
:103D20000120704710B51021044626F068F820469F
:103D300010BD000010B5034B0360044610F0E6FA16
:103D4000204610BD14C9020807B5074B0360019057
:103D500010F0DCFA01984FF48F5126F050F80198DA
:103D600003B05DF804FB00BF14C9020810B500F5EC
:103D70008054D4F8DC210132052AC4F8DC2105D1B5
:103D80000368DB6A98470023C4F8DC3110BD00F5F6
:103D9000E470884208B505D111F0BAFFBDE80840CB
:103DA00000F054BE08BD00002DE9F04F2DED068B4C
:103DB00004468DB0A346002613F02AFC6A4BE66346
:103DC0004BF8403B26223146584627F004F9584626
:103DD000FFF7D6F904F16C05FF27644B2364262214
:103DE0004FF6FF73314684F866702846A666ADF834
:103DF000283027F0F0F82846FFF7C2F95C4BE3665D
:103E0000BDF82830A4F892300AA9284604F1980A8F
:103E100084F894700FF073FA04F1E4095046FFF748
:103E2000A7FC4846FFF7A4FC04F59873184609EE72
:103E3000103AFFF79DFC04F5BE73184609EE903A60
:103E4000FFF796FC04F5E47318460AEE103A0FF0FB
:103E500097FB04F50473184604F516780AEE903AB9
:103E6000FFF7A0F940460EF013F904F53273184637
:103E70000293FDF705FD3F4BC4F8C8322433C4F864
:103E8000D03204F537731846C4F8D46208EE103AFD
:103E9000FFF788F904F54973184608EE903AFFF7E2
:103EA00081F9354A04F58053C3E97324334AC3F8D2
:103EB000DC61C3E975264FF4616104F56F7010F0A1
:103EC0001BFA4FF4A0733246584600933146F02354
:103ED000FFF742F9271D4FF07F43A3665946384646
:103EE0000CF07EFC324628463146FFF728F94FF0A9
:103EF000090328460AA9ADF828300FF000FA294630
:103F000038460CF06DFC1B235C2200933146CF2316
:103F10005046FFF721F9D4F89830A4F8CC6004ADEE
:103F20004FF0FF3BD3F88430C4F8C8B05146284660
:103F3000984795E8070004F1D40383E8070004F5E7
:103F40005B7303930E4B1B682BB90E4B0E4A60211B
:103F50000E4826F03BFE0E4B1B880A2B1CD80D4B3F
:103F6000094A6121F4E700BF14C9020820F10208E0
:103F7000E8F2020854EE0208FCC802088F3D00086F
:103F80000C2E012010C6020812C702088DC60208B6
:103F9000102E0120D4C60208D84B0A21186805F05B
:103FA000B1F8D74A03460A21039815F021F803997E
:103FB000D44BC4F8E01050460A930AA90B23ADF87D
:103FC0002C300EF0C1FD514638460CF009FC16218C
:103FD00077220091CF2319214846FFF7BDF8D4F886
:103FE000E430C4F814B1D3F88430A4F81861494619
:103FF0002846984795E8070004F5907383E8070082
:10400000C1490B6804F5607A002B9ED0BF48038835
:104010000C2BA4D9B94A0C21106805F073F8B84AE2
:1040200003460A21504614F0E3FF0DF1280CB54B6E
:104030000A9361460D234846C4F82CA1ADF82C30F4
:104040000EF082FD494638460CF0CAFB4FF0160CC4
:10405000BB2219EE100ACDF800C0CF231921FFF7BB
:104060007BF8D4F83031C4F860B1D3F88430A4F8C8
:10407000646119EE101A2846984795E8070004F580
:10408000B67383E80700A0490B6804F56579002B37
:104090003FF45BAF9D480388082B7FF660AF974ADB
:1040A0000821106805F02EF8954A03460A21484673
:1040B00014F09EFF4FF0090CADF82CC00DF1280C48
:1040C000904BC4F87891614619EE100A0A930EF0ED
:1040D0003BFD19EE101A38460CF082FB4FF01B0C1A
:1040E000A02219EE900ACDF800C0CF233146FFF789
:1040F00033F8D4F87C31C4F8ACB1D3F88430A4F8E8
:10410000B06119EE901A2846984795E8070004F523
:10411000DC7383E807007C490B6804F56A79002B9F
:104120003FF413AF794803880F2B7FF618AF734A1B
:104130000F21106804F0E6FF714A03460A21484641
:1041400014F056FF6F4B0A9319EE900A0E230AA93A
:10415000C4F8C491ADF82C300EF0F6FC19EE901AAC
:1041600038460CF03DFB1AEE100A40F201122121F4
:10417000FEF7E5FF03230AAA09A91AEE100AADF813
:1041800024300223ADF828300EF0C3FE1F231AEEB0
:10419000100AA4F80032FFF727F804F58E530C3309
:1041A000C4F8F0311AEE101A3846C4E981BB0CF09D
:1041B00017FB3C221AEE900A3A21FEF7C0FF1AEED6
:1041C000901A2846C4F840B2A4F844620EF022FACD
:1041D00095E8070004F5137383E80700494B0A9339
:1041E0001AEE900A1E230AA9ADF82C300EF0ACFC92
:1041F0001AEE901A38460CF0F3FA0A230093322292
:10420000F02331464046FEF7A7FF029BC4F88032F8
:10421000A02211464046C4F8D4B2A4F8D8B20EF099
:104220004DF8A0224FF4EB5140460EF052F8D4F86E
:104230009432202B05D02023C4F8943240460DF050
:1042400047FF404601210EF04FF8414638460CF03A
:10425000C7FA04AD18EE100A23224FF0FF394FF0D1
:1042600000084521FEF76BFF18EE101A2846C4F827
:104270000C93A4F810830EF0CDF995E8070018EE22
:10428000103A3C3383E807001E4E0A96202318EEAE
:10429000100A0AA9ADF82C300EF056FC18EE101AD0
:1042A00038460CF09DFA18EE900A0C223621FEF7E3
:1042B00046FF18EE901A2846C4F85493A4F8588381
:1042C0000EF0A8F995E8070018EE903A3C3383E821
:1042D0000700212318EE900A0AA9ADF82C300A969F
:1042E0000EF032FC384618EE901A0CF079FA20469F
:1042F0000DB0BDEC068BBDE8F08F00BF182E01207D
:104300004AC70208C0C702080C2E0120102E012047
:104310007047704700F598730868496803C3704791
:10432000704770474160704710B50022B1F90840EE
:10433000B1F90A10028042808480C18010BD7047AC
:1043400070470000064BC0F84C310023C0F85031D4
:1043500000F5A273C0F84801C0F84031704700BFB3
:104360000147000801230372704770477047704788
:104370007047704701464068036810315B6E18470C
:1043800001464068036810311B6E184770470146AC
:104390004068036810315B6E184701464068036847
:1043A00010311B6E1847704710B4C2684168541032
:1043B000034601EB6200D20748BF0A599B685DF8CB
:1043C000044B48BFD358184743682BB183682BB9B7
:1043D000C06800F001007047184670470120704720
:1043E00010B50C21044625F00AFD204610BD10B57D
:1043F0001021044625F003FD204610BD10B54FF4F2
:10440000AE71044625F0FBFC204610BD10B53821E6
:10441000044625F0F4FC204610BD10B528210446C2
:1044200025F0EDFC204610BD10B53821044625F0DE
:10443000E6FC204610BD10B511F06AFC0368BDE82B
:104440001040DB6B1847000013B50446807A637A8E
:104450000130C0B29842A07205D901232372002313
:10446000A37202B010BDB4F90C20002113F082FA3F
:1044700010F0010283B22AD1E081194AB4F90E008A
:10448000E3891288B4F91410A0820020D21AADF882
:104490000200606822835B1A124AADF80430036898
:1044A000B2F900201B69ADF80010ADF8062069468E
:1044B0009847A37A012BD4D10B4B1B78002BD0D07B
:1044C00011F026FC02B0BDE8104011F027BC4FF6F9
:1044D000FF710028D8BF0A461344E381CDE700BF2F
:1044E000A82D0120AA2D0120B22D012010B50446CF
:1044F000D0F8400158B10368DB68984738B1D4F868
:10450000400103689B6898470023C4F8403110BD00
:104510002DE9F14FD0E9555A0746A86803681B6A90
:104520009847972805D8464B464AA321464826F087
:104530004DFB686803681B6A98470F2803D8434BF4
:10454000404AA421F2E7E86803681B6A98470B28F1
:1045500003D83F4B3B4AA521E8E711F0D9FBDFF830
:10456000F890043011F03AFCD9F8000010B103685B
:10457000DB689847D9F8000010B103681B689847BA
:10458000DFF8D880D8F8000010B103685B6998475D
:10459000D7F83C0110B103685B689847D8F8000071
:1045A00010B103681B689847D7F83C0110B1036845
:1045B0009B689847E868036800215B6A98474FF05A
:1045C000000B244B03600446C0F804B080F808B028
:1045D000A868036859465B6A9847064605F0F4FAEE
:1045E0006868036859465B6A98473146054605F096
:1045F000C7FAC9F80040C7F83C51C8F80060E5B1F7
:104600002B1DCAF800303368C5F808A03046DB68B7
:10461000F56398472B6828461B6898472146304623
:1046200013F0A2F9236820461B69984723685B6949
:10463000204601B0BDE8F04F18472B46E1E700BF28
:1046400044C90208D2C90208E0CA020827CB0208FE
:10465000CACB0208E8DF0208FC2D0120F82D01205A
:1046600037B50446807A637A0130C0B29842A072AE
:1046700005D9012323720023A37203B030BDB4F91E
:104680000C20002113F076F910F0010283B228D13A
:10469000E081184B18481988258BE389B0F9000090
:1046A000ADF80600CA1A60682B445B1A12B2ADF866
:1046B000043003682283ADF8002000221B69ADF8A6
:1046C000022069469847A37A012BD6D10B4B1B7861
:1046D000002BD2D011F01CFB03B0BDE8304011F02C
:1046E0001DBB4FF6FF710028D8BF0A461344E38173
:1046F000CFE700BFA82D0120AA2D0120B22D012057
:104700002DE9F14FD0E9555A0746A86803681B6A9E
:10471000984741F27B13984205D8464B464AA3215D
:10472000464826F053FA686803681B6A98470F28C2
:1047300003D8434B404AA421F2E7E86803681B6AA8
:1047400098470B2803D83F4B3B4AA521E8E711F0D7
:10475000DFFADFF8F890043011F040FBD9F80000E0
:1047600010B10368DB689847D9F8000010B10368FE
:104770001B689847DFF8D880D8F8000010B10368AC
:104780005B699847D7F83C0110B103685B689847AC
:10479000D8F8000010B103681B689847D7F83C01AF
:1047A00010B103689B689847E868036800215B6A5A
:1047B00098474FF0000B244B03600446C0F804B048
:1047C00080F808B0A868036859465B6A98470646AF
:1047D00004F0B4FE6868036859465B6A984731463E
:1047E000054604F085FEC9F80040C7F83C51C8F8FA
:1047F0000060E5B12B1DCAF800303368C5F808A089
:104800003046DB68F56398472B6828461B68984755
:104810002146304613F0A8F8236820461B699847C4
:1048200023685B69204601B0BDE8F04F18472B466E
:10483000E1E700BF44C902086DCC0208E0CA0208E3
:1048400027CB0208CACB0208E8DF0208FC2D0120B2
:10485000F82D0120044B1B6893F858200AB1D86C3E
:1048600000B99868704700BFB42D0120F8B5044620
:1048700017460E4611F080FB104B1C60104B236056
:10488000104B0025C4E951350F4BC4E95355186846
:10489000036801219B68C4E94F55C4E955769847E0
:1048A000284604F0F3FBFFF7D5FF1AF02AFFFFF7C5
:1048B000D1FF1AF0A1FF2046F8BD00BF082E01204D
:1048C00094DF02087CDF0208B42D0120064BC0F8FB
:1048D0004C310023C0F8503100F5A273C0F84801F4
:1048E000C0F84031704700BF01470008064BC0F8D0
:1048F0004C310023C0F8503100F5A273C0F84801D4
:10490000C0F84031704700BF114F0008064BC0F897
:104910004C310023C0F8503100F5A273C0F84801B3
:10492000C0F84031704700BF355D0008064BC0F845
:104930004C310023C0F8503100F5A273C0F8480193
:10494000C0F84031704700BFD14D0008064BC0F899
:104950004C310023C0F8503100F5A273C0F8480173
:10496000C0F84031704700BFF55B0008064BC0F847
:104970004C310023C0F8503100F5A273C0F8480153
:10498000C0F84031704700BFB55A0008064BC0F868
:104990004C310023C0F8503100F5A273C0F8480133
:1049A000C0F84031704700BF75590008064BC0F889
:1049B0004C310023C0F8503100F5A273C0F8480113
:1049C000C0F84031704700BF35580008064BC0F8AA
:1049D0004C310023C0F8503100F5A273C0F84801F3
:1049E000C0F84031704700BF914C0008064BC0F83A
:1049F0004C310023C0F8503100F5A273C0F84801D3
:104A0000C0F84031704700BFF5560008064BC0F8AB
:104A10004C310023C0F8503100F5A273C0F84801B2
:104A2000C0F84031704700BFB5550008064BC0F8CC
:104A30004C310023C0F8503100F5A273C0F8480192
:104A4000C0F84031704700BF75540008064BC0F8ED
:104A50004C310023C0F8503100F5A273C0F8480172
:104A6000C0F84031704700BF514B0008064BC0F8FA
:104A70004C310023C0F8503100F5A273C0F8480152
:104A8000C0F84031704700BF35530008064BC0F8EE
:104A90004C310023C0F8503100F5A273C0F8480132
:104AA000C0F84031704700BFF5510008064BC0F810
:104AB0004C310023C0F8503100F5A273C0F8480112
:104AC000C0F84031704700BFB5500008064BC0F831
:104AD0004C310023C0F8503100F5A273C0F84801F2
:104AE000C0F84031704700BF1145000803685B6A99
:104AF00018470000124B13B503604FF480734363F3
:104B0000104B417203611049104BB1F90010B3F919
:104B1000003083810022426002728272C281C0E949
:104B20000522C0E90722C0E90922C0E90B22044698
:104B3000009110301146FEF70FFB204602B010BD69
:104B400030E0020814DF0208AA2D0120A82D012060
:104B50002DE9F047D0E9554A0746A06803681B6A6B
:104B60009847B0F58A5F05D2424B434AA321434898
:104B700026F02CF8606803681B6A98470F2803D852
:104B80003F4B3D4AA421F2E7E06803681B6A98475F
:104B9000372803D83B4B384AA521E8E711F0B8F88D
:104BA000DFF8E490043011F019F9D9F8000010B1E1
:104BB0000368DB689847D9F8000010B103681B68E8
:104BC0009847DFF8C880D8F8000010B103685B6927
:104BD0009847D7F83C0110B103685B689847D8F84C
:104BE000000010B103681B689847D7F83C0110B16A
:104BF00003689B689847E0680021FFF777FF14215E
:104C00000546FFF777FFA068036800215B6A9847B5
:104C1000064604F0D9FA6068036800215B6A984789
:104C20003146044604F0AAFAC9F80050C7F83C41DE
:104C3000C8F80060DCB1231DCAF800303368C4F83E
:104C400008A03046DB68F4639847236820461B6859
:104C500098472946304612F087FE2B6828461B6984
:104C600098472B6828465B69BDE8F04718472346FC
:104C7000E2E700BF44C9020875CD0208E0CA020895
:104C800027CB0208CACB0208FC2D0120F82D0120F9
:104C90002DE9F047D0E9554A0746A06803681B6A2A
:104CA0009847B0F58A5F05D2424B434AA321434857
:104CB00025F08CFF606803681B6A98470F2803D8AB
:104CC0003F4B3D4AA421F2E7E06803681B6A98471E
:104CD000372803D83B4B384AA521E8E711F018F8EC
:104CE000DFF8E490043011F079F8D9F8000010B141
:104CF0000368DB689847D9F8000010B103681B68A7
:104D00009847DFF8C880D8F8000010B103685B69E5
:104D10009847D7F83C0110B103685B689847D8F80A
:104D2000000010B103681B689847D7F83C0110B128
:104D300003689B689847E0680021FFF7D7FE1421BD
:104D40000546FFF7D7FEA068036800215B6A984715
:104D5000064604F0B3FC6068036800215B6A98476C
:104D60003146044604F084FCC9F80050C7F83C41C1
:104D7000C8F80060DCB1231DCAF800303368C4F8FD
:104D800008A03046DB68F4639847236820461B6818
:104D900098472946304612F0E7FD2B6828461B69E4
:104DA00098472B6828465B69BDE8F04718472346BB
:104DB000E2E700BF44C9020893CE0208E0CA020835
:104DC00027CB0208CACB0208FC2D0120F82D0120B8
:104DD0002DE9F047D0E9554A0746A06803681B6AE9
:104DE0009847B0F58A5F05D2424B434AA321434816
:104DF00025F0ECFE606803681B6A98470F2803D80B
:104E00003F4B3D4AA421F2E7E06803681B6A9847DC
:104E1000372803D83B4B384AA521E8E710F078FF44
:104E2000DFF8E490043010F0D9FFD9F8000010B199
:104E30000368DB689847D9F8000010B103681B6865
:104E40009847DFF8C880D8F8000010B103685B69A4
:104E50009847D7F83C0110B103685B689847D8F8C9
:104E6000000010B103681B689847D7F83C0110B1E7
:104E700003689B689847E0680021FFF737FE14211C
:104E80000546FFF737FEA068036800215B6A984774
:104E9000064604F0B3FB6068036800215B6A98472C
:104EA0003146044604F084FBC9F80050C7F83C4181
:104EB000C8F80060DCB1231DCAF800303368C4F8BC
:104EC00008A03046DB68F4639847236820461B68D7
:104ED00098472946304612F047FD2B6828461B6943
:104EE00098472B6828465B69BDE8F047184723467A
:104EF000E2E700BF44C90208C3CF0208E0CA0208C3
:104F000027CB0208CACB0208FC2D0120F82D012076
:104F10002DE9F047D0E9554A0746A06803681B6AA7
:104F2000984741F27B13984205D8424B424AA3214D
:104F3000424825F04BFE606803681B6A98470F28BB
:104F400003D83F4B3C4AA421F2E7E06803681B6AA0
:104F50009847372803D83B4B374AA521E8E710F09C
:104F6000D7FEDFF8E490043010F038FFD9F80000E5
:104F700010B10368DB689847D9F8000010B10368E6
:104F80001B689847DFF8C480D8F8000010B10368A8
:104F90005B699847D7F83C0110B103685B68984794
:104FA000D8F8000010B103681B689847D7F83C0197
:104FB00010B103689B689847E0680021FFF796FDF1
:104FC00014210546FFF796FDA068036800215B6A7F
:104FD0009847064604F0B2FA6068036800215B6AED
:104FE00098473146044604F083FAC9F80050C7F8E0
:104FF0003C41C8F80060DCB1231DCAF800303368BA
:10500000C4F808A03046DB68F4639847236820465C
:105010001B6898472946304612F0A6FC2B682846A4
:105020001B6998472B6828465B69BDE8F04718471D
:105030002346E2E744C90208E1D00208E0CA0208B8
:1050400027CB0208CACB0208FC2D0120F82D012035
:1050500003685B6A18470000124B13B503604FF4F6
:1050600080734363104B417203611049104BB1F9D7
:105070000010B3F900308381002242600272827214
:10508000C281C0E90522C0E90722C0E90922C0E9BE
:105090000B220446009110301146FEF75DF82046C1
:1050A00002B010BD0CE0020814DF0208AA2D012096
:1050B000A82D01202DE9F047D0E9554A0746A06800
:1050C00003681B6A984741F2AF03984205D8424BE8
:1050D000424AA321424825F079FD606803681B6AB3
:1050E00098470F2803D83F4B3C4AA421F2E7E068D9
:1050F00003681B6A9847372803D83B4B374AA521DA
:10510000E8E710F005FEDFF8E490043010F066FEEA
:10511000D9F8000010B10368DB689847D9F800009F
:1051200010B103681B689847DFF8C480D8F8000006
:1051300010B103685B699847D7F83C0110B1036868
:105140005B689847D8F8000010B103681B6898475F
:10515000D7F83C0110B103689B689847E0680021CC
:10516000FFF776FF14210546FFF776FFA068036876
:1051700000215B6A9847064604F0CEFC606803682D
:1051800000215B6A98473146044604F09FFCC9F849
:105190000050C7F83C41C8F80060DCB1231DCAF8D4
:1051A00000303368C4F808A03046DB68F4639847E1
:1051B000236820461B6898472946304612F0D4FBE6
:1051C0002B6828461B6998472B6828465B69BDE811
:1051D000F04718472346E2E744C90208FBD102081A
:1051E000E0CA020827CB0208CACB0208FC2D012026
:1051F000F82D01202DE9F047D0E9554A0746A0686F
:1052000003681B6A9847B0F58F5F05D2424B434A4B
:10521000A321434825F0DAFC606803681B6A9847BD
:105220000F2803D83F4B3D4AA421F2E7E06803680A
:105230001B6A9847372803D83B4B384AA521E8E733
:1052400010F066FDDFF8E490043010F0C7FDD9F8E7
:10525000000010B10368DB689847D9F8000010B16E
:1052600003681B689847DFF8C880D8F8000010B1C1
:1052700003685B699847D7F83C0110B103685B6825
:105280009847D8F8000010B103681B689847D7F812
:105290003C0110B103689B689847E0680021FFF764
:1052A000D7FE14210546FFF7D7FEA068036800214A
:1052B0005B6A9847064603F0E1FF606803680021D7
:1052C0005B6A98473146044603F0B2FFC9F80050C4
:1052D000C7F83C41C8F80060DCB1231DCAF80030B3
:1052E0003368C4F808A03046DB68F4639847236845
:1052F00020461B6898472946304612F035FB2B683C
:1053000028461B6998472B6828465B69BDE8F0472B
:1053100018472346E2E700BF44C902081BD302082E
:10532000E0CA020827CB0208CACB0208FC2D0120E4
:10533000F82D01202DE9F047D0E9554A0746A0682D
:1053400003681B6A9847B0F58F5F05D2424B434A0A
:10535000A321434825F03AFC606803681B6A98471C
:105360000F2803D83F4B3D4AA421F2E7E0680368C9
:105370001B6A9847372803D83B4B384AA521E8E7F2
:1053800010F0C6FCDFF8E490043010F027FDD9F8E7
:10539000000010B10368DB689847D9F8000010B12D
:1053A00003681B689847DFF8C880D8F8000010B180
:1053B00003685B699847D7F83C0110B103685B68E4
:1053C0009847D8F8000010B103681B689847D7F8D1
:1053D0003C0110B103689B689847E0680021FFF723
:1053E00037FE14210546FFF737FEA0680368002149
:1053F0005B6A9847064603F0CFFF606803680021A8
:105400005B6A98473146044603F0A0FFC9F8005094
:10541000C7F83C41C8F80060DCB1231DCAF8003071
:105420003368C4F808A03046DB68F4639847236803
:1054300020461B6898472946304612F095FA2B689B
:1054400028461B6998472B6828465B69BDE8F047EA
:1054500018472346E2E700BF44C9020843D40208C4
:10546000E0CA020827CB0208CACB0208FC2D0120A3
:10547000F82D01202DE9F047D0E9554A0746A068EC
:1054800003681B6A9847B0F58A5F05D2424B434ACE
:10549000A321434825F09AFB606803681B6A98477C
:1054A0000F2803D83F4B3D4AA421F2E7E068036888
:1054B0001B6A9847372803D83B4B384AA521E8E7B1
:1054C00010F026FCDFF8E490043010F087FCD9F8E7
:1054D000000010B10368DB689847D9F8000010B1EC
:1054E00003681B689847DFF8C880D8F8000010B13F
:1054F00003685B699847D7F83C0110B103685B68A3
:105500009847D8F8000010B103681B689847D7F88F
:105510003C0110B103689B689847E0680021FFF7E1
:1055200097FD14210546FFF797FDA0680368002149
:105530005B6A9847064603F047FE606803680021EF
:105540005B6A98473146044603F018FEC9F80050DC
:10555000C7F83C41C8F80060DCB1231DCAF8003030
:105560003368C4F808A03046DB68F46398472368C2
:1055700020461B6898472946304612F0F5F92B68FB
:1055800028461B6998472B6828465B69BDE8F047A9
:1055900018472346E2E700BF44C9020869D502085C
:1055A000E0CA020827CB0208CACB0208FC2D012062
:1055B000F82D01202DE9F047D0E9554A0746A068AB
:1055C00003681B6A984741F2E333984205D8424B7F
:1055D000424AA321424825F0F9FA606803681B6A31
:1055E00098470F2803D83F4B3C4AA421F2E7E068D4
:1055F00003681B6A9847372803D83B4B374AA521D5
:10560000E8E710F085FBDFF8E490043010F0E6FBEB
:10561000D9F8000010B10368DB689847D9F800009A
:1056200010B103681B689847DFF8C480D8F8000001
:1056300010B103685B699847D7F83C0110B1036863
:105640005B689847D8F8000010B103681B6898475A
:10565000D7F83C0110B103689B689847E0680021C7
:10566000FFF7F6FC14210546FFF7F6FCA068036877
:1056700000215B6A9847064604F0BCF8606803683E
:1056800000215B6A98473146044604F08DF8C9F85A
:105690000050C7F83C41C8F80060DCB1231DCAF8CF
:1056A00000303368C4F808A03046DB68F4639847DC
:1056B000236820461B6898472946304612F054F963
:1056C0002B6828461B6998472B6828465B69BDE80C
:1056D000F04718472346E2E744C9020887D6020884
:1056E000E0CA020827CB0208CACB0208FC2D012021
:1056F000F82D01202DE9F047D0E9554A0746A0686A
:1057000003681B6A984741F2E333984205D8424B3D
:10571000424AA321424825F059FA606803681B6A8F
:1057200098470F2803D83F4B3C4AA421F2E7E06892
:1057300003681B6A9847372803D83B4B374AA52193
:10574000E8E710F0E5FADFF8E490043010F046FBEB
:10575000D9F8000010B10368DB689847D9F8000059
:1057600010B103681B689847DFF8C480D8F80000C0
:1057700010B103685B699847D7F83C0110B1036822
:105780005B689847D8F8000010B103681B68984719
:10579000D7F83C0110B103689B689847E068002186
:1057A000FFF756FC14210546FFF756FCA068036876
:1057B00000215B6A9847064603F0DAFF60680368D9
:1057C00000215B6A98473146044603F0ABFFC9F8F5
:1057D0000050C7F83C41C8F80060DCB1231DCAF88E
:1057E00000303368C4F808A03046DB68F46398479B
:1057F000236820461B6898472946304612F0B4F8C3
:105800002B6828461B6998472B6828465B69BDE8CA
:10581000F04718472346E2E744C90208CBD70208FD
:10582000E0CA020827CB0208CACB0208FC2D0120DF
:10583000F82D01202DE9F047D0E9554A0746A06828
:1058400003681B6A9847B0F58A5F05D2424B434A0A
:10585000A321434825F0BAF9606803681B6A98479A
:105860000F2803D83F4B3D4AA421F2E7E0680368C4
:105870001B6A9847372803D83B4B384AA521E8E7ED
:1058800010F046FADFF8E490043010F0A7FAD9F8E7
:10589000000010B10368DB689847D9F8000010B128
:1058A00003681B689847DFF8C880D8F8000010B17B
:1058B00003685B699847D7F83C0110B103685B68DF
:1058C0009847D8F8000010B103681B689847D7F8CC
:1058D0003C0110B103689B689847E0680021FFF71E
:1058E000B7FB14210546FFF7B7FBA068036800214A
:1058F0005B6A9847064603F0E1FE60680368002192
:105900005B6A98473146044603F0B2FEC9F800507E
:10591000C7F83C41C8F80060DCB1231DCAF800306C
:105920003368C4F808A03046DB68F46398472368FE
:1059300020461B6898472946304612F015F82B6818
:1059400028461B6998472B6828465B69BDE8F047E5
:1059500018472346E2E700BF44C902080BD90208F2
:10596000E0CA020827CB0208CACB0208FC2D01209E
:10597000F82D01202DE9F047D0E9554A0746A068E7
:1059800003681B6A984741F2E333984205D8424BBB
:10599000424AA321424825F019F9606803681B6A4E
:1059A00098470F2803D83F4B3C4AA421F2E7E06810
:1059B00003681B6A9847372803D83B4B374AA52111
:1059C000E8E710F0A5F9DFF8E490043010F006FAEB
:1059D000D9F8000010B10368DB689847D9F80000D7
:1059E00010B103681B689847DFF8C480D8F800003E
:1059F00010B103685B699847D7F83C0110B10368A0
:105A00005B689847D8F8000010B103681B68984796
:105A1000D7F83C0110B103689B689847E068002103
:105A2000FFF716FB14210546FFF716FBA068036875
:105A300000215B6A9847064604F008F8606803682E
:105A400000215B6A98473146044603F0D9FFC9F844
:105A50000050C7F83C41C8F80060DCB1231DCAF80B
:105A600000303368C4F808A03046DB68F463984718
:105A7000236820461B6898472946304611F074FF7A
:105A80002B6828461B6998472B6828465B69BDE848
:105A9000F04718472346E2E744C902083BDA020808
:105AA000E0CA020827CB0208CACB0208FC2D01205D
:105AB000F82D01202DE9F047D0E9554A0746A068A6
:105AC00003681B6A984741F2F733984205D8424B66
:105AD000424AA321424825F079F8606803681B6AAE
