:020000040800F2
:1000000000000320B90C000885230008892300089C
:100010008D230008912300089523000800000000AC
:1000200000000000000000000000000031E00008B7
:100030009923000800000000C1E0000889D80008EA
:10004000090D0008090D0008090D0008090D000838
:10005000090D0008090D0008090D0008090D000828
:10006000090D00089D230008090D0008090D00086E
:10007000090D0008090D0008090D0008090D000808
:10008000090D0008090D0008090D0008090D0008F8
:10009000090D0008090D0008090D0008090D0008E8
:1000A000090D0008090D0008090D0008090D0008D8
:1000B000090D0008090D0008090D0008090D0008C8
:1000C000090D0008090D0008090D0008090D0008B8
:1000D000090D0008090D0008090D0008090D0008A8
:1000E000090D0008090D0008090D0008090D000898
:1000F000090D0008090D0008090D0008090D000888
:10010000090D0008090D0008090D0008090D000877
:10011000090D0008090D0008BD230008090D00089D
:10012000090D0008F91C0008090D0008090D000858
:10013000090D0008090D0008090D0008090D000847
:10014000090D0008090D0008090D0008090D000837
:10015000090D0008090D0008090D0008090D000827
:10016000C9230008090D0008090D0008090D000841
:10017000090D0008090D0008090D00080000000025
:10018000090D0008090D0008090D0008090D0008F7
:10019000090D0008090D0008090D0008090D0008E7
:0C01A000D5230008090D0008090D000817
:1001B00010B5054C237833B9044B13B10448AFF3A1
:1001C00000800123237010BD6801002000000000A2
:1001D000C4BD020808B5034B1BB103490348AFF384
:1001E000008008BD000000006C010020C4BD0208B2
:1001F0004B1C012B98BF70472DE9F003911C9B0805
:10020000B1F80480B1F802900A8831F802CC804439
:10021000814402448444D9F80070D8F8006015681D
:10022000DCF80040C9F80060C8F80070CCF8005055
:100230001460D9F80470D8F804605568DCF80440FC
:10024000C9F80460C8F80470CCF804505460083150
:10025000013BD5D1BDE8F00370474B1C012B98BF83
:1002600070472DE9F003911C9B08B1F80480B1F8A8
:1002700002900A8831F802CC00EB580800EB5909CB
:1002800000EB520200EB5C0CD9F80070D8F800606B
:100290001568DCF80040C9F80060C8F80070CCF8B8
:1002A000005014600831013BDFD1BDE8F003704716
:1002B00001F0FF01102A2BDB10F0070F08D010F817
:1002C000013B013A8B422DD010F0070F42B3F6D11B
:1002D000F0B441EA012141EA014122F007047FF034
:1002E00000070023F0E80256083C85EA010586EA8B
:1002F000010685FA47F5A3FA87F586FA47F6A5FAC7
:1003000087F68EB9EED1F0BC01F0FF0102F00702D2
:1003100032B110F8013B013A83EA010313B1F8D17D
:100320000020704701387047002D06BF354603385E
:10033000073815F0010F07D1013015F4807F02BF97
:10034000013015F4C03F0130F0BC0138704700BFE8
:1003500070B54FF0FF0C4CF4E06C1CEA11541DBF5B
:100360001CEA135594EA0C0F95EA0C0F00F0DEF826
:100370002C4481EA030621EA4C5123EA4C5350EA0B
:10038000013518BF52EA033541F4801143F480135C
:1003900038D0A0FB02CE4FF00005E1FB02E506F0ED
:1003A0000042E0FB03E54FF00006E1FB03569CF042
:1003B000000F18BF4EF0010EA4F1FF04B6F5007F48
:1003C00064F5407404D25FEA4E0E6D4146EB0606BA
:1003D00042EAC62141EA55514FEAC52040EA5E5043
:1003E0004FEACE2EB4F1FD0C88BFBCF5E06F1ED8ED
:1003F000BEF1004F08BF5FEA500E50F1000041EB24
:10040000045170BD06F0004646EA010140EA0200D0
:1004100081EA0301B4EB5C04C2BFD4EB0C0541EAF2
:10042000045170BD41F480114FF0000E013C00F307
:10043000AB8014F1360FDEBF002001F0004170BD2B
:10044000C4F10004203C35DA0C341BDC04F1140444
:10045000C4F1200500FA05F320FA04F001FA05F2D0
:1004600040EA020001F0004221F0004110EBD3709D
:1004700021FA04F642EB06015EEA430E08BF20EAC9
:10048000D37070BDC4F10C04C4F1200500FA04F36C
:1004900020FA05F001FA04F240EA020001F00041FE
:1004A00010EBD37041F100015EEA430E08BF20EA71
:1004B000D37070BDC4F1200500FA05F24EEA020EB9
:1004C00020FA04F301FA05F243EA020321FA04F0E8
:1004D00001F0004121FA04F220EA020000EBD3709F
:1004E0005EEA430E08BF20EAD37070BD94F0000F9F
:1004F0000FD101F00046400041EB010111F4801FD3
:1005000008BF013CF7D041EA060195F0000F18BF83
:10051000704703F00046520043EB030313F4801FBF
:1005200008BF013DF7D043EA0603704794EA0C0F79
:100530000CEA135518BF95EA0C0F0CD050EA41068F
:1005400018BF52EA4306D1D181EA030101F000410C
:100550004FF0000070BD50EA410606BF1046194634
:1005600052EA430619D094EA0C0F02D150EA013640
:1005700013D195EA0C0F05D152EA03361CBF104681
:1005800019460AD181EA030101F0004141F0FE4120
:1005900041F470014FF0000070BD41F0FE4141F4A4
:1005A000780170BD81F0004102E000BF83F000439C
:1005B00030B54FEA41044FEA430594EA050F08BFFE
:1005C00090EA020F1FBF54EA000C55EA020C7FEAC2
:1005D000645C7FEA655C00F0E2804FEA5454D4EB3F
:1005E0005555B8BF6D420CDD2C4480EA020281EA09
:1005F000030382EA000083EA010180EA020281EA41
:100600000303362D88BF30BD11F0004F4FEA013192
:100610004FF4801C4CEA113102D0404261EB4101A1
:1006200013F0004F4FEA03334CEA133302D0524227
:1006300063EB430394EA050F00F0A780A4F10104E3
:10064000D5F1200E0DDB02FA0EFC22FA05F280181D
:1006500041F1000103FA0EF2801843FA05F3594103
:100660000EE0A5F120050EF1200E012A03FA0EFC82
:1006700028BF4CF0020C43FA05F3C01851EBE371AC
:1006800001F0004507D54FF0000EDCF1000C7EEBC9
:1006900000006EEB0101B1F5801F1BD3B1F5001F07
:1006A0000CD349085FEA30004FEA3C0C04F1010426
:1006B0004FEA445212F5800F80F09A80BCF1004F4F
:1006C00008BF5FEA500C50F1000041EB045141EAD1
:1006D000050130BD5FEA4C0C404141EB0101013C9A
:1006E00028BFB1F5801FE9D291F0000F04BF014689
:1006F0000020B1FA81F308BF2033A3F10B03B3F15B
:1007000020020CDA0C3208DD02F1140CC2F10C02EA
:1007100001FA0CF021FA02F10CE002F11402D8BF48
:10072000C2F1200C01FA02F120FA0CFCDCBF41EA14
:100730000C019040E41AA2BF01EB0451294330BDE3
:100740006FEA04041F3C1CDA0C340EDC04F11404C0
:10075000C4F1200220FA04F001FA02F340EA030097
:1007600021FA04F345EA030130BDC4F10C04C4F1DD
:10077000200220FA02F001FA04F340EA03002946BD
:1007800030BD21FA04F0294630BD94F0000F83F407
:10079000801306BF81F480110134013D4EE77FEAEA
:1007A000645C18BF7FEA655C29D094EA050F08BF36
:1007B00090EA020F05D054EA000C04BF1946104617
:1007C00030BD91EA030F1EBF0021002030BD5FEA5B
:1007D000545C05D14000494128BF41F0004130BD83
:1007E00014F580043CBF01F5801130BD01F00045D7
:1007F00045F0FE4141F470014FF0000030BD7FEA4A
:10080000645C1ABF194610467FEA655C1CBF0B4644
:10081000024650EA013406BF52EA033591EA030F5B
:1008200041F4002130BD00BF90F0000F04BF002153
:10083000704730B54FF4806404F132044FF0000586
:100840004FF0000150E700BF90F0000F04BF0021FF
:10085000704730B54FF4806404F1320410F0004565
:1008600048BF40424FF000013EE700BF42004FEA60
:10087000E2014FEA31014FEA02701FBF12F07F43DD
:1008800093F07F4F81F06051704732F07F4208BF94
:10089000704793F07F4F04BF41F40021704730B59B
:1008A0004FF4607401F0004521F000411CE700BFE7
:1008B00050EA010208BF704730B54FF000050AE06A
:1008C00050EA010208BF704730B511F0004502D56B
:1008D000404261EB41014FF4806404F132045FEA6D
:1008E000915C3FF4D8AE4FF003025FEADC0C18BF16
:1008F00003325FEADC0C18BF033202EBDC02C2F108
:10090000200300FA03FC20FA02F001FA03FE40EA99
:100910000E0021FA02F11444BDE600BF4FEA410285
:10092000B2F1E04324BFB3F5001CDCF1FE5C0DD94D
:1009300001F0004C4FEAC0024CEA5070B2F1004F97
:1009400040EB830008BF20F00100704711F0804F9A
:1009500021D113F13872BCBF01F00040704741F45F
:1009600080114FEA5252C2F11802C2F1200C10FA63
:100970000CF320FA02F018BF40F001004FEAC12347
:100980004FEAD32303FA0CFC40EA0C0023FA02F3EB
:100990004FEA4303CCE77FEA625307D150EA0133C1
:1009A0001EBF4FF0FE4040F44000704701F0004091
:1009B00040F0FE4040F40000704700BF53B94AB910
:1009C000002908BF00281CBF4FF0FF314FF0FF3057
:1009D00000F070B9ADF1080C6DE904CE00F006F836
:1009E000DDF804E0DDE9022304B070472DE9F047AB
:1009F000089E0D4604460F46002B4AD18A42944673
:100A000065D9B2FA82F343B102FA03FCC3F12002C2
:100A10009F4020FA02F217439C404FEA1C4E1FFAF7
:100A20008CF5B7FBFEF1220C0EFB117742EA074270
:100A300001FB05F090420AD91CEB020201F1FF37DD
:100A400080F01C81904240F2198102396244121AEE
:100A5000A4B2B2FBFEF00EFB102244EA024400FBFB
:100A600005F5A5420AD91CEB040400F1FF3280F021
:100A70000781A54240F204816444023840EA014003
:100A8000641B00211EB1DC400023C6E90043BDE821
:100A9000F0878B4208D9002E00F0ED800021C6E9D6
:100AA00000050846BDE8F087B3FA83F1002949D173
:100AB000AB4202D3824200F2F880841A65EB030253
:100AC00001201746002EE2D0C6E90047DFE702B951
:100AD000FFDEB2FA82F3002B40F090808A1A4FEAD0
:100AE0001C471FFA8CFE0121B2FBF7F507FB15200E
:100AF000220C42EA00420EFB05F0904208D91CEBA2
:100B0000020205F1FF3802D2904200F2CB80454646
:100B1000121AA4B2B2FBF7F007FB102244EA024417
:100B20000EFB00FEA64508D91CEB040400F1FF32C1
:100B300002D2A64500F2BB801046A4EB0E0440EAA8
:100B400005409FE7C1F120078B4022FA07FC4CEAE1
:100B5000030C05FA01F420FA07F3FD404FEA1C49A3
:100B60002343B5FBF9F81FFA8CFE09FB18551C0C42
:100B700044EA054408FB0EF5A54202FA01F200FA28
:100B800001F00BD91CEB040408F1FF3A80F08880D7
:100B9000A54240F28580A8F102086444641B9DB21E
:100BA000B4FBF9F309FB134445EA044403FB0EFECE
:100BB000A64508D91CEB040403F1FF356CD2A64509
:100BC0006AD9023B644443EA0843A3FB0295A4EBC1
:100BD0000E04AC42C846AE4656D353D056B1B0EB25
:100BE000080264EB0E0404FA07F7CA40CC4017432E
:100BF000C6E9007418460021BDE8F087C3F1200162
:100C000002FA03FC20FA01F225FA01F19D402A4381
:100C10004FEA1C471FFA8CFEB1FBF7F007FB1015DB
:100C2000110C41EA054100FB0EF58D4204FA03F474
:100C300008D91CEB010100F1FF382FD28D422DD9CC
:100C400002386144491B92B2B1FBF7F507FB15115D
:100C500042EA014205FB0EF1914208D91CEB020267
:100C600005F1FF3816D2914214D9023D6244521A5E
:100C700045EA004138E73146304608E73946E6E6BE
:100C80001046FBE64845A9D2B9EB020865EB0C0E0D
:100C9000013BA3E74546EAE72B4694E74046D1E708
:100CA000D0467BE7023D624432E708460AE76444E7
:100CB000023842E7704700BFDFF834D0002103E07C
:100CC0000C4B5B58435004310B480C4B42189A4272
:100CD000F6D30B4A02E0002342F8043B094B9A4248
:100CE000F9D309F045FA2AF0F1FA00F0F1FB704768
:100CF00000000320E40A160800000020680100201C
:100D000068010020DC390120FEE700002DE9F041F8
:100D10002DED028B88B000AF05460E4601F05AF863
:100D20000446002800F0898004229FED457A33466E
:100D300012FB0062D3ED007A77EEC77AE3EC017A1A
:100D40009A42F7D123B2DB00ADEB030D07EE904AD8
:100D5000E846A1B207F10800F8EEE78A28F00AF8A1
:100D60000023314607F108004246C4F3470628F045
:100D700085F832464146404628F0EEFC3B463A1D97
:100D80003146404627F08EFFD7ED007AB8EE678AED
:100D900001F022F807EE900AF8EE677A9FED297AC3
:100DA00067EE887A87EEA88AB4EEC78AF1EE10FA69
:100DB00017D8DFED257AB4EEE78AF1EE10FA28DBDA
:100DC00001F00AF8322304FB03F3B3FBF0F008EB65
:100DD0008000D0ED007A77EEA77A012387EEA87A1B
:100DE0000BE0DFED1A7AB4EEE78AF1EE10FA1CD9C7
:100DF00000F0F2FF9FED167A00232846203785ED9C
:100E0000008A85ED017A2B72BD46BDEC028BBDE8F0
:100E1000F081DFED0E7AB4EEE78AF1EE10FAE7D852
:100E2000B4EE478AF1EE10FAE2D100F0D5FFC4EB40
:100E300004139B00B3FBF0F0C9E7034684E700BF4F
:100E400000F0FF4400005C42000034420000824297
:100E5000000000002DE9F04F2DED048BA7B000AF8E
:100E6000786000F0B7FF03B29B00073323F007035D
:100E7000ADEB030D6A46ADEB030D08EE102A6A4692
:100E8000ADEB030D08EE902A6A46ADEB030D6B4601
:100E900009EE903A07F13C033B6107F128037B61BF
:100EA00007F15003FB6009EE102A07F16403824644
:100EB000BB6000F061FF0546BAF1000F3ED018EEAE
:100EC000109A18EE908A19EE106A19EE90BA002462
:100ED00000F07EFF04FB00F005EB8003D3ED007A09
:100EE000F8EE677AE9EC017A00F072FF04FB00F09B
:100EF000013005EB8003D3ED007AF8EE677AE8EC79
:100F0000017A00F065FF04FB00F0023005EB80037E
:100F1000D3ED007AF8EE677AE6EC017A00F058FF3C
:100F200004FB00F0033005EB8003D3ED007A0134BD
:100F3000F8EE677AA245EBEC017AC9D118EE101AE7
:100F400007F11C00FFF7E2FE7C693B6A44F8043BB2
:100F500018EE901A07F11C007C61FFF7D7FE3A6982
:100F60003B6A42F8043B19EE101A07F11C003A6183
:100F7000FFF7CCFEFA683B6A42F8043B19EE901A80
:100F800007F11C00FA60FFF7C1FEBA683B6A42F83D
:100F9000043B07F13C039C42BA608AD107F1280068
:100FA00007F17802052127F049FE07F1800207F1D9
:100FB0003C00052127F042FE07F1880207F15000AE
:100FC000052127F03BFE07F1780407F1900207F1B5
:100FD0006400052127F032FE0FCC7E6835460FC530
:100FE00094E80F009C3785E80F003046BD46BDEC05
:100FF000048BBDE8F08F00BF90ED026AD0ED017A5E
:1010000090ED005A91ED027AD1ED004A91ED014A3E
:1010100066EE066A77EEC65A65EE244A66EE876A81
:1010200027EE467AE5EEA46AA7EE847A67EEA73A41
:1010300077EE864AE4EE636A67EE867A35EE646A96
:1010400027EE277AE5EE067AA5EE267A65EEA75A10
:10105000C7EE257AC2ED007AD0ED017A91ED013A22
:1010600091ED007AD0ED026AD1ED025AD0ED004A3E
:1010700067EEA72A33EE476A26EEA65A37EE657A60
:1010800026EE226A77EEA63AA7EE056A27EEA64A72
:1010900024EEA47A74EEE33A25EE225AA4EEA34A93
:1010A00075EEC35A27EE067A77EEE67AA5EE257A34
:1010B00067EE847AC7EE276AC3ED006AD1ED007A45
:1010C00091ED024A90ED026AD1ED016A90ED017A4C
:1010D000009B74EE675A77EEE64A65EE865AD0EDCD
:1010E000007AE7EE245A27EE065A77EE064A76EEA5
:1010F000C46A77EEE44A66EE856AA7EEA45AE7EE84
:10110000A56A67EE877A37EE467A67EE867A27EE2B
:10111000057A67EEA67AC7EE876AC3ED006A704764
:1011200030B5374B2DED028B93E8070097B00DF1EA
:101130001C0E8EE8070003F10C0207CA0DF1280C03
:101140008CE8070003F1180207CA0DAC12AB00933C
:1011500015AD84E8070011AB6046714610AAFFF791
:101160004BFF14AB13AA20460095FFF745FF9DEDFA
:10117000117ADDED147ADDED156A9DED106A87EECA
:10118000008AC7EEA08A20EE000A60EEA00ADDED1C
:10119000127A87EE807AC6EEA07ADDED136A38EE19
:1011A000068A78EEA68A38EE078A78EEA78A78EE65
:1011B000C87A17EE900AFFF759FB0FA3D3E9002373
:1011C000FFF7C6F8FFF7AAFB00EE100A28F0DAFED8
:1011D00038EE281ADFED0B1AB6EE007A60EE211A0F
:1011E00021EE071AF0EE680AB0EE480A17B0BDEC1F
:1011F000028B30BDAFF300804A1BEFA866FD993F1C
:10120000DCBD0208E02E65422DE9F04F2DED048B88
:1012100093B000AF054600F0DDFD03B29B0007333D
:1012200023F00703ADEB030DE946ADEB030DE846F4
:10123000ADEB030D6E46ADEB030DEB4608EE109AD9
:1012400008EE908A09EE106A09EE90BAB8B38246A9
:10125000002400F0BDFD04FB00F005EB8003D3ED9E
:10126000007AF8EE677AE9EC017A00F0B1FD04FB50
:1012700000F0013005EB8003D3ED007AF8EE677AD9
:10128000E8EC017A00F0A4FD04FB00F0023005EB6D
:101290008003D3ED007AF8EE677AE6EC017A00F08D
:1012A00097FD04FB00F0033005EB8003D3ED007ADB
:1012B0000134F8EE677AA245EBEC017AC9D118EE59
:1012C000101A07F11C00FFF721FD97ED080A97EDB2
:1012D000078A87ED000A18EE901A07F11C00FFF745
:1012E00015FDD7ED080AD7ED078AC7ED010A19EEFB
:1012F000101A07F11C00FFF709FD07F11C0019EE99
:10130000901AFFF703FDD7ED010A97ED000AFFF7EA
:1013100007FF38EE288AB0EE410AB6EE001AF0EE6A
:10132000610A28EE011ADFED041A4C37BD46BDEC08
:10133000048BBDE8F08F00BF0000000008B56420FA
:101340000CF028FBFBE700BF80B5104CDFF84880AD
:101350000F4F104E206800231A462146451ED8F82C
:10136000000025600CF012FC22683C233846202146
:1013700012B9236009F014F930464FF4005109F016
:1013800013F94FF47A700CF005FBE3E70C00002032
:1013900000100240001802408C010020014B186828
:1013A000704700BF0C000020F0B583B01F4E204DE9
:1013B000204C00270097336B43F004033363336BF7
:1013C00003F004030093009B2B6823F00C032B60B5
:1013D0002B6843F004032B60AB6943F40033AB612B
:1013E0000A2008F0FFFE2B6843F00C032B600197E6
:1013F000336B43F020033363336B03F0200301931B
:10140000019BA36823F44033A360636A23F00F03B6
:101410006362E36823F44033E3600A2008F0E2FEED
:10142000236843F44033236003B0F0BD003802402A
:10143000000802400014024030B5002495B0CDE908
:101440000A44CDE90C44CDE90344CDE905441E4AE4
:1014500001940794116C1D4B41F080511164126C82
:1014600002F080520192019A02941A6842F44042BA
:101470001A601B6803F44043029301224FF4803347
:10148000CDE908230823022510934FF480024FF47E
:10149000A873CDE90E5211930222042308A8CDE9C6
:1014A000122302990AF0BAFE0F23CDE903354FF457
:1014B000A0524FF4805303A80521CDE905420793BC
:1014C0000BF0C4F815B030BD003802400070004089
:1014D0002DE9804800249BB008F058FEFFF7ACFFD0
:1014E000FFF762FFCDE90D44CDE90F44BE4B0094F8
:1014F0001194196BBD48BE4D41F010011963196B71
:1015000001F01001009100990194196B41F0200144
:101510001963196B01F02001019101990294196B73
:1015200041F080011963196B01F080010291029969
:101530000394196B41F004011963196B01F0040164
:10154000039103990494196B41F001011963196B1C
:1015500001F00101049104990594196B41F0020115
:101560001963196B01F00201059105990694196B35
:1015700041F040011963196B01F040010691069991
:101580000794196B41F0080119631B6B03F0080302
:10159000224607931421079B09F002F89348202163
:1015A000012208F0FDFF93482246142108F0F8FFBD
:1015B00091482246802108F0F3FF904822464FF4DC
:1015C000805108F0EDFF8E4822464FF4405108F05C
:1015D000E7FF8C482246042108F0E2FF01228948F7
:1015E0004FF4005108F0DCFF01264FF003091423EB
:1015F0007E480DA94FF00808CDE90D36CDE90F4919
:1016000008F08AFE4FF4881378480E930DA9CDF8A0
:1016100034800F9408F080FE202374480D930DA9A8
:1016200002274FF0040BCDE90E64109408F074FE0D
:101630007048CDF834B00DA9CDE90E64109708F0CC
:101640006BFE80236C480D930DA94FF0100ACDE975
:101650000E64109408F060FE664810940DA9CDE960
:101660000E64CDF834A008F057FE4FF48053634861
:101670000D930DA9CDE90E64109408F04DFE4FF4C2
:1016800040535F480D930DA9CDE90E64109708F003
:1016900043FE42F204035B480D930DA9CDE90E64AD
:1016A000109408F039FE4FF4004353480D930DA9F0
:1016B0000F231193CDE90E74109408F02DFE2246ED
:1016C0000521092008F0B2FD092008F0EDFD4E4883
:1016D0004E4B036008F0F6FD4D494E4B2846C5E9D8
:1016E00000134FF480432B61C5E90244C5E905446A
:1016F000C5E9074409F0BAF9514628460AF082FBC9
:10170000214628460AF09EFBDFF818C14248434DA7
:1017100084624FF48273C0E900C34FF4007E182343
:10172000C0E906E30A23C362C0E90244C0E90444F5
:10173000C0E908440BF078FA07230E931093384B56
:101740002B6040204FF4C073C5E905034FF40063DC
:101750002B620DA94FF400532846AB62C5E9016422
:10176000C5E903BAEC616C62CDF83CB0CDE91197E4
:101770000D9713970BF066F94FF6FF7209A92846EB
:10178000CDE90968CDE90B6408940BF07DF930468A
:1017900008F028FD4FF6FF7209A92846CDE90B6431
:1017A000CDE909780BF070F94FF6FF7209A92846C8
:1017B000CDE90BB4CDE909980BF066F94FF40C7341
:1017C0000893089B0C934FF6FF7209A92846CDE9B0
:1017D00009B80B960BF058F9284640F26A510BF005
:1017E00071F9342220E000BF0038024000100240AE
:1017F000A001002000080240000002400004024056
:10180000000C024000180240980100200030024005
:10181000005C0040A0860100D00200209C02002055
:10182000400100A0005001403A4D21460DEB02005E
:1018300029F04DFC384B2B6009236B611D23EB61B4
:1018400040F20D1B40F24313C5E909B340F21712F1
:1018500040F24713AC862846C5E90B23AE61C5E9C3
:101860000144C5E90344C5F8209085F836400AF0E4
:101870000DFBF0230E9317934FF4A073109318935E
:10188000FF230DA92246284612934FF480660523B4
:10189000224D0D94CDE914630F941197139416946F
:1018A000ADF864408DF866400AF0C6FB1C4B2B6017
:1018B0001B6898472B68DB68984700F0E9FD00F04B
:1018C000E5FDFFF771FD00F045F900F077F90BF049
:1018D000E9FF144A394650460CF01EF9124B134AE0
:1018E0001860214612480CF009F8124B124A186091
:1018F000214612480CF002F8114B124A05462146C7
:1019000011481D600BF0FAFF104B18600BF0DCFF64
:10191000FEE700BFF40100200068014088010020BC
:101920001800002098BE02088C010020D4BE0208D6
:101930003D1300089401002074BE0208A124000891
:1019400084010020B0BE0208491300089001002065
:10195000704700BF704700BF10B5094C86B02468BF
:101960000294144601238DF817400DF117040A461E
:10197000019301460094034809F040F906B010BDF8
:1019800004000020A001002000B50B4B87B01B68AD
:10199000029384460A4601230DF117010020CDE988
:1019A00000138DF817006146044809F019FA9DF8F4
:1019B000170007B05DF804FB04000020A001002020
:1019C00010B5094C84B0844620680290CDE900230C
:1019D00006480A460123614609F002FA003818BF9A
:1019E000012004B010BD00BF04000020A0010020B1
:1019F00008F0F8BB08B506480022042108F0D0FD25
:101A0000BDE8084002480122042108F0C9BD00BF1A
:101A10000008024030B5104D83B0044601220F4843
:101A20004FF4005108F0BCFD28460022042108F0C4
:101A3000B7FD0B4B0B481B68ADF806400DF10601D6
:101A400001220BF053F901220421284603B0BDE81E
:101A5000304008F0A5BD00BF00080240000C024065
:101A600008000020D002002030B5104D83B004469D
:101A700000220F484FF4005108F092FD2846002242
:101A8000042108F08DFD0B4B0B481B68ADF8064098
:101A90000DF1060101220BF029F90122042128464B
:101AA00003B0BDE8304008F07BBD00BF0008024035
:101AB000000C024008000020D00200202DE9F04375
:101AC000194E1A4FDFF86890DFF8688083B00C4633
:101AD000054600223046042108F062FD3846002207
:101AE0004FF4005108F05CFDD9F80030ADF8045017
:101AF00001A9012240460BF0F9F8D9F8003022463E
:101B000001A940460BF09AFB384601224FF40051E0
:101B1000019C08F045FD30460122042108F040FDFB
:101B2000204603B0BDE8F08300080240000C0240EC
:101B300008000020D002002008F054BB034B0268CC
:101B40009A4200D0704708F03BBB00BF0010004035
:101B5000704700BF10B483B0154B164900240094A1
:101B60001A6B42F020021A631A6B02F020020092F4
:101B7000009A0868104A40F440500860086840F431
:101B8000403008600194196B41F0040119631B6B2C
:101B900003F004030193019B136843F0C003136037
:101BA000136843F00C03136003B05DF8044B7047F7
:101BB00000380240001402400008024010B483B014
:101BC0000E4A00200190116C41F001011164126C69
:101BD0004FF0804302F00102019243F244310922A6
:101BE000019C9962DA625A68054942F020025A6003
:101BF00081F81C0303B05DF8044B704700380240C5
:101C000000E100E010B483B0364A374B374C002176
:101C10000091506C40F480605064506C00F480601F
:101C200000900098D86A40F44010D862586B40F099
:101C300004005863586B40F4D0705863586B40F4FC
:101C4000C0505863586B40F4B0205863586840F453
:101C500080705860986840F080509860986840F0B4
:101C6000C0609860986840F4807098600191106B33
:101C700040F480001063126B02F48002019203F5BD
:101C8000A133019A84F839139A6A22F001029A6208
:101C90009A6AD207FCD49A681548164942F4006241
:101CA0009A609A6A42F080629A629A6A42F480323A
:101CB0009A629A6A42F480429A629A6A42F4805224
:101CC0009A629A6A42F480629A629A6A4FF48074C5
:101CD00042F010029A62DC621863596303B05DF847
:101CE000044B7047003802400022014000E100E050
:101CF0004C220140280300201B4B1A68110500D418
:101D000070471A4A4FF00071C2F88410BFF34F8F2A
:101D1000BFF36F8FC2F884119A6A22F001029A62AF
:101D20009A6AD207FCD499684FF0804241F400616E
:101D3000996013680E4923F00103136088680D4B06
:101D400020F001008860886820F480708860596AFB
:101D500041F480715962596A21F4807159621368A3
:101D600023F00103136070470064024000E100E0CB
:101D7000002201400038024010B54FF4806200217B
:101D80000F4829F0A4F9FFF73DFF0E4A0E49936A68
:101D90000E484FF0007443F001039362C1F8844190
:101DA0004C6083684FF0804143F0010383600B680F
:101DB00043F001030B60936ADB07FCD4004810BDBD
:101DC000280300200064024000E100E000220140FE
:101DD00004207047402070474FF42070704700BFC8
:101DE00082B00E4B00220092596C41F4804159643C
:101DF000586C00F48040009000980192186C40F0FC
:101E0000805018641B6C03F080530193019B0F21D9
:101E10006FF0010002B008F009BA00BF00380240BC
:101E20000B4B02689A4200D0704782B000220192A8
:101E3000D3F8302842F48052C3F8302803F5006309
:101E40001B6B03F480530193019B02B0704700BFEA
:101E5000003002402DE970432E4B02688AB0002406
:101E60009A42CDE90444CDE90644089402D00AB070
:101E7000BDE87083284D01942B6B284843F0040380
:101E80002B632B6B03F004030193019B02942B6BD8
:101E900043F001032B632B6B03F0010302934FF418
:101EA00000724FF001084FF00309042604A9122321
:101EB000CDE90423CDE90689029B089608F02CFAA7
:101EC00004A94FF48072122315480896CDE9042323
:101ED000CDE9068908F020FA03942B6C43F4000343
:101EE0002B642B6C03F40003224605210393482046
:101EF000039B08F09BF9482008F0D6F92B6A43F4BD
:101F000000032B622B6A23F400032B620AB0BDE8A6
:101F1000708300BF005C00400038024000080240AF
:101F2000000002402DE9F04104469AB00021302221
:101F30000EA8CDE90811CDE90A110C9129F0C7F8D6
:101F4000674B22689A4202D01AB0BDE8F081C023E4
:101F50000821042212930EA84FF400330E9114921C
:101F600017930AF043FC002840F0B7805D4B5E48B1
:101F7000002401945A6C42F080625A645A6C02F058
:101F800080620192019A02941A6B42F020021A6355
:101F90001A6B02F020020292029A03941A6B42F02A
:101FA00001021A631A6B02F001020392039A04946D
:101FB0001A6B42F002021A631A6B02F002020492D8
:101FC000049A05941A6B42F040021A631A6B02F0ED
:101FD00040020592059A06941A6B42F004021A63B5
:101FE0001A6B02F004020692069A07941A6B42F0EA
:101FF00008021A631B6B03F00803002602270E2554
:10200000079308A94FF480620223CDE90823CDE9A4
:102010000A67079B0C9508F07FF908A941F658025A
:10202000022332480C95CDE908234FF00908CDE989
:102030000A6708F071F908A9032202232C48CDF899
:102040003080CDE90823CDE90A6708F065F908A9D1
:102050004FF47062022326480C95CDE90823CDE9A0
:102060000A6708F059F908A94FF40C6202232148C5
:102070000C95CDE90823CDE90A6708F04DF908A9C8
:10208000C02202231C480C95CDE90823CDE90A673C
:1020900008F042F908A90822022318480C95CDE956
:1020A0000823CDE90A6708F037F9022308A94FF49D
:1020B000A0521048CDF83080CDE90823CDE90A6759
:1020C00008F02AF922460521582008F0AFF85820D8
:1020D00008F0EAF81AB0BDE8F081FFF739FD45E7EE
:1020E0000068014000380240001402400000024035
:1020F000000402400018024000080240000C0240A8
:1021000010B51B4A016888B000239142CDE9023323
:10211000CDE90433069301D008B010BD02F5684242
:102120000093506C40F480105064506C00F48010A8
:10213000009000980193136B0E4843F02003136343
:10214000136B9FED097B03F020030193032205230A
:1021500002A98DED027BCDE90523019C08F0DCF896
:1021600008B010BDAFF30080800300000200000043
:10217000005001400014024000B5214A0368934218
:1021800085B008D0B3F1804F23D01E4A934211D0BE
:1021900005B05DF804FB1C4B002201925A6C42F022
:1021A00001025A645B6C03F001030193019B05B0CB
:1021B0005DF804FB144B002203921A6C42F00202F9
:1021C0001A641B6C03F002030393039B05B05DF8D4
:1021D00004FB03F50E3300220292196C41F0010159
:1021E00019641B6C03F0010302931C200521029B60
:1021F00008F01CF81C2005B05DF804EB08F054B89A
:10220000000001400004004000380240F0B52B4BB4
:1022100089B01C6800220492002C4CD10127284A66
:1022200001941F60936B27483B439363936B3B4040
:1022300003260C254FF63F02019302A90223CDE9A4
:102240000223CDE90565019B08F066F81E48029758
:1022500002A90227CDE90374CDE9056508F05CF811
:1022600048F233131948029302A9CDE90374CDE96A
:10227000056508F051F84FF683731548029302A9DB
:10228000CDE90374CDE9056508F046F84CF2037317
:102290001048029302A9CDE90374CDE9056508F061
:1022A0003BF860230C48039702A9CDE90446069544
:1022B000029308F031F809B0F0BD00BF28070020F4
:1022C000003802400014024000080240001802409A
:1022D00000100240000C02400004024070B588B0BB
:1022E000234B002202921A6C42F010021A641B6CFB
:1022F00003F010030293054601A903A8029B0AF00C
:1023000053FA069BD3B90AF03FFA0346194A1A4C0E
:102310001A49A2FB03239B0C013B0022C4E90013D2
:10232000204640F2E7332261A260A261E3600BF035
:102330006BF8064630B1304608B070BD0AF024FA9A
:102340004300E3E720460BF0EDF806460028F2D103
:10235000362007F0A9FF0F2D01D90126EBE7324601
:102360002946362007F062FF054B1D60E3E700BFFA
:102370000038024083DE1B432C0700200010004081
:1023800080000020704700BFFEE700BFFEE700BFEF
:10239000FEE700BFFEE700BF704700BF08B5C820DA
:1023A00007F020FF04480022202108F0F9F8BDE8DA
:1023B0000840082008F004B90010024001480BF062
:1023C000F5B800BF2C070020014809F059B800BF3C
:1023D000A0010020014809F0CDBD00BFF40100209C
:1023E0000120704708B528F06BFF162303604FF0FB
:1023F000FF3008BD08B528F063FF16230360FEE731
:1024000070B5161E07DD0C468D19AFF3008004F879
:10241000010BA542F9D1304670BD00BF70B5161E44
:1024200007DD0C468D1914F8010BAFF30080AC42A8
:10243000F9D1304670BD00BF4FF0FF30704700BF8C
:102440004FF400534B600020704700BF01207047DD
:10245000002070470B4A08B50346106828B10344B2
:1024600069468B4207D8136008BD074810600344D3
:1024700069468B42F7D928F023FF0C2303604FF005
:10248000FF3008BD74070020E0390120704700BF0D
:1024900008B500F0A9FBBDE8084000F033BB00BF61
:1024A00000F0A4BB704710B50421044627F023FDBB
:1024B000204610BD38B50C4B0C4C18800C4B8220BC
:1024C00019806368984740F6110398420AD1094D74
:1024D00023682C60822098472B688220DB6898470D
:1024E000002038BD0120FCE77807002050000020C4
:1024F0007A0700207C0700204FF4A071F020FFF73E
:10250000D9BF0000F7B5334D2B6804461B69822004
:10251000984780B2208000284AD02B680DF106022F
:102520005B6901A982209847BDF8063040F67462C5
:1025300093423FD9ADF80620BDF80630D21A92B2C8
:102540000A2A3DD90B23B2FBF3F2234B1B889A4294
:1025500001D9013B9AB2BDF8043040F6B8318B4244
:1025600030D8C3F571630E339BB20F21B3FBF1F387
:102570001A4909888B4201D901398BB2184E194D7D
:1025800030682F68834281B28CBF591AC91AB8B219
:10259000BA428CBF101A801A89B280B20144052950
:1025A000C8BF33603368C8BF2A6063802B68A380CC
:1025B00003B0F0BDB32B9CBFB423ADF80630BBE72E
:1025C0000022C8E7C3F56D6308339BB20E2BCCD84D
:1025D0000023D3E77C0700207A070020780700203B
:1025E000800700208407002037B568460D46144652
:1025F000FFF788FFBDF8000048B1BDF802302B603E
:10260000BDF804302360034B3C221A60012003B064
:1026100030BD00BF0C00002010B1022809D0704767
:10262000074B1A68B2FA82F252090421054807F0F2
:10263000B7BF034B9A68B2FA82F252091021F5E74C
:10264000880700200010024010B1022809D070470E
:10265000074B1A68003A18BF01220421054807F009
:102660009FBF034B9A68003A18BF01221021F5E77B
:10267000880700200010024010B1022804D07047E3
:102680000421024807F090BF1021FAE70010024031
:1026900008B530B1022809D00020431E58425841E5
:1026A00008BD0421024807F075FFF6E71021F9E79D
:1026B0000010024070B5084D00240126E0B2FFF77B
:1026C000E7FF18B12B68012B18BF2E600134052CD1
:1026D00005F10405F2D170BD88070020012380F8C0
:1026E000781080F87930704700207047034B4164C0
:1026F000003918BF01211970704700BFA32D0120B8
:1027000000207047836B0BB10846184770474FF69F
:10271000FF707047406803689B69184770477047AF
:102720007047000010B5044600F04CFB23680349D5
:10273000D3F88C302046BDE810401847000000D088
:1027400008B503680446D3F88030984723682046CC
:102750009B6F984700F0ECF8236820461B6F984762
:102760002920FFF781F900F0E3F8236820461B6F6A
:102770009847F8E710B504460FF0A4F82368204600
:10278000D3F8AC30BDE81040184700F00DBB00F0A6
:1027900011BB00F035BB00F0DDBA00F0E3BA00F089
:1027A0003BBB00F0E7BA0EF0F9BA10B57C21044645
:1027B00027F0A1FB204610BD90F87A301BB140688D
:1027C00003681B68184718467047000010B590F85A
:1027D000341090F878400C4B8C421A7809D03AB9F2
:1027E0000A4A0B491488088810800C8001221A704C
:1027F00010BD002AFCD0054A0549148808881080BD
:102800000C800022F3E700BF9C2D0120982D0120B1
:102810009A2D012070B50D46194635B9094B0A4A63
:102820000A4840F2D22128F04DFAC0E90F52084B75
:10283000003A18BF01221A700368BDE87040D3F84F
:102840008C30184710BF020848BF020896BF020824
:10285000A22D012008B5094B1B888B4203D8084BD9
:102860001B88934205D9074B074A08489E2128F048
:1028700029FA074B1980074B1A8008BD982D0120B3
:102880009A2D0120DBBF02083EC0020896BF020855
:102890009E2D0120A02D0120012108B5002208460F
:1028A0000BF086F80A4B186028B90A4B0A4A28210F
:1028B0000A4828F007FA0022042101200BF02CF925
:1028C000074B186018B9074B034A2C21F0E708BDE5
:1028D0009C0700205CC10208A5C10208D4C10208FF
:1028E0009807002064C20208024B4FF0FF311868BD
:1028F0000BF0B2B89C070020014B18680BF0E0B851
:102900009C070020024B002118680BF0A5B800BFFF
:102910009C070020FFF7F0BF03480449006800232C
:102920001A460BF033B900BF9807002010000020B2
:1029300013B5084C00231A4601A920680BF05CF976
:1029400020684FF0FF33002201A90BF055F902B0C7
:1029500010BD00BF980700207047002070477047E7
:10296000704700207047704708B5034A034B04487E
:10297000222128F0A7F900BFC9C20208A6C2020896
:1029800007C3020808B5034A034B0448272128F06F
:1029900099F900BF95C30208A6C2020807C302083E
:1029A00010B54421044627F0A6FA204610BD0000C9
:1029B00038B5044621460025064B25720C30606070
:1029C0006572012241F8203B0FF0D4F8E562204601
:1029D00038BD00BFDCC302080120704738207047B3
:1029E000382303FB010008307047382303FB010044
:1029F000083070470120704741F2F830704741F2CB
:102A0000F83303FB01000830704741F2F83303FB51
:102A1000010008307047012070471020704700EB1C
:102A200001100830704700EB01100830704708466D
:102A300001F0A4BF10B5034B036004460DF037FD51
:102A4000204610BD94C4020810B50446FFF7F2FFFB
:102A50002046402127F04FFA204610BD10B5034B09
:102A6000036004460DF023FD204610BD60C402083B
:102A700010B50446FFF7F2FF20464FF4A05127F0AF
:102A80003AFA204610BD000010B5034B036004461F
:102A90000DF00DFD204610BD2CC4020810B50446F3
:102AA000FFF7F2FF2046182127F025FA204610BD37
:102AB00010B5094B0360044600F5A1500C30FFF738
:102AC000B9FF04F12C00FFF7C9FF04F11400FFF770
:102AD000DBFF204610BD00BFC8C4020808B502488D
:102AE000FFF7E6FF08BD00BFA407002010B50446AD
:102AF000FFF7DEFF204641F2D05127F0FCF92046D7
:102B000010BD00002DE9F34100F05AFA054600F02F
:102B10005BFA00240146234628462246009416F01C
:102B20003DFD264B264A274D1A60204606F006FB3F
:102B3000254816F09BFC2B68BFF35B8FDB0737D46F
:102B4000284627F0DAF998B3204C214B236004F192
:102B5000140004F12C0800F5A35608F5A057606096
:102B6000C4F80880E76026610DF0A2FC194B636190
:102B700040460DF09DFC184BE36238460DF098FC82
:102B800004F58053154AC3F82C2403F26C4006F078
:102B9000AFFF2246A6F10801304606F09FFC304602
:102BA00001F0ECFE0E4828F0ABF8284627F0B1F90A
:102BB0000C4802B0BDE8F041FFF7B4BD082E01207B
:102BC000381E0020A007002014000020A4070020C9
:102BD000C8C402082CC4020860C4020894C40208D5
:102BE000DD2A0008BC1D0020704700000148FFF7E7
:102BF000A7BD00BFBC1D002070B5224E224C234D46
:102C0000234B23603046FFF7D3FE28461AF092FF8D
:102C1000204B2148DC6000224FF48071C3E912127E
:102C20001E491A86C3E91A121D4999671D4983F87E
:102C300058200B60F02101801B485A6601801B4818
:102C400083F870204FF4A071C3E90422C3E906227F
:102C5000C3E90822C3E90A22C3E90E22C3E910220C
:102C6000C3E91422C3E917225A67C3E90165018049
:102C70000F4801800F490A70012283F834200E4A60
:102C80001A6070BD781D0020741D00203C1E0020BD
:102C900000BF0208BC1D0020982D0120010000018A
:102CA00000000101A42D01209E2D01209A2D01205C
:102CB000A02D01209C2D01208CC00208002070470F
:102CC00081807047C18070470181704741817047A2
:102CD0007047704770477047704710B4C4880368E6
:102CE000121B84885B6D091B12B25DF8044B09B29C
:102CF00018474FF6FF7383814FF0FF330362136869
:102D0000C3611060704790F825201AB190F8242014
:102D100002B118607047002070478B8883800120C3
:102D20007047704780F82610704790F8260070476B
:102D300010B50022B1F90840B1F90A1002804280B2
:102D40008480C18010BD0022028042808280C280C7
:102D500070470000024B902283F85823704700BF51
:102D600000E100E0024B4FF080729A60704700BFB4
:102D700000E100E0094A0A49D3680A48C3F30A039C
:102D8000013B9BB20B801169C1F30A01013901803B
:102D90001364536B43F001035363704700680140B1
:102DA000C21E0020C01E0020014BD3F8AC007047AB
:102DB00000680140024B0122C3F8AC105A62704710
:102DC0000068014070B504460EF03DF823685D6E62
:102DD00012F0E6FF01462046A8472368054AD3F8CB
:102DE00088502046AC460023BDE87040A2F516315D
:102DF000604700BF00B004D00EF00CB80EF016B85B
:102E00000DF0D2BF0EF033B990F8252012B103684F
:102E10005B69184770470000044B4FF08072C3F89D
:102E20008820BFF34F8FBFF36F8F704700E100E042
:102E300070B50023124E8380124B0360336893F801
:102E4000582005460AB1D86C00B998680368DB6A57
:102E500098473368B0FA80F4D86C640930B10368DD
:102E6000DB6A9847002808BF44F001042CB9064BE0
:102E7000064A07482C2127F025FF284670BD00BFD1
:102E8000A42D0120D8C50208D4C4020832C5020806
:102E90006BC50208704700002DE9F041FF2BBDF81B
:102EA000184000EB410105D120F8024B8142FBD8CC
:102EB000BDE8F081174F04F4FC6604EA070C04F047
:102EC0001F0403FB0CFC5E435C43DB43DBB2FF25CA
:102ED000B0F800E00EEA07020EF4FC6803FB02C241
:102EE00003FB08680EF01F0EB2FBF5F2B8FBF5F815
:102EF0003A4008F4FC6842EA080203FB0E4EBEFBAF
:102F0000F5FE0EF01F0E42EA0E0220F8022B81425F
:102F1000DED8CDE700F8FFFF10B5144C236823B3CB
:102F2000134B144A1B6C11888B4213D1124B198816
:102F300009F052F9226892F86A30013382F86A3057
:102F4000FFF7EAFC20680EF0BDFCBDE81040002051
:102F5000FFF762BB09F040F9206803681B6A9847D5
:102F6000BDE810400020FFF76FBB10BDA42D01206D
:102F700000680140C21E0020C01E0020704710B52E
:102F80000421044626F0B7FF204610BD08B50329EA
:102F900013D8DFE801F002060A0E06F01BF90068FC
:102FA00008BD06F017F94068FAE706F013F98068E3
:102FB000F6E706F00FF9C068F2E70020F0E700003E
:102FC0000048704704C602080D20704713B500245E
:102FD00051B1036801948DF8034001AA9C680DF17A
:102FE0000303A04702B010BD0846FBE7C089704745
:102FF000008A7047C088704780887047807A00F0E8
:103000007F007047807AC0097047704770477047EB
:1030100070477047704730B50368018185B06D46D1
:103020000146D3F8843004462846984795E80700BF
:103030003C3484E8070005B030BD30B503684181F9
:1030400085B06D460146D3F884300446284698473B
:1030500095E807003C3484E8070005B030BD002245
:10306000028042808280C280704780F836107047AC
:1030700070B5036804461B6B1546984723682946BC
:1030800020465B6EBDE87040184700207047806C9A
:10309000704770477047704730B4C2684468551035
:1030A000034604EB6200D20748BF62599B6830BCFC
:1030B00048BFD358184743682BB183682BB9C06801
:1030C00000F001007047184670470120704710B5A6
:1030D0000821044626F00FFF204610BD10B54C21F4
:1030E000044626F008FF204610BD10B51021044606
:1030F00026F001FF204610BD10B5034B03600446C7
:1031000011F04CF9204610BD70C9020807B5074BF5
:103110000360019011F042F901984FF48A5126F0B2
:10312000EAFE019803B05DF804FB00BF70C9020815
:1031300008B5FFF769FE08BD036870B55E6B124BFA
:103140001B6804468DB22BB9104B114A6C211148F3
:1031500027F0B8FD1049828D0988914203D80F4BA2
:103160000B4A6D21F3E713F812200D4B1B6853F83F
:10317000220003681B6B9847281A01B23346204689
:10318000BDE87040184700BFFC2D012008C70208A9
:103190004AC7020885C70208002E0120CCC70208D2
:1031A000042E012038B500F51073994204460D46EF
:1031B00003D112F0F5FD01F0F1FB04F534739D42EB
:1031C00003D112F0EDFD01F0A9FC04F52274A54233
:1031D00005D112F0E5FDBDE8384001F0AFBC38BDC7
:1031E00000224FF0FF31C0E900218260704770B5C6
:1031F000036804461B6B15469847236829462046FA
:103200005B6BBDE87040184770B504461D46BDF9BC
:103210001060FFF7ECFF2368294620469B6B984718
:10322000236831462046DB6BBDE87040184700003C
:103230000022C0E90122C0E90322C0E90522C0E959
:1032400007224FF480728284014A0260704700BFF7
:1032500050C8020810B526220446002127F037FF87
:103260002046FFF7E5FF0A4B23600A4BA3624FF6A7
:10327000FF73A3854FF47F020023C4E90C324FF0A3
:10328000FF32C4E910232387E363204610BD00BF4B
:1032900088F10208B8C802081A4B73B51B88018F61
:1032A0008B4206462BD9184B1B682BB9174B184A73
:1032B00018486C2127F006FD13F81120164B1B68E7
:1032C00053F82250154B186805F074FF2B680190D5
:1032D0009B6B284698472B6801999B6C04462846AF
:1032E00098472B6801995B6A14FB00F428469847BD
:1032F000A4B223181BB2A6F8463002B070BD00235A
:10330000F9E700BF002E0120FC2D012008C70208AC
:103310004AC7020885C70208042E0120082E012092
:103320002DE9F04F2DED068B04468DB0A346002508
:1033300014F0B6F9664BE5634BF8403B262229466C
:10334000584627F0C4FE5846FFF772FF04F16C0A96
:10335000FF26604B236426224FF6FF73294684F82C
:1033600066605046A566ADF8283027F0B0FE50469E
:10337000FFF75EFF584BE366BDF82830A4F89230A3
:103380000AA9504604F1980984F894600FF0FFFFF1
:103390004846FFF75FFF04F1E407504BC4F898304C
:1033A000C4F8E05038460EF0BBFE04F5AA73184688
:1033B0000393FFF73DFD4A4BC4F8543104F5B4784C
:1033C0002433C4F85C31C4F860514046FFF742FF33
:1033D00004F5D873184608EE103AFFF73BFF04F5E2
:1033E000FC73184608EE903AFFF734FF04F51073AB
:1033F000184609EE103A10F00BF904F5227318463E
:1034000009EE903A10F004F904F5347318460AEE08
:10341000103A10F0FDF8334A04F58053C3E94C2408
:10342000314A4FF46161C3E94E2504F5487010F04C
:10343000ABFF4FF4A0732A46584600932946F02369
:10344000FFF7E2FE261D4FF07F43A3665946304644
:103450000DF00EFA2A4650462946FFF7C8FE09230A
:1034600050460AA9ADF828300FF091FF514630467A
:103470000DF0FEF94FF49A7259214846FFF7B7FE56
:10348000D4F89830A4F8CC500DF1100A4FF0FF3B5F
:103490005046D3F88430C4F8C8B0494698479AE8F3
:1034A000070004F1D40383E80700104B1B6804F500
:1034B000467A2BB90E4B0F4A60210F4827F002FCC9
:1034C0000E4B1B88242B1DD80D4B0A4A6121F4E7B3
:1034D00070C9020818F20208E0F30208C8C802081E
:1034E0004CEF020858C90208A5310008FC2D012044
:1034F00008C702080AC8020885C70208002E012072
:10350000CCC70208934B2421186805F053FE924A59
:1035100003460421504615F0B3FD4846C4F8E0A028
:103520000FF03AFB8D4B0A930AA925234846ADF8C4
:103530002C300FF051FB494630460DF099F90A2323
:1035400000933222F02329463846FFF75DFE039BA5
:10355000C4F80C31A02211463846C4F860B1A4F872
:1035600064B10EF0F3FEA0224FF4EB5138460EF09A
:10357000F8FED4F82031202B05D02023C4F82031C8
:1035800038460EF0EDFD384601210EF0F5FE3946C5
:10359000304604AD4FF0FF370DF06AF94FF0000AE6
:1035A0003C2240464621FFF722FE41462846C4F809
:1035B0009871A4F89CA10FF075F895E8070008F140
:1035C0003C0383E80700DFF89491CDF828901D2391
:1035D0000AA94046ADF82C300FF0FEFA41463046BD
:1035E0000DF046F918EE100A23224521FFF7FFFDE2
:1035F00018EE101A2846C4F8E071A4F8E4A10FF000
:1036000051F895E8070018EE103A3C3383E80700BC
:103610005A2318EE100A0AA9ADF82C30CDF82890DC
:103620000FF0DAFA18EE101A30460DF021F918EE04
:10363000900A0C223621FFF7DAFD18EE901A284680
:10364000C4F82872A4F82CA20FF02CF895E8070013
:1036500018EE903A3C3383E80700592318EE900A9D
:103660000AA9ADF82C30CDF828900FF0B5FA18EE75
:10367000901A30460DF0FCF819EE100AF0222121C4
:10368000FFF7B5FD4FF003090AAA4FF0020809A998
:1036900019EE100AADF82490ADF8288004F589558C
:1036A0000FF07FFC5823A4F87832103519EE100A79
:1036B000FFF7F2FD19EE101A3046C4E99F77C4F8FF
:1036C00068520DF0D5F819EE900AAA222121FFF7D1
:1036D0008EFD0AAA09A919EE900AADF82490ADF85A
:1036E00028800FF05EFC5723A4F8C03219EE900A30
:1036F000FFF7D2FD19EE901A3046C4E9B177C4F84D
:10370000B0520DF0B5F81AEE100A64222121FFF72D
:103710006EFD0AAA09A91AEE100AADF82490ADF8B8
:1037200028800FF03EFC56231AEE100AA4F8083346
:10373000FFF7B2FD3046C4E9C3771AEE101AC4F899
:10374000F8520DF095F820460DB0BDEC068BBDE8A3
:10375000F08F00BF082E012042C80208B8C8020836
:1037600070477047704730B4C268446855100346CC
:1037700004EB6200D20748BF62599B6830BC48BF67
:10378000D358184743682BB183682BB9C06800F041
:1037900001007047184670470120704710B510218E
:1037A000044626F0A8FB204610BD000010B5034BD0
:1037B0000360044610F0F2FD204610BDBCC90208AB
:1037C00007B5074B0360019010F0E8FD01984FF436
:1037D0008F5126F090FB019803B05DF804FB00BF09
:1037E000BCC9020810B500F58054D4F8DC210132C0
:1037F000052AC4F8DC2105D10368DB6A9847002359
:10380000C4F8DC3110BD00F5E470884208B505D17C
:1038100012F0C6FABDE8084001F070B908BD00001A
:1038200010B50446FFF716FD024B23600023A36486
:10383000204610BDC8C802082DE9F04F2DED068BBB
:1038400004468DB0A346002513F02AFF694BE563BB
:103850004BF8403B26222946584627F038FC58466C
:10386000FFF7E6FC04F16C06FF27634B2364262276
:103870004FF6FF73294684F866703046A566ADF8AA
:10388000283027F024FC3046FFF7D2FC5B4BE36680
:10389000BDF82830A4F892300AA9304604F1980AFD
:1038A00084F894700FF073FD04F1E4095046FFF7BB
:1038B000B7FF4846FFF7B4FF04F59873184609EEC2
:1038C000103AFFF7ADFF04F5BE73184609EE903AC3
:1038D000FFF7A6FF04F5E47318460AEE103A0FF05E
:1038E00097FE04F50473184604F516780AEE903A2C
:1038F000FFF7B0FC40460EF013FC04F53273184697
:103900000293FFF795FA3E4BC4F8C8322433C4F84B
:10391000D03204F537731846C4F8D45208EE103A82
:10392000FFF798FC04F54973184608EE903AFFF744
:1039300091FC344A04F58053C3E97324324AC3F836
:10394000DC51C3E975254FF4616104F56F7010F027
:103950001BFD4FF4A0732A46584600932946F023D6
:10396000FFF752FC271D4FF07F43A36659463846A8
:103970000CF07EFF2A4630462946FFF738FC092323
:1039800030460AA9ADF828300FF001FD314638461F
:103990000CF06EFF1B23A02200932946CF23504634
:1039A000FFF732FCD4F89830A4F8CC5004AE4FF0B6
:1039B000FF3BD3F88430C4F8C8B05146304698472E
:1039C00096E8070004F1D40383E8070004F55B736D
:1039D00003930E4B1B682BB90D4B0E4A60210E480A
:1039E00027F070F90D4B1B88E3B90D4B094A612193
:1039F000F5E700BFBCC9020818F20208E0F30208AC
:103A00004CEF0208A4C9020807380008FC2D012069
:103A100008C702080AC8020885C70208002E01204C
:103A2000CCC70208D74B2946186805F0C3FBD64A15
:103A300003460A21039815F023FB0399D34BC4F8DE
:103A4000E01050460A930AA90123ADF82C300FF07C
:103A5000C3F8514638460CF00BFF1621BB220091EB
:103A6000CF2319214846FFF7CFFBD4F8E430C4F840
:103A700014B1D3F88430A4F8185149463046984719
:103A800096E8070004F5907383E80700C0490B68C7
:103A900004F5607A002B9FD0BE480388022BA4D97E
:103AA000B84A0221106805F085FBB74A03460A218F
:103AB000504615F0E5FA0DF1280CB44BC4F82CA1D2
:103AC000614648464FF0030A0A93ADF82CA00FF068
:103AD00083F8494638460CF0CBFE4FF0160C77229F
:103AE00019EE100ACDF800C0CF231921FFF78CFB87
:103AF000D4F83031C4F860B1D3F88430A4F86451FC
:103B000019EE101A3046984796E8070004F5B67388
:103B100083E807009E490B6804F56579002B3FF4A4
:103B20005BAF9C480388042B7FF65FAF954A042166
:103B3000106805F03FFB944A03460A21484615F0F9
:103B40009FFA0DF1280C914BC4F87891614619EE5B
:103B5000100A0A930523ADF82C300FF03DF819EE4A
:103B6000101A38460CF084FE4FF01B0C5C2219EE44
:103B7000900ACDF800C0CF232946FFF745FBD4F8C3
:103B80007C31C4F8ACB1D3F88430A4F8B05119EE4C
:103B9000901A3046984796E8070004F5DC7383E8EE
:103BA00007007B490B6804F56A79002B3FF414AFDA
:103BB00078480388062B7FF618AF724A06211068F2
:103BC00005F0F8FA704A03460A21484615F058FAFB
:103BD0006E4B0A9319EE900A07230AA9C4F8C49100
:103BE000ADF82C300EF0F8FF19EE901A38460CF0B4
:103BF0003FFE1AEE100A40F201122121FFF7F7FAF8
:103C00000AAA022309A91AEE100AADF82830ADF865
:103C100024A00FF0C6F919231AEE100AA4F80032F6
:103C2000FFF73AFB04F58E530C33C4F8F0311AEE6B
:103C3000101A3846C4E981BB0CF01AFE3C221AEE79
:103C4000900A2021FFF7D3FA1AEE901A3046C4F8F2
:103C500040B2A4F844520EF025FD96E8070004F5A2
:103C6000137383E80700494B0A931AEE900A1A234C
:103C70000AA9ADF82C300EF0AFFF1AEE901A3846B4
:103C80000CF0F6FD0A2300933222F0232946404629
:103C9000FFF7BAFA029BC4F88032A02211464046D0
:103CA000C4F8D4B2A4F8D8B20EF050FBA0224FF45E
:103CB000EB5140460EF055FBD4F89432202B05D042
:103CC0002023C4F8943240460EF04AFA40460121BF
:103CD0000EF052FB414638460CF0CAFD04AD18EE1A
:103CE000100A23224FF0FF394FF000084521FFF75B
:103CF0007EFA18EE101A2846C4F80C93A4F8108324
:103D00000EF0D0FC95E8070018EE103A3C3383E83B
:103D100007001E4E0A961B2318EE100A0AA9ADF8DA
:103D20002C300EF059FF18EE101A38460CF0A0FD9A
:103D300018EE900A0C223621FFF759FA18EE901A65
:103D40002846C4F85493A4F858830EF0ABFC95E8C9
:103D5000070018EE903A3C3383E807001C2318EE66
:103D6000900A0AA9ADF82C300A960EF035FF3846B5
:103D700018EE901A0CF07CFD20460DB0BDEC068BC1
:103D8000BDE8F08F082E012042C80208B8C802081A
:103D9000FC2D0120002E012070477047704730B481
:103DA000C26844685510034604EB6200D20748BF5E
:103DB00062599B6830BC48BFD358184743682BB141
:103DC00083682BB9C06800F001007047184670473F
:103DD0000120704710B51021044626F08CF82046CB
:103DE00010BD000010B5034B0360044610F0D6FA76
:103DF000204610BD0CCA020807B5074B03600190AE
:103E000010F0CCFA01984FF48F5126F074F8019815
:103E100003B05DF804FB00BF0CCA020810B500F542
:103E20008054D4F8DC210132052AC4F8DC2105D104
:103E30000368DB6A98470023C4F8DC3110BD00F545
:103E4000E470884208B505D111F0AAFFBDE808402A
:103E500000F054BE08BD00002DE9F04F2DED068B9B
:103E600004468DB0A346002613F01AFC6A4BE663A5
:103E70004BF8403B26223146584627F028F9584651
:103E8000FFF7D6F904F16C05FF27644B2364262263
:103E90004FF6FF73314684F866702846A666ADF883
:103EA000283027F014F92846FFF7C2F95C4BE36687
:103EB000BDF82830A4F892300AA9284604F1980ADF
:103EC00084F894700FF063FA04F1E4095046FFF7A8
:103ED000A7FC4846FFF7A4FC04F59873184609EEC2
:103EE000103AFFF79DFC04F5BE73184609EE903AB0
:103EF000FFF796FC04F5E47318460AEE103A0FF04B
:103F000087FB04F50473184604F516780AEE903A18
:103F1000FFF7A0F940460EF003F904F53273184696
:103F20000293FEF785FF3F4BC4F8C8322433C4F830
:103F3000D03204F537731846C4F8D46208EE103A4C
:103F4000FFF788F904F54973184608EE903AFFF731
:103F500081F9354A04F58053C3E97324334AC3F821
:103F6000DC61C3E975264FF4616104F56F7010F0F0
:103F70000BFA4FF4A0733246584600933146F023B3
:103F8000FFF742F9271D4FF07F43A3665946384695
:103F90000CF06EFC324628463146FFF728F94FF008
:103FA000090328460AA9ADF828300FF0F0F9294690
:103FB00038460CF05DFC1B235C2200933146CF2376
:103FC0005046FFF721F9D4F89830A4F8CC6004AD3E
:103FD0004FF0FF3BD3F88430C4F8C8B051462846B0
:103FE000984795E8070004F1D40383E8070004F537
:103FF0005B7303930E4B1B682BB90E4B0E4A60216B
:104000000E4826F05FFE0E4B1B880A2B1CD80D4B6A
:10401000094A6121F4E700BF0CCA020818F202083D
:10402000E0F302084CEF0208F4C902083F3E000822
:10403000FC2D012008C702080AC8020885C702082B
:10404000002E0120CCC70208D84B0A21186805F0C1
:10405000B1F8D74A03460A21039815F011F80399DD
:10406000D44BC4F8E01050460A930AA90B23ADF8CC
:104070002C300EF0B1FD514638460CF0F9FB1621FC
:1040800077220091CF2319214846FFF7BDF8D4F8D5
:10409000E430C4F814B1D3F88430A4F81861494668
:1040A0002846984795E8070004F5907383E80700D1
:1040B000C1490B6804F5607A002B9ED0BF48038885
:1040C0000C2BA4D9B94A0C21106805F073F8B84A32
:1040D00003460A21504614F0D3FF0DF1280CB54BCE
:1040E0000A9361460D234846C4F82CA1ADF82C3044
:1040F0000EF072FD494638460CF0BAFB4FF0160C34
:10410000BB2219EE100ACDF800C0CF231921FFF70A
:104110007BF8D4F83031C4F860B1D3F88430A4F817
:10412000646119EE101A2846984795E8070004F5CF
:10413000B67383E80700A0490B6804F56579002B86
:104140003FF45BAF9D480388082B7FF660AF974A2A
:104150000821106805F02EF8954A03460A214846C2
:1041600014F08EFF4FF0090CADF82CC00DF1280CA7
:10417000904BC4F87891614619EE100A0A930EF03C
:104180002BFD19EE101A38460CF072FB4FF01B0C89
:10419000A02219EE900ACDF800C0CF233146FFF7D8
:1041A00033F8D4F87C31C4F8ACB1D3F88430A4F837
:1041B000B06119EE901A2846984795E8070004F573
:1041C000DC7383E807007C490B6804F56A79002BEF
:1041D0003FF413AF794803880F2B7FF618AF734A6B
:1041E0000F21106804F0E6FF714A03460A21484691
:1041F00014F046FF6F4B0A9319EE900A0E230AA99A
:10420000C4F8C491ADF82C300EF0E6FC19EE901A0B
:1042100038460CF02DFB1AEE100A40F20112212153
:10422000FEF7E5FF03230AAA09A91AEE100AADF862
:1042300024300223ADF828300EF0B3FE1F231AEE0F
:10424000100AA4F80032FFF727F804F58E530C3358
:10425000C4F8F0311AEE101A3846C4E981BB0CF0EC
:1042600007FB3C221AEE900A3A21FEF7C0FF1AEE35
:10427000901A2846C4F840B2A4F844620EF012FA2C
:1042800095E8070004F5137383E80700494B0A9388
:104290001AEE900A1E230AA9ADF82C300EF09CFCF1
:1042A0001AEE901A38460CF0E3FA0A2300933222F1
:1042B000F02331464046FEF7A7FF029BC4F8803248
:1042C000A02211464046C4F8D4B2A4F8D8B20EF0E9
:1042D0003DF8A0224FF4EB5140460EF042F8D4F8DE
:1042E0009432202B05D02023C4F8943240460DF0A0
:1042F00037FF404601210EF03FF8414638460CF0AA
:10430000B7FA04AD18EE100A23224FF0FF394FF030
:1043100000084521FEF76BFF18EE101A2846C4F876
:104320000C93A4F810830EF0BDF995E8070018EE81
:10433000103A3C3383E807001E4E0A96202318EEFD
:10434000100A0AA9ADF82C300EF046FC18EE101A2F
:1043500038460CF08DFA18EE900A0C223621FEF742
:1043600046FF18EE901A2846C4F85493A4F85883D0
:104370000EF098F995E8070018EE903A3C3383E880
:104380000700212318EE900A0AA9ADF82C300A96EE
:104390000EF022FC384618EE901A0CF069FA20460E
:1043A0000DB0BDEC068BBDE8F08F00BF082E0120DC
:1043B00042C80208B8C80208FC2D0120002E0120C6
:1043C0007047704700F598730868496803C37047E1
:1043D000704770474160704710B50022B1F908403E
:1043E000B1F90A10028042808480C18010BD7047FC
:1043F00070470000064BC0F84C310023C0F8503124
:1044000000F5A273C0F84801C0F84031704700BF02
:10441000B147000801230372704770477047704727
:104420007047704701464068036810315B6E18475B
:1044300001464068036810311B6E184770470146FB
:104440004068036810315B6E184701464068036896
:1044500010311B6E1847704710B4C2684168541081
:10446000034601EB6200D20748BF0A599B685DF81A
:10447000044B48BFD358184743682BB183682BB906
:10448000C06800F00100704718467047012070476F
:1044900010B50C21044625F02EFD204610BD10B5A8
:1044A0001021044625F027FD204610BD10B54FF41D
:1044B000AE71044625F01FFD204610BD10B5382111
:1044C000044625F018FD204610BD10B528210446ED
:1044D00025F011FD204610BD10B53821044625F009
:1044E0000AFD204610BD10B511F05AFC0368BDE866
:1044F0001040DB6B1847000013B50446807A637ADE
:104500000130C0B29842A07205D901232372002362
:10451000A37202B010BDB4F90C20002113F072FA9E
:1045200010F0010283B22AD1E081194AB4F90E00D9
:10453000E3891288B4F91410A0820020D21AADF8D1
:104540000200606822835B1A124AADF804300368E7
:10455000B2F900201B69ADF80010ADF806206946DD
:104560009847A37A012BD4D10B4B1B78002BD0D0CA
:1045700011F016FC02B0BDE8104011F017BC4FF668
:10458000FF710028D8BF0A461344E381CDE700BF7E
:10459000982D01209A2D0120A22D012010B504464E
:1045A000D0F8400158B10368DB68984738B1D4F8B7
:1045B000400103689B6898470023C4F8403110BD50
:1045C0002DE9F14FD0E9555A0746A86803681B6AE0
:1045D0009847972805D8464B464AA321464826F0D7
:1045E00071FB686803681B6A98470F2803D8434B20
:1045F000404AA421F2E7E86803681B6A98470B2841
:1046000003D83F4B3B4AA521E8E711F0C9FBDFF88F
:10461000F890043011F02AFCD9F8000010B10368BA
:10462000DB689847D9F8000010B103681B68984709
:10463000DFF8D880D8F8000010B103685B699847AC
:10464000D7F83C0110B103685B689847D8F80000C0
:1046500010B103681B689847D7F83C0110B1036894
:104660009B689847E868036800215B6A98474FF0A9
:10467000000B244B03600446C0F804B080F808B077
:10468000A868036859465B6A9847064605F0E2FA4F
:104690006868036859465B6A98473146054605F0E5
:1046A000B5FAC9F80040C7F83C51C8F80060E5B158
:1046B0002B1DCAF800303368C5F808A03046DB6807
:1046C000F56398472B6828461B6898472146304673
:1046D00013F092F9236820461B69984723685B69A9
:1046E000204601B0BDE8F04F18472B46E1E700BF78
:1046F0003CCA0208CACA0208D8CB02081FCC02086A
:10470000C2CC0208E0E00208EC2D0120E82D0120D7
:1047100037B50446807A637A0130C0B29842A072FD
:1047200005D9012323720023A37203B030BDB4F96D
:104730000C20002113F066F910F0010283B228D199
:10474000E081184B18481988258BE389B0F90000DF
:10475000ADF80600CA1A60682B445B1A12B2ADF8B5
:10476000043003682283ADF8002000221B69ADF8F5
:10477000022069469847A37A012BD6D10B4B1B78B0
:10478000002BD2D011F00CFB03B0BDE8304011F08B
:104790000DBB4FF6FF710028D8BF0A461344E381D2
:1047A000CFE700BF982D01209A2D0120A22D0120D6
:1047B0002DE9F14FD0E9555A0746A86803681B6AEE
:1047C000984741F27B13984205D8464B464AA321AD
:1047D000464826F077FA686803681B6A98470F28EE
:1047E00003D8434B404AA421F2E7E86803681B6AF8
:1047F00098470B2803D83F4B3B4AA521E8E711F027
:10480000CFFADFF8F890043011F030FBD9F800004F
:1048100010B10368DB689847D9F8000010B103684D
:104820001B689847DFF8D880D8F8000010B10368FB
:104830005B699847D7F83C0110B103685B689847FB
:10484000D8F8000010B103681B689847D7F83C01FE
:1048500010B103689B689847E868036800215B6AA9
:1048600098474FF0000B244B03600446C0F804B097
:1048700080F808B0A868036859465B6A98470646FE
:1048800004F094FE6868036859465B6A98473146AD
:10489000054604F065FEC9F80040C7F83C51C8F869
:1048A0000060E5B12B1DCAF800303368C5F808A0D8
:1048B0003046DB68F56398472B6828461B689847A5
:1048C0002146304613F098F8236820461B69984724
:1048D00023685B69204601B0BDE8F04F18472B46BE
:1048E000E1E700BF3CCA020865CD0208D8CB020848
:1048F0001FCC0208C2CC0208E0E00208EC2D012027
:10490000E82D0120044B1B6893F858200AB1D86C9D
:1049100000B99868704700BFA42D0120F8B504467F
:1049200017460E4611F070FB104B1C60104B2360B5
:10493000104B0025C4E951350F4BC4E95355186895
:10494000036801219B68C4E94F55C4E9557698472F
:10495000284604F0F3FBFFF7D5FF1AF01AFFFFF724
:10496000D1FF1AF091FF2046F8BD00BFF82D0120BD
:104970008CE0020874E00208A42D0120064BC0F868
:104980004C310023C0F8503100F5A273C0F8480143
:10499000C0F84031704700BFB1470008064BC0F86F
:1049A0004C310023C0F8503100F5A273C0F8480123
:1049B000C0F84031704700BFC14F0008064BC0F837
:1049C0004C310023C0F8503100F5A273C0F8480103
:1049D000C0F84031704700BFE55D0008064BC0F8E5
:1049E0004C310023C0F8503100F5A273C0F84801E3
:1049F000C0F84031704700BF814E0008064BC0F838
:104A00004C310023C0F8503100F5A273C0F84801C2
:104A1000C0F84031704700BFA55C0008064BC0F8E5
:104A20004C310023C0F8503100F5A273C0F84801A2
:104A3000C0F84031704700BF655B0008064BC0F806
:104A40004C310023C0F8503100F5A273C0F8480182
:104A5000C0F84031704700BF255A0008064BC0F827
:104A60004C310023C0F8503100F5A273C0F8480162
:104A7000C0F84031704700BFE5580008064BC0F849
:104A80004C310023C0F8503100F5A273C0F8480142
:104A9000C0F84031704700BF414D0008064BC0F8D8
:104AA0004C310023C0F8503100F5A273C0F8480122
:104AB000C0F84031704700BFA5570008064BC0F84A
:104AC0004C310023C0F8503100F5A273C0F8480102
:104AD000C0F84031704700BF65560008064BC0F86B
:104AE0004C310023C0F8503100F5A273C0F84801E2
:104AF000C0F84031704700BF25550008064BC0F88C
:104B00004C310023C0F8503100F5A273C0F84801C1
:104B1000C0F84031704700BF014C0008064BC0F898
:104B20004C310023C0F8503100F5A273C0F84801A1
:104B3000C0F84031704700BFE5530008064BC0F88D
:104B40004C310023C0F8503100F5A273C0F8480181
:104B5000C0F84031704700BFA5520008064BC0F8AE
:104B60004C310023C0F8503100F5A273C0F8480161
:104B7000C0F84031704700BF65510008064BC0F8CF
:104B80004C310023C0F8503100F5A273C0F8480141
:104B9000C0F84031704700BFC145000803685B6A38
:104BA00018470000124B13B503604FF48073436342
:104BB000104B417203611049104BB1F90010B3F969
:104BC000003083810022426002728272C281C0E999
:104BD0000522C0E90722C0E90922C0E90B220446E8
:104BE000009110301146FEF70FFB204602B010BDB9
:104BF00028E102080CE002089A2D0120982D0120DE
:104C00002DE9F047D0E9554A0746A06803681B6ABA
:104C10009847B0F58A5F05D2424B434AA3214348E7
:104C200026F050F8606803681B6A98470F2803D87D
:104C30003F4B3D4AA421F2E7E06803681B6A9847AE
:104C4000372803D83B4B384AA521E8E711F0A8F8EC
:104C5000DFF8E490043011F009F9D9F8000010B140
:104C60000368DB689847D9F8000010B103681B6837
:104C70009847DFF8C880D8F8000010B103685B6976
:104C80009847D7F83C0110B103685B689847D8F89B
:104C9000000010B103681B689847D7F83C0110B1B9
:104CA00003689B689847E0680021FFF777FF1421AD
:104CB0000546FFF777FFA068036800215B6A984705
:104CC000064604F0D9FA6068036800215B6A9847D9
:104CD0003146044604F0AAFAC9F80050C7F83C412E
:104CE000C8F80060DCB1231DCAF800303368C4F88E
:104CF00008A03046DB68F4639847236820461B68A9
:104D000098472946304612F077FE2B6828461B69E3
:104D100098472B6828465B69BDE8F047184723464B
:104D2000E2E700BF3CCA02086DCE0208D8CB0208F9
:104D30001FCC0208C2CC0208EC2D0120E82D012076
:104D40002DE9F047D0E9554A0746A06803681B6A79
:104D50009847B0F58A5F05D2424B434AA3214348A6
:104D600025F0B0FF606803681B6A98470F2803D8D6
:104D70003F4B3D4AA421F2E7E06803681B6A98476D
:104D8000372803D83B4B384AA521E8E711F008F84B
:104D9000DFF8E490043011F069F8D9F8000010B1A0
:104DA0000368DB689847D9F8000010B103681B68F6
:104DB0009847DFF8C880D8F8000010B103685B6935
:104DC0009847D7F83C0110B103685B689847D8F85A
:104DD000000010B103681B689847D7F83C0110B178
:104DE00003689B689847E0680021FFF7D7FE14210D
:104DF0000546FFF7D7FEA068036800215B6A984765
:104E0000064604F093FC6068036800215B6A9847DB
:104E10003146044604F064FCC9F80050C7F83C4130
:104E2000C8F80060DCB1231DCAF800303368C4F84C
:104E300008A03046DB68F4639847236820461B6867
:104E400098472946304612F0D7FD2B6828461B6943
:104E500098472B6828465B69BDE8F047184723460A
:104E6000E2E700BF3CCA02088BCF0208D8CB020899
:104E70001FCC0208C2CC0208EC2D0120E82D012035
:104E80002DE9F047D0E9554A0746A06803681B6A38
:104E90009847B0F58A5F05D2424B434AA321434865
:104EA00025F010FF606803681B6A98470F2803D835
:104EB0003F4B3D4AA421F2E7E06803681B6A98472C
:104EC000372803D83B4B384AA521E8E710F068FFA4
:104ED000DFF8E490043010F0C9FFD9F8000010B1F9
:104EE0000368DB689847D9F8000010B103681B68B5
:104EF0009847DFF8C880D8F8000010B103685B69F4
:104F00009847D7F83C0110B103685B689847D8F818
:104F1000000010B103681B689847D7F83C0110B136
:104F200003689B689847E0680021FFF737FE14216B
:104F30000546FFF737FEA068036800215B6A9847C3
:104F4000064604F093FB6068036800215B6A98479B
:104F50003146044604F064FBC9F80050C7F83C41F0
:104F6000C8F80060DCB1231DCAF800303368C4F80B
:104F700008A03046DB68F4639847236820461B6826
:104F800098472946304612F037FD2B6828461B69A2
:104F900098472B6828465B69BDE8F04718472346C9
:104FA000E2E700BF3CCA0208BBD00208D8CB020827
:104FB0001FCC0208C2CC0208EC2D0120E82D0120F4
:104FC0002DE9F047D0E9554A0746A06803681B6AF7
:104FD000984741F27B13984205D8424B424AA3219D
:104FE000424825F06FFE606803681B6A98470F28E7
:104FF00003D83F4B3C4AA421F2E7E06803681B6AF0
:105000009847372803D83B4B374AA521E8E710F0EB
:10501000C7FEDFF8E490043010F028FFD9F8000054
:1050200010B10368DB689847D9F8000010B1036835
:105030001B689847DFF8C480D8F8000010B10368F7
:105040005B699847D7F83C0110B103685B689847E3
:10505000D8F8000010B103681B689847D7F83C01E6
:1050600010B103689B689847E0680021FFF796FD40
:1050700014210546FFF796FDA068036800215B6ACE
:105080009847064604F092FA6068036800215B6A5C
:1050900098473146044604F063FAC9F80050C7F84F
:1050A0003C41C8F80060DCB1231DCAF80030336809
:1050B000C4F808A03046DB68F463984723682046AC
:1050C0001B6898472946304612F096FC2B68284604
:1050D0001B6998472B6828465B69BDE8F04718476D
:1050E0002346E2E73CCA0208D9D10208D8CB02081D
:1050F0001FCC0208C2CC0208EC2D0120E82D0120B3
:1051000003685B6A18470000124B13B503604FF445
:1051100080734363104B417203611049104BB1F926
:105120000010B3F900308381002242600272827263
:10513000C281C0E90522C0E90722C0E90922C0E90D
:105140000B220446009110301146FEF75DF8204610
:1051500002B010BD04E102080CE002089A2D012003
:10516000982D01202DE9F047D0E9554A0746A0685F
:1051700003681B6A984741F2AF03984205D8424B37
:10518000424AA321424825F09DFD606803681B6ADE
:1051900098470F2803D83F4B3C4AA421F2E7E06828
:1051A00003681B6A9847372803D83B4B374AA52129
:1051B000E8E710F0F5FDDFF8E490043010F056FE5B
:1051C000D9F8000010B10368DB689847D9F80000EF
:1051D00010B103681B689847DFF8C480D8F8000056
:1051E00010B103685B699847D7F83C0110B10368B8
:1051F0005B689847D8F8000010B103681B689847AF
:10520000D7F83C0110B103689B689847E06800211B
:10521000FFF776FF14210546FFF776FFA0680368C5
:1052200000215B6A9847064604F0BCFC606803688E
:1052300000215B6A98473146044604F08DFCC9F8AA
:105240000050C7F83C41C8F80060DCB1231DCAF823
:1052500000303368C4F808A03046DB68F463984730
:10526000236820461B6898472946304612F0C4FB45
:105270002B6828461B6998472B6828465B69BDE860
:10528000F04718472346E2E73CCA0208F3D2020877
:10529000D8CB02081FCC0208C2CC0208EC2D01209A
:1052A000E82D01202DE9F047D0E9554A0746A068CE
:1052B00003681B6A9847B0F58F5F05D2424B434A9B
:1052C000A321434825F0FEFC606803681B6A9847E9
:1052D0000F2803D83F4B3D4AA421F2E7E06803685A
:1052E0001B6A9847372803D83B4B384AA521E8E783
:1052F00010F056FDDFF8E490043010F0B7FDD9F857
:10530000000010B10368DB689847D9F8000010B1BD
:1053100003681B689847DFF8C880D8F8000010B110
:1053200003685B699847D7F83C0110B103685B6874
:105330009847D8F8000010B103681B689847D7F861
:105340003C0110B103689B689847E0680021FFF7B3
:10535000D7FE14210546FFF7D7FEA0680368002199
:105360005B6A9847064603F0E1FF60680368002126
:105370005B6A98473146044603F0B2FFC9F8005013
:10538000C7F83C41C8F80060DCB1231DCAF8003002
:105390003368C4F808A03046DB68F4639847236894
:1053A00020461B6898472946304612F025FB2B689B
:1053B00028461B6998472B6828465B69BDE8F0477B
:1053C00018472346E2E700BF3CCA020813D402088C
:1053D000D8CB02081FCC0208C2CC0208EC2D012059
:1053E000E82D01202DE9F047D0E9554A0746A0688D
:1053F00003681B6A9847B0F58F5F05D2424B434A5A
:10540000A321434825F05EFC606803681B6A984747
:105410000F2803D83F4B3D4AA421F2E7E068036818
:105420001B6A9847372803D83B4B384AA521E8E741
:1054300010F0B6FCDFF8E490043010F017FDD9F856
:10544000000010B10368DB689847D9F8000010B17C
:1054500003681B689847DFF8C880D8F8000010B1CF
:1054600003685B699847D7F83C0110B103685B6833
:105470009847D8F8000010B103681B689847D7F820
:105480003C0110B103689B689847E0680021FFF772
:1054900037FE14210546FFF737FEA0680368002198
:1054A0005B6A9847064603F0BBFF6068036800210B
:1054B0005B6A98473146044603F08CFFC9F80050F8
:1054C000C7F83C41C8F80060DCB1231DCAF80030C1
:1054D0003368C4F808A03046DB68F4639847236853
:1054E00020461B6898472946304612F085FA2B68FB
:1054F00028461B6998472B6828465B69BDE8F0473A
:1055000018472346E2E700BF3CCA02083BD5020821
:10551000D8CB02081FCC0208C2CC0208EC2D012017
:10552000E82D01202DE9F047D0E9554A0746A0684B
:1055300003681B6A9847B0F58A5F05D2424B434A1D
:10554000A321434825F0BEFB606803681B6A9847A7
:105550000F2803D83F4B3D4AA421F2E7E0680368D7
:105560001B6A9847372803D83B4B384AA521E8E700
:1055700010F016FCDFF8E490043010F077FCD9F856
:10558000000010B10368DB689847D9F8000010B13B
:1055900003681B689847DFF8C880D8F8000010B18E
:1055A00003685B699847D7F83C0110B103685B68F2
:1055B0009847D8F8000010B103681B689847D7F8DF
:1055C0003C0110B103689B689847E0680021FFF731
:1055D00097FD14210546FFF797FDA0680368002199
:1055E0005B6A9847064603F047FE6068036800213F
:1055F0005B6A98473146044603F018FEC9F800502C
:10560000C7F83C41C8F80060DCB1231DCAF800307F
:105610003368C4F808A03046DB68F4639847236811
:1056200020461B6898472946304612F0E5F92B685A
:1056300028461B6998472B6828465B69BDE8F047F8
:1056400018472346E2E700BF3CCA020861D60208B9
:10565000D8CB02081FCC0208C2CC0208EC2D0120D6
:10566000E82D01202DE9F047D0E9554A0746A0680A
:1056700003681B6A984741F2E333984205D8424BCE
:10568000424AA321424825F01DFB606803681B6A5B
:1056900098470F2803D83F4B3C4AA421F2E7E06823
:1056A00003681B6A9847372803D83B4B374AA52124
:1056B000E8E710F075FBDFF8E490043010F0D6FB5B
:1056C000D9F8000010B10368DB689847D9F80000EA
:1056D00010B103681B689847DFF8C480D8F8000051
:1056E00010B103685B699847D7F83C0110B10368B3
:1056F0005B689847D8F8000010B103681B689847AA
:10570000D7F83C0110B103689B689847E068002116
:10571000FFF7F6FC14210546FFF7F6FCA0680368C6
:1057200000215B6A9847064604F09CF860680368AD
:1057300000215B6A98473146044604F06DF8C9F8C9
:105740000050C7F83C41C8F80060DCB1231DCAF81E
:1057500000303368C4F808A03046DB68F46398472B
:10576000236820461B6898472946304612F044F9C2
:105770002B6828461B6998472B6828465B69BDE85B
:10578000F04718472346E2E73CCA02087FD70208E1
:10579000D8CB02081FCC0208C2CC0208EC2D012095
:1057A000E82D01202DE9F047D0E9554A0746A068C9
:1057B00003681B6A984741F2E333984205D8424B8D
:1057C000424AA321424825F07DFA606803681B6ABB
:1057D00098470F2803D83F4B3C4AA421F2E7E068E2
:1057E00003681B6A9847372803D83B4B374AA521E3
:1057F000E8E710F0D5FADFF8E490043010F036FB5B
:10580000D9F8000010B10368DB689847D9F80000A8
:1058100010B103681B689847DFF8C480D8F800000F
:1058200010B103685B699847D7F83C0110B1036871
:105830005B689847D8F8000010B103681B68984768
:10584000D7F83C0110B103689B689847E0680021D5
:10585000FFF756FC14210546FFF756FCA0680368C5
:1058600000215B6A9847064603F0BAFF6068036848
:1058700000215B6A98473146044603F08BFFC9F864
:105880000050C7F83C41C8F80060DCB1231DCAF8DD
:1058900000303368C4F808A03046DB68F4639847EA
:1058A000236820461B6898472946304612F0A4F822
:1058B0002B6828461B6998472B6828465B69BDE81A
:1058C000F04718472346E2E73CCA0208C3D802085B
:1058D000D8CB02081FCC0208C2CC0208EC2D012054
:1058E000E82D01202DE9F047D0E9554A0746A06888
:1058F00003681B6A9847B0F58A5F05D2424B434A5A
:10590000A321434825F0DEF9606803681B6A9847C5
:105910000F2803D83F4B3D4AA421F2E7E068036813
:105920001B6A9847372803D83B4B384AA521E8E73C
:1059300010F036FADFF8E490043010F097FAD9F856
:10594000000010B10368DB689847D9F8000010B177
:1059500003681B689847DFF8C880D8F8000010B1CA
:1059600003685B699847D7F83C0110B103685B682E
:105970009847D8F8000010B103681B689847D7F81B
:105980003C0110B103689B689847E0680021FFF76D
:10599000B7FB14210546FFF7B7FBA0680368002199
:1059A0005B6A9847064603F0C1FE60680368002101
:1059B0005B6A98473146044603F092FEC9F80050EE
:1059C000C7F83C41C8F80060DCB1231DCAF80030BC
:1059D0003368C4F808A03046DB68F463984723684E
:1059E00020461B6898472946304612F005F82B6878
:1059F00028461B6998472B6828465B69BDE8F04735
:105A000018472346E2E700BF3CCA020803DA02084F
:105A1000D8CB02081FCC0208C2CC0208EC2D012012
:105A2000E82D01202DE9F047D0E9554A0746A06846
:105A300003681B6A984741F2E333984205D8424B0A
:105A4000424AA321424825F03DF9606803681B6A79
:105A500098470F2803D83F4B3C4AA421F2E7E0685F
:105A600003681B6A9847372803D83B4B374AA52160
:105A7000E8E710F095F9DFF8E490043010F0F6F95B
:105A8000D9F8000010B10368DB689847D9F8000026
:105A900010B103681B689847DFF8C480D8F800008D
:105AA00010B103685B699847D7F83C0110B10368EF
:105AB0005B689847D8F8000010B103681B689847E6
:105AC000D7F83C0110B103689B689847E068002153
:105AD000FFF716FB14210546FFF716FBA0680368C5
