:020000040800F2
:10000000000003204D060008A11C0008A51C0008E4
:10001000A91C0008AD1C0008B11C0008000000006D
:1000200000000000000000000000000051E4000893
:10003000B51C000800000000E1E40008A1DC000895
:100040009D0600089D0600089D0600089D06000804
:100050009D0600089D0600089D0600089D060008F4
:100060009D060008B91C00089D0600089D060008B2
:100070009D0600089D0600089D0600089D060008D4
:100080009D0600089D0600089D0600089D060008C4
:100090009D0600089D0600089D0600089D060008B4
:1000A0009D0600089D0600089D0600089D060008A4
:1000B0009D0600089D0600089D0600089D06000894
:1000C0009D0600089D0600089D0600089D06000884
:1000D0009D0600089D0600089D0600089D06000874
:1000E0009D0600089D0600089D0600089D06000864
:1000F0009D0600089D0600089D0600089D06000854
:100100009D0600089D0600089D0600089D06000843
:100110009D0600089D060008D91C00089D060008E1
:100120009D060008551500089D0600089D0600085C
:100130009D0600089D0600089D0600089D06000813
:100140009D0600089D0600089D0600089D06000803
:100150009D0600089D0600089D0600089D060008F3
:10016000E51C00089D0600089D0600089D06000885
:100170009D0600089D0600089D060008000000007E
:100180009D0600089D0600089D0600089D060008C3
:100190009D0600089D0600089D0600089D060008B3
:0C01A000F11C00089D0600089D060008E8
:1001B00010B5054C237833B9044B13B10448AFF3A1
:1001C00000800123237010BD70010020000000009A
:1001D000D0CC020808B5034B1BB103490348AFF369
:1001E000008008BD0000000074010020D0CC02088F
:1001F0004B1C012B98BF70472DE9F003911C9B0805
:10020000B1F80480B1F802900A8831F802CC804439
:10021000814402448444D9F80070D8F8006015681D
:10022000DCF80040C9F80060C8F80070CCF8005055
:100230001460D9F80470D8F804605568DCF80440FC
:10024000C9F80460C8F80470CCF804505460083150
:10025000013BD5D1BDE8F00370474B1C012B98BF83
:1002600070472DE9F003911C9B08B1F80480B1F8A8
:1002700002900A8831F802CC00EB580800EB5909CB
:1002800000EB520200EB5C0CD9F80070D8F800606B
:100290001568DCF80040C9F80060C8F80070CCF8B8
:1002A000005014600831013BDFD1BDE8F003704716
:1002B00001F0FF01102A2BDB10F0070F08D010F817
:1002C000013B013A8B422DD010F0070F42B3F6D11B
:1002D000F0B441EA012141EA014122F007047FF034
:1002E00000070023F0E80256083C85EA010586EA8B
:1002F000010685FA47F5A3FA87F586FA47F6A5FAC7
:1003000087F68EB9EED1F0BC01F0FF0102F00702D2
:1003100032B110F8013B013A83EA010313B1F8D17D
:100320000020704701387047002D06BF354603385E
:10033000073815F0010F07D1013015F4807F02BF97
:10034000013015F4C03F0130F0BC0138704700BFE8
:1003500053B94AB9002908BF00281CBF4FF0FF312C
:100360004FF0FF3000F070B9ADF1080C6DE904CE2C
:1003700000F006F8DDF804E0DDE9022304B0704780
:100380002DE9F047089E0D4604460F46002B4AD142
:100390008A42944665D9B2FA82F343B102FA03FC69
:1003A000C3F120029F4020FA02F217439C404FEA1B
:1003B0001C4E1FFA8CF5B7FBFEF1220C0EFB1177D9
:1003C00042EA074201FB05F090420AD91CEB020207
:1003D00001F1FF3780F01C81904240F2198102390F
:1003E0006244121AA4B2B2FBFEF00EFB102244EAE1
:1003F000024400FB05F5A5420AD91CEB040400F1F8
:10040000FF3280F00781A54240F204816444023843
:1004100040EA0140641B00211EB1DC400023C6E914
:100420000043BDE8F0878B4208D9002E00F0ED8034
:100430000021C6E900050846BDE8F087B3FA83F15C
:10044000002949D1AB4202D3824200F2F880841ADB
:1004500065EB030201201746002EE2D0C6E90047F3
:10046000DFE702B9FFDEB2FA82F3002B40F09080A2
:100470008A1A4FEA1C471FFA8CFE0121B2FBF7F5DE
:1004800007FB1520220C42EA00420EFB05F09042C9
:1004900008D91CEB020205F1FF3802D2904200F2AB
:1004A000CB804546121AA4B2B2FBF7F007FB10222C
:1004B00044EA02440EFB00FEA64508D91CEB0404E6
:1004C00000F1FF3202D2A64500F2BB801046A4EB39
:1004D0000E0440EA05409FE7C1F120078B4022FA55
:1004E00007FC4CEA030C05FA01F420FA07F3FD407F
:1004F0004FEA1C492343B5FBF9F81FFA8CFE09FBB0
:1005000018551C0C44EA054408FB0EF5A54202FAF6
:1005100001F200FA01F00BD91CEB040408F1FF3AD8
:1005200080F08880A54240F28580A8F102086444EA
:10053000641B9DB2B4FBF9F309FB134445EA044480
:1005400003FB0EFEA64508D91CEB040403F1FF359E
:100550006CD2A6456AD9023B644443EA0843A3FB34
:100560000295A4EB0E04AC42C846AE4656D353D017
:1005700056B1B0EB080264EB0E0404FA07F7CA4068
:10058000CC401743C6E9007418460021BDE8F08747
:10059000C3F1200102FA03FC20FA01F225FA01F16D
:1005A0009D402A434FEA1C471FFA8CFEB1FBF7F02F
:1005B00007FB1015110C41EA054100FB0EF58D42B9
:1005C00004FA03F408D91CEB010100F1FF382FD223
:1005D0008D422DD902386144491B92B2B1FBF7F527
:1005E00007FB151142EA014205FB0EF1914208D9C1
:1005F0001CEB020205F1FF3816D2914214D9023DDC
:100600006244521A45EA004138E73146304608E76D
:100610003946E6E61046FBE64845A9D2B9EB0208A2
:1006200065EB0C0E013BA3E74546EAE72B4694E752
:100630004046D1E7D0467BE7023D624432E70846B8
:100640000AE76444023842E7704700BFDFF834D05D
:10065000002103E00C4B5B58435004310B480C4B1A
:1006600042189A42F6D30B4A02E0002342F8043BB8
:10067000094B9A42F9D309F0B3F92BF0ADFD00F024
:1006800075FA70470000032060D50C0800000020B8
:100690006C0100207001002074440120FEE700007E
:1006A00000F1784343F6FE72934205D9A3F58041E9
:1006B000914203D80120704700207047A3F5004104
:1006C000914260D9A3F5404393425ED900F177434C
:1006D00003F57F014FF6FE7291425AD902F580323E
:1006E00003F57E01914252D903F57C01914252D922
:1006F00003F57A01914250D903F5780191424ED920
:1007000003F5760191424CD903F5740191424AD91F
:1007100003F57201914248D9A0F1016043F6FE71E0
:10072000884244D9A0F5804C8C4542D9A0F5004CB4
:100730008C4540D9A0F5404088423ED903F56F0072
:100740004FF6FE7188423AD903F56E01914238D9CD
:1007500003F56C01914238D903F56A01914232D90F
:1007600003F56801914236D903F56601914230D90B
:1007700003F5640191422AD903F56203934294BFC1
:100780001720002070470220704703207047052083
:1007900070470420704706207047072070470820E4
:1007A0007047092070470A2070470B2070470C20C3
:1007B00070470D2070470E2070470F2070471020A3
:1007C0007047112070471320704712207047162081
:1007D0007047152070471420704700BFF0B50746DA
:1007E00083B016460D4609F0B9FA3846FFF758FFB0
:1007F000044607EB8600FFF753FF431C13481B1BFF
:10080000C0E902430023036001A90223036109F048
:1008100023FB88B9A6B17F1B0446043D043701E0E1
:10082000A6420DD07919002355F8042F0220013477
:1008300009F0F2F90028F3D009F0AEFA03B0F0BDE8
:1008400009F0A0FA002003B0F0BD00BF8C01002029
:100850000B46013201EB8201C01A1A5843F8042BEF
:100860008B42FAD1704700BF2DE9F04F2DED028B7E
:1008700091B000AF05468846FA6000F0D9FE03B299
:10088000BB609B007B60073323F00703ADEB030DD8
:100890000446EA46F0B1013DD146D346002600F0B9
:1008A000C5FE06FB005008EB8003D3ED007A01364D
:1008B000F8EE677AB442EBEC017AF0D17E689FEDF6
:1008C0002B7A5644D9ED007A77EEC77AE9EC017AB3
:1008D0004E45F7D1BB686A46A2EBC3039D4607EEBF
:1008E000904AFB686D46A1B207F12800F8EE678ACE
:1008F00013FB04F929F098FA64080023514607F124
:1009000028002A4629F014FB22462946284629F0C9
:100910007DFF00F08FFEB9FBF0F905EB8909D9EDF9
:10092000007A77EEA77A07F11803C7EEA80A07F155
:100930001C0221462846C7ED030A29F00DFAD7ED1F
:10094000067AB8EE678A00F075FE07EE900AF8EEB8
:10095000677AD7ED030A67EE887A443787EEA80AEC
:10096000BD46BDEC028BBDE8F08F00BF00F0FF4438
:1009700008B564200DF01AFAFBE700BF80B5194CEA
:10098000DFF87480184E194D194F2068154900235F
:100990001A4600F1FF3CD8F80000C4F800C00DF082
:1009A00001FB22683C233846202112B9236009F05C
:1009B00027FC10484FF4005109F026FC0021304676
:1009C0000CF01CFD2B780021013B304673600CF0CD
:1009D000A5FC2B784FF47A700A332B700DF0E6F9F2
:1009E000D3E700BF10000020740300200C0000209B
:1009F0000010024000180240D8010020014B186886
:100A0000704700BF10000020F0B583B01F4E204D8E
:100A1000204C00270097336B43F004033363336BA0
:100A200003F004030093009B2B6823F00C032B605E
:100A30002B6843F004032B60AB6943F40033AB61D4
:100A40000A2009F007F82B6843F00C032B6001978C
:100A5000336B43F020033363336B03F020030193C4
:100A6000019BA36823F44033A360636A23F00F0360
:100A70006362E36823F44033E3600A2008F0EAFF8E
:100A8000236843F44033236003B0F0BD00380240D4
:100A900000080240001402402DE9F8431C469B0068
:100AA00007336D46DB08A5EBC30300AF9D466D46DB
:100AB00016468146884622462946FFF7C9FE45F874
:100AC0002680224629464846FFF788FEBD46BDE8F7
:100AD000F88300BF30B5002495B0CDE90A44CDE9D4
:100AE0000C44CDE90344CDE905441E4A0194079422
:100AF000116C1D4B41F080511164126C02F0805258
:100B00000192019A02941A6842F440421A601B68EA
:100B100003F44043029301224FF48033CDE90823CC
:100B20000823022510934FF480024FF4A873CDE9F7
:100B30000E5211930222042308A8CDE91223029930
:100B40000BF09CF90F23CDE903354FF4A0524FF47D
:100B5000805303A80521CDE9054207930BF0A6FBBE
:100B600015B030BD00380240007000402DE98048CB
:100B700000249DB008F042FFFFF7ACFFFFF744FFF1
:100B8000CDE90F44CDE91144C34B00941394196B84
:100B9000C248DFF83CA341F010011963196B01F062
:100BA0001001009100990194196B41F02001196323
:100BB000196B01F02001019101990294196B41F028
:100BC00080011963196B01F080010291029903946D
:100BD000196B41F004011963196B01F004010391D1
:100BE00003990494196B41F001011963196B01F029
:100BF0000101049104990594196B41F002011963F4
:100C0000196B01F00201059105990694196B41F0E9
:100C100040011963196B01F0400106910699079490
:100C2000196B41F0080119631B6B03F0080322469E
:100C300007931421079B09F0E3FA98482021012229
:100C400009F0DEFA96482246142109F0D9FA9548AF
:100C500022464FF4805109F0D3FA934822464FF4CC
:100C6000405109F0CDFA91482246042109F0C8FA12
:100C700001228E484FF4005109F0C2FA4FF00108EA
:100C80004FF0030B142385480FA90826CDE90F3830
:100C9000CDE9114B09F070F94FF488137F480F9696
:100CA0000FA91093119409F067F920237B480F9343
:100CB0000FA902250427CDE91084129409F05CF9EC
:100CC000774812950FA94FF01009CDE910840F97BE
:100CD00009F052F9724812940FA9CDE91084CDF8A9
:100CE0003C9009F049F94FF480536E480F930FA9D7
:100CF000CDE91084129409F03FF94FF440536A484B
:100D000012950FA9CDE910840F9309F035F942F23D
:100D1000040366480F930FA9CDE91084129409F0DB
:100D20002BF94FF4004362480F930FA90F2313933D
:100D3000CDE91054129409F01FF90521224609202B
:100D400008F0ACFE092008F0E7FE5A485A4A026053
:100D500008F0F0FE59495A4A5046CAE900124FF4C9
:100D60008042CAF81020CAE90244CAE90544CAE927
:100D7000074409F0ABFC494650460AF073FE214691
:100D800050460AF08FFEDFF84CC14E48DFF848A10C
:100D900084624FF48272C0E900C24FF4007E1822D0
:100DA000C0E906E20A22C262C0E90244C0E9044482
:100DB000C0E908440BF068FD072210921292424AE3
:100DC000CAF8002040204FF4C072CAE905024FF46F
:100DD0000062CAF820200FA94FF400525046CAE919
:100DE0000184CAE90379CDE913B5CAF82820CAF805
:100DF0001C40CAF824400F95119715950BF052FC32
:100E00004FF6FF720BA95046CDE90B86CDE90D8454
:100E100008940BF069FC404608F01CFE4FF6FF7288
:100E20000BA95046CDE90B56CDE90D840BF05CFCC7
:100E30004FF6FF720BA95046CDE90BB6CDE90D7404
:100E40000BF052FC4FF40C72089208990E914FF679
:100E5000FF720BA95046CDE90B76CDF834800BF02C
:100E600043FC504640F26A510BF05CFCDFF86CA08A
:100E7000342221460FA82BF0B0F8144ACAF80020FB
:100E80000922CAF814201D22CAF81C2040F20D13B2
:100E900040F2431224E000BF00380240001002403C
:100EA0000008024000040240000C0240001802400A
:100EB00000000240E401002000300240005C0040DD
:100EC000A08601001C030020400100A00068014032
:100ED000EC01002000500140E80200204002002008
:100EE000CAE9093240F2171140F24712AAF8344019
:100EF0005046CAE90B12CAF81880CAF820B0CAE9ED
:100F00000144CAE903448AF836400AF0EFFDF023B1
:100F1000109319934FF4A07312931A93FF234FF475
:100F2000806E22460FA9504614930523CDE916E39F
:100F3000DFF86C8213950F94119415941894ADF802
:100F40006C408DF86E400AF0A7FE824BC8F8003066
:100F50001B68DFF850A29847D8F80030DFF84882C5
:100F6000DB6898477C4BC8F8003040464FF6FF736B
:100F7000C8F80C30C8E90144C8F81040C8F8184057
:100F8000CDE90B44CDE90D44CDE90F44CDE9114441
:100F9000CDE9094413940CF067F84FF480530BA982
:100FA00040460B930CF08AFB0FA94046CDE90F4455
:100FB0000CF034FC09A94046CDE909440CF06CFD65
:100FC00063234FF0804BA721CAF80C305046802392
:100FD000CAF800B0CAF81830CAF80410CDE90F44B6
:100FE000CDE91144CDE90B44CAF80840CAF81040D5
:100FF0000CF03AF84FF480530FA950460F934FF07E
:1010000032080CF05BFB0BA95046CDE90B440CF009
:1010100043FDCBF83480214650460CF07FF9394629
:10102000CBF8388050460CF079F94C4FCBF83C8027
:10103000314650460CF072F94949BC606323D12215
:10104000C7E9033438468023BB61C7E90012CDE904
:101050000F44CDE91144CDE9134415940CF004F884
:1010600038460CF0CDF84FF0600B22460FA93846F9
:101070003C4E1394CDE91044CDF83CB00CF00EFA80
:10108000384600F0FDFC6323374FF3608023B361E3
:1010900030465323C6E90073CDE90B44CDE90D4436
:1010A000CDE90F44CDE91144CDE913441594B46062
:1010B00034610BF0D9FF4FF480530BA930460B93EA
:1010C0000CF0FCFA30460CF09BF822460FA9304693
:1010D000CDE91084CDF83CB013940CF0DFF9214633
:1010E000C7F8348030460CF019F9304600F0C8FCDF
:1010F00000F05CFE00F058FEFFF786FC00F058F9A7
:1011000000F08AF919491A480C22FFF7A1FB0CF0EC
:10111000D5FD2946174A48460CF00AFF164B174AD8
:101120001860214616480CF0F5FD164B164A18605B
:10113000214616480CF0EEFD154B164A0546214691
:1011400015481D600CF0E6FD144B18600CF0C8FD4E
:10115000FEE700BF1C0000200004004074030020D4
:10116000002000404C04002000400140A00100206D
:1011700000001E0880CD0208D8010020BCCD020866
:1011800071090008E00100205CCD0208BD1D0008C7
:10119000D001002098CD02087D090008DC01002064
:1011A000D4010020BC03002004040020704700BFCD
:1011B000704700BF10B5094C86B0246802941446ED
:1011C00001238DF817400DF117040A4601930146DB
:1011D0000094034809F042FB06B010BD0400002053
:1011E000EC01002000B50B4B87B01B6802938446CE
:1011F0000A4601230DF117010020CDE900138DF8F7
:1012000017006146044809F01BFC9DF8170007B061
:101210005DF804FB04000020EC01002010B5094C2F
:1012200084B0844620680290CDE9002306480A462F
:101230000123614609F004FC003818BF012004B006
:1012400010BD00BF04000020EC01002008F002BC2B
:1012500008B506480022042108F0D2FFBDE8084086
:1012600002480122042108F0CBBF00BF0008024061
:1012700030B5104D83B0044601220F484FF40051A1
:1012800008F0BEFF28460022042108F0B9FF0B4BEE
:101290000B481B68ADF806400DF1060101220BF06A
:1012A00055FB01220421284603B0BDE8304008F078
:1012B000A7BF00BF00080240000C02400800002049
:1012C0001C03002030B5104D83B0044600220F48A7
:1012D0004FF4005108F094FF28460022042108F042
:1012E0008FFF0B4B0B481B68ADF806400DF1060154
:1012F00001220BF02BFB01220421284603B0BDE89C
:10130000304008F07DBF00BF00080240000C0240E2
:10131000080000201C0300202DE9F043194E1A4F4D
:10132000DFF86890DFF8688083B00C46054600223D
:101330003046042108F064FF384600224FF4005183
:1013400008F05EFFD9F80030ADF8045001A9012281
:1013500040460BF0FBFAD9F80030224601A940467E
:101360000BF09CFD384601224FF40051019C08F01F
:1013700047FF30460122042108F042FF204603B017
:10138000BDE8F08300080240000C02400800002085
:101390001C03002008F05EBB034B02689A4200D099
:1013A000704708F045BB00BF00100040704700BF09
:1013B00010B483B0154B1649002400941A6B42F008
:1013C00020021A631A6B02F020020092009A086849
:1013D000104A40F440500860086840F4403008600B
:1013E0000194196B41F0040119631B6B03F00403B2
:1013F0000193019B136843F0C0031360136843F02B
:101400000C03136003B05DF8044B704700380240D2
:10141000001402400008024010B483B00E4A0020BD
:101420000190116C41F001011164126C4FF0804386
:1014300002F00102019243F244310922019C9962B7
:10144000DA625A68054942F020025A6081F81C03AA
:1014500003B05DF8044B70470038024000E100E043
:1014600010B483B0364A374B374C00210091506C92
:1014700040F480605064506C00F4806000900098EC
:10148000D86A40F44010D862586B40F004005863AA
:10149000586B40F4D0705863586B40F4C050586398
:1014A000586B40F4B0205863586840F4807058601E
:1014B000986840F080509860986840F0C0609860EC
:1014C000986840F4807098600191106B40F480003F
:1014D0001063126B02F48002019203F5A133019AAA
:1014E00084F839139A6A22F001029A629A6AD20742
:1014F000FCD49A681548164942F400629A609A6AC8
:1015000042F080629A629A6A42F480329A629A6ADF
:1015100042F480429A629A6A42F480529A629A6ACB
:1015200042F480629A629A6A4FF4807442F0100228
:101530009A62DC621863596303B05DF8044B70472C
:10154000003802400022014000E100E04C2201404E
:10155000940400201B4B1A68110500D470471A4AE6
:101560004FF00071C2F88410BFF34F8FBFF36F8F3D
:10157000C2F884119A6A22F001029A629A6AD2072A
:10158000FCD499684FF0804241F40061996013687F
:101590000E4923F00103136088680D4B20F0010011
:1015A0008860886820F480708860596A41F480718E
:1015B0005962596A21F480715962136823F001035A
:1015C000136070470064024000E100E00022014027
:1015D0000038024010B54FF4806200210F482AF015
:1015E000FCFCFFF73DFF0E4A0E49936A0E484FF090
:1015F000007443F001039362C1F884414C60836836
:101600004FF0804143F0010383600B6843F0010316
:101610000B60936ADB07FCD4004810BD94040020E3
:101620000064024000E100E0002201400420704715
:10163000402070474FF42070704700BF82B00E4BBF
:1016400000220092596C41F480415964586C00F4B6
:101650008040009000980192186C40F0805018640F
:101660001B6C03F080530193019B0F216FF001006D
:1016700002B008F013BA00BF003802400B4B0268FA
:101680009A4200D0704782B000220192D3F83028ED
:1016900042F48052C3F8302803F500631B6B03F457
:1016A00080530193019B02B0704700BF003002409D
:1016B0002DE970432E4B02688AB000249A42CDE98E
:1016C0000444CDE90644089402D00AB0BDE8708312
:1016D000284D01942B6B284843F004032B632B6B9C
:1016E00003F004030193019B02942B6B43F001036D
:1016F0002B632B6B03F0010302934FF400724FF046
:1017000001084FF00309042604A91223CDE904239C
:10171000CDE90689029B089608F02EFC04A94FF437
:101720008072122315480896CDE90423CDE9068975
:1017300008F022FC03942B6C43F400032B642B6C05
:1017400003F400032246052103934820039B08F07D
:10175000A5F9482008F0E0F92B6A43F400032B6256
:101760002B6A23F400032B620AB0BDE8708300BF2C
:10177000005C0040003802400008024000000240C7
:101780002DE9F04104469AB0002130220EA8CDE99F
:101790000811CDE90A110C912AF01FFC674B226851
:1017A0009A4202D01AB0BDE8F081C0230821042279
:1017B00012930EA84FF400330E91149217930AF06F
:1017C00045FE002840F0B7805D4B5E480024019440
:1017D0005A6C42F080625A645A6C02F08062019244
:1017E000019A02941A6B42F020021A631A6B02F0FB
:1017F00020020292029A03941A6B42F001021A63C9
:101800001A6B02F001020392039A04941A6B42F0DD
:1018100002021A631A6B02F002020492049A0594FF
:101820001A6B42F040021A631A6B02F040020592F2
:10183000059A06941A6B42F004021A631A6B02F0BE
:1018400004020692069A07941A6B42F008021A6381
:101850001B6B03F00803002602270E25079308A937
:101860004FF480620223CDE90823CDE90A67079B84
:101870000C9508F081FB08A941F658020223324872
:101880000C95CDE908234FF00908CDE90A6708F067
:1018900073FB08A9032202232C48CDF83080CDE940
:1018A0000823CDE90A6708F067FB08A94FF47062C6
:1018B000022326480C95CDE90823CDE90A6708F0F4
:1018C0005BFB08A94FF40C62022321480C95CDE97B
:1018D0000823CDE90A6708F04FFB08A9C0220223BC
:1018E0001C480C95CDE90823CDE90A6708F044FBB4
:1018F00008A90822022318480C95CDE90823CDE950
:101900000A6708F039FB022308A94FF4A0521048D7
:10191000CDF83080CDE90823CDE90A6708F02CFB2B
:1019200022460521582008F0B9F8582008F0F4F8AC
:101930001AB0BDE8F081FFF739FD45E700680140C6
:10194000003802400014024000000240000402403F
:101950000018024000080240000C02400000000095
:1019600010B51B4A016888B000239142CDE90233CB
:10197000CDE90433069301D008B010BD02F56842EA
:101980000093506C40F480105064506C00F4801050
:10199000009000980193136B0E4843F020031363EB
:1019A000136B9FED097B03F02003019303220523B2
:1019B00002A98DED027BCDE90523019C08F0DCFA3C
:1019C00008B010BDAFF300808003000002000000EB
:1019D00000500140001402400368B3F1804F84B00E
:1019E00018D0224A934207D0214A934221D0214A5B
:1019F00093422CD004B070471F4B002201921A6C06
:101A000042F002021A641B6C03F002030193019B73
:101A100004B0704703F50E33002200921A6C42F0B6
:101A200001021A641B6C03F001030093009B04B0D5
:101A30007047114B002202925A6C42F480325A6471
:101A40005B6C03F480330293029B04B070470A4B33
:101A5000002203921A6C42F480721A641B6C03F425
:101A600080730393039B04B0704700BF00040040E1
:101A7000004001400020004000380240000000000B
:101A800000B50268244989B000238A42CDE90233B7
:101A9000CDE90433069305D020498A421AD009B013
:101AA0005DF804FB1E4A0093136B1E4843F00103CC
:101AB0001363136B9FED147B03F00103009302A9E2
:101AC00003238DED027B009A069308F055FA09B0C6
:101AD0005DF804FB124A0193136B43F00103136397
:101AE000136B9FED0B7B03F00103019301980D48ED
:101AF0000222092302A98DED027B0592069308F0CC
:101B00003BFA09B05DF804FB04000000020000008D
:101B10008000000002000000004001400020004062
:101B20000038024000000240F0B52B4B89B01C6821
:101B300000220492002C4CD10127284A01941F60F6
:101B4000936B27483B439363936B3B4003260C25E1
:101B50004FF63F02019302A90223CDE90223CDE90A
:101B60000565019B08F008FA1E48029702A90227A2
:101B7000CDE90374CDE9056508F0FEF948F23313A9
:101B80001948029302A9CDE90374CDE9056508F06F
:101B9000F3F94FF683731548029302A9CDE9037454
:101BA000CDE9056508F0E8F94CF20373104802939B
:101BB00002A9CDE90374CDE9056508F0DDF96023DC
:101BC0000C48039702A9CDE904460695029308F054
:101BD000D3F909B0F0BD00BF9408002000380240DE
:101BE00000140240000802400018024000100240A9
:101BF000000C02400004024070B588B0234B002264
:101C000002921A6C42F010021A641B6C03F010036B
:101C10000293054601A903A8029B0AF0F5FB069B67
:101C2000D3B90AF0E1FB0346194A1A4C1A49A2FB40
:101C300003239B0C013B0022C4E90013204640F221
:101C4000E7332261A260A261E3600BF00DFA064661
:101C500030B1304608B070BD0AF0C6FB4300E3E780
:101C600020460BF08FFA06460028F2D1362007F006
:101C700053FF0F2D01D90126EBE7324629463620C6
:101C800007F00CFF054B1D60E3E700BF0038024082
:101C900083DE1B43980800200010004084000020D1
:101CA000704700BFFEE700BFFEE700BFFEE700BFD2
:101CB000FEE700BF704700BF08B5C82007F0CAFEA6
:101CC00004480022202108F09BFABDE808400820C3
:101CD00008F0A6BA0010024001480BF033BE00BF66
:101CE00098080020014809F0FBB900BFEC01002072
:101CF000014809F06FBF00BF40020020012070477B
:101D000008B52AF063FA162303604FF0FF3008BDD0
:101D100008B52AF05BFA16230360FEE770B5161EBD
:101D200007DD0C468D19AFF3008004F8010BA542C6
:101D3000F9D1304670BD00BF70B5161E07DD0C46E8
:101D40008D1914F8010BAFF30080AC42F9D1304685
:101D500070BD00BF4FF0FF30704700BF4FF400531D
:101D60004B600020704700BF012070470020704783
:101D70000B4A08B50346106828B1034469468B42F4
:101D800007D8136008BD07481060034469468B42BA
:101D9000F7D92AF01BFA0C2303604FF0FF3008BD7F
:101DA000E008002078440120704700BF08B500F02B
:101DB000ABFBBDE8084000F033BB00BF00F0A6BBA2
:101DC000704710B50421044629F0EFF8204610BDF5
:101DD00038B50C4B0C4C18800C4B82201980636872
:101DE000984740F6110398420AD1094D23682C60A8
:101DF000822098472B688220DB689847002038BDF6
:101E00000120FCE7E408002054000020E608002040
:101E1000E80800204FF4A071F020FFF7D9BF0000C0
:101E2000F7B5334D2B6804461B698220984780B272
:101E3000208000284AD02B680DF106025B6901A9B9
:101E400082209847BDF8063040F6746293423FD92D
:101E5000ADF80620BDF80630D21A92B20A2A3DD952
:101E60000B23B2FBF3F2234B1B889A4201D9013BAF
:101E70009AB2BDF8043040F6B8318B4230D8C3F581
:101E800071630E339BB20F21B3FBF1F31A4909883A
:101E90008B4201D901398BB2184E194D30682F6829
:101EA000834281B28CBF591AC91AB8B2BA428CBFE8
:101EB000101A801A89B280B201440529C8BF336064
:101EC0003368C8BF2A6063802B68A38003B0F0BD6D
:101ED000B32B9CBFB423ADF80630BBE70022C8E7A4
:101EE000C3F56D6308339BB20E2BCCD80023D3E728
:101EF000E8080020E6080020E4080020EC080020A4
:101F0000F008002037B568460D461446FFF788FFF5
:101F1000BDF8000048B1BDF802302B60BDF80430B8
:101F20002360034B3C221A60012003B030BD00BF88
:101F30001000002010B1022809D07047074B1A6822
:101F4000B2FA82F252090421054808F059B9034B4C
:101F50009A68B2FA82F252091021F5E7F4080020DB
:101F60000010024010B1022809D07047074B1A68D0
:101F7000003A18BF01220421054808F041B9034B7B
:101F80009A68003A18BF01221021F5E7F4080020F2
:101F90000010024010B1022804D07047042102480A
:101FA00008F032B91021FAE70010024008B530B14C
:101FB000022809D00020431E5842584108BD042180
:101FC000024808F017F9F6E71021F9E7001002407F
:101FD00070B5084D00240126E0B2FFF7E7FF18B105
:101FE0002B68012B18BF2E600134052C05F1040568
:101FF000F2D170BDF4080020012380F8781080F839
:102000007930704700207047034B4164003918BF96
:1020100001211970704700BF3B3801200020704734
:10202000836B0BB10846184770474FF6FF70704737
:10203000406803689B691847704770477047000005
:1020400010B5044600F04EFB23680349D3F88C30EA
:102050002046BDE810401847000000D008B50368CE
:102060000446D3F880309847236820469B6F9847F2
:1020700000F0ECF8236820461B6F98472920FFF7F3
:1020800021F900F0E3F8236820461B6F9847F8E732
:1020900010B5044610F09AFA23682046D3F8AC3005
:1020A000BDE81040184700F00FBB00F013BB00F074
:1020B00037BB00F0DFBA00F0E5BA00F03DBB00F03E
:1020C000E9BA0FF0EEBC10B57C21044628F06DFF94
:1020D000204610BD90F87A301BB1406803681B6839
:1020E000184718467047000010B590F8341090F863
:1020F00078400C4B8C421A7809D03AB90A4A0B49FD
:102100001488088810800C8001221A7010BD002AE3
:10211000FCD0054A05491488088810800C800022EC
:10212000F3E700BF34380120303801203238012075
:1021300070B50D46194635B9094B0A4A0A4840F2AE
:10214000D22129F045FDC0E90F52084B003A18BFD3
:1021500001221A700368BDE87040D3F88C3018472C
:10216000F8CD020830CE02087ECE02083A380120AF
:1021700008B5094B1B888B4203D8084B1B88934238
:1021800005D9074B074A08489E2129F021FD074B36
:102190001980074B1A8008BD3038012032380120E1
:1021A000C3CE020826CF02087ECE020836380120B0
:1021B00038380120012108B5002208460BF004FE42
:1021C0000A4B186028B90A4B0A4A28210A4829F004
:1021D000FFFC0022042101200BF0AAFE074B18602F
:1021E00018B9074B034A2C21F0E708BD0809002065
:1021F00044D002088DD00208BCD002080409002097
:1022000036D10208024B4FF0FF3118680BF030BE98
:1022100008090020014B18680BF05EBE0809002079
:10222000024B002118680BF023BE00BF08090020F4
:10223000FFF7F0BF03480449006800231A460BF07B
:10224000B1BE00BF040900201400002013B5084CE3
:1022500000231A4601A920680BF0DAFE20684FF02F
:10226000FF33002201A90BF0D3FE02B010BD00BF66
:102270000409002070470020704770477047002015
:102280007047704708B5034A034B0448222129F0E0
:102290009FFC00BF9BD1020878D10208D9D1020867
:1022A00008B5034A034B0448272129F091FC00BFDD
:1022B00051D2020878D10208D9D1020810B54421C0
:1022C000044628F072FE204610BD000038B50446D2
:1022D00021460025064B25720C3060606572012294
:1022E00041F8203B10F0CAFAE562204638BD00BF35
:1022F00098D202080120704738207047382303FB2A
:10230000010008307047382303FB01000830704794
:102310000120704741F60450704741F6045303FB17
:1023200001000830704741F6045303FB01000830F8
:102330007047012070471020704700EB01100830F3
:10234000704700EB011008307047084602F08CBB64
:1023500010B5034B036004460EF0B9FA204610BDD9
:1023600050D3020810B50446FFF7F2FF2046402183
:1023700028F01BFE204610BD10B5034B0360044639
:102380000EF0A5FA204610BD1CD3020810B5044675
:10239000FFF7F2FF204641F60C5128F006FE2046DA
:1023A00010BD000010B5034B036004460EF08FFA19
:1023B000204610BDE8D2020810B50446FFF7F2FF30
:1023C0002046182128F0F1FD204610BD10B5094B1C
:1023D0000360044600F5E9501830FFF7B9FF04F137
:1023E0002C00FFF7C9FF04F11400FFF7DBFF2046C4
:1023F00010BD00BF84D3020808B50248FFF7E6FF0E
:1024000008BD00BF1009002010B50446FFF7DEFF2D
:10241000204641F6DC6128F0C8FD204610BD0000D2
:102420002DE9F34100F05CFA054600F05DFA002466
:102430000146234628462246009418F03DF9264BD3
:10244000264A274D1A60204606F014FB254818F04E
:102450009BF82B68BFF35B8FDB0736D4284628F048
:10246000A6FD90B3204C214B214F236004F5EC5680
:1024700004F1140004F12C086060C4F80880E760DF
:1024800026610EF025FA1B4B636140460EF020FAE0
:10249000194BE36238460EF01BFA04F58053174AD5
:1024A000C3F8382D03F6785006F05AFF2246A6F1FD
:1024B0000801304606F064FC304602F0D5FA1048B8
:1024C00029F0A4FB284628F07EFD0E4802B0BDE8A6
:1024D000F041FFF7B5BD00BFA0380120B0280020B3
:1024E0000C090020180000201009002084D30208E5
:1024F00048260020E8D202081CD3020850D3020864
:10250000F923000834280020704700000148FFF735
:10251000A5BD00BF3428002070B5224E224C234DAB
:10252000234B23603046FFF7D1FE28461CF090FB7A
:10253000204B2148DC6000224FF48071C3E9121265
:102540001E491A86C3E91A121D4999671D4983F865
:1025500058200B60F02101801B485A6601801B48FF
:1025600083F870204FF4A071C3E90422C3E9062266
:10257000C3E90822C3E90A22C3E90E22C3E91022F3
:10258000C3E91422C3E917225A67C3E90165018030
:102590000F4801800F490A70012283F834200E4A47
:1025A0001A6070BDF0270020EC270020B42800201E
:1025B000E8CD020834280020303801200100000155
:1025C000000001013C38012036380120323801205A
:1025D000383801203438012074CF020800207047B9
:1025E00081807047C1807047018170474181704789
:1025F0007047704770477047704710B4C4880368CD
:10260000121B84885B6D091B12B25DF8044B09B282
:1026100018474FF6FF7383814FF0FF33036213684F
:10262000C3611060704790F825201AB190F82420FB
:1026300002B118607047002070478B8883800120AA
:102640007047704780F82610704790F82600704752
:1026500010B50022B1F90840B1F90A100280428099
:102660008480C18010BD0022028042808280C280AE
:1026700070470000024B902283F85823704700BF38
:1026800000E100E0024B4FF080729A60704700BF9B
:1026900000E100E0094A0A49D3680A48C3F30A0383
:1026A000013B9BB20B801169C1F30A010139018022
:1026B0001364536B43F00103536370470068014098
:1026C0003A29002038290020014BD3F8AC0070478C
:1026D00000680140024B0122C3F8AC105A627047F7
:1026E0000068014070B504460FF031FA23685D6E52
:1026F00014F0A6FB01462046A8472368054AD3F8F4
:1027000088502046AC460023BDE87040A2F5163143
:10271000604700BF00B004D00FF000BA0FF00ABA53
:102720000FF0C5B90FF027BB90F8252012B1036850
:102730005B69184770470000044B4FF08072C3F884
:102740008820BFF34F8FBFF36F8F704700E100E029
:1027500070B50023124E8380124B0360336893F8E8
:10276000582005460AB1D86C00B998680368DB6A3E
:1027700098473368B0FA80F4D86C640930B10368C4
:10278000DB6A9847002808BF44F001042CB9064BC7
:10279000064A07482C2129F01BFA284670BD00BFC5
:1027A0003C38012094D4020890D30208EED30208EA
:1027B00027D40208704700002DE9F041FF2BBDF837
:1027C000184000EB410105D120F8024B8142FBD8B3
:1027D000BDE8F081174F04F4FC6604EA070C04F02E
:1027E0001F0403FB0CFC5E435C43DB43DBB2FF25B1
:1027F000B0F800E00EEA07020EF4FC6803FB02C228
:1028000003FB08680EF01F0EB2FBF5F2B8FBF5F8FB
:102810003A4008F4FC6842EA080203FB0E4EBEFB95
:10282000F5FE0EF01F0E42EA0E0220F8022B814246
:10283000DED8CDE700F8FFFF10B5144C236823B3B2
:10284000134B144A1B6C11888B4213D1124B1988FD
:1028500009F0F2FA226892F86A30013382F86A309D
:10286000FFF7E8FC20680FF0B1FEBDE81040002043
:10287000FFF760BB09F0E0FA206803681B6A98471D
:10288000BDE810400020FFF76DBB10BD3C380120B3
:10289000006801403A29002038290020704710B50F
:1028A0000421044628F081FB204610BD08B5032909
:1028B00013D8DFE801F002060A0E06F027F90068D7
:1028C00008BD06F023F94068FAE706F01FF98068B2
:1028D000F6E706F01BF9C068F2E70020F0E7000019
:1028E00000487047C0D402080C20704713B500247C
:1028F00051B1036801948DF8034001AA9C680DF161
:102900000303A04702B010BD0846FBE7C08970472B
:10291000008A7047C088704780887047807A00F0CE
:102920007F007047807AC0097047806A704770479F
:102930007047704770477047704730B50368018132
:1029400085B06D460146D3F8843004462846984742
:1029500095E807003C3484E8070005B030BD30B589
:102960000368418185B06D460146D3F88430044642
:102970002846984795E807003C3484E8070005B0EE
:1029800030BD0022028042808280C280704780F881
:102990003610704770B5036804461B6B15469847A0
:1029A0002368294620465B6EBDE87040184700202A
:1029B0007047806C704770470368DB6A184703688C
:1029C0001B6B184770477047704730B4C268446843
:1029D0005510034604EB6200D20748BF62599B685A
:1029E00030BC48BFD358184743682BB183682BB914
:1029F000C06800F00100704718467047012070471A
:102A000010B50821044628F0D0FA204610BD10B5B4
:102A10004C21044628F0C9FA204610BD10B51021FB
:102A2000044628F0C2FA204610BD10B58C21044699
:102A300028F0BBFA204610BD38B50546054B45F8D1
:102A4000E03B044612F0FAFC28460EF0AFFB2046AD
:102A500038BD00BFA8D8020810B50446FFF7ECFF48
:102A6000204641F6045128F0A0FA204610BD08B5D2
:102A7000FFF75AFE08BD0000036870B55E6B124B8D
:102A80001B6804468DB22BB9104B114A6C211148BA
:102A900029F09EF81049828D0988914203D80F4B86
:102AA0000B4A6D21F3E713F812200D4B1B6853F806
:102AB000220003681B6B9847281A01B23346204650
:102AC000BDE87040184700BF94380120B0D5020817
:102AD000F2D502082DD602089838012074D60208D3
:102AE0009C38012070B5036804461B6B1546984757
:102AF0002368294620465B6BBDE87040184770B5D7
:102B000004461D46BDF91060FFF7ECFF2368294617
:102B100020469B6B9847236831462046DB6BBDE817
:102B2000704018474FF4807100228184054901608C
:102B3000C0E90122C0E90322C0E90522C0E9072259
:102B400082627047CCF702080022C0E90122C0E986
:102B50000322C0E90522C0E907224FF48072828473
:102B6000014A0260704700BFF8D602081A4B73B5DD
:102B70001B88018F8B4206462BD9184B1B682BB93B
:102B8000174B184A18486C2129F022F813F8112025
:102B9000164B1B6853F82250154B186805F0A6FF1A
:102BA0002B6801909B6B284698472B6801999B6C7A
:102BB0000446284698472B6801995B6A14FB00F489
:102BC00028469847A4B223181BB2A6F8463002B094
:102BD00070BD0023F9E700BF983801209438012028
:102BE000B0D50208F2D502082DD602089C38012083
:102BF000A038012000224FF0FF31C0E9002182609F
:102C0000704710B50446FFF7F5FF204610BD0000E1
:102C100010B500210446262229F0DFF92046FFF7EF
:102C200093FF094B2360094BA3624FF6FF73A38503
:102C30004FF47F020023C4E90C32238704F13C00E7
:102C4000FFF7D8FF204610BD24FC020860D7020819
:102C500010B50446FFF7DCFF024B23600023A3649A
:102C6000204610BD00D8020810B504460B460D4999
:102C700044F8041B0246D3E9010184E80300D3E9C8
:102C8000030102F10C0484E80300D3E906015C6946
:102C9000D161196A9B8C1162C2E905409384104688
:102CA00010BD00BF4400030838B50D460446FFF7C9
:102CB000DBFFAB6AA3622B4B2360EB6AE3622B6BF7
:102CC00023636B6B636305F1380104F13800FFF790
:102CD000CBFF2B6E2366244BA36395F8643084F8F6
:102CE0006430B5F86630A4F8663005F1680104F187
:102CF0006800FFF7B9FFD5F89030C4F890301B4B4F
:102D0000A36605F1940104F19400FFF7ADFFB5F857
:102D1000BA30A4F8BA3095F8BC3084F8BC30144B03
:102D2000C4F89430B5F8BE30A4F8BE30B5F8C03061
:102D3000A4F8C03005F1C40104F1C400FFF794FF0A
:102D40000C4BC4F8C430B5F8EA30A4F8EA3095F872
:102D5000EC3084F8EC30B5F8F030A4F8F0302046D0
:102D600038BD00BF5CF8020820F9020870D70208DD
:102D70001CFD020800FF0208F0B500F1980399421B
:102D8000C1B004460D4603D114F05AF801F07CFEA0
:102D900004F51E739D4228D104F1E007394603A8CB
:102DA000FFF782FFFEF716FC322201460120FDF7F5
:102DB0005BFDFCEEE07AD8488DED010A17EE906AD3
:102DC00017EE901A0C230022CDED020AFDF764FEE7
:102DD000D24A33460A2104F61C6017F0DFF9384660
:102DE00015F016F903A80EF0E1F904F50F739D42F2
:102DF00028D104F1E007394603A8FFF755FFFEF795
:102E0000E9FB322201460120FDF72EFDFCEEE07ABF
:102E1000C1488DED010A17EE906A17EE901A0C2347
:102E20000122CDED020AFDF737FEBC4A33460A21E6
:102E300004F6086017F0B2F9384615F0E9F803A86F
:102E40000EF0B4F904F500739D4228D104F1E007B7
:102E5000394603A8FFF728FFFEF7BCFB32220146E4
:102E60000120FDF701FDFCEEE07AAB488DED010A93
:102E700017EE906A17EE901A0C230222CDED020A8B
:102E8000FDF70AFEA54A33460A2104F6F45017F06E
:102E900085F9384615F0BCF803A80EF087F904F55B
:102EA000A1639D4228D104F1E007394603A8FFF74A
:102EB000FBFEFEF78FFB322201460120FDF7D4FC1A
:102EC000FCEEE07A94488DED010A17EE906A17EE59
:102ED000901A0C230322CDED020AFDF7DDFD8F4A87
:102EE00033460A2104F6586017F058F9384615F0B1
:102EF0008FF803A80EF05AF904F2CC439D4228D172
:102F000004F1E007394603A8FFF7CEFEFEF762FBA7
:102F1000322201460120FDF7A7FCFCEEE07A7E4854
:102F20008DED010A17EE906A17EE901A0C23042219
:102F3000CDED020AFDF7B0FD784A33460A2104F6CA
:102F4000446017F02BF9384615F062F803A80EF02C
:102F50002DF904F592639D4228D104F1E00739462A
:102F600003A8FFF7A1FEFEF735FB32220146012040
:102F7000FDF77AFCFCEEE07A67488DED010A17EE6A
:102F8000906A17EE901A0C230522CDED020AFDF788
:102F900083FD624A33460A2104F5636017F0FEF8A8
:102FA000384615F035F803A80EF000F904F5F36380
:102FB0009D4228D104F1E007394603A8FFF774FECB
:102FC000FEF708FB322201460120FDF74DFCFCEE26
:102FD000E07A51488DED010A17EE906A17EE901ACB
:102FE0000C230622CDED020AFDF756FD4B4A33466F
:102FF0000A2104F6946017F0D1F8384615F008F865
:1030000003A80EF0D3F804F25C739D4228D104F1BA
:10301000E007394603A8FFF747FEFEF7DBFA322246
:1030200001460120FDF720FCFCEEE07A3A488DEDE8
:10303000010A17EE906A17EE901A0C230722CDEDC5
:10304000020AFDF729FD354A33460A2104F5686076
:1030500017F0A4F8384614F0DBFF03A80EF0A6F82A
:1030600004F5E4639D4228D104F1E007394603A842
:10307000FFF71AFEFEF7AEFA322201460120FDF7F5
:10308000F3FBFCEEE07A24488DED010A17EE906A1E
:1030900017EE901A0C230822CDED020AFDF7FCFC76
:1030A0001E4A33460A2104F66C6017F077F838465A
:1030B00014F0AEFF03A80EF079F804F628239D4221
:1030C0002ED104F1E007394603A8FFF7EDFDFEF726
:1030D00081FA322201460120FDF7C6FBFCEEE07AC0
:1030E0000D488DED010A17EE906A17EE901A0C2329
:1030F0000922CDED020AFDF7CFFC084A33460A212A
:1031000004F56D6017F04AF8384614F081FF03A803
:103110000EF04CF804E000BF00001E08B2D6020812
:1031200004F6EC139D4228D104F1E007394603A8C8
:10313000FFF7BAFDFEF74EFA322201460120FDF7F5
:1031400093FBFCEEE07A24488DED010A17EE906ABD
:1031500017EE901A0C230A22CDED020AFDF79CFC13
:103160001E4A33460A2104F6BC6017F017F83846A9
:1031700014F04EFF03A80EF019F804F51B639D42EE
:1031800028D104F1E006314603A8FFF78DFDFEF7D4
:1031900021FA322201460120FDF766FBFCEEE07ABF
:1031A0000D488DED010A17EE905A17EE901A0C2378
:1031B0000B22CDED020AFDF76FFC084A2B460A21CF
:1031C00004F6A86016F0EAFF304614F021FF03A8C9
:1031D0000DF0ECFF41B0F0BD00001E08B2D60208B1
:1031E000520149010FF036BF520149010FF03DBFB6
:1031F00010B4C46BB4EB411F4FEA411204D05DF828
:10320000044BC2630FF030BE5DF8044B7047000002
:103210002DE9F04F2DED108B0446ADB0A1460025F1
:1032200015F08EFAE54BE56349F8403B2622294626
:10323000484628F0D2FE4846FFF786FC04F16C08A9
:10324000FF26DF4B236426224FF6FF73294684F8BE
:1032500066604046A566ADF8A43028F0BEFE404644
:10326000FFF772FCD74BE36684F89460BDF8A43096
:10327000A4F8923029AE314604F1980B404611F083
:10328000E0F8584611F014FA04F1E003184608EE8D
:10329000103A0EF0B9F804F5EA73184608EE903AC1
:1032A000FFF740FC04F500731846119311F0A2F8E3
:1032B00004F50F7304F51E771846129311F09AF86F
:1032C000384611F097F804F52D7318460DEE903A34
:1032D000FFF7BEFC04F5407318460EEE103AFFF7F8
:1032E000B7FC04F5537318460EEE903AFFF7B0FCA6
:1032F00004F5667318460AEE903A0FF095FD04F552
:10330000816318461C93FFF723FAAF4BC4F80834C7
:1033100003F1240204F21C41C4F810240846C4F846
:10332000145404F2644A0791FFF772FC5046FFF709
:10333000F9FB04F592610846139111F05BF804F271
:10334000CC410846149111F055F804F5A1610846E6
:10335000159111F04FF804F2445108460891FFF717
:1033600077FC04F5B26108460991FFF771FC04F29D
:10337000DC5108460A91FFF76BFC04F5C56108466D
:103380000BEE101A0FF050FD04F5D36108461D91A5
:10339000FFF7DEF98C4BC4F8983603F1240204F2EF
:1033A000AC61C4F8A0260846C4F8A4560FEE101A63
:1033B000FFF72EFC04F2F461084609EE101AFFF73D
:1033C000B1FB04F5E4610846169111F013F804F21C
:1033D0005C710846179111F00DF804F5F361084689
:1033E000189111F007F804F2D47108460B91FFF719
:1033F0002FFC04F5026108460C91FFF729FC04F646
:103400006C0108460D91FFF723FC04F6B80108464D
:103410000BEE901A0FF008FD04F6281108461E91D5
:10342000FFF796F9684BC4F8283903F1240204F633
:103430003C11C4F830290846C4F834590FEE901AEC
:10344000FFF7E6FB04F68411084609EE901AFFF731
:1034500069FB04F51B610846199110F0CBFF04F6D7
:10346000EC1108461A9110F0C5FF04F62821084611
:103470001B9110F0BFFF04F6642108460E91FFF780
:10348000E7FB04F52B6108460F91FFF7E1FB04F61B
:10349000FC2108461091FFF7DBFB04F64831084693
:1034A0000CEE101A0FF0C0FC04F6B83108461F915C
:1034B000FFF74EF9444BC4F8B83B03F1240204F67D
:1034C000CC31C4F8C02B0846C4F8C45B0391FFF7A5
:1034D0009FFB04F6144108460CEE901A0FF0A4FC72
:1034E00004F6844108462091FFF732F9364BC4F8C0
:1034F000843C03F1240204F69841C4F88C2C08465D
:10350000C4F8905C0491FFF783FB04F54E61084614
:103510000DEE101A0FF088FC04F555610846219154
:10352000FFF716F9284BC4F8503D03F1240204F6C6
:103530006453C4F8582D1846C4F85C5D0593FFF732
:1035400067FB04F6AC5318460693FFF761FB04F5DE
:1035500080531E4AC3F8F42C1D4AC3F8FC2CC3F850
:10356000F84CC3F8005D4FF4616104F6E46011F0BB
:103570005BFF4FF4A0732A46484600932946F02388
:10358000FFF7BDFA4FF07F43A366231D1846494657
:103590000AEE103A0DF07CFB2A4640462946FFF71A
:1035A000A1FA4FF0080340463146ADF8A43010F0C0
:1035B00048FF41461AEE100A0CE000BFA8D80208E6
:1035C000B4FC020800FF0208E8F9020890D80208DB
:1035D000792D00080DF05CFB584640F201122121C4
:1035E000FFF780FA0323324628A95846ADF8A030E9
:1035F0000223ADF8A43010F02EFD1F235846A4F886
:10360000D030FFF7B3FA4FF0FF33C4E9353304F598
:10361000E7531433C4F8C03059461AEE100A029327
:103620000DF036FB18EE100A55222946FFF75AFA1C
:10363000062318EE100AADF8A0303246072328A959
:10364000ADF8A4300DF07EFF8C2218EE100A502148
:103650000DF026FE18EE100A32210DF0A4FD18EE32
:10366000100A32210DF01AFE474B1198C4F8DC31D4
:103670006122C221FFF736FA4FF009084FF0010B23
:1036800027AA1198009628AB26A9ADF89850ADF856
:103690009CB0ADF8A080ADF8A48010F016FE029B9F
:1036A000C4F828321199C4F8385218EE900A0DF077
:1036B000EFFA12983D22C221FFF714FA27AA1298B6
:1036C000009628AB26A9ADF89850ADF89CB0ADF89F
:1036D000A080ADF8A48010F0F8FD029BC4F864321D
:1036E0001299C4F8745218EE900A0DF0D1FA3846C7
:1036F0001922C221FFF7F6F927AA384628AB26A9D6
:103700000096ADF89850ADF89CB0ADF8A080ADF83B
:10371000A48010F0DAFD029BC4F8A032394618EEFE
:10372000900AC4F8B0520DF0B3FA68221DEE900A68
:103730000A21FFF7D7F94FF0FF33C4F8E432D4F889
:10374000B432A4F8E85222AFD3F884301DEE901AB8
:103750003846984797E8070004F53C7383E807006C
:103760000A4B1B6804F6F4592BB9094B094A60212E
:10377000094828F02DFA094B1B88092B12D8084B51
:10378000044A6121F4E700BFF000AC009438012046
:10379000B0D50208B5D602082DD602089838012007
:1037A00074D60208D84B4146186805F09FF9D74AED
:1037B00003460A21484616F0F1FC1DEE900AC4F8B3
:1037C000FC9210F06DF84FF00A09D14A29921DEED3
:1037D000900A3146ADF8A89010F082F81DEE901ACC
:1037E00018EE900A0DF054FA44221EEE100A16212B
:1037F000FFF778F9D4F80033A4F834534FF0FF31D1
:10380000D3F88430C4F8301338461EEE101A9847A7
:1038100097E8070004F54F7383E8070004F6086192
:103820001191BC490B68002B9FD0BB490B880B2B17
:10383000A5D9B54B0B21186805F058F9B34A0346D2
:103840004946119816F0AAFC1198C4F848031EEED8
:10385000100A10F025F80C23AD4AADF8A8301EEE82
:10386000100A3146299210F03BF81EEE101A18EE9D
:10387000900A0DF00DFA20221EEE900A1621FFF795
:1038800031F9D4F84C33A4F880534FF0FF30D3F81B
:103890008430C4F87C031EEE901A3846984797E8A7
:1038A000070004F5627383E8070004F61C601190BA
:1038B00098480368002B3FF458AF97490B880D2BAD
:1038C0007FF65DAF904B0D21186805F00FF98F4A18
:1038D00003464946119816F061FC1198C4F8940308
:1038E0001EEE900A0FF0DCFF894A299214231EEE87
:1038F000900A3146ADF8A8300FF0F2FF1EEE901A94
:1039000018EE900A0DF0C4F9F0231AEE900A0F2277
:103910002946CDF80090FFF7F2F84FF0FF3C1C98D5
:10392000C4F814C40522A4F818C41146C4F8C0038E
:103930001AEE900AFFF754FC05221AEE900AEB21CA
:10394000FFF752FC1AEE900A5946FFF751FC1AEEA7
:10395000900A59460FF094FB1AEE901A18EE900A4E
:103960000DF096F92A4607986021FFF7BBF84FF053
:10397000FF3E38460799C4F84CE4A4F850540FF0C1
:1039800015FD97E8070004F58B6383E807004FF007
:10399000080E5F4A0798ADF8A8E0314629920FF06B
:1039A0009FFF079918EE900A0DF072F918EE901A21
:1039B00018EE100A0DF04FFE584A1398C4F86C2404
:1039C000C2216122FFF78EF80DF1A00E73460DF1B2
:1039D0009C0E72460DF1980E714613980096ADF844
:1039E0009850ADF89CB0ADF8A080ADF8A48010F070
:1039F0006CFC029F1399C4F8B8745046C4F8C854BC
:103A00000DF046F914983D22C221FFF76BF80DF135
:103A1000A00E73460DF19C0E72460DF1980E714684
:103A200014980096ADF89850ADF89CB0ADF8A08011
:103A3000ADF8A48010F049FC029F1499C4F8F47406
:103A40005046C4F804550DF023F915981922C221E7
:103A5000FFF748F80DF1A00E73460DF19C0E72466B
:103A60000DF1980E714615980096ADF89850ADF886
:103A70009CB0ADF8A080ADF8A48010F026FC029FA9
:103A80001599C4F830755046C4F840550DF000F94A
:103A9000682249460898FFF725F84FF0FF3EC4F822
:103AA00074E5A4F878553046FFF7A4F896E80700C7
:103AB00004F5B06383E807001648036804F56367FC
:103AC000002B3FF452AE14490B88122B7FF657AEF1
:103AD0000D4B1221186805F009F80C4A03464946B7
:103AE000384616F05BFB0898C4F88C750FF0D8FECA
:103AF000074F0898299713233146ADF8A8300FF0E7
:103B0000EFFE089950460BE0A0380120EDD60208E0
:103B100060D702089438012098380120F000AC00EA
:103B20000DF0B6F8162109984422FEF7DBFF4FF09E
:103B3000FF32C4F8C025A4F8C4553046FFF75AF840
:103B400096E8070004F2CC5383E80700D9480368DD
:103B500004F64465002B3FF408AED7490B88102BC0
:103B60007FF60DAED54BDFF84CB31868102104F08A
:103B7000BDFFD34A03464946284616F00FFB099875
:103B8000C4F8D85529AD0FF08BFE11230998ADF874
:103B9000A830294629970FF0A3FE099950460DF049
:103BA00077F84FF0FF36202216210A98FEF79AFF89
:103BB000C4F80C660026A4F810662846FFF71AF829
:103BC00095E8070004F5C36383E80700DBF80030DD
:103BD00004F65867002B3FF4C8ADB7490B880F2B8C
:103BE0007FF6CDADB54B0F21186804F07FFFB44AC6
:103BF00003464946384616F0D1FA0A98C4F82476A6
:103C00000FF04EFEAF4F0A9829974FF0140E294639
:103C1000ADF8A8E00FF064FE50460A990DF038F8B0
:103C2000F0231BEE100ACDF800900F223146FEF76C
:103C300066FF4FF0FF32C4F8A4261D9AC4F8502640
:103C40004FF0FF3C0522A4F8A8C611461BEE100A4F
:103C5000FFF7C6FA05221BEE100AEB21FFF7C4FAA4
:103C60001BEE100A0121FFF7C3FA1BEE100A012117
:103C70000FF006FA50461BEE101A0DF009F81FEE71
:103C8000100A32465C21FEF72DFF4FF0FF321FEE87
:103C9000101AC4F8DC2622A8A4F8E0660FF086FB10
:103CA0001FEE102A0DF1880C02F13C039CE807007E
:103CB00083E807000E231FEE100A2946ADF8A8304E
:103CC00029970FF00DFE50461FEE101A0CF0E0FF82
:103CD000514618EE100A0DF0BEFC7B48C4F8FC06F5
:103CE00061221698C221FEF7FDFE0DF1A00C63467D
:103CF0000DF19C0C62460DF1980C0927614616984F
:103D00000095C8464FF00109ADF89860ADF89C9059
:103D1000ADF8A070ADF8A47010F0D7FA029A169919
:103D2000C4F8482719EE100AC4F858670CF0B0FF21
:103D300017983D22C221FEF7D5FE0DF1A00C634677
:103D40000DF19C0C62460DF1980C61461798009598
:103D5000ADF89860ADF89C90ADF8A070ADF8A47087
:103D600010F0B3FA029A1799C4F8842719EE100AD2
:103D7000C4F894670CF08CFF18981922C221FEF742
:103D8000B1FE0DF1A00C63460DF19C0C62460DF1E5
:103D9000980C614618980095ADF89860ADF89C9025
:103DA000ADF8A070ADF8A47010F08FFA029A1899CF
:103DB000C4F8C02719EE100AC4F8D0670CF068FFE9
:103DC000682241460B98FEF78DFE4FF0FF3CC4F889
:103DD00004C8A4F808682846FEF70CFF95E8070019
:103DE00004F5016383E80700DBF8003004F66C6A31
:103DF000002B3FF4BAAC30490B88072B7FF6BFACE1
:103E00002E4B0721186804F071FE2D4A03464146E7
:103E1000504616F0C3F90B98C4F81CA80FF040FDEB
:103E2000284A0B9829922946ADF8A8800FF058FD32
:103E30000B9919EE100A0CF02BFF442216210C9856
:103E4000FEF750FE4FF0FF3CC4F850C8A4F8546889
:103E50002846FEF7CFFE95E8070004F65C0383E8EA
:103E60000700DBF8003004F5686A002B3FF47DACF6
:103E700011490B88062B7FF682AC104B062118687F
:103E800004F034FE0E4A03464146504616F086F9C9
:103E90000C98C4F868A80FF003FD0C23094A0C988D
:103EA000ADF8A830294629920FF01AFD0C9919EEA9
:103EB000100A0BE09438012098380120A038012026
:103EC000EDD6020860D70208F000AC000CF0E0FE6E
:103ED000202216210D98FEF705FE4FF0FF3CC4F896
:103EE0009CC8A4F8A0682846FEF784FE95E8070061
:103EF00004F6A80383E80700DBF8003004F6946AB0
:103F0000002B3FF432ACD9490B88052B7FF637AC38
:103F1000D74B0521186804F0E9FDD64A034641460F
:103F2000504616F03BF90D98C4F8B4A80FF0B8FC51
:103F30004FF0140ED04A0D98ADF8A8E0294629920A
:103F40000FF0CEFC0D9919EE100A0CF0A1FE1BEE3D
:103F5000900AF0230F223146CDF80080FEF7CFFD06
:103F60004FF6FF734FF0FF3C1E98A4F83839052236
:103F7000C4F834C91146C4F8E0081BEE900AFFF7F4
:103F80002FF905221BEE900AEB21FFF72DF91BEE0E
:103F9000900A4946FFF72CF91BEE900A49460FF0AC
:103FA0006FF81BEE901A19EE100A0CF071FE3246F3
:103FB0001FEE900A4921FEF795FD4FF0FF3CC4F833
:103FC0006CC90DF1880C60461FEE901AA4F8706958
:103FD0000FF0ECF91FEE900A0DF1880C00F13C0394
:103FE0009CE8070083E807000423A34AADF8A83043
:103FF00029461FEE900A29920FF072FC1FEE901ACC
:1040000019EE100A0CF044FE19EE101A18EE100A00
:104010000DF021FB9948C4F88C0961221998C2213E
:10402000FEF760FD28AA26A81346014600951998B8
:10403000ADF8986027AAADF89C90ADF8A070ADF8E7
:10404000A47010F042F9029A1999C4F8D82919EE0F
:10405000900AC4F8E8690CF01BFE1A983D22C221B0
:10406000FEF740FD28AA26A81346014600951A9897
:10407000ADF8986027AAADF89C90ADF8A070ADF8A7
:10408000A47010F022F9029A1A99C4F8142A19EEB1
:10409000900AC4F8246A0CF0FBFD1B981922C22177
:1040A000FEF720FD28AA26A81346014600951B9876
:1040B000ADF8986027AAADF89C90ADF8A070ADF867
:1040C000A47010F002F9029A1B99C4F8502A19EE54
:1040D000900AC4F8606A0CF0DBFD41460E98682235
:1040E000FEF700FD4FF0FF32C4F8942A2846A4F8EA
:1040F000986AFEF77FFD95E8070004F52A6383E8D8
:104100000700DBF8003004F6A865002B3FF42DAB68
:1041100056490B88032B7FF632AB554BDFF858A17D
:104120001868032104F0E2FC524A0346414628463F
:1041300016F034F80E98C4F8AC5A29AD0FF0B0FB65
:104140000E98CDF8A4A02946ADF8A8800FF0C8FBC2
:104150000E9919EE900A0CF09BFD4FF0FF374422A8
:1041600016210F98FEF7BEFCC4F8E07AA4F8E46AC2
:104170002846FEF73FFD95E8070004F6EC2383E8A8
:104180000700DBF8003004F6BC69002B3FF4EDAA11
:1041900036490B88022B7FF6F2AA354B02211868AC
:1041A00004F0A4FC334A03464146484615F0F6FFA6
:1041B0000F98C4F8F89A0FF073FB4FF00C020F98A9
:1041C000ADF8A8202946CDF8A4A00FF089FB0F99DF
:1041D00019EE900A0CF05CFD202216211098FEF7D3
:1041E00081FCC4F82C7BA4F8306B2846FEF702FD56
:1041F00095E8070004F6383383E80700DBF8003061
:1042000004F56D69002B3FF4B0AA18490B88012B07
:104210007FF6B5AA164B0121186804F067FC154A11
:1042200003464146484615F0B9FF1098C4F8449B30
:104230000FF036FB14231098ADF8A8302946CDF8BE
:10424000A4A00FF04DFB109919EE900A0CF020FD80
:104250001CEE100A3146CDF80080F0230F22FEF745
:104260004EFC1F9BC4F8703B052209E098380120E2
:10427000A0380120EDD6020860D70208F000AC009B
:104280001CEE100A1146C4F8C47BA4F8C87BFEF7E4
:10429000A7FF05221CEE100AEB21FEF7A5FF1CEE7E
:1042A000100A0121FEF7A4FF1CEE100A01210EF0F6
:1042B000E7FE1CEE101A19EE900A0DF188090CF0B9
:1042C000E7FC324603984921FEF70CFC0399C4F839
:1042D000FC7B4846A4F8006C0FF068F899E80700EA
:1042E000039BCDF8A4A03C3383E807000398ADF806
:1042F000A86029460FF0F4FA039919EE900A0CF021
:10430000C7FC19EE901A18EE100A0DF0A4F918EE79
:10431000100A31460DF090F918EE101A1AEE100A34
:104320000CF0B6FC1CEE900A3146CDF80080F0236C
:104330004B22FEF7E4FB4FF6FF73A4F8943C0522F2
:10434000209BC4F83C3C1CEE900A1146C4F8907CBB
:10435000FEF746FF05221CEE900AEB21FEF744FF14
:104360001CEE900A0121FEF743FF1CEE900A01218A
:104370000EF086FE1CEE901A1AEE100A0CF088FC65
:1043800004983C224621FEF7ADFB0499C4F8C87C92
:104390004846A4F8CC6C0FF009F899E80700049B94
:1043A000CDF8A4A03C3383E807001E230498ADF8A1
:1043B000A83029460FF094FA04991AEE100A0CF06E
:1043C00067FC1DEE100A3146CDF80080F023322242
:1043D000FEF795FB219BC4F8083D05221DEE100A4F
:1043E0001146C4F85C7DA4F8607DFEF7F9FE052255
:1043F0001DEE100AEB21FEF7F7FE1DEE100A01215B
:10440000FEF7F6FE1DEE100A01210EF039FE1DEE3C
:10441000101A1AEE100A0CF03BFC059823224521D5
:10442000FEF760FB0599C4F8947D4846A4F8986DA2
:104430000EF0BCFF99E80700059BCDF8A4A03C3323
:1044400083E8070020230598ADF8A83029460FF02F
:1044500047FA05991AEE100A0CF01AFC06980C227D
:104460003621FEF73FFB0699C4F8DC7D4846A4F8E8
:10447000E06D0EF09BFF99E80700069BCDF8A4A025
:104480003C3383E8070021230698ADF8A83029467D
:104490000FF026FA1AEE100A06990CF0F9FB2046E6
:1044A0002DB0BDEC108BBDE8F08F00BF704770479A
:1044B00000F598730868496803C3704770477047F0
:1044C0004160704710B50022B1F90840B1F90A10F7
:1044D000028042808480C18010BD70477047000018
:1044E000064BC0F84C310023C0F8503100F5A273E0
:1044F000C0F84801C0F84031704700BF9D4800082F
:1045000001230372704770477047704770477047C8
:1045100001464068036810315B6E184701464068E9
:10452000036810311B6E18477047014640680368E6
:1045300010315B6E184701464068036810311B6EEE
:104540001847704710B4C26841685410034601EB25
:104550006200D20748BF0A599B685DF8044B48BF08
:10456000D358184743682BB183682BB9C06800F053
:1045700001007047184670470120704710B50C21A4
:10458000044626F012FD204610BD10B51021044649
:1045900026F00BFD204610BD10B54FF4AE71044659
:1045A00026F003FD204610BD10B53821044626F044
:1045B000FCFC204610BD10B52821044626F0F5FC71
:1045C000204610BD10B53821044626F0EEFC2046EA
:1045D00010BD10B512F034FC0368BDE81040DB6B71
:1045E0001847000013B50446807A637A0130C0B2E0
:1045F0009842A07205D9012323720023A37202B04E
:1046000010BDB4F90C20002114F08AFA10F0010258
:1046100083B22AD1E081194AB4F90E00E3891288E5
:10462000B4F91410A0820020D21AADF8020060681C
:1046300022835B1A124AADF804300368B2F90020F5
:104640001B69ADF80010ADF8062069469847A37ABB
:10465000012BD4D10B4B1B78002BD0D012F0F0FBE8
:1046600002B0BDE8104012F0F1BB4FF6FF71002818
:10467000D8BF0A461344E381CDE700BF303801209C
:10468000323801203A38012010B50446D0F84001F4
:1046900058B10368DB68984738B1D4F84001036823
:1046A0009B6898470023C4F8403110BD2DE9F14FB5
:1046B000D0E9555A0746A86803681B6A98479728A7
:1046C00005D8464B464AA321464827F081FA686838
:1046D00003681B6A98470F2803D8434B404AA4211C
:1046E000F2E7E86803681B6A98470B2803D83F4B3A
:1046F0003B4AA521E8E712F0A3FBDFF8F89004306D
:1047000012F004FCD9F8000010B10368DB68984788
:10471000D9F8000010B103681B689847DFF8D8800B
:10472000D8F8000010B103685B699847D7F83C01DE
:1047300010B103685B689847D8F8000010B10368AF
:104740001B689847D7F83C0110B103689B689847ED
:10475000E868036800215B6A98474FF0000B244B20
:1047600003600446C0F804B080F808B0A868036885
:1047700059465B6A9847064604F0A4FE68680368D9
:1047800059465B6A98473146054604F077FEC9F8FA
:104790000040C7F83C51C8F80060E5B12B1DCAF8CD
:1047A00000303368C5F808A03046DB68F5639847E9
:1047B0002B6828461B6898472146304614F06CF950
:1047C000236820461B69984723685B69204601B02F
:1047D000BDE8F04F18472B46E1E700BFDCD80208E0
:1047E0006AD9020878DA0208BFDA020862DB020836
:1047F0001CEC0208843801208038012037B50446BB
:10480000807A637A0130C0B29842A07205D9012340
:1048100023720023A37203B030BDB4F90C20002131
:1048200014F07EF910F0010283B228D1E081184B18
:1048300018481988258BE389B0F90000ADF8060007
:10484000CA1A60682B445B1A12B2ADF804300368D0
:104850002283ADF8002000221B69ADF802206946D2
:104860009847A37A012BD6D10B4B1B78002BD2D0C3
:1048700012F0E6FA03B0BDE8304012F0E7BA4FF6A6
:10488000FF710028D8BF0A461344E381CFE700BF79
:1048900030380120323801203A3801202DE9F14F1B
:1048A000D0E9555A0746A86803681B6A984741F241
:1048B0007B13984205D8464B464AA321464827F029
:1048C00087F9686803681B6A98470F2803D8434B29
:1048D000404AA421F2E7E86803681B6A98470B285E
:1048E00003D83F4B3B4AA521E8E712F0A9FADFF8CD
:1048F000F890043012F00AFBD9F8000010B10368F8
:10490000DB689847D9F8000010B103681B68984726
:10491000DFF8D880D8F8000010B103685B699847C9
:10492000D7F83C0110B103685B689847D8F80000DD
:1049300010B103681B689847D7F83C0110B10368B1
:104940009B689847E868036800215B6A98474FF0C6
:10495000000B244B03600446C0F804B080F808B094
:10496000A868036859465B6A9847064604F04EFA01
:104970006868036859465B6A98473146054604F003
:104980001FFAC9F80040C7F83C51C8F80060E5B10B
:104990002B1DCAF800303368C5F808A03046DB6824
:1049A000F56398472B6828461B6898472146304690
:1049B00014F072F8236820461B69984723685B69E6
:1049C000204601B0BDE8F04F18472B46E1E700BF95
:1049D000DCD8020805DC020878DA0208BFDA02082F
:1049E00062DB02081CEC02088438012080380120B8
:1049F000044B1B6893F858200AB1D86C00B998682A
:104A0000704700BF3C380120F8B5044617460E46F3
:104A100012F04AFB104B1C60104B2360104B00251A
:104A2000C4E951350F4BC4E9535518680368012197
:104A30009B68C4E94F55C4E955769847284604F069
:104A400019F8FFF7D5FF1BF032FFFFF7D1FF1BF07E
:104A5000A9FF2046F8BD00BF90380120C8EB02082E
:104A6000B0EB02083C380120064BC0F84C31002363
:104A7000C0F8503100F5A273C0F84801C0F84031C9
:104A8000704700BF9D480008064BC0F84C3100231A
:104A9000C0F8503100F5A273C0F84801C0F84031A9
:104AA000704700BF0D4F0008064BC0F84C31002383
:104AB000C0F8503100F5A273C0F84801C0F8403189
:104AC000704700BFB15A0008064BC0F84C310023B4
:104AD000C0F8503100F5A273C0F84801C0F8403169
:104AE000704700BFCD4D0008064BC0F84C31002385
:104AF000C0F8503100F5A273C0F84801C0F8403149
:104B0000704700BF71590008064BC0F84C310023B4
:104B1000C0F8503100F5A273C0F84801C0F8403128
:104B2000704700BF31580008064BC0F84C310023D5
:104B3000C0F8503100F5A273C0F84801C0F8403108
:104B4000704700BFF1560008064BC0F84C310023F7
:104B5000C0F8503100F5A273C0F84801C0F84031E8
:104B6000704700BFB1550008064BC0F84C31002318
:104B7000C0F8503100F5A273C0F84801C0F84031C8
:104B8000704700BF8D4C0008064BC0F84C31002325
:104B9000C0F8503100F5A273C0F84801C0F84031A8
:104BA000704700BF71540008064BC0F84C31002319
:104BB000C0F8503100F5A273C0F84801C0F8403188
:104BC000704700BF31530008064BC0F84C3100233A
:104BD000C0F8503100F5A273C0F84801C0F8403168
:104BE000704700BFF1510008064BC0F84C3100235C
:104BF000C0F8503100F5A273C0F84801C0F8403148
:104C0000704700BFB1500008064BC0F84C3100237C
:104C1000C0F8503100F5A273C0F84801C0F8403127
:104C2000704700BFAD46000803685B6A1847000084
:104C3000124B13B503604FF480734363104B417202
:104C400003611049104BB1F90010B3F900308381B2
:104C50000022426002728272C281C0E90522C0E96C
:104C60000722C0E90922C0E90B2204460091103056
:104C70001146FDF744FF204602B010BD64EC020867
:104C800048EB020832380120303801202DE9F04786
:104C9000D0E9554A0746A06803681B6A9847B0F5F3
:104CA0008A5F05D2424B434AA321434826F090FF36
:104CB000606803681B6A98470F2803D83F4B3D4A3A
:104CC000A421F2E7E06803681B6A9847372803D8F5
:104CD0003B4B384AA521E8E712F0B2F8DFF8E49040
:104CE000043012F013F9D9F8000010B10368DB6842
:104CF0009847D9F8000010B103681B689847DFF89F
:104D0000C880D8F8000010B103685B699847D7F8ED
:104D10003C0110B103685B689847D8F8000010B1F7
:104D200003681B689847D7F83C0110B103689B687B
:104D30009847E0680021FFF777FF14210546FFF749
:104D400077FFA068036800215B6A9847064604F075
:104D50001DF96068036800215B6A98473146044684
:104D600004F0EEF8C9F80050C7F83C41C8F80060FC
:104D7000DCB1231DCAF800303368C4F808A03046FF
:104D8000DB68F4639847236820461B6898472946E8
:104D9000304613F081FE2B6828461B6998472B6824
:104DA00028465B69BDE8F04718472346E2E700BFA5
:104DB000DCD802080DDD020878DA0208BFDA020842
:104DC00062DB020884380120803801202DE9F04799
:104DD000D0E9554A0746A06803681B6A9847B0F5B2
:104DE0008A5F05D2424B434AA321434826F0F0FE96
:104DF000606803681B6A98470F2803D83F4B3D4AF9
:104E0000A421F2E7E06803681B6A9847372803D8B3
:104E10003B4B384AA521E8E712F012F8DFF8E4909E
:104E2000043012F073F8D9F8000010B10368DB68A1
:104E30009847D9F8000010B103681B689847DFF85D
:104E4000C880D8F8000010B103685B699847D7F8AC
:104E50003C0110B103685B689847D8F8000010B1B6
:104E600003681B689847D7F83C0110B103689B683A
:104E70009847E0680021FFF7D7FE14210546FFF7A9
:104E8000D7FEA068036800215B6A9847064604F0D5
:104E90001DF86068036800215B6A98473146044644
:104EA00003F0EEFFC9F80050C7F83C41C8F80060B5
:104EB000DCB1231DCAF800303368C4F808A03046BE
:104EC000DB68F4639847236820461B6898472946A7
:104ED000304613F0E1FD2B6828461B6998472B6884
:104EE00028465B69BDE8F04718472346E2E700BF64
:104EF000DCD802083DDE020878DA0208BFDA0208D0
:104F000062DB020884380120803801202DE9F04757
:104F1000D0E9554A0746A06803681B6A984741F2E2
:104F20007B13984205D8424B424AA321424826F0BF
:104F30004FFE606803681B6A98470F2803D83F4BF1
:104F40003C4AA421F2E7E06803681B6A98473728C7
:104F500003D83B4B374AA521E8E711F071FFDFF892
:104F6000E490043011F0D2FFD9F8000010B10368CA
:104F7000DB689847D9F8000010B103681B689847B0
:104F8000DFF8C480D8F8000010B103685B69984767
:104F9000D7F83C0110B103685B689847D8F8000067
:104FA00010B103681B689847D7F83C0110B103683B
:104FB0009B689847E0680021FFF736FE14210546FC
:104FC000FFF736FEA068036800215B6A9847064633
:104FD00003F01CFF6068036800215B6A9847314654
:104FE000044603F0EDFEC9F80050C7F83C41C8F88C
:104FF0000060DCB1231DCAF800303368C4F808A093
:105000003046DB68F4639847236820461B6898475E
:105010002946304613F040FD2B6828461B69984707
:105020002B6828465B69BDE8F04718472346E2E74E
:10503000DCD802085BDF020878DA0208BFDA02086F
:1050400062DB0208843801208038012003685B6A33
:1050500018470000124B13B503604FF4807343638D
:10506000104B417203611049104BB1F90010B3F9B4
:10507000003083810022426002728272C281C0E9E4
:105080000522C0E90722C0E90922C0E90B22044633
:10509000009110301146FDF732FD204602B010BDE0
:1050A00040EC020848EB0208323801203038012079
:1050B0002DE9F047D0E9554A0746A06803681B6A06
:1050C000984741F2AF03984205D8424B424AA32188
:1050D000424826F07DFD606803681B6A98470F28E8
:1050E00003D83F4B3C4AA421F2E7E06803681B6AFF
:1050F0009847372803D83B4B374AA521E8E711F0FA
:105100009FFEDFF8E490043011F000FFD9F80000B2
:1051100010B10368DB689847D9F8000010B1036844
:105120001B689847DFF8C480D8F8000010B1036806
:105130005B699847D7F83C0110B103685B689847F2
:10514000D8F8000010B103681B689847D7F83C01F5
:1051500010B103689B689847E0680021FFF776FF6D
:1051600014210546FFF776FFA068036800215B6AFB
:105170009847064604F04EF96068036800215B6AB0
:1051800098473146044604F01FF9C9F80050C7F8A3
:105190003C41C8F80060DCB1231DCAF80030336818
:1051A000C4F808A03046DB68F463984723682046BB
:1051B0001B6898472946304613F06EFC2B6828463A
:1051C0001B6998472B6828465B69BDE8F04718477C
:1051D0002346E2E7DCD8020875E0020878DA020824
:1051E000BFDA020862DB020884380120803801201F
:1051F0002DE9F047D0E9554A0746A06803681B6AC5
:10520000984741F60353984205D8424B424AA3219E
:10521000424826F0DDFC606803681B6A98470F2847
:1052200003D83F4B3C4AA421F2E7E06803681B6ABD
:105230009847372803D83B4B374AA521E8E711F0B8
:10524000FFFDDFF8E490043011F060FED9F80000B3
:1052500010B10368DB689847D9F8000010B1036803
:105260001B689847DFF8C480D8F8000010B10368C5
:105270005B699847D7F83C0110B103685B689847B1
:10528000D8F8000010B103681B689847D7F83C01B4
:1052900010B103689B689847E0680021FFF7D6FECD
:1052A00014210546FFF7D6FEA068036800215B6A5B
:1052B0009847064603F076FC6068036800215B6A45
:1052C00098473146044603F047FCC9F80050C7F838
:1052D0003C41C8F80060DCB1231DCAF800303368D7
:1052E000C4F808A03046DB68F4639847236820467A
:1052F0001B6898472946304613F0CEFB2B6828469A
:105300001B6998472B6828465B69BDE8F04718473A
:105310002346E2E7DCD8020895E1020878DA0208C1
:10532000BFDA020862DB02088438012080380120DD
:105330002DE9F047D0E9554A0746A06803681B6A83
:10534000984741F25B03984205D8424B424AA32159
:10535000424826F03DFC606803681B6A98470F28A6
:1053600003D83F4B3C4AA421F2E7E06803681B6A7C
:105370009847372803D83B4B374AA521E8E711F077
:105380005FFDDFF8E490043011F0C0FDD9F80000B3
:1053900010B10368DB689847D9F8000010B10368C2
:1053A0001B689847DFF8C480D8F8000010B1036884
:1053B0005B699847D7F83C0110B103685B68984770
:1053C000D8F8000010B103681B689847D7F83C0173
:1053D00010B103689B689847E0680021FFF736FE2C
:1053E00014210546FFF736FEA068036800215B6ABA
:1053F0009847064603F066FE6068036800215B6A12
:1054000098473146044603F037FEC9F80050C7F804
:105410003C41C8F80060DCB1231DCAF80030336895
:10542000C4F808A03046DB68F46398472368204638
:105430001B6898472946304613F02EFB2B682846F8
:105440001B6998472B6828465B69BDE8F0471847F9
:105450002346E2E7DCD80208BBE2020878DA020859
:10546000BFDA020862DB020884380120803801209C
:105470002DE9F047D0E9554A0746A06803681B6A42
:10548000984741F25B03984205D8424B424AA32118
:10549000424826F09DFB606803681B6A98470F2806
:1054A00003D83F4B3C4AA421F2E7E06803681B6A3B
:1054B0009847372803D83B4B374AA521E8E711F036
:1054C000BFFCDFF8E490043011F020FDD9F80000B3
:1054D00010B10368DB689847D9F8000010B1036881
:1054E0001B689847DFF8C480D8F8000010B1036843
:1054F0005B699847D7F83C0110B103685B6898472F
:10550000D8F8000010B103681B689847D7F83C0131
:1055100010B103689B689847E0680021FFF796FD8B
:1055200014210546FFF796FDA068036800215B6A19
:105530009847064603F084FD6068036800215B6AB3
:1055400098473146044603F055FDC9F80050C7F8A6
:105550003C41C8F80060DCB1231DCAF80030336854
:10556000C4F808A03046DB68F463984723682046F7
:105570001B6898472946304613F08EFA2B68284658
:105580001B6998472B6828465B69BDE8F0471847B8
:105590002346E2E7DCD80208FFE3020878DA0208D3
:1055A000BFDA020862DB020884380120803801205B
:1055B0002DE9F047D0E9554A0746A06803681B6A01
:1055C0009847B0F58A5F05D2424B434AA32143482E
:1055D00026F0FEFA606803681B6A98470F2803D814
:1055E0003F4B3D4AA421F2E7E06803681B6A9847F5
:1055F000372803D83B4B384AA521E8E711F020FCB7
:10560000DFF8E490043011F081FCD9F8000010B10B
:105610000368DB689847D9F8000010B103681B687D
:105620009847DFF8C880D8F8000010B103685B69BC
:105630009847D7F83C0110B103685B689847D8F8E1
:10564000000010B103681B689847D7F83C0110B1FF
:1056500003689B689847E0680021FFF7F7FC142176
:105660000546FFF7F7FCA068036800215B6A9847CE
:10567000064603F08BFC6068036800215B6A98476C
:105680003146044603F05CFCC9F80050C7F83C41C1
:10569000C8F80060DCB1231DCAF800303368C4F8D4
:1056A00008A03046DB68F4639847236820461B68EF
:1056B00098472946304613F0EFF92B6828461B69B6
:1056C00098472B6828465B69BDE8F0471847234692
:1056D000E2E700BFDCD802083FE5020878DA0208FA
:1056E000BFDA020862DB020884380120803801201A
:1056F0002DE9F047D0E9554A0746A06803681B6AC0
:10570000984741F25B03984205D8424B424AA32195
:10571000424826F05DFA606803681B6A98470F28C4
:1057200003D83F4B3C4AA421F2E7E06803681B6AB8
:105730009847372803D83B4B374AA521E8E711F0B3
:105740007FFBDFF8E490043011F0E0FBD9F80000B3
:1057500010B10368DB689847D9F8000010B10368FE
:105760001B689847DFF8C480D8F8000010B10368C0
:105770005B699847D7F83C0110B103685B689847AC
:10578000D8F8000010B103681B689847D7F83C01AF
:1057900010B103689B689847E0680021FFF756FC4A
:1057A00014210546FFF756FCA068036800215B6AD8
:1057B0009847064603F0C8FD6068036800215B6AED
:1057C00098473146044603F099FDC9F80050C7F8E0
:1057D0003C41C8F80060DCB1231DCAF800303368D2
:1057E000C4F808A03046DB68F46398472368204675
:1057F0001B6898472946304613F04EF92B68284617
:105800001B6998472B6828465B69BDE8F047184735
:105810002346E2E7DCD802086FE6020878DA0208DD
:10582000BFDA020862DB02088438012080380120D8
:105830002DE9F047D0E9554A0746A06803681B6A7E
:10584000984741F2F733984205D8424B424AA32188
:10585000424826F0BDF9606803681B6A98470F2824
:1058600003D83F4B3C4AA421F2E7E06803681B6A77
:105870009847372803D83B4B374AA521E8E711F072
:10588000DFFADFF8E490043011F040FBD9F80000B3
:1058900010B10368DB689847D9F8000010B10368BD
:1058A0001B689847DFF8C480D8F8000010B103687F
:1058B0005B699847D7F83C0110B103685B6898476B
:1058C000D8F8000010B103681B689847D7F83C016E
:1058D00010B103689B689847E0680021FFF7B6FBAA
:1058E00014210546FFF7B6FBA068036800215B6A38
:1058F0009847064603F088FC6068036800215B6AED
:1059000098473146044603F059FCC9F80050C7F8DF
:105910003C41C8F80060DCB1231DCAF80030336890
:10592000C4F808A03046DB68F46398472368204633
:105930001B6898472946304613F0AEF82B68284676
:105940001B6998472B6828465B69BDE8F0471847F4
:105950002346E2E7DCD80208B1E7020878DA020859
:10596000BFDA020862DB0208843801208038012097
:105970002DE9F047D0E9554A0746A06803681B6A3D
:105980009847B0F58A5F05D2424B434AA32143486A
:1059900026F01EF9606803681B6A98470F2803D831
:1059A0003F4B3D4AA421F2E7E06803681B6A984731
:1059B000372803D83B4B384AA521E8E711F040FAD5
:1059C000DFF8E490043011F0A1FAD9F8000010B12A
:1059D0000368DB689847D9F8000010B103681B68BA
:1059E0009847DFF8C880D8F8000010B103685B69F9
:1059F0009847D7F83C0110B103685B689847D8F81E
:105A0000000010B103681B689847D7F83C0110B13B
:105A100003689B689847E0680021FFF717FB142193
:105A20000546FFF717FBA068036800215B6A9847EB
:105A3000064603F08FFB6068036800215B6A9847A5
:105A40003146044603F060FBC9F80050C7F83C41FA
:105A5000C8F80060DCB1231DCAF800303368C4F810
:105A600008A03046DB68F4639847236820461B682B
:105A700098472946304613F00FF82B6828461B69D3
:105A800098472B6828465B69BDE8F04718472346CE
:105A9000E2E700BFDCD80208F3E8020878DA02087F
:105AA000BFDA020862DB0208843801208038012056
:105AB0002DE9F047D0E9554A0746A06803681B6AFC
:105AC0009847B0F58A5F05D2424B434AA321434829
:105AD00026F07EF8606803681B6A98470F2803D891
