:020000040800F2
:10000000000003204D060008E51A0008E91A000860
:10001000ED1A0008F11A0008F51A000800000000A7
:10002000000000000000000000000000E1DB00080C
:10003000F91A00080000000071DC00083DD4000837
:100040009D0600089D0600089D0600089D06000804
:100050009D0600089D0600089D0600089D060008F4
:100060009D060008FD1A00089D0600089D06000870
:100070009D0600089D0600089D0600089D060008D4
:100080009D0600089D0600089D0600089D060008C4
:100090009D0600089D0600089D0600089D060008B4
:1000A0009D0600089D0600089D0600089D060008A4
:1000B0009D0600089D0600089D0600089D06000894
:1000C0009D0600089D0600089D0600089D06000884
:1000D0009D0600089D0600089D0600089D06000874
:1000E0009D0600089D0600089D0600089D06000864
:1000F0009D0600089D0600089D0600089D06000854
:100100009D0600089D0600089D0600089D06000843
:100110009D0600089D0600081D1B00089D0600089E
:100120009D060008591400089D0600089D06000859
:100130009D0600089D0600089D0600089D06000813
:100140009D0600089D0600089D0600089D06000803
:100150009D0600089D0600089D0600089D060008F3
:10016000291B00089D0600089D0600089D06000842
:100170009D0600089D0600089D060008000000007E
:100180009D0600089D0600089D0600089D060008C3
:100190009D0600089D0600089D0600089D060008B3
:0C01A000351B00089D0600089D060008A5
:1001B00010B5054C237833B9044B13B10448AFF3A1
:1001C00000800123237010BD6801002000000000A2
:1001D00060C4020808B5034B1BB103490348AFF3E1
:1001E000008008BD000000006C01002060C402080F
:1001F0004B1C012B98BF70472DE9F003911C9B0805
:10020000B1F80480B1F802900A8831F802CC804439
:10021000814402448444D9F80070D8F8006015681D
:10022000DCF80040C9F80060C8F80070CCF8005055
:100230001460D9F80470D8F804605568DCF80440FC
:10024000C9F80460C8F80470CCF804505460083150
:10025000013BD5D1BDE8F00370474B1C012B98BF83
:1002600070472DE9F003911C9B08B1F80480B1F8A8
:1002700002900A8831F802CC00EB580800EB5909CB
:1002800000EB520200EB5C0CD9F80070D8F800606B
:100290001568DCF80040C9F80060C8F80070CCF8B8
:1002A000005014600831013BDFD1BDE8F003704716
:1002B00001F0FF01102A2BDB10F0070F08D010F817
:1002C000013B013A8B422DD010F0070F42B3F6D11B
:1002D000F0B441EA012141EA014122F007047FF034
:1002E00000070023F0E80256083C85EA010586EA8B
:1002F000010685FA47F5A3FA87F586FA47F6A5FAC7
:1003000087F68EB9EED1F0BC01F0FF0102F00702D2
:1003100032B110F8013B013A83EA010313B1F8D17D
:100320000020704701387047002D06BF354603385E
:10033000073815F0010F07D1013015F4807F02BF97
:10034000013015F4C03F0130F0BC0138704700BFE8
:1003500053B94AB9002908BF00281CBF4FF0FF312C
:100360004FF0FF3000F070B9ADF1080C6DE904CE2C
:1003700000F006F8DDF804E0DDE9022304B0704780
:100380002DE9F047089E0D4604460F46002B4AD142
:100390008A42944665D9B2FA82F343B102FA03FC69
:1003A000C3F120029F4020FA02F217439C404FEA1B
:1003B0001C4E1FFA8CF5B7FBFEF1220C0EFB1177D9
:1003C00042EA074201FB05F090420AD91CEB020207
:1003D00001F1FF3780F01C81904240F2198102390F
:1003E0006244121AA4B2B2FBFEF00EFB102244EAE1
:1003F000024400FB05F5A5420AD91CEB040400F1F8
:10040000FF3280F00781A54240F204816444023843
:1004100040EA0140641B00211EB1DC400023C6E914
:100420000043BDE8F0878B4208D9002E00F0ED8034
:100430000021C6E900050846BDE8F087B3FA83F15C
:10044000002949D1AB4202D3824200F2F880841ADB
:1004500065EB030201201746002EE2D0C6E90047F3
:10046000DFE702B9FFDEB2FA82F3002B40F09080A2
:100470008A1A4FEA1C471FFA8CFE0121B2FBF7F5DE
:1004800007FB1520220C42EA00420EFB05F09042C9
:1004900008D91CEB020205F1FF3802D2904200F2AB
:1004A000CB804546121AA4B2B2FBF7F007FB10222C
:1004B00044EA02440EFB00FEA64508D91CEB0404E6
:1004C00000F1FF3202D2A64500F2BB801046A4EB39
:1004D0000E0440EA05409FE7C1F120078B4022FA55
:1004E00007FC4CEA030C05FA01F420FA07F3FD407F
:1004F0004FEA1C492343B5FBF9F81FFA8CFE09FBB0
:1005000018551C0C44EA054408FB0EF5A54202FAF6
:1005100001F200FA01F00BD91CEB040408F1FF3AD8
:1005200080F08880A54240F28580A8F102086444EA
:10053000641B9DB2B4FBF9F309FB134445EA044480
:1005400003FB0EFEA64508D91CEB040403F1FF359E
:100550006CD2A6456AD9023B644443EA0843A3FB34
:100560000295A4EB0E04AC42C846AE4656D353D017
:1005700056B1B0EB080264EB0E0404FA07F7CA4068
:10058000CC401743C6E9007418460021BDE8F08747
:10059000C3F1200102FA03FC20FA01F225FA01F16D
:1005A0009D402A434FEA1C471FFA8CFEB1FBF7F02F
:1005B00007FB1015110C41EA054100FB0EF58D42B9
:1005C00004FA03F408D91CEB010100F1FF382FD223
:1005D0008D422DD902386144491B92B2B1FBF7F527
:1005E00007FB151142EA014205FB0EF1914208D9C1
:1005F0001CEB020205F1FF3816D2914214D9023DDC
:100600006244521A45EA004138E73146304608E76D
:100610003946E6E61046FBE64845A9D2B9EB0208A2
:1006200065EB0C0E013BA3E74546EAE72B4694E752
:100630004046D1E7D0467BE7023D624432E70846B8
:100640000AE76444023842E7704700BFDFF834D05D
:10065000002103E00C4B5B58435004310B480C4B1A
:1006600042189A42F6D30B4A02E0002342F8043BB8
:10067000094B9A42F9D308F0E1FF2BF075F900F02D
:100680005FFA70470000032014CD0C080000002022
:10069000680100206801002054440120FEE70000AA
:1006A00000F1784343F6FE72934205D9A3F58041E9
:1006B000914203D80120704700207047A3F5004104
:1006C000914260D9A3F5404393425ED900F177434C
:1006D00003F57F014FF6FE7291425AD902F580323E
:1006E00003F57E01914252D903F57C01914252D922
:1006F00003F57A01914250D903F5780191424ED920
:1007000003F5760191424CD903F5740191424AD91F
:1007100003F57201914248D9A0F1016043F6FE71E0
:10072000884244D9A0F5804C8C4542D9A0F5004CB4
:100730008C4540D9A0F5404088423ED903F56F0072
:100740004FF6FE7188423AD903F56E01914238D9CD
:1007500003F56C01914238D903F56A01914232D90F
:1007600003F56801914236D903F56601914230D90B
:1007700003F5640191422AD903F56203934294BFC1
:100780001720002070470220704703207047052083
:1007900070470420704706207047072070470820E4
:1007A0007047092070470A2070470B2070470C20C3
:1007B00070470D2070470E2070470F2070471020A3
:1007C0007047112070471320704712207047162081
:1007D0007047152070471420704700BFF0B50746DA
:1007E00083B016460D4609F0E7F83846FFF758FF84
:1007F000044607EB8600FFF753FF431C13481B1BFF
:10080000C0E902430023036001A90223036109F048
:1008100051F988B9A6B17F1B0446043D043701E0B5
:10082000A6420DD07919002355F8042F0220013477
:1008300009F020F80028F3D009F0DCF803B0F0BD8F
:1008400009F0CEF8002003B0F0BD00BF8401002005
:100850000B46013201EB8201C01A1A5843F8042BEF
:100860008B42FAD1704700BF2DE9F04F2DED028B7E
:1008700091B000AF05468846FA6000F05BFE03B217
:10088000BB609B007B60073323F00703ADEB030DD8
:100890000446EA46F0B1013DD146D346002600F0B9
:1008A00047FE06FB005008EB8003D3ED007A0136CB
:1008B000F8EE677AB442EBEC017AF0D17E689FEDF6
:1008C0002B7A5644D9ED007A77EEC77AE9EC017AB3
:1008D0004E45F7D1BB686A46A2EBC3039D4607EEBF
:1008E000904AFB686D46A1B207F12800F8EE678ACE
:1008F00013FB04F928F060FE64080023514607F159
:1009000028002A4628F0DCFE22462946284629F0FF
:1009100045FB00F011FEB9FBF0F905EB8909D9EDB3
:10092000007A77EEA77A07F11803C7EEA80A07F155
:100930001C0221462846C7ED030A28F0D5FDD7ED55
:10094000067AB8EE678A00F0F7FD07EE900AF8EE37
:10095000677AD7ED030A67EE887A443787EEA80AEC
:10096000BD46BDEC028BBDE8F08F00BF00F0FF4438
:1009700008B564200CF0E8FDFBE700BF80B5104C23
:10098000DFF848800F4F104E206800231A4621469A
:10099000451ED8F8000025600CF0D2FE22683C23EA
:1009A0003846202112B9236009F058FA30464FF436
:1009B000005109F057FA4FF47A700CF0C5FDE3E7E7
:1009C0000C0000200010024000180240A00100208E
:1009D000014B1868704700BF0C000020F0B583B0D1
:1009E0001F4E204D204C00270097336B43F004032B
:1009F0003363336B03F004030093009B2B6823F0F5
:100A00000C032B602B6843F004032B60AB6943F4A9
:100A10000033AB610A2008F04BFE2B6843F00C0357
:100A20002B600197336B43F020033363336B03F088
:100A300020030193019BA36823F44033A360636AFE
:100A400023F00F036362E36823F44033E3600A207A
:100A500008F02EFE236843F44033236003B0F0BD5A
:100A60000038024000080240001402402DE9F8431B
:100A70001C469B0007336D46DB08A5EBC30300AFA4
:100A80009D466D4616468146884622462946FFF712
:100A9000DFFE45F82680224629464846FFF79EFE9F
:100AA000BD46BDE8F88300BF30B5002495B0CDE960
:100AB0000A44CDE90C44CDE90344CDE905441E4A7E
:100AC00001940794116C1D4B41F080511164126C1C
:100AD00002F080520192019A02941A6842F4404254
:100AE0001A601B6803F44043029301224FF48033E1
:100AF000CDE908230823022510934FF480024FF418
:100B0000A873CDE90E5211930222042308A8CDE95F
:100B1000122302990AF0E0FF0F23CDE903354FF4C9
:100B2000A0524FF4805303A80521CDE90542079355
:100B30000BF0EAF915B030BD0038024000700040FB
:100B40002DE9804800249DB008F086FDFFF7ACFF3A
:100B5000FFF744FFCDE90F44CDE91144BE4B0094AB
:100B60001394196BBD48BE4D41F010011963196B08
:100B700001F01001009100990194196B41F02001DE
:100B80001963196B01F02001019101990294196B0D
:100B900041F080011963196B01F080010291029903
:100BA0000394196B41F004011963196B01F00401FE
:100BB000039103990494196B41F001011963196BB6
:100BC00001F00101049104990594196B41F00201AF
:100BD0001963196B01F00201059105990694196BCF
:100BE00041F040011963196B01F04001069106992B
:100BF0000794196B41F0080119631B6B03F008039C
:100C0000224607931421079B09F028F993482021D5
:100C1000012209F023F993482246142109F01EF914
:100C200091482246802109F019F9904822464FF454
:100C3000805109F013F98E4822464FF4405109F0D3
:100C40000DF98C482246042109F008F9012289484F
:100C50004FF4005109F002F901264FF0030B142361
:100C60007E480FA94FF00809CDE90F36CDE9114BA9
:100C700008F0B0FF4FF488137848CDF83C900FA9E6
:100C80001093119408F0A6FF202374480F930FA926
:100C900002274FF0040ACDE91064129408F09AFF7D
:100CA0007048CDF83CA00FA9CDE91064129708F068
:100CB00091FF80236C480F930FA94FF01008CDE9E6
:100CC0001064129408F086FF664812940FA9CDE9CB
:100CD0001064CDF83C8008F07DFF4FF480536348EA
:100CE0000F930FA9CDE91064129408F073FF4FF42D
:100CF00040525F480F920FA9CDE91064129708F097
:100D000069FF42F204025B480F920FA9CDE910641B
:100D1000129408F05FFF4FF4004253480F920FA95E
:100D20000F221392CDE91074129408F053FF05219D
:100D30002246092008F0E0FC092008F01BFD4E487F
:100D40004E4A026008F024FD4D494E4A2846C5E946
:100D500000124FF480422A61C5E90244C5E9054406
:100D6000C5E9074409F0E0FA414628460AF0A8FC24
:100D7000214628460AF0C4FCDFF81CC14248434D16
:100D800084624FF482724FF4007EC0E900C21822E0
:100D9000C0E906E20A22C262C0E90244C0E9044492
:100DA000C0E908440BF09EFB072210921292384AC9
:100DB0002A6040204FF4C072C5E905024FF400627A
:100DC0002A620FA94FF400522846C5E90164C5E91B
:100DD00003A8AA62CDE913B7EC616C62CDF844A018
:100DE0000F9715970BF08CFA4FF6FF720BA9284658
:100DF000CDE90B69CDE90D6408940BF0A3FA3046F8
:100E000008F056FC4FF6FF720BA92846CDE90B7986
:100E1000CDE90D640BF096FA4FF6FF720BA9284648
:100E2000CDE90BB9CDE90DA40BF08CFA4FF40C729F
:100E3000089208990E914FF6FF720BA92846CDE94A
:100E40000BA90D960BF07EFA284640F26A51114D1F
:100E50000BF096FA214621E00038024000100240D3
:100E6000B4010020000802400000024000040240DB
:100E7000000C024000180240AC010020003002408B
:100E8000005C0040A0860100E4020020B0020020C7
:100E9000400100A0080200200050014034220FA8A9
:100EA0002AF063FC6F4A2A601D22C5F820B0EA616F
:100EB00040F20D1B40F2431240F21713C5E909B28C
:100EC000AC8640F247124FF009092846C5E90B32BB
:100ED000AE61C5E90144C5E9034485F83640C5F86B
:100EE00014900AF031FC2846F025109519954FF41E
:100EF000A07512951A95FF254FF4806C0FA9224614
:100F000014950525CDE916C50F94574D11941397E7
:100F100015941894ADF86C408DF86E400AF0EAFC18
:100F2000524A2A601268524E90472A68514DD26840
:100F300090474FF6FF7A504A32603046C6E9014486
:100F4000C6E90444B461C6F80CA0CDE90F44CDE96C
:100F50001144CDE90B4413940BF0B4FE0FA93046B5
:100F6000CDE90F440CF028F80BA93046CDE90B442D
:100F70000CF060F9414A2A602846C5E90144C5F8E9
:100F80000CA02C61AC61CDE90B44CDE90D44CDE959
:100F90000F44CDE91144139409940A940BF092FE86
:100FA0004FF480530BA92846354E0B930BF054FF9A
:100FB0000FA92846CDE90F440BF0FEFF09A92846EA
:100FC000CDE909440CF036F94FF0804E43F244323B
:100FD00080233046C6E900E2B361CDE90F44CDE994
:100FE0001144CDE90B44C6F80C90B46034610BF0A9
:100FF00069FE4FF480530FA930460F930BF02CFF7E
:101000000BA93046CDE90B840CF014F900F0F0FD8B
:1010100000F0ECFDFFF7E2FC00F04CF900F07EF987
:101020000CF01AFA174A394640460CF04FFB164BA3
:10103000164A1860214616480CF03AFA154B164A23
:101040001860214615480CF033FA154B154A054631
:10105000214615481D600CF02BFA144B18600CF05B
:101060000DFAFEE7006801409C01002018000020F6
:101070003C030020CC03002000000140000400409D
:101080008403002010C50208A00100204CC50208FE
:1010900071090008A8010020ECC40208011C000826
:1010A0009801002028C502087D090008A40100203D
:1010B000704700BF704700BF10B5094C86B0246868
:1010C0000294144601238DF817400DF117040A46C7
:1010D000019301460094034809F0EEF906B010BDF3
:1010E00004000020B401002000B50B4B87B01B6842
:1010F000029384460A4601230DF117010020CDE931
:1011000000138DF817006146044809F0C7FA9DF8EE
:10111000170007B05DF804FB04000020B4010020B4
:1011200010B5094C84B0844620680290CDE90023B4
:1011300006480A460123614609F0B0FA003818BF94
:10114000012004B010BD00BF04000020B401002045
:1011500008F0AEBA08B506480022042108F07EFE69
:10116000BDE8084002480122042108F077BE00BF14
:101170000008024030B5104D83B0044601220F48EC
:101180004FF4005108F06AFE28460022042108F0BE
:1011900065FE0B4B0B481B68ADF806400DF10601D0
:1011A00001220BF001FA01220421284603B0BDE818
:1011B000304008F053BE00BF00080240000C02405F
:1011C00008000020E402002030B5104D83B0044632
:1011D00000220F484FF4005108F040FE284600223C
:1011E000042108F03BFE0B4B0B481B68ADF8064092
:1011F0000DF1060101220BF0D7F901220421284646
:1012000003B0BDE8304008F029BE00BF000802402E
:10121000000C024008000020E40200202DE9F04309
:10122000194E1A4FDFF86890DFF8688083B00C46DB
:10123000054600223046042108F010FE3846002200
:101240004FF4005108F00AFED9F80030ADF8045010
:1012500001A9012240460BF0A7F9D9F80030224637
:1012600001A940460BF048FC384601224FF40051DA
:10127000019C08F0F3FD30460122042108F0EEFD48
:10128000204603B0BDE8F08300080240000C024095
:1012900008000020E402002008F00ABA034B0268AC
:1012A0009A4200D0704708F0F1B900BF001000402A
:1012B000704700BF10B483B0154B1649002400944A
:1012C0001A6B42F020021A631A6B02F0200200929D
:1012D000009A0868104A40F440500860086840F4DA
:1012E000403008600194196B41F0040119631B6BD5
:1012F00003F004030193019B136843F0C0031360E0
:10130000136843F00C03136003B05DF8044B70479F
:1013100000380240001402400008024010B483B0BC
:101320000E4A00200190116C41F001011164126C11
:101330004FF0804302F00102019243F2443109224E
:10134000019C9962DA625A68054942F020025A60AB
:1013500081F81C0303B05DF8044B7047003802406D
:1013600000E100E010B483B0364A374B374C00211F
:101370000091506C40F480605064506C00F48060C8
:1013800000900098D86A40F44010D862586B40F042
:1013900004005863586B40F4D0705863586B40F4A5
:1013A000C0505863586B40F4B0205863586840F4FC
:1013B00080705860986840F080509860986840F05D
:1013C000C0609860986840F4807098600191106BDC
:1013D00040F480001063126B02F48002019203F566
:1013E000A133019A84F839139A6A22F001029A62B1
:1013F0009A6AD207FCD49A681548164942F40062EA
:101400009A609A6A42F080629A629A6A42F48032E2
:101410009A629A6A42F480429A629A6A42F48052CC
:101420009A629A6A42F480629A629A6A4FF480746D
:1014300042F010029A62DC621863596303B05DF8EF
:10144000044B7047003802400022014000E100E0F8
:101450004C220140140400201B4B1A68110500D4D3
:1014600070471A4A4FF00071C2F88410BFF34F8FD3
:10147000BFF36F8FC2F884119A6A22F001029A6258
:101480009A6AD207FCD499684FF0804241F4006117
:10149000996013680E4923F00103136088680D4BAF
:1014A00020F001008860886820F480708860596AA4
:1014B00041F480715962596A21F48071596213684C
:1014C00023F00103136070470064024000E100E074
:1014D000002201400038024010B54FF48062002124
:1014E0000F482AF042F9FFF73DFF0E4A0E49936A72
:1014F0000E484FF0007443F001039362C1F8844139
:101500004C6083684FF0804143F0010383600B68B7
:1015100043F001030B60936ADB07FCD4004810BD65
:10152000140400200064024000E100E000220140B9
:1015300004207047402070474FF42070704700BF70
:1015400082B00E4B00220092596C41F480415964E4
:10155000586C00F48040009000980192186C40F0A4
:10156000805018641B6C03F080530193019B0F2182
:101570006FF0010002B008F0BFB800BF00380240B1
:101580000B4B02689A4200D0704782B00022019251
:10159000D3F8302842F48052C3F8302803F50063B2
:1015A0001B6B03F480530193019B02B0704700BF93
:1015B000003002402DE970432E4B02688AB00024AF
:1015C0009A42CDE90444CDE90644089402D00AB019
:1015D000BDE87083284D01942B6B284843F0040329
:1015E0002B632B6B03F004030193019B02942B6B81
:1015F00043F001032B632B6B03F0010302934FF4C1
:1016000000724FF001084FF00309042604A91223C9
:10161000CDE90423CDE90689029B089608F0DAFAA1
:1016200004A94FF48072122315480896CDE90423CB
:10163000CDE9068908F0CEFA03942B6C43F400033D
:101640002B642B6C03F400032246052103934820EE
:10165000039B08F051F8482008F08CF82B6A43F4FB
:1016600000032B622B6A23F400032B620AB0BDE84F
:10167000708300BF005C0040003802400008024058
:10168000000002402DE9F04104469AB000213022CA
:101690000EA8CDE90811CDE90A110C912AF065F8E0
:1016A000674B22689A4202D01AB0BDE8F081C0238D
:1016B0000821042212930EA84FF400330E911492C5
:1016C00017930AF0F1FC002840F0B7805D4B5E48AC
:1016D000002401945A6C42F080625A645A6C02F001
:1016E00080620192019A02941A6B42F020021A63FE
:1016F0001A6B02F020020292029A03941A6B42F0D3
:1017000001021A631A6B02F001020392039A049415
:101710001A6B42F002021A631A6B02F00202049280
:10172000049A05941A6B42F040021A631A6B02F095
:1017300040020592059A06941A6B42F004021A635D
:101740001A6B02F004020692069A07941A6B42F092
:1017500008021A631B6B03F00803002602270E25FC
:10176000079308A94FF480620223CDE90823CDE94D
:101770000A67079B0C9508F02DFA08A941F6580254
:10178000022332480C95CDE908234FF00908CDE932
:101790000A6708F01FFA08A9032202232C48CDF893
:1017A0003080CDE90823CDE90A6708F013FA08A9CB
:1017B0004FF47062022326480C95CDE90823CDE949
:1017C0000A6708F007FA08A94FF40C6202232148BF
:1017D0000C95CDE90823CDE90A6708F0FBF908A9C3
:1017E000C02202231C480C95CDE90823CDE90A67E5
:1017F00008F0F0F908A90822022318480C95CDE951
:101800000823CDE90A6708F0E5F9022308A94FF497
:10181000A0521048CDF83080CDE90823CDE90A6701
:1018200008F0D8F922460521582007F065FF582016
:1018300007F0A0FF1AB0BDE8F081FFF739FD45E7DA
:1018400000680140003802400014024000000240DD
:10185000000402400018024000080240000C024050
:1018600010B51B4A016888B000239142CDE90233CC
:10187000CDE90433069301D008B010BD02F56842EB
:101880000093506C40F480105064506C00F4801051
:10189000009000980193136B0E4843F020031363EC
:1018A000136B9FED097B03F02003019303220523B3
:1018B00002A98DED027BCDE90523019C08F08AF990
:1018C00008B010BDAFF300808003000002000000EC
:1018D000005001400014024000B5214A03689342C1
:1018E00085B008D0B3F1804F23D01E4A934211D067
:1018F00005B05DF804FB1C4B002201925A6C42F0CB
:1019000001025A645B6C03F001030193019B05B073
:101910005DF804FB144B002203921A6C42F00202A1
:101920001A641B6C03F002030393039B05B05DF87C
:1019300004FB03F50E3300220292196C41F0010101
:1019400019641B6C03F0010302931C200521029B08
:1019500007F0D2FE1C2005B05DF804EB07F00ABFCB
:10196000000001400004004000380240F0B52B4B5D
:1019700089B01C6800220492002C4CD10127284A0F
:1019800001941F60936B27483B439363936B3B40E9
:1019900003260C254FF63F02019302A90223CDE94D
:1019A0000223CDE90565019B08F014F91E48029752
:1019B00002A90227CDE90374CDE9056508F00AF90B
:1019C00048F233131948029302A9CDE90374CDE913
:1019D000056508F0FFF84FF683731548029302A9D6
:1019E000CDE90374CDE9056508F0F4F84CF2037312
:1019F0001048029302A9CDE90374CDE9056508F00A
:101A0000E9F860230C48039702A9CDE9044606953E
:101A1000029308F0DFF809B0F0BD00BF1408002001
:101A20000038024000140240000802400018024042
:101A300000100240000C02400004024070B588B063
:101A4000234B002202921A6C42F010021A641B6CA3
:101A500003F010030293054601A903A8029B0AF0B4
:101A600001FB069BD3B90AF0EDFA0346194A1A4C5A
:101A70001A49A2FB03239B0C013B0022C4E900137B
:101A8000204640F2E7332261A260A261E3600BF0DE
:101A900019F9064630B1304608B070BD0AF0D2FAE6
:101AA0004300E3E720460BF09BF906460028F2D1FD
:101AB000362007F05FFE0F2D01D90126EBE73246F5
:101AC0002946362007F018FE054B1D60E3E700BFEE
:101AD0000038024083DE1B4318080020001000403D
:101AE00080000020704700BFFEE700BFFEE700BF98
:101AF000FEE700BFFEE700BF704700BF08B5C82083
:101B000007F0D6FD04480022202108F0A7F9BDE81F
:101B10000840082008F0B2B90010024001480BF05C
:101B2000DFBA00BF18080020014809F007B900BF5C
:101B3000B4010020014809F07BBE00BF080200206C
:101B40000120704708B529F009FF162303604FF004
:101B5000FF3008BD08B529F001FF16230360FEE73A
:101B600070B5161E07DD0C468D19AFF3008004F822
:101B7000010BA542F9D1304670BD00BF70B5161EED
:101B800007DD0C468D1914F8010BAFF30080AC4251
:101B9000F9D1304670BD00BF4FF0FF30704700BF35
:101BA0004FF400534B600020704700BF0120704786
:101BB000002070470B4A08B50346106828B103445B
:101BC00069468B4207D8136008BD0748106003447C
:101BD00069468B42F7D929F0C1FE0C2303604FF010
:101BE000FF3008BD6008002058440120704700BF46
:101BF00008B500F0ABFBBDE8084000F033BB00BF08
:101C000000F0A6BB704710B50421044628F095FDEE
:101C1000204610BD38B50C4B0C4C18800C4B822064
:101C200019806368984740F6110398420AD1094D1C
:101C300023682C60822098472B688220DB689847B5
:101C4000002038BD0120FCE764080020500000207F
:101C500066080020680800204FF4A071F020FFF70C
:101C6000D9BF0000F7B5334D2B6804461B698220AD
:101C7000984780B2208000284AD02B680DF10602D8
:101C80005B6901A982209847BDF8063040F674626E
:101C900093423FD9ADF80620BDF80630D21A92B271
:101CA0000A2A3DD90B23B2FBF3F2234B1B889A423D
:101CB00001D9013B9AB2BDF8043040F6B8318B42ED
:101CC00030D8C3F571630E339BB20F21B3FBF1F330
:101CD0001A4909888B4201D901398BB2184E194D26
:101CE00030682F68834281B28CBF591AC91AB8B2C2
:101CF000BA428CBF101A801A89B280B201440529F9
:101D0000C8BF33603368C8BF2A6063802B68A38074
:101D100003B0F0BDB32B9CBFB423ADF80630BBE7D6
:101D20000022C8E7C3F56D6308339BB20E2BCCD8F5
:101D30000023D3E76808002066080020640800201C
:101D40006C0800207008002037B568460D46144620
:101D5000FFF788FFBDF8000048B1BDF802302B60E6
:101D6000BDF804302360034B3C221A60012003B00D
:101D700030BD00BF0C00002010B1022809D0704710
:101D8000074B1A68B2FA82F252090421054808F09A
:101D900065B8034B9A68B2FA82F252091021F5E74E
:101DA000740800200010024010B1022809D07047CA
:101DB000074B1A68003A18BF01220421054808F0B1
:101DC0004DB8034B9A68003A18BF01221021F5E77D
:101DD000740800200010024010B1022804D070479F
:101DE0000421024808F03EB81021FAE70010024032
:101DF00008B530B1022809D00020431E584258418E
:101E000008BD0421024808F023F8F6E71021F9E79D
:101E10000010024070B5084D00240126E0B2FFF723
:101E2000E7FF18B12B68012B18BF2E600134052C79
:101E300005F10405F2D170BD74080020012380F87B
:101E4000781080F87930704700207047034B416468
:101E5000003918BF01211970704700BF1B380120DD
:101E600000207047836B0BB10846184770474FF648
:101E7000FF707047406803689B6918477047704758
:101E80007047000010B5044600F04EFB236803497C
:101E9000D3F88C302046BDE810401847000000D031
:101EA00008B503680446D3F8803098472368204675
:101EB0009B6F984700F0ECF8236820461B6F98470B
:101EC0002920FFF781F900F0E3F8236820461B6F13
:101ED0009847F8E710B504460FF040FF2368204606
:101EE000D3F8AC30BDE81040184700F00FBB00F04D
:101EF00013BB00F037BB00F0DFBA00F0E5BA00F02A
:101F00003DBB00F0E9BA0FF094B910B57C2104464E
:101F100028F013FC204610BD90F87A301BB14068C1
:101F200003681B68184718467047000010B590F802
:101F3000341090F878400C4B8C421A7809D03AB99A
:101F40000A4A0B491488088810800C8001221A70F4
:101F500010BD002AFCD0054A054914880888108065
:101F60000C800022F3E700BF143801201038012054
:101F70001238012070B50D46194635B9094B0A4A89
:101F80000A4840F2D22129F0EBF9C0E90F52084B80
:101F9000003A18BF01221A700368BDE87040D3F8F8
:101FA0008C30184788C50208C0C502080EC6020852
:101FB0001A38012008B5094B1B888B4203D8084BFF
:101FC0001B88934205D9074B074A08489E2129F0F0
:101FD000C7F9074B1980074B1A8008BD103801203C
:101FE0001238012053C60208B6C602080EC60208FF
:101FF0001638012018380120012108B500220846B2
:102000000BF0B0FA0A4B186028B90A4B0A4A28218B
:102010000A4829F0A5F90022042101200BF056FB03
:10202000074B186018B9074B034A2C21F0E708BD8D
:1020300088080020D4C702081DC802084CC802083E
:1020400084080020C6C80208024B4FF0FF31186810
:102050000BF0DCBA88080020014B18680BF00ABBB3
:1020600088080020024B002118680BF0CFBA00BF8F
:1020700088080020FFF7F0BF0348044900680023E8
:102080001A460BF05DBB00BF840800201000002042
:1020900013B5084C00231A4601A920680BF086FBF3
:1020A00020684FF0FF33002201A90BF07FFB02B044
:1020B00010BD00BF840800207047002070477047A3
:1020C000704700207047704708B5034A034B044827
:1020D000222129F045F900BF2BC9020808C90208CE
:1020E00069C9020808B5034A034B0448272129F0AF
:1020F00037F900BFE1C9020808C9020869C9020826
:1021000010B54421044628F018FB204610BD0000FD
:1021100038B5044621460025064B25720C30606018
:102120006572012241F8203B0FF070FFE562204606
:1021300038BD00BF28CA0208012070473820704708
:10214000382303FB010008307047382303FB0100EC
:10215000083070470120704741F66450704741F6DF
:10216000645303FB01000830704741F6645303FBDE
:10217000010008307047012070471020704700EBC5
:1021800001100830704700EB011008307047084616
:1021900002F098BA10B5034B036004460DF05FFFE0
:1021A000204610BDE0CA020810B50446FFF7F2FF52
:1021B0002046402128F0C1FA204610BD10B5034B3F
:1021C000036004460DF04BFF204610BDACCA020868
:1021D00010B50446FFF7F2FF204641F66C5128F097
:1021E000ACFA204610BD000010B5034B0360044656
:1021F0000DF035FF204610BD78CA020810B5044620
:10220000FFF7F2FF2046182128F097FA204610BD6C
:1022100010B5094B0360044600F5EC501830FFF789
:10222000B9FF04F12C00FFF7C9FF04F11400FFF718
:10223000DBFF204610BD00BF14CB020808B50248E2
:10224000FFF7E6FF08BD00BF9008002010B5044668
:10225000FFF7DEFF204641F63C7128F06EFA20467B
:1022600010BD00002DE9F34100F05CFA054600F0D6
:102270005DFA00240146234628462246009417F0C2
:10228000E3FD264B264A274D1A60204606F020FA29
:10229000254817F041FD2B68BFF35B8FDB0736D471
:1022A000284628F04CFA90B3204C214B214F236054
:1022B00004F5EF5604F1140004F12C086060C4F832
:1022C0000880E76026610DF0CBFE1B4B6361404642
:1022D0000DF0C6FE194BE36238460DF0C1FE04F561
:1022E0008053174AC3F8982D03F6D85006F066FEBF
:1022F0002246A6F10801304606F070FB304602F097
:10230000E1F9104829F04AF8284628F024FA0E4846
:1023100002B0BDE8F041FFF7B5BD00BF8038012035
:10232000902800208C080020140000209008002035
:1023300014CB02082826002078CA0208ACCA02087A
:10234000E0CA02083D22000814280020704700005F
:102350000148FFF7A5BD00BF1428002070B5224E2C
:10236000224C234D234B23603046FFF7D1FE2846F5
:102370001CF036F8204B2148DC6000224FF48071BD
:10238000C3E912121E491A86C3E91A121D49996738
:102390001D4983F858200B60F02101801B485A66C4
:1023A00001801B4883F870204FF4A071C3E9042218
:1023B000C3E90622C3E90822C3E90A22C3E90E22BF
:1023C000C3E91022C3E91422C3E917225A67C3E9FB
:1023D000016501800F4801800F490A70012283F8CE
:1023E00034200E4A1A6070BDD0270020CC27002070
:1023F0009428002078C502081428002010380120F5
:1024000001000001000001011C38012016380120E4
:1024100012380120183801201438012004C702089E
:102420000020704781807047C180704701817047EC
:10243000418170477047704770477047704710B4CC
:10244000C4880368121B84885B6D091B12B25DF897
:10245000044B09B218474FF6FF7383814FF0FF33E7
:1024600003621368C3611060704790F825201AB1A9
:1024700090F8242002B118607047002070478B88C4
:10248000838001207047704780F82610704790F8CD
:102490002600704710B50022B1F90840B1F90A10C2
:1024A000028042808480C18010BD00220280428070
:1024B0008280C28070470000024B902283F858232C
:1024C000704700BF00E100E0024B4FF080729A605D
:1024D000704700BF00E100E0094A0A49D3680A4892
:1024E000C3F30A03013B9BB20B801169C1F30A01DC
:1024F000013901801364536B43F001035363704748
:10250000006801401A29002018290020014BD3F847
:10251000AC00704700680140024B0122C3F8AC10C8
:102520005A6270470068014070B504460EF0D7FE4D
:1025300023685D6E14F04CF801462046A8472368D6
:10254000054AD3F888502046AC460023BDE87040C9
:10255000A2F51631604700BF00B004D00EF0A6BE51
:102560000EF0B0BE0EF06BBE0EF0CDBF90F8252081
:1025700012B103685B69184770470000044B4FF0C5
:102580008072C3F88820BFF34F8FBFF36F8F7047FF
:1025900000E100E070B50023124E8380124B03600F
:1025A000336893F8582005460AB1D86C00B998688A
:1025B0000368DB6A98473368B0FA80F4D86C640922
:1025C00030B10368DB6A9847002808BF44F0010473
:1025D0002CB9064B064A07482C2128F0C1FE284694
:1025E00070BD00BF1C38012024CC020820CB02089B
:1025F0007ECB0208B7CB0208704700002DE9F041FE
:10260000FF2BBDF8184000EB410105D120F8024B2B
:102610008142FBD8BDE8F081174F04F4FC6604EA60
:10262000070C04F01F0403FB0CFC5E435C43DB431C
:10263000DBB2FF25B0F800E00EEA07020EF4FC68FA
:1026400003FB02C203FB08680EF01F0EB2FBF5F29B
:10265000B8FBF5F83A4008F4FC6842EA080203FBCC
:102660000E4EBEFBF5FE0EF01F0E42EA0E0220F8E3
:10267000022B8142DED8CDE700F8FFFF10B5144CE5
:10268000236823B3134B144A1B6C11888B4213D15C
:10269000124B198809F0FEF9226892F86A3001336A
:1026A00082F86A30FFF7E8FC20680FF057FBBDE8BE
:1026B00010400020FFF760BB09F0ECF920680368C8
:1026C0001B6A9847BDE810400020FFF76DBB10BDA6
:1026D0001C380120006801401A2900201829002018
:1026E000704710B50421044628F027F8204610BD95
:1026F00008B5032913D8DFE801F002060A0E06F038
:1027000033F8006808BD06F02FF84068FAE706F0D5
:102710002BF88068F6E706F027F8C068F2E700209B
:10272000F0E700000048704750CC02080C207047CA
:1027300013B5002451B1036801948DF8034001AA38
:102740009C680DF10303A04702B010BD0846FBE7EB
:10275000C0897047008A7047C0887047808870477A
:10276000807A00F07F007047807AC0097047806AE5
:10277000704770477047704770477047704730B573
:102780000368018185B06D460146D3F88430044664
:102790002846984795E807003C3484E8070005B0D0
:1027A00030BD30B50368418185B06D460146D3F830
:1027B000843004462846984795E807003C3484E86E
:1027C000070005B030BD0022028042808280C280B6
:1027D000704780F83610704770B5036804461B6B6D
:1027E000154698472368294620465B6EBDE8704031
:1027F000184700207047806C704770470368DB6A99
:10280000184703681B6B184770477047704730B410
:10281000C26844685510034604EB6200D20748BF03
:1028200062599B6830BC48BFD358184743682BB1E6
:1028300083682BB9C06800F00100704718467047E4
:102840000120704710B50821044627F076FF204686
:1028500010BD10B54C21044627F06FFF204610BD77
:1028600010B51021044627F068FF204610BD10B5B2
:102870008C21044627F061FF204610BD38B505467F
:10288000054B45F8E03B044612F0A0F928460EF04F
:1028900055F8204638BD00BF38D0020810B50446B0
:1028A000FFF7ECFF204641F6645127F046FF204633
:1028B00010BD08B5FFF75AFE08BD0000036870B5EB
:1028C0005E6B124B1B6804468DB22BB9104B114A3C
:1028D0006C21114828F044FD1049828D09889142ED
:1028E00003D80F4B0B4A6D21F3E713F812200D4B61
:1028F0001B6853F8220003681B6B9847281A01B223
:1029000033462046BDE87040184700BF74380120A8
:1029100040CD020882CD0208BDCD020878380120E2
:1029200004CE02087C38012070B5036804461B6B96
:10293000154698472368294620465B6BBDE87040E2
:10294000184770B504461D46BDF91060FFF7ECFF4F
:102950002368294620469B6B9847236831462046CA
:10296000DB6BBDE8704018474FF480710022818412
:1029700005490160C0E90122C0E90322C0E905223E
:10298000C0E90722826270475CEF02080022C0E9BA
:102990000122C0E90322C0E90522C0E907224FF461
:1029A00080728284014A0260704700BF88CE0208AC
:1029B0001A4B73B51B88018F8B4206462BD9184BD7
:1029C0001B682BB9174B184A18486C2128F0C8FC13
:1029D00013F81120164B1B6853F82250154B18683A
:1029E00005F0B2FE2B6801909B6B284698472B6838
:1029F00001999B6C0446284698472B6801995B6AAD
:102A000014FB00F428469847A4B223181BB2A6F87A
:102A1000463002B070BD0023F9E700BF78380120CE
:102A20007438012040CD020882CD0208BDCD0208D5
:102A30007C3801208038012000224FF0FF31C0E9AE
:102A400000218260704710B50446FFF7F5FF20466D
:102A500010BD000010B500210446262228F085FE96
:102A60002046FFF793FF094B2360094BA3624FF603
:102A7000FF73A3854FF47F020023C4E90C32238740
:102A800004F13C00FFF7D8FF204610BDB4F3020864
:102A9000F0CE020810B50446FFF7DCFF024B2360BE
:102AA0000023A364204610BD90CF020810B5044651
:102AB0000B460D4944F8041B0246D3E9010184E8A2
:102AC0000300D3E9030102F10C0484E80300D3E915
:102AD00006015C69D161196A9B8C1162C2E90540EB
:102AE0009384104610BD00BFD4F7020838B50D46D8
:102AF0000446FFF7DBFFAB6AA3622B4B2360EB6A54
:102B0000E3622B6B23636B6B636305F1380104F1A4
:102B10003800FFF7CBFF2B6E2366244BA36395F899
:102B2000643084F86430B5F86630A4F8663005F196
:102B3000680104F16800FFF7B9FFD5F89030C4F8D8
:102B400090301B4BA36605F1940104F19400FFF74C
:102B5000ADFFB5F8BA30A4F8BA3095F8BC3084F8B7
:102B6000BC30144BC4F89430B5F8BE30A4F8BE3075
:102B7000B5F8C030A4F8C03005F1C40104F1C400B8
:102B8000FFF794FF0C4BC4F8C430B5F8EA30A4F852
:102B9000EA3095F8EC3084F8EC30B5F8F030A4F871
:102BA000F030204638BD00BFECEF0208B0F002085C
:102BB00000CF0208ACF4020890F60208F0B500F16C
:102BC00098039942C1B004460D4603D113F000FDAD
:102BD00001F088FD04F531739D4228D104F1E0072E
:102BE000394603A8FFF782FFFEF776FC3222014642
:102BF0000120FDF739FEFCEEE07A7E488DED010AFA
:102C000017EE906A17EE901A0C230022CDED020AFF
:102C1000FDF72CFF784A33460A2104F67C6016F053
:102C200085FE384614F0BCFD03A80DF087FE04F5C0
:102C300022739D4228D104F1E007394603A8FFF72B
:102C400055FFFEF749FC322201460120FDF70CFE3C
:102C5000FCEEE07A67488DED010A17EE906A17EEF8
:102C6000901A0C230122CDED020AFDF7FFFE624A05
:102C700033460A2104F6686016F058FE384614F010
:102C80008FFD03A80DF05AFE04F513739D4228D161
:102C900004F1E007394603A8FFF728FFFEF71CFC04
:102CA000322201460120FDF7DFFDFCEEE07A5148BB
:102CB0008DED010A17EE906A17EE901A0C2302228E
:102CC000CDED020AFDF7D2FE4B4A33460A2104F647
:102CD000546016F02BFE384614F062FD03A80DF088
:102CE0002DFE04F254539D4228D104F1E0073946E9
:102CF00003A8FFF7FBFEFEF7EFFB3222014601209F
:102D0000FDF7B2FDFCEEE07A3A488DED010A17EED0
:102D1000906A17EE901A0C230322CDED020AFDF7FC
:102D2000A5FE354A33460A2104F6B86016F0FEFDCA
:102D3000384614F035FD03A80DF000FE04F5A3633A
:102D40009D4228D104F1E007394603A8FFF7CEFEE3
:102D5000FEF7C2FB322201460120FDF785FDFCEEA5
:102D6000E07A24488DED010A17EE906A17EE901A6A
:102D70000C230422CDED020AFDF778FE1E4A3346ED
:102D80000A2104F6A46016F0D1FD384614F008FDBF
:102D900003A80DF0D3FD04F2DC439D4228D104F1D9
:102DA000E006314603A8FFF7A1FEFEF795FB3222AD
:102DB00001460120FDF758FDFCEEE07A0D488DED4F
:102DC000010A17EE905A17EE901A0C230522CDED4A
:102DD000020AFDF74BFE084A2B460A2104F56960FA
:102DE00016F0A4FD304614F0DBFC03A80DF0A6FDA0
:102DF00041B0F0BD00001E0842CE02085201490158
:102E00000FF0F0BC520149010FF0F7BC10B4C46BD5
:102E1000B4EB411F4FEA411204D05DF8044BC2638A
:102E20000FF0EABB5DF8044B704700002DE9F04F4E
:102E30002DED108B0446AFB0A346002515F048F8E1
:102E4000E74BE5634BF8403B26222946584628F0DD
:102E50008CFC5846FFF79AFD04F16C08FF26E14B05
:102E6000236426224FF6FF73294684F866604046A5
:102E7000A566ADF8AC3028F078FC4046FFF786FD3B
:102E8000D94BE3660DF1AC09BDF8AC30A4F8923033
:102E90004946404684F8946010F09BFE04F1980384
:102EA0001846079310F0CCFF04F1E00304F5EA7A2A
:102EB000184608EE103A04F500770DF06DFE504606
:102EC000FFF752FD3846FFF7E5FD04F5137318468A
:102ED000129310F057FE04F522731846139310F066
:102EE00051FE04F531731846149310F04BFE04F5AF
:102EF000407318460DEE903AFFF7CCFD04F553737E
:102F000018460EEE103AFFF7C5FD04F56673184635
:102F10000EEE903AFFF7BEFD04F579731846B34EF6
:102F20000AEE903A0FF048FB04F2544318461E9301
:102F3000FFF730FB06F1240304F58D62C4F85C341E
:102F4000C4F854641046C4F860540892FFF782FD38
:102F500004F59662104608EE902AFFF705FD04F28C
:102F6000DC421046159210F00DFE04F5A3621046E7
:102F7000169210F007FE04F254521046179210F009
:102F800001FE04F5B26210460992FFF783FD04F2D8
:102F9000DC5210460A92FFF77DFD04F5C56210462B
:102FA0000B92FFF777FD04F2746210460BEE102AC5
:102FB0000FF002FB04F2E46210461F92FFF7EAFAF8
:102FC00006F1240304F5DF62C4F8EC36C4F8E466C5
:102FD0001046C4F8F0560FEE102AFFF73BFD04F53B
:102FE000E862104609EE102AFFF7BEFC04F26C728C
:102FF0001046189210F0C6FD04F5F56210461992BD
:1030000010F0C0FD04F2E47210461A9210F0BAFDFE
:1030100004F5026210460C92FFF73CFD04F66C02C8
:1030200010460D92FFF736FD04F6B80210460E92D8
:10303000FFF730FD04F6041210460BEE902A0FF055
:10304000BBFA04F6741210462092FFF7A3FA06F1B9
:10305000240304F68812C4F87C39C4F87469104655
:10306000C4F880590FEE902AFFF7F4FC04F51D62B6
:10307000104609EE902AFFF777FC04F6FC12104682
:103080001B9210F07FFD04F6382210461C9210F0BF
:1030900079FD04F6742210461D9210F073FD04F5BC
:1030A0002B6210460F92FFF7F5FC04F6FC22104647
:1030B0001092FFF7EFFC04F6483210461192FFF72A
:1030C000E9FC04F6943210460CEE102A0FF074FA64
:1030D00004F6044210462192FFF75CFA06F124033D
:1030E00004F61842C4F80C3CC4F8046C1046C4F84A
:1030F000105C0392FFF7AEFC04F5466210460CEE3E
:10310000902A0FF059FA04F54D6210462292FFF70B
:1031100041FA06F1240304F6E442C4F8D83CC4F8AA
:10312000D06C1046C4F8DC5C0492FFF793FC04F604
:103130002C5210460DEE102A0FF03EFA04F69C5267
:1031400010462392FFF726FA06F12403C4F8A43DA3
:1031500004F55B63C4F89C6D1846C4F8A85D05933C
:10316000FFF778FC04F6F85318460693FFF772FC55
:1031700004F580531E4AC3F8542D1E4AC3F85C2D33
:10318000C3F8584DC3F8605D4FF4616104F64470B4
:1031900011F012FD4FF4A0732A46584600932946B9
:1031A000F023FFF7CEFB4FF07F43A366231D1846A5
:1031B00059460AEE103A0DF033F92A4640462946A0
:1031C000FFF7B2FB4FF0080340464946ADF8AC307C
:1031D00010F0FFFC41461AEE100A0DF021F90BE049
:1031E00038D0020844F4020890F6020878F1020888
:1031F00020D00208BD2B0008079840F201122121BF
:10320000FFF792FB03234A462AA90798ADF8A83096
:103210000223ADF8AC3010F0E6FA1F230798A4F8AB
:10322000D030FFF7C5FB4FF0FF33C4E9353304F569
:10323000EA531433C4F8C030079902931AEE100A07
:103240000DF0EEF818EE100A55222946FFF76CFB38
:10325000062318EE100AADF8A8304A4607232AA91B
:10326000ADF8AC300DF036FD8C2218EE100A50216E
:103270000DF0DEFB18EE100A32210DF05CFB18EEAB
:10328000100A32210DF0D2FB5E4BC4F8DC31202253
:1032900038461621FFF748FB4FF0FF33C4F83032B1
:1032A000D4F80032A4F8345224AE3946D3F884302E
:1032B0003046984796E8070004F50F7383E8070047
:1032C00004F564633846C4F84832A4F8405E0FF051
:1032D000AFFE4D4B2B9338464FF014034946ADF8E3
:1032E000B0300FF0C5FE394650460DF099F81298EF
:1032F0006122C221FFF718FB09274FF0010B29AA11
:103300001298CDF800902AAB28A9ADF8A050ADF8DE
:10331000A4B0ADF8A870ADF8AC7010F09EFB029BA5
:10332000C4F874321299C4F8845250460DF078F8FB
:1033300013983D22C221FFF7F7FA29AA1398CDF876
:1033400000902AAB28A9ADF8A050ADF8A4B0ADF814
:10335000A870ADF8AC7010F080FB029BC4F8B032DE
:103360001399C4F8C05250460DF05AF81498192217
:10337000C221FFF7D9FA29AA1498CDF800902AABF8
:1033800028A9ADF8A050ADF8A4B0ADF8A870ADF87C
:10339000AC7010F062FB029BC4F8EC321499C4F8D4
:1033A000FC5250460DF03CF868221DEE900A0A21AE
:1033B000FFF7BAFA4FF0FF33C4F83033D4F80033D4
:1033C000A4F83453D3F884301DEE901A3046984751
:1033D00096E8070004F54F7383E807000B4B1B6862
:1033E00004F654682BB90A4B0A4A60210A4827F0B0
:1033F000B7FF0A4B1B88092B14D8094B054A6121DA
:10340000F4E700BFF000AC00F0CE020874380120F1
:1034100040CD020845CE0208BDCD02087838012013
:1034200004CE0208D94B3946186805F08DF9D84A00
:1034300003460A21404616F079FA1DEE900AC4F8B8
:1034400048830FF0F5FD4FF00A08D24B2B931DEE89
:10345000900A4946ADF8B0800FF00AFE1DEE901AB2
:1034600050460CF0DDFF1EEE100A44221621FFF735
:103470005BFAD4F84C33A4F880534FF0FF32D3F802
:103480008430C4F87C231EEE101A3046984796E824
:10349000070004F5627383E8070004F66862079288
:1034A000BD4A1368002B9ED0BC4A13880B2BA4D9AD
:1034B000B6480B21006805F047F9B54A0346414676
:1034C000079816F033FA0799C4F894131EEE100A01
:1034D0000FF0AEFDAF4B2B931EEE100A0C234946A6
:1034E000ADF8B0300FF0C4FD1EEE101A50460CF0CF
:1034F00097FF20221EEE900A1621FFF715FAD4F846
:103500009833A4F8CC534FF0FF31D3F88430C4F88B
:10351000C81330461EEE901A984796E8070004F547
:10352000757383E8070004F67C6107919A490B687C
:10353000002B3FF458AF994A13880D2B7FF65DAFEF
:1035400092480D21006805F0FFF841460346904A75
:10355000079816F0EBF9079AC4F8E0231EEE900ADC
:103560000FF066FD4FF0140C8A4BADF8B0C01EEEA4
:10357000900A49462B930FF07BFD50461EEE901AA1
:103580000CF04EFFF0231AEE900A0F222946CDF8D8
:103590000080FFF7D6F91E9AC4F80C244FF0FF3EC6
:1035A0000522C4F860E4A4F864E411461AEE900A17
:1035B000FFF724FC05221AEE900AEB21FFF722FC0C
:1035C0001AEE900A5946FFF721FC1AEE900A594666
:1035D0000FF01EF950461AEE901A0CF021FF0898D1
:1035E0002A466021FFF7A0F94FF0FF3230460899D4
:1035F000C4F89824A4F89C540FF0A0FA96E80700A9
:1036000004F2A44383E80700624B08982B934946D1
:103610004FF00803ADF8B0300FF02AFD504608997E
:103620000CF0FEFE514618EE100A0DF0DCFB5C4B70
:103630001598C4F8B8346122C2210DF1A80AFFF729
:1036400073F953460DF1A40A52460DF1A00A5146F2
:103650001598CDF80090ADF8A050ADF8A4B0ADF835
:10366000A870ADF8AC7010F0F8F9029A1599C4F88A
:10367000042518EE900AC4F814550CF0D1FE0DF193
:10368000A80A16983D22C221FFF74EF953460DF1C4
:10369000A40A52460DF1A00A51461698CDF80090A2
:1036A000ADF8A050ADF8A4B0ADF8A870ADF8AC700E
:1036B00010F0D3F9029A1699C4F8402518EE900A32
:1036C000C4F850550CF0ACFE0DF1A80A1798192259
:1036D000C221FFF729F953460DF1A40A52460DF114
:1036E000A00A51461798CDF80090ADF8A050ADF85B
:1036F000A4B0ADF8A870ADF8AC7010F0AEF9029AB5
:103700001799C4F87C2518EE900AC4F88C550CF073
:1037100087FE4FF0FF3A682241460998FFF704F907
:10372000C4F8C0A5A4F8C4554846FFF785F999E840
:10373000070004F2CC5383E8070017490B6804F52F
:103740006966002B3FF44FAE144F3B88122B7FF677
:1037500054AE0E481221006804F0F6FF0C4A0346EE
:103760004146304616F0E2F80998C4F8D8650FF0E3
:103770005FFC084E09982B9613234946ADF8B030EC
:103780000FF076FC099918EE900A0BE080380120C2
:103790007DCE0208F0CE020874380120783801206E
:1037A000F000AC000CF03CFE442216210A98FFF712
:1037B000BBF8A4F81056C4F80CA64846FFF73CF92D
:1037C00099E8070004F5C36383E80700DC490B6848
:1037D00004F6A465002B3FF406AE3B88102B7FF661
:1037E0000CAED848DFF858B30068102104F0ACFFE5
:1037F000D54A03464146284616F098F80A98C4F878
:1038000024562BAD0FF014FC4FF011020A98ADF8BE
:10381000B02029462B960FF02BFC0A9918EE900A3F
:103820000CF0FEFD0026202216210B98FFF77CF8F5
:10383000C4F858A6A4F85C662846FFF7FDF895E89A
:10384000070004F2646383E80700DBF8003004F645
:10385000B867002B3FF4C7ADBC4B1B880F2B7FF61E
:10386000CCADB8480F21006804F06EFFB64A03469D
:103870004146384616F05AF80B98C4F870760FF0A7
:10388000D7FBB34F0B982B974FF0140C2946ADF88C
:10389000B0C00FF0EDFB0B9918EE900A0CF0C0FDD4
:1038A000F0231BEE100ACDF800800F223146FFF7FF
:1038B00048F81F9AC4F89C264FF0FF3E0522A4F852
:1038C000F4E611461BEE100AC4F8F0A6FFF796FACC
:1038D00005221BEE100AEB21FFF794FA1BEE100AEB
:1038E0000121FFF793FA1BEE100A01210EF090FF61
:1038F0001BEE101A18EE900A0CF092FDC1463246EB
:103900000DF190081FEE100A5C21FFF70DF84046FC
:103910001FEE101AC4F828A7A4F82C670FF00EF9B0
:103920001FEE102A02F13C0398E8070083E8070025
:103930000E231FEE100A2946ADF8B0302B970FF07A
:1039400097FB1FEE101A18EE900A0CF069FD18EEA6
:10395000901A18EE100A0DF046FA7E491898C4F82D
:1039600048176122C2210DF1A80AFEF7DDFF534678
:103970000DF1A40A52460DF1A00A09274FF00108E3
:10398000514618980095ADF8A060ADF8A480ADF848
:10399000A870ADF8AC7010F060F81899C4F8A4677E
:1039A00019EE100A0CF03CFD0DF1A80A19983D2201
:1039B000C221FEF7B9FF53460DF1A40A52460DF19C
:1039C000A00A514619980095ADF8A060ADF8A48002
:1039D000ADF8A870ADF8AC7010F03FF81999C4F8C4
:1039E000E06719EE100A0CF01BFD0DF1A80A1A98F9
:1039F0001922C221FEF798FF53460DF1A40A524640
:103A00000DF1A00A51461A980095ADF8A060ADF8E6
:103A1000A480ADF8A870ADF8AC7010F01EF81A993B
:103A2000C4F81C6819EE100A0CF0FAFC4FF0FF3ACB
:103A3000682249460C98FEF777FFC4F850A8A4F80E
:103A400054682846FEF7F8FF95E8070004F65C0383
:103A500083E80700DBF8003004F6CC6A002B3FF463
:103A6000C2AC3A4A1388072B7FF6C7AC354807210A
:103A7000006804F069FE344A03464946504615F092
:103A800055FF0C98C4F868A80FF0D2FA304B0C9888
:103A90002B9329461323ADF8B0300FF0E9FA0C99B7
:103AA00019EE100A0CF0BCFC4FF0FF3A442216212C
:103AB0000D98FEF739FFC4F89CA8A4F8A068284622
:103AC000FEF7BAFF95E8070004F6A80383E80700AD
:103AD000DBF8003004F56E6A002B3FF484AC1B4A1F
:103AE0001388062B7FF689AC16480621006804F07F
:103AF0002BFE154A03464946504615F017FF0D9810
:103B0000C4F8B4A80FF094FA114B0D982B934FF012
:103B1000110E2946ADF8B0E00FF0AAFA0D9919EE92
:103B2000100A0CF07DFC202216210E98FEF7FCFEF8
:103B30004FF0FF3EC4F8E8E8A4F8EC680CE000BFE2
:103B400074380120803801207DCE020878380120A9
:103B5000F0CE0208F000AC002846FEF76DFF95E8B5
:103B6000070004F6F40383E80700DBF8003004F6EE
:103B7000F46A002B3FF437ACDC4A1388052B7FF640
:103B80003CACDB480521006804F0DEFDD94A034661
:103B90004946504615F0CAFE0E98C4F800A90FF029
:103BA00047FA4FF0140CD44B0E98ADF8B0C029462C
:103BB0002B930FF05DFA0E9919EE100A0CF030FC01
:103BC0001BEE900AF0230F223146CDF80090FEF74D
:103BD000B8FE4FF0FF304FF6FF730522C4F880099E
:103BE0002098A4F884391146C4F82C091BEE900AD9
:103BF000FFF704F905221BEE900AEB21FFF702F90B
:103C00001BEE900A4146FFF701F91BEE900A414670
:103C10000EF0FEFD1BEE901A19EE100A0CF000FCDF
:103C200032461FEE900A4921FEF77EFE4FF0FF302C
:103C30001FEE901AC4F8B809A4F8BC6924A80EF0C5
:103C40007DFF1FEE900A00F13C0324A807C883E81B
:103C50000700A94B2B93294604231FEE900AADF8C9
:103C6000B0300FF005FA1FEE901A19EE100A0CF0A2
:103C7000D7FB19EE101A18EE100A0DF0B4F89F4990
:103C80001B98C4F8D8196122C221FEF74DFE29A95C
:103C90002AAB0A461B98009528A9ADF8A060ADF89C
:103CA000A480ADF8A870ADF8AC700FF0D6FE1B99EB
:103CB000C4F8346A19EE900A0CF0B2FB1C983D224D
:103CC000C221FEF731FE29A92AAB0A461C980095AD
:103CD00028A9ADF8A060ADF8A480ADF8A870ADF843
:103CE000AC700FF0BAFE1C99C4F8706A19EE900A15
:103CF0000CF096FB1D981922C221FEF715FE29A98A
:103D00002AAB0A461D98009528A9ADF8A060ADF829
:103D1000A480ADF8A870ADF8AC700FF09EFE1D99B0
:103D2000C4F8AC6A19EE900A0CF07AFB6822494696
:103D30000F98FEF7F9FD4FF0FF33C4F8E03A28463C
:103D4000A4F8E46AFEF778FE95E8070004F6EC2391
:103D500083E80700DBF8003004F60875002B3FF419
:103D600042AB624A1388032B7FF647ABDFF88081B2
:103D7000DFF884A1D8F80000032104F0E5FC5D4AD7
:103D800003464946284615F0D1FD0F98C4F8F85A65
:103D90002BAD0FF04DF913230F98ADF8B030294635
:103DA000CDF8ACA00FF064F90F9919EE900A0CF061
:103DB00037FB4FF0FF37442216211098FEF7B4FD71
:103DC000C4F82C7BA4F8306B2846FEF735FE95E846
:103DD000070004F6383383E80700DBF8003004F608
:103DE0001C79002B3FF4FFAA404A1388022B7FF670
:103DF00004AB0221D8F8000004F0A6FC3D4A0346BB
:103E00000A21484615F092FD1098C4F8449B0FF023
:103E10000FF911231098ADF8B0302946CDF8ACA0B9
:103E20000FF026F9109919EE900A0CF0F9FA2022F9
:103E300016211198FEF778FDC4F8787BA4F87C6B06
:103E40002846FEF7F9FD95E8070004F6843383E879
:103E50000700DBF8003004F57369002B3FF4C3AAB8
:103E6000224A1388012B7FF6C8AAD8F80000012146
:103E700004F06AFC1F4A03460A21484615F056FD25
:103E80001198C4F8909B0FF0D3F814231198ADF853
:103E9000B03029464FF00A09CDF8ACA00FF0E8F891
:103EA000119919EE900A0CF0BBFA1CEE100A31467B
:103EB000CDF80090F0230F22FEF743FD219BC4F8BC
:103EC000BC3B05221CEE100A1146C4F8107CA4F875
:103ED000147CFEF793FF05221CEE100AEB21FEF77F
:103EE00091FF1CEE100A01210AE000BF7838012082
:103EF000803801207DCE0208F0CE0208F000AC0030
:103F0000FEF784FF1CEE100A01210EF081FC1CEE6E
:103F1000101A19EE900A0DF190080CF081FA324651
:103F200003984521FEF700FD0399C4F8487C4046FC
:103F3000A4F84C6C0EF002FE98E80700039BCDF845
:103F4000ACA03C3383E807000398ADF8B060294685
:103F50000FF08EF8039919EE900A0CF061FA19EE41
:103F6000901A18EE100A0CF03EFF18EE100A01210C
:103F70000CF02AFF18EE101A1AEE100A0CF050FA84
:103F80001CEE900A3146CDF80090F0234B22FEF74C
:103F9000D8FC4FF6FF73A4F8E03C0522229BC4F83E
:103FA000883C1CEE900A1146C4F8DC7CFEF726FF24
:103FB00005221CEE900AEB21FEF724FF1CEE900A6E
:103FC0000121FEF723FF1CEE900A01210EF020FCD8
:103FD0001CEE901A1AEE100A0CF022FA04983C22F9
:103FE0004621FEF7A1FC0499C4F8147D4046A4F8CC
:103FF000186D0EF0A3FD98E80700049BCDF8ACA067
:104000003C3383E807001E230498ADF8B0302946FE
:104010000FF02EF804991AEE100A0CF001FA1DEEBA
:10402000100A3146CDF80090F0233222FEF789FCC9
:10403000239BC4F8543D05221DEE100A1146C4F816
:10404000A87DA4F8AC7DFEF7D9FE05221DEE100A6E
:10405000EB21FEF7D7FE1DEE100A0121FEF7D6FE7A
:104060001DEE100A01210EF0D3FB1DEE101A1AEE00
:10407000100A0CF0D5F9059823224521FEF754FCCF
:104080000599C4F8E07D4046A4F8E46D0EF056FDB5
:1040900098E80700059BCDF8ACA03C3383E8070007
:1040A00020230598ADF8B03029460EF0E1FF0599C0
:1040B0001AEE100A0CF0B4F906980C223621FEF71D
:1040C00033FC0699C4F8287E4046A4F82C6E0EF006
:1040D00035FD98E80700069BCDF8ACA03C3383E89B
:1040E000070021230698ADF8B03029460EF0C0FF36
:1040F0001AEE100A06990CF093F920462FB0BDEC89
:10410000108BBDE8F08F00BF7047704700F59873C3
:104110000868496803C3704770477047416070473B
:1041200010B50022B1F90840B1F90A1002804280AE
:104130008480C18010BD704770470000064BC0F8F6
:104140004C310023C0F8503100F5A273C0F848018B
:10415000C0F84031704700BFF944000801230372E2
:104160007047704770477047704770470146406816
:10417000036810315B6E18470146406803681031D0
:104180001B6E1847704701464068036810315B6E2C
:10419000184701464068036810311B6E1847704786
:1041A00010B4C26841685410034601EB6200D207A4
:1041B00048BF0A599B685DF8044B48BFD35818475D
:1041C00043682BB183682BB9C06800F001007047C9
:1041D000184670470120704710B50C21044626F0A0
:1041E000ACFA204610BD10B51021044626F0A5FA01
:1041F000204610BD10B54FF4AE71044626F09DFA6E
:10420000204610BD10B53821044626F096FA204607
:1042100010BD10B52821044626F08FFA204610BDA7
:1042200010B53821044626F088FA204610BD10B596
:1042300012F0CEF90368BDE81040DB6B18470000B0
:1042400013B50446807A637A0130C0B29842A072F6
:1042500005D9012323720023A37202B010BDB4F963
:104260000C20002114F024F810F0010283B22AD1AE
:10427000E081194AB4F90E00E3891288B4F91410E8
:10428000A0820020D21AADF80200606822835B1A77
:10429000124AADF804300368B2F900201B69ADF88A
:1042A0000010ADF8062069469847A37A012BD4D1B7
:1042B0000B4B1B78002BD0D012F08AF902B0BDE86E
:1042C000104012F08BB94FF6FF710028D8BF0A4694
:1042D0001344E381CDE700BF1038012012380120DC
:1042E0001A38012010B50446D0F8400158B10368CF
:1042F000DB68984738B1D4F8400103689B68984759
:104300000023C4F8403110BD2DE9F14FD0E9555AD2
:104310000746A86803681B6A9847972805D8464B44
:10432000464AA321464827F01BF8686803681B6AC1
:1043300098470F2803D8434B404AA421F2E7E86886
:1043400003681B6A98470B2803D83F4B3B4AA521BB
:10435000E8E712F03DF9DFF8F890043012F09EF92A
:10436000D9F8000010B10368DB689847D9F800005D
:1043700010B103681B689847DFF8D880D8F80000B0
:1043800010B103685B699847D7F83C0110B1036826
:104390005B689847D8F8000010B103681B6898471D
:1043A000D7F83C0110B103689B689847E868036838
:1043B00000215B6A98474FF0000B244B03600446D2
:1043C000C0F804B080F808B0A868036859465B6A72
:1043D0009847064604F0A4FE6868036859465B6A7D
:1043E00098473146054604F077FEC9F80040C7F803
:1043F0003C51C8F80060E5B12B1DCAF800303368A5
:10440000C5F808A03046DB68F56398472B68284656
:104410001B6898472146304613F006FF2368204664
:104420001B69984723685B69204601B0BDE8F04FDF
:1044300018472B46E1E700BF6CD00208FAD002080B
:1044400008D202084FD20208F2D20208ACE30208F6
:10445000643801206038012037B50446807A637AD9
:104460000130C0B29842A07205D901232372002303
:10447000A37203B030BDB4F90C20002113F018FF73
:1044800010F0010283B228D1E081184B1848198836
:10449000258BE389B0F90000ADF80600CA1A606800
:1044A0002B445B1A12B2ADF8043003682283ADF8D6
:1044B000002000221B69ADF8022069469847A37AC4
:1044C000012BD6D10B4B1B78002BD2D012F080F8E9
:1044D00003B0BDE8304012F081B84FF6FF710028FC
:1044E000D8BF0A461344E381CFE700BF103801204C
:1044F000123801201A3801202DE9F14FD0E9555A20
:104500000746A86803681B6A984741F27B139842E4
:1045100005D8464B464AA321464826F021FF686845
:1045200003681B6A98470F2803D8434B404AA421CD
:10453000F2E7E86803681B6A98470B2803D83F4BEB
:104540003B4AA521E8E712F043F8DFF8F890043081
:1045500012F0A4F8D9F8000010B10368DB6898479E
:10456000D9F8000010B103681B689847DFF8D880BD
:10457000D8F8000010B103685B699847D7F83C0190
:1045800010B103685B689847D8F8000010B1036861
:104590001B689847D7F83C0110B103689B6898479F
:1045A000E868036800215B6A98474FF0000B244BD2
:1045B00003600446C0F804B080F808B0A868036837
:1045C00059465B6A9847064604F04EFA68680368E5
:1045D00059465B6A98473146054604F01FFAC9F808
:1045E0000040C7F83C51C8F80060E5B12B1DCAF87F
:1045F00000303368C5F808A03046DB68F56398479B
:104600002B6828461B6898472146304613F00CFE5D
:10461000236820461B69984723685B69204601B0E0
:10462000BDE8F04F18472B46E1E700BF6CD0020809
:1046300095D3020808D202084FD20208F2D202082B
:10464000ACE302086438012060380120044B1B6889
:1046500093F858200AB1D86C00B99868704700BF29
:104660001C380120F8B5044617460E4612F0E4F84F
:10467000104B1C60104B2360104B0025C4E95135D2
:104680000F4BC4E953551868036801219B68C4E9BE
:104690004F55C4E955769847284604F019F8FFF7B6
:1046A000D5FF1BF0CCFCFFF7D1FF1BF043FD2046EC
:1046B000F8BD00BF7038012058E3020840E302084B
:1046C0001C380120064BC0F84C310023C0F8503193
:1046D00000F5A273C0F84801C0F84031704700BF30
:1046E000F9440008064BC0F84C310023C0F85031A3
:1046F00000F5A273C0F84801C0F84031704700BF10
:10470000694B0008064BC0F84C310023C0F850310B
:1047100000F5A273C0F84801C0F84031704700BFEF
:104720000D570008064BC0F84C310023C0F850313B
:1047300000F5A273C0F84801C0F84031704700BFCF
:10474000294A0008064BC0F84C310023C0F850310C
:1047500000F5A273C0F84801C0F84031704700BFAF
:10476000CD550008064BC0F84C310023C0F850313D
:1047700000F5A273C0F84801C0F84031704700BF8F
:104780008D540008064BC0F84C310023C0F850315E
:1047900000F5A273C0F84801C0F84031704700BF6F
:1047A0004D530008064BC0F84C310023C0F850317F
:1047B00000F5A273C0F84801C0F84031704700BF4F
:1047C0000D520008064BC0F84C310023C0F85031A0
:1047D00000F5A273C0F84801C0F84031704700BF2F
:1047E000E9480008064BC0F84C310023C0F85031AE
:1047F00000F5A273C0F84801C0F84031704700BF0F
:10480000CD500008064BC0F84C310023C0F85031A1
:1048100000F5A273C0F84801C0F84031704700BFEE
:104820008D4F0008064BC0F84C310023C0F85031C2
:1048300000F5A273C0F84801C0F84031704700BFCE
:104840004D4E0008064BC0F84C310023C0F85031E3
:1048500000F5A273C0F84801C0F84031704700BFAE
:104860000D4D0008064BC0F84C310023C0F8503104
:1048700000F5A273C0F84801C0F84031704700BF8E
:104880000943000803685B6A18470000124B13B520
:1048900003604FF480734363104B4172036110490E
:1048A000104BB1F90010B3F900308381002242604F
:1048B00002728272C281C0E90522C0E90722C0E902
:1048C0000922C0E90B220446009110301146FEF780
:1048D00038F8204602B010BDF4E30208D8E202081E
:1048E00012380120103801202DE9F047D0E9554A4F
:1048F0000746A06803681B6A9847B0F58A5F05D22F
:10490000424B434AA321434826F02AFD60680368CE
:104910001B6A98470F2803D83F4B3D4AA421F2E772
:10492000E06803681B6A9847372803D83B4B384A2E
:10493000A521E8E711F04CFEDFF8E490043011F017
:10494000ADFED9F8000010B10368DB689847D9F8CC
:10495000000010B103681B689847DFF8C880D8F8DA
:10496000000010B103685B699847D7F83C0110B1AB
:1049700003685B689847D8F8000010B103681B68AB
:104980009847D7F83C0110B103689B689847E068E6
:104990000021FFF777FF14210546FFF777FFA06896
:1049A000036800215B6A9847064604F01DF96068B9
:1049B000036800215B6A98473146044604F0EEF82C
:1049C000C9F80050C7F83C41C8F80060DCB1231DAD
:1049D000CAF800303368C4F808A03046DB68F463D6
:1049E0009847236820461B6898472946304613F0AD
:1049F0001BFC2B6828461B6998472B6828465B6977
:104A0000BDE8F04718472346E2E700BF6CD0020834
:104A10009DD4020808D202084FD20208F2D202083E
:104A200064380120603801202DE9F047D0E9554A6B
:104A30000746A06803681B6A9847B0F58A5F05D2ED
:104A4000424B434AA321434826F08AFC606803682E
:104A50001B6A98470F2803D83F4B3D4AA421F2E731
:104A6000E06803681B6A9847372803D83B4B384AED
:104A7000A521E8E711F0ACFDDFF8E490043011F077
:104A80000DFED9F8000010B10368DB689847D9F82B
:104A9000000010B103681B689847DFF8C880D8F899
:104AA000000010B103685B699847D7F83C0110B16A
:104AB00003685B689847D8F8000010B103681B686A
:104AC0009847D7F83C0110B103689B689847E068A5
:104AD0000021FFF7D7FE14210546FFF7D7FEA06897
:104AE000036800215B6A9847064604F01DF8606879
:104AF000036800215B6A98473146044603F0EEFFE5
:104B0000C9F80050C7F83C41C8F80060DCB1231D6B
:104B1000CAF800303368C4F808A03046DB68F46394
:104B20009847236820461B6898472946304613F06B
:104B30007BFB2B6828461B6998472B6828465B69D6
:104B4000BDE8F04718472346E2E700BF6CD00208F3
:104B5000CDD5020808D202084FD20208F2D20208CC
:104B600064380120603801202DE9F047D0E9554A2A
:104B70000746A06803681B6A984741F27B13984276
:104B800005D8424B424AA321424826F0E9FB60681F
:104B900003681B6A98470F2803D83F4B3C4AA4215F
:104BA000F2E7E06803681B6A9847372803D83B4B55
:104BB000374AA521E8E711F00BFDDFF8E490043057
:104BC00011F06CFDD9F8000010B10368DB6898475C
:104BD000D9F8000010B103681B689847DFF8C4805B
:104BE000D8F8000010B103685B699847D7F83C011A
:104BF00010B103685B689847D8F8000010B10368EB
:104C00001B689847D7F83C0110B103689B68984728
:104C1000E0680021FFF736FE14210546FFF736FE57
:104C2000A068036800215B6A9847064603F01CFFF2
:104C30006068036800215B6A98473146044603F0C8
:104C4000EDFEC9F80050C7F83C41C8F80060DCB17F
:104C5000231DCAF800303368C4F808A03046DB686A
:104C6000F4639847236820461B68984729463046D6
:104C700013F0DAFA2B6828461B6998472B682846F8
:104C80005B69BDE8F04718472346E2E76CD00208AD
:104C9000EBD6020808D202084FD20208F2D202086C
:104CA000643801206038012003685B6A18470000FF
:104CB000124B13B503604FF480734363104B417282
:104CC00003611049104BB1F90010B3F90030838132
:104CD0000022426002728272C281C0E90522C0E9EC
:104CE0000722C0E90922C0E90B22044600911030D6
:104CF0001146FDF726FE204602B010BDD0E30208A3
:104D0000D8E2020812380120103801202DE9F047BE
:104D1000D0E9554A0746A06803681B6A984741F2E4
:104D2000AF03984205D8424B424AA321424826F09D
:104D300017FB606803681B6A98470F2803D83F4B2E
:104D40003C4AA421F2E7E06803681B6A98473728C9
:104D500003D83B4B374AA521E8E711F039FCDFF8CF
:104D6000E490043011F09AFCD9F8000010B1036807
:104D7000DB689847D9F8000010B103681B689847B2
:104D8000DFF8C480D8F8000010B103685B69984769
:104D9000D7F83C0110B103685B689847D8F8000069
:104DA00010B103681B689847D7F83C0110B103683D
:104DB0009B689847E0680021FFF776FF14210546BD
:104DC000FFF776FFA068036800215B6A98470646F4
:104DD00004F04EF96068036800215B6A9847314629
:104DE000044604F01FF9C9F80050C7F83C41C8F860
:104DF0000060DCB1231DCAF800303368C4F808A095
:104E00003046DB68F4639847236820461B68984760
:104E10002946304613F008FA2B6828461B69984744
:104E20002B6828465B69BDE8F04718472346E2E750
:104E30006CD0020805D8020808D202084FD2020836
:104E4000F2D2020864380120603801202DE9F047D1
:104E5000D0E9554A0746A06803681B6A984741F69F
:104E60006353984205D8424B424AA321424826F058
:104E700077FA606803681B6A98470F2803D83F4B8E
:104E80003C4AA421F2E7E06803681B6A9847372888
:104E900003D83B4B374AA521E8E711F099FBDFF82F
:104EA000E490043011F0FAFBD9F8000010B1036867
:104EB000DB689847D9F8000010B103681B68984771
:104EC000DFF8C480D8F8000010B103685B69984728
:104ED000D7F83C0110B103685B689847D8F8000028
:104EE00010B103681B689847D7F83C0110B10368FC
:104EF0009B689847E0680021FFF7D6FE142105461D
:104F0000FFF7D6FEA068036800215B6A9847064653
:104F100003F076FC6068036800215B6A98473146BD
:104F2000044603F047FCC9F80050C7F83C41C8F8F4
:104F30000060DCB1231DCAF800303368C4F808A053
:104F40003046DB68F4639847236820461B6898471F
:104F50002946304613F068F92B6828461B699847A4
:104F60002B6828465B69BDE8F04718472346E2E70F
:104F70006CD0020825D9020808D202084FD20208D4
:104F8000F2D2020864380120603801202DE9F04790
:104F9000D0E9554A0746A06803681B6A984741F262
:104FA0005B03984205D8424B424AA321424826F06F
:104FB000D7F9606803681B6A98470F2803D83F4BEE
:104FC0003C4AA421F2E7E06803681B6A9847372847
:104FD00003D83B4B374AA521E8E711F0F9FADFF88F
:104FE000E490043011F05AFBD9F8000010B10368C6
:104FF000DB689847D9F8000010B103681B68984730
:10500000DFF8C480D8F8000010B103685B699847E6
:10501000D7F83C0110B103685B689847D8F80000E6
:1050200010B103681B689847D7F83C0110B10368BA
:105030009B689847E0680021FFF736FE142105467B
:10504000FFF736FEA068036800215B6A98470646B2
:1050500003F066FE6068036800215B6A984731468A
:10506000044603F037FEC9F80050C7F83C41C8F8C1
:105070000060DCB1231DCAF800303368C4F808A012
:105080003046DB68F4639847236820461B689847DE
:105090002946304613F0C8F82B6828461B69984704
:1050A0002B6828465B69BDE8F04718472346E2E7CE
:1050B0006CD002084BDA020808D202084FD202086C
:1050C000F2D2020864380120603801202DE9F0474F
:1050D000D0E9554A0746A06803681B6A984741F221
:1050E0005B03984205D8424B424AA321424826F02E
:1050F00037F9606803681B6A98470F2803D83F4B4D
:105100003C4AA421F2E7E06803681B6A9847372805
:1051100003D83B4B374AA521E8E711F059FADFF8ED
:10512000E490043011F0BAFAD9F8000010B1036825
:10513000DB689847D9F8000010B103681B689847EE
:10514000DFF8C480D8F8000010B103685B699847A5
:10515000D7F83C0110B103685B689847D8F80000A5
:1051600010B103681B689847D7F83C0110B1036879
:105170009B689847E0680021FFF796FD14210546DB
:10518000FFF796FDA068036800215B6A9847064612
:1051900003F084FD6068036800215B6A984731462C
:1051A000044603F055FDC9F80050C7F83C41C8F863
:1051B0000060DCB1231DCAF800303368C4F808A0D1
:1051C0003046DB68F4639847236820461B6898479D
:1051D0002946304613F028F82B6828461B69984763
:1051E0002B6828465B69BDE8F04718472346E2E78D
:1051F0006CD002088FDB020808D202084FD20208E6
:10520000F2D2020864380120603801202DE9F0470D
:10521000D0E9554A0746A06803681B6A9847B0F56D
:105220008A5F05D2424B434AA321434826F098F8AF
:10523000606803681B6A98470F2803D83F4B3D4AB4
:10524000A421F2E7E06803681B6A9847372803D86F
:105250003B4B384AA521E8E711F0BAF9DFF8E490B2
:10526000043011F01BFAD9F8000010B10368DB68B4
:105270009847D9F8000010B103681B689847DFF819
:10528000C880D8F8000010B103685B699847D7F868
:105290003C0110B103685B689847D8F8000010B172
:1052A00003681B689847D7F83C0110B103689B68F6
:1052B0009847E0680021FFF7F7FC14210546FFF747
:1052C000F7FCA068036800215B6A9847064603F074
:1052D0008BFC6068036800215B6A9847314604468E
:1052E00003F05CFCC9F80050C7F83C41C8F8006006
:1052F000DCB1231DCAF800303368C4F808A030467A
:10530000DB68F4639847236820461B689847294662
:10531000304612F089FF2B6828461B6998472B6896
:1053200028465B69BDE8F04718472346E2E700BF1F
:105330006CD00208CFDC020808D202084FD2020863
:10534000F2D2020864380120603801202DE9F047CC
:10535000D0E9554A0746A06803681B6A984741F29E
:105360005B03984205D8424B424AA321424825F0AC
:10537000F7FF606803681B6A98470F2803D83F4B04
:105380003C4AA421F2E7E06803681B6A9847372883
:1053900003D83B4B374AA521E8E711F019F9DFF8AC
:1053A000E490043011F07AF9D9F8000010B10368E4
:1053B000DB689847D9F8000010B103681B6898476C
:1053C000DFF8C480D8F8000010B103685B69984723
:1053D000D7F83C0110B103685B689847D8F8000023
:1053E00010B103681B689847D7F83C0110B10368F7
:1053F0009B689847E0680021FFF756FC142105469A
:10540000FFF756FCA068036800215B6A98470646D0
:1054100003F0C8FD6068036800215B6A9847314665
:10542000044603F099FDC9F80050C7F83C41C8F89C
:105430000060DCB1231DCAF800303368C4F808A04E
:105440003046DB68F4639847236820461B6898471A
:105450002946304612F0E8FE2B6828461B6998471B
:105460002B6828465B69BDE8F04718472346E2E70A
:105470006CD00208FFDD020808D202084FD20208F1
:10548000F2D2020864380120603801202DE9F0478B
:10549000D0E9554A0746A06803681B6A984741F25D
:1054A000F733984205D8424B424AA321424825F09F
:1054B00057FF606803681B6A98470F2803D83F4B63
:1054C0003C4AA421F2E7E06803681B6A9847372842
:1054D00003D83B4B374AA521E8E711F079F8DFF80C
:1054E000E490043011F0DAF8D9F8000010B1036844
:1054F000DB689847D9F8000010B103681B6898472B
:10550000DFF8C480D8F8000010B103685B699847E1
:10551000D7F83C0110B103685B689847D8F80000E1
:1055200010B103681B689847D7F83C0110B10368B5
:105530009B689847E0680021FFF7B6FB14210546F9
:10554000FFF7B6FBA068036800215B6A9847064630
:1055500003F088FC6068036800215B6A9847314665
:10556000044603F059FCC9F80050C7F83C41C8F89C
:105570000060DCB1231DCAF800303368C4F808A00D
:105580003046DB68F4639847236820461B689847D9
:105590002946304612F048FE2B6828461B6998477A
:1055A0002B6828465B69BDE8F04718472346E2E7C9
:1055B0006CD0020841DF020808D202084FD202086C
:1055C000F2D2020864380120603801202DE9F0474A
:1055D000D0E9554A0746A06803681B6A9847B0F5AA
:1055E0008A5F05D2424B434AA321434825F0B8FEC7
:1055F000606803681B6A98470F2803D83F4B3D4AF1
:10560000A421F2E7E06803681B6A9847372803D8AB
:105610003B4B384AA521E8E710F0DAFFDFF8E490C9
:10562000043011F03BF8D9F8000010B10368DB68D2
:105630009847D9F8000010B103681B689847DFF855
:10564000C880D8F8000010B103685B699847D7F8A4
:105650003C0110B103685B689847D8F8000010B1AE
:1056600003681B689847D7F83C0110B103689B6832
:105670009847E0680021FFF717FB14210546FFF764
:1056800017FBA068036800215B6A9847064603F091
:105690008FFB6068036800215B6A984731460446C7
:1056A00003F060FBC9F80050C7F83C41C8F800603F
:1056B000DCB1231DCAF800303368C4F808A03046B6
:1056C000DB68F4639847236820461B68984729469F
:1056D000304612F0A9FD2B6828461B6998472B68B5
:1056E00028465B69BDE8F04718472346E2E700BF5C
:1056F0006CD0020883E0020808D202084FD20208E8
:10570000F2D2020864380120603801202DE9F04708
:10571000D0E9554A0746A06803681B6A9847B0F568
:105720008A5F05D2424B434AA321434825F018FE25
:10573000606803681B6A98470F2803D83F4B3D4AAF
:10574000A421F2E7E06803681B6A9847372803D86A
:105750003B4B384AA521E8E710F03AFFDFF8E49028
:10576000043010F09BFFD9F8000010B10368DB682B
:105770009847D9F8000010B103681B689847DFF814
:10578000C880D8F8000010B103685B699847D7F863
:105790003C0110B103685B689847D8F8000010B16D
:1057A00003681B689847D7F83C0110B103689B68F1
:1057B0009847E0680021FFF777FA14210546FFF7C4
:1057C00077FAA068036800215B6A9847064603F0F1
:1057D000ABF96068036800215B6A9847314604466C
:1057E00003F07CF9C9F80050C7F83C41C8F80060E4
:1057F000DCB1231DCAF800303368C4F808A0304675
:10580000DB68F4639847236820461B68984729465D
:10581000304612F009FD2B6828461B6998472B6813
:1058200028465B69BDE8F04718472346E2E700BF1A
:105830006CD00208AFE1020808D202084FD2020879
:10584000F2D202086438012060380120406A7047B3
:10585000806A704770478B88C0690A68DB0A50F815
:1058600023001044704710B5C2B1137BB3B1547B11
:10587000D27A240204F4E0641443026A98B202EB80
:10588000840213888B4202D192F9020010BD05D820
:10589000013880B204320028F3D1F7E70020F5E7A1
:1058A00010B52C21044624F048FF204610BD00000E
:1058B00030B58BB00446BDF860500895BDF85C501B
:1058C00007959DF8505006959DF84C5005959DF80C
:1058D000485004959DF8445003959DF8405002951A
:1058E0009DF83C500195BDF83850009512F006F82F
:1058F000064B2360159BE361169B2362199B636231
:105900001A9BA36220460BB030BD00BF18E402080A
:105910007047704730B4C26844685510034604EBC2
:105920006200D20748BF62599B6830BC48BFD35859
:10593000184743682BB183682BB9C06800F0010099
:105940007047184670470120704710B51021044673
:1059500024F0F3FE204610BD10B5034B036004464F
:105960000FF034F9204610BD90E4020807B5074B4C
:10597000036001900FF02AF9019841F27C1124F0A4
:10598000DCFE019803B05DF804FB00BF90E4020860
:1059900038B500F53473994204460D4603D110F032
:1059A00017FEFEF7AFFE04F522739D4203D110F0FF
:1059B0000FFEFEF737FF04F510739D4203D110F080
:1059C00007FEFEF73FFF04F54674A5420AD10648DC
:1059D0000022202104F042FA10F0FAFDBDE8384020
:1059E000FEF740BF38BD00BF001002402DE9F04F68
:1059F0002DED068B04468FB0A346002512F068FA01
:105A00006A4BE5634BF8403B26222946584625F071
:105A1000ACFE5846FCF7BAFF04F16C0AFF26644B53
:105A2000236426224FF6FF73294684F866605046A9
:105A3000A566ADF8303025F098FE5046FCF7A6FF7D
:105A40005C4BE366BDF83030A4F892300CA95046A8
:105A500004F1980984F894600EF0BBF84846FCF70E
:105A6000F9FF04F1E407544BC4F89830C4F8E0504F
:105A700038460CF0A1FD04F5AA7318460393FCF711
:105A800089FD4E4BC4F8543104F5B4782433C4F87E
:105A90005C31C4F860514046FCF7DCFF04F5D87374
:105AA000184608EE103AFCF7D5FF04F5FC731846CB
:105AB00008EE903AFCF7CEFF04F51073184609EE95
:105AC000103A0EF0BDF904F52273184609EE903A2B
:105AD0000EF0B6F904F5347318460AEE103A0EF0DB
