:020000040800F2
:10000000000003208D050008192100081D210008AB
:1000100021210008252100082921000800000000F6
:1000200000000000000000000000000061BC0008AB
:100030002D21000800000000F1BC0008B9B4000840
:10004000DD050008DD050008DD050008DD05000808
:10005000DD050008DD050008DD050008DD050008F8
:10006000DD05000831210008DD050008DD05000878
:10007000DD050008DD050008DD050008DD050008D8
:10008000DD050008DD050008DD050008DD050008C8
:10009000DD050008DD050008DD050008DD050008B8
:1000A000DD050008DD050008DD050008DD050008A8
:1000B000DD050008DD050008DD050008DD05000898
:1000C000DD050008DD050008DD050008DD05000888
:1000D000DD050008DD050008DD050008DD05000878
:1000E000DD050008DD050008DD050008DD05000868
:1000F000DD050008DD050008DD050008DD05000858
:10010000DD050008DD050008DD050008DD05000847
:10011000DD050008DD05000851210008DD050008A7
:10012000DD050008DD050008DD050008DD05000827
:10013000DD050008DD050008DD050008DD05000817
:10014000DD050008DD050008DD050008DD05000807
:10015000DD050008DD050008DD050008DD050008F7
:100160005D210008DD050008DD050008DD0500084B
:10017000DD050008DD050008DD05000800000000C1
:10018000DD050008DD050008DD050008DD050008C7
:10019000DD050008DD050008DD050008DD050008B7
:0C01A00069210008DD0500087521000839
:1001B00010B5054C237833B9044B13B10448AFF3A1
:1001C00000800123237010BD6801002000000000A2
:1001D0007081020808B5034B1BB103490348AFF314
:1001E000008008BD000000006C0100207081020842
:1001F00001F0FF01102A2BDB10F0070F08D010F8D8
:10020000013B013A8B422DD010F0070F42B3F6D1DB
:10021000F0B441EA012141EA014122F007047FF0F4
:1002200000070023F0E80256083C85EA010586EA4B
:10023000010685FA47F5A3FA87F586FA47F6A5FA87
:1002400087F68EB9EED1F0BC01F0FF0102F0070293
:1002500032B110F8013B013A83EA010313B1F8D13E
:100260000020704701387047002D06BF354603381F
:10027000073815F0010F07D1013015F4807F02BF58
:10028000013015F4C03F0130F0BC0138704700BFA9
:1002900053B94AB9002908BF00281CBF4FF0FF31ED
:1002A0004FF0FF3000F070B9ADF1080C6DE904CEED
:1002B00000F006F8DDF804E0DDE9022304B0704741
:1002C0002DE9F047089E0D4604460F46002B4AD103
:1002D0008A42944665D9B2FA82F343B102FA03FC2A
:1002E000C3F120029F4020FA02F217439C404FEADC
:1002F0001C4E1FFA8CF5B7FBFEF1220C0EFB11779A
:1003000042EA074201FB05F090420AD91CEB0202C7
:1003100001F1FF3780F01C81904240F219810239CF
:100320006244121AA4B2B2FBFEF00EFB102244EAA1
:10033000024400FB05F5A5420AD91CEB040400F1B8
:10034000FF3280F00781A54240F204816444023804
:1003500040EA0140641B00211EB1DC400023C6E9D5
:100360000043BDE8F0878B4208D9002E00F0ED80F5
:100370000021C6E900050846BDE8F087B3FA83F11D
:10038000002949D1AB4202D3824200F2F880841A9C
:1003900065EB030201201746002EE2D0C6E90047B4
:1003A000DFE702B9FFDEB2FA82F3002B40F0908063
:1003B0008A1A4FEA1C471FFA8CFE0121B2FBF7F59F
:1003C00007FB1520220C42EA00420EFB05F090428A
:1003D00008D91CEB020205F1FF3802D2904200F26C
:1003E000CB804546121AA4B2B2FBF7F007FB1022ED
:1003F00044EA02440EFB00FEA64508D91CEB0404A7
:1004000000F1FF3202D2A64500F2BB801046A4EBF9
:100410000E0440EA05409FE7C1F120078B4022FA15
:1004200007FC4CEA030C05FA01F420FA07F3FD403F
:100430004FEA1C492343B5FBF9F81FFA8CFE09FB70
:1004400018551C0C44EA054408FB0EF5A54202FAB7
:1004500001F200FA01F00BD91CEB040408F1FF3A99
:1004600080F08880A54240F28580A8F102086444AB
:10047000641B9DB2B4FBF9F309FB134445EA044441
:1004800003FB0EFEA64508D91CEB040403F1FF355F
:100490006CD2A6456AD9023B644443EA0843A3FBF5
:1004A0000295A4EB0E04AC42C846AE4656D353D0D8
:1004B00056B1B0EB080264EB0E0404FA07F7CA4029
:1004C000CC401743C6E9007418460021BDE8F08708
:1004D000C3F1200102FA03FC20FA01F225FA01F12E
:1004E0009D402A434FEA1C471FFA8CFEB1FBF7F0F0
:1004F00007FB1015110C41EA054100FB0EF58D427A
:1005000004FA03F408D91CEB010100F1FF382FD2E3
:100510008D422DD902386144491B92B2B1FBF7F5E7
:1005200007FB151142EA014205FB0EF1914208D981
:100530001CEB020205F1FF3816D2914214D9023D9C
:100540006244521A45EA004138E73146304608E72E
:100550003946E6E61046FBE64845A9D2B9EB020863
:1005600065EB0C0E013BA3E74546EAE72B4694E713
:100570004046D1E7D0467BE7023D624432E7084679
:100580000AE76444023842E7704700BFDFF834D01E
:10059000002103E00C4B5B58435004310B480C4BDB
:1005A00042189A42F6D30B4A02E0002342F8043B79
:1005B000094B9A42F9D307F05BF927F05DF800F098
:1005C0005FFF70470000032024761408000000201D
:1005D0006801002068010020F4430120FEE70000CC
:1005E000704700BF08B500F035FDBDE8084000F0D9
:1005F000BDBC00BF00F030BD704710B504210446FB
:1006000025F045FF204610BD38B50C4B0C4C18802A
:100610000C4B822019806368984740F6110398427A
:100620000AD1094D23682C60822098472B688220CC
:10063000DB689847002038BD0120FCE784010020DA
:100640005000002086010020880100204FF4A07196
:10065000F020FFF7D9BF0000F7B5334D2B680446F3
:100660001B698220984780B2208000284AD02B68DE
:100670000DF106025B6901A982209847BDF806309A
:1006800040F6746293423FD9ADF80620BDF80630BB
:10069000D21A92B20A2A3DD90B23B2FBF3F2234BB2
:1006A0001B889A4201D9013B9AB2BDF8043040F64A
:1006B000B8318B4230D8C3F571630E339BB20F2132
:1006C000B3FBF1F31A4909888B4201D901398BB286
:1006D000184E194D30682F68834281B28CBF591A69
:1006E000C91AB8B2BA428CBF101A801A89B280B245
:1006F00001440529C8BF33603368C8BF2A606380DE
:100700002B68A38003B0F0BDB32B9CBFB423ADF81E
:100710000630BBE70022C8E7C3F56D6308339BB220
:100720000E2BCCD80023D3E78801002086010020BF
:10073000840100208C0100209001002037B568461C
:100740000D461446FFF788FFBDF8000048B1BDF81C
:1007500002302B60BDF804302360034B3C221A604A
:10076000012003B030BD00BF1400002010B10228EA
:1007700009D07047074B1A68B2FA82F25209042175
:10078000054807F0A9BB034B9A68B2FA82F25209F6
:100790001021F5E7940100200010024010B102285A
:1007A00009D07047074B1A68003A18BF012204218C
:1007B000054807F091BB034B9A68003A18BF012225
:1007C0001021F5E7940100200010024010B102282A
:1007D00004D070470421024807F082BB1021FAE7D9
:1007E0000010024008B530B1022809D00020431E95
:1007F0005842584108BD0421024807F067FBF6E75C
:100800001021F9E70010024070B5084D00240126C0
:10081000E0B2FFF7E7FF18B12B68012B18BF2E607D
:100820000134052C05F10405F2D170BD94010020BE
:10083000012380F8781080F87930704700207047E5
:10084000034B4164003918BF01211970704700BF84
:10085000BB37012000207047836B0BB10846184757
:1008600070474FF6FF707047406803689B691847F0
:10087000704770477047000010B5044600F0D8FC80
:1008800023680349D3F88C302046BDE81040184750
:10089000000000D008B503680446D3F880309847BC
:1008A000236820469B6F984700F0ECF823682046A9
:1008B0001B6F9847292001F0E5F800F0E3F8236862
:1008C00020461B6F9847F8E710B504460EF012FE5D
:1008D00023682046D3F8AC30BDE81040184700F03C
:1008E00099BC00F09DBC00F0C1BC00F06FBC00F0F2
:1008F000C9BC00F0D1BC00F073BC0EF067B810B5F5
:100900007C21044625F0C3FD204610BD90F87A30C6
:100910001BB1406803681B68184718467047000001
:1009200010B590F8341090F878400C4B8C421A783F
:1009300009D03AB90A4A0B491488088810800C80FB
:1009400001221A7010BD002AFCD0054A05491488FE
:10095000088810800C800022F3E700BFB437012024
:10096000B0370120B237012070B50D46194635B9B0
:10097000094B0A4A0A4840F2D22126F079FBC0E925
:100980000F52084B003A18BF01221A700368BDE8E5
:100990007040D3F88C301847E081020818820208B2
:1009A00066820208BA37012008B5094B1B888B42C2
:1009B00003D8084B1B88934205D9074B074A0848C0
:1009C0009E2126F055FB074B1980074B1A8008BD66
:1009D000B0370120B2370120AB8202080E83020833
:1009E00066820208B6370120B8370120012108B518
:1009F000002208460AF0F4FD0A4B186028B90A4B99
:100A00000A4A28210A4826F033FB0022042101204B
:100A10000AF09AFE074B186018B9074B034A2C21BD
:100A2000F0E708BDA80100202C84020875840208A4
:100A3000A4840208A40100201E850208024B4FF086
:100A4000FF3118680AF020BEA8010020014B186889
:100A50000AF04EBEA8010020024B002118680AF0DF
:100A600013BE00BFA8010020FFF7F0BF03480449F0
:100A7000006800231A460AF0A1BE00BFA4010020AE
:100A80000400002013B5084C00231A4601A9206871
:100A90000AF0CAFE20684FF0FF33002201A90AF0D5
:100AA000C3FE02B010BD00BFA401002003685B6C50
:100AB00018470120704703689B6A184782B00023DB
:100AC00001930D4B1A6B42F400021A631A6B02F485
:100AD00000020192019A1A6942F400021A611A692D
:100AE00022F400021A61054B054A1A61054B4FF0CA
:100AF00080629A6002B070470038024034260020BD
:100B0000490B000800E100E040F2EF3070470000C0
:100B1000054B0360054B4FF08062C3F88820BFF39C
:100B20004F8FBFF36F8F7047E886020800E100E047
:100B300010B504464FF45A61FFF7EAFF204625F04E
:100B4000A6FC204610BD0000024B1B6858680368D5
:100B50005B691847BC37012070B5044625460A4B2F
:100B60000C30002660602672667245F8203B6022D9
:100B700029460EF017FE04F55A63EE602435AB42A9
:100B8000FBD1204670BD00BFE886020808B50B29DE
:100B90000BD8DFE801F01206100A0A0A0A08080852
:100BA0000808012008BD0520FCE7054B054A06485A
:100BB000652126F05DFA0020F4E70220F2E700BF8D
:100BC000608502087B850208C585020808B50A29E8
:100BD00009D8DFE801F010060E0808080806060626
:100BE0000600012008BD054B054A0648862126F06F
:100BF0003FFA0020F6E70220F4E700BF6085020814
:100C00003D860208C58502082DE9F84391F81D804C
:100C10000C4641460746FFF7B9FF94F81E9005467B
:100C200049463846FFF7B2FF494606463846FFF7C1
:100C3000CDFFA18A628B434B521A1A649A61228BB0
:100C4000521A1A61E28A586342EA01425A642069E0
:100C50006268D863DA602768802F28D0227F0FD897
:100C6000202F65D0402F63D0042F1AD0354B45EA92
:100C7000026545F40035C845DD615FD0324A44E085
:100C8000B7F5807F04D0B7F5007FEFD12F4900E0A2
:100C90002F4941EA0262DA61E2681A625E625861D3
:100CA00032E045EA026242F40032DA61F6E7A76810
:100CB0003A1DDA62217F3A7845EA016545F400354C
:100CC000DD615E62586142B1012A21D0214B224A86
:100CD00022484FF4887126F0CBF9DA69798822F43A
:100CE0007F42013922F0100242EA0122DA61012139
:100CF000144BDA6942F02002DA61DA699206FCD418
:100D000010229A600029B9D0154A1A60BDE8F8830C
:100D1000DA69788822F47F42013822F0100242EA30
:100D20000022FF3942F0100218BF0121DA61DFE72B
:100D300045EA0262034B42F40032B6E740F2012278
:100D4000E3E700BF00B00240010201000900020019
:100D50000A00020088860208A2860208C5850208E9
:100D60000102020038B50C46897FFFF72FFFA58AE4
:100D7000E28A164B2169586342EA05425A64628B43
:100D8000D963521B1A642568082D0ED19A611A6125
:100D90005862207F0E4A42EA0062DA61E2681A6213
:100DA0000C4A5961D9601A6038BD0022D8611A61B5
:100DB000E1680A0A480902F4784200F4FC60024340
:100DC000C1F3C4010A439A63034AECE700B002404E
:100DD000090001000102020001020300034B1A682E
:100DE000D207FCD423229A60704700BF00B00240B3
:100DF00030B50F4C2568ED07FCD423250904A56008
:100E000041F001010225FF2B65636164E0630AD0B4
:100E10000849656241EA0363E361074B226260614E
:100E2000E060236030BDE561039BA363034BF8E7FB
:100E300000B00240090001000100020001000300AF
:100E40000120704738207047382303FB0100083029
:100E50007047382303FB01000830704701207047BA
:100E600041F2E430704741F2E43303FB0100083003
:100E7000704741F2E43303FB010008307047012062
:100E800070471020704700EB01100830704700EBEE
:100E9000011008307047084601F060BF10B5034BE1
:100EA000036004460DF01BF9204610BDA087020820
:100EB00010B50446FFF7F2FF2046402125F0E7FA7F
:100EC000204610BD10B5034B036004460DF007F932
:100ED000204610BD6C87020810B50446FFF7F2FFEC
:100EE000204641F2EC3125F0D2FA204610BD000038
:100EF00010B5034B036004460DF0F1F8204610BD19
:100F00003887020810B50446FFF7F2FF2046182183
:100F100025F0BDFA204610BD10B5094B036004460C
:100F200000F5A0501830FFF7B9FF04F12C00FFF7CF
:100F3000C9FF04F11400FFF7DBFF204610BD00BF1E
:100F4000D487020808B50248FFF7E6FF08BD00BFD6
:100F5000B001002010B50446FFF7DEFF204641F245
:100F6000BC5125F094FA204610BD00002DE9F34154
:100F700001F07EF9054601F07FF900240146234681
:100F800028462246009415F02DFF264B264A274D71
:100F90001A60204605F01AFE254815F08BFE2B68D6
:100FA000BFF35B8FDB0736D4284625F072FA90B387
:100FB000204C214B214F236004F5A35604F114006B
:100FC00004F12C086060C4F80880E76026610DF029
:100FD00087F81B4B636140460DF082F8194BE362C2
:100FE00038460DF07DF804F58053174AC3F81824ED
:100FF00003F58B6006F01AF92246A6F10801304687
:1010000005F09CFE304601F0A9FE104826F04EF88F
:10101000284625F04AFA0E4802B0BDE8F041FFF735
:101020002BBC00BF203801208C250020AC01002003
:1010300008000020B0010020D4870208C815002055
:10104000388702086C870208A0870208450F00084D
:1010500010250020704700000148FFF71BBC00BFAF
:101060001025002070B5224E224C234D234B2360C7
:101070003046FFF771FD28461AF080F9204B2148D1
:10108000DC6000224FF48071C3E912121E491A86F7
:10109000C3E91A121D4999671D4983F858200B604E
:1010A000F02101801B485A6601801B4883F870209C
:1010B0004FF4A071C3E90422C3E90622C3E9082260
:1010C000C3E90A22C3E90E22C3E91022C3E91422AC
:1010D000C3E917225A67C3E9016501800F480180FF
:1010E0000F490A70012283F834200E4A1A6070BD3D
:1010F000701700206C17002090250020D081020876
:1011000010250020B037012001000001000001017E
:10111000BC370120B6370120B2370120B837012093
:10112000B43701205C8302080148FFF7F1BC00BF1F
:10113000701700200020704781807047C180704781
:101140000181704741817047704770477047704711
:10115000704710B4C4880368121B84885B6D091B38
:1011600012B25DF8044B09B218474FF6FF73838142
:101170004FF0FF3303621368C3611060704790F84B
:1011800025201AB190F8242002B118607047002081
:1011900070478B88838001207047704780F8261045
:1011A000704790F82600704710B50022B1F908404A
:1011B000B1F90A10028042808480C18010BD0022F3
:1011C000028042808280C28070470000034B9022E0
:1011D00083F85A2383F85823704700BF00E100E0EA
:1011E000094A0A49D3680A48C3F30A03013B9BB280
:1011F0000B801169C1F30A01013901801364536B3B
:1012000043F0010353637047006801401626002035
:1012100014260020014BD3F8AC0070470068014051
:10122000024B0122C3F8AC105A62704700680140BB
:1012300070B504460DF01FFC23685D6E12F0C8FB0C
:1012400001462046A8472368054AD3F8885020461F
:10125000AC460023BDE87040A2F51631604700BFE0
:1012600000B004D00DF0EEBB0DF0F8BB0DF0B4BB38
:101270000DF015BD90F8252012B103685B69184781
:1012800070470000034B4FF080629A604FF080720D
:101290009A60704700E100E0084B4FF08062C3F8AD
:1012A0008820BFF34F8FBFF36F8F4FF08072C3F86A
:1012B0008820BFF34F8FBFF36F8F704700E100E0CE
:1012C00070B50023124E8380124B0360336893F88D
:1012D000582005460AB1D86C00B998680368DB6AE3
:1012E00098473368B0FA80F4D86C640930B1036869
:1012F000DB6A9847002808BF44F001042CB9064B6C
:10130000064A07482C2125F0B3FE284670BD00BFD1
:10131000BC370120E4880208E08702083E88020802
:101320007788020810B5144C236823B3134B144A72
:101330001B6C11888B4213D1124B198808F0E8FB03
:10134000226892F86A30013382F86A30FFF78EFB28
:1013500020680EF0CFF8BDE810400020FFF706BA75
:1013600008F0D6FB206803681B6A9847BDE8104068
:101370000020FFF713BA10BDBC3701200068014000
:10138000162600201426002008B564200AF01AF959
:10139000FBE700BF80B5104CDFF848800F4F104EC0
:1013A000206800231A462146451ED8F80000256013
:1013B0000AF004FA22683C233846202112B923603F
:1013C00006F08AFD30464FF4005106F089FD4FF4D7
:1013D0007A700AF0F7F8E3E71400002000100240EA
:1013E000001802402026002030B5002495B0CDE939
:1013F0000A44CDE90C44CDE90344CDE905441E4A35
:1014000001940794116C1D4B41F080511164126CD2
:1014100002F080520192019A02941A6842F440420A
:101420001A601B6803F44043029301224FF4803397
:10143000CDE908230823022510934FF480024FF4CE
:10144000A873CDE90E5211930222042308A8CDE916
:101450001223029908F07EFB0F23CDE903354FF4E8
:10146000A0524FF4805303A80521CDE9054207930C
:1014700008F088FD15B030BD003802400070004013
:101480002DE9804800249DB006F000FAFFF7ACFF7C
:10149000CDE90F44CDE91144C14B00941394196B6D
:1014A000C048C14D41F010011963196B01F01001E2
:1014B000009100990194196B41F020011963196B97
:1014C00001F02001019101990294196B41F0800112
:1014D0001963196B01F08001029102990394196B51
:1014E00041F004011963196B01F0040103910399A0
:1014F0000494196B41F001011963196B01F00101AA
:10150000049104990594196B41F002011963196B58
:1015100001F00201059105990694196B41F0400113
:101520001963196B01F04001069106990794196B34
:1015300041F0080119631B6B03F00803224607936F
:101540001421079B06F0C8FC96482021012206F0D2
:10155000C3FC96482246042106F0BEFC944822466D
:101560004FF4405106F0B8FC012292484FF400516C
:1015700006F0B2FC01264FF00309142389480FA995
:101580004FF00808CDE90F36CDE9114906F060FBB0
:101590004FF488138348CDF83C800FA91093119421
:1015A00006F056FB20237F480F930FA902274FF028
:1015B000040ACDE91064129406F04AFB7B48CDF88A
:1015C0003CA00FA9CDE91064129706F041FB4FF43F
:1015D000405377480F930FA9CDE91064129706F096
:1015E00037FB4FF4004374480F930FA90F23139355
:1015F0004FF4005BCDE91074129406F029FB6D489E
:10160000CDF83CB00FA9CDE91064129406F020FB90
:1016100022460521092006F089F9092006F0C4F9BF
:101620006648674B036006F0CDF96649664B28466D
:10163000C5E900134FF480432B61C5E90244C5E9B5
:101640000544C5E9074406F0ADFE1021284608F020
:1016500075F82146284608F091F8DFF884C15B4808
:101660005B4D84624FF482734FF4007EC0E900C387
:101670001823C0E906E30A23C362C0E90244C0E9B3
:101680000444C0E9084408F06BFF07231093129349
:10169000504B2B6040204FF4C073C5E90503C5F8DB
:1016A00028B04FF400634FF0100B0FA928462B62AF
:1016B000C5E90164C5F80CA0CDE91397EC616C6233
:1016C000CDF844A0C5F810B00F97159708F056FE56
:1016D0004FF6FF720BA92846CDE90B68CDE90D64E2
:1016E000089408F06DFE304606F0FCF84FF6FF72E5
:1016F0000BA92846CDE90B78CDE90D6408F060FE12
:101700004FF6FF720BA92846CDE90B98CDE90DA441
:1017100008F056FE4FF40C730893089B0E934FF697
:10172000FF720BA92846CDE90BA80D9608F048FEDC
:10173000284640F26A51284DDFF8A88008F05EFE86
:10174000342221460FA825F098FE244B2B60092354
:101750006B611D23C5F82090EB6140F20D1940F23A
:101760004313C5E90993AC8640F24713284640F27B
:10177000171AC5E90BA3AE61C5E90144C5E90344E5
:1017800085F8364008F01EF8F023109319934FF4B3
:10179000A07312931A93FF234FF4806C24E000BFD0
:1017A0000038024000100240742600200008024069
:1017B000000C024000180240000002402C260020CD
:1017C00000300240005C0040A0860100A4270020F9
:1017D00070270020400100A0C826002000680140BA
:1017E00000500140FC27002022460FA928461493F0
:1017F0000523CDE916C34B4D0F94119413971594FF
:101800001894ADF86C408DF86E4008F0B1F8464B76
:101810002B601B6898472B68444DDB689847444B06
:101820002B60C5E90A47C5E90C442846C5E90147CC
:10183000EC6006F0F1F83146284606F0B3F94FF6B1
:10184000FF763C4B3C4DC8F800304046CDE90F4494
:10185000CDE91144CDE90B44C8E90144C8E9044489
:101860001394C8F81840C8F80C6009F069FA0FA979
:101870004046CDE90F4409F0DDFB0BA94046CDE918
:101880000B4409F015FD2D4B2B602846C5E901449A
:10189000EE602C61AC61CDE90B44CDE90D44CDE99E
:1018A0000F44CDE91144139409940A9409F048FABD
:1018B0004FF480530BA928460B9309F00BFB0FA99B
:1018C0002846CDE90F4409F0B5FB09A92846CDE922
:1018D000094409F0EDFCFEF785FEFEF781FE09F0F4
:1018E000F9FD174A3946584609F02EFF154B164A9E
:1018F00018602146154809F019FE154B154A186065
:101900002146154809F012FE144B154A054621469A
:1019100014481D6009F00AFE134B186009F0ECFD35
:10192000FEE700BF1C2600201800002034260020FF
:1019300000B00240000001404428002000040040A4
:101940005489020820260020908902088913000883
:101950002826002030890208F505000818260020F6
:101960006C8902089513000824260020704700BFE8
:10197000704700BF10B5094C86B024680294144625
:1019800001238DF817400DF117040A460193014613
:101990000094034806F0CEFD06B010BD0C000020F8
:1019A0007426002000B50B4B87B01B680293844659
:1019B0000A4601230DF117010020CDE900138DF82F
:1019C00017006146044806F0A7FE9DF8170007B00F
:1019D0005DF804FB0C0000207426002010B5094CB3
:1019E00084B0844620680290CDE9002306480A4668
:1019F0000123614606F090FE003818BF012004B0B4
:101A000010BD00BF0C0000207426002005F06ABF46
:101A100008B506480022042106F05EFABDE8084039
:101A200002480122042106F057BA00BF0008024014
:101A300030B5104D83B0044601220F484FF40051D9
:101A400006F04AFA28460022042106F045FA0B4B1C
:101A50000B481B68ADF806400DF10601012208F0A5
:101A6000E1FD01220421284603B0BDE8304006F024
:101A700033BA00BF00080240000C024010000020F2
:101A8000A427002030B5104D83B0044600220F4833
:101A90004FF4005106F020FA28460022042106F0F7
:101AA0001BFA0B4B0B481B68ADF806400DF1060105
:101AB000012208F0B7FD01220421284603B0BDE849
:101AC000304006F009BA00BF00080240000C024096
:101AD00010000020A42700202DE9F043194E1A4FD2
:101AE000DFF86890DFF8688083B00C460546002276
:101AF0003046042106F0F0F9384600224FF4005138
:101B000006F0EAF9D9F80030ADF8045001A9012235
:101B1000404608F087FDD9F80030224601A940462A
:101B200009F028F8384601224FF40051019C06F0D4
:101B3000D3F930460122042106F0CEF9204603B045
:101B4000BDE8F08300080240000C024010000020B5
:101B5000A427002005F0C6BE034B02689A4200D0BD
:101B6000704705F0ADBE00BF00100040704700BFD9
:101B700082B00E4B00220092596C41F480415964AE
:101B8000586C00F48040009000980192186C40F06E
:101B9000805018641B6C03F080530193019B0F214C
:101BA0006FF0010002B005F0C1BE00BF0038024076
:101BB0000B4B02689A4200D0704782B0002201921B
:101BC000D3F8302842F48052C3F8302803F500637C
:101BD0001B6B03F480530193019B02B0704700BF5D
:101BE000003002400E4B02689A4200D0704700B5A8
:101BF00083B0A3F5F04300220192196B41F4000178
:101C000019631B6B03F4000301935A200521019B08
:101C100005F08CFE5A2003B05DF804EB05F0C4BE5D
:101C200000B002402DE970432E4B02688AB00024B8
:101C30009A42CDE90444CDE90644089402D00AB0A2
:101C4000BDE87083284D01942B6B284843F00403B2
:101C50002B632B6B03F004030193019B02942B6B0A
:101C600043F001032B632B6B03F0010302934FF44A
:101C700000724FF001084FF00309042604A9122353
:101C8000CDE90423CDE90689029B089605F0E0FF23
:101C900004A94FF48072122315480896CDE9042355
:101CA000CDE9068905F0D4FF03942B6C43F40003BF
:101CB0002B642B6C03F40003224605210393482078
:101CC000039B05F033FE482005F06EFE2B6A43F4BB
:101CD00000032B622B6A23F400032B620AB0BDE8D9
:101CE000708300BF005C00400038024000080240E2
:101CF000000002402DE9F04104469AB00021302254
:101D00000EA8CDE90811CDE90A110C9125F0B5FB1B
:101D1000674B22689A4202D01AB0BDE8F081C02316
:101D20000821042212930EA84FF400330E9114924E
:101D3000179308F0F7F9002840F0B7805D4B5E4834
:101D4000002401945A6C42F080625A645A6C02F08A
:101D500080620192019A02941A6B42F020021A6387
:101D60001A6B02F020020292029A03941A6B42F05C
:101D700001021A631A6B02F001020392039A04949F
:101D80001A6B42F002021A631A6B02F0020204920A
:101D9000049A05941A6B42F040021A631A6B02F01F
:101DA00040020592059A06941A6B42F004021A63E7
:101DB0001A6B02F004020692069A07941A6B42F01C
:101DC00008021A631B6B03F00803002602270E2586
:101DD000079308A94FF480620223CDE90823CDE9D7
:101DE0000A67079B0C9505F033FF08A941F65802D6
:101DF000022332480C95CDE908234FF00908CDE9BC
:101E00000A6705F025FF08A9032202232C48CDF814
:101E10003080CDE90823CDE90A6705F019FF08A94C
:101E20004FF47062022326480C95CDE90823CDE9D2
:101E30000A6705F00DFF08A94FF40C620223214840
:101E40000C95CDE90823CDE90A6705F001FF08A943
:101E5000C02202231C480C95CDE90823CDE90A676E
:101E600005F0F6FE08A90822022318480C95CDE9D2
:101E70000823CDE90A6705F0EBFE022308A94FF419
:101E8000A0521048CDF83080CDE90823CDE90A678B
:101E900005F0DEFE22460521582005F047FD5820BA
:101EA00005F082FD1AB0BDE8F081FFF75FFE45E75F
:101EB0000068014000380240001402400000024067
:101EC000000402400018024000080240000C0240DA
:101ED00010B51B4A016888B000239142CDE9023356
:101EE000CDE90433069301D008B010BD02F5684275
:101EF0000093506C40F480105064506C00F48010DB
:101F0000009000980193136B0E4843F02003136375
:101F1000136B9FED097B03F020030193032205233C
:101F200002A98DED027BCDE90523019C05F090FE11
:101F300008B010BDAFF30080800300000200000075
:101F40000050014000140240124A0368934282B0DC
:101F500012D0114A934201D002B070470F4B0022B9
:101F600001921A6C42F002021A641B6C03F0020325
:101F70000193019B02B07047084B002200925A6CFB
:101F800042F001025A645B6C03F001030093009B72
:101F900002B07047000001400004004000380240D9
:101FA000F0B52B4B89B01C6800220492002C4CD158
:101FB0000127284A01941F60936B27483B43936392
:101FC000936B3B4003260C254FF63F02019302A979
:101FD0000223CDE90223CDE90565019B05F038FE1A
:101FE0001E48029702A90227CDE90374CDE90565D1
:101FF00005F02EFE48F233131948029302A9CDE9E9
:102000000374CDE9056505F023FE4FF6837315488B
:10201000029302A9CDE90374CDE9056505F018FE28
:102020004CF203731048029302A9CDE90374CDE981
:10203000056505F00DFE60230C48039702A9CDE964
:1020400004460695029305F003FE09B0F0BD00BFFB
:102050008C28002000380240001402400008024092
:102060000018024000100240000C02400004024030
:1020700070B588B0234B002202921A6C42F0100215
:102080001A641B6C03F010030293054601A903A810
:10209000029B08F025F8069BD3B908F011F8034617
:1020A000194A1A4C1A49A2FB03239B0C013B00223C
:1020B000C4E90013204640F2E7332261A260A26126
:1020C000E36008F03DFE064630B1304608B070BD12
:1020D00007F0F6FF4300E3E7204608F0BFFE0646A0
:1020E0000028F2D1362005F05FFC0F2D01D9012622
:1020F000EBE732462946362005F018FC054B1D60FB
:10210000E3E700BF0038024083DE1B439028002035
:102110000010004080000020704700BFFEE700BFB5
:10212000FEE700BFFEE700BFFEE700BF704700BF4D
:1021300008B5C82005F0D6FB04480022202105F090
:10214000CBFEBDE80840082005F0D6BE00100240D6
:10215000014809F003B800BF90280020014806F0AC
:102160002BBE00BF74260020014807F09FBB00BFB4
:10217000C8260020014805F081BC00BF342600209D
:102180000120704708B525F071FA162303604FF05F
:10219000FF3008BD08B525F069FA16230360FEE795
:1021A00070B5161E07DD0C468D19AFF3008004F8DC
:1021B000010BA542F9D1304670BD00BF70B5161EA7
:1021C00007DD0C468D1914F8010BAFF30080AC420B
:1021D000F9D1304670BD00BF4FF0FF30704700BFEF
:1021E0004FF400534B600020704700BF0120704740
:1021F000002070470B4A08B50346106828B1034415
:1022000069468B4207D8136008BD07481060034435
:1022100069468B42F7D925F029FA0C2303604FF069
:10222000FF3008BDD8280020F8430120704710B5C2
:102230000421044624F02BF9204610BD08B50329DB
:1022400013D8DFE801F002060A0E04F00BFD006867
:1022500008BD04F007FD4068FAE704F003FD80685C
:10226000F6E704F0FFFCC068F2E70020F0E70000AA
:1022700000487047C88902080D20704713B5002434
:1022800051B1036801948DF8034001AA9C680DF1D7
:102290000303A04702B010BD0846FBE7C0897047A2
:1022A000008A7047C088704780887047807A00F045
:1022B0007F007047807AC009704770477047704749
:1022C0007047704770477047704730B4C2684468C1
:1022D0005510034604EB6200D20748BF62599B6861
:1022E00030BC48BFD358184743682BB183682BB91B
:1022F000C06800F001007047184670470120704721
:1023000010B50821044624F0C2F8204610BD10B5CF
:102310001021044624F0BBF8204610BD10B5034B35
:10232000036004460FF052FE204610BD288C0208C0
:1023300007B5074B036001900FF048FE019841F28A
:10234000A40124F0A4F8019803B05DF804FB00BFD9
:10235000288C020800F5D670884208B505D111F026
:1023600037FBBDE8084000F009BD08BD70B5036843
:1023700004461B6B154698472368294620465B6B2D
:10238000BDE87040184770B504461D46BDF91060A1
:10239000FFF7ECFF2368294620469B6B984723688C
:1023A00031462046DB6BBDE8704018470022C0E98B
:1023B0000122C0E90322C0E90522C0E907224FF447
:1023C00080728284014A0260704700BF988B0208C5
:1023D00010B526220446002125F04FF82046FFF7CD
:1023E000E5FF0A4B23600A4BA3624FF6FF73A385F8
:1023F0004FF47F020023C4E90C324FF0FF32C4E9EE
:1024000010232387E363204610BD00BF48B00208B5
:10241000008C02081A4B73B51B88018F8B4206464D
:102420002BD9184B1B682BB9174B184A18486C212D
:1024300024F01EFE13F81120164B1B6853F822508F
:10244000154B186804F0FEFB2B6801909B6B284627
:1024500098472B6801999B6C0446284698472B683F
:1024600001995B6A14FB00F428469847A4B223182C
:102470001BB2A6F8463002B070BD0023F9E700BFDA
:102480001838012014380120CC8A02080E8B02086B
:10249000498B02081C380120203801202DE9F04F1B
:1024A0002DED048B04468DB0A346002512F010FFDD
:1024B000B44BE5634BF8403B26222946584624F0AE
:1024C000DCFF5846FFF772FF04F16C0AFF26AE4BA3
:1024D000236426224FF6FF73294684F86660A566BA
:1024E0005046ADF8283024F0C8FF5046FFF75EFF95
:1024F000A64BE366BDF82830A4F892300AA904F18F
:10250000980784F8946050460EF059FD38460DF057
:102510001FFC04F5847318460393FEF7D1FE9C4B11
:10252000C4F8083104F58E792433C4F81031C4F8A6
:102530001451484604F5B278FFF74AFF4046FFF7CA
:1025400047FF04F5D673184608EE103A0EF078FEF1
:1025500004F5FA73184608EE903A0EF071FE04F591
:102560000F73184609EE103A0EF06AFE894A04F518
:102570008053C3E92524884A4FF46161C3E92725C4
:1025800004F521700FF018FD4FF4A0732A46009354
:102590002946F0235846FFF7F6FE261D4FF07F43ED
:1025A000A366594630460BF07BFF2A462946504623
:1025B000FFF7DCFE09230AA95046ADF828300EF0DB
:1025C000FEFC514630460BF06BFF0A23009332228B
:1025D000F02329463846FFF7D6FE4FF0FF33A022FE
:1025E000C4F81431A4F81831039BC4F8C030114664
:1025F00038460DF0C3FCA0224FF4EB5138460DF0E5
:10260000C8FCD4F8D430202B05D02023C4F8D43013
:1026100038460DF0BDFB384601210DF0C5FC3946AA
:1026200030460BF03DFF4FF0FF3504AF2422484603
:102630004FF0000A4521FFF799FE49463846C4F895
:102640004C51A4F850A10DF045FE97E8070009F1A0
:102650003C0383E80700DFF844B1CDF828B030230D
:102660000AA94846ADF82C300EF0CEF8494630465F
:102670000BF016FF0C2240463221FFF777FE414651
:102680003846C4F89451A4F898A10DF023FE97E8B9
:10269000070008F13C0383E807002F230AA94046FE
:1026A000ADF82C30CDF828B00EF0AEF841463046EB
:1026B0000BF0F6FE18EE100AF0222121FFF756FE6D
:1026C0004FF003080AAA022709A918EE100AADF86C
:1026D0002480ADF828700EF07CFA2E2318EE100A34
:1026E000A4F8E431FFF796FE04F584531433C4F8DC
:1026F000D43118EE101A3046C4E97A550BF0D0FEEA
:1027000018EE900AAA222121FFF730FE0AAA09A991
:1027100018EE900AADF82480ADF828700EF059FA42
:102720002D23A4F82C3218EE900AFFF773FE18EE52
:10273000901A3046C4E98C550BF0B2FE19EE100A1F
:1027400064222121FFF712FE0AAA09A919EE100A34
:10275000ADF82480ADF828700EF03BFA2C2319EE6A
:10276000100AA4F87432FFF755FE3046C4E99E55AE
:1027700019EE101A0BF094FE20460DB0BDEC048B40
:10278000BDE8F08F288C0208D8B00208A0B2020879
:102790000CAE0208108C020855230008008C0208B9
:1027A0007047704700F598730868496803C370471D
:1027B000704770474160704710B50022B1F908407A
:1027C000B1F90A10028042808480C18010BD704738
:1027D00070470000064BC0F84C310023C0F8503160
:1027E00000F5A273C0F84801C0F84031704700BF3F
:1027F000912B0008012303727047704770477047A0
:102800007047704701464068036810315B6E184797
:1028100001464068036810311B6E18477047014637
:102820004068036810315B6E1847014640680368D2
:1028300010311B6E1847704710B4C26841685410BD
:10284000034601EB6200D20748BF0A599B685DF856
:10285000044B48BFD358184743682BB183682BB942
:10286000C06800F0010070471846704701207047AB
:1028700010B50C21044623F00AFE204610BD10B509
:102880001021044623F003FE204610BD10B54FF47E
:10289000AE71044623F0FBFD204610BD10B5382173
:1028A000044623F0F4FD204610BD10B5282104464F
:1028B00023F0EDFD204610BD10B53821044623F06D
:1028C000E6FD204610BD10B511F082F80368BDE8A2
:1028D0001040DB6B1847000013B50446807A637A1A
:1028E0000130C0B29842A07205D90123237200239F
:1028F000A37202B010BDB4F90C20002112F09AFEB0
:1029000010F0010283B22AD1E081194AB4F90E0015
:10291000E3891288B4F91410A0820020D21AADF80D
:102920000200606822835B1A124AADF80430036823
:10293000B2F900201B69ADF80010ADF80620694619
:102940009847A37A012BD4D10B4B1B78002BD0D006
:1029500011F03EF802B0BDE8104011F03FB84FF65C
:10296000FF710028D8BF0A461344E381CDE700BFBA
:10297000B0370120B2370120BA37012010B5044624
:10298000D0F8400158B10368DB68984738B1D4F8F3
:10299000400103689B6898470023C4F8403110BD8C
:1029A0002DE9F14FD0E9555A0746A86803681B6A1C
:1029B0009847972805D8464B464AA321464824F015
:1029C00057FB686803681B6A98470F2803D8434B76
:1029D000404AA421F2E7E86803681B6A98470B287D
:1029E00003D83F4B3B4AA521E8E710F0F1FFDFF8A1
:1029F000F890043011F052F8D9F8000010B10368D3
:102A0000DB689847D9F8000010B103681B68984745
:102A1000DFF8D880D8F8000010B103685B699847E8
:102A2000D7F83C0110B103685B689847D8F80000FC
:102A300010B103681B689847D7F83C0110B10368D0
:102A40009B689847E868036800215B6A98474FF0E5
:102A5000000B244B03600446C0F804B080F808B0B3
:102A6000A868036859465B6A9847064604F072FCFA
:102A70006868036859465B6A98473146054604F022
:102A800045FCC9F80040C7F83C51C8F80060E5B102
:102A90002B1DCAF800303368C5F808A03046DB6843
:102AA000F56398472B6828461B68984721463046AF
:102AB00012F0BAFD236820461B69984723685B69BA
:102AC000204601B0BDE8F04F18472B46E1E700BFB4
:102AD000548C0208E28C0208F08D0208378E02083E
:102AE000DA8E02088C9F0208043801200038012089
:102AF00037B50446807A637A0130C0B29842A0723A
:102B000005D9012323720023A37203B030BDB4F9A9
:102B10000C20002112F08EFD10F0010283B228D1AA
:102B2000E081184B18481988258BE389B0F900001B
:102B3000ADF80600CA1A60682B445B1A12B2ADF8F1
:102B4000043003682283ADF8002000221B69ADF831
:102B5000022069469847A37A012BD6D10B4B1B78EC
:102B6000002BD2D010F034FF03B0BDE8304010F09D
:102B700035BF4FF6FF710028D8BF0A461344E381E2
:102B8000CFE700BFB0370120B2370120BA370120AC
:102B90002DE9F14FD0E9555A0746A86803681B6A2A
:102BA000984741F27B13984205D8464B464AA321E9
:102BB000464824F05DFA686803681B6A98470F2846
:102BC00003D8434B404AA421F2E7E86803681B6A34
:102BD00098470B2803D83F4B3B4AA521E8E710F064
:102BE000F7FEDFF8F890043010F058FFD9F8000035
:102BF00010B10368DB689847D9F8000010B103688A
:102C00001B689847DFF8D880D8F8000010B1036837
:102C10005B699847D7F83C0110B103685B68984737
:102C2000D8F8000010B103681B689847D7F83C013A
:102C300010B103689B689847E868036800215B6AE5
:102C400098474FF0000B244B03600446C0F804B0D3
:102C500080F808B0A868036859465B6A984706463A
:102C600004F0D4F86868036859465B6A98473146AF
:102C7000054604F0A5F8C9F80040C7F83C51C8F86B
:102C80000060E5B12B1DCAF800303368C5F808A014
:102C90003046DB68F56398472B6828461B689847E1
:102CA0002146304612F0C0FC236820461B69984735
:102CB00023685B69204601B0BDE8F04F18472B46FA
:102CC000E1E700BF548C02087D8F0208F08D0208F6
:102CD000378E0208DA8E02088C9F02080438012021
:102CE00000380120044B1B6893F858200AB1D86CB7
:102CF00000B99868704700BFBC370120F8B504469A
:102D000017460E4610F098FF104B1C60104B2360C6
:102D1000104B0025C4E951350F4BC4E953551868D1
:102D2000036801219B68C4E94F55C4E9557698476B
:102D3000284603F04BFFFFF7D5FF1AF04EF9FFF7D7
:102D4000D1FF1AF0C5F92046F8BD00BF10380120A8
:102D5000389F0208209F0208BC370120064BC0F8AC
:102D60004C310023C0F8503100F5A273C0F848017F
:102D7000C0F84031704700BF912B0008064BC0F8E7
:102D80004C310023C0F8503100F5A273C0F848015F
:102D9000C0F84031704700BF01320008064BC0F850
:102DA0004C310023C0F8503100F5A273C0F848013F
:102DB000C0F84031704700BFA53D0008064BC0F881
:102DC0004C310023C0F8503100F5A273C0F848011F
:102DD000C0F84031704700BFC1300008064BC0F852
:102DE0004C310023C0F8503100F5A273C0F84801FF
:102DF000C0F84031704700BF653C0008064BC0F882
:102E00004C310023C0F8503100F5A273C0F84801DE
:102E1000C0F84031704700BF253B0008064BC0F8A2
:102E20004C310023C0F8503100F5A273C0F84801BE
:102E3000C0F84031704700BFE5390008064BC0F8C4
:102E40004C310023C0F8503100F5A273C0F848019E
:102E5000C0F84031704700BFA5380008064BC0F8E5
:102E60004C310023C0F8503100F5A273C0F848017E
:102E7000C0F84031704700BF812F0008064BC0F8F2
:102E80004C310023C0F8503100F5A273C0F848015E
:102E9000C0F84031704700BF65370008064BC0F8E6
:102EA0004C310023C0F8503100F5A273C0F848013E
:102EB000C0F84031704700BF25360008064BC0F807
:102EC0004C310023C0F8503100F5A273C0F848011E
:102ED000C0F84031704700BFE5340008064BC0F829
:102EE0004C310023C0F8503100F5A273C0F84801FE
:102EF000C0F84031704700BFA5330008064BC0F84A
:102F00004C310023C0F8503100F5A273C0F84801DD
:102F1000C0F84031704700BFA129000803685B6A10
:102F200018470000124B13B503604FF480734363DE
:102F3000104B417203611049104BB1F90010B3F905
:102F4000003083810022426002728272C281C0E935
:102F50000522C0E90722C0E90922C0E90B22044684
:102F6000009110301146FFF70EFA204602B010BD56
:102F7000D49F0208B89E0208B2370120B037012062
:102F80002DE9F047D0E9554A0746A06803681B6A57
:102F9000984741F2EB03984205D8424B424AA3219D
:102FA000424824F065F8606803681B6A98470F2858
:102FB00003D83F4B3C4AA421F2E7E06803681B6A50
:102FC0009847372803D83B4B374AA521E8E710F04C
:102FD000FFFCDFF8E490043010F060FDD9F8000049
:102FE00010B10368DB689847D9F8000010B1036896
:102FF0001B689847DFF8C480D8F8000010B1036858
:103000005B699847D7F83C0110B103685B68984743
:10301000D8F8000010B103681B689847D7F83C0146
:1030200010B103689B689847E0680021FFF776FFBE
:1030300014210546FFF776FFA068036800215B6A4C
:103040009847064603F09CFF6068036800215B6AAE
:1030500098473146044603F06DFFC9F80050C7F8A1
:103060003C41C8F80060DCB1231DCAF80030336869
:10307000C4F808A03046DB68F4639847236820460C
:103080001B6898472946304612F0CEFA2B6828462E
:103090001B6998472B6828465B69BDE8F0471847CD
:1030A0002346E2E7548C020885900208F08D02085E
:1030B000378E0208DA8E0208043801200038012019
:1030C0002DE9F047D0E9554A0746A06803681B6A16
:1030D0009847B0F58A5F05D2424B434AA321434843
:1030E00023F0C6FF606803681B6A98470F2803D85F
:1030F0003F4B3D4AA421F2E7E06803681B6A98470A
:10310000372803D83B4B384AA521E8E710F060FC8C
:10311000DFF8E490043010F0C1FCD9F8000010B1E1
:103120000368DB689847D9F8000010B103681B6892
:103130009847DFF8C880D8F8000010B103685B69D1
:103140009847D7F83C0110B103685B689847D8F8F6
:10315000000010B103681B689847D7F83C0110B114
:1031600003689B689847E0680021FFF7D7FE1421A9
:103170000546FFF7D7FEA068036800215B6A984701
:10318000064603F0A3FE6068036800215B6A984767
:103190003146044603F074FEC9F80050C7F83C41BC
:1031A000C8F80060DCB1231DCAF800303368C4F8E9
:1031B00008A03046DB68F4639847236820461B6804
:1031C00098472946304612F02FFA2B6828461B698B
:1031D00098472B6828465B69BDE8F04718472346A7
:1031E000E2E700BF548C0208B5910208F08D020896
:1031F000378E0208DA8E02080438012000380120D8
:103200002DE9F047D0E9554A0746A06803681B6AD4
:10321000984741F27B13984205D8424B424AA3217A
:10322000424823F025FF606803681B6A98470F280F
:1032300003D83F4B3C4AA421F2E7E06803681B6ACD
:103240009847372803D83B4B374AA521E8E710F0C9
:10325000BFFBDFF8E490043010F020FCD9F8000048
:1032600010B10368DB689847D9F8000010B1036813
:103270001B689847DFF8C480D8F8000010B10368D5
:103280005B699847D7F83C0110B103685B689847C1
:10329000D8F8000010B103681B689847D7F83C01C4
:1032A00010B103689B689847E0680021FFF736FE7D
:1032B00014210546FFF736FEA068036800215B6A0B
:1032C0009847064603F0A2FD6068036800215B6A28
:1032D00098473146044603F073FDC9F80050C7F81B
:1032E0003C41C8F80060DCB1231DCAF800303368E7
:1032F000C4F808A03046DB68F4639847236820468A
:103300001B6898472946304612F08EF92B682846EC
:103310001B6998472B6828465B69BDE8F04718474A
:103320002346E2E7548C0208D3920208F08D02088B
:10333000378E0208DA8E0208043801200038012096
:1033400003685B6A18470000124B13B503604FF423
:1033500080734363104B417203611049104BB1F904
:103360000010B3F900308381002242600272827241
:10337000C281C0E90522C0E90722C0E90922C0E9EB
:103380000B220446009110301146FEF7FCFF204648
:1033900002B010BDB09F0208B89E0208B2370120EB
:1033A000B03701202DE9F047D0E9554A0746A0681B
:1033B00003681B6A984741F25B03984205D8424B69
:1033C000424AA321424823F053FE606803681B6A07
:1033D00098470F2803D83F4B3C4AA421F2E7E06806
:1033E00003681B6A9847372803D83B4B374AA52107
:1033F000E8E710F0EDFADFF8E490043010F04EFB4F
:10340000D9F8000010B10368DB689847D9F80000CC
:1034100010B103681B689847DFF8C480D8F8000033
:1034200010B103685B699847D7F83C0110B1036895
:103430005B689847D8F8000010B103681B6898478C
:10344000D7F83C0110B103689B689847E0680021F9
:10345000FFF776FF14210546FFF776FFA0680368A3
:1034600000215B6A9847064603F034FF60680368F2
:1034700000215B6A98473146044603F005FFC9F80E
:103480000050C7F83C41C8F80060DCB1231DCAF801
:1034900000303368C4F808A03046DB68F46398470E
:1034A000236820461B6898472946304612F0BCF82E
:1034B0002B6828461B6998472B6828465B69BDE83E
:1034C000F04718472346E2E7548C0208ED930208C0
:1034D000F08D0208378E0208DA8E020804380120C7
:1034E000003801202DE9F047D0E9554A0746A06889
:1034F00003681B6A984741F2A303984205D8424BE0
:10350000424AA321424823F0B3FD606803681B6A66
:1035100098470F2803D83F4B3C4AA421F2E7E068C4
:1035200003681B6A9847372803D83B4B374AA521C5
:10353000E8E710F04DFADFF8E490043010F0AEFA4E
:10354000D9F8000010B10368DB689847D9F800008B
:1035500010B103681B689847DFF8C480D8F80000F2
:1035600010B103685B699847D7F83C0110B1036854
:103570005B689847D8F8000010B103681B6898474B
:10358000D7F83C0110B103689B689847E0680021B8
:10359000FFF7D6FE14210546FFF7D6FEA0680368A4
:1035A00000215B6A9847064603F0A8FB6068036841
:1035B00000215B6A98473146044603F079FBC9F85D
:1035C0000050C7F83C41C8F80060DCB1231DCAF8C0
:1035D00000303368C4F808A03046DB68F4639847CD
:1035E000236820461B6898472946304612F01CF88D
:1035F0002B6828461B6998472B6828465B69BDE8FD
:10360000F04718472346E2E7548C02080D9502085C
:10361000F08D0208378E0208DA8E02080438012085
:10362000003801202DE9F047D0E9554A0746A06847
:1036300003681B6A984741F2E333984205D8424B2E
:10364000424AA321424823F013FD606803681B6AC5
:1036500098470F2803D83F4B3C4AA421F2E7E06883
:1036600003681B6A9847372803D83B4B374AA52184
:10367000E8E710F0ADF9DFF8E490043010F00EFA4E
:10368000D9F8000010B10368DB689847D9F800004A
:1036900010B103681B689847DFF8C480D8F80000B1
:1036A00010B103685B699847D7F83C0110B1036813
:1036B0005B689847D8F8000010B103681B6898470A
:1036C000D7F83C0110B103689B689847E068002177
:1036D000FFF736FE14210546FFF736FEA0680368A3
:1036E00000215B6A9847064603F0CEFC60680368D9
:1036F00000215B6A98473146044603F09FFCC9F8F5
:103700000050C7F83C41C8F80060DCB1231DCAF87E
:1037100000303368C4F808A03046DB68F46398478B
:10372000236820461B6898472946304611F07CFFE5
:103730002B6828461B6998472B6828465B69BDE8BB
:10374000F04718472346E2E7548C02082B960208FC
:10375000F08D0208378E0208DA8E02080438012044
:10376000003801202DE9F047D0E9554A0746A06806
:1037700003681B6A984741F2E333984205D8424BED
:10378000424AA321424823F073FC606803681B6A25
:1037900098470F2803D83F4B3C4AA421F2E7E06842
:1037A00003681B6A9847372803D83B4B374AA52143
:1037B000E8E710F00DF9DFF8E490043010F06EF94E
:1037C000D9F8000010B10368DB689847D9F8000009
:1037D00010B103681B689847DFF8C480D8F8000070
:1037E00010B103685B699847D7F83C0110B10368D2
:1037F0005B689847D8F8000010B103681B689847C9
:10380000D7F83C0110B103689B689847E068002135
:10381000FFF796FD14210546FFF796FDA0680368A3
:1038200000215B6A9847064603F0ECFB606803687A
:1038300000215B6A98473146044603F0BDFBC9F896
:103840000050C7F83C41C8F80060DCB1231DCAF83D
:1038500000303368C4F808A03046DB68F46398474A
:10386000236820461B6898472946304611F0DCFE45
:103870002B6828461B6998472B6828465B69BDE87A
:10388000F04718472346E2E7548C02086F97020876
:10389000F08D0208378E0208DA8E02080438012003
:1038A000003801202DE9F047D0E9554A0746A068C5
:1038B00003681B6A984741F2EB03984205D8424BD4
:1038C000424AA321424823F0D3FB606803681B6A85
:1038D00098470F2803D83F4B3C4AA421F2E7E06801
:1038E00003681B6A9847372803D83B4B374AA52102
:1038F000E8E710F06DF8DFF8E490043010F0CEF84F
:10390000D9F8000010B10368DB689847D9F80000C7
:1039100010B103681B689847DFF8C480D8F800002E
:1039200010B103685B699847D7F83C0110B1036890
:103930005B689847D8F8000010B103681B68984787
:10394000D7F83C0110B103689B689847E0680021F4
:10395000FFF7F6FC14210546FFF7F6FCA0680368A4
:1039600000215B6A9847064603F00AFB606803681B
:1039700000215B6A98473146044603F0DBFAC9F838
:103980000050C7F83C41C8F80060DCB1231DCAF8FC
:1039900000303368C4F808A03046DB68F463984709
:1039A000236820461B6898472946304611F03CFEA4
:1039B0002B6828461B6998472B6828465B69BDE839
:1039C000F04718472346E2E7548C0208AF980208F4
:1039D000F08D0208378E0208DA8E020804380120C2
:1039E000003801202DE9F047D0E9554A0746A06884
:1039F00003681B6A984741F2E333984205D8424B6B
:103A0000424AA321424823F033FB606803681B6AE3
:103A100098470F2803D83F4B3C4AA421F2E7E068BF
:103A200003681B6A9847372803D83B4B374AA521C0
:103A3000E8E70FF0CDFFDFF8E490043010F02EF847
:103A4000D9F8000010B10368DB689847D9F8000086
:103A500010B103681B689847DFF8C480D8F80000ED
:103A600010B103685B699847D7F83C0110B103684F
:103A70005B689847D8F8000010B103681B68984746
:103A8000D7F83C0110B103689B689847E0680021B3
:103A9000FFF756FC14210546FFF756FCA0680368A3
:103AA00000215B6A9847064603F0B4FB6068036830
:103AB00000215B6A98473146044603F085FBC9F84C
:103AC0000050C7F83C41C8F80060DCB1231DCAF8BB
:103AD00000303368C4F808A03046DB68F4639847C8
:103AE000236820461B6898472946304611F09CFD04
:103AF0002B6828461B6998472B6828465B69BDE8F8
:103B0000F04718472346E2E7548C0208DF99020881
:103B1000F08D0208378E0208DA8E02080438012080
:103B2000003801202DE9F047D0E9554A0746A06842
:103B300003681B6A984741F2E333984205D8424B29
:103B4000424AA321424823F093FA606803681B6A43
:103B500098470F2803D83F4B3C4AA421F2E7E0687E
:103B600003681B6A9847372803D83B4B374AA5217F
:103B7000E8E70FF02DFFDFF8E49004300FF08EFF40
:103B8000D9F8000010B10368DB689847D9F8000045
:103B900010B103681B689847DFF8C480D8F80000AC
:103BA00010B103685B699847D7F83C0110B103680E
:103BB0005B689847D8F8000010B103681B68984705
:103BC000D7F83C0110B103689B689847E068002172
:103BD000FFF7B6FB14210546FFF7B6FBA0680368A4
:103BE00000215B6A9847064603F0D2FA60680368D2
:103BF00000215B6A98473146044603F0A3FAC9F8EE
:103C00000050C7F83C41C8F80060DCB1231DCAF879
:103C100000303368C4F808A03046DB68F463984786
:103C2000236820461B6898472946304611F0FCFC63
:103C30002B6828461B6998472B6828465B69BDE8B6
:103C4000F04718472346E2E7548C0208219B0208FC
:103C5000F08D0208378E0208DA8E0208043801203F
:103C6000003801202DE9F047D0E9554A0746A06801
:103C700003681B6A984741F2EB03984205D8424B10
:103C8000424AA321424823F0F3F9606803681B6AA3
:103C900098470F2803D83F4B3C4AA421F2E7E0683D
:103CA00003681B6A9847372803D83B4B374AA5213E
:103CB000E8E70FF08DFEDFF8E49004300FF0EEFE41
:103CC000D9F8000010B10368DB689847D9F8000004
:103CD00010B103681B689847DFF8C480D8F800006B
:103CE00010B103685B699847D7F83C0110B10368CD
:103CF0005B689847D8F8000010B103681B689847C4
:103D0000D7F83C0110B103689B689847E068002130
:103D1000FFF716FB14210546FFF716FBA0680368A2
:103D200000215B6A9847064603F0F0F96068036873
:103D300000215B6A98473146044603F0C1F9C9F88F
:103D40000050C7F83C41C8F80060DCB1231DCAF838
:103D500000303368C4F808A03046DB68F463984745
:103D6000236820461B6898472946304611F05CFCC2
:103D70002B6828461B6998472B6828465B69BDE875
:103D8000F04718472346E2E7548C0208639C020878
:103D9000F08D0208378E0208DA8E020804380120FE
:103DA000003801202DE9F047D0E9554A0746A068C0
:103DB00003681B6A9847B0F58A5F05D2424B434AB5
:103DC000A321434823F054F9606803681B6A9847AD
:103DD0000F2803D83F4B3D4AA421F2E7E06803686F
:103DE0001B6A9847372803D83B4B384AA521E8E798
:103DF0000FF0EEFDDFF8E49004300FF04FFED9F83D
:103E0000000010B10368DB689847D9F8000010B1D2
:103E100003681B689847DFF8C880D8F8000010B125
:103E200003685B699847D7F83C0110B103685B6889
:103E30009847D8F8000010B103681B689847D7F876
:103E40003C0110B103689B689847E0680021FFF7C8
:103E500077FA14210546FFF777FAA0680368002176
:103E60005B6A9847064603F031F8606803680021F2
:103E70005B6A98473146044603F002F8C9F80050DF
:103E8000C7F83C41C8F80060DCB1231DCAF8003017
:103E90003368C4F808A03046DB68F46398472368A9
:103EA00020461B6898472946304611F0BDFB2B6819
:103EB00028461B6998472B6828465B69BDE8F04790
:103EC00018472346E2E700BF548C02088F9D020882
:103ED000F08D0208378E0208DA8E020804380120BD
:103EE00000380120806A704730B50368018185B0D1
:103EF0006D460146D3F8843004462846984795E835
:103F000007003C3484E8070005B030BD30B50368D5
:103F1000418185B06D460146D3F884300446284679
:103F2000984795E807003C3484E8070005B030BDA9
:103F30000022028042808280C280704780F8361062
:103F4000704770B5036804461B6B15469847236895
:103F5000294620465B6EBDE8704018470020704738
:103F6000806C704770477047704710B54C2104460D
:103F700022F08DFA204610BD10B54FF46271044650
:103F800022F085FA204610BD08B5FDF773F908BD8B
:103F9000036870B55E6B124B1B6804468DB22BB97B
:103FA000104B114A6C21114823F062F81049828DA0
:103FB0000988914203D80F4B0B4A6D21F3E713F8A0
:103FC00012200D4B1B6853F8220003681B6B9847A7
:103FD000281A01B233462046BDE87040184700BF9A
:103FE00014380120CC8A02080E8B0208498B020883
:103FF00018380120F09F02081C38012000224FF0E1
:10400000FF31C0E900218260704700002DE9F04FC8
:104010004FF48073804600262DED028B8384B24BD3
:104020008662C0E90166C0E90366C0E90566C0E9C9
:10403000076648F82C3B8BB004464046FEF7C8F9AB
:1040400004F1740304F1BC0B1846039304F5827A5F
:10405000FEF7BEF95846FEF7BBF904F5A879A34D63
:104060005046FEF7B5F9C4F80451C4F84C6148460F
:10407000FEF7AEF904F5CE7304F5F4771846C4F8EC
:104080005051C4F8986108EE103AFEF7A1F9C4F84F
:104090009C51C4F8E46138460CF054FC944AA26088
:1040A00040466D22D92104ADFEF760F94FF0FF3391
:1040B000E36541462846A4F860600CF00BF995E8EA
:1040C000070004F1680C8CE807008A4B089315225E
:1040D00008A94046ADF824200CF096FB4146204646
:1040E0000AF0DEF9039B314618466D22FEF73EF9D1
:1040F000039BA4F8A8604FF0FF32C4F8A42019462F
:1041000028460CF0E7F895E807007A4B0893039BE4
:1041100004F1B00C8CE80700162208A91846ADF887
:1041200024200CF071FB039B204619460AF0B8F9D5
:10413000324658467121FEF719F94FF0FF32C4F8A4
:10414000EC2059462846A4F8F0600CF0C3F895E836
:10415000070004F1F80383E80700664B089308A9F9
:1041600017235846ADF824300CF04EFB5946204634
:104170000AF096F950467C224C21FEF7F7F8D4F865
:104180000431A4F838614FF0FF32C4F834215146AD
:104190002846D3F88430984795E8070004F5A073C3
:1041A00083E80700534B089308A914235046ADF841
:1041B00024300CF029FB514620460AF071F948469C
:1041C0008B225621FEF7D2F8D4F85031A4F884613E
:1041D0004FF0FF32C4F8802149462846D3F8843096
:1041E000984795E8070004F5C67383E80700414B3C
:1041F000089308A913234846ADF824300CF004FBBB
:10420000494620460AF04CF918EE100A9A22562127
:10421000FEF7ACF8D4F89C31A4F8D0614FF0FF322F
:1042200018EE101AC4F8CC212846D3F884309847E9
:1042300095E8070004F5EC7383E8070012252D4B81
:10424000089318EE100A08A9ADF824500CF0DCFA17
:1042500018EE101A20460AF023F9042308A938465C
:10426000ADF820300AF0AEF82A4638461C21FEF799
:104270007DF8D4F8E83138469B6BB8219847D4F8DC
:10428000E8313846DB6B6A2198475C221146384694
:104290000CF003FC38465A226FF059010CF082FCF6
:1042A00033465A22384600966FF0590109F037FF1D
:1042B000314638460CF020FC3523082238460521CB
:1042C0000CF0D6FB384601210CF074FB3846012176
:1042D0000CF073FB204639460AF0E2F820460BB09A
:1042E000BDEC028BBDE8F08FC8A0020838A0020820
:1042F000F000A900008C0208406A7047806A70478D
:1043000070478B88C0690A68DB0A50F823001044A4
:10431000704710B5C2B1137BB3B1547BD27A24027B
:1043200004F4E0641443026A98B202EB8402138836
:104330008B4202D192F9020010BD05D8013880B23B
:1043400004320028F3D1F7E70020F5E710B52C215F
:10435000044622F09CF8204610BD000030B58BB01A
:104360000446BDF860500895BDF85C5007959DF86F
:10437000505006959DF84C5005959DF84850049571
:104380009DF8445003959DF8405002959DF83C508F
:104390000195BDF83850009510F0B0FC064B236035
:1043A000159BE361169B2362199B63621A9BA362B0
:1043B00020460BB030BD00BF5CA1020870477047BB
:1043C00030B4C26844685510034604EB6200D2075B
:1043D00048BF62599B6830BC48BFD35818474368F0
:1043E0002BB183682BB9C06800F0010070471846F4
:1043F00070470120704710B51021044622F047F89D
:10440000204610BD10B5034B036004460DF0DEFDE1
:10441000204610BD10A2020807B5074B03600190AB
:104420000DF0D4FD019841F27C1122F030F8019892
:1044300003B05DF804FB00BF10A2020838B500F518
:104440003473994204460D4603D10FF0C1FAFEF7CA
:10445000A5FC04F522739D4203D10FF0B9FAFEF7D3
:104460002DFD04F510739D4203D10FF0B1FAFEF754
:1044700035FD04F54674A5420AD1064800222021E4
:1044800003F02AFD0FF0A4FABDE83840FEF736BD70
:1044900038BD00BF001002402DE9F04F2DED068B16
:1044A00004468FB0A346002510F012FF6A4BE56367
:1044B0004BF8403B26222946584622F0DEFF58465C
:1044C000FDF774FF04F16C0AFF26644B2364262277
:1044D0004FF6FF73294684F866605046A566ADF82E
:1044E000303022F0CAFF5046FDF760FF5C4BE366B8
:1044F000BDF83030A4F892300CA9504604F1980968
:1045000084F894600CF05BFD4846FDF761FF04F110
:10451000E407544BC4F89830C4F8E05038460BF028
:1045200017FC04F5AA7318460393FCF7C9FE4E4B1B
:10453000C4F8543104F5B4782433C4F85C31C4F8B9
:1045400060514046FDF744FF04F5D873184608EE65
:10455000103AFDF73DFF04F5FC73184608EE903A5B
:10456000FDF736FF04F51073184609EE103A0CF00B
:1045700067FE04F52273184609EE903A0CF060FECF
:1045800004F5347318460AEE103A0CF059FE04F59F
:10459000467318460AEE903A0CF0EAFC334A04F5EA
:1045A0008053C3E95B24324A4FF46161C3E95D255E
:1045B00004F557700DF000FD4FF4A0732A465846DD
:1045C00000932946F023FDF7DEFE261D4FF07F43C2
:1045D000A3665946304609F063FF2A4650462946ED
:1045E000FDF7C4FE092350460CA9ADF830300CF09D
:1045F000E6FC5146304609F053FF4FF49A725621BB
:104600004846FDF7B3FED4F89830A4F8CC500DF12D
:10461000100A4FF0FF3B5046D3F88430C4F8C8B0BE
:10462000494698479AE8070004F1D40383E8070055
:10463000104B1B6804F5557A2BB90F4B0F4A6021BC
:104640000F4822F015FD0F4B1B88102B1ED80E4B68
:104650000A4A6121F4E700BF10A20208D8B002089C
:10466000A0B2020838A002080CAE0208F8A10208A5
:104670003D44000814380120CC8A0208B4A1020885
:10468000498B020818380120F09F0208A44B102122
:10469000186802F0D7FAA34A03460421504612F0E4
:1046A000FBFA4846C4F8E0A00CF08EF89E4B0C9341
:1046B0000CA911234846ADF834300CF0A5F8494652
:1046C000304609F0EDFE0A2300933222F0232946FA
:1046D0003846FDF758FE039BC4F80C31A022114662
:1046E0003846C4F860B1A4F864B10BF047FCA022CE
:1046F0004FF4EB5138460BF04CFCD4F82031202B12
:1047000005D02023C4F8203138460BF041FB384651
:1047100001210BF049FC3946304604AD4FF0FF371C
:104720004FF0000A09F0BCFE242240464521FDF767
:104730001DFE41462846C4F89871A4F89CA10BF0D0
:10474000C9FD95E807000DF1300908F13C0383E845
:104750000700DFF8D4B1CDF830B0362349464046E3
:10476000ADF834300CF050F84146304609F098FE70
:1047700018EE100A0C223221FDF7F8FD18EE101A7F
:104780002846C4F8E071A4F8E4A10BF0A3FD95E875
:10479000070018EE103A3C3383E80700372318EE81
:1047A000100A4946ADF83430CDF830B00CF02CF892
:1047B00018EE101A304609F073FE18EE900A3C22EB
:1047C0005821FDF7D3FD18EE901A2846C4F8287238
:1047D000A4F82CA20BF07EFD95E8070018EE903AA5
:1047E0003C3383E8070018EE900A4946CDF830B014
:1047F000ADF834A00CF008F818EE901A304609F025
:104800004FFE19EE100AF0222121FDF7AFFD4FF007
:10481000030B4A464FF002080BA919EE100AADF837
:104820002CB0ADF8308004F58B550CF0D2F938235C
:10483000A4F878320C3519EE100AFDF7EBFD19EEED
:10484000101A3046C4E99F77C4F8685209F028FE70
:1048500019EE900AAA222121FDF788FD4A460BA9EC
:1048600019EE900AADF82CB0ADF830800CF0B1F92B
:104870003923A4F8C03219EE900AFDF7CBFD19EEEA
:10488000901A3046C4E9B177C4F8B05209F008FE76
:104890001AEE100A64222121FDF768FD4A460BA991
:1048A0001AEE100AADF82CB0ADF830800CF091F98A
:1048B0003A23A4F808331AEE100AFDF7ABFD1AEEFE
:1048C000101A3046C4E9C377C4F8F85209F0E8FD7D
:1048D0001AEE900A0522C621FDF748FD0123ADF826
:1048E00028300A231AEE900AADF82C30ADF830309B
:1048F0000AAA0BAB09A9CDF80090ADF824A00CF0E2
:10490000A2FA30461AEE901AC4F850A3C4F84053E5
:1049100009F0C6FD20460FB0BDEC068BBDE8F08F58
:1049200020380120ECA10208008C02087047704773
:1049300030B4C26844685510034604EB6200D207E5
:1049400048BF62599B6830BC48BFD358184743687A
:104950002BB183682BB9C06800F00100704718467E
:1049600070470120704710B51021044621F08FFDDB
:10497000204610BD10B5034B036004460DF026FB26
:10498000204610BD5CA2020807B5074B03600190EA
:104990000DF01CFB01984FF48A5121F078FD01982D
:1049A00003B05DF804FB00BF5CA2020838B500F557
:1049B0001073994204460D4603D10FF009F8FEF733
:1049C000DDF904F534739D4203D10FF001F8FEF7D1
:1049D00005FA04F52274A54205D10EF0F9FFBDE8F1
:1049E0003840FEF72BBA38BD2DE9F04F2DED068B80
:1049F00004468DB0A346002510F06AFC664BE563C3
:104A00004BF8403B26222946584622F036FD5846B0
:104A1000FDF7CCFC04F16C0AFF26604B23642622D0
:104A20004FF6FF73294684F866605046A566ADF8D8
:104A3000283022F022FD5046FDF7B8FC584BE366C3
:104A4000BDF82830A4F892300AA9504604F198091C
:104A500084F894600CF0B3FA4846FDF7B9FC514B6A
:104A6000C4F8983004F1E4031846C4F8E05004F5A3
:104A7000967708EE903AFDF7ABFC38460BF068F9F4
:104A800004F5CE7318460393FCF71AFC464BC4F8A2
:104A90009C3104F5D8782433C4F8A431C4F8A85163
:104AA0004046FDF795FC04F5FC73184608EE103AF5
:104AB000FDF78EFC04F51073184609EE103A0CF061
:104AC000BFFB04F52273184609EE903A0CF0B8FBD0
:104AD00004F5347318460AEE103A0CF0B1FB334A71
:104AE00004F58053C3E94C24314A4FF46161C3E9B2
:104AF0004E2504F548700DF05FFA4FF4A0732A4676
:104B0000584600932946F023FDF73DFC261D4FF043
:104B10007F43A3665946304609F0C2FC2A465046F8
:104B20002946FDF723FC092350460AA9ADF8283091
:104B30000CF045FA5146304609F0B2FC4FF49A7237
:104B400056214846FDF712FC4FF0FF33C4F8C83039
:104B5000D4F89830A4F8CC500DF1100BD3F8843071
:104B60004946584698479BE8070004F1D40383E878
:104B70000700104B1B6804F5467A2BB90E4B0F4A01
:104B800060210F4822F074FA0E4B1B88012B1DD8B0
:104B90000D4B0A4A6121F4E75CA20208D8B0020872
:104BA000A0B2020838A002080CAE020844A2020813
:104BB000AD49000814380120CC8A0208B4A10208CB
:104BC000498B020818380120F09F0208954B0121FB
:104BD000186802F037F8944A03460421504612F050
:104BE0005BF8C4F8E0A048460BF0EEFDDFF83CA20D
:104BF000CDF828A002230AA94846ADF82C300BF0C6
:104C000003FE4946304609F04BFC3C2218EE900A60
:104C10003921FDF7ABFB4FF0FF3318EE901AC4F8C3
:104C200014315846A4F818510BF054FB9BE80700C8
:104C300004F5907383E807000F2318EE900A0AA981
:104C4000ADF82C30CDF828A00BF0DEFD18EE901A50
:104C5000304609F025FC0A2300933222F02329462E
:104C60003846FDF790FB4FF0FF33A022C4F8A8317F
:104C7000A4F8AC31039BC4F85431114638460BF00C
:104C80007DF9A0224FF4EB5138460BF082F9D4F8AD
:104C90006831202B05D02023C4F8683138460BF04A
:104CA00077F8384601210BF07FF93946304609F094
:104CB000F7FB4FF0FF3504AF242240464FF0000AC7
:104CC0004521FDF753FB41463846C4F8E051A4F8AE
:104CD000E4A10BF0FFFA97E8070008F13C0383E832
:104CE0000700DFF84891CDF8289034230AA9404600
:104CF000ADF82C300BF088FD4146304609F0D0FB72
:104D000018EE100A0C223221FDF730FB18EE101AB3
:104D10003846C4F82852A4F82CA20BF0DBFA97E826
:104D2000070018EE103A3C3383E80700352318EEED
:104D3000100A0AA9ADF82C30CDF828900BF064FDCC
:104D400018EE101A304609F0ABFB19EE100AF022EB
:104D50002121FDF70BFB4FF003090AAA4FF00208CF
:104D600009A919EE100AADF82490ADF8288004F5D1
:104D700089570BF02EFF3323A4F87832103719EE41
:104D8000100AFDF747FB19EE101A3046C4E99F558B
:104D9000C4F8687209F084FB19EE900AAA22212156
:104DA000FDF7E4FA0AAA09A919EE900AADF82490D1
:104DB000ADF828800BF00DFF3223A4F8C03219EEB5
:104DC000900AFDF727FB19EE901A3046C4E9B15559
:104DD000C4F8B07209F064FB1AEE100A64222121B3
:104DE000FDF7C4FA0AAA09A91AEE100AADF8249030
:104DF000ADF828800BF0EDFE31231AEE100AA4F86E
:104E00000833FDF707FB3046C4E9C3551AEE101A04
:104E1000C4F8F87209F044FB20460DB0BDEC068BD7
:104E2000BDE8F08F20380120ECA10208008C0208B8
:104E30007047704730B4C26844685510034604EBAD
:104E40006200D20748BF62599B6830BC48BFD35844
:104E5000184743682BB183682BB9C06800F0010084
:104E60007047184670470120704710B5102104465E
:104E700021F00DFB204610BD10B5034B0360044626
:104E80000DF0A4F8204610BDA8A2020807B5074BF4
:104E9000036001900DF09AF8019841F2EC0121F0C5
:104EA000F6FA019803B05DF804FB00BFA8A202085F
:104EB00038B500F5FA73994204460D4603D10EF059
:104EC00087FDFDF77BFF04F50F739D4203D10EF0C4
:104ED0007FFDFDF7E3FF04F52174A54205D10EF037
:104EE00077FDBDE83840FDF7C9BF38BD2DE9F04F6B
:104EF0002DED048B04468DB0A346002510F0E8F993
:104F0000CD4BE5634BF8403B26222946584622F01C
:104F1000B4FA5846FDF74AFA04F16C0AFF26C74B6B
:104F2000236426224FF6FF73294684F86660A5663F
:104F30005046ADF8283022F0A0FA5046FDF736FA78
:104F4000BF4BE366BDF82830A4F892300AA904F1FB
:104F5000980784F8946050460CF031F838460AF00F
:104F6000F7FE04F5847318460393FCF7A9F9B54BD3
:104F7000C4F8083104F58E792433C4F81031C4F82C
:104F80001451484604F5B278FDF722FA4046FDF781
:104F90001FFA04F5D673184608EE103AFDF718FA12
:104FA00004F5FA73184608EE903A0CF049F904F546
:104FB0000F73184609EE103A0CF042F904F521730C
:104FC000184609EE903A0CF03BF99F4A04F58053DD
:104FD000C3E937249D4A4FF46161C3E9392504F5DB
:104FE00033700CF0E9FF4FF4A0732A460093294672
:104FF000F0235846FDF7C7F9261D4FF07F43A366FF
:105000005946304609F04CFA2A4629465046FDF7E3
:10501000ADF909230AA95046ADF828300BF0CFFFAF
:105020005146304609F03CFA0A2300933222F0231D
:1050300029463846FDF7A7F94FF0FF33A022C4F800
:105040001431A4F81831039BC4F8C0301146384617
:105050000AF094FFA0224FF4EB5138460AF099FF72
:10506000D4F8D430202B05D02023C4F8D4303846CF
:105070000AF08EFE384601210AF096FF3946304686
:1050800004AD4FF0FF3709F00BFA4FF0000B24226C
:1050900048464521FDF76AF949462846C4F84C714F
:1050A000A4F850B10BF016F995E8070009F13C039C
:1050B00083E80700DFF898A1CDF828A022230AA9E9
:1050C0004846ADF82C300BF09FFB4946304609F0BE
:1050D000E7F90C2240463221FDF748F941462846BF
:1050E000C4F89471A4F898B10BF0F4F895E80700AF
:1050F00008F13C0383E807004FF021090AA9404664
:10510000CDF828A0ADF82C900BF07EFB4146304640
:1051100009F0C6F918EE100A3C224946FDF726F9B7
:1051200018EE101A2846C4F8DC71A4F8E0B10BF0B0
:10513000D1F895E8070018EE103A3C3383E80700F1
:105140000B2318EE100A0AA9ADF82C30CDF828A0D0
:105150000BF05AFB18EE101A304609F0A1F918EEC0
:10516000900A4946F022FDF701F94FF0030A0AAA16
:105170004FF0020809A918EE900AADF824A0ADF886
:10518000288004F586550BF024FD2023A4F82C324A
:105190001C3518EE900AFDF73DF918EE901A3046CE
:1051A000C4E98C77C4F81C5209F07AF919EE100A98
:1051B0004946AA22FDF7DAF80AAA09A919EE100A47
:1051C000ADF824A0ADF828800BF003FD1F23A4F850
:1051D000743219EE100AFDF71DF919EE101A304657
:1051E000C4E99E77C4F8645209F05AF919EE900A9E
:1051F00049466422FDF7BAF80AAA09A919EE900AED
:10520000ADF824A0ADF828800BF0E3FC1E2319EEC6
:10521000900AA4F8BC32FDF7FDF83046C4E9B07737
:1052200019EE901AC4F8AC5209F03AF920460DB0C4
:10523000BDEC048BBDE8F08FA8A20208D8B002082C
:10524000A0B202080CAE020890A20208B14E0008FB
:10525000008C0208704730B4C26844685510034699
:1052600004EB6200D20748BF62599B6830BC48BF5C
:10527000D358184743682BB183682BB9C06800F036
:1052800001007047184670470120704710B5102183
:10529000044621F0FCF8204610BD00F50F7001F027
:1052A00077BD9830884208B505D10EF091FBBDE876
:1052B0000840FDF7D3BD08BD10B5074B0360044699
:1052C0000CF084FE054BC4F83C3204F50F70FEF779
:1052D00049FE204610BD00BFF4A2020870A70208D4
:1052E00010B50446FFF7E8FF204641F2E43121F013
:1052F000CEF8204610BD00002DE9F04F2DED048BB7
:1053000004468DB0A14600250FF0E2FFAC4BE563EB
:1053100049F8403B26222946484622F0AEF8484646
:10532000FDF744F804F16C08FF26A64B23642622FF
:105330004FF6FF73294684F866604046A566ADF8CF
:10534000283022F09AF84046FDF730F89E4BE3668D
:10535000BDF82830A4F892300AA9404684F8946039
:105360000BF02DFE04F19803184608EE103A0BF0EE
:1053700067FF04F1E00304F59477184608EE903ACD
:10538000FDF726F838460AF0E3FC04F5CC7318461E
:105390000393FBF795FF8D4BC4F8983104F5D67B4A
:1053A0002433C4F8A031C4F8A451584604F5FA7A5D
:1053B000FDF70EF85046FDF70BF804F50F7318468D
:1053C00009EE103A01F0DAFC814A04F58053C3E992
:1053D000F524804A4FF46161C3E9F72504F2C45013
:1053E0000CF0EAFD4FF4A0732A4648460093294684
:1053F000F023FCF7C8FF261D4FF07F43A366494604
:10540000304609F04DF82A4640462946FCF7AEFFE3
:10541000092340460AA9ADF828300BF0D0FD4146DB
:10542000304609F03DF818EE100A40F20112212131
:10543000FCF79CFF03230AAA09A918EE100AADF88D
:1054400024300223ADF828300BF0C3FB072318EEFD
:10545000100AA4F8D030FCF7DDFF04F59E53143396
:105460004FF0FF39C4F8C03018EE101A3046C4E9C6
:10547000359909F015F80DF110083C2218EE900A44
:105480001721FCF773FF18EE901A4046C4F81091EC
:10549000A4F814510AF01EFF98E8070004F58E7373
:1054A00083E807004C4B0A9318EE900A08230AA9D8
:1054B000ADF82C300BF0A8F918EE901A304608F031
:1054C000EFFF0A2300933222F02329463846FCF7E7
:1054D0005AFF039BC4F85031A02211463846C4F845
:1054E000A491A4F8A8910AF049FDA0224FF4EB5131
:1054F00038460AF04EFDD4F86431202B05D0202325
:10550000C4F8643138460AF043FC384601210AF0F9
:105510004BFD3946304608F0C3FF0025242258468B
:105520004FF0FF394521FCF721FF59464046C4F8AA
:10553000DC91A4F8E0510AF0CDFE98E807000BF1E9
:105540003C0383E80700244F0A9709230AA9584619
:10555000ADF82C300BF058F95946304608F0A0FF52
:105560000C2250463221FCF701FF51464046C4F858
:105570002492A4F828520AF0ADFE98E807000AF138
:105580003C0383E807000A230AA95046ADF82C30F3
:105590000A970BF039F95146304608F081FF19EEB1
:1055A000100A4E222946FCF7E1FE304619EE101A89
:1055B00008F076FF20460DB0BDEC048BBDE8F08FFF
:1055C000F4A20208D8B00208A0B202080CAE020889
:1055D000DCA20208A3520008008C0208704730B415
:1055E000C26844685510034604EB6200D20748BF06
:1055F00062599B6830BC48BFD358184743682BB1E9
:1056000083682BB9C06800F00100704718467047E6
:105610000120704710B51021044620F038FF2046C5
:1056200010BD00F50F7001F0B3BB9830884208B58B
:1056300005D10EF0CDF9BDE80840FDF70FBC08BD5F
:1056400010B5074B036004460CF0C0FC054BC4F8D2
:105650003C3204F50F70FEF785FC204610BD00BFFC
:1056600040A3020870A7020810B50446FFF7E8FF40
:10567000204641F2E43120F00AFF204610BD000030
:105680002DE9F04F2DED048B04468DB0A146002589
:105690000FF01EFEAC4BE56349F8403B262229463D
:1056A000484621F0EAFE4846FCF780FE04F16C080B
:1056B000FF26A64B236426224FF6FF73294684F863
:1056C00066604046A566ADF8283021F0D6FE40461B
:1056D000FCF76CFE9E4BE366BDF82830A4F89230D0
:1056E0000AA9404684F894600BF069FC04F1980321
:1056F000184608EE103A0BF0A3FD04F1E00304F5A0
:105700009477184608EE903AFCF762FE38460AF0A5
:105710001FFB04F5CC7318460393FBF7D1FD8D4BAB
:10572000C4F8983104F5D67B2433C4F8A031C4F80A
:10573000A451584604F5FA7AFCF74AFE5046FCF7A5
:1057400047FE04F50F73184609EE103A01F016FBF8
:10575000814A04F58053C3E9F524804A4FF461611E
:10576000C3E9F72504F2C4500CF026FC4FF4A073F3
:105770002A46484600932946F023FCF704FE261DDE
:105780004FF07F43A3664946304608F089FE2A461B
:1057900040462946FCF7EAFD092340460AA9ADF830
:1057A00028300BF00CFC4146304608F079FE18EE2C
:1057B000100A40F201122121FCF7D8FD4FF0030836
:1057C00002230AAA09A918EE100AADF82830ADF88C
:1057D00024800BF0FEF918EE100AA4F8D080FCF734
:1057E00019FE04F59E5314334FF0FF39C4F8C0304E
:1057F00018EE101A3046C4E9359908F051FE0DF143
:1058000010083C2218EE900A1721FCF7AFFD18EEA5
:10581000901A4046C4F81091A4F814510AF05AFDA9
:1058200098E8070004F58E7383E807004C4B0A9351
:1058300018EE900A04230AA9ADF82C300AF0E4FF10
:1058400018EE901A304608F02BFE0A2300933222FD
:10585000F02329463846FCF796FD039BC4F85031E7
:10586000A02211463846C4F8A491A4F8A8910AF0E1
:1058700085FBA0224FF4EB5138460AF08AFBD4F89E
:105880006431202B05D02023C4F8643138460AF057
:105890007FFA384601210AF087FB3946304608F086
:1058A000FFFD0025242258464FF0FF394521FCF723
:1058B0005DFD59464046C4F8DC91A4F8E0510AF079
:1058C00009FD98E807000BF13C0383E80700244F2B
:1058D0000A9705230AA95846ADF82C300AF094FF20
:1058E0005946304608F0DCFD0C2250463221FCF7C8
:1058F0003DFD51464046C4F82492A4F828520AF0CF
:10590000E9FC98E807000AF13C0383E80700062356
:105910000AA95046ADF82C300A970AF075FF514697
:10592000304608F0BDFD19EE100A4E222946FCF75C
:105930001DFD304619EE101A08F0B2FD20460DB0DC
:10594000BDEC048BBDE8F08F40A30208D8B002087C
:10595000A0B202080CAE020828A302082B560008C9
:10596000008C02087047704730B4C2684468551014
:10597000034604EB6200D20748BF62599B6830BC03
:1059800048BFD358184743682BB183682BB9C06808
:1059900000F001007047184670470120704710B5AD
:1059A0001021044620F073FD204610BD10B5034BB6
:1059B000036004460CF00AFB204610BD8CA30208CD
:1059C00007B5074B036001900CF000FB019841F212
:1059D000EC0120F05CFD019803B05DF804FB00BF12
:1059E0008CA3020838B500F5FA73994204460D46B7
:1059F00003D10DF0EDFFFDF7E1F904F521739D42B0
:105A000003D10DF0E5FFFDF7F9F904F50F74A54298
:105A100005D10DF0DDFFBDE83840FDF7FFB938BD19
:105A20002DE9F04F2DED048B04468DB0A2460025E4
:105A30000FF04EFCCD4BE5634AF8403B2622294649
:105A4000504621F01AFD5046FCF7B0FC04F16C09F9
:105A5000FF26C74B236426224FF6FF73294684F89E
:105A600066604846A566ADF8283021F006FD484638
:105A7000FCF79CFCBF4BE366BDF82830A4F89230DD
:105A80000AA9484684F894600BF099FA04F1980347
:105A900004F1E007184608EE103AFCF799FC384686
:105AA0000AF056F904F5A87318460393FBF708FCAF
:105AB000B14BC4F8503104F5B2782433C4F85831EE
:105AC000C4F85C51404604F5D67BFCF781FC58468F
:105AD000FCF77EFC04F5FA73184608EE903A0BF0DA
