:020000040800F2
:1000000000000320890E0008652B0008672B0008FC
:10001000692B00086B2B00086D2B00080000000006
:1000200000000000000000000000000061920108D4
:100030006F2B00080000000001930108398A0108B5
:10004000D90E0008D90E0008D90E0008D90E0008F4
:10005000D90E0008D90E0008D90E0008D90E0008E4
:10006000D90E0008712B0008D90E0008D90E00081F
:10007000D90E0008D90E0008D90E0008D90E0008C4
:10008000D90E0008D90E0008D90E0008D90E0008B4
:10009000D90E0008D90E0008D90E0008D90E0008A4
:1000A000D90E0008D90E0008D90E0008D90E000894
:1000B000D90E0008D90E0008D90E0008D90E000884
:1000C000D90E0008D90E0008D90E0008D90E000874
:1000D000D90E0008D90E0008D90E0008D90E000864
:1000E000D90E0008D90E0008D90E0008D90E000854
:1000F000D90E0008D90E0008D90E0008D90E000844
:10010000D90E0008D90E0008D90E0008D90E000833
:10011000D90E0008D90E0008912B0008D90E00084E
:10012000D90E000885240008D90E0008D90E000851
:10013000D90E0008D90E0008D90E0008D90E000803
:10014000D90E0008D90E0008D90E0008D90E0008F3
:10015000D90E0008D90E0008D90E0008D90E0008E3
:10016000A12B0008D90E0008D90E0008D90E0008EE
:10017000D90E0008D90E0008D90E000800000000B2
:10018000D90E0008D90E0008D90E0008D90E0008B3
:10019000D90E0008D90E0008D90E0008D90E0008A3
:0C01A000B12B0008D90E0008D90E000891
:1001B00010B5054C237833B9044B13B10448AFF3A1
:1001C00000800123237010BD6801002000000000A2
:1001D000E077030808B5034B1BB103490348AFF3AD
:1001E000008008BD000000006C010020E0770308DB
:1001F0004B1C012B98BF70472DE9F003911C9B0805
:10020000B1F80480B1F802900A8831F802CC804439
:10021000814402448444D9F80070D8F8006015681D
:10022000DCF80040C9F80060C8F80070CCF8005055
:100230001460D9F80470D8F804605568DCF80440FC
:10024000C9F80460C8F80470CCF804505460083150
:10025000013BD5D1BDE8F00370474B1C012B98BF83
:1002600070472DE9F003911C9B08B1F80480B1F8A8
:1002700002900A8831F802CC00EB580800EB5909CB
:1002800000EB520200EB5C0CD9F80070D8F800606B
:100290001568DCF80040C9F80060C8F80070CCF8B8
:1002A000005014600831013BDFD1BDE8F003704716
:1002B00001F0FF01102A2BDB10F0070F08D010F817
:1002C000013B013A8B422DD010F0070F42B3F6D11B
:1002D000F0B441EA012141EA014122F007047FF034
:1002E00000070023F0E80256083C85EA010586EA8B
:1002F000010685FA47F5A3FA87F586FA47F6A5FAC7
:1003000087F68EB9EED1F0BC01F0FF0102F00702D2
:1003100032B110F8013B013A83EA010313B1F8D17D
:100320000020704701387047002D06BF354603385E
:10033000073815F0010F07D1013015F4807F02BF97
:10034000013015F4C03F0130F0BC0138704700BFE8
:1003500081F0004102E000BF83F0004330B54FEA76
:1003600041044FEA430594EA050F08BF90EA020FE3
:100370001FBF54EA000C55EA020C7FEA645C7FEA76
:10038000655C00F0E2804FEA5454D4EB5555B8BF99
:100390006D420CDD2C4480EA020281EA030382EA0A
:1003A000000083EA010180EA020281EA0303362D9C
:1003B00088BF30BD11F0004F4FEA01314FF4801C6F
:1003C0004CEA113102D0404261EB410113F0004F81
:1003D0004FEA03334CEA133302D0524263EB430338
:1003E00094EA050F00F0A780A4F10104D5F1200ED6
:1003F0000DDB02FA0EFC22FA05F2801841F1000131
:1004000003FA0EF2801843FA05F359410EE0A5F104
:1004100020050EF1200E012A03FA0EFC28BF4CF035
:10042000020C43FA05F3C01851EBE37101F00045EB
:1004300007D54FF0000EDCF1000C7EEB00006EEBF8
:100440000101B1F5801F1BD3B1F5001F0CD3490882
:100450005FEA30004FEA3C0C04F101044FEA4452D9
:1004600012F5800F80F09A80BCF1004F08BF5FEA60
:10047000500C50F1000041EB045141EA050130BD40
:100480005FEA4C0C404141EB0101013C28BFB1F552
:10049000801FE9D291F0000F04BF01460020B1FA9D
:1004A00081F308BF2033A3F10B03B3F120020CDA70
:1004B0000C3208DD02F1140CC2F10C0201FA0CF04E
:1004C00021FA02F10CE002F11402D8BFC2F1200CB3
:1004D00001FA02F120FA0CFCDCBF41EA0C01904069
:1004E000E41AA2BF01EB0451294330BD6FEA0404B2
:1004F0001F3C1CDA0C340EDC04F11404C4F120029D
:1005000020FA04F001FA02F340EA030021FA04F3AE
:1005100045EA030130BDC4F10C04C4F1200220FA05
:1005200002F001FA04F340EA0300294630BD21FA43
:1005300004F0294630BD94F0000F83F4801306BF09
:1005400081F480110134013D4EE77FEA645C18BFFD
:100550007FEA655C29D094EA050F08BF90EA020F94
:1005600005D054EA000C04BF1946104630BD91EA8C
:10057000030F1EBF0021002030BD5FEA545C05D18F
:100580004000494128BF41F0004130BD14F58004CE
:100590003CBF01F5801130BD01F0004545F0FE4142
:1005A00041F470014FF0000030BD7FEA645C1ABF77
:1005B000194610467FEA655C1CBF0B46024650EAAE
:1005C000013406BF52EA033591EA030F41F40021DA
:1005D00030BD00BF90F0000F04BF0021704730B560
:1005E0004FF4806404F132044FF000054FF0000135
:1005F00050E700BF90F0000F04BF0021704730B5F6
:100600004FF4806404F1320410F0004548BF4042CA
:100610004FF000013EE700BF42004FEAE2014FEA1F
:1006200031014FEA02701FBF12F07F4393F07F4FFA
:1006300081F06051704732F07F4208BF704793F0FD
:100640007F4F04BF41F40021704730B54FF4607410
:1006500001F0004521F000411CE700BF50EA010213
:1006600008BF704730B54FF000050AE050EA0102BC
:1006700008BF704730B511F0004502D5404261EB2C
:1006800041014FF4806404F132045FEA915C3FF46D
:10069000D8AE4FF003025FEADC0C18BF03325FEA0A
:1006A000DC0C18BF033202EBDC02C2F1200300FABB
:1006B00003FC20FA02F001FA03FE40EA0E0021FAE0
:1006C00002F11444BDE600BF70B54FF0FF0C4CF4CE
:1006D000E06C1CEA11541DBF1CEA135594EA0C0F80
:1006E00095EA0C0F00F0DEF82C4481EA030621EABB
:1006F0004C5123EA4C5350EA013518BF52EA0335F6
:1007000041F4801143F4801338D0A0FB02CE4FF0A7
:100710000005E1FB02E506F00042E0FB03E54FF0D7
:100720000006E1FB03569CF0000F18BF4EF0010ECF
:10073000A4F1FF04B6F5007F64F5407404D25FEACB
:100740004E0E6D4146EB060642EAC62141EA55517E
:100750004FEAC52040EA5E504FEACE2EB4F1FD0CC0
:1007600088BFBCF5E06F1ED8BEF1004F08BF5FEA3E
:10077000500E50F1000041EB045170BD06F00046F0
:1007800046EA010140EA020081EA0301B4EB5C049D
:10079000C2BFD4EB0C0541EA045170BD41F4801195
:1007A0004FF0000E013C00F3AB8014F1360FDEBFBA
:1007B000002001F0004170BDC4F10004203C35DA96
:1007C0000C341BDC04F11404C4F1200500FA05F319
:1007D00020FA04F001FA05F240EA020001F00042BA
:1007E00021F0004110EBD37021FA04F642EB060130
:1007F0005EEA430E08BF20EAD37070BDC4F10C045A
:10080000C4F1200500FA04F320FA05F001FA04F21D
:1008100040EA020001F0004110EBD37041F1000109
:100820005EEA430E08BF20EAD37070BDC4F1200514
:1008300000FA05F24EEA020E20FA04F301FA05F27C
:1008400043EA020321FA04F001F0004121FA04F224
:1008500020EA020000EBD3705EEA430E08BF20EAF4
:10086000D37070BD94F0000F0FD101F0004640002E
:1008700041EB010111F4801F08BF013CF7D041EAB0
:10088000060195F0000F18BF704703F000465200B4
:1008900043EB030313F4801F08BF013DF7D043EA85
:1008A0000603704794EA0C0F0CEA135518BF95EA3B
:1008B0000C0F0CD050EA410618BF52EA4306D1D1C2
:1008C00081EA030101F000414FF0000070BD50EAE1
:1008D000410606BF1046194652EA430619D094EA6B
:1008E0000C0F02D150EA013613D195EA0C0F05D155
:1008F00052EA03361CBF104619460AD181EA0301A9
:1009000001F0004141F0FE4141F470014FF0000060
:1009100070BD41F0FE4141F4780170BD70B54FF0FB
:10092000FF0C4CF4E06C1CEA11541DBF1CEA13557B
:1009300094EA0C0F95EA0C0F00F0A7F8A4EB05045D
:1009400081EA030E52EA03354FEA013100F0888054
:100950004FEA03334FF0805545EA131343EA12631D
:100960004FEA022245EA111545EA10654FEA0026D2
:100970000EF000419D4208BF964244F1FD0404F58B
:10098000407402D25B084FEA3202B61A65EB0305E7
:100990005B084FEA32024FF480104FF4002CB6EBA4
:1009A000020E75EB030E22BFB61A754640EA0C0024
:1009B0005B084FEA3202B6EB020E75EB030E22BF64
:1009C000B61A754640EA5C005B084FEA3202B6EBA5
:1009D000020E75EB030E22BFB61A754640EA9C0064
:1009E0005B084FEA3202B6EB020E75EB030E22BF34
:1009F000B61A754640EADC0055EA060E18D04FEAF2
:100A0000051545EA16754FEA06164FEAC30343EA91
:100A100052734FEAC2025FEA1C1CC0D111F4801F5E
:100A20000BD141EA00014FF000004FF0004CB6E757
:100A300011F4801F04BF01430020B4F1FD0C88BFF6
:100A4000BCF5E06F3FF6AFAEB5EB030C04BFB6EB01
:100A5000020C5FEA500C50F1000041EB045170BDF4
:100A60000EF0004E4EEA113114EB5C04C2BFD4EB21
:100A70000C0541EA045170BD41F480114FF0000EA5
:100A8000013C90E645EA060E8DE60CEA135594EA21
:100A90000C0F08BF95EA0C0F3FF43BAF94EA0C0F24
:100AA0000AD150EA01347FF434AF95EA0C0F7FF499
:100AB00025AF104619462CE795EA0C0F06D152EAED
:100AC00003353FF4FDAE1046194622E750EA4106D1
:100AD00018BF52EA43067FF4C5AE50EA41047FF4E2
:100AE0000DAF52EA43057FF4EBAE12E74FEA410245
:100AF000B2F1E04324BFB3F5001CDCF1FE5C0DD97C
:100B000001F0004C4FEAC0024CEA5070B2F1004FC5
:100B100040EB830008BF20F00100704711F0804FC8
:100B200021D113F13872BCBF01F00040704741F48D
:100B300080114FEA5252C2F11802C2F1200C10FA91
:100B40000CF320FA02F018BF40F001004FEAC12375
:100B50004FEAD32303FA0CFC40EA0C0023FA02F319
:100B60004FEA4303CCE77FEA625307D150EA0133EF
:100B70001EBF4FF0FE4040F44000704701F00040BF
:100B800040F0FE4040F40000704700BF53B94AB93E
:100B9000002908BF00281CBF4FF0FF314FF0FF3085
:100BA00000F070B9ADF1080C6DE904CE00F006F864
:100BB000DDF804E0DDE9022304B070472DE9F047D9
:100BC000089E0D4604460F46002B4AD18A429446A1
:100BD00065D9B2FA82F343B102FA03FCC3F12002F1
:100BE0009F4020FA02F217439C404FEA1C4E1FFA26
:100BF0008CF5B7FBFEF1220C0EFB117742EA07429F
:100C000001FB05F090420AD91CEB020201F1FF370B
:100C100080F01C81904240F2198102396244121A1C
:100C2000A4B2B2FBFEF00EFB102244EA024400FB29
:100C300005F5A5420AD91CEB040400F1FF3280F04F
:100C40000781A54240F204816444023840EA014031
:100C5000641B00211EB1DC400023C6E90043BDE84F
:100C6000F0878B4208D9002E00F0ED800021C6E904
:100C700000050846BDE8F087B3FA83F1002949D1A1
:100C8000AB4202D3824200F2F880841A65EB030281
:100C900001201746002EE2D0C6E90047DFE702B97F
:100CA000FFDEB2FA82F3002B40F090808A1A4FEAFE
:100CB0001C471FFA8CFE0121B2FBF7F507FB15203C
:100CC000220C42EA00420EFB05F0904208D91CEBD0
:100CD000020205F1FF3802D2904200F2CB80454675
:100CE000121AA4B2B2FBF7F007FB102244EA024446
:100CF0000EFB00FEA64508D91CEB040400F1FF32F0
:100D000002D2A64500F2BB801046A4EB0E0440EAD6
:100D100005409FE7C1F120078B4022FA07FC4CEA0F
:100D2000030C05FA01F420FA07F3FD404FEA1C49D1
:100D30002343B5FBF9F81FFA8CFE09FB18551C0C70
:100D400044EA054408FB0EF5A54202FA01F200FA56
:100D500001F00BD91CEB040408F1FF3A80F0888005
:100D6000A54240F28580A8F102086444641B9DB24C
:100D7000B4FBF9F309FB134445EA044403FB0EFEFC
:100D8000A64508D91CEB040403F1FF356CD2A64537
:100D90006AD9023B644443EA0843A3FB0295A4EBEF
:100DA0000E04AC42C846AE4656D353D056B1B0EB53
:100DB000080264EB0E0404FA07F7CA40CC4017435C
:100DC000C6E9007418460021BDE8F087C3F1200190
:100DD00002FA03FC20FA01F225FA01F19D402A43B0
:100DE0004FEA1C471FFA8CFEB1FBF7F007FB10150A
:100DF000110C41EA054100FB0EF58D4204FA03F4A3
:100E000008D91CEB010100F1FF382FD28D422DD9FA
:100E100002386144491B92B2B1FBF7F507FB15118B
:100E200042EA014205FB0EF1914208D91CEB020295
:100E300005F1FF3816D2914214D9023D6244521A8C
:100E400045EA004138E73146304608E73946E6E6EC
:100E50001046FBE64845A9D2B9EB020865EB0C0E3B
:100E6000013BA3E74546EAE72B4694E74046D1E736
:100E7000D0467BE7023D624432E708460AE7644415
:100E8000023842E7704700BFDFF834D0002103E0AA
:100E90000C4B5B58435004310B480C4B42189A42A0
:100EA000F6D30B4A02E0002342F8043B094B9A4276
:100EB000F9D313F015FC35F017FF01F0DBF870479C
:100EC00000000320AC890D0800000020680100200C
:100ED00068010020284D0120FEE700F1784243F62A
:100EE000FE739A4240F29880A2F5804343F6FE7268
:100EF000934240F2938000F17843A3F5004393427C
:100F000040F28E8000F17843A3F54043934240F2D3
:100F1000898000F1774303F57F034FF6FE72934219
:100F200040F2828000F1774303F57E0302F58032C0
:100F300093427BD900F1774303F57C03934277D941
:100F400000F1774303F57A03934273D900F17743B5
:100F500003F5780393426FD900F1774303F57603E5
:100F600093426BD900F1774303F57403934267D939
:100F700000F1774303F57203934263D9A0F1016254
:100F800043F6FE739A425FD9A2F5804343F6FE72A0
:100F900093425BD9A0F10163A3F50043934257D973
:100FA000A0F10163A3F54043934253D900F1774385
:100FB00003F56F034FF6FE7293424DD900F177436C
:100FC00003F56E0302F58032934247D900F177436F
:100FD00003F56C03934243D900F1774303F56A03A9
:100FE00093423FD900F1774303F5680393423BD91D
:100FF00000F1774303F56603934237D900F1774355
:1010000003F56403934233D900F1774000F56200A1
:1010100090422FD900207047002070470120704770
:101020000220704703207047042070470520704756
:101030000620704707207047082070470920704736
:101040000A2070470B2070470C2070470D20704716
:101050000E2070470F2070471020704711207047F6
:1010600012207047132070471420704715207047D6
:101070001620704717207047F0B583B005460F461D
:10108000164613F099FC2846FFF727FF044605EBA8
:101090008600FFF722FF134B00221A6002221A611A
:1010A0009C60001B0130D86001A9184613F09AFD1E
:1010B00068B90024A64210DD57F8242000232946F1
:1010C000022013F0D1FC28B904350134F2E713F003
:1010D00095FC05E013F092FC02E013F085FC002083
:1010E00003B0F0BD8401002050F8043B41F8043BFC
:1010F0001346013A92B2002BF6D1704770B52DED30
:10110000028BADF5087D05460C4600230AE004EB92
:101110008302D2ED007A9FED3A7A77EEC77AC2ED7C
:10112000007A01333F2BF2D9402102A833F030FB83
:10113000002308AA214602A833F0AEFB20220DEBC3
:101140000201084634F016F801AB6A4620210DEB87
:10115000010033F0B5FA9DED018AB8EE488A01F03E
:10116000DDF907EE900AF8EE677A28EE278ADFEDC0
:10117000257A28EE278ADFED247AB4EEE78AF1EEAD
:1011800010FA06D8DFED217AB4EEE78AF1EE10FA14
:101190000FDADFED1F7AB4EEE78AF1EE10FA0AD823
:1011A000DFED197AB4EEE78AF1EE10FA21DA0026C3
:1011B00002E0322600E00026B40101F0AFF9B4FBF2
:1011C000F0F4C6B108AB03EB8403D3ED007A77EEFD
:1011D000A77A9FED0C7A67EE877A01232B7285ED53
:1011E000008AC5ED017A28460DF5087DBDEC028B1D
:1011F00070BD3C26E0E700232B72DFED067AEEE7B8
:1012000000F0FF440000803C00005C4200003442DB
:1012100000008242000000002DE9F04190B08046BD
:1012200000245BE01A01815807EE901AF8EE677A05
:10123000494901EB8301C1ED007A0244D2ED017A04
:10124000F8EE677A454901EB8301C1ED007AD2EDF2
:10125000027AF8EE677A424901EB8301C1ED007A28
:10126000D2ED037AF8EE677A3E4A02EB8302C2EDD2
:10127000007A01333F2BD5D905AE37493046FFF709
:101280003DFFA700384B03EB8403069A1A606D46B6
:1012900032492846FFF732FF95E8070086E8070045
:1012A000324B3B44069A1A602D492846FFF726FF29
:1012B00095E8070086E807002D4B3B44069A1A6024
:1012C00028492846FFF71AFF95E8070086E8070037
:1012D000284B3B44069A1A600134E4B2092C03D827
:1012E00001F008F90023C5E71F4C08AA0A2120468F
:1012F00033F0B2F909AA0A21204633F039F91B4C20
:101300000AAA0A21204633F0A7F90BAA0A2120468F
:1013100033F02EF9164C0CAA0A21204633F09CF922
:101320000DAA0A21204633F023F9124C0EAA0A21F5
:10133000204633F091F90FAA0A21204633F018F91C
:10134000454608AC0FCC0FC594E80F0085E80F00A8
:10135000404610B0BDE8F081500800205006002043
:10136000500500205003002018020020F00100204A
:10137000C8010020A001002000B58DB02E4B93EDD8
:10138000007AC7EE007A2D4B93ED007A77EE877ADC
:1013900020EE000A2A4BD3ED006A86EE807A77EEC3
:1013A000877ACDED047A274BD3ED006A86EEA07ADA
:1013B000254BD3ED006A37EE267A60EEA00A234B68
:1013C00093ED006AC6EE206A37EE267A8DED057A37
:1013D00077EE876AB6EE006A66EE866ACDED066A3B
:1013E00077EE677A17EE900AFFF716F910A3D3E9A4
:1013F0000023FFF793FAFFF779FB00EE100A34F0B1
:10140000CFFADFED137A20EE270A8DED070A04AB41
:101410000FCB0DF1300C0CE90F009DED080ADDED4E
:10142000090A9DED0A1ADDED0B1A0DB05DF804FBFB
:101430003333333333B34340440200209C01002054
:101440004C020020400200209801002048020020A9
:10145000E02E654230B52DED048B95B001F04AF8D1
:10146000002327E01A01815807EE901AF8EE677AF8
:101470003B4901EB8301C1ED007A0244D2ED017AD0
:10148000F8EE677A374901EB8301C1ED007AD2EDBE
:10149000027AF8EE677A344901EB8301C1ED007AF4
:1014A000D2ED037AF8EE677A304A02EB8302C2ED9E
:1014B000007A01333F2BD5D909AD29492846FFF7DA
:1014C0001DFEDDED0A8A9DED098A6C462549204600
:1014D000FFF714FE94E8070085E807009DED0A9ADF
:1014E000DDED099A20492046FFF708FE94E8070041
:1014F00085E807001D492046FFF700FE94E8070035
:1015000085E8070078EE297AB6EE007A67EE877AEA
:10151000CDED0E7AF0EE490AB0EE680AFFF72CFF27
:101520008DED050ACDED060A8DED071ACDED081AF1
:101530008DED0C1ACDED0D1A00230F930CAB0FCBD4
:1015400014AC04E90F009DED100ADDED110A9DEDCC
:10155000121ADDED131A15B0BDEC048B30BD00BFBF
:1015600050090020500700205004002050020020A5
:10157000D0ED004A24EEA45A90ED017A90ED026A73
:1015800037EE464A65EE046AD1ED007A66EEA76A48
:1015900067EE075AD1ED017A65EEA75A26EE063AB4
:1015A000D1ED023A23EE233A75EEC35A64EEA55A02
:1015B00076EEE56A67EE277A66EE233A77EEE37A0F
:1015C00067EE277A66EE277A76EEA77A77EE066AD6
:1015D00064EEA64A35EE645A27EE067A35EE075ACF
:1015E00024EE054A87EE847A82ED007AD0ED004A37
:1015F00024EEA47AD0ED016A26EEA66AD1ED005A57
:1016000091ED014A75EEC47A66EE277A90ED025AA2
:1016100025EE053AD1ED023A75EEE35A63EE255A0E
:1016200077EEE57A67EE277A26EE036A34EE634AB0
:1016300026EE046A77EE867AF1EE677A36EE856AF0
:1016400064EE864A37EE647A26EE856A37EE067ACD
:1016500076EEC56A27EE267AC7EE876AC3ED006A82
:10166000D0ED006A90ED017A91ED006AD1ED015A5A
:1016700076EE657A67EE277A90ED025AD1ED024A4E
:1016800036EE646A25EE066A77EEC67A66EEA77ACB
:1016900027EE056A75EEE45A66EE255A77EEA57ACE
:1016A00066EEA77A67EE277A65EE277A66EEA65A87
:1016B00077EE054A66EEA46A75EEE66A36EE266AAD
:1016C00037EE457A26EE076A87EE867A009B83ED31
:1016D000007A704710B592B0304B0FAC93E807001A
:1016E00084E807002E4BD3ED037AF8EE677ACDED50
:1016F0000C7AD3ED047AF8EE677ACDED0D7AD3ED5E
:10170000057AF8EE677ACDED0E7AD3ED007AF8EE31
:10171000677ACDED097AD3ED017AF8EE677ACDEDEF
:101720000A7AD3ED027AF8EE677ACDED0B7AD3ED33
:10173000067AF8EE677ACDED067AD3ED077AF8EE01
:10174000677ACDED077AD3ED087AF8EE677ACDEDBA
:10175000087AD3ED097AF8EE677ACDED037AD3ED06
:101760000A7AF8EE677ACDED047AD3ED0B7AF8EECB
:10177000677ACDED057A0B4B00930B4B0B4A214654
:101780000CA8FFF7F5FE0A4B00930A4B0A4A2146C4
:1017900009A8FFF7EDFE12B010BD00BFF8770308EF
:1017A000500A00204C020020440200209C0100202E
:1017B0004802002040020020980100202DE9F04757
:1017C0008EB0002409940A940B940C940D94019407
:1017D000714B1A6B42F010021A631A6B02F010027E
:1017E0000192019A02941A6B42F020021A631A6B5A
:1017F00002F020020292029A03941A6B42F08002D5
:101800001A631A6B02F080020392039A04941A6B13
:1018100042F004021A631A6B02F004020492049A62
:1018200005941A6B42F001021A631A6B02F001026E
:101830000592059A06941A6B42F002021A631A6B1B
:1018400002F002020692069A07941A6B42F04002D6
:101850001A631A6B02F040020792079A08941A6BF7
:1018600042F008021A631B6B03F008030893089BFD
:101870004A4E22461421304613F00BFB0122202150
:10188000304613F006FBDFF8208122461421404643
:1018900013F0FFFADFF814A122464FF480515046AE
:1018A00013F0F7FADFF8089122464FF4405148460A
:1018B00013F0EFFA3A4F22460421384613F0E9FAC2
:1018C00001224FF40051384613F0E3FA1423099330
:1018D00001250A950B9403230C9309A9304613F0B4
:1018E000CDF9082309934FF488130A930B9409A99F
:1018F000304613F0C3F9202309930A950B940C94F6
:1019000009A9304613F0BAF9042309930A950B94F8
:1019100002260C9609A9404613F0B0F9102309934A
:101920000A950B940C9409A9404613F0A7F94FF4BB
:10193000805309930A950B940C9409A9504613F00F
:101940009DF94FF4405309930A950B940C9609A9FD
:10195000484613F093F942F2040309930A950B9455
:101960000C9409A9384613F089F94FF40043099300
:101970000A960B940C940F230D9309A9094813F0B0
:101980007DF922460521092012F00AFF092012F0F4
:101990003FFF0EB0BDE8F087003802400010024063
:1019A000001802400000024000080240000402400B
:1019B000000C024008B50348034B036012F036FFE9
:1019C00008BD00BF940A00200030024038B50D4C1D
:1019D0000D4B23600D4B63600025A560E5604FF45F
:1019E000804323616561A561E5612562204613F0AE
:1019F00093FE1021204614F003FF2946204614F0E0
:101A000021FF38BD9C0A0020005C0040A086010038
:101A100008B50C480C4B03604FF4827343600023FD
:101A20008360C360036143614FF4007282611822D6
:101A3000C2610362436283620A23C36215F00AFF34
:101A400008BD00BFCC0B0020005001402DE9F04341
:101A500083B005460C464FF00008CDF804800126FF
:101A60000E6008274F608E60C1F80C804FF6FF7241
:101A700015F0D2FD304612F06DFE02232360676040
:101A8000A660C4F80C804FF6FF722146284615F078
:101A9000C3FD0323236067604FF00409C4F8089076
:101AA000C4F80C804FF6FF722146284615F0B4FDAD
:101AB0004FF40C730193C4F800906760A660019B1B
:101AC000E3604FF6FF722146284615F0A5FD40F26F
:101AD0006A51284615F0C2FD03B0BDE8F08300004E
:101AE00010B58CB0002305930693079308930993D0
:101AF0000A930B93154C164A226001226260A36080
:101B00000421E16010222261402262614FF4C07220
:101B1000A261E3614FF40062226263624FF40053FA
:101B2000A3620223059307220692079108920322DB
:101B300009920A930B9305A9204615F04DFD01A9C2
:101B40002046FFF783FF0CB010BD00BF980B0020AC
:101B5000400100A030B58FB03422002101A834F03C
:101B6000C4FF274C274B236000256560A560E56016
:101B70002561092363610123A3611D23E36103231D
:101B8000236240F20D13636240F24313A36240F2FA
:101B90001713E36240F24713236384F8345084F848
:101BA000355084F83650204614F044FF0195F02259
:101BB000029203954FF4A073049302210591FF2133
:101BC000069107954FF480610891052109910A95C6
:101BD0000B920C938DF834508DF835508DF83650AB
:101BE0002A4601A9204615F00EF8074C074B236042
:101BF0001B6898472368DB6898470FB030BD00BF6B
:101C0000F00A002000680140840A0020180000202B
:101C100030B58DB00024089409940A940B94039471
:101C2000049405940694079401940294104D114B6A
:101C30002B606C60AC604FF6FF73EB602C61AC61A5
:101C4000284616F051FB4FF48053089308A9284604
:101C500016F055FC0394049403A9284616F02AFDB7
:101C60000194029401A9284616F0DEFD0DB030BDA6
:101C7000B40C002000040040F0B587B000250295A8
:101C800003950495059500950195174C4FF08046F6
:101C90002660A7236360A5606323E360256180233A
:101CA000A361204616F020FB4FF48053029302A953
:101CB000204616F024FC009501956946204616F052
:101CC000B3FD322777632946204616F02BFDB76314
:101CD0000421204616F026FDF7630821204616F061
:101CE00021FD07B0F0BD00BF6C0C002030B589B0FD
:101CF0000024019402940394049405940694079498
:101D00000F4D104B2B60D1236B60AC606323EB60F5
:101D10002C618023AB61284616F0E6FA284616F0BF
:101D20000FFB60230193029403940594224601A9BA
:101D3000284616F069FB284600F074FE09B030BD55
:101D4000240C002000200040F0B58DB00024089441
:101D500009940A940B9401940294039404940594B6
:101D600006940794164D174E2E6053236B60AC609B
:101D70006323EB602C618023AB61284616F0B4FA34
:101D80004FF48053089308A9284616F0B8FB28465C
:101D900016F0D6FA60230193322702970394059434
:101DA000224601A9284616F02FFB776321462846D4
:101DB00016F0B8FC284600F035FE0DB0F0BD00BFAF
:101DC000FC0C00200040014000B587B08DF81720C2
:101DD000074B1B680293012301930DF11702009238
:101DE0000A460146034813F075FD07B05DF804FB91
:101DF000040000209C0A002000B587B00A4600239A
:101E00008DF81730084B1B680293012301930DF1E5
:101E1000170100910146054813F00EFE9DF81700CA
:101E200007B05DF804FB00BF040000209C0A0020FE
:101E300010B584B0074C24680294019300920123EA
:101E40000A460146044813F0F7FD00B1012004B032
:101E500010BD00BF040000209C0A002000B583B024
:101E6000ADF80600054B1B6801220DF10601044880
:101E700015F04FFD03B05DF804FB00BF0800002023
:101E8000CC0B002000B583B00246054B1B6801A9AE
:101E9000044815F036FF019803B05DF804FB00BF5D
:101EA00008000020CC0B002008B5642016F05CFE72
:101EB000FBE7000008B50FE0B422226000222021D9
:101EC0000D4812F0E6FF4FF400510C4812F0E7FF06
:101ED0004FF47A7016F048FE094C2368013B2360EA
:101EE00000231A4621460748006816F053FF23686E
:101EF000002BE1D0E7E700BF0010024000180240CD
:101F00000C000020880A002070B582B000260096E0
:101F10001F4D2B6B43F004032B632B6B03F0040367
:101F20000093009B1B4C236823F00C032360236861
:101F300043F004032360A36943F40033A3610A2040
:101F400012F008FC236843F00C03236001962B6B0E
:101F500043F020032B632B6B03F020030193019BC1
:101F600004F54064A36823F44033A360636A23F05C
:101F70000F036362E36823F44033E3600A2012F046
:101F8000E9FB236843F44033236002B070BD00BF17
:101F900000380240000802402DE9F84300AF8046B7
:101FA0000E4615461C469B000733DB086A46A2EB2B
:101FB000C3039D46E94622464946FFF795F849F88E
:101FC0002560224649464046FFF756F8024B43F843
:101FD0002560BD46BDE8F883500A002030B595B0B5
:101FE0003022002108A834F080FD002403940494DA
:101FF00005940694079401941C4B1A6C42F080528D
:102000001A641B6C03F080530193019B0294184BDC
:102010001A6842F440421A601B6803F4404302937A
:10202000029B012308934FF48033099302250E95F8
:102030004FF480030F93082310934FF4A873119368
:1020400012950423139308A814F036FE0F2303936C
:10205000049505944FF4A05306934FF480530793CF
:10206000052103A815F092F815B030BD00380240E4
:102070000070004008B512F041FBFFF7AFFFFFF71B
:1020800043FFFFF79BFBFFF795FCFFF79FFCFFF774
:10209000BFFCFFF725FDFFF75DFDFFF7B9FDFFF77B
:1020A000EBFDFFF723FEFFF74FFE00F0E2FD00F02F
:1020B000DFFDFFF729FF00F0E5F800F027F90C221B
:1020C00013491448FFF710F8FFF704FB16F0C0FCA3
:1020D000114A0221102016F012FE104B1860104A0F
:1020E0000021104816F0E2FC0F4B18600F4A002147
:1020F0000F4816F0DBFC0F4B18600F4A00210F4809
:1021000016F0D4FC0E4B186016F0B4FCFEE700BFCE
:10211000500A002000001E089C780308880A00204E
:10212000D8780308A91E0008900A002078780308D0
:102130007F2C0008800A0020B4780308B51E000830
:102140008C0A00207047704708B5FFF73DFE08BDB8
:1021500008B5FFF751FE08BD08B5FFF769FE80B26C
:1021600008BD08B512F0F6FA08BD000010B5064C1F
:1021700000220421204612F08CFE01220421204678
:1021800012F087FE10BD00BF0008024038B50446BB
:1021900001224FF40051094812F07BFE084D002245
:1021A0000421284612F075FE2046FFF757FE012253
:1021B0000421284612F06DFE38BD00BF000C02401D
:1021C0000008024038B5044600224FF40051094887
:1021D00012F05FFE084D00220421284612F059FE3D
:1021E0002046FFF73BFE01220421284612F051FE53
:1021F00038BD00BF000C024000080240F8B505469B
:102200000C46104E00220421304612F042FE0E4FC2
:1022100000224FF40051384612F03BFE2846FFF7EB
:102220001DFE2046FFF72EFE044601224FF400510A
:10223000384612F02EFE01220421304612F029FE0B
:102240002046F8BD00080240000C024008B512F01C
:1022500081FA08BD08B50268034B9A4200D008BD58
:1022600012F066FAFBE700BF001000407047002341
:1022700003E0002241F823200133B3EB801FF8D3A1
:102280007047000082B000200090144B1A6B42F09F
:1022900020021A631A6B02F020020092009A104A80
:1022A000116841F440511160116841F440311160EE
:1022B00001901A6B42F004021A631B6B03F00403D3
:1022C0000193019B074B1A6842F0C0021A601A681A
:1022D00042F00C021A6002B0704700BF00380240A2
:1022E0000014024000080240074B5A6A42F4807210
:1022F0005A625A6A22F480725A624FF0804213681E
:1023000023F00103136070470038024082B00021BF
:1023100001910D4B1A6C42F001021A641B6C03F020
:1023200001030193019B4FF0804343F244329A62D0
:102330000922DA625A6842F020025A60034B83F89D
:102340001C1302B0704700BF0038024000E100E0FB
:1023500082B000210091364A536C43F48063536489
:10236000536C03F480630093009B324BD86A40F4B3
:102370004010D862586B40F004005863586B40F42A
:10238000D0705863586B40F4C0505863586B40F499
:10239000B0205863586840F480705860986840F0E6
:1023A00080509860986840F0C0609860986840F4E9
:1023B000807098600191136B43F480031363136B77
:1023C00003F480030193019B1B4B83F8391302F53F
:1023D0003052936A23F001039362184B9B6A13F007
:1023E000010FFAD1154B9A6842F400629A609A6A1A
:1023F00042F080629A629A6A42F480329A629A6AE1
:1024000042F480429A629A6A42F480529A629A6ACC
:1024100042F480629A629A6A42F010029A624FF421
:102420008072DA62064A1A63064A5A6302B070473B
:10243000003802400022014000E100E00064024058
:102440004C220140440D00200B4A936A43F00103E3
:1024500093620A4B4FF00072C3F884215A60084A15
:10246000936843F0010393604FF08042136843F098
:1024700001031360704700BF0064024000E100E008
:102480000022014008B5184B1B6813F4006F2AD0D6
:10249000164B4FF00072C3F88420BFF34F8FBFF389
:1024A0006F8FC3F88421104A936A23F0010393626B
:1024B0000D4B9B6A13F0010FFAD10B4A936843F45A
:1024C000006393604FF08042136823F001031360B0
:1024D000074B9A6822F001029A609A6822F480728F
:1024E0009A60FFF701FF08BD0064024000E100E0D0
:1024F0000022014008B507490420FFF7B8FEFFF7A6
:1025000027FFFFF7A1FF044B9B6A13F0010FFAD1DD
:10251000004808BD440D0020006402404FF42070C4
:10252000704700002DE9F04186B00023019302932B
:102530000393049305932D4B1B6813B106B0BDE8BC
:10254000F0814FF00108294BC3F800800026009667
:10255000274B9A6B42EA08029A639B6B03EA0803D3
:102560000093009B4FF63F03019302270297032538
:1025700004950C24059401A91E4812F07FFBCDF8A8
:102580000480029703960495059401A91A4812F055
:1025900075FB48F233130193029703960495059453
:1025A00001A9164812F06AFB4FF683730193029754
:1025B00003960495059401A9114812F05FFB4CF2B3
:1025C00003730193029703960495059401A90D489E
:1025D00012F054FB6023019302970396049505942F
:1025E00001A9094812F04AFBA8E700BF44110020E6
:1025F0000038024000140240000802400018024067
:1026000000100240000C02400004024000B583B0FC
:10261000002200920D4B596C41F480415964596C71
:1026200001F48041009100990192196C41F08051B0
:1026300019641B6C03F080530193019B0F216FF011
:10264000010012F0ADF803B05DF804FB0038024061
:102650000268094B9A4200D0704782B00023019370
:10266000064B1A6B42F480521A631B6B03F48053BF
:102670000193019B02B070470030024000380240D5
:102680002DE9F04389B00023039304930593069347
:10269000079302682B4B9A4202D009B0BDE8F08341
:1026A00000250095284C236B43F004032363236B20
:1026B00003F004030093009B0195236B43F0010397
:1026C0002363236B03F001030193019B4FF4007319
:1026D00003934FF01209CDF810904FF00108CDF898
:1026E0001480032706970426079603A9174812F0BB
:1026F000C5FA4FF480730393CDF81090CDF8148091
:102700000697079603A9124812F0B8FA0295236CAF
:1027100043F400032364236C03F400030293029B3D
:102720002A460521482012F03BF8482012F070F8A4
:10273000236A43F400032362236A23F40003236221
:10274000ABE700BF005C00400038024000080240D8
:10275000000002402DE9F04198B004460021139199
:102760001491159116911791302207A834F0BDF9F4
:102770002268634B9A4202D018B0BDE8F08108236A
:102780000793C0230B9304230D934FF4003310934E
:1027900007A814F0DFFD002840F0AF80002400946B
:1027A000584B5A6C42F080625A645A6C02F0806254
:1027B0000092009A01941A6B42F020021A631A6B7D
:1027C00002F020020192019A02941A6B42F0010277
:1027D0001A631A6B02F001020292029A03941A6BB6
:1027E00042F002021A631A6B02F002020392039A89
:1027F00004941A6B42F040021A631A6B02F0400212
:102800000492049A05941A6B42F004021A631A6B3C
:1028100002F004020592059A06941A6B42F008022F
:102820001A631B6B03F008030693069B4FF4806347
:10283000139302251495159416950E26179613A931
:10284000314812F01BFA41F658031393149515946E
:102850001695179613A92D4812F010FA0323139317
:102860001495159416954FF00908CDF85C80284F03
:1028700013A9384612F002FA4FF4706313931495BB
:1028800015941695179613A9384612F0F7F94FF4D8
:102890000C631393149515941695179607F5A05786
:1028A00013A9384612F0EAF9C0231393149515942E
:1028B0001695179613A9174812F0E0F908231393F9
:1028C000149515941695179613A9134812F0D6F976
:1028D0004FF4A0531393149515941695CDF85C807E
:1028E00013A9384612F0CAF922460521582011F0E2
:1028F00057FF582011F08CFF3EE7FFF7B7FC4DE77C
:10290000006801400038024000140240000002400C
:102910000004024000080240000C024000B589B0EB
:102920000023039304930593069307930268154BC2
:102930009A4202D009B05DF804FB0021019103F531
:1029400068435A6C42F480125A645A6C02F4801242
:102950000192019A02911A6B42F020021A631B6BDA
:1029600003F020030293029B4FF46073039302234E
:102970000493032306930523079303A9024812F047
:102980007DF9D7E7005001400014024084B003688D
:10299000B3F1804F15D01F4A934220D01E4A934274
:1029A0002AD01E4A934218D1002303931C4B1A6C61
:1029B00042F480721A641B6C03F480730393039BCC
:1029C0000BE000230093164B1A6C42F001021A64CC
:1029D0001B6C03F001030093009B04B070470023BD
:1029E00001930F4B1A6C42F002021A641B6C03F045
:1029F00002030193019BF0E700230293084B5A6CFA
:102A000042F480325A645B6C03F480330293029B7D
:102A1000E3E700BF00040040004001400020004008
:102A20000038024000B589B0002303930493059356
:102A30000693079303681C4A934205D01B4A9342AE
:102A400019D009B05DF804FB00230193184B1A6BF1
:102A500042F001021A631B6B03F001030193019B17
:102A600004230393022304930323079303A9114828
:102A700012F004F9E5E7002302930D4B1A6B42F0C4
:102A800001021A631B6B03F001030293029B802374
:102A900003930223049306930923079303A905488C
:102AA00012F0ECF8CDE700BF0040014000200040EC
:102AB000003802400000024008B5FFF733FD08BDB2
:102AC00030B589B0044600230193214B1A6C42F0C3
:102AD00010021A641B6C03F010030193019B02A9FE
:102AE00003A814F019FC069BCBB914F005FC0346AF
:102AF000184AA2FB03239B0C013B1748174A0260AC
:102B000040F2E732C2604360002303618360836167
:102B100015F0EAFB054630B1284609B030BD14F087
:102B2000EBFB4300E4E70C4815F074FA0546002877
:102B3000F2D1362011F06CFE0F2C01D90125EBE704
:102B400000222146362011F02BFE054B1C60E3E7E6
:102B50000038024083DE1B43481100200010004073
:102B6000800000207047FEE7FEE7FEE7FEE77047C3
:102B700008B5C82011F0EEFD00222021034812F014
:102B800088F9082012F096F908BD00BF0010024035
:102B900008B5024815F087FA08BD00BF48110020AB
:102BA00008B5024813F05CFD08BD00BF9C0A002078
:102BB00008B5024813F0BAFF08BD00BFF00A0020B4
:102BC0000120704708B534F089F8162303604FF0F0
:102BD000FF3008BD08B54FF0FF31FFF7F3FFFEE708
:102BE00070B50C461646002506E0AFF3008021467E
:102BF00001F8010B01350C46B542F6DB304670BDDD
:102C000070B50C461646002504E014F8010BAFF32E
:102C100000800135B542F8DB304670BD4FF0FF3023
:102C200070474FF400534B600020704701207047FD
:102C30000020704708B503460B4A126842B10A4AA1
:102C4000106803446A46934206D8074A136008BDD9
:102C5000054A06491160F2E734F040F80C2303609E
:102C60004FF0FF30F3E700BF90110020284D012006
:102C7000704708B500F072FF00F0F4FE08BD08B51B
:102C800000F06EFF08BD0000024A0260024A0260C6
:102C9000704700BF1C7903080479030810B5044687
:102CA000044B0360044B0360042132F032FE2046E3
:102CB00010BD00BF1C7903080479030810B50D4B43
:102CC00018800D4B19800D4B5B688220984740F6A9
:102CD0001103984201D0012010BD094C074B23601D
:102CE0001B68822098472368DB6882209847002071
:102CF000F2E700BF94110020961100205000002040
:102D00009811002008B54FF4A071F020FFF7D6FF0E
:102D100008BD000030B583B00446424B1B681B69F8
:102D20008220984780B22080002870D03D4B1B68DD
:102D30005B6901AA0DF1060182209847BDF80430B5
:102D400040F67462934219D9ADF80420BDF80430FE
:102D5000B43B9BB2ADF80430C3F55C639BB2ADF8F5
:102D60000430314AA2FB0312D2080A2B0CD92F4B94
:102D70001B88934209D2013B9AB206E0B32BE5D8F7
:102D8000B423ADF80430E1E70022ADF80420BDF82B
:102D9000063040F6B8318B4213D8C3F571630E3359
:102DA000ADF80630BDF80610214BA3FB0103DB088C
:102DB0000E290CD91F490988994209D201398BB2D1
:102DC00006E0C3F56D630833ADF80630EAE700238B
:102DD000ADF806301846184909688B4219D989B2EE
:102DE0005B1A99B21546154B1B689A4215D99BB2CE
:102DF000D31A9BB21944052903DD0F4B18600F4B02
:102E00001D600D4B1B6863800C4B1B68A38003B0D7
:102E100030BD89B2C91A89B2E4E79BB29B1A9BB252
:102E2000E8E700BF98110020A38B2EBA961100206E
:102E300089888888941100209C110020A01100200E
:102E400030B583B00D4614466846FFF763FFBDF802
:102E5000003013B9002003B030BDBDF802302B6044
:102E6000BDF804302360024BB4221A600120F2E75F
:102E70000C00002008B510B102280BD008BD0B4A89
:102E800052F82020B2FA82F252090421084812F0C6
:102E900000F8F3E7054A52F82020B2FA82F252090C
:102EA0001021034811F0F5FFE8E700BFA41100204E
:102EB0000010024008B510B102280BD008BD0B4B22
:102EC00053F8203003B1012002460421084811F0D4
:102ED000E0FFF3E7054A52F820302BB10122102120
:102EE000034811F0D6FFE9E70022F8E7A41100201B
:102EF0000010024008B510B1022805D008BD042119
:102F0000044811F0CCFFF9E71021024811F0C7FF87
:102F1000F4E700BF0010024008B538B102280AD01B
:102F20000020012814BF0020012008BD042104480E
:102F300011F0A8FFF5E71021014811F0A3FFF0E719
:102F40000010024010B5002400E00134042C0EDC17
:102F5000E0B2FFF7E1FF0028F7D0054B53F824302B
:102F6000012BF2D0024B012243F82420EDE710BDE3
:102F7000A411002080F87810012380F87930704780
:102F800008B590F87A3023B1406803681B68984709
:102F900008BD0020FCE700207047000041640039B4
:102FA00018BF0121014B1970704700BFEF4001208D
:102FB0000020704708B5836B0BB10846984708BDE1
:102FC0004FF6FF70704708B5406803689B699847E3
:102FD00008BD000090F8782090F834309A420CD068
:102FE0000C4B1B78ABB90C4A11880C4B188810801D
:102FF0001980084B01221A707047064B1B7843B1A9
:10300000054A1188054B188810801980014B002251
:103010001A707047E8400120E6400120E44001209A
:1030200070477047034A0260034A0260034A026025
:10303000704700BFAC7A03087481030844AA0308F0
:1030400010B5044600F06AFE2368D3F88C300249BC
:103050002046984710BD00BF000000D008B50446C8
:103060000368D3F88030984723689B6F20469847C1
:1030700000F0E8F823681B6F204698472920FFF7E7
:10308000A1F800F0DFF823681B6F20469847F8E7A7
:1030900008B500F00FFE08BD08B500F011FE08BD30
:1030A00008B500F05BFE08BD08B500F0CDFD08BD19
:1030B00008B500F0D1FD08BD08B500F0D5FD08BD8C
:1030C00008B500F0DDFD08BD10B561B1C163026453
:1030D000003A18BF012207490A700268D2F88C2012
:1030E0001946904710BD044B044A40F2D2210448CF
:1030F00033F0F6FAEE4001202C79030864790308D6
:10310000B479030808B5094B1B888B4208D8084BD3
:103110001B88934204D8074B1980074B1A8008BDBF
:10312000064B074A9E21074833F0DAFAE4400120B3
:10313000E6400120EA400120EC400120FC79030830
:10314000607A0308B479030810B5044619F030FE1C
:103150002368D3F8AC302046984710BD08B519F065
:1031600078F808BD10B50446054B0360054B0360B5
:10317000054B03607C2132F0CCFB204610BD00BF24
:10318000AC7A03087481030844AA030808B5002236
:103190000121084615F0F6FC0B4B186040B10022E7
:1031A0000421012015F0ABFD084B186030B108BDBB
:1031B000074B084A2821084833F092FA074B054A82
:1031C0002C21054833F08CFAB8110020B4110020EE
:1031D0007C7B0308C87B0308F87B0308887C030812
:1031E00008B54FF0FF31024B186815F025FD08BDFA
:1031F000B811002008B5024B186815F051FD08BD44
:10320000B811002008B50021024B186815F014FD14
:1032100008BD00BFB811002008B5024B186815F0B2
:103220003FFD08BDB811002008B500231A46034928
:103230000348006815F0AEFD08BD00BF1000002077
:10324000B411002010B582B0074C00231A4601A922
:10325000206815F0E1FD4FF0FF33002201A920683E
:1032600015F0DAFD02B010BDB41100207047002047
:10327000704770477047002070470000044A0260A2
:10328000044AC260044AC260044A0260704700BF38
:103290002C7E03086CAB0308087E03081CAB0308F4
:1032A00008B5034B034A2221034833F019FA00BF43
:1032B000CC7C0308F07C0308307D030808B5034B81
:1032C000034A2721034833F00BFA00BFCC7C0308E4
:1032D000C07D0308307D030810B50446064B03602B
:1032E000064BC360064BC360064B0360442132F0BB
:1032F00010FB204610BD00BF2C7E03086CAB0308FA
:10330000087E03081CAB030838B50446084B40F898
:103310000C3B60600025257265722146054B41F823
:10332000203B012219F0A0FEE562204638BD00BF17
:103330001CAB03082C7E0308014B0360704700BFE1
:10334000907E03087047704770477047704770471A
:10335000014B0360704700BFA07E030870477047B1
:1033600000F598730868496803C3704710B50446B0
:10337000D0F8400158B10368DB68984738B1D4F8F9
:10338000400103689B6898470023C4F8403110BD92
:10339000034A0260034A0260034A0260704700BFAA
:1033A000E07E0308F0B40308A07E0308074A026029
:1033B000074AC0F84421074AC0F84421064A02607F
:1033C000064A0260064A0260704700BF4C7F03084D
:1033D000347F0308C87E0308E07E0308F0B40308C6
:1033E000A07E0308084A0260084A0260084AC0F842
:1033F0004421084AC0F84421074A0260074A026093
:10340000074A0260704700BFA07F03084C7F030893
:10341000347F0308C87E0308E07E0308F0B4030885
:10342000A07E0308024A0260024A0260704700BFA1
:10343000F47F0308907E0308024A0260024A026099
:10344000704700BF347F0308C87E0308012070471F
:1034500038207047C1EBC101C900083108447047EA
:10346000C1EBC101C9000831084470470120704711
:1034700041F60450704741F6045303FB01F1083153
:103480000844704741F6045303FB01F10831084436
:103490007047012070471020704709010831084427
:1034A0007047090108310844704708B50346416870
:1034B000C26801EB620012F0010F02D19B689847CD
:1034C00008BD4FEA620C51F80C209B68D358F6E710
:1034D00043684BB183680BB101207047C36813F098
:1034E000010F03D001207047002070470020704773
:1034F00010B50446034B0360042132F00AFA20465B
:1035000010BD00BFA07E030810B50446044B036045
:10351000044B0360142132F0FCF9204610BD00BFBB
:10352000F47F0308907E030810B50446034B036044
:10353000142132F0EEF9204610BD00BF907E030842
:1035400010B50446044B0360044B0360102132F0B5
:10355000E0F9204610BD00BF347F0308C87E030891
:1035600010B50446054B0360054B0360054B036033
:103570004FF4A27132F0CDF9204610BDE07E030871
:10358000F0B40308A07E030810B50446094B03609D
:10359000094BC0F84431094BC0F84431084B036073
:1035A000084B0360084B03604FF4AE7132F0B1F981
:1035B000204610BD4C7F0308347F0308C87E0308F3
:1035C000E07E0308F0B40308A07E030810B50446AB
:1035D0000A4B03600A4B03600A4BC0F844310A4BA4
:1035E000C0F84431094B0360094B0360094B036089
:1035F0004FF4AE7132F08DF9204610BDA07F030864
:103600004C7F0308347F0308C87E0308E07E03086C
:10361000F0B40308A07E030808B5084604F05EF87D
:1036200008BD08B504F05AF808BD10B50446D0F836
:10363000580110F00DFC20461FF05AFB10BD000091
:1036400010B50446024B036017F00AFD204610BD7A
:103650007080030810B50446044B036017F000FDAA
:103660004021204632F055F9204610BD70800308F5
:1036700010B50446024B036017F0F2FC204610BD63
:103680003C80030810B50446054B036017F0E8FCC6
:1036900041F60C51204632F03CF9204610BD00BFE7
:1036A0003C80030810B50446024B036017F0D8FCB9
:1036B000204610BD0880030810B50446044B036083
:1036C00017F0CEFC1821204632F023F9204610BD19
:1036D0000880030810B50446194B036000F58053B9
:1036E000184AC3F8802D184AC3F8802D174AC3F82A
:1036F000C42E174AC3F8C42E164AC3F8802D164AA2
:10370000C3F8802D154AC3F8802D154AC3F8382D0B
:1037100000F5E950183017F0A3FC2046114B40F893
:103720002C3F17F09DFC20460F4B40F8143F17F03C
:1037300097FC0E4B23600E4B2360204610BD00BF4C
:10374000A4800308A07F03084C7F0308347F03088C
:10375000C87E0308E07E0308F0B40308A07E0308D7
:10376000708003083C80030808800308F47F030886
:10377000907E03082DE9F04104460D46012806D04D
:103780001CB94FF6FF739D4277D0BDE8F0814FF62C
:10379000FF739942F4D1494E494B3360494B336032
:1037A000DFF864814046FFF7AFFD474F384627F00A
:1037B00039FA464B464A1A60C3F804809F60DE60BF
:1037C00000221A615A619A619A83DA831A845A84B0
:1037D0009A84DA841A8583F82A20DA621A8683F8B2
:1037E00034209A63DA631A645A6483F8482001210A
:1037F00083F8491083F84A2083F84B20DA64A3F851
:103800005020A3F85220A3F85420A3F8562083F8A0
:103810005820DA651A665A6683F8681083F86920BA
:1038200083F86A2083F86B1083F86C2083F86D208E
:1038300083F86E2083F86F2083F870205A6783F82E
:10384000782083F8792083F87A1083F87B10214858
:103850000360F020204E3080204E30804FF4A07066
:103860001F4E30801F4E30801F48027083F8341086
:103870001E4A1A601E4A1A6082E7144B1C4A1A60DC
:103880001A4A1A60124A1A601A4B1B4A1A601B4ADB
:103890001A600D4B1A4A1A601A4A1A601A4B1B4AD0
:1038A0001A601B4ADA601B4ADA601B4A1A60034B33
:1038B000044A1A60024A1A6067E700BF9C30002081
:1038C000047903081C79030864310020E4300020E7
:1038D00044AA0308F0400120E4400120EA4001200E
:1038E000E6400120EC400120E840012074810308FB
:1038F000AC7A0308140000204C8203087C7E030885
:1039000000B9030898B40308A03000202C7E0308F7
:103910006CAB0308087E03081CAB030810B5194CF8
:10392000194B236004F58053184AC3F8802D184AB8
:10393000C3F8802D174AC3F8C42E174AC3F8C42E03
:10394000164AC3F8802D164AC3F8802D154AC3F8CD
:10395000802D154AC3F8382D03F6385017F080FB38
:103960002046124B40F82C3F17F07AFB2046104BB4
:1039700040F8143F17F074FB0E4B23600E4B23608E
:1039800010BD00BFC0110020A4800308A07F030861
:103990004C7F0308347F0308C87E0308E07E0308D9
:1039A000F0B40308A07E0308708003083C8003087D
:1039B00008800308F47F0308907E030810B50446CE
:1039C0001B4B036000F580531A4AC3F8802D1A4A36
:1039D000C3F8802D194AC3F8C42E194AC3F8C42E5F
:1039E000184AC3F8802D184AC3F8802D174AC3F827
:1039F000802D174AC3F8382D00F5E950183017F01C
:103A00002FFB2046134B40F82C3F17F029FB204694
:103A1000114B40F8143F17F023FB104B2360104B61
:103A2000236041F6DC61204631F073FF204610BD73
:103A3000A4800308A07F03084C7F0308347F030899
:103A4000C87E0308E07E0308F0B40308A07E0308E4
:103A5000708003083C80030808800308F47F030893
:103A6000907E0308F0B583B000F036FA054600F00A
:103A700037FA01460024009423462246284622F0C5
:103A800005FE284B284A1A6020460FF0F1F8274817
:103A900022F064FD264B1B68BFF35B8F13F0010F10
:103AA00004D02448FFF7CCFA03B0F0BD204831F031
:103AB00032FF0028F5D0204C2046204B40F8143B24
:103AC000606004F12C07A7601D4EE66004F5EC551C
:103AD00025611C4B23601C4B236017F0C3FA1B4B62
:103AE0006361384617F0BEFA194BE362304617F0AF
:103AF000B9FA04F58053174AC3F8382D40363046DA
:103B000010F0A0F92246314628460FF07DFB2846EA
:103B100003F0E4FD104832F001FE054831F007FFE4
:103B2000BFE700BF54410120603100201400002095
:103B3000BC110020E4300020C0110020907E03085A
:103B4000F82E0020F47F0308A480030808800308EF
:103B50003C800308708003081D390008704700008E
:103B600008B50248FFF77AFA08BD00BFE43000202C
:103B700008B54FF6FF710120FFF7FCFD08BD08B541
:103B80004FF6FF710020FFF7F5FD08BD08B590F86E
:103B9000253013B103685B69984708BD0020704762
:103BA00081807047C18070470181704741817047B3
:103BB0007047704770477047704708B5B0F804C049
:103BC000A1EB0C01B0F806C0A2EB0C0203685B6D20
:103BD00012B209B2984708BD4FF6FF738381038480
:103BE00043841368C3611060704790F825201AB1B0
:103BF00090F8242002B11860704700207047B1F996
:103C00000430838001207047704780F82610704789
:103C100090F826007047B1F908C0B1F90A100022E7
:103C200002804280A0F804C0C18070470022028058
:103C300042808280C2807047014B0360704700BFA2
:103C40004081030841607047024B902283F858235B
:103C5000704700BF00E100E0024B4FF080729A60B5
:103C6000704700BF00E100E0044B4FF08072C3F8E2
:103C70008820BFF34F8FBFF36F8F704700E100E0E4
:103C8000094AD368C3F30A03013B9BB207490B807F
:103C90001169C1F30A010139054801801364536BAE
:103CA00043F001035363704700680140EA3100208C
:103CB000E8310020014BD3F8AC00704700680140A8
:103CC000024BC3F8AC1001225A62704700680140F1
:103CD000024A0260024A0260704700BF7481030812
:103CE00044AA030810B50446034B0360082131F0D1
:103CF00010FE204610BD00BF4081030810B50446E9
:103D0000044B0360044B03607C2131F002FE20462B
:103D100010BD00BF7481030844AA030838B50446E7
:103D200018F0EDFA23685D6E1EF01EFF0146204676
:103D3000A847054A2368D3F888500023A2F5163116
:103D40002046A84738BD00BF00B004D008B518F021
:103D5000BDFA08BD08B518F0C5FA08BD08B518F0D9
:103D60007EFA08BD08B518F0ECFB08BD08B518F0E0
:103D700070FA08BD704700002DE9F043079C00EB86
:103D80004101FF2B3AD0068804F4784204F4FC6920
:103D900004F01F0C6FEA030E5FFA8EFE06F47847FC
:103DA0000EFB07F703FB0277174D85FB07823A44AA
:103DB000D21122F4FF6222F0070217B206F4FC6867
:103DC00008FB0EF809FB038885FB08924244D211D8
:103DD00002F4FC623A4306F01F0606FB0EFE0CFBE3
:103DE00003EE85FB0E5CF444CCF3C41C42EA0C02E7
:103DF00020F8022B8142C6D8BDE8F08320F8024BA0
:103E00008142FBD8F8E700BF81808080144B1B689B
:103E10002BB310B5134B1B6C134A11888B420AD07D
:103E200012F026FF0E4B186803681B6A98470020A3
:103E3000FFF740F810BD0D4B198812F019FF084C20
:103E4000226892F86A30013382F86A30FFF7ECF9A1
:103E5000206818F0ADFF0020FFF70CF8EAE7704784
:103E6000F040012000680140EA310020E8310020E4
:103E7000024A0260024A0260704700BF4C82030897
:103E80007C7E030808B5032913D8DFE801F0020699
:103E90000A0E0EF055FF006808BD0EF051FF406895
:103EA000FAE70EF04DFF8068F6E70EF049FFC068B4
:103EB000F2E70020F0E7000010B50446044B036071
:103EC000044B0360042131F024FD204610BD00BFE7
:103ED0004C8203087C7E0308004870475882030820
:103EE0000C20704769B110B582B0002301938DF8A2
:103EF000033003689C680DF1030301AAA04702B0D8
:103F000010BD00207047C0897047008A7047C08884
:103F1000704780887047807A00F07F007047807A11
:103F2000C0097047806A7047704770477047704794
:103F300070470000014B0360704700BF988503087D
:103F400030B585B0044601816D460368D3F88430EE
:103F50000146284698473C3495E8070084E8070066
:103F600005B030BD30B585B0044641816D4603686B
:103F7000D3F884300146284698473C3495E807003A
:103F800084E8070005B030BD0022028042808280B4
:103F9000C280704780F83610704738B50446154621
:103FA00003681B6B984723685B6E29462046984739
:103FB00038BD0020704708B590F8253013B103686C
:103FC0005B69984708BD0022028042804FF6FF716E
:103FD0008180C18082607047806C704770470000AC
:103FE000044A0260044A0260044A4260044A426091
:103FF000704700BFE086030848B603084CA80308D2
:1040000044B5030808B50368DB6A984708BD08B5DE
:1040100003681B6B984708BD024A0260024A0260AF
:10402000704700BF14870308A8850308064A02608A
:10403000064A0260064A0260064A8262064A026036
:10404000064A0260704700BF50860308A0B203080A
:10405000C8AF030898850308B880030844B503086F
:1040600030B4094A0260094CC4650949C165094A6E
:10407000C265094DC562C462C162C262074901607E
:10408000026030BC704700BFC0850308A8B30308B6
:10409000B880030844B50308C0B003084CA803085F
:1040A00010B503464468C26804EB620012F0010FC9
:1040B00002D19B68984710BD4FEA620C54F80C205F
:1040C0009B68D358F6E743684BB183680BB1012076
:1040D0007047C36813F0010F03D001207047002020
:1040E000704700207047000010B50446034B036082
:1040F000082131F00EFC204610BD00BF9885030852
:1041000010B50446064B0360064B0360064B436044
:10411000064B4360402131F0FCFB204610BD00BF40
:10412000E086030848B603084CA8030844B5030812
:1041300010B50446084B0360084B0360084B03604E
:10414000084B8362084B0360084B03604C2131F03D
:10415000E0FB204610BD00BF50860308A0B2030854
:10416000C8AF030898850308B880030844B503085E
:1041700010B50446044B0360044B0360102131F07A
:10418000C8FB204610BD00BF14870308A88503089C
:1041900038B504460A4B03600A49C1650A4AC2653C
:1041A0000A4BC3650A4DC562C162C262C362094A55
:1041B000026003608C2131F0ACFB204638BD00BFAB
:1041C000C0850308A8B30308B880030844B50308F2
:1041D000C0B003084CA8030870B503685D6B124BB0
:1041E0001B68A3B104468EB2828D104909888A42A9
:1041F00013D213F812200E4B1B6853F822000368E9
:104200001B6B9847311A09B22046A84770BD094B6D
:10421000094A6C21094832F063FA094B064A6D21BC
:10422000064832F05DFA00BF484101204C410120B0
:1042300050410120488303088C830308C883030886
:10424000108403082DE9F84F0446F04B03601CF07E
:1042500087FF04F58053EE4AC3F8F42CED4AC3F807
:10426000F42CED4BC4F8AC3DEC4FC4F8D47DEC4ECF
:10427000C4F8AC6DEB4DC4F8AC5DC4F8643DC4F853
:104280008C7DC4F8646DC4F8645DDFF8B8C3C4F80D
:1042900050CD0CF1240BC4F858BDDFF8ACA3C4F822
:1042A00058ADDFF8A8E3C4F850EDDF4AC4F8502D4C
:1042B000DE49C4F8E01CDE48C4F8E00CC4F8E06C49
:1042C000C4F8E05CC4F8983CC4F8C07CC4F8986CAE
:1042D000C4F8985CC4F884CCC4F88CBCC4F88CAC2A
:1042E000C4F884ECC4F8842CC4F8141CC4F8140C6E
:1042F000C4F8146CC4F8145CC4F8CC3BC4F8F47B68
:10430000C4F8CC6BC4F8CC5BC4F8B8CBC4F8C0BB61
:10431000C4F8C0ABC4F8B8EBC4F8B82BC4F8481B59
:10432000C4F8480BC4F8486BC4F8485BC148C4F8EB
:10433000FC0AC149C4F8FC1AC4F8FC3AC4F8247B4E
:10434000C4F8FC6AC4F8FC5AC4F8B00AC4F8B01A3D
:10435000C4F8B03AC4F8D87AC4F8B06AC4F8B05A0D
:10436000C4F8640AC4F8641AC4F8643AC4F88C7ACD
:10437000C4F8646AC4F8645AB04AC4F8282ADFF85A
:10438000D092C4F8289ADFF8CC82C4F8288AC4F8FE
:10439000286AC4F8285AC4F8EC29C4F8EC99C4F87F
:1043A000EC89C4F8EC69C4F8EC59C4F8B029C4F835
:1043B000B099C4F8B089C4F8B069C4F8B059A04A3B
:1043C000C4F88429C4F88459C4F83C39C4F8647921
:1043D000C4F83C69C4F83C59C4F828C9C4F830B9D9
:1043E000C4F830A9C4F828E98F4AC4F828298F4AAC
:1043F000C4F8B8288E4AC4F8B828C4F8B868C4F815
:10440000B858C4F86C08C4F86C18C4F86C38C4F810
:104410009478C4F86C68C4F86C58C4F82008C4F8E0
:104420002018C4F82038C4F84878C4F82068C4F8C4
:104430002058C4F8D407C4F8D417C4F8D437C4F843
:10444000FC77C4F8D467C4F8D4577C4AC4F89827DA
:10445000C4F89897C4F89887C4F89867C4F8985730
:10446000C4F85C27C4F85C97C4F85C87C4F85C6740
:10447000C4F85C57C4F82027C4F82097C4F82087F4
:10448000C4F82067C4F820576D4AC4F8F426C4F86D
:10449000F456C4F8AC36C4F8D476C4F8AC66C4F8A4
:1044A000AC56C4F898C6C4F8A0B6C4F8A0A6C4F820
:1044B00098E65D4AC4F898265C4AC4F828265C4A07
:1044C000C4F82826C4F82866C4F82856C4F8DC05C1
:1044D000C4F8DC15C4F8DC35C4F80476C4F8DC652F
:1044E000C4F8DC55C4F89005C4F89015C4F89035AC
:1044F000C4F8B875C4F89065C4F89055C4F844057C
:10450000C4F84415C4F84435C4F86C75C4F844655F
:10451000C4F84455494AC4F80825C4F80895C4F8B5
:104520000885C4F80865C4F80855C4F8CC24C4F854
:10453000CC94C4F8CC84C4F8CC64C4F8CC54C4F88B
:104540009024C4F89094C4F89084C4F89064C4F89B
:1045500090543B4AC4F86424C4F86454C4F81C342E
:10456000C4F84474C4F81C64C4F81C54C4F808C4E7
:10457000C4F810B4C4F810A4C4F808E42A4AC4F873
:1045800008242A4AC4F89823294AC4F89823C4F86E
:104590009863C4F89853C4F84C03C4F84C13C4F897
:1045A0004C33C4F87473C4F84C63C4F84C53C4F867
:1045B0000003C4F80013C4F80033C4F82873C4F827
:1045C0000063C4F80053C4F8B402C4F8B412C4F8C9
:1045D000B432C4F8DC72C4F8B462C4F8B452174BF5
:1045E000C4F87832C4F87892C4F87882C4F8786253
:1045F000C4F87852C4F83C32C4F83C92C4F83C8207
:10460000C4F83C62C4F83C5226E000BF2C87030883
:1046100014870308A8850308C8AF03089885030812
:10462000B880030844B5030820810308CCAD030813
:10463000F8AC030850860308A0B2030830B303089F
:104640004CA8030890AB0308408103085481030879
:104650002CB2030844AE0308C4F80032C4F8009238
:10466000C4F80082C4F80062C4F80052134AC4F8C7
:10467000D421C4F8D45104F1E00017F061F9104BD3
:10468000C4F89830C4F8CC70C4F89890C4F89880F6
:10469000C4F89860C4F898500A4BE366E666E5668D
:1046A000094B236426642564084B2360084B236070
:1046B000024A626065602046BDE8F88F4CA8030896
:1046C00014B40308A8B3030858B00308E08603082D
:1046D00048B6030810B50446FFF7B4FD41F604518F
:1046E000204631F016F9204610BD00002DE9F04FAC
:1046F000ADF5257D04461FF0B7FEB64B23600025BF
:10470000E5632746B44B47F8403B4FF0260B5A462B
:104710002946384632F0E9F9DFF8E892C4F84090CB
:10472000BD80FD803D817D81BD81FD813D827D8299
:104730007D61BD61FD613D847D8487F824504FF02B
:10474000010887F82580DFF8C0A2C4F840A0A34B79
:104750002364FF2687F82660BD6204F16C034FF6E0
:10476000FF77ADF8B0705A4629460393184632F0E9
:10477000BCF9C4F86C9003988580C580058145819B
:104780008581C5810582458245618561C561058454
:10479000458480F8245080F82580C4F86CA0904BA4
:1047A000E366BDF8B030C38480F828602CA91BF004
:1047B000DAFC04F198030E9318461BF00BFE04F18B
:1047C000E0030893184617F0F7F904F5EA731A4660
:1047D0000493C4F8D491A4F8D851A4F8DA51A4F8F9
:1047E000DC51A4F8DE51A4F8E051A4F8E251A4F899
:1047F000E451A4F8E651C4F8E851C4F8EC51C4F807
:10480000F051A4F8F451A4F8F65183F8245083F839
:104810002580744BC4F8D431956204F500731A9363
:1048200018461BF079FC04F50F731B9318461BF018
:1048300073FC04F51E731C9318461BF06DFC04F505
:104840002D765A462946304632F04FF9C4F8B492D4
:10485000B580F58035817581B581F58135827582A8
:104860007561B561F5613584758486F8245086F8E4
:104870002580C4F8B4A25C4BC4F8B4325B4AB2627F
:10488000B7853563B58686F8367086F8375086F872
:10489000385086F83950B587F587A6F84070A6F8E5
:1048A000427075645249C4F8B4125248C4F8B40254
:1048B000C4F8FC5204F540765A462946304632F098
:1048C00014F9C4F80093B580F58035817581B58100
:1048D000F581358275827561B561F56135847584C0
:1048E00086F8245086F82580C4F800A33E4BC4F80F
:1048F00000333E4AB262B7853563B58686F83670B6
:1049000086F8375086F8385086F83950B587F587DD
:10491000A6F84070A6F8427075643549C4F80013D3
:104920003448C4F80003C4F8485304F553765A4693
:104930002946304632F0D9F8C4F84C93B580F5805A
:1049400035817581B581F581358275827561B56175
:10495000F5613584758486F8245086F82580C4F87E
:104960004CA3214BC4F84C33204AB262B78535635F
:10497000B58686F8367086F8375086F8385086F84F
:104980003950B587F587A6F84070A6F8427075646F
:104990001749C4F84C131748C4F84C03C4F894538F
:1049A00004F566730F93184619F010FB04F5816344
:1049B0001A460D93104BC4F8083495800F4BC4F879
:1049C00008340F4B1B6893F85820FAB1D86CF0B933
:1049D0001CE000BFE08603082C87030858B00308DA
:1049E000A8B303084CA80308C8AF030898850308B8
:1049F000A0B20308508603082081030854810308ED
:104A0000F040012044B50308B880030898680368A3
:104A1000DB6A9847B0FA80F67609B34B1B68D86C0E
:104A200030B10368DB6A9847002808BF46F00106EA
:104A3000002E00F0CB86AD4B0D9A93600026D66019
:104A4000D560AB4BC4F808342433936004F21C43A4
:104A50001D460A934FF0260A52463146184632F058
:104A600044F8DFF8AC92C4F81C94AE80EE802E813E
:104A70006E81AE81EE812E826E826E61AE61EE61DC
:104A80002E846E8485F824604FF0010885F8258017
:104A9000984AC4F81C24DFF87CB2C4F81CB49649C8
:104AA000A9624FF6FF77AF852E63AE8685F8367024
:104AB00085F8376085F8386085F83960AE87EE870D
:104AC000A5F84070A5F842706E6404F264431A467B
:104AD0000593C4F86494A4F86864A4F86A64A4F81C
:104AE0006C64A4F86E64A4F87064A4F87264A4F80A
:104AF0007464A4F87664C4F87864C4F87C64C4F878
:104B00008064A4F88464A4F8866483F8246083F83D
:104B100025807A4BC4F86434966204F592631D9341
:104B200018461BF0F9FA04F2CC431E9318461BF00A
:104B3000F3FA04F5A1631F9318461BF0EDFA04F293
:104B4000445552463146284631F0CFFFC4F84495CB
:104B5000AE80EE802E816E81AE81EE812E826E82DD
:104B60006E61AE61EE612E846E8485F8246085F8F6
:104B70002580604AC4F84425C4F844B55E49A9625A
:104B8000AF852E63AE8685F8367085F8376085F878
:104B9000386085F83960AE87EE87A5F84070A5F8D3
:104BA00042706E64564BC4F844355648C4F8440508
:104BB000C4F88C6504F5B26552463146284631F09A
:104BC00094FFC4F89095AE80EE802E816E81AE8108
:104BD000EE812E826E826E61AE61EE612E846E84F5
:104BE00085F8246085F82580424AC4F89025C4F8E9
:104BF00090B54149A962AF852E63AE8685F83670BF
:104C000085F8376085F8386085F83960AE87EE87BB
:104C1000A5F84070A5F842706E64394BC4F8903521
:104C20003848C4F89005C4F8D86504F2DC555246FB
:104C30003146284631F059FFC4F8DC95AE80EE804D
:104C40002E816E81AE81EE812E826E826E61AE61AA
:104C5000EE612E846E8485F8246085F82580254ACF
:104C6000C4F8DC25C4F8DCB52349A962AF852E63FE
:104C7000AE8685F8367085F8376085F8386085F837
:104C80003960AE87EE87A5F84070A5F842706E6473
:104C90001B4BC4F8DC351B48C4F8DC05C4F824669B
:104CA00004F5C5631293184619F090F904F5D3631F
:104CB0001A461093144BC4F898369680134BC4F8D8
:104CC0009836094B1B6893F858200AB1D86C00B984
:104CD00098680368DB6A9847B0FA80F56D09024B63
:104CE0001B68D86CF8B117E0F04001204081030840
:104CF00090AB0308B8800308988503084CA8030804
:104D0000A0B20308508603082081030854810308D9
:104D100044B50308C8AF03080368DB6A9847002856
:104D200008BF45F00105002D00F05685B74B109ADD
:104D300093600025D560D660B54BC4F8983624330F
:104D4000936004F2AC684FF0260B5A462946404661
:104D500031F0CBFEDFF8E092C4F8AC96A8F804502E
:104D6000A8F80650A8F80850A8F80A50A8F80C505F
:104D7000A8F80E50A8F81050A8F81250C8F814500F
:104D8000C8F81850C8F81C50A8F82050A8F82250AD
:104D900088F824504FF0010A88F825A09D4BC4F8EC
:104DA000AC369D4AC4F8AC269C49C8F828104FF68A
:104DB000FF77A8F82C70C8F83050A8F8345088F85D
:104DC000367088F8375088F8385088F83950A8F885
:104DD0003C50A8F83E50A8F84070A8F84270C8F8B7
:104DE000445004F2F4600690C4F8F4968580C580BF
:104DF000058145818581C581058245824561856141
:104E0000C5610584458480F8245080F825A0844B32
:104E1000C4F8F436856204F5E46020901BF07CF958
:104E200004F25C7021901BF077F904F5F360229096
:104E30001BF072F904F2D4765A462946304631F016
:104E400054FEC4F8D497B580F58035817581B5815D
:104E5000F581358275827561B561F561358475843A
:104E600086F8245086F825A06A4BC4F8D4376A4ADD
:104E7000C4F8D4276949B162B7853563B58686F829
:104E8000367086F8375086F8385086F83950B5872E
:104E9000F587A6F84070A6F8427075646148C4F8BA
:104EA000D407614EC4F8D467C4F81C5804F50266F0
:104EB0005A462946304631F018FEC4F82098B5808D
:104EC000F58035817581B581F58135827582756191
:104ED000B561F5613584758486F8245086F825A07F
:104EE0004C4BC4F820384C4AC4F820284B49B162D6
:104EF000B7853563B58686F8367086F8375086F8FC
:104F0000385086F83950B587F587A6F84070A6F86E
:104F1000427075644348C4F82008434EC4F82068C2
:104F2000C4F8685804F66C065A462946304631F0F3
:104F3000DCFDC4F86C98B580F58035817581B5814C
:104F4000F581358275827561B561F5613584758449
:104F500086F8245086F825A02E4BC4F86C382E4ACB
:104F6000C4F86C282D49B162B7853563B58686F8DB
:104F7000367086F8375086F8385086F83950B5873D
:104F8000F587A6F84070A6F8427075642548C4F805
:104F90006C08254EC4F86C68C4F8B45804F6B8031D
:104FA0001693184619F012F804F628131A461193AE
:104FB0001E4BC4F8283995801D4BC4F828391D4B69
:104FC0001B6893F858200AB1D86C00B99868036838
:104FD000DB6A9847B0FA80F67609164B1B68D86CE6
:104FE00030B10368DB6A9847002808BF46F0010625
:104FF000002E00F0F783054B119A93600026D660CF
:10500000D560034BC4F82839243317E040810308E6
:1050100090AB0308B8800308C8AF0308988503085D
:105020004CA80308A0B20308508603082081030897
:1050300054810308F040012044B50308936004F64E
:105040003C131D460B934FF0260B5A46314618462B
:1050500031F04BFDDFF84493C4F83C99AE80EE800C
:105060002E816E81AE81EE812E826E826E61AE6186
:10507000EE612E846E8485F824604FF0010A85F875
:1050800025A0BB4AC4F83C29BA49C4F83C19BA481F
:10509000A8624FF6FF77AF852E63AE8685F836702F
:1050A00085F8376085F8386085F83960AE87EE8717
:1050B000A5F84070A5F842706E6404F684131A4691
:1050C0000793C4F88499A4F88869A4F88A69A4F8B5
:1050D0008C69A4F88E69A4F89069A4F89269A4F880
:1050E0009469A4F89669C4F89869C4F89C69C4F8EE
:1050F000A069A4F8A469A4F8A66983F8246083F8D9
:1051000025A09E4BC4F88439966204F51B63239353
:1051100018461BF001F804F6EC13249318461AF015
:10512000FBFF04F62823259318461AF0F5FF04F632
:1051300064255A463146284631F0D7FCC4F8649AB3
:10514000AE80EE802E816E81AE81EE812E826E82E7
:105150006E61AE61EE612E846E8485F8246085F800
:1051600025A0834AC4F8642A8249C4F8641A824894
:10517000A862AF852E63AE8685F8367085F83760F5
:1051800085F8386085F83960AE87EE87A5F84070FD
:10519000A5F842706E647A4BC4F8643A794DC4F84D
:1051A000645AC4F8AC6A04F52B655A463146284661
:1051B00031F09BFCC4F8B09AAE80EE802E816E81F7
:1051C000AE81EE812E826E826E61AE61EE612E84C2
:1051D0006E8485F8246085F825A0654AC4F8B02A55
:1051E0006449C4F8B01A6448A862AF852E63AE86DD
:1051F00085F8367085F8376085F8386085F839604D
:10520000AE87EE87A5F84070A5F842706E645C4BDF
:10521000C4F8B03A5B4DC4F8B05AC4F8F86A04F662
:10522000FC255A463146284631F05FFCC4F8FC9A0A
:10523000AE80EE802E816E81AE81EE812E826E82F6
:105240006E61AE61EE612E846E8485F8246085F80F
:1052500025A0474AC4F8FC2A4649C4F8FC1A464827
:10526000A862AF852E63AE8685F8367085F8376004
:1052700085F8386085F83960AE87EE87A5F840700C
:10528000A5F842706E643E4BC4F8FC3A3D4DC4F83C
:10529000FC5AC4F8446B04F648331793184618F0C8
:1052A00095FE04F6B8331A461393374BC4F8B83B4F
:1052B0009680364BC4F8B83B354B1B6893F85820A2
:1052C0000AB1D86C00B998680368DB6A9847B0FAED
:1052D00080F56D092E4B1B68D86C30B10368DB6A12
:1052E0009847002808BF45F00105002D00F0808296
:1052F000284B139A93600025D560D660264BC4F8DE
:10530000B83B2433936004F6CC3A26222946504613
:1053100031F0EBFB214BC4F8CC3BAAF80450AAF8BF
:105320000650AAF80850AAF80A50AAF80C50AAF891
:105330000E50AAF81050AAF81250CAF81450CAF821
:105340001850CAF81C50AAF82050AAF822508AF81F
:10535000245001238AF82530054BC4F8CC3B054B7B
:10536000C4F8CC3B044BCAF828304FF6FF7317E063
:10537000B8800308C8AF0308988503084CA8030841
:10538000A0B2030850860308208103085481030853
:10539000F04001204081030890AB030844B50308A6
:1053A000AAF82C30CAF83050AAF834508AF83630AF
:1053B0008AF837508AF838508AF83950AAF83C50A1
:1053C000AAF83E50AAF84030AAF84230CAF8445031
:1053D00004F614431893184618F0F8FD04F68443B5
:1053E0001A461493BD4BC4F8843C9580BC4BC4F85A
:1053F000843CBC4B1B6893F858200AB1D86C00B9A8
:1054000098680368DB6A9847B0FA80F67609B54B6E
:105410001B68D86C30B10368DB6A9847002808BF66
:1054200046F00106002E00F0E981AF4B149A93601C
:105430000026D660D560AD4BC4F8843C243393601D
:1054400004F6984926223146484631F04EFBA84BD7
:10545000C4F8983CA9F80460A9F80660A9F80860A7
:10546000A9F80A60A9F80C60A9F80E60A9F8106004
:10547000A9F81260C9F81460C9F81860C9F81C606E
:10548000A9F82060A9F8226089F82460012389F82E
:105490002530984BC4F8983C974BC4F8983C974BF0
:1054A000C9F828304FF6FF73A9F82C30C9F83060DE
:1054B000A9F8346089F8363089F8376089F838609F
:1054C00089F83960A9F83C60A9F83E60A9F8403035
:1054D000A9F84230C9F8446004F54E6319931846A0
:1054E00018F074FD04F555631A4615937B4BC4F808
:1054F000503D96807A4BC4F8503D7A4B1B6893F828
:1055000058200AB1D86C00B998680368DB6A9847DC
:10551000B0FA80F56D09734B1B68D86C30B1036825
:10552000DB6A9847002808BF45F00105002D00F010
:105530006B816D4B159A93600025D560D6606B4BDF
:10554000C4F8503D2433936004F664531E460C9314
:1055500026222946184631F0C8FA654AC4F8642D57
:105560003346B580F58035817581B581F581358209
:1055700075827561B561F5613584758486F824504E
:105580004FF0010186F825105A49C4F8641D5A48A5
:10559000C4F8640D594FB7624FF6FF769E851D63C0
:1055A0009D8683F8366083F8375083F8385083F847
:1055B00039509D87DD87A3F84060A3F842605D64A1
:1055C00004F6AC5B26222946584631F08EFA484A4A
:1055D000C4F8AC2DABF80450ABF80650ABF808504B
:1055E000ABF80A50ABF80C50ABF80E50ABF81050BB
:1055F000ABF81250CBF81450CBF81850CBF81C5025
:10560000ABF82050ABF822508BF824504FF0010338
:105610008BF825303749C4F8AC1D3748C4F8AC0DB9
:10562000CBF82870ABF82C60CBF83050ABF8345086
:105630008BF836608BF837508BF838508BF8395030
:10564000ABF83C50ABF83E50ABF84060ABF8426072
:10565000CBF844502DAB2A4A2D922E952AAA93E8D6
:10566000030082E8030004F580532649C3F8F41CC4
:105670002549C3F8F41CC3F8F84C03F6FC4392E840
:10568000030083E803004FF4616104F6E4601BF05B
:105690005DFD04F14006236C1B6B2946304698479C
:1056A000236C5B6B294630469847236C9B6BF0213B
:1056B00030469847236CDB6B4FF4A0713046984717
:1056C0004FF07F43A366231D31460993184615F01A
:1056D000A9FE04F16C06E36E1B6B17E02081030842
:1056E00054810308F04001204081030890AB030877
:1056F00044B50308B8800308C8AF030898850308B9
:10570000E16E0008A885030814870308294630467F
:105710009847E36E5B6B2946304698470823ADF8FF
:10572000BC302FA903981AF01EFD3146099815F0D8
:1057300079FE04F19805D4F898301B6B2121284696
:105740009847D4F898305B6B40F20111284698478F
:105750000323ADF8C0300223ADF8C43031AA30A91C
:1057600028461AF00AFB32973B23ADF8CC30A4F858
:10577000D0300E9B198F2A4B1B88994264D2294B3B
:105780001B68002B46D013F81120274B1B6853F8D9
:105790002270264B18680DF0ABFA03903B689B6BA8
:1057A0003846984706463B689B6C039938469847AD
:1057B00016FB00F6B6B23B685B6A03993846984719
:1057C00016FA80F00E9BA3F8460041E0184B194AE8
:1057D0002C21194830F084FF154B164A2C2116480D
:1057E00030F07EFF124B134A2C21134830F078FF23
:1057F0000F4B104A2C21104830F072FF0C4B0D4A11
:105800002C210D4830F06CFF094B0A4A2C210A4824
:1058100030F066FF094B0A4A6C210A4830F060FFFD
:105820004C410120484101205041012054410120B8
:1058300050840308B0840308EC84030848830308F9
:105840008C830308C883030800230E9AA2F846300D
:105850004FF0FF33C4F8D430C4F8D83004F5E75320
:1058600014330393C4F8C0302946099815F0DAFDC3
:1058700004F1E00215460E92D4F8E0301B6B0021D3
:1058800010469847D4F8E0305B6B5521284698477E
:105890000623ADF8D0300723ADF8D43035AA34A9AB
:1058A000089D284616F026FA8C225021284616F02C
:1058B000CFF83221284616F040F83221284616F05B
:1058C000C5F8F023A4F8DC31AC23A4F8DE3104F5EC
:1058D0000077D4F800321B6BC22138469847D4F8C1
:1058E00000325B6B6121384698470025ADF8D850EF
:1058F0004FF00102ADF8DC200926ADF8E06039ABCD
:10590000ADF8E460009338A90B4637A90A4636A9DA
:105910001A981AF06BFBA4F83852A4F83A52039B79
:10592000C4F828323946049815F07CFD04F50F7749
:10593000D4F83C321B6BC22138469847D4F83C322D
:105940005B6B3D2138469847ADF8E8504FF00102B7
:10595000ADF8EC20ADF8F0603DABADF8F46000932D
:105960003CA90B463BA90A463AA91B981AF03EFBF4
:10597000A4F87452A4F87652039BC4F864323946F2
:10598000049815F04FFD04F51E77D4F878321B6BA0
:10599000C22138469847D4F878325B6B19213846D3
:1059A0009847ADF8F8504FF00102ADF8FC20ADF883
:1059B000006141ABADF80461009340AA13463FAAD1
:1059C0003EA91C981AF012FBA4F8B052A4F8B252E7
:1059D000039BC4F8A0323946049815F023FD04F562
:1059E0002D76D4F8B4321B6B0A2130469847D4F890
:1059F000B4325B6B6821304698474FF0FF33C4F8F0
:105A0000E432A4F8E85226ADD4F8B432D3F88430A6
:105A100031462846984704F53C7395E8070083E82B
:105A2000070004F6F455C74B42932623ADF80C311A
:105A3000C54B1B68002B01F07A80C44B1B88262BBA
:105A400041F27B802621C24B18680DF051F90346C4
:105A5000C04A0A21284620F08BFBC4F8FC5230468D
:105A600019F0B2FDB74F44972723ADF8143144A97C
:105A7000304619F0C9FD44973146049815F0D2FC20
:105A800004F54075D4F800331B6B1621284698475F
:105A9000D4F800335B6B4421284698474FF0FF331E
:105AA000C4F830330023A4F8343326AED4F80033DE
:105AB000D3F8843029463046984704F54F7396E86A
:105AC000070083E8070004F6086646972823ADF828
:105AD0001C319D4B1B68002B01F035809B4B1B88B4
