:020000040800F2
:1000000000000320890E00089D2E00089F2E000886
:10001000A12E0008A32E0008A52E00080000000055
:1000200000000000000000000000000091BC01087A
:10003000A72E00080000000031BD01086DB40108C2
:10004000D90E0008D90E0008D90E0008D90E0008F4
:10005000D90E0008D90E0008D90E0008D90E0008E4
:10006000D90E0008A92E0008D90E0008D90E0008E4
:10007000D90E0008D90E0008D90E0008D90E0008C4
:10008000D90E0008D90E0008D90E0008D90E0008B4
:10009000D90E0008D90E0008D90E0008D90E0008A4
:1000A000D90E0008D90E0008D90E0008D90E000894
:1000B000D90E0008D90E0008D90E0008D90E000884
:1000C000D90E0008D90E0008D90E0008D90E000874
:1000D000D90E0008D90E0008D90E0008D90E000864
:1000E000D90E0008D90E0008D90E0008D90E000854
:1000F000D90E0008D90E0008D90E0008D90E000844
:10010000D90E0008D90E0008D90E0008D90E000833
:10011000D90E0008D90E0008C92E0008D90E000813
:10012000D90E0008C1270008D90E0008D90E000812
:10013000D90E0008D90E0008D90E0008D90E000803
:10014000D90E0008D90E0008D90E0008D90E0008F3
:10015000D90E0008D90E0008D90E0008D90E0008E3
:10016000D92E0008D90E0008D90E0008D90E0008B3
:10017000D90E0008D90E0008D90E000800000000B2
:10018000D90E0008D90E0008D90E0008D90E0008B3
:10019000D90E0008D90E0008D90E0008D90E0008A3
:0C01A000E92E0008D90E0008D90E000856
:1001B00010B5054C237833B9044B13B10448AFF3A1
:1001C00000800123237010BD780100200000000092
:1001D0005CA2030808B5034B1BB103490348AFF306
:1001E000008008BD000000007C0100205CA2030824
:1001F0004B1C012B98BF70472DE9F003911C9B0805
:10020000B1F80480B1F802900A8831F802CC804439
:10021000814402448444D9F80070D8F8006015681D
:10022000DCF80040C9F80060C8F80070CCF8005055
:100230001460D9F80470D8F804605568DCF80440FC
:10024000C9F80460C8F80470CCF804505460083150
:10025000013BD5D1BDE8F00370474B1C012B98BF83
:1002600070472DE9F003911C9B08B1F80480B1F8A8
:1002700002900A8831F802CC00EB580800EB5909CB
:1002800000EB520200EB5C0CD9F80070D8F800606B
:100290001568DCF80040C9F80060C8F80070CCF8B8
:1002A000005014600831013BDFD1BDE8F003704716
:1002B00001F0FF01102A2BDB10F0070F08D010F817
:1002C000013B013A8B422DD010F0070F42B3F6D11B
:1002D000F0B441EA012141EA014122F007047FF034
:1002E00000070023F0E80256083C85EA010586EA8B
:1002F000010685FA47F5A3FA87F586FA47F6A5FAC7
:1003000087F68EB9EED1F0BC01F0FF0102F00702D2
:1003100032B110F8013B013A83EA010313B1F8D17D
:100320000020704701387047002D06BF354603385E
:10033000073815F0010F07D1013015F4807F02BF97
:10034000013015F4C03F0130F0BC0138704700BFE8
:1003500081F0004102E000BF83F0004330B54FEA76
:1003600041044FEA430594EA050F08BF90EA020FE3
:100370001FBF54EA000C55EA020C7FEA645C7FEA76
:10038000655C00F0E2804FEA5454D4EB5555B8BF99
:100390006D420CDD2C4480EA020281EA030382EA0A
:1003A000000083EA010180EA020281EA0303362D9C
:1003B00088BF30BD11F0004F4FEA01314FF4801C6F
:1003C0004CEA113102D0404261EB410113F0004F81
:1003D0004FEA03334CEA133302D0524263EB430338
:1003E00094EA050F00F0A780A4F10104D5F1200ED6
:1003F0000DDB02FA0EFC22FA05F2801841F1000131
:1004000003FA0EF2801843FA05F359410EE0A5F104
:1004100020050EF1200E012A03FA0EFC28BF4CF035
:10042000020C43FA05F3C01851EBE37101F00045EB
:1004300007D54FF0000EDCF1000C7EEB00006EEBF8
:100440000101B1F5801F1BD3B1F5001F0CD3490882
:100450005FEA30004FEA3C0C04F101044FEA4452D9
:1004600012F5800F80F09A80BCF1004F08BF5FEA60
:10047000500C50F1000041EB045141EA050130BD40
:100480005FEA4C0C404141EB0101013C28BFB1F552
:10049000801FE9D291F0000F04BF01460020B1FA9D
:1004A00081F308BF2033A3F10B03B3F120020CDA70
:1004B0000C3208DD02F1140CC2F10C0201FA0CF04E
:1004C00021FA02F10CE002F11402D8BFC2F1200CB3
:1004D00001FA02F120FA0CFCDCBF41EA0C01904069
:1004E000E41AA2BF01EB0451294330BD6FEA0404B2
:1004F0001F3C1CDA0C340EDC04F11404C4F120029D
:1005000020FA04F001FA02F340EA030021FA04F3AE
:1005100045EA030130BDC4F10C04C4F1200220FA05
:1005200002F001FA04F340EA0300294630BD21FA43
:1005300004F0294630BD94F0000F83F4801306BF09
:1005400081F480110134013D4EE77FEA645C18BFFD
:100550007FEA655C29D094EA050F08BF90EA020F94
:1005600005D054EA000C04BF1946104630BD91EA8C
:10057000030F1EBF0021002030BD5FEA545C05D18F
:100580004000494128BF41F0004130BD14F58004CE
:100590003CBF01F5801130BD01F0004545F0FE4142
:1005A00041F470014FF0000030BD7FEA645C1ABF77
:1005B000194610467FEA655C1CBF0B46024650EAAE
:1005C000013406BF52EA033591EA030F41F40021DA
:1005D00030BD00BF90F0000F04BF0021704730B560
:1005E0004FF4806404F132044FF000054FF0000135
:1005F00050E700BF90F0000F04BF0021704730B5F6
:100600004FF4806404F1320410F0004548BF4042CA
:100610004FF000013EE700BF42004FEAE2014FEA1F
:1006200031014FEA02701FBF12F07F4393F07F4FFA
:1006300081F06051704732F07F4208BF704793F0FD
:100640007F4F04BF41F40021704730B54FF4607410
:1006500001F0004521F000411CE700BF50EA010213
:1006600008BF704730B54FF000050AE050EA0102BC
:1006700008BF704730B511F0004502D5404261EB2C
:1006800041014FF4806404F132045FEA915C3FF46D
:10069000D8AE4FF003025FEADC0C18BF03325FEA0A
:1006A000DC0C18BF033202EBDC02C2F1200300FABB
:1006B00003FC20FA02F001FA03FE40EA0E0021FAE0
:1006C00002F11444BDE600BF70B54FF0FF0C4CF4CE
:1006D000E06C1CEA11541DBF1CEA135594EA0C0F80
:1006E00095EA0C0F00F0DEF82C4481EA030621EABB
:1006F0004C5123EA4C5350EA013518BF52EA0335F6
:1007000041F4801143F4801338D0A0FB02CE4FF0A7
:100710000005E1FB02E506F00042E0FB03E54FF0D7
:100720000006E1FB03569CF0000F18BF4EF0010ECF
:10073000A4F1FF04B6F5007F64F5407404D25FEACB
:100740004E0E6D4146EB060642EAC62141EA55517E
:100750004FEAC52040EA5E504FEACE2EB4F1FD0CC0
:1007600088BFBCF5E06F1ED8BEF1004F08BF5FEA3E
:10077000500E50F1000041EB045170BD06F00046F0
:1007800046EA010140EA020081EA0301B4EB5C049D
:10079000C2BFD4EB0C0541EA045170BD41F4801195
:1007A0004FF0000E013C00F3AB8014F1360FDEBFBA
:1007B000002001F0004170BDC4F10004203C35DA96
:1007C0000C341BDC04F11404C4F1200500FA05F319
:1007D00020FA04F001FA05F240EA020001F00042BA
:1007E00021F0004110EBD37021FA04F642EB060130
:1007F0005EEA430E08BF20EAD37070BDC4F10C045A
:10080000C4F1200500FA04F320FA05F001FA04F21D
:1008100040EA020001F0004110EBD37041F1000109
:100820005EEA430E08BF20EAD37070BDC4F1200514
:1008300000FA05F24EEA020E20FA04F301FA05F27C
:1008400043EA020321FA04F001F0004121FA04F224
:1008500020EA020000EBD3705EEA430E08BF20EAF4
:10086000D37070BD94F0000F0FD101F0004640002E
:1008700041EB010111F4801F08BF013CF7D041EAB0
:10088000060195F0000F18BF704703F000465200B4
:1008900043EB030313F4801F08BF013DF7D043EA85
:1008A0000603704794EA0C0F0CEA135518BF95EA3B
:1008B0000C0F0CD050EA410618BF52EA4306D1D1C2
:1008C00081EA030101F000414FF0000070BD50EAE1
:1008D000410606BF1046194652EA430619D094EA6B
:1008E0000C0F02D150EA013613D195EA0C0F05D155
:1008F00052EA03361CBF104619460AD181EA0301A9
:1009000001F0004141F0FE4141F470014FF0000060
:1009100070BD41F0FE4141F4780170BD70B54FF0FB
:10092000FF0C4CF4E06C1CEA11541DBF1CEA13557B
:1009300094EA0C0F95EA0C0F00F0A7F8A4EB05045D
:1009400081EA030E52EA03354FEA013100F0888054
:100950004FEA03334FF0805545EA131343EA12631D
:100960004FEA022245EA111545EA10654FEA0026D2
:100970000EF000419D4208BF964244F1FD0404F58B
:10098000407402D25B084FEA3202B61A65EB0305E7
:100990005B084FEA32024FF480104FF4002CB6EBA4
:1009A000020E75EB030E22BFB61A754640EA0C0024
:1009B0005B084FEA3202B6EB020E75EB030E22BF64
:1009C000B61A754640EA5C005B084FEA3202B6EBA5
:1009D000020E75EB030E22BFB61A754640EA9C0064
:1009E0005B084FEA3202B6EB020E75EB030E22BF34
:1009F000B61A754640EADC0055EA060E18D04FEAF2
:100A0000051545EA16754FEA06164FEAC30343EA91
:100A100052734FEAC2025FEA1C1CC0D111F4801F5E
:100A20000BD141EA00014FF000004FF0004CB6E757
:100A300011F4801F04BF01430020B4F1FD0C88BFF6
:100A4000BCF5E06F3FF6AFAEB5EB030C04BFB6EB01
:100A5000020C5FEA500C50F1000041EB045170BDF4
:100A60000EF0004E4EEA113114EB5C04C2BFD4EB21
:100A70000C0541EA045170BD41F480114FF0000EA5
:100A8000013C90E645EA060E8DE60CEA135594EA21
:100A90000C0F08BF95EA0C0F3FF43BAF94EA0C0F24
:100AA0000AD150EA01347FF434AF95EA0C0F7FF499
:100AB00025AF104619462CE795EA0C0F06D152EAED
:100AC00003353FF4FDAE1046194622E750EA4106D1
:100AD00018BF52EA43067FF4C5AE50EA41047FF4E2
:100AE0000DAF52EA43057FF4EBAE12E74FEA410245
:100AF000B2F1E04324BFB3F5001CDCF1FE5C0DD97C
:100B000001F0004C4FEAC0024CEA5070B2F1004FC5
:100B100040EB830008BF20F00100704711F0804FC8
:100B200021D113F13872BCBF01F00040704741F48D
:100B300080114FEA5252C2F11802C2F1200C10FA91
:100B40000CF320FA02F018BF40F001004FEAC12375
:100B50004FEAD32303FA0CFC40EA0C0023FA02F319
:100B60004FEA4303CCE77FEA625307D150EA0133EF
:100B70001EBF4FF0FE4040F44000704701F00040BF
:100B800040F0FE4040F40000704700BF53B94AB93E
:100B9000002908BF00281CBF4FF0FF314FF0FF3085
:100BA00000F070B9ADF1080C6DE904CE00F006F864
:100BB000DDF804E0DDE9022304B070472DE9F047D9
:100BC000089E0D4604460F46002B4AD18A429446A1
:100BD00065D9B2FA82F343B102FA03FCC3F12002F1
:100BE0009F4020FA02F217439C404FEA1C4E1FFA26
:100BF0008CF5B7FBFEF1220C0EFB117742EA07429F
:100C000001FB05F090420AD91CEB020201F1FF370B
:100C100080F01C81904240F2198102396244121A1C
:100C2000A4B2B2FBFEF00EFB102244EA024400FB29
:100C300005F5A5420AD91CEB040400F1FF3280F04F
:100C40000781A54240F204816444023840EA014031
:100C5000641B00211EB1DC400023C6E90043BDE84F
:100C6000F0878B4208D9002E00F0ED800021C6E904
:100C700000050846BDE8F087B3FA83F1002949D1A1
:100C8000AB4202D3824200F2F880841A65EB030281
:100C900001201746002EE2D0C6E90047DFE702B97F
:100CA000FFDEB2FA82F3002B40F090808A1A4FEAFE
:100CB0001C471FFA8CFE0121B2FBF7F507FB15203C
:100CC000220C42EA00420EFB05F0904208D91CEBD0
:100CD000020205F1FF3802D2904200F2CB80454675
:100CE000121AA4B2B2FBF7F007FB102244EA024446
:100CF0000EFB00FEA64508D91CEB040400F1FF32F0
:100D000002D2A64500F2BB801046A4EB0E0440EAD6
:100D100005409FE7C1F120078B4022FA07FC4CEA0F
:100D2000030C05FA01F420FA07F3FD404FEA1C49D1
:100D30002343B5FBF9F81FFA8CFE09FB18551C0C70
:100D400044EA054408FB0EF5A54202FA01F200FA56
:100D500001F00BD91CEB040408F1FF3A80F0888005
:100D6000A54240F28580A8F102086444641B9DB24C
:100D7000B4FBF9F309FB134445EA044403FB0EFEFC
:100D8000A64508D91CEB040403F1FF356CD2A64537
:100D90006AD9023B644443EA0843A3FB0295A4EBEF
:100DA0000E04AC42C846AE4656D353D056B1B0EB53
:100DB000080264EB0E0404FA07F7CA40CC4017435C
:100DC000C6E9007418460021BDE8F087C3F1200190
:100DD00002FA03FC20FA01F225FA01F19D402A43B0
:100DE0004FEA1C471FFA8CFEB1FBF7F007FB10150A
:100DF000110C41EA054100FB0EF58D4204FA03F4A3
:100E000008D91CEB010100F1FF382FD28D422DD9FA
:100E100002386144491B92B2B1FBF7F507FB15118B
:100E200042EA014205FB0EF1914208D91CEB020295
:100E300005F1FF3816D2914214D9023D6244521A8C
:100E400045EA004138E73146304608E73946E6E6EC
:100E50001046FBE64845A9D2B9EB020865EB0C0E3B
:100E6000013BA3E74546EAE72B4694E74046D1E736
:100E7000D0467BE7023D624432E708460AE7644415
:100E8000023842E7704700BFDFF834D0002103E0AA
:100E90000C4B5B58435004310B480C4B42189A42A0
:100EA000F6D30B4A02E0002342F8043B094B9A4276
:100EB000F9D316F0E9F838F055FC01F079FA7047EB
:100EC0000000032098A40E080000002078010020F4
:100ED0007801002060530120FEE700F1784243F6DC
:100EE000FE739A4240F29880A2F5804343F6FE7268
:100EF000934240F2938000F17843A3F5004393427C
:100F000040F28E8000F17843A3F54043934240F2D3
:100F1000898000F1774303F57F034FF6FE72934219
:100F200040F2828000F1774303F57E0302F58032C0
:100F300093427BD900F1774303F57C03934277D941
:100F400000F1774303F57A03934273D900F17743B5
:100F500003F5780393426FD900F1774303F57603E5
:100F600093426BD900F1774303F57403934267D939
:100F700000F1774303F57203934263D9A0F1016254
:100F800043F6FE739A425FD9A2F5804343F6FE72A0
:100F900093425BD9A0F10163A3F50043934257D973
:100FA000A0F10163A3F54043934253D900F1774385
:100FB00003F56F034FF6FE7293424DD900F177436C
:100FC00003F56E0302F58032934247D900F177436F
:100FD00003F56C03934243D900F1774303F56A03A9
:100FE00093423FD900F1774303F5680393423BD91D
:100FF00000F1774303F56603934237D900F1774355
:1010000003F56403934233D900F1774000F56200A1
:1010100090422FD900207047002070470120704770
:101020000220704703207047042070470520704756
:101030000620704707207047082070470920704736
:101040000A2070470B2070470C2070470D20704716
:101050000E2070470F2070471020704711207047F6
:1010600012207047132070471420704715207047D6
:101070001620704717207047F0B583B005460F461D
:10108000164616F06DF92846FFF727FF044605EBD4
:101090008600FFF722FF134B00221A6002221A611A
:1010A0009C60001B0130D86001A9184616F06EFA4A
:1010B00068B90024A64210DD57F8242000232946F1
:1010C000022016F0A5F928B904350134F2E716F02C
:1010D00069F905E016F066F902E016F059F900200A
:1010E00003B0F0BD9401002050F8043B41F8043BEC
:1010F0001346013A92B2002BF6D1704770B52DED30
:10110000028BADF5087D05460C4600230AE004EB92
:101110008302D2ED007A9FED3A7A77EEC77AC2ED7C
:10112000007A01333F2BF2D9402102A836F06EF845
:10113000002308AA214602A836F0ECF820220DEB85
:101140000201084636F054FD01AB6A4620210DEB42
:10115000010035F0F3FF9DED018AB8EE488A01F0F9
:101160007BFB07EE900AF8EE677A28EE278ADFED20
:10117000257A28EE278ADFED247AB4EEE78AF1EEAD
:1011800010FA06D8DFED217AB4EEE78AF1EE10FA14
:101190000FDADFED1F7AB4EEE78AF1EE10FA0AD823
:1011A000DFED197AB4EEE78AF1EE10FA21DA0026C3
:1011B00002E0322600E00026B40101F04DFBB4FB52
:1011C000F0F4C6B108AB03EB8403D3ED007A77EEFD
:1011D000A77A9FED0C7A67EE877A01232B7285ED53
:1011E000008AC5ED017A28460DF5087DBDEC028B1D
:1011F00070BD3C26E0E700232B72DFED067AEEE7B8
:1012000000F0FF440000803C00005C4200003442DB
:1012100000008242000000002DE9F04190B08046BD
:1012200000245BE01A01815807EE901AF8EE677A05
:10123000494901EB8301C1ED007A0244D2ED017A04
:10124000F8EE677A454901EB8301C1ED007AD2EDF2
:10125000027AF8EE677A424901EB8301C1ED007A28
:10126000D2ED037AF8EE677A3E4A02EB8302C2EDD2
:10127000007A01333F2BD5D905AE37493046FFF709
:101280003DFFA700384B03EB8403069A1A606D46B6
:1012900032492846FFF732FF95E8070086E8070045
:1012A000324B3B44069A1A602D492846FFF726FF29
:1012B00095E8070086E807002D4B3B44069A1A6024
:1012C00028492846FFF71AFF95E8070086E8070037
:1012D000284B3B44069A1A600134E4B2092C03D827
:1012E00001F0A6FA0023C5E71F4C08AA0A212046F0
:1012F00035F0F0FE09AA0A21204635F077FE1B4C96
:101300000AAA0A21204635F0E5FE0BAA0A2120464A
:1013100035F06CFE164C0CAA0A21204635F0DAFE98
:101320000DAA0A21204635F061FE124C0EAA0A21B0
:10133000204635F0CFFE0FAA0A21204635F056FE92
:10134000454608AC0FCC0FC594E80F0085E80F00A8
:10135000404610B0BDE8F0811809002018070020B1
:101360001805002018030020400200201802002069
:10137000F0010020C801002000B58DB02E4B93ED88
:10138000007AC7EE007A2D4B93ED007A77EE877ADC
:1013900020EE000A2A4BD3ED006A86EE807A77EEC3
:1013A000877ACDED047A274BD3ED006A86EEA07ADA
:1013B000254BD3ED006A37EE267A60EEA00A234B68
:1013C00093ED006AC6EE206A37EE267A8DED057A37
:1013D00077EE876AB6EE006A66EE866ACDED066A3B
:1013E00077EE677A17EE900AFFF716F910A3D3E9A4
:1013F0000023FFF793FAFFF779FB00EE100A37F0AE
:101400000DF8DFED137A20EE270A8DED070A04AB05
:101410000FCB0DF1300C0CE90F009DED080ADDED4E
:10142000090A9DED0A1ADDED0B1A0DB05DF804FBFB
:101430003333333333B3434094020020C4010020DC
:101440009C02002090020020A801002098020020A9
:10145000E02E654230B52DED068B95B001F0E8F930
:10146000002327E01A01815807EE901AF8EE677AF8
:10147000944901EB8301C1ED007A0244D2ED017A77
:10148000F8EE677A904901EB8301C1ED007AD2ED65
:10149000027AF8EE677A8D4901EB8301C1ED007A9B
:1014A000D2ED037AF8EE677A894A02EB8302C2ED45
:1014B000007A01333F2BD5D909AD82492846FFF781
:1014C0001DFEDDED0A8A9DED098A6C467E492046A7
:1014D000FFF714FE94E8070085E807009DED0A9ADF
:1014E000DDED09AA79492046FFF708FE94E80700D8
:1014F00085E80700DDED0A9A75492046FFF7FEFDF5
:1015000094E8070085E807009DED0AAA78EE2A7A9C
:10151000B6EE007A67EE877ACDED0E7AF0EE490AE4
:10152000B0EE680AFFF728FF8DED050ACDED060A3B
:101530008DED071ACDED081A8DED0C1ACDED0D1AB3
:10154000B5EEC01AF1EE10FA1DDBF3EE097AB4EE37
:10155000E71AF1EE10FA16D85E4BD3ED007A61EE81
:10156000277A67EE8A7A5C4B93ED007A21EE077A50
:1015700027EE297A77EE877AB6EE007A67EE877AD9
:10158000CDED0F7A4BE0F3EE097AB4EEE71AF1EE07
:1015900010FA1DDDDFED517AB4EEE71AF1EE10FA24
:1015A00016D84F4BD3ED007A61EE277A67EE8A7A30
:1015B0004C4B93ED007A21EE077A27EE297A77EEED
:1015C000877AB6EE007A67EE877ACDED0F7A26E05D
:1015D000DFED427AB4EEE71AF1EE10FA1DDDDFED31
:1015E000427AB4EEE71AF1EE10FA16D83F4BD3ED7B
:1015F000007A61EE277A67EE8A7A3D4B93ED007AA6
:1016000021EE077A27EE297A77EE877AB6EE007A0E
:1016100067EE877ACDED0F7A01E000230F93B5EEE8
:10162000C01AF1EE10FA17DDDFED327AB4EEE71AE8
:10163000F1EE10FA10D5304B1B786BB9F5EE007A4D
:1016400061EE277A9FED2D7A77EE877AFCEEE77AC6
:101650002B4BC3ED0D7A02E0294B00225A63B5EE05
:10166000C01AF1EE10FA19DDDFED227AB4EEE71AB6
:10167000F1EE10FA12D5234B1B787BB9F6EE007A07
:1016800021EE271AFDEEC17A17EE903AC3F16403FA
:10169000002BB8BF5B421C4A536302E01A4B002286
:1016A0005A630CAB0FCB14AC04E90F009DED100A8C
:1016B000DDED110A9DED121ADDED131A15B0BDEC2A
:1016C000068B30BD180A00201808002018060020DC
:1016D00018040020AC010020B00100200000964258
:1016E000B4010020B80100200000FA42BC01002033
:1016F000C0010020000048430400002000004842D0
:101700000020004005000020000C004070B58CB0A7
:1017100006460D46002420E02846FFF79BFE8DED8F
:10172000000ACDED010A8DED021ACDED031A274B0B
:1017300003EB840383ED000A254B03EB8403C3ED25
:10174000000A244B03EB840383ED001A224B03EBC6
:101750008403C3ED001A0134E4B2092CDCD91B4C1C
:1017600004AA0A21204635F0B5FC08AA0A21204621
:1017700035F03CFC164C05AA0A21204635F0AAFC9F
:1017800009AA0A21204635F031FC124C06AA0A218A
:10179000204635F09FFC0AAA0A21204635F026FC97
:1017A0000D4C07AA0A21204635F094FC0BAA0A2109
:1017B000204635F01BFC354604AC0FCC0FC594E831
:1017C0000F0085E80F0030460CB070BDC802002045
:1017D00068020020F0020020A0020020D0ED004AA4
:1017E00024EEA45A90ED017A90ED026A37EE464A53
:1017F00065EE046AD1ED007A66EEA76A67EE075AD5
:10180000D1ED017A65EEA75A26EE063AD1ED023AFD
:1018100023EE233A75EEC35A64EEA55A76EEE56AD6
:1018200067EE277A66EE233A77EEE37A67EE277A59
:1018300066EE277A76EEA77A77EE066A64EEA64A17
:1018400035EE645A27EE067A35EE075A24EE054A3D
:1018500087EE847A82ED007AD0ED004A24EEA47AF5
:10186000D0ED016A26EEA66AD1ED005A91ED014A4B
:1018700075EEC47A66EE277A90ED025A25EE053AA7
:10188000D1ED023A75EEE35A63EE255A77EEE57A2A
:1018900067EE277A26EE036A34EE634A26EE046A80
:1018A00077EE867AF1EE677A36EE856A64EE864ADE
:1018B00037EE647A26EE856A37EE067A76EEC56AEA
:1018C00027EE267AC7EE876AC3ED006AD0ED006A7C
:1018D00090ED017A91ED006AD1ED015A76EE657ACC
:1018E00067EE277A90ED025AD1ED024A36EE646A2D
:1018F00025EE066A77EEC67A66EEA77A27EE056AC7
:1019000075EEE45A66EE255A77EEA57A66EEA77A6A
:1019100067EE277A65EE277A66EEA65A77EE054AD5
:1019200066EEA46A75EEE66A36EE266A37EE457A0A
:1019300026EE076A87EE867A009B83ED007A704771
:1019400020EE200AC1EE007AC0ED007A7047000058
:1019500010B52DED068B8EB0494BD3ED007AF8EE25
:10196000677ACDED0B7AD3ED017AF8EE677ACDED9B
:101970000C7AD3ED027AF8EE677ACDED0D7AD3EDDD
:10198000037AF8EE677ACDED087AD3ED047AF8EEB3
:10199000677ACDED097AD3ED057AF8EE677ACDED69
:1019A0000A7AD3ED067AF8EE67AACDED05AAD3ED53
:1019B000077AF8EE679ACDED069AD3ED087AF8EE3D
:1019C000678ACDED078AD3ED097AB8EE67AA8DED67
:1019D00002AAD3ED0A7AB8EE679A8DED039A93EDD9
:1019E0000B8AB8EE488A8DED048A264C264B00936C
:1019F000264B274A214608A8FFF7F0FE254B009307
:101A0000254B264A21460BA8FFF7E8FE2448B1EEF5
:101A1000041AD4ED000AB0EE6A0AFFF791FF2148DC
:101A2000B1EE041AD4ED000AB0EE4A0AFFF788FFBF
:101A30001D48B1EE041AD4ED010AB0EE690AFFF7B1
:101A40007FFF1A48B1EE041AD4ED010AB0EE490A3C
:101A5000FFF776FF1648B1EE041AD4ED020AB0EE95
:101A6000680AFFF76DFF1348B1EE041AD4ED020ABD
:101A7000B0EE480AFFF764FF0EB0BDEC068B10BD58
:101A8000180B0020080000209C0200209402002077
:101A9000C40100209802002090020020A80100202C
:101AA000AC010020B0010020B4010020B8010020EA
:101AB000BC010020C001002008B588B1114B1B7883
:101AC00033B100210F4B19700F4819F0FFFA08BD10
:101AD0000C4B01221A7000210B4819F079FBF6E734
:101AE0000A4B1B7833B10021084B1970084819F0D4
:101AF000EDFAECE7054B01221A700021044819F0B9
:101B000067FBE4E704000020F40C0020050000203F
:101B1000CC0D00202DE9F0478EB0002409940A94E2
:101B20000B940C940D940194714B1A6B42F01002BB
:101B30001A631A6B02F010020192019A02941A6B56
:101B400042F020021A631A6B02F020020292029AFB
:101B500003941A6B42F080021A631A6B02F080023F
:101B60000392039A04941A6B42F004021A631A6BEC
:101B700002F004020492049A05941A6B42F00102E6
:101B80001A631A6B02F001020592059A06941A6B09
:101B900042F002021A631A6B02F002020692069ADF
:101BA00007941A6B42F040021A631A6B02F040026B
:101BB0000792079A08941A6B42F008021A631B6B8B
:101BC00003F008030893089B4A4E2246142130462E
:101BD00015F033FE01222021304615F02EFEDFF8ED
:101BE000208122461421404615F027FEDFF814A17B
:101BF00022464FF48051504615F01FFEDFF8089141
:101C000022464FF44051484615F017FE3A4F2246FF
:101C10000421384615F011FE01224FF400513846D8
:101C200015F00BFE1423099301250A950B94032349
:101C30000C9309A9304615F0F5FC082309934FF4DD
:101C400088130A930B9409A9304615F0EBFC202366
:101C500009930A950B940C9409A9304615F0E2FCFF
:101C6000042309930A950B9402260C9609A9404671
:101C700015F0D8FC102309930A950B940C9409A92C
:101C8000404615F0CFFC4FF4805309930A950B940E
:101C90000C9409A9504615F0C5FC4FF44053099324
:101CA0000A950B940C9609A9484615F0BBFC42F224
:101CB000040309930A950B940C9409A9384615F06E
:101CC000B1FC4FF4004309930A960B940C940F2334
:101CD0000D9309A9094815F0A5FC22460521092004
:101CE00015F032FA092015F067FA0EB0BDE8F0875A
:101CF000003802400010024000180240000002407C
:101D00000008024000040240000C024008B50348ED
:101D1000034B036015F05EFA08BD00BF640B0020A2
:101D20000030024038B50D4C0D4B23600D4B636005
:101D30000025A560E5604FF4804323616561A561DE
:101D4000E5612562204616F0BBF91021204617F008
:101D50002BFA2946204617F049FA38BD6C0B0020B3
:101D6000005C0040A086010008B50C480C4B0360E5
:101D70004FF48273436000238360C3600361436157
:101D80004FF4007282611822C2610362436283626F
:101D90000A23C36218F032FA08BD00BF9C0C002071
:101DA000005001402DE9F04383B005460C464FF04A
:101DB0000008CDF8048001260E6008274F608E6071
:101DC000C1F80C804FF6FF7218F0FAF8304615F0A3
:101DD00095F9022323606760A660C4F80C804FF673
:101DE000FF722146284618F0EBF803232360676052
:101DF0004FF00409C4F80890C4F80C804FF6FF7245
:101E00002146284618F0DCF84FF40C730193C4F80F
:101E100000906760A660019BE3604FF6FF72214669
:101E2000284618F0CDF840F26A51284618F0EAF832
:101E300003B0BDE8F083000010B58CB0002305931B
:101E400006930793089309930A930B93154C164A2C
:101E5000226001226260A3600421E16010222261FD
:101E6000402262614FF4C072A261E3614FF40062EC
:101E7000226263624FF40053A36202230593072298
:101E8000069207910892032209920A930B9305A9DF
:101E9000204618F075F801A92046FFF783FF0CB023
:101EA00010BD00BF680C0020400100A030B58FB00D
:101EB0003422002101A837F056FB274C274B236022
:101EC00000256560A560E560256109236361012344
:101ED000A3611D23E3610323236240F20D136362B8
:101EE00040F24313A36240F21713E36240F2471338
:101EF000236384F8345084F8355084F836502046F3
:101F000017F06CFA0195F022029203954FF4A0733A
:101F1000049302210591FF21069107954FF48061FA
:101F20000891052109910A950B920C938DF8345074
:101F30008DF835508DF836502A4601A9204617F005
:101F400036FB074C074B23601B6898472368DB6808
:101F500098470FB030BD00BFC00B002000680140A3
:101F6000540B00202800002030B58DB000240894C8
:101F700009940A940B94039404940594069407948A
:101F800001940294104D114B2B606C60AC604FF6C5
:101F9000FF73EB602C61AC61284618F079FE4FF4BA
:101FA0008053089308A9284618F07DFF03940494F1
:101FB00003A9284619F052F80194029401A9284671
:101FC00019F04CF90DB030BD840D00200004004024
:101FD00030B587B0002402940394049405940094CF
:101FE00001940F4D4FF080432B60A7236B60AC60D2
:101FF0006323EB602C618023AB61284618F048FE18
:102000004FF48053029302A9284618F04CFF009425
:1020100001946946284619F021F907B030BD00BF88
:102020003C0D002030B589B0002401940294039443
:1020300004940594069407940F4D104B2B60D12304
:102040006B60AC606323EB602C618023AB6128463E
:1020500018F01EFE284618F047FE602301930294F4
:1020600003940594224601A9284618F0A1FE2846AB
:1020700000F076FE09B030BDF40C002000200040D6
:1020800030B58FB000240A940B940C940D940894EE
:10209000099401940294039404940594069407947B
:1020A000164D174B2B6040F247336B60AC606423D6
:1020B000EB602C618023AB61284618F0E9FD4FF4FA
:1020C00080530A930AA9284618F0EDFE284618F016
:1020D0000BFE0894099408A9284619F0BFF860235C
:1020E0000193029403940594224601A9284618F00E
:1020F0005FFE284600F034FE0FB030BDCC0D00204E
:10210000000C004000B587B08DF81720074B1B6806
:102110000293012301930DF1170200920A46014632
:10212000034816F0ABF807B05DF804FB140000207C
:102130006C0B002000B587B00A4600238DF81730DD
:10214000084B1B680293012301930DF117010091C5
:102150000146054816F044F99DF8170007B05DF8F0
:1021600004FB00BF140000206C0B002010B584B0ED
:10217000074C246802940193009201230A46014609
:10218000044816F02DF900B1012004B010BD00BFC5
:10219000140000206C0B002000B583B0ADF80600E1
:1021A000054B1B6801220DF10601044818F085F863
:1021B00003B05DF804FB00BF180000209C0C002059
:1021C00000B583B00246054B1B6801A9044818F00E
:1021D0006CFA019803B05DF804FB00BF1800002002
:1021E0009C0C002008B5642019F0D8F9FBE700002A
:1021F00008B50FE0B4222260002220210D4815F01E
:102200001CFB4FF400510C4815F01DFB4FF47A7085
:1022100019F0C4F9094C2368013B236000231A46D6
:1022200021460748006819F0CFFA2368002BE1D057
:10223000E7E700BF00100240001802401C00002029
:10224000580B002070B582B0002600961F4D2B6BF6
:1022500043F004032B632B6B03F004030093009BF8
:102260001B4C236823F00C032360236843F0040312
:102270002360A36943F40033A3610A2014F03EFFF6
:10228000236843F00C03236001962B6B43F020037B
:102290002B632B6B03F020030193019B04F5406437
:1022A000A36823F44033A360636A23F00F036362DF
:1022B000E36823F44033E3600A2014F01FFF23682F
:1022C00043F44033236002B070BD00BF00380240C9
:1022D000000802402DE9F84300AF80460E4615463F
:1022E0001C469B000733DB086A46A2EBC3039D46EE
:1022F000E94622464946FEF7F7FE49F825602246A0
:1023000049464046FEF7B8FE024B43F82560BD46FD
:10231000BDE8F883180B002030B595B030220021BD
:1023200008A837F020F90024039404940594069437
:10233000079401941C4B1A6C42F080521A641B6C77
:1023400003F080530193019B0294184B1A6842F4E6
:1023500040421A601B6803F440430293029B01232E
:1023600008934FF48033099302250E954FF48003B0
:102370000F93082310934FF4A8731193129504231D
:10238000139308A817F06CF90F2303930495059491
:102390004FF4A05306934FF480530793052103A8ED
:1023A00017F0C8FB15B030BD003802400070004087
:1023B00008B514F077FEFFF7AFFFFFF743FFFFF715
:1023C000A9FBFFF7A3FCFFF7ADFCFFF7CDFCFFF780
:1023D00033FDFFF76BFDFFF7C7FDFFF7F9FDFFF7D3
:1023E00021FEFFF74DFE00F0E0FD00F0DDFDFFF700
:1023F00029FF00F0E5F800F027F90C2213491448F2
:10240000FEF772FEFFF7A4FA19F03CF8114A022118
:10241000102019F08EF9104B1860104A0021104856
:1024200019F05EF80F4B18600F4A00210F4819F0A1
:1024300057F80F4B18600F4A00210F4819F050F859
:102440000E4B186019F030F8FEE700BF180B0020A3
:1024500000001E080CA30308580B002048A3030823
:10246000E5210008600B0020E8A20308B72F000850
:10247000500B002024A30308F12100085C0B00206E
:102480007047704708B5FFF73DFE08BD08B5FFF778
:1024900051FE08BD08B5FFF769FE80B208BD08B55A
:1024A00014F02CFE08BD000010B5064C00220421DB
:1024B000204615F0C2F901220421204615F0BDF98D
:1024C00010BD00BF0008024038B5044601224FF499
:1024D0000051094815F0B1F9084D002204212846A1
:1024E00015F0ABF92046FFF757FE012204212846DC
:1024F00015F0A3F938BD00BF000C024000080240EF
:1025000038B5044600224FF40051094815F095F9FA
:10251000084D00220421284615F08FF92046FFF7C8
:102520003BFE01220421284615F087F938BD00BF83
:10253000000C024000080240F8B505460C46104E5B
:1025400000220421304615F078F90E4F00224FF496
:102550000051384615F071F92846FFF71DFE204658
:10256000FFF72EFE044601224FF40051384615F0C5
:1025700064F901220421304615F05FF92046F8BDC8
:1025800000080240000C024008B514F0B7FD08BD79
:1025900008B50268034B9A4200D008BD14F09CFDB8
:1025A000FBE700BF001000407047002303E000225B
:1025B00041F823200133B3EB801FF8D370470000AC
:1025C00082B000200090144B1A6B42F020021A6374
:1025D0001A6B02F020020092009A104A116841F42E
:1025E00040511160116841F44031116001901A6B43
:1025F00042F004021A631B6B03F004030193019B76
:10260000074B1A6842F0C0021A601A6842F00C02C6
:102610001A6002B0704700BF003802400014024048
:1026200000080240074B5A6A42F480725A625A6AA2
:1026300022F480725A624FF08042136823F0010343
:10264000136070470038024082B0002101910D4BA9
:102650001A6C42F001021A641B6C03F0010301932F
:10266000019B4FF0804343F244329A620922DA62BE
:102670005A6842F020025A60034B83F81C1302B0E0
:10268000704700BF0038024000E100E082B0002146
:102690000091364A536C43F480635364536C03F4E3
:1026A00080630093009B324BD86A40F44010D8629C
:1026B000586B40F004005863586B40F4D070586376
:1026C000586B40F4C0505863586B40F4B0205863C6
:1026D000586840F480705860986840F08050986066
:1026E000986840F0C0609860986840F48070986086
:1026F0000191136B43F480031363136B03F48003A2
:102700000193019B1B4B83F8391302F53052936AF6
:1027100023F001039362184B9B6A13F0010FFAD167
:10272000154B9A6842F400629A609A6A42F080629D
:102730009A629A6A42F480329A629A6A42F48042B9
:102740009A629A6A42F480529A629A6A42F4806269
:102750009A629A6A42F010029A624FF48072DA62C8
:10276000064A1A63064A5A6302B0704700380240AC
:102770000022014000E100E0006402404C220140E0
:10278000140E00200B4A936A43F0010393620A4B34
:102790004FF00072C3F884215A60084A936843F0EE
:1027A000010393604FF08042136843F0010313600C
:1027B000704700BF0064024000E100E000220140D9
:1027C00008B5184B1B6813F4006F2AD0164B4FF056
:1027D0000072C3F88420BFF34F8FBFF36F8FC3F82D
:1027E0008421104A936A23F0010393620D4B9B6A84
:1027F00013F0010FFAD10B4A936843F4006393601E
:102800004FF08042136823F001031360074B9A686E
:1028100022F001029A609A6822F480729A60FFF7AF
:1028200001FF08BD0064024000E100E00022014019
:1028300008B507490420FFF7B8FEFFF727FFFFF7A9
:10284000A1FF044B9B6A13F0010FFAD1004808BDA9
:10285000140E0020006402404FF420707047000006
:102860002DE9F04186B00023019302930393049372
:1028700005932D4B1B6813B106B0BDE8F0814FF0F6
:102880000108294BC3F8008000260096274B9A6B5D
:1028900042EA08029A639B6B03EA08030093009BD9
:1028A0004FF63F03019302270297032504950C245A
:1028B000059401A91E4814F0B5FECDF804800297D6
:1028C00003960495059401A91A4814F0ABFE48F24A
:1028D00033130193029703960495059401A91648B2
:1028E00014F0A0FE4FF683730193029703960495AC
:1028F000059401A9114814F095FE4CF2037301935D
:10290000029703960495059401A90D4814F08AFED8
:1029100060230193029703960495059401A9094841
:1029200014F080FEA8E700BF141200200038024017
:10293000001402400008024000180240001002404B
:10294000000C02400004024000B583B00022009257
:102950000D4B596C41F480415964596C01F480412C
:10296000009100990192196C41F0805119641B6C1F
:1029700003F080530193019B0F216FF0010014F0CD
:10298000E3FB03B05DF804FB003802400268094B2A
:102990009A4200D0704782B000230193064B1A6B15
:1029A00042F480521A631B6B03F480530193019B22
:1029B00002B0704700300240003802402DE9F04379
:1029C00089B0002303930493059306930793026849
:1029D0002B4B9A4202D009B0BDE8F0830025009548
:1029E000284C236B43F004032363236B03F004039D
:1029F0000093009B0195236B43F001032363236B3A
:102A000003F001030193019B4FF4007303934FF014
:102A10001209CDF810904FF00108CDF8148003276B
:102A200006970426079603A9174814F0FBFD4FF4F8
:102A300080730393CDF81090CDF814800697079615
:102A400003A9124814F0EEFD0295236C43F4000331
:102A50002364236C03F400030293029B2A4605219E
:102A6000482014F071FB482014F0A6FB236A43F4BD
:102A700000032362236A23F400032362ABE700BF51
:102A8000005C0040003802400008024000000240A4
:102A90002DE9F04198B0044600211391149115914D
:102AA00016911791302207A836F05DFD2268634B1E
:102AB0009A4202D018B0BDE8F08108230793C023E2
:102AC0000B9304230D934FF40033109307A817F0D2
:102AD00015F9002840F0AF8000240094584B5A6C40
:102AE00042F080625A645A6C02F080620092009A4E
:102AF00001941A6B42F020021A631A6B02F0200252
:102B00000192019A02941A6B42F001021A631A6B45
:102B100002F001020292029A03941A6B42F002023E
:102B20001A631A6B02F002020392039A04941A6B5E
:102B300042F040021A631A6B02F040020492049AB7
:102B400005941A6B42F004021A631A6B02F0040235
:102B50000592059A06941A6B42F008021A631B6BE1
:102B600003F008030693069B4FF48063139302253A
:102B70001495159416950E26179613A9314814F03E
:102B800051FD41F658031393149515941695179615
:102B900013A92D4814F046FD03231393149515949F
:102BA00016954FF00908CDF85C80284F13A93846D8
:102BB00014F038FD4FF47063139314951594169523
:102BC000179613A9384614F02DFD4FF40C63139398
:102BD000149515941695179607F5A05713A938461E
:102BE00014F020FDC0231393149515941695179691
:102BF00013A9174814F016FD082313931495159480
:102C00001695179613A9134814F00CFD4FF4A05312
:102C10001393149515941695CDF85C8013A9384636
:102C200014F000FD22460521582014F08DFA58209A
:102C300014F0C2FA3EE7FFF7B7FC4DE70068014029
:102C4000003802400014024000000240000402402C
:102C500000080240000C024000B589B00023039335
:102C600004930593069307930268154B9A4202D08A
:102C700009B05DF804FB0021019103F568435A6C2B
:102C800042F480125A645A6C02F480120192019A42
:102C900002911A6B42F020021A631B6B03F02003AF
:102CA0000293029B4FF46073039302230493032364
:102CB00006930523079303A9024814F0B3FCD7E752
:102CC000005001400014024084B00368B3F1804F0B
:102CD00015D01F4A934220D01E4A93422AD01E4A42
:102CE000934218D1002303931C4B1A6C42F4807258
:102CF0001A641B6C03F480730393039B0BE00023A3
:102D00000093164B1A6C42F001021A641B6C03F01C
:102D100001030093009B04B07047002301930F4B05
:102D20001A6C42F002021A641B6C03F00203019356
:102D3000019BF0E700230293084B1A6C42F0080253
:102D40001A641B6C03F008030293029BE3E700BFC5
:102D500000040040000C0040002000400038024009
:102D600000B589B00023039304930593069307935A
:102D700003681B4A934205D01A4A934218D009B0FF
:102D80005DF804FB00230193174B1A6B42F001021C
:102D90001A631B6B03F001030193019B012303934F
:102DA00002230493079303A9104814F03BFCE6E7C1
:102DB000002302930C4B1A6B42F001021A631B6B47
:102DC00003F001030293029B8023039302230493E5
:102DD00006930923079303A9044814F023FCCEE7C4
:102DE000000C00400020004000380240000002407B
:102DF00008B5FFF735FD08BD30B589B0044600239E
:102E00000193214B1A6C42F010021A641B6C03F000
:102E100010030193019B02A903A816F051FF069B22
:102E2000CBB916F03DFF0346184AA2FB03239B0CC7
:102E3000013B1748174A026040F2E732C260436024
:102E4000002303618360836117F022FF054630B1E0
:102E5000284609B030BD16F023FF4300E4E70C48D4
:102E600017F0ACFD05460028F2D1362014F0A4F985
:102E70000F2C01D90125EBE700222146362014F062
:102E800063F9054B1C60E3E70038024083DE1B4317
:102E90001812002000100040900000207047FEE74C
:102EA000FEE7FEE7FEE7704708B5C82014F026F9F4
:102EB00000222021034814F0C0FC082014F0CEFCAE
:102EC00008BD00BF0010024008B5024817F0BFFD62
:102ED00008BD00BF1812002008B5024816F094F88B
:102EE00008BD00BF6C0B002008B5024816F0F2FACE
:102EF00008BD00BFC00B00200120704708B536F0A8
:102F00002BFC162303604FF0FF3008BD08B54FF0CF
:102F1000FF31FFF7F3FFFEE770B50C4616460025BC
:102F200006E0AFF30080214601F8010B01350C46A5
:102F3000B542F6DB304670BD70B50C46164600252E
:102F400004E014F8010BAFF300800135B542F8DB63
:102F5000304670BD4FF0FF3070474FF400534B6068
:102F600000207047012070470020704708B50346D5
:102F70000B4A126842B10A4A106803446A469342F7
:102F800006D8074A136008BD054A06491160F2E7F2
:102F900036F0E2FB0C2303604FF0FF30F3E700BF95
:102FA0006012002060530120704708B500F072FFE6
:102FB00000F0F4FE08BD08B500F06EFF08BD00008B
:102FC000024A0260024A0260704700BF8CA30308F5
:102FD00074A3030810B50446044B0360044B03605C
:102FE000042135F0D4F9204610BD00BF8CA303089E
:102FF00074A3030810B50D4B18800D4B19800D4BB1
:103000005B688220984740F61103984201D0012066
:1030100010BD094C074B23601B688220984723682A
:10302000DB68822098470020F2E700BF641200208E
:1030300066120020600000206812002008B54FF4DE
:10304000A071F020FFF7D6FF08BD000030B583B0B7
:103050000446424B1B681B698220984780B220803F
:10306000002870D03D4B1B685B6901AA0DF1060179
:1030700082209847BDF8043040F67462934219D913
:10308000ADF80420BDF80430B43B9BB2ADF8043079
:10309000C3F55C639BB2ADF80430314AA2FB031266
:1030A000D2080A2B0CD92F4B1B88934209D2013B23
:1030B0009AB206E0B32BE5D8B423ADF80430E1E7CB
:1030C0000022ADF80420BDF8063040F6B8318B423E
:1030D00013D8C3F571630E33ADF80630BDF8061092
:1030E000214BA3FB0103DB080E290CD91F490988DA
:1030F000994209D201398BB206E0C3F56D630833FA
:10310000ADF80630EAE70023ADF806301846184956
:1031100009688B4219D989B25B1A99B21546154BC9
:103120001B689A4215D99BB2D31A9BB21944052940
:1031300003DD0F4B18600F4B1D600D4B1B68638048
:103140000C4B1B68A38003B030BD89B2C91A89B289
:10315000E4E79BB29B1A9BB2E8E700BF681200202D
:10316000A38B2EBA661200208988888864120020FA
:103170006C1200207012002030B583B00D4614464A
:103180006846FFF763FFBDF8003013B9002003B0B5
:1031900030BDBDF802302B60BDF804302360024B17
:1031A000B4221A600120F2E71C00002008B510B11B
:1031B00002280BD008BD0B4A52F82020B2FA82F246
:1031C00052090421084814F038FBF3E7054A52F885
:1031D0002020B2FA82F252091021034814F02DFB8C
:1031E000E8E700BF741200200010024008B510B1DB
:1031F00002280BD008BD0B4B53F8203003B101203F
:1032000002460421084814F018FBF3E7054A52F877
:1032100020302BB101221021034814F00EFBE9E706
:103220000022F8E7741200200010024008B510B127
:10323000022805D008BD0421044814F004FBF9E776
:103240001021024814F0FFFAF4E700BF001002401A
:1032500008B538B102280AD00020012814BF002088
:10326000012008BD0421044814F0E0FAF5E710211C
:10327000014814F0DBFAF0E70010024010B500241A
:1032800000E00134042C0EDCE0B2FFF7E1FF00287F
:10329000F7D0054B53F82430012BF2D0024B01221A
:1032A00043F82420EDE710BD7412002080F8781058
:1032B000012380F87930704708B590F87A3023B14F
:1032C000406803681B68984708BD0020FCE70020A1
:1032D000704700004164003918BF0121014B19708B
:1032E000704700BF274701200020704708B5836B57
:1032F0000BB10846984708BD4FF6FF70704708B5F8
:10330000406803689B69984708BD000090F87820E2
:1033100090F834309A420CD00C4B1B78ABB90C4A65
:1033200011880C4B188810801980084B01221A70E4
:103330007047064B1B7843B1054A1188054B188826
:1033400010801980014B00221A707047204701201D
:103350001E4701201C47012070477047034A026046
:10336000034A0260034A0260704700BF1CA50308BD
:10337000B8AB0308FCD6030810B5044600F06AFE9B
:103380002368D3F88C3002492046984710BD00BF0F
:10339000000000D008B504460368D3F88030984791
:1033A00023689B6F2046984700F0E8F823681B6F5E
:1033B000204698472920FFF7A3F800F0DFF823689C
:1033C0001B6F20469847F8E708B500F00FFE08BDD0
:1033D00008B500F011FE08BD08B500F05BFE08BDA1
:1033E00008B500F0CDFD08BD08B500F0D1FD08BD61
:1033F00008B500F0D5FD08BD08B500F0DDFD08BD3D
:1034000010B561B1C1630264003A18BF01220749D7
:103410000A700268D2F88C201946904710BD044B00
:10342000044A40F2D221044835F098FE2647012094
:103430009CA30308D4A3030824A4030808B5094BDC
:103440001B888B4208D8084B1B88934204D8074B33
:103450001980074B1A8008BD064B074A9E21074872
:1034600035F07CFE1C4701201E4701202247012029
:10347000244701206CA40308D0A4030824A4030853
:1034800010B504461CF0ACF92368D3F8AC302046E4
:10349000984710BD08B51BF0F4FB08BD10B50446F5
:1034A000054B0360054B0360054B03607C2134F042
:1034B0006EFF204610BD00BF1CA50308B8AB030873
:1034C000FCD6030808B500220121084618F074F85C
:1034D0000B4B186040B100220421012018F029F99B
:1034E000084B186030B108BD074B084A282108482E
:1034F00035F034FE074B054A2C21054835F02EFEE9
:103500008812002084120020ECA5030838A60308C6
:1035100068A60308E4A6030808B54FF0FF31024B84
:10352000186818F0A3F808BD8812002008B5024BEF
:10353000186818F0CFF808BD8812002008B50021DF
:10354000024B186818F092F808BD00BF88120020DE
:1035500008B5024B186818F0BDF808BD88120020A5
:1035600008B500231A4603490348006818F02CF9EF
:1035700008BD00BF200000208412002010B582B0DA
:10358000074C00231A4601A9206818F05FF94FF094
:10359000FF33002201A9206818F058F902B010BDCD
:1035A0008412002070470020704770477047002049
:1035B00070470000044A0260044AC260044AC260C4
:1035C000044A0260704700BF70A8030824D80308AB
:1035D0004CA80308D4D7030808B5034B034A22219B
:1035E000034835F0BBFD00BF28A703084CA703081C
:1035F0008CA7030808B5034B034A2721034835F07D
:10360000ADFD00BF28A7030804A803088CA7030882
:1036100010B50446064B0360064BC360064BC360FF
:10362000064B0360442134F0B2FE204610BD00BFBB
:1036300070A8030824D803084CA80308D4D70308AB
:1036400038B50446084B40F80C3B606000252572F5
:1036500065722146054B41F8203B01221CF01CFA03
:10366000E562204638BD00BFD4D7030870A8030820
:10367000014B0360704700BFD4A803087047704730
:103680007047704770477047014B0360704700BF39
:10369000E4A803087047704700F598730868496804
:1036A00003C3704710B50446D0F8400158B1036811
:1036B000DB68984738B1D4F8400103689B689847A5
:1036C0000023C4F8403110BD034A0260034A02607F
:1036D000034A0260704700BF24A903081CE20308E4
:1036E000E4A80308074A0260074AC0F84421074AD1
:1036F000C0F84421064A0260064A0260064A026097
:10370000704700BF90A9030878A903080CA9030813
:1037100024A903081CE20308E4A80308084A02607D
:10372000084A0260084AC0F84421084AC0F8442107
:10373000074A0260074A0260074A0260704700BFFA
:10374000E4A9030890A9030878A903080CA90308B1
:1037500024A903081CE20308E4A80308024A026043
:10376000024A0260704700BF38AA0308D4A80308C1
:10377000024A0260024A0260704700BF78A903084B
:103780000CA903080120704738207047C1EBC10124
:10379000C900083108447047C1EBC101C9000831B4
:1037A000084470470120704742F26C20704742F293
:1037B0006C2303FB01F108310844704742F26C238B
:1037C00003FB01F1083108447047012070471020C5
:1037D000704709010831084470470901083108445D
:1037E000704708B503464168C26801EB620012F0F9
:1037F000010F02D19B68984708BD4FEA620C51F84F
:103800000C209B68D358F6E743684BB183680BB133
:1038100001207047C36813F0010F03D001207047E7
:10382000002070470020704710B50446034B03602A
:10383000042134F0ACFD204610BD00BFE4A803080D
:1038400010B50446044B0360044B0360142134F0AC
:103850009EFD204610BD00BF38AA0308D4A8030867
:1038600010B50446034B0360142134F090FD20464C
:1038700010BD00BFD4A8030810B50446044B036074
:10388000044B0360102134F082FD204610BD00BFC0
:1038900078A903080CA9030810B50446054B03607A
:1038A000054B0360054B03604FF4A27134F06FFDCC
:1038B000204610BD24A903081CE20308E4A803085D
:1038C00010B50446094B0360094BC0F84431094B5D
:1038D000C0F84431084B0360084B0360084B036099
:1038E0004FF4AE7134F053FD204610BD90A903088B
:1038F00078A903080CA9030824A903081CE20308FB
:10390000E4A8030810B504460A4B03600A4B0360A1
:103910000A4BC0F844310A4BC0F84431094B0360EC
:10392000094B0360094B03604FF4AE7134F02FFD77
:10393000204610BDE4A9030890A9030878A903084C
:103940000CA9030824A903081CE20308E4A803083F
:1039500008B5084605F0EAF908BD08B505F0E6F92E
:1039600008BD10B50446D0F8580112F079FE204683
:1039700021F0FCFE10BD000010B50446024B0360B0
:103980001AF086F8204610BDB4AA030810B5044604
:10399000044B03601AF07CF84021204634F0F7FC19
:1039A000204610BDB4AA030810B50446024B0360BC
:1039B0001AF06EF8204610BD80AA030810B5044620
:1039C000054B03601AF064F842F27421204634F08B
:1039D000DEFC204610BD00BF80AA030810B50446D7
:1039E000024B03601AF054F8204610BD4CAA03089D
:1039F00010B50446044B03601AF04AF8182120461B
:103A000034F0C5FC204610BD4CAA030810B504468E
:103A1000194B036000F50053184AC3F8E822184A0E
:103A2000C3F8E822174AC3F82C24174AC3F82C24F9
:103A3000164AC3F8E822164AC3F8E822154AC3F822
:103A4000E822154AC3F8A02200F50A5020301AF0E7
:103A50001FF82046114B40F82C3F1AF019F8204669
:103A60000F4B40F8143F1AF013F80E4B23600E4B27
:103A70002360204610BD00BFE8AA0308E4A903089C
:103A800090A9030878A903080CA9030824A903082E
:103A90001CE20308E4A80308B4AA030880AA0308E8
:103AA0004CAA030838AA0308D4A803082DE9F0415A
:103AB00004460D46012806D01CB94FF6FF739D42FF
:103AC00077D0BDE8F0814FF6FF739942F4D1494EAB
:103AD000494B3360494B3360DFF864814046FFF760
:103AE000AFFD474F384629F0DBFD464B464A1A608A
:103AF000C3F804809F60DE6000221A615A619A61F7
:103B00009A83DA831A845A849A84DA841A8583F829
:103B10002A20DA621A8683F834209A63DA631A64F8
:103B20005A6483F84820012183F8491083F84A2019
:103B300083F84B20DA64A3F85020A3F85220A3F8AE
:103B40005420A3F8562083F85820DA651A665A667E
:103B500083F8681083F8692083F86A2083F86B1073
:103B600083F86C2083F86D2083F86E2083F86F2033
:103B700083F870205A6783F8782083F8792083F8D7
:103B80007A1083F87B1021480360F020204E3080AB
:103B9000204E30804FF4A0701F4E30801F4E30807A
:103BA0001F48027083F834101E4A1A601E4A1A60B9
:103BB00082E7144B1C4A1A601A4A1A60124A1A60A9
:103BC0001A4B1B4A1A601B4A1A600D4B1A4A1A609C
:103BD0001A4A1A601A4B1B4A1A601B4ADA601B4ABF
:103BE000DA601B4A1A60034B044A1A60024A1A60E0
:103BF00067E700BFD436002074A303088CA3030832
:103C00009C3700201C370020FCD6030828470120E1
:103C10001C470120224701201E4701202447012084
:103C200020470120B8AB03081CA50308240000208E
:103C300090AC0308C0A803082CE60308C4E10308FD
:103C4000D836002070A8030824D803084CA803081D
:103C5000D4D7030810B5194C194B236004F5005351
:103C6000184AC3F8E822184AC3F8E822174AC3F8EA
:103C70002C24174AC3F82C24164AC3F8E822164A03
:103C8000C3F8E822154AC3F8E822154AC3F8A0226F
:103C900003F5287019F0FCFE2046124B40F82C3F2B
:103CA00019F0F6FE2046104B40F8143F19F0F0FED4
:103CB0000E4B23600E4B236010BD00BF90120020FE
:103CC000E8AA0308E4A9030890A9030878A903084F
:103CD0000CA9030824A903081CE20308E4A80308AC
:103CE000B4AA030880AA03084CAA030838AA030848
:103CF000D4A8030810B504461B4B036000F500531D
:103D00001A4AC3F8E8221A4AC3F8E822194AC3F843
:103D10002C24194AC3F82C24184AC3F8E822184A5C
:103D2000C3F8E822174AC3F8E822174AC3F8A022CA
:103D300000F50A50203019F0ABFE2046134B40F836
:103D40002C3F19F0A5FE2046114B40F8143F19F006
:103D50009FFE104B2360104B236042F244412046EB
:103D600034F015FB204610BDE8AA0308E4A90308B7
:103D700090A9030878A903080CA9030824A903083B
:103D80001CE20308E4A80308B4AA030880AA0308F5
:103D90004CAA030838AA0308D4A80308F0B583B0D6
:103DA00000F036FA054600F037FA01460024009488
:103DB00023462246284625F0A7F9284B284A1A60B0
:103DC000204611F0D7FB274825F006F9264B1B6843
:103DD000BFF35B8F13F0010F04D02448FFF7CCFA38
:103DE00003B0F0BD204834F0D4FA0028F5D0204CC0
:103DF0002046204B40F8143B606004F12C07A7607C
:103E00001D4EE66006F1480525611C4B23601C4BE6
:103E1000236019F03FFE1B4B6361384619F03AFEF0
:103E2000194BE362304619F035FE04F50053174A8A
:103E3000C3F8A0224036304612F00CFC2246314630
:103E4000284611F0C5FC284604F070FF104835F0F4
:103E5000A3F9054834F0A9FABFE700BF8C47012059
:103E600098370020240000208C1200201C370020EE
:103E700090120020D4A803083035002038AA030887
:103E8000E8AA03084CAA030880AA0308B4AA0308F6
:103E9000553C00087047000008B50248FFF77AFA61
:103EA00008BD00BF1C37002008B54FF6FF71012088
:103EB000FFF7FCFD08BD08B54FF6FF710020FFF7C6
:103EC000F5FD08BD08B590F8253013B103685B69AE
:103ED000984708BD0020704781807047C1807047B7
:103EE0000181704741817047704770477047704744
:103EF000704708B5B0F804C0A1EB0C01B0F806C0DB
:103F0000A2EB0C0203685B6D12B209B2984708BDC0
:103F10004FF6FF738381038443841368C361106089
:103F2000704790F825201AB190F8242002B118604B
:103F3000704700207047B1F904308380012070473A
:103F4000704780F82610704790F826007047B1F946
:103F500008C0B1F90A10002202804280A0F804C013
:103F6000C18070470022028042808280C2807047F8
:103F7000014B0360704700BF84AB0308416070478A
:103F8000024B902283F85823704700BF00E100E005
:103F9000024B4FF080729A60704700BF00E100E072
:103FA000044B4FF08072C3F88820BFF34F8FBFF3EC
:103FB0006F8F704700E100E0094AD368C3F30A033A
:103FC000013B9BB207490B801169C1F30A0101391A
:103FD000054801801364536B43F00103536370473A
:103FE000006801402238002020380020014BD3F81F
:103FF000AC00704700680140024BC3F8AC100122CE
:104000005A62704700680140024A0260024A026038
:10401000704700BFB8AB0308FCD6030810B50446D0
:10402000034B0360082134F0B2F9204610BD00BFF5
:1040300084AB030810B50446044B0360044B0360D3
:104040007C2134F0A4F9204610BD00BFB8AB0308B2
:10405000FCD6030838B504461AF069FE23685D6E85
:1040600021F0C0FA01462046A847054A2368D3F844
:1040700088500023A2F516312046A84738BD00BF5E
:1040800000B004D008B51AF039FE08BD08B51AF022
:1040900041FE08BD08B51AF0FAFD08BD08B51AF0D2
:1040A00068FF08BD08B51AF0ECFD08BD70470000B8
:1040B0002DE9F043079C00EB4101FF2B3AD0068825
:1040C00004F4784204F4FC6904F01F0C6FEA030E58
:1040D0005FFA8EFE06F478470EFB07F703FB0277C4
:1040E000174D85FB07823A44D21122F4FF6222F079
:1040F000070217B206F4FC6808FB0EF809FB0388F8
:1041000085FB08924244D21102F4FC623A4306F065
:104110001F0606FB0EFE0CFB03EE85FB0E5CF44453
:10412000CCF3C41C42EA0C0220F8022B8142C6D810
:10413000BDE8F08320F8024B8142FBD8F8E700BFCE
:1041400081808080144B1B682BB310B5134B1B6C04
:10415000134A11888B420AD015F05EFA0E4B18688C
:1041600003681B6A98470020FFF740F810BD0D4B0D
:10417000198815F051FA084C226892F86A30013318
:1041800082F86A30FFF7ECF920681BF029FB002069
:10419000FFF70CF8EAE77047284701200068014064
:1041A0002238002020380020024A0260024A0260C1
:1041B000704700BF90AC0308C0A8030808B50329E6
:1041C00013D8DFE801F002060A0E11F03BFA00688E
:1041D00008BD11F037FA4068FAE711F033FA806849
:1041E000F6E711F02FFAC068F2E70020F0E70000D0
:1041F00010B50446044B0360044B0360042134F003
:10420000C6F8204610BD00BF90AC0308C0A8030844
:10421000004870479CAC03080F20704769B110B587
:1042200082B0002301938DF8033003689C680DF180
:10423000030301AAA04702B010BD00207047C08947
:104240007047008A7047C088704780887047807ABE
:1042500000F07F007047807AC0097047806A70471D
:10426000704770477047704770470000014B03600C
:10427000704700BF18B0030830B585B0044601810F
:104280006D460368D3F884300146284698473C348D
:1042900095E8070084E8070005B030BD30B585B06B
:1042A000044641816D460368D3F8843001462846B0
:1042B00098473C3495E8070084E8070005B030BD16
:1042C0000022028042808280C280704780F83610CF
:1042D000704738B50446154603681B6B984723683A
:1042E0005B6E29462046984738BD0020704708B5C8
:1042F00090F8253013B103685B69984708BD002228
:10430000028042804FF6FF718180C18082607047D9
:10431000806C704770470000044A0260044A0260E3
:10432000044A4260044A4260704700BF60B103081B
:1043300074E3030804D5030870E2030808B50368B2
:10434000DB6A984708BD08B503681B6B984708BD32
:10435000024A0260024A0260704700BF94B103083B
:1043600028B00308064A0260064A0260064A026054
:10437000064A8262064A0260064A0260704700BF2F
:10438000D0B00308CCDF0308F4DC030818B003083E
:10439000FCAA030870E2030830B4094A0260094C21
:1043A000C4650949C165094AC265094DC562C4624F
:1043B000C162C26207490160026030BC704700BF41
:1043C00040B00308D4E00308FCAA030870E2030825
:1043D000ECDD030804D5030810B503464468C26841
:1043E00004EB620012F0010F02D19B68984710BDE8
:1043F0004FEA620C54F80C209B68D358F6E74368E8
:104400004BB183680BB101207047C36813F0010FF3
:1044100003D0012070470020704700207047000043
:1044200010B50446034B0360082133F0B0FF20466B
:1044300010BD00BF18B0030810B50446064B03605A
:10444000064B0360064B4360064B4360402133F04C
:104450009EFF204610BD00BF60B1030874E303084F
:1044600004D5030870E2030810B50446084B036046
:10447000084B0360084B0360084B8362084B0360E2
:10448000084B03604C2133F082FF204610BD00BF73
:10449000D0B00308CCDF0308F4DC030818B003082D
:1044A000FCAA030870E2030810B50446044B03603D
:1044B000044B0360102133F06AFF204610BD00BF9B
:1044C00094B1030828B0030838B504460A4B0360CA
:1044D0000A49C1650A4AC2650A4BC3650A4DC562ED
:1044E000C162C262C362094A026003608C2133F078
:1044F0004EFF204638BD00BF40B00308D4E003089B
:10450000FCAA030870E20308ECDD030804D50308E5
:1045100070B503685D6B124B1B68A3B104468EB285
:10452000828D104909888A4213D213F812200E4B4B
:104530001B6853F8220003681B6B9847311A09B2B5
:104540002046A84770BD094B094A6C21094834F040
:1045500005FE094B064A6D21064834F0FFFD00BFF9
:10456000804701208447012088470120C8AD030807
:104570000CAE030848AE030890AE03082DE9F84FCF
:104580000446EB4B03601FF029FB04F50053E94A96
:10459000C3F85C22E84AC3F85C2204F58052E74B7A
:1045A000C2F8EC32E64FC2F81473E64EC2F8EC6281
:1045B000E54DC2F8EC52C2F8A432C2F8CC72C2F88F
:1045C000A462C2F8A452DFF8A0C3C2F890C20CF1F2
:1045D000240BC2F898B2DFF894A3C2F898A2DFF8CF
:1045E00090E3C2F890E2D949C2F89012D848C2F8D4
:1045F0002002D849C2F82012C2F82062C2F8205224
:10460000C2F8D831C2F80072C2F8D861C2F8D851E5
:10461000C2F8C4C1C2F8CCB1C2F8CCA1C2F8C4E19E
:10462000CA49C2F8C411C2F85401CA49C2F85411A7
:10463000C2F85461C2F85451C2F80C31C2F8347156
:10464000C2F80C61C2F80C51C2F8F8C0C2F800B14F
:10465000C2F800A1C2F8F8E0BC49C2F8F810C2F8EC
:104660008800BC48C2F88800C2F88860C2F8885048
:104670001364976616641564B748C4F8F40FB74915
:10468000C4F8F41FC4F8F43FD761C4F8F46FC4F859
:10469000F45FB34AC4F8B82FDFF8D892C4F8B89FD3
:1046A000DFF8D482C4F8B88FC4F8B86FC4F8B85F24
:1046B000C4F8703FC4F8987FC4F8706FC4F8705F96
:1046C000C4F8240FC4F8241FC4F8243FC4F84C7F56
:1046D000C4F8246FC4F8245FC4F8E82EC4F8E89E38
:1046E000C4F8E88EC4F8E86EC4F8E85E9D49C4F8E2
:1046F000BC1EC4F8BC5EC4F8743EC4F89C7EC4F80A
:10470000746EC4F8745EC4F860CEC4F868BEC4F8B1
:1047100068AEC4F860EE8D49C4F8601E8C49C4F8D8
:10472000F01D8C49C4F8F01DC4F8F06DC4F8F05DBC
:10473000C4F8A83DC4F8D07DC4F8A86DC4F8A85D3D
:10474000C4F85C0D8549C4F85C1DC4F85C3DC4F830
:10475000847DC4F85C6DC4F85C5DC4F8202DC4F899
:10476000209DC4F8208DC4F8206DC4F8205DC4F8E5
:10477000D83CC4F8007DC4F8D86CC4F8D85CC4F840
:104780008C0CC4F88C1CC4F88C3CC4F8B47CC4F801
:104790008C6CC4F88C5CC4F8502CC4F8509CC4F8E1
:1047A000508CC4F8506CC4F8505C6E49C4F8241C9A
:1047B000C4F8245CC4F8DC3BC4F8047CC4F8DC6BAB
:1047C000C4F8DC5BC4F8C8CBC4F8D0BBC4F8D0AB29
:1047D000C4F8C8EB5D49C4F8C81B5D49C4F8581B50
:1047E0005C49C4F8581BC4F8586BC4F8585BC4F84B
:1047F000103BC4F8387BC4F8106BC4F8105BC4F8E5
:10480000C40A5649C4F8C41AC4F8C43AC4F8EC7AC5
:10481000C4F8C46AC4F8C45AC4F8882AC4F8889A88
:10482000C4F8888AC4F8886AC4F8885AC4F8403A38
:10483000C4F8687AC4F8406AC4F8405AC4F8F40965
:10484000C4F8F419C4F8F439C4F81C7AC4F8F4694B
:10485000C4F8F459C4F8B829C4F8B899C4F8B889A8
:10486000C4F8B869C4F8B8593E49C4F88C19C4F8FA
:104870008C59C4F84439C4F86C79C4F84469C4F854
:104880004459C4F830C9C4F838B9C4F838A9C4F8D0
:1048900030E92E49C4F830192D49C4F8C0182D4903
:1048A000C4F8C018C4F8C068C4F8C058C4F8783850
:1048B000C4F8A078C4F87868C4F87858C4F82C080C
:1048C0002649C4F82C18C4F82C38C4F85478C4F815
:1048D0002C68C4F82C58C4F8F027C4F8F097C4F832
:1048E000F087C4F8F067C4F8F057C4F8A837C4F8E4
:1048F000D077C4F8A867C4F8A857C4F85C07C4F810
:104900005C17C4F85C37C4F88477C4F85C67C4F8F3
:104910005C57C4F82027C4F82097C4F82087C4F84F
:104920002067C4F820570F49C4F8F41626E000BFEA
:10493000ACB1030894B1030828B00308F4DC030801
:1049400018B00308FCAA030870E2030864AB03086C
:1049500084DA0308B0D90308D0B00308CCDF030819
:104960005CE0030804D5030848D8030884AB0308B7
:1049700098AB030858DF0308FCDA0308C4F8F456C0
:10498000C4F8AC36C4F8D476C4F8AC66C4F8AC56F7
:10499000C4F898C6C4F8A0B6C4F8A0A6C4F898E6AF
:1049A0006E49C4F898166E49C4F828166D49C4F8C3
:1049B0002816C4F82866C4F82856C4F8DC056A49E5
:1049C000C4F8DC15C4F8DC35C4F80476C4F8DC653A
:1049D000C4F8DC55C4F89005C4F89015C4F89035B7
:1049E000C4F8B875C4F89065C4F89055C4F8440587
:1049F000C4F84415C4F84435C4F86C75C4F844656B
:104A0000C4F84455C4F80825C4F80895C4F80885C6
:104A1000C4F80865C4F80855C4F8CC24C4F8CC948C
:104A2000C4F8CC84C4F8CC64C4F8CC54C4F8902442
:104A3000C4F89094C4F89084C4F89064C4F8905476
:104A40004A49C4F86414C4F86454C4F81C34C4F863
:104A50004474C4F81C64C4F81C54C4F808C4C4F8F2
:104A600010B4C4F810A4C4F808E43C49C4F808140D
:104A70003B49C4F898133B49C4F89813C4F89863A9
:104A8000C4F89853C4F84C033749C4F84C13C4F81D
:104A90004C33C4F87473C4F84C63C4F84C53C4F872
:104AA0000003C4F80013C4F80033C4F82873C4F832
:104AB0000063C4F80053C4F8B402C4F8B412C4F8D4
:104AC000B432C4F8DC72C4F8B462C4F8B452C4F8A6
:104AD0007822C4F87892C4F87882C4F87862C4F86E
:104AE0007852C4F83C22C4F83C92C4F83C82C4F822
:104AF0003C62C4F83C52C4F80022C4F80092C4F8E6
:104B00000082C4F80062C4F800521849C4F8D411F5
:104B1000C4F8D45104F1E00019F02AFC144BC4F895
:104B20009830C4F8CC70C4F89890C4F89880C4F851
:104B30009860C4F898500F4BE366E666E5660E4B46
:104B40002364266425640D4B23600D4B23600749C5
:104B5000616065602046BDE8F88F00BF64AB030864
:104B600084DA0308B0D90308CCDF030804D50308AE
:104B700040E10308D4E0030884DD030860B10308C2
:104B800074E3030810B50446FFF7F8FC42F26C2109
:104B9000204633F0FCFB204610BD00002DE9F04F0D
:104BA000ADF55B7D044622F09DF9B64B23600025F0
:104BB000E5632746B44B47F8403B4FF0260B5A4677
:104BC0002946384634F0CFFCDFF8E892C4F840902C
:104BD000BD80FD803D817D81BD81FD813D827D82E5
:104BE0007D61BD61FD613D847D8487F824504FF077
:104BF000010887F82580DFF8C0A2C4F840A0A34BC5
:104C00002364FF2687F82660BD6204F16C034FF62B
:104C1000FF77ADF8F8705A4629460293184634F0EB
:104C2000A2FCC4F86C9002988580C58005814581FE
:104C30008581C5810582458245618561C56105849F
:104C4000458480F8245080F82580C4F86CA0904BEF
:104C5000E366BDF8F830C38480F828603EA91DF0F3
:104C6000C0FF04F19803199318461EF0F1F804F1FF
:104C7000E0030893184619F0B7FC04F5EA731A46E6
:104C80000393C4F8D491A4F8D851A4F8DA51A4F845
:104C9000DC51A4F8DE51A4F8E051A4F8E251A4F8E4
:104CA000E451A4F8E651C4F8E851C4F8EC51C4F852
:104CB000F051A4F8F451A4F8F65183F8245083F885
:104CC0002580744BC4F8D431956204F500732A939F
:104CD00018461DF05FFF04F50F732B9318461DF067
:104CE00059FF04F51E732C9318461DF053FF04F56D
:104CF0002D765A462946304634F035FCC4F8B49235
:104D0000B580F58035817581B581F58135827582F3
:104D10007561B561F5613584758486F8245086F82F
:104D20002580C4F8B4A25C4BC4F8B4325B4AB262CA
:104D3000B7853563B58686F8367086F8375086F8BD
:104D4000385086F83950B587F587A6F84070A6F830
:104D5000427075645249C4F8B4125248C4F8B4029F
:104D6000C4F8FC5204F540765A462946304634F0E1
:104D7000FAFBC4F80093B580F58035817581B58163
:104D8000F581358275827561B561F561358475840B
:104D900086F8245086F82580C4F800A33E4BC4F85A
:104DA00000333E4AB262B7853563B58686F8367001
:104DB00086F8375086F8385086F83950B587F58729
:104DC000A6F84070A6F8427075643549C4F800131F
:104DD0003448C4F80003C4F8485304F553765A46DF
:104DE0002946304634F0BFFBC4F84C93B580F580BB
:104DF00035817581B581F581358275827561B561C1
:104E0000F5613584758486F8245086F82580C4F8C9
:104E10004CA3214BC4F84C33204AB262B7853563AA
:104E2000B58686F8367086F8375086F8385086F89A
:104E30003950B587F587A6F84070A6F842707564BA
:104E40001749C4F84C131748C4F84C03C4F89453DA
:104E500004F566731B9318461BF0D0FD04F58163BF
:104E60001A461893104BC4F8083495800F4BC4F8B9
:104E700008340F4B1B6893F85820FAB1D86CF0B97E
:104E80001CE000BF60B10308ACB1030884DD030877
:104E9000D4E0030804D50308F4DC030818B00308C1
:104EA000CCDF0308D0B0030864AB030898AB030859
:104EB0002847012070E20308FCAA030898680368E9
:104EC000DB6A9847B0FA80F67609B34B1B68D86C5A
:104ED00030B10368DB6A9847002808BF46F0010636
:104EE000002E01F05282AD4B189A93600026D660D6
:104EF000D560AB4BC4F808342433936004F21C43F0
:104F00001D460B934FF0260A52463146184634F0A0
:104F10002AFBDFF8AC92C4F81C94AE80EE802E81A0
:104F20006E81AE81EE812E826E826E61AE61EE6127
:104F30002E846E8485F824604FF0010885F8258062
:104F4000984AC4F81C24DFF87CB2C4F81CB4964913
:104F5000A9624FF6FF77AF852E63AE8685F836706F
:104F600085F8376085F8386085F83960AE87EE8758
:104F7000A5F84070A5F842706E6404F264431A46C6
:104F80000493C4F86494A4F86864A4F86A64A4F868
:104F90006C64A4F86E64A4F87064A4F87264A4F855
:104FA0007464A4F87664C4F87864C4F87C64C4F8C3
:104FB0008064A4F88464A4F8866483F8246083F889
:104FC00025807A4BC4F86434966204F592632D937D
:104FD00018461DF0DFFD04F2CC432E9318461DF059
:104FE000D9FD04F5A1632F9318461DF0D3FD04F2FB
:104FF000445552463146284634F0B5FAC4F8449533
:10500000AE80EE802E816E81AE81EE812E826E8228
:105010006E61AE61EE612E846E8485F8246085F841
:105020002580604AC4F84425C4F844B55E49A962A5
:10503000AF852E63AE8685F8367085F8376085F8C3
:10504000386085F83960AE87EE87A5F84070A5F81E
:1050500042706E64564BC4F844355648C4F8440553
:10506000C4F88C6504F5B26552463146284634F0E2
:105070007AFAC4F89095AE80EE802E816E81AE8172
:10508000EE812E826E826E61AE61EE612E846E8440
:1050900085F8246085F82580424AC4F89025C4F834
:1050A00090B54149A962AF852E63AE8685F836700A
:1050B00085F8376085F8386085F83960AE87EE8707
:1050C000A5F84070A5F842706E64394BC4F890356D
:1050D0003848C4F89005C4F8D86504F2DC55524647
:1050E0003146284634F03FFAC4F8DC95AE80EE80B5
:1050F0002E816E81AE81EE812E826E826E61AE61F6
:10510000EE612E846E8485F8246085F82580254A1A
:10511000C4F8DC25C4F8DCB52349A962AF852E6349
:10512000AE8685F8367085F8376085F8386085F882
:105130003960AE87EE87A5F84070A5F842706E64BE
:105140001B4BC4F8DC351B48C4F8DC05C4F82466E6
:1051500004F5C5631F9318461BF050FC04F5D36398
:105160001A461A93144BC4F898369680134BC4F819
:105170009836094B1B6893F858200AB1D86C00B9CF
:1051800098680368DB6A9847B0FA80F56D09024BAE
:105190001B68D86CF8B117E02847012084AB0308DE
:1051A00048D80308FCAA030818B0030804D503086C
:1051B000CCDF0308D0B0030864AB030898AB030846
:1051C00070E20308F4DC03080368DB6A98470028F0
:1051D00008BF45F00105002D01F0DD80B94B1A9A9A
:1051E00093600025D560D660B74BC4F89836243359
:1051F000936004F2AC631E460C934FF0260A5246AD
:105200002946184634F0AFF9DFF8E092C4F8AC96BE
:10521000B580F58035817581B581F58135827582DE
:105220007561B561F5613584758486F824504FF059
:10523000010886F82580A54AC4F8AC26DFF8B0B28C
:10524000C4F8ACB6A249B1624FF6FF77B7853563B3
:10525000B58686F8367086F8375086F8385086F866
:105260003950B587F587A6F84070A6F84270756486
:1052700004F2F4631A460593C4F8F496A4F8F856B9
:10528000A4F8FA56A4F8FC56A4F8FE56A4F8005761
:10529000A4F80257A4F80457A4F80657C4F808570E
:1052A000C4F80C57C4F81057A4F81457A4F81657AC
:1052B00083F8245083F82580864BC4F8F436956231
:1052C00004F5E463309318461DF064FC04F25C7648
:1052D00052462946304634F046F9C4F85C97B5800A
:1052E000F58035817581B581F5813582758275616D
:1052F000B561F5613584758486F8245086F825807B
:10530000724AC4F85C27C4F85CB77149B162B785CA
:105310003563B58686F8367086F8375086F838508B
:1053200086F83950B587F587A6F84070A6F8427020
:105330007564694BC4F85C376848C4F85C07C4F806
:10534000A45704F5F5660D9652462946304634F0CA
:105350000AF9C4F8A897B580F58035817581B581C3
:10536000F581358275827561B561F5613584758425
:1053700086F8245086F82580544AC4F8A827C4F833
:10538000A8B75349B162B7853563B58686F83670DC
:1053900086F8375086F8385086F83950B587F58743
:1053A000A6F84070A6F84270756404F5FE66319662
:1053B00030461DF0EFFB04F62C06524629463046D7
:1053C00034F0D1F8C4F82C98B580F580358175811A
:1053D000B581F581358275827561B561F561358478
:1053E000758486F8245086F82580384AC4F82C281D
:1053F000C4F82CB83649B162B7853563B58686F8EE
:10540000367086F8375086F8385086F83950B587A8
:10541000F587A6F84070A6F8427075642E4BC4F864
:105420002C382E48C4F82C08C4F8745804F67803B5
:105430001E460E9352462946184634F094F8C4F896
:105440007898B580F58035817581B581F581358293
:1054500075827561B561F5613584758486F824506F
:1054600086F82580194AC4F87828C4F878B818490D
:10547000B162B7853563B58686F8367086F83750E1
:1054800086F8385086F83950B587F587A6F8407009
:10549000A6F84270756404F50C63219318461BF05E
:1054A000ADFA04F513631A461C930D4BC4F830395A
:1054B00095800C4BC4F830390B4B1B6893F858207F
:1054C00018E000BF84AB030848D80308FCAA03080F
:1054D00018B0030804D50308CCDF0308D0B00308D4
:1054E00064AB030898AB03082847012070E2030867
:1054F000F4DC03080AB1D86C00B998680368DB6A69
:105500009847B0FA80F67609BA4B1B68D86C30B170
:105510000368DB6A9847002808BF46F00106002EA2
:1055200000F03F87B44B1C9A93600026D660D5608C
:10553000B24BC4F830392433936004F644194FF069
:10554000260B5A463146484634F00DF8DFF8C8A21B
:10555000C4F844A9A9F80460A9F80660A9F808608D
:10556000A9F80A60A9F80C60A9F80E60A9F8106003
:10557000A9F81260C9F81460C9F81860C9F81C606D
:10558000A9F82060A9F8226089F824604FF001088A
:1055900089F825809A4BC4F844399A4AC4F84429BA
:1055A0009948C9F828004FF6FF77A9F82C70C9F878
:1055B0003060A9F8346089F8367089F8376089F866
:1055C000386089F83960A9F83C60A9F83E60A9F80C
:1055D0004070A9F84270C9F8446004F68C1506952D
:1055E000C4F88CA9AE80EE802E816E81AE81EE81F2
:1055F0002E826E826E61AE61EE612E846E8485F8BD
:10560000246085F82580814BC4F88C39AE6204F69D
:10561000B815329528461DF0BDFA04F6F4155A4621
:105620003146284633F09FFFC4F8F4A9AE80EE80DF
:105630002E816E81AE81EE812E826E826E61AE61B0
:10564000EE612E846E8485F8246085F825806C4B8D
:10565000C4F8F4396B49C4F8F4196B48A862AF85F3
:105660002E63AE8685F8367085F8376085F8386029
:1056700085F83960AE87EE87A5F84070A5F84270CE
:105680006E64634DC4F8F459624BC4F8F439C4F83D
:105690003C6A04F5246C6546CDF83CC05A46314658
:1056A000604633F060FFC4F840AAAE80EE802E81E1
:1056B0006E81AE81EE812E826E826E61AE61EE6190
:1056C0002E846E8485F8246085F825804C4AC4F8C1
:1056D000402A4C49C4F8401A4B48A862AF852E6353
:1056E000AE8685F8367085F8376085F8386085F8BD
:1056F0003960AE87EE87A5F84070A5F842706E64F9
:1057000004F6882CCDF8CCC060461DF043FA04F6B0
:10571000C4255A463146284633F025FFC4F8C4AAAA
:10572000AE80EE802E816E81AE81EE812E826E8201
:105730006E61AE61EE612E846E8485F8246085F81A
:1057400025802F4AC4F8C42A2E49C4F8C41A2E480A
:10575000A862AF852E63AE8685F8367085F837600F
:1057600085F8386085F83960AE87EE87A5F8407017
:10577000A5F842706E64264DC4F8C45A254BC4F88F
:10578000C43AC4F80C6B04F531631D4610935A46B5
:105790003146184633F0E7FEC4F810ABAE80EE8019
:1057A0002E816E81AE81EE812E826E826E61AE613F
:1057B000EE612E846E8485F8246085F82580104A79
:1057C000C4F8102B0F49C4F8101B0F48A862AF850E
:1057D0002E63AE8685F8367085F8376085F83860B8
:1057E00085F83960AE87EE87A5F84070A5F842705D
:1057F00014E000BF2847012084AB030848D8030801
:10580000FCAA0308F4DC030818B0030804D5030855
:10581000CCDF0308D0B0030870E203086E6404F61E
:105820005833259318461BF0E9F804F6C8331A4696
:105830001D93B34BC4F8C83B9680B24BC4F8C83B29
:10584000B14B1B6893F858200AB1D86C00B998681E
:105850000368DB6A9847B0FA80F56D09AA4B1B68AC
:10586000D86C30B10368DB6A9847002808BF45F060
:105870000105002D00F09B85A44B1D9A9360002527
:10588000D560D660A24BC4F8C83B2433936004F6BD
:10589000DC331E4611934FF0260B5A462946184614
:1058A00033F061FEDFF884A2C4F8DCABB580F5808C
:1058B00035817581B581F581358275827561B561F6
:1058C000F5613584758486F824504FF0010886F818
:1058D0002580904AC4F8DC2B8F49C4F8DC1B8F4824
:1058E000B0624FF6FF77B7853563B58686F83670B8
:1058F00086F8375086F8385086F83950B587F587DE
:10590000A6F84070A6F84270756404F624431A465F
:105910000793C4F824ACA4F8285CA4F82A5CA4F883
:105920002C5CA4F82E5CA4F8305CA4F8325CA4F8DB
:10593000345CA4F8365CC4F8385CC4F83C5CC4F849
:10594000405CA4F8445CA4F8465C83F8245083F8D7
:105950002580734BC4F8243C956204F54563349369
:1059600018461DF017F904F68C465A46294630466B
:1059700033F0F9FDC4F88CACB580F58035817581C4
:10598000B581F581358275827561B561F5613584C2
:10599000758486F8245086F825805E4AC4F88C2CDD
:1059A0005D49C4F88C1C5D48B062B7853563B58627
:1059B00086F8367086F8375086F8385086F83950B1
:1059C000B587F587A6F84070A6F842707564554B08
:1059D000C4F88C3C544EC4F88C6CC4F8D45C04F607
:1059E000D84C6646CDF848C05A462946604633F042
:1059F000BAFDC4F8D8ACB580F58035817581B58124
:105A0000F581358275827561B561F561358475847E
:105A100086F8245086F825803E4AC4F8D82C3E49A2
:105A2000C4F8D81C3D48B062B7853563B58686F8A2
:105A3000367086F8375086F8385086F83950B58772
:105A4000F587A6F84070A6F84270756404F5526CAC
:105A5000CDF8D4C060461DF09DF804F65C565A4659
:105A60002946304633F07FFDC4F85CADB580F58043
:105A700035817581B581F581358275827561B56134
:105A8000F5613584758486F8245086F82580214A8E
:105A9000C4F85C2D2049C4F85C1D2048B062B7856D
:105AA0003563B58686F8367086F8375086F83850F4
:105AB00086F83950B587F587A6F84070A6F8427089
:105AC0007564184BC4F85C3D174EC4F85C6DC4F89F
:105AD000A45D04F6A8531E4613935A462946184659
