:020000040800F2
:10000000000003204D060008E5220008E922000850
:10001000ED220008F1220008F5220008000000008F
:1000200000000000000000000000000031CE0008C9
:10003000F922000800000000C1CE000881C60008B7
:100040009D0600089D0600089D0600089D06000804
:100050009D0600089D0600089D0600089D060008F4
:100060009D060008FD2200089D0600089D06000868
:100070009D0600089D0600089D0600089D060008D4
:100080009D0600089D0600089D0600089D060008C4
:100090009D0600089D0600089D0600089D060008B4
:1000A0009D0600089D0600089D0600089D060008A4
:1000B0009D0600089D0600089D0600089D06000894
:1000C0009D0600089D0600089D0600089D06000884
:1000D0009D0600089D0600089D0600089D06000874
:1000E0009D0600089D0600089D0600089D06000864
:1000F0009D0600089D0600089D0600089D06000854
:100100009D0600089D0600089D0600089D06000843
:100110009D0600089D0600081D2300089D06000896
:100120009D060008551C00089D0600089D06000855
:100130009D0600089D0600089D0600089D06000813
:100140009D0600089D0600089D0600089D06000803
:100150009D0600089D0600089D0600089D060008F3
:10016000292300089D0600089D0600089D0600083A
:100170009D0600089D0600089D060008000000007E
:100180009D0600089D0600089D0600089D060008C3
:100190009D0600089D0600089D0600089D060008B3
:0C01A000352300089D0600089D0600089D
:1001B00010B5054C237833B9044B13B10448AFF3A1
:1001C00000800123237010BD6801002000000000A2
:1001D000B4A9020808B5034B1BB103490348AFF3A8
:1001E000008008BD000000006C010020B4A90208D6
:1001F0004B1C012B98BF70472DE9F003911C9B0805
:10020000B1F80480B1F802900A8831F802CC804439
:10021000814402448444D9F80070D8F8006015681D
:10022000DCF80040C9F80060C8F80070CCF8005055
:100230001460D9F80470D8F804605568DCF80440FC
:10024000C9F80460C8F80470CCF804505460083150
:10025000013BD5D1BDE8F00370474B1C012B98BF83
:1002600070472DE9F003911C9B08B1F80480B1F8A8
:1002700002900A8831F802CC00EB580800EB5909CB
:1002800000EB520200EB5C0CD9F80070D8F800606B
:100290001568DCF80040C9F80060C8F80070CCF8B8
:1002A000005014600831013BDFD1BDE8F003704716
:1002B00001F0FF01102A2BDB10F0070F08D010F817
:1002C000013B013A8B422DD010F0070F42B3F6D11B
:1002D000F0B441EA012141EA014122F007047FF034
:1002E00000070023F0E80256083C85EA010586EA8B
:1002F000010685FA47F5A3FA87F586FA47F6A5FAC7
:1003000087F68EB9EED1F0BC01F0FF0102F00702D2
:1003100032B110F8013B013A83EA010313B1F8D17D
:100320000020704701387047002D06BF354603385E
:10033000073815F0010F07D1013015F4807F02BF97
:10034000013015F4C03F0130F0BC0138704700BFE8
:1003500053B94AB9002908BF00281CBF4FF0FF312C
:100360004FF0FF3000F070B9ADF1080C6DE904CE2C
:1003700000F006F8DDF804E0DDE9022304B0704780
:100380002DE9F047089E0D4604460F46002B4AD142
:100390008A42944665D9B2FA82F343B102FA03FC69
:1003A000C3F120029F4020FA02F217439C404FEA1B
:1003B0001C4E1FFA8CF5B7FBFEF1220C0EFB1177D9
:1003C00042EA074201FB05F090420AD91CEB020207
:1003D00001F1FF3780F01C81904240F2198102390F
:1003E0006244121AA4B2B2FBFEF00EFB102244EAE1
:1003F000024400FB05F5A5420AD91CEB040400F1F8
:10040000FF3280F00781A54240F204816444023843
:1004100040EA0140641B00211EB1DC400023C6E914
:100420000043BDE8F0878B4208D9002E00F0ED8034
:100430000021C6E900050846BDE8F087B3FA83F15C
:10044000002949D1AB4202D3824200F2F880841ADB
:1004500065EB030201201746002EE2D0C6E90047F3
:10046000DFE702B9FFDEB2FA82F3002B40F09080A2
:100470008A1A4FEA1C471FFA8CFE0121B2FBF7F5DE
:1004800007FB1520220C42EA00420EFB05F09042C9
:1004900008D91CEB020205F1FF3802D2904200F2AB
:1004A000CB804546121AA4B2B2FBF7F007FB10222C
:1004B00044EA02440EFB00FEA64508D91CEB0404E6
:1004C00000F1FF3202D2A64500F2BB801046A4EB39
:1004D0000E0440EA05409FE7C1F120078B4022FA55
:1004E00007FC4CEA030C05FA01F420FA07F3FD407F
:1004F0004FEA1C492343B5FBF9F81FFA8CFE09FBB0
:1005000018551C0C44EA054408FB0EF5A54202FAF6
:1005100001F200FA01F00BD91CEB040408F1FF3AD8
:1005200080F08880A54240F28580A8F102086444EA
:10053000641B9DB2B4FBF9F309FB134445EA044480
:1005400003FB0EFEA64508D91CEB040403F1FF359E
:100550006CD2A6456AD9023B644443EA0843A3FB34
:100560000295A4EB0E04AC42C846AE4656D353D017
:1005700056B1B0EB080264EB0E0404FA07F7CA4068
:10058000CC401743C6E9007418460021BDE8F08747
:10059000C3F1200102FA03FC20FA01F225FA01F16D
:1005A0009D402A434FEA1C471FFA8CFEB1FBF7F02F
:1005B00007FB1015110C41EA054100FB0EF58D42B9
:1005C00004FA03F408D91CEB010100F1FF382FD223
:1005D0008D422DD902386144491B92B2B1FBF7F527
:1005E00007FB151142EA014205FB0EF1914208D9C1
:1005F0001CEB020205F1FF3816D2914214D9023DDC
:100600006244521A45EA004138E73146304608E76D
:100610003946E6E61046FBE64845A9D2B9EB0208A2
:1006200065EB0C0E013BA3E74546EAE72B4694E752
:100630004046D1E7D0467BE7023D624432E70846B8
:100640000AE76444023842E7704700BFDFF834D05D
:10065000002103E00C4B5B58435004310B480C4B1A
:1006600042189A42F6D30B4A02E0002342F8043BB8
:10067000094B9A42F9D308F077FC29F01FFC00F0EF
:10068000D5FE70470000032070E41508000000202C
:100690006801002068010020DC390120FEE700002D
:1006A000704700BF08B500F0A9FBBDE8084000F0A6
:1006B00033BB00BF00F0A4BB704710B50421044653
:1006C00028F0E5FA204610BD38B50C4B0C4C1880CC
:1006D0000C4B822019806368984740F611039842BA
:1006E0000AD1094D23682C60822098472B6882200C
:1006F000DB689847002038BD0120FCE7840100201A
:100700005000002086010020880100204FF4A071D5
:10071000F020FFF7D9BF0000F7B5334D2B68044632
:100720001B698220984780B2208000284AD02B681D
:100730000DF106025B6901A982209847BDF80630D9
:1007400040F6746293423FD9ADF80620BDF80630FA
:10075000D21A92B20A2A3DD90B23B2FBF3F2234BF1
:100760001B889A4201D9013B9AB2BDF8043040F689
:10077000B8318B4230D8C3F571630E339BB20F2171
:10078000B3FBF1F31A4909888B4201D901398BB2C5
:10079000184E194D30682F68834281B28CBF591AA8
:1007A000C91AB8B2BA428CBF101A801A89B280B284
:1007B00001440529C8BF33603368C8BF2A6063801D
:1007C0002B68A38003B0F0BDB32B9CBFB423ADF85E
:1007D0000630BBE70022C8E7C3F56D6308339BB260
:1007E0000E2BCCD80023D3E78801002086010020FF
:1007F000840100208C0100209001002037B568465C
:100800000D461446FFF788FFBDF8000048B1BDF85B
:1008100002302B60BDF804302360034B3C221A6089
:10082000012003B030BD00BF1400002010B1022829
:1008300009D07047074B1A68B2FA82F252090421B4
:10084000054808F0A9BD034B9A68B2FA82F2520932
:100850001021F5E7940100200010024010B1022899
:1008600009D07047074B1A68003A18BF01220421CB
:10087000054808F091BD034B9A68003A18BF012261
:100880001021F5E7940100200010024010B1022869
:1008900004D070470421024808F082BD1021FAE715
:1008A0000010024008B530B1022809D00020431ED4
:1008B0005842584108BD0421024808F067FDF6E798
:1008C0001021F9E70010024070B5084D0024012600
:1008D000E0B2FFF7E7FF18B12B68012B18BF2E60BD
:1008E0000134052C05F10405F2D170BD94010020FE
:1008F000012380F8781080F8793070470020704725
:10090000034B4164003918BF01211970704700BFC3
:10091000A32D012000207047836B0BB108461847B8
:1009200070474FF6FF707047406803689B6918472F
:10093000704770477047000010B5044600F04CFB4C
:1009400023680349D3F88C302046BDE8104018478F
:10095000000000D008B503680446D3F880309847FB
:10096000236820469B6F984700F0ECF823682046E8
:100970001B6F9847292001F025F800F0E3F8236861
:1009800020461B6F9847F8E710B504460FF09AFE13
:1009900023682046D3F8AC30BDE81040184700F07B
:1009A0000DBB00F011BB00F035BB00F0DDBA00F06C
:1009B000E3BA00F03BBB00F0E7BA0FF0EFB810B5B8
:1009C0007C21044628F063F9204610BD90F87A3067
:1009D0001BB1406803681B68184718467047000041
:1009E00010B590F8341090F878400C4B8C421A787F
:1009F00009D03AB90A4A0B491488088810800C803B
:100A000001221A7010BD002AFCD0054A054914883D
:100A1000088810800C800022F3E700BF9C2D012085
:100A2000982D01209A2D012070B50D46194635B933
:100A3000094B0A4A0A4840F2D22128F03BFFC0E99C
:100A40000F52084B003A18BF01221A700368BDE824
:100A50007040D3F88C30184724AA02085CAA020818
:100A6000AAAA0208A22D012008B5094B1B888B42B7
:100A700003D8084B1B88934205D9074B074A0848FF
:100A80009E2128F017FF074B1980074B1A8008BDDD
:100A9000982D01209A2D0120EFAA020852AB0208DE
:100AA000AAAA02089E2D0120A02D0120012108B52F
:100AB000002208460BF078FE0A4B186028B90A4B52
:100AC0000A4A28210A4828F0F5FE002204210120C4
:100AD0000BF01EFF074B186018B9074B034A2C2177
:100AE000F0E708BDA801002070AC0208B9AC02080C
:100AF000E8AC0208A401002062AD0208024B4FF0EE
:100B0000FF3118680BF0A4BEA8010020014B186843
:100B10000BF0D2BEA8010020024B002118680BF098
:100B200097BE00BFA8010020FFF7F0BF03480449AB
:100B3000006800231A460BF025BF00BFA401002067
:100B40000400002013B5084C00231A4601A92068B0
:100B50000BF04EFF20684FF0FF33002201A90BF08D
:100B600047FF02B010BD00BFA40100207047002065
:100B700070477047704700207047704708B5034AB8
:100B8000034B0448222128F095FE00BFC7AD0208A0
:100B9000A4AD020805AE020808B5034A034B044899
:100BA000272128F087FE00BF7DAE0208A4AD020811
:100BB00005AE020810B54421044628F068F8204626
:100BC00010BD000038B5044621460025064B2572AD
:100BD0000C3060606572012241F8203B0FF0CAFEC4
:100BE000E562204638BD00BFC4AE02080120704750
:100BF00038207047382303FB010008307047382342
:100C000003FB0100083070470120704741F2F830C3
:100C1000704741F2F83303FB01000830704741F29E
:100C2000F83303FB010008307047012070471020A3
:100C3000704700EB01100830704700EB01100830DE
:100C40007047084602F002BE10B5034B036004462D
:100C50000EF02DFB204610BD7CAF020810B50446F7
:100C6000FFF7F2FF2046402128F011F8204610BD82
:100C700010B5034B036004460EF019FB204610BD6F
:100C800048AF020810B50446FFF7F2FF20464FF4C4
:100C9000A05127F0FCFF204610BD000010B5034B0B
:100CA000036004460EF003FB204610BD14AF02089B
:100CB00010B50446FFF7F2FF2046182127F0E7FFA2
:100CC000204610BD10B5094B0360044600F5A15045
:100CD0000C30FFF7B9FF04F12C00FFF7C9FF04F156
:100CE0001400FFF7DBFF204610BD00BFB0AF0208C5
:100CF00008B50248FFF7E6FF08BD00BFB0010020BD
:100D000010B50446FFF7DEFF204641F2D05127F030
:100D1000BEFF204610BD00002DE9F34101F088FB25
:100D2000054601F089FB0024014623462846224659
:100D3000009417F033FB264B264A274D1A602046B5
:100D400007F066F9254817F091FA2B68BFF35B8F1F
:100D5000DB0737D4284627F09CFF98B3204C214B63
:100D6000236004F1140004F12C0800F5A35608F5E3
:100D7000A0576060C4F80880E76026610EF098FA1A
:100D8000194B636140460EF093FA184BE362384604
:100D90000EF08EFA04F58053154AC3F82C2403F2A2
:100DA0006C4007F0A1FD2246A6F10801304607F08D
:100DB00089FA304602F04AFD0E4828F099FD28468F
:100DC00027F073FF0C4802B0BDE8F041FFF7B4BD57
:100DD000082E012044180020AC010020080000204B
:100DE000B0010020B0AF020814AF020848AF0208FB
:100DF0007CAF0208F10C0008C81700207047000003
:100E00000148FFF7A7BD00BFC817002070B5224EEC
:100E1000224C234D234B23603046FFF7D3FE284658
:100E20001BF088FD204B2148DC6000224FF48071CC
:100E3000C3E912121E491A86C3E91A121D4999679D
:100E40001D4983F858200B60F02101801B485A6629
:100E500001801B4883F870204FF4A071C3E904227D
:100E6000C3E90622C3E90822C3E90A22C3E90E2224
:100E7000C3E91022C3E91422C3E917225A67C3E960
:100E8000016501800F4801800F490A70012283F833
:100E900034200E4A1A6070BD84170020801700208D
:100EA0004818002014AA0208C8170020982D012015
:100EB0000100000100000101A42D01209E2D012050
:100EC0009A2D0120A02D01209C2D0120A0AB02080D
:100ED0000020704781807047C18070470181704752
:100EE000418170477047704770477047704710B432
:100EF000C4880368121B84885B6D091B12B25DF8FD
:100F0000044B09B218474FF6FF7383814FF0FF334C
:100F100003621368C3611060704790F825201AB10E
:100F200090F8242002B118607047002070478B8829
:100F3000838001207047704780F82610704790F832
:100F40002600704710B50022B1F90840B1F90A1027
:100F5000028042808480C18010BD002202804280D5
:100F60008280C28070470000024B902283F8582391
:100F7000704700BF00E100E0024B4FF080729A60C2
:100F8000704700BF00E100E0094A0A49D3680A48F7
:100F9000C3F30A03013B9BB20B801169C1F30A0141
:100FA000013901801364536B43F0010353637047AD
:100FB00000680140CE180020CC180020014BD3F867
:100FC000AC00704700680140024B0122C3F8AC102E
:100FD0005A6270470068014070B504460EF033FE57
:100FE00023685D6E13F0DCFD01462046A8472368A8
:100FF000054AD3F888502046AC460023BDE870402F
:10100000A2F51631604700BF00B004D00EF002BE5A
:101010000EF00CBE0EF0C8BD0EF029BF90F82520D2
:1010200012B103685B69184770470000044B4FF02A
:101030008072C3F88820BFF34F8FBFF36F8F704764
:1010400000E100E070B50023124E8380124B036074
:10105000336893F8582005460AB1D86C00B99868EF
:101060000368DB6A98473368B0FA80F4D86C640987
:1010700030B10368DB6A9847002808BF44F00104D8
:101080002CB9064B064A07482C2128F013FC2846A9
:1010900070BD00BFA42D0120C0B00208BCAF020883
:1010A0001AB0020853B00208704700002DE9F04161
:1010B000FF2BBDF8184000EB410105D120F8024B91
:1010C0008142FBD8BDE8F081174F04F4FC6604EAC6
:1010D000070C04F01F0403FB0CFC5E435C43DB4382
:1010E000DBB2FF25B0F800E00EEA07020EF4FC6860
:1010F00003FB02C203FB08680EF01F0EB2FBF5F201
:10110000B8FBF5F83A4008F4FC6842EA080203FB31
:101110000E4EBEFBF5FE0EF01F0E42EA0E0220F848
:10112000022B8142DED8CDE700F8FFFF10B5144C4A
:10113000236823B3134B144A1B6C11888B4213D1C1
:10114000124B198809F044FF226892F86A30013383
:1011500082F86A30FFF7EAFC20680FF0B3FABDE8C6
:1011600010400020FFF762BB09F032FF20680368DF
:101170001B6A9847BDE810400020FFF76FBB10BD09
:10118000A42D012000680140CE180020CC180020BA
:101190002DE9F04F2DED028B91B000AF054688464A
:1011A000FA6000F0C5FD03B2BB609B007B600733B3
:1011B00023F00703ADEB030D0446EA46F0B1013D11
:1011C000D146D346002600F0B1FD06FB005008EBE7
:1011D0008003D3ED007A0136F8EE677AB442EBEC87
:1011E000017AF0D17E689FED2B7A5644D9ED007AD2
:1011F00077EEC77AE9EC017A4E45F7D1BB686A46CB
:10120000A2EBC3039D4607EE904AFB686D46A1B270
:1012100007F12800F8EE678A13FB04F926F076FC44
:1012200064080023514607F128002A4626F0F2FC04
:1012300022462946284627F05BF900F07BFDB9FBE2
:10124000F0F905EB8909D9ED007A77EEA77A07F175
:101250001803C7EEA80A07F11C0221462846C7ED6D
:10126000030A26F0EBFBD7ED067AB8EE678A00F0AA
:1012700061FD07EE900AF8EE677AD7ED030A67EE94
:10128000887A443787EEA80ABD46BDEC028BBDE8DC
:10129000F08F00BF00F0FF4408B564200BF076FA31
:1012A000FBE700BF80B5104CDFF848800F4F104EB1
:1012B000206800231A462146451ED8F80000256004
:1012C0000BF060FB22683C233846202112B92360D2
:1012D00008F062F830464FF4005108F061F84FF41E
:1012E0007A700BF053FAE3E714000020001002407C
:1012F00000180240D8180020014B1868704700BF42
:1013000014000020F0B583B01F4E204D204C002764
:101310000097336B43F004033363336B03F0040330
:101320000093009B2B6823F00C032B602B6843F089
:1013300004032B60AB6943F40033AB610A2007F070
:101340004DFE2B6843F00C032B600197336B43F089
:1013500020033363336B03F020030193019BA368E5
:1013600023F44033A360636A23F00F036362E368EE
:1013700023F44033E3600A2007F030FE236843F48F
:101380004033236003B0F0BD003802400008024043
:101390000014024030B5002495B0CDE90A44CDE9EF
:1013A0000C44CDE90344CDE905441E4A0194079459
:1013B000116C1D4B41F080511164126C02F080528F
:1013C0000192019A02941A6842F440421A601B6822
:1013D00003F44043029301224FF48033CDE9082304
:1013E0000823022510934FF480024FF4A873CDE92F
:1013F0000E5211930222042308A8CDE91223029968
:1014000009F008FE0F23CDE903354FF4A0524FF445
:10141000805303A80521CDE9054207930AF012F88D
:1014200015B030BD00380240007000402DE9804802
:1014300000249BB007F0A6FDFFF7ACFFFFF762FFAB
:10144000CDE90D44CDE90F44BE4B00941194196BC6
:10145000BD48BE4D41F010011963196B01F0100138
:10146000009100990194196B41F020011963196BE7
:1014700001F02001019101990294196B41F0800162
:101480001963196B01F08001029102990394196BA1
:1014900041F004011963196B01F0040103910399F0
:1014A0000494196B41F001011963196B01F00101FA
:1014B000049104990594196B41F002011963196BA9
:1014C00001F00201059105990694196B41F0400164
:1014D0001963196B01F04001069106990794196B85
:1014E00041F0080119631B6B03F0080322460793C0
:1014F0001421079B07F050FF93482021012207F099
:101500004BFF93482246142107F046FF914822469C
:10151000802107F041FF904822464FF4805107F0A8
:101520003BFF8E4822464FF4405107F035FF8C4870
:101530002246042107F030FF012289484FF4005170
:1015400007F02AFF01264FF0030914237E480DA956
:101550004FF00808CDE90D36CDE90F4907F0D8FD69
:101560004FF4881378480E930DA9CDF834800F946A
:1015700007F0CEFD202374480D930DA902274FF0EC
:10158000040BCDE90E64109407F0C2FD7048CDF84D
:1015900034B00DA9CDE90E64109707F0B9FD802392
:1015A0006C480D930DA94FF0100ACDE90E6410940C
:1015B00007F0AEFD664810940DA9CDE90E64CDF894
:1015C00034A007F0A5FD4FF4805363480D930DA997
:1015D000CDE90E64109407F09BFD4FF440535F4833
:1015E0000D930DA9CDE90E64109707F091FD42F21D
:1015F00004035B480D930DA9CDE90E64109407F028
:1016000087FD4FF4004353480D930DA90F23119309
:10161000CDE90E74109407F07BFD224605210920C8
:1016200007F000FD092007F03BFD4E484E4B0360DC
:1016300007F044FD4D494E4B2846C5E900134FF4D1
:1016400080432B61C5E90244C5E90544C5E9074467
:1016500008F008F95146284609F0D0FA21462846F4
:1016600009F0ECFADFF818C14248434D84624FF4A8
:101670008273C0E900C34FF4007E1823C0E906E37B
:101680000A23C362C0E90244C0E90444C0E9084433
:101690000AF0C6F907230E931093384B2B604020B5
:1016A0004FF4C073C5E905034FF400632B620DA925
:1016B0004FF400532846AB62C5E90164C5E903BA9B
:1016C000EC616C62CDF83CB0CDE911970D971397A2
:1016D0000AF0B4F84FF6FF7209A92846CDE9096867
:1016E000CDE90B6408940AF0CBF8304607F076FC9D
:1016F0004FF6FF7209A92846CDE90B64CDE90978B8
:101700000AF0BEF84FF6FF7209A92846CDE90BB4DE
:10171000CDE909980AF0B4F84FF40C730893089BCC
:101720000C934FF6FF7209A92846CDE909B80B962C
:101730000AF0A6F8284640F26A510AF0BFF83422AF
:1017400020E000BF0038024000100240EC180020EA
:10175000000802400000024000040240000C024069
:1017600000180240E418002000300240005C0040F5
:10177000A08601001C1A0020E8190020400100A0EA
:10178000005001403A4D21460DEB020028F097FA37
:10179000384B2B6009236B611D23EB6140F20D1B5D
:1017A00040F24313C5E909B340F2171240F2471360
:1017B000AC862846C5E90B23AE61C5E90144C5E9FD
:1017C0000344C5F8209085F8364009F05BFAF02311
:1017D0000E9317934FF4A07310931893FF230DA942
:1017E0002246284612934FF480660523224D0D941D
:1017F000CDE914630F94119713941694ADF86440D7
:101800008DF8664009F014FB1C4B2B601B68984751
:101810002B68DB689847FEF745FFFEF741FFFFF7AF
:1018200071FD00F045F900F077F90AF037FF144A2E
:10183000394650460BF06CF8124B134A186021469B
:1018400012480AF057FF124B124A186021461248FC
:101850000AF050FF114B124A0546214611481D60FF
:101860000AF048FF104B18600AF02AFFFEE700BF9D
:101870004019002000680140D41800201800002002
:1018800030B10208D81800206CB102089912000883
:10189000E01800200CB10208B5060008D01800209E
:1018A00048B10208A5120008DC180020704700BFEC
:1018B000704700BF10B5094C86B0246802941446E6
:1018C00001238DF817400DF117040A4601930146D4
:1018D0000094034808F08EF806B010BD0C000020FC
:1018E000EC18002000B50B4B87B01B6802938446B0
:1018F0000A4601230DF117010020CDE900138DF8F0
:1019000017006146044808F067F99DF8170007B012
:101910005DF804FB0C000020EC18002010B5094C09
:1019200084B0844620680290CDE9002306480A4628
:101930000123614608F050F9003818BF012004B0B7
:1019400010BD00BF0C000020EC18002007F046BBC3
:1019500008B506480022042107F01EFDBDE8084036
:1019600002480122042107F017BD00BF0008024011
:1019700030B5104D83B0044601220F484FF400519A
:1019800007F00AFD28460022042107F005FD0B4B55
:101990000B481B68ADF806400DF1060101220AF064
:1019A000A1F801220421284603B0BDE8304007F029
:1019B000F3BC00BF00080240000C024010000020F1
:1019C0001C1A002030B5104D83B0044600220F4889
:1019D0004FF4005107F0E0FC28460022042107F0F4
:1019E000DBFC0B4B0B481B68ADF806400DF1060104
:1019F00001220AF077F801220421284603B0BDE84D
:101A0000304007F0C9BC00BF00080240000C024093
:101A1000100000201C1A00202DE9F043194E1A4F27
:101A2000DFF86890DFF8688083B00C460546002236
:101A30003046042107F0B0FC384600224FF4005134
:101A400007F0AAFCD9F80030ADF8045001A9012232
:101A500040460AF047F8D9F80030224601A940462E
:101A60000AF0E8FA384601224FF40051019C07F0D1
:101A700093FC30460122042107F08EFC204603B07F
:101A8000BDE8F08300080240000C02401000002076
:101A90001C1A002007F0A2BA034B02689A4200D039
:101AA000704707F089BA00BF00100040704700BFC0
:101AB00010B483B0154B1649002400941A6B42F001
:101AC00020021A631A6B02F020020092009A086842
:101AD000104A40F440500860086840F44030086004
:101AE0000194196B41F0040119631B6B03F00403AB
:101AF0000193019B136843F0C0031360136843F024
:101B00000C03136003B05DF8044B704700380240CB
:101B1000001402400008024010B483B00E4A0020B6
:101B20000190116C41F001011164126C4FF080437F
:101B300002F00102019243F244310922019C9962B0
:101B4000DA625A68054942F020025A6081F81C03A3
:101B500003B05DF8044B70470038024000E100E03C
:101B600010B483B0364A374B374C00210091506C8B
:101B700040F480605064506C00F4806000900098E5
:101B8000D86A40F44010D862586B40F004005863A3
:101B9000586B40F4D0705863586B40F4C050586391
:101BA000586B40F4B0205863586840F48070586017
:101BB000986840F080509860986840F0C0609860E5
:101BC000986840F4807098600191106B40F4800038
:101BD0001063126B02F48002019203F5A133019AA3
:101BE00084F839139A6A22F001029A629A6AD2073B
:101BF000FCD49A681548164942F400629A609A6AC1
:101C000042F080629A629A6A42F480329A629A6AD8
:101C100042F480429A629A6A42F480529A629A6AC4
:101C200042F480629A629A6A4FF4807442F0100221
:101C30009A62DC621863596303B05DF8044B704725
:101C4000003802400022014000E100E04C22014047
:101C5000741A00201B4B1A68110500D470471A4AE9
:101C60004FF00071C2F88410BFF34F8FBFF36F8F36
:101C7000C2F884119A6A22F001029A629A6AD20723
:101C8000FCD499684FF0804241F400619960136878
:101C90000E4923F00103136088680D4B20F001000A
:101CA0008860886820F480708860596A41F4807187
:101CB0005962596A21F480715962136823F0010353
:101CC000136070470064024000E100E00022014020
:101CD0000038024010B54FF4806200210F4827F011
:101CE000EEFFFFF73DFF0E4A0E49936A0E484FF094
:101CF000007443F001039362C1F884414C6083682F
:101D00004FF0804143F0010383600B6843F001030F
:101D10000B60936ADB07FCD4004810BD741A0020E6
:101D20000064024000E100E000220140042070470E
:101D3000402070474FF42070704700BF82B00E4BB8
:101D400000220092596C41F480415964586C00F4AF
:101D50008040009000980192186C40F08050186408
:101D60001B6C03F080530193019B0F216FF0010066
:101D700002B007F057B900BF003802400B4B0268B1
:101D80009A4200D0704782B000220192D3F83028E6
:101D900042F48052C3F8302803F500631B6B03F450
:101DA00080530193019B02B0704700BF0030024096
:101DB0002DE970432E4B02688AB000249A42CDE987
:101DC0000444CDE90644089402D00AB0BDE870830B
:101DD000284D01942B6B284843F004032B632B6B95
:101DE00003F004030193019B02942B6B43F0010366
:101DF0002B632B6B03F0010302934FF400724FF03F
:101E000001084FF00309042604A91223CDE9042395
:101E1000CDE90689029B089607F07AF904A94FF4E8
:101E20008072122315480896CDE90423CDE906896E
:101E300007F06EF903942B6C43F400032B642B6CB6
:101E400003F400032246052103934820039B07F077
:101E5000E9F8482007F024F92B6A43F400032B62C9
:101E60002B6A23F400032B620AB0BDE8708300BF25
:101E7000005C0040003802400008024000000240C0
:101E80002DE9F04104469AB0002130220EA8CDE998
:101E90000811CDE90A110C9127F011FF674B226858
:101EA0009A4202D01AB0BDE8F081C0230821042272
:101EB00012930EA84FF400330E911492179309F069
:101EC00091FB002840F0B7805D4B5E4800240194F0
:101ED0005A6C42F080625A645A6C02F0806201923D
:101EE000019A02941A6B42F020021A631A6B02F0F4
:101EF00020020292029A03941A6B42F001021A63C2
:101F00001A6B02F001020392039A04941A6B42F0D6
:101F100002021A631A6B02F002020492049A0594F8
:101F20001A6B42F040021A631A6B02F040020592EB
:101F3000059A06941A6B42F004021A631A6B02F0B7
:101F400004020692069A07941A6B42F008021A637A
:101F50001B6B03F00803002602270E25079308A930
:101F60004FF480620223CDE90823CDE90A67079B7D
:101F70000C9507F0CDF808A941F658020223324823
:101F80000C95CDE908234FF00908CDE90A6707F061
:101F9000BFF808A9032202232C48CDF83080CDE9F0
:101FA0000823CDE90A6707F0B3F808A94FF4706277
:101FB000022326480C95CDE90823CDE90A6707F0EE
:101FC000A7F808A94FF40C62022321480C95CDE92B
:101FD0000823CDE90A6707F09BF808A9C02202236D
:101FE0001C480C95CDE90823CDE90A6707F090F865
:101FF00008A90822022318480C95CDE90823CDE949
:102000000A6707F085F8022308A94FF4A052104888
:10201000CDF83080CDE90823CDE90A6707F078F8DC
:1020200022460521582006F0FDFF582007F038F819
:102030001AB0BDE8F081FFF739FD45E700680140BF
:102040000038024000140240000002400004024038
:102050000018024000080240000C0240000000008E
:1020600010B51B4A016888B000239142CDE90233C4
:10207000CDE90433069301D008B010BD02F56842E3
:102080000093506C40F480105064506C00F4801049
:10209000009000980193136B0E4843F020031363E4
:1020A000136B9FED097B03F02003019303220523AB
:1020B00002A98DED027BCDE90523019C07F028F8EC
:1020C00008B010BDAFF300808003000002000000E4
:1020D000005001400014024000B5214A03689342B9
:1020E00085B008D0B3F1804F23D01E4A934211D05F
:1020F00005B05DF804FB1C4B002201925A6C42F0C3
:1021000001025A645B6C03F001030193019B05B06B
:102110005DF804FB144B002203921A6C42F0020299
:102120001A641B6C03F002030393039B05B05DF874
:1021300004FB03F50E3300220292196C41F00101F9
:1021400019641B6C03F0010302931C200521029B00
:1021500006F068FF1C2005B05DF804EB06F0A0BF98
:10216000000001400004004000380240F0B52B4B55
:1021700089B01C6800220492002C4CD10127284A07
:1021800001941F60936B27483B439363936B3B40E1
:1021900003260C254FF63F02019302A90223CDE945
:1021A0000223CDE90565019B06F0B2FF1E480297A8
:1021B00002A90227CDE90374CDE9056506F0A8FF61
:1021C00048F233131948029302A9CDE90374CDE90B
:1021D000056506F09DFF4FF683731548029302A92B
:1021E000CDE90374CDE9056506F092FF4CF2037367
:1021F0001048029302A9CDE90374CDE9056506F004
:1022000087FF60230C48039702A9CDE90446069591
:10221000029306F07DFF09B0F0BD00BF741E0020E0
:10222000003802400014024000080240001802403A
:1022300000100240000C02400004024070B588B05B
:10224000234B002202921A6C42F010021A641B6C9B
:1022500003F010030293054601A903A8029B09F0AD
:102260009FF9069BD3B909F08BF90346194A1A4C1A
:102270001A49A2FB03239B0C013B0022C4E9001373
:10228000204640F2E7332261A260A261E36009F0D8
:10229000B7FF064630B1304608B070BD09F070F99E
:1022A0004300E3E720460AF039F806460028F2D159
:1022B000362006F0F5FE0F2D01D90126EBE7324658
:1022C0002946362006F0AEFE054B1D60E3E700BF51
:1022D0000038024083DE1B43781E002000100040BF
:1022E00080000020704700BFFEE700BFFEE700BF90
:1022F000FEE700BFFEE700BF704700BF08B5C8207B
:1023000006F06CFE04480022202107F045F8BDE8E5
:102310000840082007F050B80010024001480AF0B9
:1023200041B800BF781E0020014807F0A5BF00BFDC
:10233000EC180020014808F019BD00BF401900202A
:102340000120704708B527F0B3FD162303604FF056
:10235000FF3008BD08B527F0ABFD16230360FEE78C
:1023600070B5161E07DD0C468D19AFF3008004F81A
:10237000010BA542F9D1304670BD00BF70B5161EE5
:1023800007DD0C468D1914F8010BAFF30080AC4249
:10239000F9D1304670BD00BF4FF0FF30704700BF2D
:1023A0004FF400534B600020704700BF012070477E
:1023B000002070470B4A08B50346106828B1034453
:1023C00069468B4207D8136008BD07481060034474
:1023D00069468B42F7D927F06BFD0C2303604FF061
:1023E000FF3008BDC01E0020E0390120704710B545
:1023F0000421044626F04BFC204610BD08B50329F5
:1024000013D8DFE801F002060A0E05F04DFE006861
:1024100008BD05F049FE4068FAE705F045FE806812
:10242000F6E705F041FEC068F2E70020F0E70000A3
:1024300000487047A4B102080D20704713B500246E
:1024400051B1036801948DF8034001AA9C680DF115
:102450000303A04702B010BD0846FBE7C0897047E0
:10246000008A7047C088704780887047807A00F083
:102470007F007047807AC009704770477047704787
:1024800070477047704730B50368018185B06D466D
:102490000146D3F8843004462846984795E807005B
:1024A0003C3484E8070005B030BD30B50368418195
:1024B00085B06D460146D3F88430044628469847D7
:1024C00095E807003C3484E8070005B030BD0022E1
:1024D000028042808280C280704780F83610704748
:1024E00070B5036804461B6B154698472368294658
:1024F00020465B6EBDE87040184700207047806C36
:10250000704770477047704730B4C26844685510D0
:10251000034604EB6200D20748BF62599B6830BC97
:1025200048BFD358184743682BB183682BB9C0689C
:1025300000F001007047184670470120704710B541
:102540000821044626F0A3FB204610BD10B54C21FF
:10255000044626F09CFB204610BD10B51021044611
:1025600026F095FB204610BD10B5034B03600446D2
:1025700010F014FE204610BD10B5020807B5074B39
:102580000360019010F00AFE01984FF48A5126F082
:102590007EFB019803B05DF804FB00BF10B5020894
:1025A00008B5FEF73BFD08BD036870B55E6B124BC6
:1025B0001B6804468DB22BB9104B114A6C2111488F
:1025C00027F078F91049828D0988914203D80F4B82
:1025D0000B4A6D21F3E713F812200D4B1B6853F8DB
:1025E000220003681B6B9847281A01B23346204625
:1025F000BDE87040184700BFFC2D0120A8B20208BA
:10260000EAB2020825B30208002E01206CB30208CA
:10261000042E012038B500F51073994204460D468A
:1026200003D112F0BDFA01F021F904F534739D4293
:1026300003D112F0B5FA01F0D9F904F52274A542DC
:1026400005D112F0ADFABDE8384001F0DFB938BD70
:1026500000224FF0FF31C0E900218260704770B561
:10266000036804461B6B1546984723682946204695
:102670005B6BBDE87040184770B504461D46BDF958
:102680001060FFF7ECFF2368294620469B6B9847B4
:10269000236831462046DB6BBDE8704018470000D8
:1026A0000022C0E90122C0E90322C0E90522C0E9F5
:1026B00007224FF480728284014A0260704700BF93
:1026C000F0B3020810B526220446002127F0F7FADD
:1026D0002046FFF7E5FF0A4B23600A4BA3624FF643
:1026E000FF73A3854FF47F020023C4E90C324FF03F
:1026F000FF32C4E910232387E363204610BD00BFE7
:1027000018DD020858B402081A4B73B51B88018FF4
:102710008B4206462BD9184B1B682BB9174B184A0E
:1027200018486C2127F0C6F813F81120164B1B68C7
:1027300053F82250154B186805F0A6FC2B68019041
:102740009B6B284698472B6801999B6C044628464A
:1027500098472B6801995B6A14FB00F42846984758
:10276000A4B223181BB2A6F8463002B070BD0023F5
:10277000F9E700BF002E0120FC2D0120A8B20208BD
:10278000EAB2020825B30208042E0120082E012017
:102790002DE9F04F2DED068B04468DB0A3460025A4
:1027A00013F07EFE664BE5634BF8403B262229463C
:1027B000584627F084FA5846FFF772FF04F16C0A76
:1027C000FF26604B236426224FF6FF73294684F8C8
:1027D00066605046A566ADF8283027F070FA50467E
:1027E000FFF75EFF584BE366BDF82830A4F892303F
:1027F0000AA9504604F1980984F894600FF0C7FCC8
:102800004846FFF75FFF04F1E407504BC4F89830E7
:10281000C4F8E05038460EF083FB04F5AA7318465E
:102820000393FEF70FFC4A4BC4F8543104F5B47817
:102830002433C4F85C31C4F860514046FFF742FFCE
:1028400004F5D873184608EE103AFFF73BFF04F57D
:10285000FC73184608EE903AFFF734FF04F5107346
:10286000184609EE103A0FF0D3FD04F5227318460E
:1028700009EE903A0FF0CCFD04F5347318460AEED9
:10288000103A0FF0C5FD334A04F58053C3E94C24D8
:10289000314A4FF46161C3E94E2504F5487010F0E8
:1028A00073FC4FF4A0732A46584600932946F02340
:1028B000FFF7E2FE261D4FF07F43A36659463046E0
:1028C0000CF0D6FE2A4650462946FFF7C8FE0923DB
:1028D00050460AA9ADF828300FF059FC5146304651
:1028E0000CF0C6FE4FF49A7259214846FFF7B7FE26
:1028F000D4F89830A4F8CC500DF1100A4FF0FF3BFB
:102900005046D3F88430C4F8C8B0494698479AE88E
:10291000070004F1D40383E80700104B1B6804F59B
:10292000467A2BB90E4B0F4A60210F4826F0C2FFA2
:102930000E4B1B88142B1DD80D4B0A4A6121F4E75E
:1029400010B50208A8DD020870DF020868B40208AA
:10295000DCDA0208F8B4020815260008FC2D012074
:10296000A8B20208AAB3020825B30208002E01206B
:102970006CB30208934B1421186805F085FB924A4A
:1029800003460421504615F07BFA4846C4F8E0A0FF
:102990000FF002F88D4B0A930AA915234846ADF8AB
:1029A0002C300FF019F8494630460CF061FE0A232E
:1029B00000933222F02329463846FFF75DFE039B41
:1029C000C4F80C31A02211463846C4F860B1A4F80E
:1029D00064B10EF0BBFBA0224FF4EB5138460EF071
:1029E000C0FBD4F82031202B05D02023C4F820319F
:1029F00038460EF0B5FA384601210EF0BDFB3946D7
:102A0000304604AD4FF0FF370CF032FE4FF0000AB5
:102A10003C2240464621FFF722FE41462846C4F8A4
:102A20009871A4F89CA10EF03DFD95E8070008F10F
:102A30003C0383E80700DFF89491CDF828900D233C
:102A40000AA94046ADF82C300EF0C6FF414630468C
:102A50000CF00EFE18EE100A23224521FFF7FFFDB1
:102A600018EE101A2846C4F8E071A4F8E4A10EF09C
:102A700019FD95E8070018EE103A3C3383E807008B
:102A80004A2318EE100A0AA9ADF82C30CDF8289088
:102A90000EF0A2FF18EE101A30460CF0E9FD18EE09
:102AA000900A0C223621FFF7DAFD18EE901A28461C
:102AB000C4F82872A4F82CA20EF0F4FC95E80700E4
:102AC00018EE903A3C3383E80700492318EE900A49
:102AD0000AA9ADF82C30CDF828900EF07DFF18EE45
:102AE000901A30460CF0C4FD19EE100AF022212194
:102AF000FFF7B5FD4FF003090AAA4FF0020809A934
:102B000019EE100AADF82490ADF8288004F5895527
:102B10000FF047F94823A4F87832103519EE100A5F
:102B2000FFF7F2FD19EE101A3046C4E99F77C4F89A
:102B300068520CF09DFD19EE900AAA222121FFF7A0
:102B40008EFD0AAA09A919EE900AADF82490ADF8F5
:102B500028800FF026F94723A4F8C03219EE900A16
:102B6000FFF7D2FD19EE901A3046C4E9B177C4F8E8
:102B7000B0520CF07DFD1AEE100A64222121FFF7FD
:102B80006EFD0AAA09A91AEE100AADF82490ADF854
:102B900028800FF006F946231AEE100AA4F808332D
:102BA000FFF7B2FD3046C4E9C3771AEE101AC4F835
:102BB000F8520CF05DFD20460DB0BDEC068BBDE873
:102BC000F08F00BF082E0120E2B3020858B40208BB
:102BD0007047704730B4C26844685510034604EB30
:102BE0006200D20748BF62599B6830BC48BFD358C7
:102BF000184743682BB183682BB9C06800F0010007
:102C00007047184670470120704710B510210446E0
:102C100026F03DF8204610BD10B5034B0360044676
:102C200010F0BCFA204610BD5CB5020807B5074B92
:102C30000360019010F0B2FA019841F25C0126F0B5
:102C400026F8019803B05DF804FB00BF5CB50208EC
:102C50009830884208B505D111F0A2FFBDE80840C0
:102C600000F0B4BE08BD00002DE9F04F2DED028B41
:102C700004468DB0A146002513F012FCA54BE56378
:102C800049F8403B26222946484627F018F848468E
:102C9000FFF706FD04F16C08FF269F4B23642622F4
:102CA0004FF6FF73294684F866604046A566ADF886
:102CB000283027F004F84046FFF7F2FC974BE36614
:102CC000BDF82830A4F892300AA904F1980B4046C8
:102CD00084F894600FF05BFA58460FF099FB04F10A
:102CE000E00304F59477184608EE903AFFF7EAFC03
:102CF00038460EF015F904F5CC7318460393FEF729
:102D0000A1F9874BC4F898312433C4F8A03104F5F5
:102D1000D6731846C4F8A45104F5FA7A08EE103AAE
:102D2000FFF7D0FC5046FFF7CDFC7E4A04F58053F8
:102D3000C3E913247C4A4FF46161C3E9152504F506
:102D40000F7010F021FA4FF4A0732A464846009302
:102D50002946F023FFF790FC261D4FF07F43A36622
:102D6000494630460CF084FC2A4640462946FFF787
:102D700076FC4FF0090940460AA9ADF828900FF0FB
:102D800006FA414630460CF073FC584640F20112F8
:102D90002121FFF764FC03230AAA09A95846ADF8CC
:102DA00024300223ADF828300EF0FBFF5846A4F87B
:102DB000D090FFF7A9FC04F582530C334FF0FF3994
:102DC000C4F8C03059463046C4E935990CF050FC7F
:102DD0000DF110083C2218EE900A2021FFF73FFC6D
:102DE00018EE901A4046C4F81091A4F814510EF051
:102DF00059FB98E8070004F58E7383E80700DFF8B5
:102E00002CB1CDF828B00A2318EE900A0AA9ADF823
:102E10002C300EF0E1FD18EE901A30460CF028FC34
:102E20000A2300933222F02329463846FFF724FC78
:102E3000039BC4F85031A02211463846C4F8A4912F
:102E4000A4F8A8910EF082F9A0224FF4EB51384675
:102E50000EF087F9D4F86431202B05D02023C4F874
:102E6000643138460EF07CF8384601210EF084F9C2
:102E7000394630460CF0FCFB4FF0FF3718EE100AD5
:102E8000232200254521FFF7EAFB18EE101A4046E1
:102E9000C4F8DC71A4F8E0510EF004FB98E80700D8
:102EA00018EE103A3C3383E807000B2318EE100AA3
:102EB0000AA9ADF82C30CDF828B00EF08DFD18EE33
:102EC000101A30460CF0D4FB0C2250463621FFF786
:102ED000C6FB51464046C4F82472A4F828520EF0AE
:102EE000E1FA98E807000AF13C0383E807000C23A5
:102EF0000AA95046ADF82C30CDF828B00EF06CFD84
:102F0000304651460CF0B4FB20460DB0BDEC028BB0
:102F1000BDE8F08F5CB50208A8DD020870DF02088A
:102F2000DCDA020844B50208512C000858B4020843
:102F30007047704730B4C26844685510034604EBCC
:102F40006200D20748BF62599B6830BC48BFD35863
:102F5000184743682BB183682BB9C06800F00100A3
:102F60007047184670470120704710B5102104467D
:102F700025F08DFE204610BD10B5034B03600446BE
:102F800010F00CF9204610BDA8B5020807B5074B94
:102F90000360019010F002F9019841F25C0125F004
:102FA00076FE019803B05DF804FB00BFA8B50208E7
:102FB0009830884208B505D111F0F2FDBDE808400F
:102FC00000F004BD08BD00002DE9F04F2DED028B8F
:102FD00004468DB0A146002513F062FAA54BE563C7
:102FE00049F8403B26222946484626F068FE4846D6
:102FF000FFF756FB04F16C08FF269F4B2364262243
:103000004FF6FF73294684F866604046A566ADF822
:10301000283026F054FE4046FFF742FB974BE3660C
:10302000BDF82830A4F892300AA904F1980B404664
:1030300084F894600FF0ABF858460FF0E9F904F10A
:10304000E00304F59477184608EE903AFFF73AFB50
:1030500038460DF065FF04F5CC7318460393FDF771
:10306000F1FF874BC4F898312433C4F8A03104F53C
:10307000D6731846C4F8A45104F5FA7A08EE103A4B
:10308000FFF720FB5046FFF71DFB7E4A04F58053F7
:10309000C3E913247C4A4FF46161C3E9152504F5A3
:1030A0000F7010F071F84FF4A0732A464846009351
:1030B0002946F023FFF7E0FA261D4FF07F43A36671
:1030C000494630460CF0D4FA2A4640462946FFF7D6
:1030D000C6FA092340460AA9ADF828300FF057F880
:1030E000414630460CF0C4FA584640F20112212104
:1030F000FFF7B5FA03230AAA09A95846ADF8243008
:103100000223ADF828300EF04CFE0F235846A4F8E9
:10311000D030FFF7F9FA04F582530C334FF0FF3942
:10312000C4F8C03059463046C4E935990CF0A0FACD
:103130000DF110083C2218EE900A3A21FFF78FFAA1
:1031400018EE901A4046C4F81091A4F814510EF0ED
:10315000A9F998E8070004F58E7383E80700DFF803
:103160002CB1CDF828B00E2318EE900A0AA9ADF8BC
:103170002C300EF031FC18EE901A30460CF078FA34
:103180000A2300933222F02329463846FFF774FAC7
:10319000039BC4F85031A02211463846C4F8A491CC
:1031A000A4F8A8910DF0D2FFA0224FF4EB513846BD
:1031B0000DF0D7FFD4F86431202B05D02023C4F8BC
:1031C000643138460DF0CCFE384601210DF0D4FFB5
:1031D000394630460CF04CFA4FF0FF3718EE100A23
:1031E000232200254521FFF73AFA18EE101A40462F
:1031F000C4F8DC71A4F8E0510EF054F998E8070027
:1032000018EE103A3C3383E80700102318EE100A3A
:103210000AA9ADF82C30CDF828B00EF0DDFB18EE81
:10322000101A30460CF024FA0C2250463621FFF7D3
:1032300016FA51464046C4F82472A4F828520EF0FB
:1032400031F998E807000AF13C0383E807001123ED
:103250000AA95046ADF82C30CDF828B00EF0BCFBD2
:10326000304651460CF004FA20460DB0BDEC028BFE
:10327000BDE8F08FA8B50208A8DD020870DF0208DB
:10328000DCDA020890B50208B12F000858B4020831
:103290007047704700F598730868496803C3704722
:1032A000704770474160704710B50022B1F908407F
:1032B000B1F90A10028042808480C18010BD70473D
:1032C00070470000064BC0F84C310023C0F8503165
:1032D00000F5A273C0F84801C0F84031704700BF44
:1032E00081360008012303727047704770477047AA
:1032F0007047704701464068036810315B6E18479D
:1033000001464068036810311B6E1847704701463C
:103310004068036810315B6E1847014640680368D7
:1033200010311B6E1847704710B4C26841685410C2
:10333000034601EB6200D20748BF0A599B685DF85B
:10334000044B48BFD358184743682BB183682BB947
:10335000C06800F0010070471846704701207047B0
:1033600010B50C21044625F092FC204610BD10B586
:103370001021044625F08BFC204610BD10B54FF4FB
:10338000AE71044625F083FC204610BD10B53821EF
:10339000044625F07CFC204610BD10B528210446CB
:1033A00025F075FC204610BD10B53821044625F0E7
:1033B0006EFC204610BD10B511F0F2FB0368BDE8AD
:1033C0001040DB6B1847000013B50446807A637A1F
:1033D0000130C0B29842A07205D9012323720023A4
:1033E000A37202B010BDB4F90C20002113F00AFA48
:1033F00010F0010283B22AD1E081194AB4F90E001B
:10340000E3891288B4F91410A0820020D21AADF812
:103410000200606822835B1A124AADF80430036828
:10342000B2F900201B69ADF80010ADF8062069461E
:103430009847A37A012BD4D10B4B1B78002BD0D00B
:1034400011F0AEFB02B0BDE8104011F0AFBB4FF67B
:10345000FF710028D8BF0A461344E381CDE700BFBF
:10346000982D01209A2D0120A22D012010B504468F
:10347000D0F8400158B10368DB68984738B1D4F8F8
:10348000400103689B6898470023C4F8403110BD91
:103490002DE9F14FD0E9555A0746A86803681B6A21
:1034A0009847972805D8464B464AA321464826F018
:1034B00001FA686803681B6A98470F2803D8434BD2
:1034C000404AA421F2E7E86803681B6A98470B2882
:1034D00003D83F4B3B4AA521E8E711F061FBDFF839
:1034E000F890043011F0C2FBD9F8000010B1036865
:1034F000DB689847D9F8000010B103681B6898474B
:10350000DFF8D880D8F8000010B103685B699847ED
:10351000D7F83C0110B103685B689847D8F8000001
:1035200010B103681B689847D7F83C0110B10368D5
:103530009B689847E868036800215B6A98474FF0EA
:10354000000B244B03600446C0F804B080F808B0B8
:10355000A868036859465B6A9847064605F076FAFC
:103560006868036859465B6A98473146054605F026
:1035700049FAC9F80040C7F83C51C8F80060E5B105
:103580002B1DCAF800303368C5F808A03046DB6848
:10359000F56398472B6828461B68984721463046B4
:1035A00013F02AF9236820461B69984723685B6952
:1035B000204601B0BDE8F04F18472B46E1E700BFB9
:1035C000D4B5020862B6020870B70208B7B702089D
:1035D0005AB8020878CC0208EC2D0120E82D012011
:1035E00037B50446807A637A0130C0B29842A0723F
:1035F00005D9012323720023A37203B030BDB4F9AF
:103600000C20002113F0FEF810F0010283B228D143
:10361000E081184B18481988258BE389B0F9000020
:10362000ADF80600CA1A60682B445B1A12B2ADF8F6
:10363000043003682283ADF8002000221B69ADF836
:10364000022069469847A37A012BD6D10B4B1B78F1
:10365000002BD2D011F0A4FA03B0BDE8304011F035
:10366000A5BA4FF6FF710028D8BF0A461344E3817C
:10367000CFE700BF982D01209A2D0120A22D012017
:103680002DE9F14FD0E9555A0746A86803681B6A2F
:10369000984741F27B13984205D8464B464AA321EE
:1036A000464826F007F9686803681B6A98470F28A0
:1036B00003D8434B404AA421F2E7E86803681B6A39
:1036C00098470B2803D83F4B3B4AA521E8E711F068
:1036D00067FADFF8F890043011F0C8FAD9F8000062
:1036E00010B10368DB689847D9F8000010B103688F
:1036F0001B689847DFF8D880D8F8000010B103683D
:103700005B699847D7F83C0110B103685B6898473C
:10371000D8F8000010B103681B689847D7F83C013F
:1037200010B103689B689847E868036800215B6AEA
:1037300098474FF0000B244B03600446C0F804B0D8
:1037400080F808B0A868036859465B6A984706463F
:1037500004F020FE6868036859465B6A9847314662
:10376000054604F0F1FDC9F80040C7F83C51C8F81F
:103770000060E5B12B1DCAF800303368C5F808A019
:103780003046DB68F56398472B6828461B689847E6
:103790002146304613F030F8236820461B699847CD
:1037A00023685B69204601B0BDE8F04F18472B46FF
:1037B000E1E700BFD4B50208FDB8020870B70208FF
:1037C000B7B702085AB8020878CC0208EC2D0120DD
:1037D000E82D0120044B1B6893F858200AB1D86CDF
:1037E00000B99868704700BFA42D0120F8B50446C1
:1037F00017460E4611F008FB104B1C60104B23605F
:10380000104B0025C4E951350F4BC4E953551868D6
:10381000036801219B68C4E94F55C4E95576984770
:10382000284604F0F5FBFFF7D5FF1AF0B2FEFFF7CC
:10383000D1FF1AF029FF2046F8BD00BFF82D012066
:1038400024CC02080CCC0208A42D0120064BC0F8A1
:103850004C310023C0F8503100F5A273C0F8480184
:10386000C0F84031704700BF81360008064BC0F8F1
:103870004C310023C0F8503100F5A273C0F8480164
:10388000C0F84031704700BF913E0008064BC0F8B9
:103890004C310023C0F8503100F5A273C0F8480144
:1038A000C0F84031704700BFB54C0008064BC0F867
:1038B0004C310023C0F8503100F5A273C0F8480124
:1038C000C0F84031704700BF513D0008064BC0F8BA
:1038D0004C310023C0F8503100F5A273C0F8480104
:1038E000C0F84031704700BF754B0008064BC0F868
:1038F0004C310023C0F8503100F5A273C0F84801E4
:10390000C0F84031704700BF354A0008064BC0F888
:103910004C310023C0F8503100F5A273C0F84801C3
:10392000C0F84031704700BFF5480008064BC0F8AA
:103930004C310023C0F8503100F5A273C0F84801A3
:10394000C0F84031704700BFB5470008064BC0F8CB
:103950004C310023C0F8503100F5A273C0F8480183
:10396000C0F84031704700BF113C0008064BC0F85A
:103970004C310023C0F8503100F5A273C0F8480163
:10398000C0F84031704700BF75460008064BC0F8CC
:103990004C310023C0F8503100F5A273C0F8480143
:1039A000C0F84031704700BF35450008064BC0F8ED
:1039B0004C310023C0F8503100F5A273C0F8480123
:1039C000C0F84031704700BFF5430008064BC0F80F
:1039D0004C310023C0F8503100F5A273C0F8480103
:1039E000C0F84031704700BFD13A0008064BC0F81C
:1039F0004C310023C0F8503100F5A273C0F84801E3
:103A0000C0F84031704700BFB5420008064BC0F80F
:103A10004C310023C0F8503100F5A273C0F84801C2
:103A2000C0F84031704700BF75410008064BC0F830
:103A30004C310023C0F8503100F5A273C0F84801A2
:103A4000C0F84031704700BF35400008064BC0F851
:103A50004C310023C0F8503100F5A273C0F8480182
:103A6000C0F84031704700BF9134000803685B6ABA
:103A700018470000124B13B503604FF48073436383
:103A8000104B417203611049104BB1F90010B3F9AA
:103A9000003083810022426002728272C281C0E9DA
:103AA0000522C0E90722C0E90922C0E90B22044629
:103AB000009110301146FEF7DFFD204602B010BD28
:103AC000C0CC0208A4CB02089A2D0120982D012019
:103AD0002DE9F047D0E9554A0746A06803681B6AFC
:103AE0009847B0F58A5F05D2424B434AA321434829
:103AF00025F0E0FE606803681B6A98470F2803D82A
:103B00003F4B3D4AA421F2E7E06803681B6A9847EF
:103B1000372803D83B4B384AA521E8E711F040F895
:103B2000DFF8E490043011F0A1F8D9F8000010B1EA
:103B30000368DB689847D9F8000010B103681B6878
:103B40009847DFF8C880D8F8000010B103685B69B7
:103B50009847D7F83C0110B103685B689847D8F8DC
:103B6000000010B103681B689847D7F83C0110B1FA
:103B700003689B689847E0680021FFF777FF1421EE
:103B80000546FFF777FFA068036800215B6A984746
:103B9000064604F0DBFA6068036800215B6A984718
:103BA0003146044604F0ACFAC9F80050C7F83C416D
:103BB000C8F80060DCB1231DCAF800303368C4F8CF
:103BC00008A03046DB68F4639847236820461B68EA
:103BD00098472946304612F00FFE2B6828461B698D
:103BE00098472B6828465B69BDE8F047184723468D
:103BF000E2E700BFD4B5020805BA020870B70208B0
:103C0000B7B702085AB80208EC2D0120E82D0120B0
:103C10002DE9F047D0E9554A0746A06803681B6ABA
:103C20009847B0F58A5F05D2424B434AA3214348E7
:103C300025F040FE606803681B6A98470F2803D888
:103C40003F4B3D4AA421F2E7E06803681B6A9847AE
:103C5000372803D83B4B384AA521E8E710F0A0FFEE
:103C6000DFF8E490043011F001F8D9F8000010B149
:103C70000368DB689847D9F8000010B103681B6837
:103C80009847DFF8C880D8F8000010B103685B6976
:103C90009847D7F83C0110B103685B689847D8F89B
:103CA000000010B103681B689847D7F83C0110B1B9
:103CB00003689B689847E0680021FFF7D7FE14214E
:103CC0000546FFF7D7FEA068036800215B6A9847A6
:103CD000064604F01FFC6068036800215B6A984791
:103CE0003146044604F0F0FBC9F80050C7F83C41E7
:103CF000C8F80060DCB1231DCAF800303368C4F88E
:103D000008A03046DB68F4639847236820461B68A8
:103D100098472946304612F06FFD2B6828461B69EC
:103D200098472B6828465B69BDE8F047184723464B
:103D3000E2E700BFD4B5020823BB020870B702084F
:103D4000B7B702085AB80208EC2D0120E82D01206F
:103D50002DE9F047D0E9554A0746A06803681B6A79
:103D60009847B0F58A5F05D2424B434AA3214348A6
:103D700025F0A0FD606803681B6A98470F2803D8E8
:103D80003F4B3D4AA421F2E7E06803681B6A98476D
:103D9000372803D83B4B384AA521E8E710F000FF4D
:103DA000DFF8E490043010F061FFD9F8000010B1A2
:103DB0000368DB689847D9F8000010B103681B68F6
:103DC0009847DFF8C880D8F8000010B103685B6935
:103DD0009847D7F83C0110B103685B689847D8F85A
:103DE000000010B103681B689847D7F83C0110B178
:103DF00003689B689847E0680021FFF737FE1421AD
:103E00000546FFF737FEA068036800215B6A984704
:103E1000064604F01FFB6068036800215B6A984750
:103E20003146044604F0F0FAC9F80050C7F83C41A6
:103E3000C8F80060DCB1231DCAF800303368C4F84C
:103E400008A03046DB68F4639847236820461B6867
:103E500098472946304612F0CFFC2B6828461B694C
:103E600098472B6828465B69BDE8F047184723460A
:103E7000E2E700BFD4B5020853BC020870B70208DD
:103E8000B7B702085AB80208EC2D0120E82D01202E
:103E90002DE9F047D0E9554A0746A06803681B6A38
:103EA000984741F27B13984205D8424B424AA321DE
:103EB000424825F0FFFC606803681B6A98470F289A
:103EC00003D83F4B3C4AA421F2E7E06803681B6A31
:103ED0009847372803D83B4B374AA521E8E710F02D
:103EE0005FFEDFF8E490043010F0C0FED9F8000067
:103EF00010B10368DB689847D9F8000010B1036877
:103F00001B689847DFF8C480D8F8000010B1036838
:103F10005B699847D7F83C0110B103685B68984724
:103F2000D8F8000010B103681B689847D7F83C0127
:103F300010B103689B689847E0680021FFF796FD81
:103F400014210546FFF796FDA068036800215B6A0F
:103F50009847064604F01EFA6068036800215B6A11
:103F600098473146044604F0EFF9C9F80050C7F805
:103F70003C41C8F80060DCB1231DCAF8003033684A
:103F8000C4F808A03046DB68F463984723682046ED
:103F90001B6898472946304612F02EFC2B682846AD
:103FA0001B6998472B6828465B69BDE8F0471847AE
:103FB0002346E2E7D4B5020871BD020870B70208D3
:103FC000B7B702085AB80208EC2D0120E82D0120ED
:103FD00003685B6A18470000124B13B503604FF487
:103FE00080734363104B417203611049104BB1F968
:103FF0000010B3F9003083810022426002728272A5
:10400000C281C0E90522C0E90722C0E90922C0E94E
:104010000B220446009110301146FEF72DFB20467E
:1040200002B010BD9CCC0208A4CB02089A2D01203E
:10403000982D01202DE9F047D0E9554A0746A068A0
:1040400003681B6A984741F2AF03984205D8424B78
:10405000424AA321424825F02DFC606803681B6A90
:1040600098470F2803D83F4B3C4AA421F2E7E06869
:1040700003681B6A9847372803D83B4B374AA5216A
:10408000E8E710F08DFDDFF8E490043010F0EEFD6D
:10409000D9F8000010B10368DB689847D9F8000030
:1040A00010B103681B689847DFF8C480D8F8000097
:1040B00010B103685B699847D7F83C0110B10368F9
:1040C0005B689847D8F8000010B103681B689847F0
:1040D000D7F83C0110B103689B689847E06800215D
:1040E000FFF776FF14210546FFF776FFA068036807
:1040F00000215B6A9847064604F050FC606803683C
:1041000000215B6A98473146044604F021FCC9F857
:104110000050C7F83C41C8F80060DCB1231DCAF864
:1041200000303368C4F808A03046DB68F463984771
:10413000236820461B6898472946304612F05CFBEE
:104140002B6828461B6998472B6828465B69BDE8A1
:10415000F04718472346E2E7D4B502088BBE0208B1
:1041600070B70208B7B702085AB80208EC2D012050
:10417000E82D01202DE9F047D0E9554A0746A0680F
:1041800003681B6A984741F25B03984205D8424B8B
:10419000424AA321424825F08DFB606803681B6AF0
:1041A00098470F2803D83F4B3C4AA421F2E7E06828
:1041B00003681B6A9847372803D83B4B374AA52129
:1041C000E8E710F0EDFCDFF8E490043010F04EFD6D
:1041D000D9F8000010B10368DB689847D9F80000EF
:1041E00010B103681B689847DFF8C480D8F8000056
:1041F00010B103685B699847D7F83C0110B10368B8
:104200005B689847D8F8000010B103681B689847AE
:10421000D7F83C0110B103689B689847E06800211B
:10422000FFF7D6FE14210546FFF7D6FEA068036807
:1042300000215B6A9847064603F0E2FF6068036866
:1042400000215B6A98473146044603F0B3FFC9F882
:104250000050C7F83C41C8F80060DCB1231DCAF823
:1042600000303368C4F808A03046DB68F463984730
:10427000236820461B6898472946304612F0BCFA4E
:104280002B6828461B6998472B6828465B69BDE860
:10429000F04718472346E2E7D4B50208ABBF02084F
:1042A00070B70208B7B702085AB80208EC2D01200F
:1042B000E82D01202DE9F047D0E9554A0746A068CE
:1042C00003681B6A984741F25B03984205D8424B4A
:1042D000424AA321424825F0EDFA606803681B6A50
:1042E00098470F2803D83F4B3C4AA421F2E7E068E7
:1042F00003681B6A9847372803D83B4B374AA521E8
:10430000E8E710F04DFCDFF8E490043010F0AEFC6C
:10431000D9F8000010B10368DB689847D9F80000AD
:1043200010B103681B689847DFF8C480D8F8000014
:1043300010B103685B699847D7F83C0110B1036876
:104340005B689847D8F8000010B103681B6898476D
:10435000D7F83C0110B103689B689847E0680021DA
:10436000FFF736FE14210546FFF736FEA068036806
:1043700000215B6A9847064603F084FF6068036883
:1043800000215B6A98473146044603F055FFC9F89F
:104390000050C7F83C41C8F80060DCB1231DCAF8E2
:1043A00000303368C4F808A03046DB68F4639847EF
:1043B000236820461B6898472946304612F01CFAAD
:1043C0002B6828461B6998472B6828465B69BDE81F
:1043D000F04718472346E2E7D4B50208D3C00208E5
:1043E00070B70208B7B702085AB80208EC2D0120CE
:1043F000E82D01202DE9F047D0E9554A0746A0688D
:1044000003681B6A9847B0F58A5F05D2424B434A5E
:10441000A321434825F04EFA606803681B6A984759
:104420000F2803D83F4B3D4AA421F2E7E068036818
:104430001B6A9847372803D83B4B384AA521E8E741
:1044400010F0AEFBDFF8E490043010F00FFCD9F868
:10445000000010B10368DB689847D9F8000010B17C
:1044600003681B689847DFF8C880D8F8000010B1CF
:1044700003685B699847D7F83C0110B103685B6833
:104480009847D8F8000010B103681B689847D7F820
:104490003C0110B103689B689847E0680021FFF772
:1044A00097FD14210546FFF797FDA06803680021DA
:1044B0005B6A9847064603F049FE6068036800217E
:1044C0005B6A98473146044603F01AFEC9F800506B
:1044D000C7F83C41C8F80060DCB1231DCAF80030C1
:1044E0003368C4F808A03046DB68F4639847236853
:1044F00020461B6898472946304612F07DF92B6804
:1045000028461B6998472B6828465B69BDE8F04739
:1045100018472346E2E700BFD4B50208F9C10208F4
:1045200070B70208B7B702085AB80208EC2D01208C
:10453000E82D01202DE9F047D0E9554A0746A0684B
:1045400003681B6A984741F2E333984205D8424B0F
:10455000424AA321424825F0ADF9606803681B6A0E
:1045600098470F2803D83F4B3C4AA421F2E7E06864
:1045700003681B6A9847372803D83B4B374AA52165
:10458000E8E710F00DFBDFF8E490043010F06EFB6C
:10459000D9F8000010B10368DB689847D9F800002B
:1045A00010B103681B689847DFF8C480D8F8000092
:1045B00010B103685B699847D7F83C0110B10368F4
:1045C0005B689847D8F8000010B103681B689847EB
:1045D000D7F83C0110B103689B689847E068002158
:1045E000FFF7F6FC14210546FFF7F6FCA068036808
:1045F00000215B6A9847064604F028F86068036863
:1046000000215B6A98473146044603F0F9FFC9F878
:104610000050C7F83C41C8F80060DCB1231DCAF85F
:1046200000303368C4F808A03046DB68F46398476C
:10463000236820461B6898472946304612F0DCF86C
:104640002B6828461B6998472B6828465B69BDE89C
:10465000F04718472346E2E7D4B5020817C302081B
:1046600070B70208B7B702085AB80208EC2D01204B
:10467000E82D01202DE9F047D0E9554A0746A0680A
:1046800003681B6A984741F2E333984205D8424BCE
:10469000424AA321424825F00DF9606803681B6A6D
:1046A00098470F2803D83F4B3C4AA421F2E7E06823
:1046B00003681B6A9847372803D83B4B374AA52124
:1046C000E8E710F06DFADFF8E490043010F0CEFA6D
:1046D000D9F8000010B10368DB689847D9F80000EA
:1046E00010B103681B689847DFF8C480D8F8000051
:1046F00010B103685B699847D7F83C0110B10368B3
:104700005B689847D8F8000010B103681B689847A9
:10471000D7F83C0110B103689B689847E068002116
:10472000FFF756FC14210546FFF756FCA068036806
:1047300000215B6A9847064603F046FF60680368FD
:1047400000215B6A98473146044603F017FFC9F819
:104750000050C7F83C41C8F80060DCB1231DCAF81E
:1047600000303368C4F808A03046DB68F46398472B
:10477000236820461B6898472946304612F03CF8CB
:104780002B6828461B6998472B6828465B69BDE85B
:10479000F04718472346E2E7D4B502085BC4020895
:1047A00070B70208B7B702085AB80208EC2D01200A
:1047B000E82D01202DE9F047D0E9554A0746A068C9
:1047C00003681B6A9847B0F58A5F05D2424B434A9B
:1047D000A321434825F06EF8606803681B6A984778
:1047E0000F2803D83F4B3D4AA421F2E7E068036855
:1047F0001B6A9847372803D83B4B384AA521E8E77E
:1048000010F0CEF9DFF8E490043010F02FFAD9F868
:10481000000010B10368DB689847D9F8000010B1B8
:1048200003681B689847DFF8C880D8F8000010B10B
:1048300003685B699847D7F83C0110B103685B686F
:104840009847D8F8000010B103681B689847D7F85C
:104850003C0110B103689B689847E0680021FFF7AE
:10486000B7FB14210546FFF7B7FBA06803680021DA
:104870005B6A9847064603F04DFE606803680021B6
:104880005B6A98473146044603F01EFEC9F80050A3
:10489000C7F83C41C8F80060DCB1231DCAF80030FD
:1048A0003368C4F808A03046DB68F463984723688F
:1048B00020461B6898472946304611F09DFF2B681B
:1048C00028461B6998472B6828465B69BDE8F04776
:1048D00018472346E2E700BFD4B502089BC502088B
:1048E00070B70208B7B702085AB80208EC2D0120C9
:1048F000E82D01202DE9F047D0E9554A0746A06888
:1049000003681B6A984741F2E333984205D8424B4B
:10491000424AA321424824F0CDFF606803681B6A25
:1049200098470F2803D83F4B3C4AA421F2E7E068A0
:1049300003681B6A9847372803D83B4B374AA521A1
:10494000E8E710F02DF9DFF8E490043010F08EF96C
:10495000D9F8000010B10368DB689847D9F8000067
:1049600010B103681B689847DFF8C480D8F80000CE
:1049700010B103685B699847D7F83C0110B1036830
:104980005B689847D8F8000010B103681B68984727
:10499000D7F83C0110B103689B689847E068002194
:1049A000FFF716FB14210546FFF716FBA068036806
:1049B00000215B6A9847064603F08AFF6068036837
:1049C00000215B6A98473146044603F05BFFC9F853
:1049D0000050C7F83C41C8F80060DCB1231DCAF89C
:1049E00000303368C4F808A03046DB68F4639847A9
:1049F000236820461B6898472946304611F0FCFE84
:104A00002B6828461B6998472B6828465B69BDE8D8
:104A1000F04718472346E2E7D4B50208CBC60208A0
:104A200070B70208B7B702085AB80208EC2D012087
:104A3000E82D01202DE9F047D0E9554A0746A06846
:104A400003681B6A984741F2F733984205D8424BF6
:104A5000424AA321424824F02DFF606803681B6A84
:104A600098470F2803D83F4B3C4AA421F2E7E0685F
:104A700003681B6A9847372803D83B4B374AA52160
:104A8000E8E710F08DF8DFF8E490043010F0EEF86D
:104A9000D9F8000010B10368DB689847D9F8000026
:104AA00010B103681B689847DFF8C480D8F800008D
:104AB00010B103685B699847D7F83C0110B10368EF
:104AC0005B689847D8F8000010B103681B689847E6
:104AD000D7F83C0110B103689B689847E068002153
:104AE000FFF776FA14210546FFF776FAA068036807
:104AF00000215B6A9847064603F04AFE6068036837
:104B000000215B6A98473146044603F01BFEC9F852
:104B10000050C7F83C41C8F80060DCB1231DCAF85A
:104B200000303368C4F808A03046DB68F463984767
:104B3000236820461B6898472946304611F05CFEE2
:104B40002B6828461B6998472B6828465B69BDE897
:104B5000F04718472346E2E7D4B502080DC802081B
:104B600070B70208B7B702085AB80208EC2D012046
:104B7000E82D01202DE9F047D0E9554A0746A06805
:104B800003681B6A9847B0F58A5F05D2424B434AD7
:104B9000A321434824F08EFE606803681B6A98478F
:104BA0000F2803D83F4B3D4AA421F2E7E068036891
:104BB0001B6A9847372803D83B4B384AA521E8E7BA
:104BC0000FF0EEFFDFF8E490043010F04FF8D9F862
:104BD000000010B10368DB689847D9F8000010B1F5
:104BE00003681B689847DFF8C880D8F8000010B148
:104BF00003685B699847D7F83C0110B103685B68AC
:104C00009847D8F8000010B103681B689847D7F898
:104C10003C0110B103689B689847E0680021FFF7EA
:104C2000D7F914210546FFF7D7F9A06803680021DA
:104C30005B6A9847064603F051FD606803680021EF
:104C40005B6A98473146044603F022FDC9F80050DC
:104C5000C7F83C41C8F80060DCB1231DCAF8003039
:104C60003368C4F808A03046DB68F46398472368CB
:104C700020461B6898472946304611F0BDFD2B6839
:104C800028461B6998472B6828465B69BDE8F047B2
:104C900018472346E2E700BFD4B502084FC902080F
:104CA00070B70208B7B702085AB80208EC2D012005
:104CB000E82D01202DE9F047D0E9554A0746A068C4
:104CC00003681B6A9847B0F58A5F05D2424B434A96
:104CD000A321434824F0EEFD606803681B6A9847EF
:104CE0000F2803D83F4B3D4AA421F2E7E068036850
:104CF0001B6A9847372803D83B4B384AA521E8E779
:104D00000FF04EFFDFF8E49004300FF0AFFFD9F85A
:104D1000000010B10368DB689847D9F8000010B1B3
:104D200003681B689847DFF8C880D8F8000010B106
:104D300003685B699847D7F83C0110B103685B686A
:104D40009847D8F8000010B103681B689847D7F857
:104D50003C0110B103689B689847E0680021FFF7A9
:104D600037F914210546FFF737F9A06803680021D9
:104D70005B6A9847064603F06DFB60680368002194
:104D80005B6A98473146044603F03EFBC9F8005081
:104D9000C7F83C41C8F80060DCB1231DCAF80030F8
:104DA0003368C4F808A03046DB68F463984723688A
:104DB00020461B6898472946304611F01DFD2B6898
:104DC00028461B6998472B6828465B69BDE8F04771
:104DD00018472346E2E700BFD4B502087BCA0208A1
:104DE00070B70208B7B702085AB80208EC2D0120C4
:104DF000E82D0120806A70477047704710B54FF466
:104E00006271044623F043FF204610BD2DE9F04FA8
:104E10004FF48073804600262DED028B8384B24BC5
:104E20008662C0E90166C0E90366C0E90566C0E9BB
:104E3000076648F82C3B8BB004464046FDF742FC21
:104E400004F1740304F1BC0B1846039304F5827A51
:104E5000FDF738FC5846FDF735FC04F5A879A34D5D
:104E60005046FDF72FFCC4F80451C4F84C61484685
:104E7000FDF728FC04F5CE7304F5F4771846C4F862
:104E80005051C4F8986108EE103AFDF71BFCC4F8C5
:104E90009C51C4F8E46138460CF03CFE944AA26090
:104EA00040466D22D92104ADFDF7D9FB4FF0FF3309
:104EB000E36541462846A4F860600CF0F3FA95E8F3
:104EC000070004F1680C8CE807008A4B08932F2236
:104ED00008A94046ADF824200CF07EFD414620464E
:104EE0000AF0C6FB039B314618466D22FDF7B7FB5F
:104EF000039BA4F8A8604FF0FF32C4F8A420194621
:104F000028460CF0CFFA95E807007A4B0893039BEC
:104F100004F1B00C8CE80700302208A91846ADF85F
:104F200024200CF059FD039B204619460AF0A0FBF3
:104F3000324658467121FDF792FB4FF0FF32C4F81C
:104F4000EC2059462846A4F8F0600CF0ABFA95E83E
:104F5000070004F1F80383E80700664B089308A9EB
:104F600031235846ADF824300CF036FD5946204622
:104F70000AF07EFB50467C224C21FDF770FBD4F8F2
:104F80000431A4F838614FF0FF32C4F8342151469F
:104F90002846D3F88430984795E8070004F5A073B5
:104FA00083E80700534B089308A92E235046ADF819
:104FB00024300CF011FD514620460AF059FB4846BA
:104FC0008B225621FDF74BFBD4F85031A4F88461B5
:104FD0004FF0FF32C4F8802149462846D3F8843088
:104FE000984795E8070004F5C67383E80700414B2E
:104FF000089308A92D234846ADF824300CF0ECFCAA
:10500000494620460AF034FB18EE100A9A2256212F
:10501000FDF725FBD4F89C31A4F8D0614FF0FF32A6
:1050200018EE101AC4F8CC212846D3F884309847DB
:1050300095E8070004F5EC7383E807002D4B08930F
:1050400018EE100A2C2308A9ADF824300CF0C4FC8B
:1050500018EE101A20460AF00BFB042308A9384664
:10506000ADF820300AF096FA122238461C21FDF7DE
:10507000F6FAD4F8E83138469B6BB8219847D4F853
:10508000E8313846DB6B6A2198475C221146384686
:105090000CF0EBFD38465A226FF059010CF06AFE15
:1050A00033465A22384600966FF059010AF01FF92C
:1050B000314638460CF008FE3523082238460521D3
:1050C0000CF0BEFD384601210CF05CFD3846012194
:1050D0000CF05BFD204639460AF0CAFA20460BB0B8
:1050E000BDEC028BBDE8F08FE4CC020868B4020886
:1050F000F000A90058B40208406A7047806A7047FF
:1051000070478B88C0690A68DB0A50F82300104496
:10511000704710B5C2B1137BB3B1547BD27A24026D
:1051200004F4E0641443026A98B202EB8402138828
:105130008B4202D192F9020010BD05D8013880B22D
:1051400004320028F3D1F7E70020F5E710B52C2151
:10515000044623F09CFD204610BD000030B58BB006
:105160000446BDF860500895BDF85C5007959DF861
:10517000505006959DF84C5005959DF84850049563
:105180009DF8445003959DF8405002959DF83C5081
:105190000195BDF83850009510F098FE064B23603D
:1051A000159BE361169B2362199B63621A9BA362A2
:1051B00020460BB030BD00BF78CD02087047704765
:1051C00030B4C26844685510034604EB6200D2074D
:1051D00048BF62599B6830BC48BFD35818474368E2
:1051E0002BB183682BB9C06800F0010070471846E6
:1051F00070470120704710B51021044623F047FD89
:10520000204610BD10B5034B036004460DF0C6FFE9
:10521000204610BDF0CD020807B5074B0360019092
:105220000DF0BCFF019841F27C1123F030FD019894
:1052300003B05DF804FB00BFF0CD020838B500F5FF
:105240003473994204460D4603D10FF0A9FCFEF7D2
:105250001DFB04F522739D4203D10FF0A1FCFEF764
:10526000A5FB04F510739D4203D10FF099FCFEF7E6
:10527000DDFB04F54674A5420AD106480022202130
:1052800004F08AF80FF08CFCBDE83840FEF7DEBB76
:1052900038BD00BF001002402DE9F04F2DED068B08
:1052A00004468FB0A346002511F0FAF86A4BE56377
:1052B0004BF8403B26222946584624F000FD58462C
:1052C000FDF7EEF904F16C0AFF26644B23642622F5
:1052D0004FF6FF73294684F866605046A566ADF820
:1052E000303024F0ECFC5046FDF7DAF95C4BE36615
:1052F000BDF83030A4F892300CA9504604F198095A
:1053000084F894600CF043FF4846FDF7DBF904F1A4
:10531000E407544BC4F89830C4F8E05038460BF01A
:10532000FFFD04F5AA7318460393FBF78BFE4E4B63
:10533000C4F8543104F5B4782433C4F85C31C4F8AB
:1053400060514046FDF7BEF904F5D873184608EEE3
:10535000103AFDF7B7F904F5FC73184608EE903AD9
:10536000FDF7B0F904F51073184609EE103A0DF088
:105370004FF804F52273184609EE903A0DF048F8FC
:1053800004F5347318460AEE103A0DF041F804F5AE
:10539000467318460AEE903A0CF0D2FE334A04F5F2
:1053A0008053C3E95B24324A4FF46161C3E95D2550
:1053B00004F557700DF0E8FE4FF4A0732A465846E6
:1053C00000932946F023FDF757F9261D4FF07F4340
:1053D000A366594630460AF04BF92A4650462946FC
:1053E000FDF73DF9092350460CA9ADF830300CF01B
:1053F000CEFE514630460AF03BF94FF49A725621E0
:105400004846FDF72CF9D4F89830A4F8CC500DF1AB
:10541000100A4FF0FF3B5046D3F88430C4F8C8B0B0
:10542000494698479AE8070004F1D40383E8070047
:10543000104B1B6804F5557A2BB90F4B0F4A6021AE
:105440000F4824F037FA0F4B1B882A2B1ED80E4B1F
:105450000A4A6121F4E700BFF0CD0208A8DD020886
:1054600070DF020868B40208DCDA0208D8CD02084E
:105470003D520008FC2D0120A8B20208AAB3020880
:1054800025B30208002E01206CB30208A54B2A2187
:10549000186802F0F9FDA44A03460421504612F0B0
:1054A000EFFC4846C4F8E0A00CF076FA9F4B0C9352
:1054B0000CA92B234846ADF834300CF08DFA494640
:1054C00030460AF0D5F80A2300933222F023294609
:1054D0003846FDF7D1F8039BC4F80C31A0221146E1
:1054E0003846C4F860B1A4F864B10BF02FFEA022D6
:1054F0004FF4EB5138460BF034FED4F82031202B1A
:1055000005D02023C4F8203138460BF029FD384659
:1055100001210BF031FE3946304604AD4FF0FF3724
:105520000AF0A6F84FF0000A232240464521FDF775
:1055300096F841462846C4F89871A4F89CA10BF04F
:10554000B1FF95E807000DF1300908F13C0383E84D
:105550000700DFF8D8B1CDF830B0502349464046B7
:10556000ADF834300CF038FA414630460AF080F895
:1055700018EE100A0C223621FDF771F818EE101AF9
:105580002846C4F8E071A4F8E4A10BF08BFF95E87D
:10559000070018EE103A3C3383E80700512318EE59
:1055A000100A4946ADF83430CDF830B00CF014FA9A
:1055B00018EE101A30460AF05BF818EE900A3C22FA
:1055C0005821FDF74CF818EE901A2846C4F82872B6
:1055D000A4F82CA20BF066FF95E8070018EE903AAD
:1055E0003C3383E807001A2318EE900A4946ADF8C9
:1055F0003430CDF830B00CF0EFF918EE901A304698
:105600000AF036F819EE100AF0222121FDF727F8EA
:105610004FF0030B4A464FF002080BA919EE100A8F
:10562000ADF82CB0ADF8308004F58B550CF0B9FB1B
:105630005223A4F878320C3519EE100AFDF764F8FD
:1056400019EE101A3046C4E99F77C4F868520AF080
:105650000FF819EE900AAA222121FDF700F84A4618
:105660000BA919EE900AADF82CB0ADF830800CF013
:1056700098FB5323A4F8C03219EE900AFDF744F8C2
:1056800019EE901A3046C4E9B177C4F8B05209F067
:10569000EFFF1AEE100A64222121FCF7E0FF4A46D0
:1056A0000BA91AEE100AADF82CB0ADF830800CF052
:1056B00078FB5423A4F808331AEE100AFDF724F8F7
:1056C0001AEE101A3046C4E9C377C4F8F85209F04C
:1056D000CFFF1AEE900A0522C621FCF7C0FF012376
:1056E000ADF828300A231AEE900AADF82C30ADF848
:1056F00030300AAA0BAB09A9CDF80090ADF824A070
:105700000CF089FC30461AEE901AC4F850A3C4F885
:10571000405309F0ADFF20460FB0BDEC068BBDE84D
:10572000F08F00BF082E0120E2B3020858B402082F
:105730007047704730B4C26844685510034604EBA4
:105740006200D20748BF62599B6830BC48BFD3583B
:10575000184743682BB183682BB9C06800F001007B
:105760007047184670470120704710B51021044655
:1057700023F08DFA204610BD10B5034B036004469C
:105780000DF00CFD204610BD3CCE020807B5074BBE
:10579000036001900DF002FD01984FF48A5123F04F
:1057A00076FA019803B05DF804FB00BF3CCE020816
:1057B00038B500F51073994204460D4603D10FF039
:1057C000EFF9FEF753F804F534739D4203D10FF05F
:1057D000E7F9FEF77BF804F52274A54205D10FF036
:1057E000DFF9BDE83840FEF7A1B838BD2DE9F04F2C
:1057F0002DED068B04468DB0A346002510F050FE1B
:10580000664BE5634BF8403B26222946584624F078
:1058100056FA5846FCF744FF04F16C0AFF26604B29
:10582000236426224FF6FF73294684F866605046AB
:10583000A566ADF8283024F042FA5046FCF730FF58
:10584000584BE366BDF82830A4F892300AA95046B8
:1058500004F1980984F894600CF099FC4846FCF730
:1058600031FF514BC4F8983004F1E4031846C4F8F2
:10587000E05004F5967708EE903AFCF723FF38469F
:105880000BF04EFB04F5CE7318460393FBF7DAFBDF
:10589000464BC4F89C3104F5D8782433C4F8A431BD
:1058A000C4F8A8514046FCF70DFF04F5FC731846F8
:1058B00008EE103AFCF706FF04F51073184609EEDF
:1058C000103A0CF0A5FD04F52273184609EE903A43
:1058D0000CF09EFD04F5347318460AEE103A0CF0F5
:1058E00097FD334A04F58053C3E94C24314A4FF401
:1058F0006161C3E94E2504F548700DF045FC4FF495
:10590000A0732A46584600932946F023FCF7B4FEBC
:10591000261D4FF07F43A3665946304609F0A8FE86
:105920002A4650462946FCF79AFE092350460AA902
:10593000ADF828300CF02BFC5146304609F098FEAB
:105940004FF49A7256214846FCF789FE4FF0FF3318
:10595000C4F8C830D4F89830A4F8CC500DF1100B2E
:10596000D3F884304946584698479BE8070004F12D
:10597000D40383E80700104B1B6804F5467A2BB963
:105980000E4B0F4A60210F4823F094FF0E4B1B88EB
:105990001B2B1DD80D4B0A4A6121F4E73CCE0208AF
:1059A000A8DD020870DF020868B40208DCDA020829
:1059B00024CE0208B1570008FC2D0120A8B202082D
:1059C000AAB3020825B30208002E01206CB3020816
:1059D000954B1B21186802F057FB944A034604219B
:1059E000504612F04DFAC4F8E0A048460BF0D4FF40
:1059F000DFF83CA2CDF828A01C230AA94846ADF840
:105A00002C300BF0E9FF4946304609F031FE3C22CC
:105A100018EE900A3D21FCF722FE4FF0FF3318EEFE
:105A2000901AC4F814315846A4F818510BF03AFDF6
:105A30009BE8070004F5907383E80700292318EE1C
:105A4000900A0AA9ADF82C30CDF828A00BF0C4FFBD
:105A500018EE901A304609F00BFE0A23009332220A
:105A6000F02329463846FCF707FE4FF0FF33A0220B
:105A7000C4F8A831A4F8AC31039BC4F854311146E2
:105A800038460BF063FBA0224FF4EB5138460BF085
:105A900068FBD4F86831202B05D02023C4F8683186
:105AA00038460BF05DFA384601210BF065FB3946AC
:105AB000304609F0DDFD4FF0FF3504AF23224046AC
:105AC0004FF0000A4521FCF7CAFD41463846C4F8AC
:105AD000E051A4F8E4A10BF0E5FC97E8070008F119
