:020000040800F2
:10000000000003204D0600080D1B0008111B00080E
:10001000151B0008191B00081D1B0008000000002C
:1000200000000000000000000000000041D30008B4
:10003000211B000800000000D1D3000895CB000868
:100040009D0600089D0600089D0600089D06000804
:100050009D0600089D0600089D0600089D060008F4
:100060009D060008251B00089D0600089D06000847
:100070009D0600089D0600089D0600089D060008D4
:100080009D0600089D0600089D0600089D060008C4
:100090009D0600089D0600089D0600089D060008B4
:1000A0009D0600089D0600089D0600089D060008A4
:1000B0009D0600089D0600089D0600089D06000894
:1000C0009D0600089D0600089D0600089D06000884
:1000D0009D0600089D0600089D0600089D06000874
:1000E0009D0600089D0600089D0600089D06000864
:1000F0009D0600089D0600089D0600089D06000854
:100100009D0600089D0600089D0600089D06000843
:100110009D0600089D060008451B00089D06000876
:100120009D0600087D1400089D0600089D06000835
:100130009D0600089D0600089D0600089D06000813
:100140009D0600089D0600089D0600089D06000803
:100150009D0600089D0600089D0600089D060008F3
:10016000511B00089D0600089D0600089D0600081A
:100170009D0600089D0600089D060008000000007E
:100180009D0600089D0600089D0600089D060008C3
:100190009D0600089D0600089D0600089D060008B3
:0C01A0005D1B00089D0600089D0600087D
:1001B00010B5054C237833B9044B13B10448AFF3A1
:1001C00000800123237010BD880100200000000082
:1001D000C0BB020808B5034B1BB103490348AFF38A
:1001E000008008BD000000008C010020C0BB020898
:1001F0004B1C012B98BF70472DE9F003911C9B0805
:10020000B1F80480B1F802900A8831F802CC804439
:10021000814402448444D9F80070D8F8006015681D
:10022000DCF80040C9F80060C8F80070CCF8005055
:100230001460D9F80470D8F804605568DCF80440FC
:10024000C9F80460C8F80470CCF804505460083150
:10025000013BD5D1BDE8F00370474B1C012B98BF83
:1002600070472DE9F003911C9B08B1F80480B1F8A8
:1002700002900A8831F802CC00EB580800EB5909CB
:1002800000EB520200EB5C0CD9F80070D8F800606B
:100290001568DCF80040C9F80060C8F80070CCF8B8
:1002A000005014600831013BDFD1BDE8F003704716
:1002B00001F0FF01102A2BDB10F0070F08D010F817
:1002C000013B013A8B422DD010F0070F42B3F6D11B
:1002D000F0B441EA012141EA014122F007047FF034
:1002E00000070023F0E80256083C85EA010586EA8B
:1002F000010685FA47F5A3FA87F586FA47F6A5FAC7
:1003000087F68EB9EED1F0BC01F0FF0102F00702D2
:1003100032B110F8013B013A83EA010313B1F8D17D
:100320000020704701387047002D06BF354603385E
:10033000073815F0010F07D1013015F4807F02BF97
:10034000013015F4C03F0130F0BC0138704700BFE8
:1003500053B94AB9002908BF00281CBF4FF0FF312C
:100360004FF0FF3000F070B9ADF1080C6DE904CE2C
:1003700000F006F8DDF804E0DDE9022304B0704780
:100380002DE9F047089E0D4604460F46002B4AD142
:100390008A42944665D9B2FA82F343B102FA03FC69
:1003A000C3F120029F4020FA02F217439C404FEA1B
:1003B0001C4E1FFA8CF5B7FBFEF1220C0EFB1177D9
:1003C00042EA074201FB05F090420AD91CEB020207
:1003D00001F1FF3780F01C81904240F2198102390F
:1003E0006244121AA4B2B2FBFEF00EFB102244EAE1
:1003F000024400FB05F5A5420AD91CEB040400F1F8
:10040000FF3280F00781A54240F204816444023843
:1004100040EA0140641B00211EB1DC400023C6E914
:100420000043BDE8F0878B4208D9002E00F0ED8034
:100430000021C6E900050846BDE8F087B3FA83F15C
:10044000002949D1AB4202D3824200F2F880841ADB
:1004500065EB030201201746002EE2D0C6E90047F3
:10046000DFE702B9FFDEB2FA82F3002B40F09080A2
:100470008A1A4FEA1C471FFA8CFE0121B2FBF7F5DE
:1004800007FB1520220C42EA00420EFB05F09042C9
:1004900008D91CEB020205F1FF3802D2904200F2AB
:1004A000CB804546121AA4B2B2FBF7F007FB10222C
:1004B00044EA02440EFB00FEA64508D91CEB0404E6
:1004C00000F1FF3202D2A64500F2BB801046A4EB39
:1004D0000E0440EA05409FE7C1F120078B4022FA55
:1004E00007FC4CEA030C05FA01F420FA07F3FD407F
:1004F0004FEA1C492343B5FBF9F81FFA8CFE09FBB0
:1005000018551C0C44EA054408FB0EF5A54202FAF6
:1005100001F200FA01F00BD91CEB040408F1FF3AD8
:1005200080F08880A54240F28580A8F102086444EA
:10053000641B9DB2B4FBF9F309FB134445EA044480
:1005400003FB0EFEA64508D91CEB040403F1FF359E
:100550006CD2A6456AD9023B644443EA0843A3FB34
:100560000295A4EB0E04AC42C846AE4656D353D017
:1005700056B1B0EB080264EB0E0404FA07F7CA4068
:10058000CC401743C6E9007418460021BDE8F08747
:10059000C3F1200102FA03FC20FA01F225FA01F16D
:1005A0009D402A434FEA1C471FFA8CFEB1FBF7F02F
:1005B00007FB1015110C41EA054100FB0EF58D42B9
:1005C00004FA03F408D91CEB010100F1FF382FD223
:1005D0008D422DD902386144491B92B2B1FBF7F527
:1005E00007FB151142EA014205FB0EF1914208D9C1
:1005F0001CEB020205F1FF3816D2914214D9023DDC
:100600006244521A45EA004138E73146304608E76D
:100610003946E6E61046FBE64845A9D2B9EB0208A2
:1006200065EB0C0E013BA3E74546EAE72B4694E752
:100630004046D1E7D0467BE7023D624432E70846B8
:100640000AE76444023842E7704700BFDFF834D05D
:10065000002103E00C4B5B58435004310B480C4B1A
:1006600042189A42F6D30B4A02E0002342F8043BB8
:10067000094B9A42F9D308F08DFB2AF025FD00F0D2
:100680005FFA7047000003200CC40C080000002033
:100690008401002088010020F43E0120FEE70000D4
:1006A00000F1784343F6FE72934205D9A3F58041E9
:1006B000914203D80120704700207047A3F5004104
:1006C000914260D9A3F5404393425ED900F177434C
:1006D00003F57F014FF6FE7291425AD902F580323E
:1006E00003F57E01914252D903F57C01914252D922
:1006F00003F57A01914250D903F5780191424ED920
:1007000003F5760191424CD903F5740191424AD91F
:1007100003F57201914248D9A0F1016043F6FE71E0
:10072000884244D9A0F5804C8C4542D9A0F5004CB4
:100730008C4540D9A0F5404088423ED903F56F0072
:100740004FF6FE7188423AD903F56E01914238D9CD
:1007500003F56C01914238D903F56A01914232D90F
:1007600003F56801914236D903F56601914230D90B
:1007700003F5640191422AD903F56203934294BFC1
:100780001720002070470220704703207047052083
:1007900070470420704706207047072070470820E4
:1007A0007047092070470A2070470B2070470C20C3
:1007B00070470D2070470E2070470F2070471020A3
:1007C0007047112070471320704712207047162081
:1007D0007047152070471420704700BFF0B50746DA
:1007E00083B016460D4608F093FC3846FFF758FFD5
:1007F000044607EB8600FFF753FF431C13481B1BFF
:10080000C0E902430023036001A90223036108F049
:10081000FDFC88B9A6B17F1B0446043D043701E006
:10082000A6420DD07919002355F8042F0220013477
:1008300008F0CCFB0028F3D008F088FC03B0F0BD32
:1008400008F07AFC002003B0F0BD00BFA401002036
:100850000B46013201EB8201C01A1A5843F8042BEF
:100860008B42FAD1704700BF2DE9F04F2DED028B7E
:1008700091B000AF05468846FA6000F06DFE03B205
:10088000BB609B007B60073323F00703ADEB030DD8
:100890000446EA46F0B1013DD146D346002600F0B9
:1008A00059FE06FB005008EB8003D3ED007A0136B9
:1008B000F8EE677AB442EBEC017AF0D17E689FEDF6
:1008C0002B7A5644D9ED007A77EEC77AE9EC017AB3
:1008D0004E45F7D1BB686A46A2EBC3039D4607EEBF
:1008E000904AFB686D46A1B207F12800F8EE678ACE
:1008F00013FB04F928F010FA64080023514607F1AD
:1009000028002A4628F08CFA22462946284628F054
:10091000F5FE00F023FEB9FBF0F905EB8909D9EDEE
:10092000007A77EEA77A07F11803C7EEA80A07F155
:100930001C0221462846C7ED030A28F085F9D7EDA9
:10094000067AB8EE678A00F009FE07EE900AF8EE24
:10095000677AD7ED030A67EE887A443787EEA80AEC
:10096000BD46BDEC028BBDE8F08F00BF00F0FF4438
:1009700008B564200CF094F9FBE700BF80B5104C7B
:10098000DFF848800F4F104E206800231A4621469A
:10099000451ED8F8000025600CF07EFA22683C2342
:1009A0003846202112B9236008F004FE30464FF487
:1009B000005108F003FE4FF47A700CF071F9E3E790
:1009C000280000200010024000180240D80100203A
:1009D000014B1868704700BF28000020F0B583B0B5
:1009E0001F4E204D204C00270097336B43F004032B
:1009F0003363336B03F004030093009B2B6823F0F5
:100A00000C032B602B6843F004032B60AB6943F4A9
:100A10000033AB610A2008F0F7F92B6843F00C03B0
:100A20002B600197336B43F020033363336B03F088
:100A300020030193019BA36823F44033A360636AFE
:100A400023F00F036362E36823F44033E3600A207A
:100A500008F0DAF9236843F44033236003B0F0BDB3
:100A60000038024000080240001402402DE9F8431B
:100A70001C469B0007336D46DB08A5EBC30300AFA4
:100A80009D466D4616468146884622462946FFF712
:100A9000DFFE45F82680224629464846FFF79EFE9F
:100AA000BD46BDE8F88300BF30B5002495B0CDE960
:100AB0000A44CDE90C44CDE90344CDE905441E4A7E
:100AC00001940794116C1D4B41F080511164126C1C
:100AD00002F080520192019A02941A6842F4404254
:100AE0001A601B6803F44043029301224FF48033E1
:100AF000CDE908230823022510934FF480024FF418
:100B0000A873CDE90E5211930222042308A8CDE95F
:100B1000122302990AF08CFB0F23CDE903354FF421
:100B2000A0524FF4805303A80521CDE90542079355
:100B30000AF096FD15B030BD00380240007000404C
:100B40002DE9804800249DB008F032F9FFF7ACFF92
:100B5000FFF744FFCDE90F44CDE91144BE4B0094AB
:100B60001394196BBD48BE4D41F010011963196B08
:100B700001F01001009100990194196B41F02001DE
:100B80001963196B01F02001019101990294196B0D
:100B900041F080011963196B01F080010291029903
:100BA0000394196B41F004011963196B01F00401FE
:100BB000039103990494196B41F001011963196BB6
:100BC00001F00101049104990594196B41F00201AF
:100BD0001963196B01F00201059105990694196BCF
:100BE00041F040011963196B01F04001069106992B
:100BF0000794196B41F0080119631B6B03F008039C
:100C0000224607931421079B08F0D4FC9348202127
:100C1000012208F0CFFC93482246142108F0CAFCB8
:100C200091482246802108F0C5FC904822464FF4A6
:100C3000805108F0BFFC8E4822464FF4405108F026
:100C4000B9FC8C482246042108F0B4FC01228948F2
:100C50004FF4005108F0AEFC01264FF0030B1423B3
:100C60007E480FA94FF00809CDE90F36CDE9114BA9
:100C700008F05CFB4FF488137848CDF83C900FA93E
:100C80001093119408F052FB202374480F930FA97E
:100C900002274FF0040ACDE91064129408F046FBD5
:100CA0007048CDF83CA00FA9CDE91064129708F068
:100CB0003DFB80236C480F930FA94FF01008CDE93E
:100CC0001064129408F032FB664812940FA9CDE923
:100CD0001064CDF83C8008F029FB4FF48053634842
:100CE0000F930FA9CDE91064129408F01FFB4FF485
:100CF00040525F480F920FA9CDE91064129708F097
:100D000015FB42F204025B480F920FA9CDE9106473
:100D1000129408F00BFB4FF4004253480F920FA9B6
:100D20000F221392CDE91074129408F0FFFA0521F6
:100D30002246092008F08CF8092008F0C7F84E4830
:100D40004E4A026008F0D0F84D494E4A2846C5E99F
:100D500000124FF480422A61C5E90244C5E9054406
:100D6000C5E9074408F08CFE414628460AF054F8CD
:100D7000214628460AF070F8DFF81CC14248434D6E
:100D800084624FF482724FF4007EC0E900C21822E0
:100D9000C0E906E20A22C262C0E90244C0E9044492
:100DA000C0E908440AF04AFF072210921292384A1A
:100DB0002A6040204FF4C072C5E905024FF400627A
:100DC0002A620FA94FF400522846C5E90164C5E91B
:100DD00003A8AA62CDE913B7EC616C62CDF844A018
:100DE0000F9715970AF038FE4FF6FF720BA92846A9
:100DF000CDE90B69CDE90D6408940AF04FFE304649
:100E000008F002F84FF6FF720BA92846CDE90B79DE
:100E1000CDE90D640AF042FE4FF6FF720BA9284699
:100E2000CDE90BB9CDE90DA40AF038FE4FF40C72F0
:100E3000089208990E914FF6FF720BA92846CDE94A
:100E40000BA90D960AF02AFE284640F26A51114D70
:100E50000AF042FE214621E0003802400010024024
:100E6000EC010020000802400000024000040240A3
:100E7000000C024000180240E40100200030024053
:100E8000005C0040A08601001C030020E802002056
:100E9000400100A0400200200050014034220FA871
:100EA0002AF013F8754A2A601D22C5F820B0EA61BD
:100EB00040F20D1B40F2431240F21713C5E909B28C
:100EC000AC8640F247124FF009092846C5E90B32BB
:100ED000AE61C5E90144C5E9034485F83640C5F86B
:100EE000149009F0DDFF2846F025109519954FF470
:100EF000A07512951A95FF254FF4806C0FA9224614
:100F000014950525CDE916C50F945D4D11941397E1
:100F100015941894ADF86C408DF86E400AF096F870
:100F2000584A2A601268584E90472A68574DD2682E
:100F300090474FF6FF7A564A32603046C6E9014480
:100F4000C6E90444B461C6F80CA0CDE90F44CDE96C
:100F50001144CDE90B4413940BF060FA0FA930460D
:100F6000CDE90F440BF0D4FB0BA93046CDE90B447F
:100F70000BF00CFD474A2A602846C5E90144C5F834
:100F80000CA02C61AC61CDE90B44CDE90D44CDE959
:100F90000F44CDE91144139409940A940BF03EFADE
:100FA0004FF480530BA928463B4E0B930BF000FBEC
:100FB0000FA92846CDE90F440BF0AAFB09A9284642
:100FC000CDE909440BF0E2FC4FF0804E43F244328D
:100FD00080233046C6E900E2B361CDE90F44CDE994
:100FE0001144CDE90B44C6F80C90B46034610BF0A9
:100FF00015FA4FF480530FA930460F930BF0D8FA2F
:101000000BA93046CDE90B840BF0C0FC00F004FEC8
:1010100000F000FEFFF7E2FC00F05EF900F090F94E
:101020001E4B1F4819680622FFF7D8FB1D491C48B4
:101030000622FFF70DFC0BF0BBFD1B4A394640466C
:101040000BF0F0FE194B1A4A1860214619480BF0B4
:10105000DBFD194B194A1860214619480BF0D4FDE5
:10106000184B194A0546214618481D600BF0CCFD67
:10107000174B18600BF0AEFDFEE700BF00680140A3
:10108000BC01002034000020740300200404002070
:101090000000014000040040BC03002024000020A8
:1010A00000001E08C001002070BC0208D80100200A
:1010B000ACBC020871090008E00100204CBC020829
:1010C000291C0008B801002088BC02087D0900081E
:1010D000DC010020704700BF704700BF10B5094C0D
:1010E00086B024680294144601238DF817400DF150
:1010F00017040A46019301460094034808F088FD4E
:1011000006B010BD1C000020EC01002000B50B4B08
:1011100087B01B68029384460A4601230DF117012C
:101120000020CDE900138DF817006146044808F04F
:1011300061FE9DF8170007B05DF804FB1C0000205D
:10114000EC01002010B5094C84B084462068029060
:10115000CDE9002306480A460123614608F04AFE0D
:10116000003818BF012004B010BD00BF1C000020D3
:10117000EC01002007F048BE08B506480022042113
:1011800008F018FABDE8084002480122042108F0DE
:1011900011BA00BF0008024030B5104D83B00446BC
:1011A00001220F484FF4005108F004FA28460022AB
:1011B000042108F0FFF90B4B0B481B68ADF8064003
:1011C0000DF1060101220AF09BFD012204212846AF
:1011D00003B0BDE8304008F0EDB900BF00080240A0
:1011E000000C0240200000201C03002030B5104DF0
:1011F00083B0044600220F484FF4005108F0DAF99A
:1012000028460022042108F0D5F90B4B0B481B6837
:10121000ADF806400DF1060101220AF071FD012230
:101220000421284603B0BDE8304008F0C3B900BF30
:1012300000080240000C0240200000201C03002097
:101240002DE9F043194E1A4FDFF86890DFF86880F7
:1012500083B00C46054600223046042108F0AAF966
:10126000384600224FF4005108F0A4F9D9F80030B4
:10127000ADF8045001A9012240460AF041FDD9F819
:101280000030224601A940460AF0E2FF384601221A
:101290004FF40051019C08F08DF9304601220421E1
:1012A00008F088F9204603B0BDE8F083000802404A
:1012B000000C0240200000201C03002007F0A4BD09
:1012C000034B02689A4200D0704707F08BBD00BF05
:1012D00000100040704700BF10B483B0154B164992
:1012E000002400941A6B42F020021A631A6B02F079
:1012F00020020092009A0868104A40F440500860AA
:10130000086840F4403008600194196B41F0040112
:1013100019631B6B03F004030193019B136843F0F3
:10132000C0031360136843F00C03136003B05DF84F
:10133000044B70470038024000140240000802408D
:1013400010B483B00E4A00200190116C41F00101ED
:101350001164126C4FF0804302F00102019243F2DB
:1013600044310922019C9962DA625A68054942F0C7
:1013700020025A6081F81C0303B05DF8044B7047EB
:101380000038024000E100E010B483B0364A374B29
:10139000374C00210091506C40F480605064506CD8
:1013A00000F4806000900098D86A40F44010D86241
:1013B000586B40F004005863586B40F4D070586389
:1013C000586B40F4C0505863586B40F4B0205863D9
:1013D000586840F480705860986840F08050986079
:1013E000986840F0C0609860986840F48070986099
:1013F0000191106B40F480001063126B02F48002C4
:10140000019203F5A133019A84F839139A6A22F004
:1014100001029A629A6AD207FCD49A681548164962
:1014200042F400629A609A6A42F080629A629A6A12
:1014300042F480329A629A6A42F480429A629A6ACC
:1014400042F480529A629A6A42F480629A629A6A7C
:101450004FF4807442F010029A62DC6218635963A0
:1014600003B05DF8044B7047003802400022014091
:1014700000E100E04C2201404C0400201B4B1A68A4
:10148000110500D470471A4A4FF00071C2F8841059
:10149000BFF34F8FBFF36F8FC2F884119A6A22F0A7
:1014A00001029A629A6AD207FCD499684FF080428E
:1014B00041F40061996013680E4923F00103136041
:1014C00088680D4B20F001008860886820F48070E7
:1014D0008860596A41F480715962596A21F48071B7
:1014E0005962136823F001031360704700640240DF
:1014F00000E100E0002201400038024010B54FF446
:10150000806200210F4829F0E0FCFFF73DFF0E4A02
:101510000E49936A0E484FF0007443F00103936242
:10152000C1F884414C6083684FF0804143F001036F
:1015300083600B6843F001030B60936ADB07FCD404
:10154000004810BD4C0400200064024000E100E0AF
:101550000022014004207047402070474FF4207063
:10156000704700BF82B00E4B00220092596C41F4CC
:1015700080415964586C00F48040009000980192BA
:10158000186C40F0805018641B6C03F0805301937A
:10159000019B0F216FF0010002B007F059BC00BFA2
:1015A000003802400B4B02689A4200D0704782B06C
:1015B00000220192D3F8302842F48052C3F8302838
:1015C00003F500631B6B03F480530193019B02B08E
:1015D000704700BF003002402DE970432E4B026877
:1015E0008AB000249A42CDE90444CDE90644089427
:1015F00002D00AB0BDE87083284D01942B6B2848B7
:1016000043F004032B632B6B03F004030193019B52
:1016100002942B6B43F001032B632B6B03F001034C
:1016200002934FF400724FF001084FF003090426B3
:1016300004A91223CDE90423CDE90689029B08966B
:1016400007F074FE04A94FF480721223154808961F
:10165000CDE90423CDE9068907F068FE03942B6CDD
:1016600043F400032B642B6C03F400032246052192
:1016700003934820039B07F0EBFB482007F026FC70
:101680002B6A43F400032B622B6A23F400032B62C2
:101690000AB0BDE8708300BF005C00400038024023
:1016A00000080240000002402DE9F04104469AB0D3
:1016B000002130220EA8CDE90811CDE90A110C91C4
:1016C00029F003FC674B22689A4202D01AB0BDE8A9
:1016D000F081C0230821042212930EA84FF4003396
:1016E0000E91149217930AF08BF8002840F0B780FF
:1016F0005D4B5E48002401945A6C42F080625A644B
:101700005A6C02F080620192019A02941A6B42F0C4
:1017100020021A631A6B02F020020292029A0394CA
:101720001A6B42F001021A631A6B02F00102039273
:10173000039A04941A6B42F002021A631A6B02F0C5
:1017400002020492049A05941A6B42F040021A6352
:101750001A6B02F040020592059A06941A6B42F049
:1017600004021A631A6B02F004020692069A0794A6
:101770001A6B42F008021A631B6B03F00803002681
:1017800002270E25079308A94FF480620223CDE9B2
:101790000823CDE90A67079B0C9507F0C7FD08A948
:1017A00041F65802022332480C95CDE908234FF048
:1017B0000908CDE90A6707F0B9FD08A90322022349
:1017C0002C48CDF83080CDE90823CDE90A6707F031
:1017D000ADFD08A94FF47062022326480C95CDE9AF
:1017E0000823CDE90A6707F0A1FD08A94FF40C62B0
:1017F000022321480C95CDE90823CDE90A6707F0BB
:1018000095FD08A9C02202231C480C95CDE90823A8
:10181000CDE90A6707F08AFD08A9082202231848C3
:101820000C95CDE90823CDE90A6707F07FFD022377
:1018300008A94FF4A0521048CDF83080CDE9082314
:10184000CDE90A6707F072FD22460521582007F00E
:10185000FFFA582007F03AFB1AB0BDE8F081FFF715
:1018600039FD45E70068014000380240001402409D
:10187000000002400004024000180240000802403C
:10188000000C02400000000010B51B4A016888B03F
:1018900000239142CDE90233CDE90433069301D010
:1018A00008B010BD02F568420093506C40F48010FF
:1018B0005064506C00F48010009000980193136BFA
:1018C0000E4843F020031363136B9FED097B03F075
:1018D000200301930322052302A98DED027BCDE9AC
:1018E0000523019C07F022FD08B010BDAFF3008076
:1018F000800300000200000000500140001402407C
:1019000000B5214A0368934285B008D0B3F1804FF7
:1019100023D01E4A934211D005B05DF804FB1C4B46
:10192000002201925A6C42F001025A645B6C03F08F
:1019300001030193019B05B05DF804FB144B0022E9
:1019400003921A6C42F002021A641B6C03F0020349
:101950000393039B05B05DF804FB03F50E330022EF
:101960000292196C41F0010119641B6C03F0010330
:1019700002931C200521029B07F06AFA1C2005B087
:101980005DF804EB07F0A2BA00000140000400403B
:1019900000380240F0B52B4B89B01C68002204923D
:1019A000002C4CD10127284A01941F60936B2748D3
:1019B0003B439363936B3B4003260C254FF63F025A
:1019C000019302A90223CDE90223CDE90565019B1C
:1019D00007F0ACFC1E48029702A90227CDE9037468
:1019E000CDE9056507F0A2FC48F2331319480293CC
:1019F00002A9CDE90374CDE9056507F097FC4FF620
:101A000083731548029302A9CDE90374CDE90565F6
:101A100007F08CFC4CF203731048029302A9CDE945
:101A20000374CDE9056507F081FC60230C4803973A
:101A300002A9CDE904460695029307F077FC09B0A8
:101A4000F0BD00BF4C0800200038024000140240E6
:101A5000000802400018024000100240000C024042
:101A60000004024070B588B0234B002202921A6C29
:101A700042F010021A641B6C03F010030293054637
:101A800001A903A8029B09F099FE069BD3B909F0AE
:101A900085FE0346194A1A4C1A49A2FB03239B0CE4
:101AA000013B0022C4E90013204640F2E7332261E3
:101AB000A260A261E3600AF0B1FC064630B1304694
:101AC00008B070BD09F06AFE4300E3E720460AF063
:101AD00033FD06460028F2D1362007F0F7F90F2D26
:101AE00001D90126EBE732462946362007F0B0F946
:101AF000054B1D60E3E700BF0038024083DE1B4357
:101B000050080020001000409C000020704700BFDB
:101B1000FEE700BFFEE700BFFEE700BFFEE700BF35
:101B2000704700BF08B5C82007F06EF904480022CE
:101B3000202107F03FFDBDE80840082007F04ABD1E
:101B40000010024001480AF077BE00BF5008002094
:101B5000014808F09FBC00BFEC010020014809F0DB
:101B600013BA00BF400200200120704708B529F0D9
:101B7000A5FA162303604FF0FF3008BD08B529F021
:101B80009DFA16230360FEE770B5161E07DD0C46AE
:101B90008D19AFF3008004F8010BA542F9D130464E
:101BA00070BD00BF70B5161E07DD0C468D1914F808
:101BB000010BAFF30080AC42F9D1304670BD00BFDD
:101BC0004FF0FF30704700BF4FF400534B600020D0
:101BD000704700BF01207047002070470B4A08B5CE
:101BE0000346106828B1034469468B4207D8136046
:101BF00008BD07481060034469468B42F7D929F0B5
:101C00005DFA0C2303604FF0FF3008BD98080020F8
:101C1000F83E0120704700BF08B500F0A7FBBDE803
:101C2000084000F031BB00BF00F0A2BB704710B508
:101C30000421044628F031F9204610BD38B50C4B7C
:101C40000C4C18800C4B822019806368984740F632
:101C5000110398420AD1094D23682C6082209847CD
:101C60002B688220DB689847002038BD0120FCE704
:101C70009C0800206C0000209E080020A008002086
:101C80004FF4A071F020FFF7D9BF0000F7B5334D36
:101C90002B6804461B698220984780B22080002868
:101CA0004AD02B680DF106025B6901A98220984792
:101CB000BDF8063040F6746293423FD9ADF8062075
:101CC000BDF80630D21A92B20A2A3DD90B23B2FBD4
:101CD000F3F2234B1B889A4201D9013B9AB2BDF81B
:101CE000043040F6B8318B4230D8C3F571630E33FF
:101CF0009BB20F21B3FBF1F31A4909888B4201D93A
:101D000001398BB2184E194D30682F68834281B269
:101D10008CBF591AC91AB8B2BA428CBF101A801AAD
:101D200089B280B201440529C8BF33603368C8BF97
:101D30002A6063802B68A38003B0F0BDB32B9CBFE7
:101D4000B423ADF80630BBE70022C8E7C3F56D63E6
:101D500008339BB20E2BCCD80023D3E7A008002079
:101D60009E0800209C080020A4080020A80800204D
:101D700037B568460D461446FFF788FFBDF80000EA
:101D800048B1BDF802302B60BDF804302360034B2E
:101D90003C221A60012003B030BD00BF28000020A3
:101DA00010B1022809D07047074B1A68B2FA82F2C4
:101DB00052090421054807F0FDBB034B9A68B2FAAB
:101DC00082F252091021F5E7AC0800200010024011
:101DD00010B1022809D07047074B1A68003A18BFA3
:101DE00001220421054807F0E5BB034B9A68003A3D
:101DF00018BF01221021F5E7AC08002000100240B6
:101E000010B1022804D070470421024807F0D6BB65
:101E10001021FAE70010024008B530B1022809D0BD
:101E20000020431E5842584108BD0421024807F0D3
:101E3000BBFBF6E71021F9E70010024070B5084D32
:101E400000240126E0B2FFF7E7FF18B12B68012B51
:101E500018BF2E600134052C05F10405F2D170BDC8
:101E6000AC080020012380F8781080F879307047A2
:101E700000207047034B4164003918BF01211970DD
:101E8000704700BFBB32012000207047836B0BB14D
:101E90000846184770474FF6FF7070474068036860
:101EA0009B691847704770477047000010B504469B
:101EB00000F04AFB23680349D3F88C302046BDE884
:101EC00010401847000000D008B503680446D3F856
:101ED00080309847236820469B6F984700F0ECF8C5
:101EE000236820461B6F98472920FFF77FF900F0F1
:101EF000E3F8236820461B6F9847F8E710B50446BF
:101F00000FF0DCFA23682046D3F8AC30BDE810406F
:101F1000184700F00BBB00F00FBB00F033BB00F024
:101F2000DBBA00F0E1BA00F039BB00F0E5BA0EF020
:101F300030BD10B57C21044627F0AFFF204610BD10
:101F400090F87A301BB1406803681B681847184640
:101F50007047000010B590F8341090F878400C4BA2
:101F60008C421A7809D03AB90A4A0B491488088871
:101F700010800C8001221A7010BD002AFCD0054A86
:101F800005491488088810800C800022F3E700BF00
:101F9000B4320120B0320120B232012070B50D46BA
:101FA000194635B9094B0A4A0A4840F2D22128F0AD
:101FB00087FDC0E90F52084B003A18BF01221A7082
:101FC0000368BDE87040D3F88C301847E8BC0208BD
:101FD00020BD02086EBD0208BA32012008B5094BC7
:101FE0001B888B4203D8084B1B88934205D9074BAB
:101FF000074A08489E2128F063FD074B1980074BCC
:102000001A8008BDB0320120B2320120B3BD0208EF
:1020100016BE02086EBD0208B6320120B832012099
:10202000012108B5002208460AF048FE0A4B186054
:1020300028B90A4B0A4A28210A4828F041FD002203
:10204000042101200AF0EEFE074B186018B9074B77
:10205000034A2C21F0E708BDC008002034BF020865
:102060007DBF0208ACBF0208BC08002026C00208E1
:10207000024B4FF0FF3118680AF074BEC008002010
:10208000014B18680AF0A2BEC0080020024B0021D4
:1020900018680AF067BE00BFC0080020FFF7F0BF55
:1020A00003480449006800231A460AF0F5BE00BF41
:1020B000BC0800202C00002013B5084C00231A4651
:1020C00001A920680AF01EFF20684FF0FF330022AC
:1020D00001A90AF017FF02B010BD00BFBC08002024
:1020E0007047002070477047704700207047704766
:1020F00008B5034A034B0448222128F0E1FC00BF45
:102100008BC0020868C00208C9C0020808B5034AAB
:10211000034B0448272128F0D3FC00BF41C102082B
:1021200068C00208C9C0020810B54421044627F05F
:10213000B4FE204610BD000038B5044621460025F7
:10214000064B25720C3060606572012241F8203B1D
:102150000FF00CFBE562204638BD00BF88C10208C5
:102160000120704738207047382303FB01000830F6
:102170007047382303FB0100083070470120704787
:1021800041F2CC70704741F2CC7303FB0100083080
:10219000704741F2CC7303FB010008307047012007
:1021A00070471020704700EB01100830704700EBBB
:1021B000011008307047084601F052BE10B5034BBD
:1021C000036004460DF0FBFA204610BD40C2020831
:1021D00010B50446FFF7F2FF2046402127F05DFED0
:1021E000204610BD10B5034B036004460DF0E7FA1E
:1021F000204610BD0CC2020810B50446FFF7F2FFDE
:10220000204641F2D47127F048FE204610BD000060
:1022100010B5034B036004460DF0D1FA204610BD03
:10222000D8C1020810B50446FFF7F2FF2046182176
:1022300027F033FE204610BD10B5084B036004465E
:1022400000F5C050FFF7BAFF04F12C00FFF7CAFFFA
:1022500004F11400FFF7DCFF204610BD74C2020831
:1022600008B50248FFF7E8FF08BD00BFC808002016
:1022700010B50446FFF7E0FF204641F6A41127F011
:102280000CFE204610BD00002DE9F34100F05AFA83
:10229000054600F05BFA0024014623462846224604
:1022A000009417F081F9264B264A274D1A602046E4
:1022B00005F0E6FD254817F0DFF82B68BFF35B8FCC
:1022C000DB0737D4284627F0EAFD98B3204C214B92
:1022D000236004F5C05707F1480604F1140004F127
:1022E0002C086060C4F80880E76026610DF068FA89
:1022F000194B636140460DF063FA184BE3623846B0
:102300000DF05EFA04F58053154AC3F8002804F571
:10231000C25006F0FFF9224604F5C251304605F0DE
:1023200009FF304601F09CFD0E4828F0E7FB2846E7
:1023300027F0C1FD0C4802B0BDE8F041FFF7B6BD83
:102340002033012030230020C4080020300000206A
:10235000C808002074C20208D8C102080CC20208D2
:1023600040C2020861220008B42200207047000029
:102370000148FFF7A9BD00BFB422002070B5224E6E
:10238000224C234D234B23603046FFF7D5FE2846D1
:102390001BF0D6FB204B2148DC6000224FF48071FB
:1023A000C3E912121E491A86C3E91A121D49996718
:1023B0001D4983F858200B60F02101801B485A66A4
:1023C00001801B4883F870204FF4A071C3E90422F8
:1023D000C3E90622C3E90822C3E90A22C3E90E229F
:1023E000C3E91022C3E91422C3E917225A67C3E9DB
:1023F000016501800F4801800F490A70012283F8AE
:1024000034200E4A1A6070BD702200206C22002019
:1024100034230020D8BC0208B4220020B0320120AE
:102420000100000100000101BC320120B632012090
:10243000B2320120B8320120B432012064BE020859
:102440000020704781807047C180704701817047CC
:10245000418170477047704770477047704710B4AC
:10246000C4880368121B84885B6D091B12B25DF877
:10247000044B09B218474FF6FF7383814FF0FF33C7
:1024800003621368C3611060704790F825201AB189
:1024900090F8242002B118607047002070478B88A4
:1024A000838001207047704780F82610704790F8AD
:1024B0002600704710B50022B1F90840B1F90A10A2
:1024C000028042808480C18010BD00220280428050
:1024D0008280C28070470000024B902283F858230C
:1024E000704700BF00E100E0024B4FF080729A603D
:1024F000704700BF00E100E0094A0A49D3680A4872
:10250000C3F30A03013B9BB20B801169C1F30A01BB
:10251000013901801364536B43F001035363704727
:1025200000680140BA230020B8230020014BD3F8F3
:10253000AC00704700680140024B0122C3F8AC10A8
:102540005A6270470068014070B504460EF077FA91
:1025500023685D6E13F0ECFB01462046A847236814
:10256000054AD3F888502046AC460023BDE87040A9
:10257000A2F51631604700BF00B004D00EF046BA95
:102580000EF050BA0EF00BBA0EF06DBB90F825208D
:1025900012B103685B69184770470000044B4FF0A5
:1025A0008072C3F88820BFF34F8FBFF36F8F7047DF
:1025B00000E100E070B50023124E8380124B0360EF
:1025C000336893F8582005460AB1D86C00B998686A
:1025D0000368DB6A98473368B0FA80F4D86C640902
:1025E00030B10368DB6A9847002808BF44F0010453
:1025F0002CB9064B064A07482C2128F061FA2846D8
:1026000070BD00BFBC32012084C3020880C2020832
:10261000DEC2020817C30208704700002DE9F0412E
:10262000FF2BBDF8184000EB410105D120F8024B0B
:102630008142FBD8BDE8F081174F04F4FC6604EA40
:10264000070C04F01F0403FB0CFC5E435C43DB43FC
:10265000DBB2FF25B0F800E00EEA07020EF4FC68DA
:1026600003FB02C203FB08680EF01F0EB2FBF5F27B
:10267000B8FBF5F83A4008F4FC6842EA080203FBAC
:102680000E4EBEFBF5FE0EF01F0E42EA0E0220F8C3
:10269000022B8142DED8CDE700F8FFFF10B5144CC5
:1026A000236823B3134B144A1B6C11888B4213D13C
:1026B000124B198808F09AFD226892F86A300133AB
:1026C00082F86A30FFF7ECFC20680EF0F7FEBDE8F8
:1026D00010400020FFF764BB08F088FD2068036805
:1026E0001B6A9847BDE810400020FFF771BB10BD82
:1026F000BC32012000680140BA230020B82300202A
:10270000704710B50421044627F0C7FB204610BDD2
:1027100008B5032913D8DFE801F002060A0E05F018
:10272000FBFB006808BD05F0F7FB4068FAE705F021
:10273000F3FB8068F6E705F0EFFBC068F2E70020E6
:10274000F0E7000000487047B0C302080C20704753
:1027500013B5002451B1036801948DF8034001AA18
:102760009C680DF10303A04702B010BD0846FBE7CB
:10277000C0897047008A7047C0887047808870475A
:10278000807A00F07F007047807AC0097047806AC5
:10279000704770477047704770477047704730B553
:1027A0000368018185B06D460146D3F88430044644
:1027B0002846984795E807003C3484E8070005B0B0
:1027C00030BD30B50368418185B06D460146D3F810
:1027D000843004462846984795E807003C3484E84E
:1027E000070005B030BD0022028042808280C28096
:1027F000704780F83610704770B5036804461B6B4D
:10280000154698472368294620465B6EBDE8704010
:1028100018470020704700224FF0FF31C0E9002127
:1028200082607047806C704770470368DB6A1847A6
:1028300003681B6B184770477047704730B4C26815
:1028400044685510034604EB6200D20748BF625942
:102850009B6830BC48BFD358184743682BB1836886
:102860002BB9C06800F0010070471846704701207E
:10287000704710B50821044627F00FFB204610BD15
:1028800010B54C21044627F008FB204610BD10B5BA
:102890001021044627F001FB204610BD10B58C2105
:1028A000044627F0FAFA204610BD000038B5054668
:1028B000054B45F8E03B044611F038FD28460DF085
:1028C000EDFB204638BD00BF98C7020810B504468E
:1028D000FFF7ECFF204641F2CC7127F0DEFA2046EC
:1028E00010BD08B5FFF752FE08BD0000036870B5C3
:1028F0005E6B124B1B6804468DB22BB9104B114A0C
:102900006C21114828F0DCF81049828D0988914229
:1029100003D80F4B0B4A6D21F3E713F812200D4B30
:102920001B6853F8220003681B6B9847281A01B2F2
:1029300033462046BDE87040184700BF14330120DD
:10294000A0C40208E2C402081DC502081833012011
:1029500064C502081C33012070B5036804461B6B74
:10296000154698472368294620465B6BBDE87040B2
:10297000184770B504461D46BDF91060FFF7ECFF1F
:102980002368294620469B6B98472368314620469A
:10299000DB6BBDE8704018474FF4807100228184E2
:1029A00005490160C0E90122C0E90322C0E905220E
:1029B000C0E9072282627047BCE602080022C0E933
:1029C0000122C0E90322C0E90522C0E907224FF431
:1029D00080728284014A0260704700BFE8C5020825
:1029E0001A4B73B51B88018F8B4206462BD9184BA7
:1029F0001B682BB9174B184A18486C2128F060F84F
:102A000013F81120164B1B6853F82250154B186809
:102A100005F072FA2B6801909B6B284698472B684B
:102A200001999B6C0446284698472B6801995B6A7C
:102A300014FB00F428469847A4B223181BB2A6F84A
:102A4000463002B070BD0023F9E700BF1833012003
:102A500014330120A0C40208E2C402081DC5020804
:102A60001C3301202033012010B52622044600210A
:102A700028F02BFA2046FFF7A1FF0A4B23600A4BF0
:102A8000A3624FF6FF73A3854FF47F020023C4E9CE
:102A90000C324FF0FF32C4E910232387E363204652
:102AA00010BD00BF14EB020850C6020810B5044662
:102AB000FFF7DAFF024B23600023A364204610BD1A
:102AC000F0C6020810B504460B460D4944F8041B35
:102AD0000246D3E9010184E80300D3E9030102F1CE
:102AE0000C0484E80300D3E906015C69D161196A2A
:102AF0009B8C1162C2E905409384104610BD00BF53
:102B000034EF020838B50D460446FFF7DBFFAB6A29
:102B1000A3622B4B2360EB6AE3622B6B23636B6B2B
:102B2000636305F1380104F13800FFF7CBFF2B6E2A
:102B30002366244BA36395F8643084F86430B5F8B9
:102B40006630A4F8663005F1680104F16800FFF70B
:102B5000B9FFD5F89030C4F890301B4BA36605F14F
:102B6000940104F19400FFF7ADFFB5F8BA30A4F872
:102B7000BA3095F8BC3084F8BC30144BC4F89430AB
:102B8000B5F8BE30A4F8BE30B5F8C030A4F8C030F7
:102B900005F1C40104F1C400FFF794FF0C4BC4F825
:102BA000C430B5F8EA30A4F8EA3095F8EC3084F88F
:102BB000EC30B5F8F030A4F8F030204638BD00BF56
:102BC0004CE7020810E8020860C602080CEC020894
:102BD000F0ED020870B500F198039942BEB00446CA
:102BE0000D4603D113F0A4F801F04AF904F531734E
:102BF0009D421AD104F1E006314601A8FFF782FF99
:102C00002A480C23002240F2E731FDF72FFF284A23
:102C100040F2E7330A2104F65C1016F037FA30462A
:102C200014F06EF901A80DF039FA04F522739D42F3
:102C30001AD104F1E006314601A8FFF763FF1B48F3
:102C40000C2301224FF4FA71FDF710FF184A4FF4DC
:102C5000FA730A2104F6481016F018FA304614F0F8
:102C60004FF901A80DF01AFA04F513739D421AD119
:102C700004F1E005294601A8FFF744FF0B480C23A7
:102C800002224FF4DE71FDF7F1FE094A4FF4DE73C4
:102C90000A2104F6341016F0F9F9284614F030F938
:102CA00001A80DF0FBF93EB070BD00BF00001E088A
:102CB000A2C5020810B4C46BB4EB411F4FEA411225
:102CC00004D05DF8044BC2630FF046B85DF8044BC6
:102CD000704700002DE9F04F2DED108B044699B0A0
:102CE000A146002514F0A4FCE94BE56349F8403BFC
:102CF00026222946484628F0E8F84846FFF75EFEB7
:102D000004F16C08FF26E34B236426224FF6FF7381
:102D1000294684F866604046A566ADF8583028F02C
:102D2000D4F84046FFF74AFEDB4BE366BDF8583067
:102D3000A4F8923016A904F1980A404684F89460E9
:102D400010F0F7FA504610F02BFC04F1E00304F504
:102D5000EA76184608EE103A04F500770DF0CCFA42
:102D60003046FFF719FE3846FFF7A0FE04F513734F
:102D70001846049310F0B6FA04F52273184605932A
:102D800010F0B0FA04F531731846069310F0AAFA61
:102D900004F5407318460BEE103AFFF787FE04F572
:102DA000537318460BEE903AFFF780FE04F56673F6
:102DB00018460CEE103AFFF779FE04F579731846C1
:102DC000DFF8E8B209EE103A0EF0A6FF04F2544321
:102DD00018460A93FFF7EEFB0BF1240304F58D620E
:102DE000C4F85C34C4F854B41046C4F860540EEE11
:102DF000902AFFF739FE04F59662104608EE902AF5
:102E0000FFF7CAFD04F2DC421046079210F06AFA9E
:102E100004F5A3621046089210F064FA04F25452CA
:102E20001046099210F05EFA04F5B26210460FEEF9
:102E3000102AFFF73BFE04F2DC5210460FEE902AF8
:102E4000FFF734FE04F5C56210460392FFF72EFE2D
:102E500004F27462104609EE902A0EF05DFF04F24F
:102E6000E46210460B92FFF7A5FB0BF1240304F577
:102E7000DF62C4F8EC36C4F8E4B61046C4F8F05685
:102E80000CEE902AFFF7F0FD04F5E86210460AEE1A
:102E9000102A0EF041FF04F5F66210460C92FFF77F
:102EA00089FB0BF1240304F2C472C4F8B837C4F8E8
:102EB000B0B71046C4F8BC570DEE102AFFF7D4FD8A
:102EC00004F60C0210460AEE902A0EF025FF04F6D6
:102ED0007C0210460D92FFF76DFB0BF12403C4F842
:102EE000843804F50963C4F87CB81846C4F88858D7
:102EF0000DEE903AFFF7B8FD04F6D80318460EEE33
:102F0000103AFFF7B1FD04F58053644AC3F8BC27BB
:102F1000634AC3F8C427C3F8C047C3F8C8574FF47F
:102F2000616104F6AC1011F0F7F94FF4A0732A4672
:102F3000484600932946F023FFF71BFD04F1040BDC
:102F40004FF07F43A366494658460CF019FE2A46C7
:102F500040462946FFF700FD0823404616A9ADF874
:102F6000583010F0E6F9414658460CF009FE50463C
:102F700040F201122121FFF7EFFC4FF0030316AAE4
:102F800015A95046ADF854304FF00203ADF8583053
:102F90000FF0D9FF17235046A4F8D030FFF720FDDB
:102FA0004FF0FF33C4E9353304F5BD531C33C4F887
:102FB000C0305146584602930CF0E2FD18EE100A5C
:102FC00055222946FFF7C8FC062318EE100AADF873
:102FD000543016AA072315A9ADF858300DF02AFA77
:102FE0008C2218EE100A64210DF0D2F818EE100AA7
:102FF00032210DF050F818EE100A32210DF0C6F80B
:10300000284BC4F8DC31202238461621FFF7A4FCF7
:103010004FF0FF33C4F83032D4F80032A4F8345201
:103020000DF138083946D3F884304046984798E87F
:10303000070004F50F7383E8070004F512633846B0
:10304000C4F84832A4F820590FF0A2FB164B16938F
:1030500038464FF00C0316A9ADF85C300FF0B8FB02
:10306000394630460CF08CFD04986122C221FFF7EE
:1030700073FC16AB4FF009094FF0010A14AA04982B
:10308000009313A915ABADF84C50ADF850A00FE06C
:1030900098C70208A4EB0208F0ED020880C70208F6
:1030A000D52B0008F000AC0050C60208D8E8020892
:1030B000ADF85490ADF8589010F07FF8029BC4F82A
:1030C00074320499C4F8845230460CF059FD0598C6
:1030D0003D22C221FFF740FC16AB14AA05980093CD
:1030E00013A915ABADF84C50ADF850A0ADF8549005
:1030F000ADF8589010F061F8029BC4F8B032059911
:10310000C4F8C05230460CF03BFD06981922C2218B
:10311000FFF722FC16AB14AA0698009313A915AB6F
:10312000ADF84C50ADF850A0ADF85490ADF85890B3
:1031300010F043F8029BC4F8EC320699C4F8FC5234
:1031400030460CF01DFD68221BEE100A0A21FFF725
:1031500003FC4FF0FF33C4F83033D4F80033A4F845
:103160003453D3F884301BEE101A4046984798E841
:10317000070004F54F7383E80700094B1B6804F64A
:1031800034172BB9074B084A6021084827F098FCF0
:10319000074B1B88012B0FD8064B034A6121F4E72C
:1031A00014330120A0C40208A5C502081DC50208E9
:1031B0001833012064C50208D74B5146186804F043
:1031C0009BFED64A03460A21384615F05FFF1BEEE8
:1031D000100AC4F848730FF0DBFA4FF00201D04B2D
:1031E000ADF85C101BEE100A16A916930FF0F0FA5A
:1031F0001BEE101A30460CF0C3FC44221BEE900A62
:103200001621FFF7A9FBD4F84C33A4F880534FF0F4
:10321000FF31D3F88430C4F87C1340461BEE901A7B
:10322000984798E8070004F5627383E80700BD49F2
:103230000B6804F64817002BA4D0BB480388032B67
:10324000AAD9B54A0321106804F056FEB34A0346D2
:103250000A21384615F01AFF1BEE900AC4F8947341
:103260000FF096FA16AFAE4B1693394604231BEEB9
:10327000900AADF85C300FF0ABFA1BEE901A3046B6
:103280000CF07EFC20221CEE100A1621FFF764FBD6
:10329000D4F89833A4F8CC534FF0FF37D3F88430E8
:1032A000C4F8C8731CEE101A4046984798E8070007
:1032B00004F5757383E807009A490B6804F65C17F8
:1032C000002B3FF45FAF98480388052B7FF664AF6F
:1032D000914A0521106804F00FFE904A03460A2126
:1032E000384615F0D3FE1CEE100AC4F8E0734FF018
:1032F0000C070FF04DFAADF85C7016AF884B1693C3
:1033000039461CEE100A0FF063FA0A2730461CEE0D
:10331000101A0CF035FCF02319EE100A0F22294682
:103320000097FFF726FB0A9AC4F80C244FF0FF3CE5
:10333000A022C4F860C4A4F864C4114619EE100AAF
:103340000EF000FEA02219EE100A4FF4EB510EF021
:1033500004FE19EE100A5146FFF7ACFC19EE100AF4
:1033600051460EF005FE304619EE101A0CF008FC1E
:103370002A461EEE900A5C21FFF7EEFA4FF0FF3C62
:103380001EEE901AC4F898C44046A4F89C540EF05F
:1033900085FF98E807000DF1580C04F2A44383E878
:1033A000070061465E4B16931EEE900AADF85C5026
:1033B0000FF00EFA30461EEE901A0CF0E1FB31468B
:1033C00018EE100A594E0DF0BEF80798C4F8B8640C
:1033D0006122C22116AEFFF7BFFA009615AE334642
:1033E00014AE324613AE31460798ADF84C50ADF8E6
:1033F00050A0ADF85490ADF858900FF0DEFE07994C
:10340000C4F8145518EE900A0CF0BAFB16AE0898E2
:103410003D22C221FFF7A0FA009615AE334614AE46
:10342000324613AE31460898ADF84C50ADF850A076
:10343000ADF85490ADF858900FF0BFFE0899C4F85D
:10344000505518EE900A0CF09BFB16AE0998192205
:10345000C221FFF781FA009615AE334614AE32460C
:1034600013AE31460998ADF84C50ADF850A0ADF808
:103470005490ADF858900FF0A0FE0999C4F88C55FF
:1034800018EE900A0CF07CFB39461FEE100A6822F9
:10349000FFF762FA2349A4F8C4550B68C4F8CC5569
:1034A0004FF0FF36C4F8C065C4F8D065C4F8D455F1
:1034B00004F51766002B3FF465AE1B480388BB423A
:1034C0007FF66AAE144A3946106804F015FD134AB7
:1034D00003463946304615F0D9FD1FEE100AC4F8F0
:1034E000D8650FF055F90E4B16930B23ADF85C30F1
:1034F00016AB19461FEE100A0FF06AF91FEE101AEC
:1035000018EE900A0CF03CFB16211FEE900A4422A4
:10351000FFF722FA0CE000BF20330120DDC50208CE
:1035200050C602081433012018330120F000AC000B
:10353000D749A4F810564FF0FF33C4F80C36C4F83E
:103540001C360B68C4F81856C4F8205604F68415C7
:10355000002B3FF417AECF480388082B7FF61CAE34
:10356000DFF83893DFF83883D9F80000082104F039
:10357000C3FCC94A03463946284615F087FD1FEEAD
:10358000900AC4F824560FF003F909231FEE900A9D
:1035900016A9ADF85C30CDF858800FF019F91FEE80
:1035A000901A18EE900A0CF0EBFA039820221621DC
:1035B000FFF7D2F9B64B1B6800264FF0FF37C4F86F
:1035C0005876A4F85C66C4F86466C4F86876C4F8F3
:1035D0006C6604F69815002B3FF4D4ADAD4B1B88F8
:1035E000072B7FF6D9ADD9F80000072104F084FC41
:1035F000A94A03460A21284615F048FD0398C4F855
:1036000070560FF0C5F84FF00C0A0398CDF85880AB
:1036100016A94FF00A09ADF85CA00FF0D9F803998C
:1036200018EE900A0CF0ACFA19EE900A3146CDF87B
:103630000090F0230F22FFF79CF90B9BC4F89C36F7
:10364000A02219EE900A1146C4F8F076A4F8F47698
:103650000EF078FCA02219EE900A4FF4EB510EF018
:103660007CFC19EE900A0121FFF724FB19EE900A69
:1036700001210EF07DFC19EE901A18EE900A0EADA5
:103680000CF07EFA32461CEE900A5C21FFF764F9DA
:103690001CEE901A2846C4F82877A4F82C670EF080
:1036A000FDFD95E807001CEE903A3C3383E80700E7
:1036B00006231CEE900A16A9ADF85C30CDF85880B0
:1036C0000FF086F81CEE901A18EE900A0CF058FADB
:1036D00018EE901A18EE100A0CF035FF18EE100ACA
:1036E00031460CF021FF18EE101A58460CF048FA3B
:1036F0001AEE100A3146CDF80090F0234B22FFF766
:1037000038F94FF6FF73A4F8C037A0220C9BC4F819
:1037100068371AEE100A1146C4F8BC770EF012FC96
:10372000A0221AEE100A4FF4EB510EF016FC1AEE1E
:10373000100A0121FFF7BEFA1AEE100A01210EF05D
:1037400017FC1AEE101A58460CF01AFA1DEE100A61
:103750003C224621FFF700F91DEE101A2846C4F856
:10376000F477A4F8F8670EF099FD95E807001DEED0
:10377000103A3C3383E8070016231DEE100A16A901
:10378000ADF85C30CDF858800FF022F81DEE101A1D
:1037900058460CF0F5F91AEE900A3146CDF8009033
:1037A000F0233222FFF7E5F80D9BC4F83438A0224D
:1037B0001AEE900A1146C4F88878A4F88C780EF0B6
:1037C000C1FBA0221AEE900A4FF4EB510EF0C5FB9C
:1037D0001AEE900A0121FFF76DFA1AEE900A012104
:1037E0000EF0C6FB1AEE901A58460CF0C9F91DEE01
:1037F000900A23224521FFF7AFF81DEE901A2846C4
:10380000C4F8C078A4F8C4680EF048FD95E8070035
:103810001DEE903A3C3383E8070018231DEE900A12
:1038200016A9ADF85C30CDF858800EF0D1FF1DEE32
:10383000901A58460CF0A4F952461EEE100A362192
:10384000FFF78AF81EEE101A2846C4F80879A4F883
:103850000C690EF023FD95E807001EEE103A3C338C
:1038600083E8070019231EEE100A16A9ADF85C3094
:10387000CDF858800EF0ACFF58461EEE101A0CF032
:103880007FF9204619B0BDEC108BBDE8F08F00BF6A
:103890001433012018330120DDC502082033012034
:1038A00050C602087047704700F598730868496869
:1038B00003C37047704770474160704710B50022DE
:1038C000B1F90840B1F90A10028042808480C180B9
:1038D00010BD704770470000064BC0F84C31002304
:1038E000C0F8503100F5A273C0F84801C0F840316B
:1038F000704700BF953C0008012303727047704772
:103900007047704770477047014640680368103140
:103910005B6E184701464068036810311B6E1847FC
:10392000704701464068036810315B6E18470146D6
:103930004068036810311B6E1847704710B4C268A6
:1039400041685410034601EB6200D20748BF0A5990
:103950009B685DF8044B48BFD358184743682BB1A8
:1039600083682BB9C06800F00100704718467047A3
:103970000120704710B50C21044626F08EFA20462F
:1039800010BD10B51021044626F087FA204610BD60
:1039900010B54FF4AE71044626F07FFA204610BDF4
:1039A00010B53821044626F078FA204610BD10B52F
:1039B0002821044626F071FA204610BD10B53821A2
:1039C000044626F06AFA204610BD10B512F0B0F990
:1039D0000368BDE81040DB6B1847000013B50446D0
:1039E000807A637A0130C0B29842A07205D901236F
:1039F00023720023A37202B010BDB4F90C20002181
:103A000014F006F810F0010283B22AD1E081194ABD
:103A1000B4F90E00E3891288B4F91410A0820020D2
:103A2000D21AADF80200606822835B1A124AADF820
:103A300004300368B2F900201B69ADF80010ADF83E
:103A4000062069469847A37A012BD4D10B4B1B78EB
:103A5000002BD0D012F06CF902B0BDE8104012F08B
:103A60006DB94FF6FF710028D8BF0A461344E381B1
:103A7000CDE700BFB0320120B2320120BA320120BE
:103A800010B50446D0F8400158B10368DB68984788
:103A900038B1D4F8400103689B6898470023C4F804
:103AA000403110BD2DE9F14FD0E9555A0746A868BD
:103AB00003681B6A9847972805D8464B464AA321B6
:103AC000464826F0FDFF686803681B6A98470F2880
:103AD00003D8434B404AA421F2E7E86803681B6A15
:103AE00098470B2803D83F4B3B4AA521E8E712F043
:103AF0001FF9DFF8F890043012F080F9D9F80000CF
:103B000010B10368DB689847D9F8000010B103686A
:103B10001B689847DFF8D880D8F8000010B1036818
:103B20005B699847D7F83C0110B103685B68984718
:103B3000D8F8000010B103681B689847D7F83C011B
:103B400010B103689B689847E868036800215B6AC6
:103B500098474FF0000B244B03600446C0F804B0B4
:103B600080F808B0A868036859465B6A984706461B
:103B700004F082FE6868036859465B6A98473146DC
:103B8000054604F055FEC9F80040C7F83C51C8F896
:103B90000060E5B12B1DCAF800303368C5F808A0F5
:103BA0003046DB68F56398472B6828461B689847C2
:103BB0002146304613F0E8FE236820461B699847EB
:103BC00023685B69204601B0BDE8F04F18472B46DB
:103BD000E1E700BFCCC702085AC8020868C902085A
:103BE000AFC9020852CA02080CDB020804330120E4
:103BF0000033012037B50446807A637A0130C0B2C1
:103C00009842A07205D9012323720023A37203B046
:103C100030BDB4F90C20002113F0FAFE10F00102BF
:103C200083B228D1E081184B18481988258BE38985
:103C3000B0F90000ADF80600CA1A60682B445B1AA0
:103C400012B2ADF8043003682283ADF800200022E0
:103C50001B69ADF8022069469847A37A012BD6D19B
:103C60000B4B1B78002BD2D012F062F803B0BDE8EA
:103C7000304012F063B84FF6FF710028D8BF0A46F3
:103C80001344E381CFE700BFB0320120B2320120FC
:103C9000BA3201202DE9F14FD0E9555A0746A868FC
:103CA00003681B6A984741F27B13984205D8464B3C
:103CB000464AA321464826F003FF686803681B6A4A
:103CC00098470F2803D8434B404AA421F2E7E868FD
:103CD00003681B6A98470B2803D83F4B3B4AA52132
:103CE000E8E712F025F8DFF8F890043012F086F8D3
:103CF000D9F8000010B10368DB689847D9F80000D4
:103D000010B103681B689847DFF8D880D8F8000026
:103D100010B103685B699847D7F83C0110B103689C
:103D20005B689847D8F8000010B103681B68984793
:103D3000D7F83C0110B103689B689847E8680368AE
:103D400000215B6A98474FF0000B244B0360044648
:103D5000C0F804B080F808B0A868036859465B6AE8
:103D60009847064604F02CFA6868036859465B6A6F
:103D700098473146054604F0FDF9C9F80040C7F8F8
:103D80003C51C8F80060E5B12B1DCAF8003033681B
:103D9000C5F808A03046DB68F56398472B682846CD
:103DA0001B6898472146304613F0EEFD23682046F5
:103DB0001B69984723685B69204601B0BDE8F04F56
:103DC00018472B46E1E700BFCCC70208F5CA020836
:103DD00068C90208AFC9020852CA02080CDB02080F
:103DE0000433012000330120044B1B6893F8582052
:103DF0000AB1D86C00B99868704700BFBC32012086
:103E0000F8B5044617460E4612F0C6F8104B1C6073
:103E1000104B2360104B0025C4E951350F4BC4E90A
:103E200053551868036801219B68C4E94F55C4E9DC
:103E300055769847284604F023F8FFF7D5FF1BF086
:103E4000AEFCFFF7D1FF1BF025FD2046F8BD00BFFB
:103E500010330120B8DA0208A0DA0208BC320120CF
:103E6000064BC0F84C310023C0F8503100F5A27366
:103E7000C0F84801C0F84031704700BF953C0008C9
:103E8000064BC0F84C310023C0F8503100F5A27346
:103E9000C0F84801C0F84031704700BF0543000832
:103EA000064BC0F84C310023C0F8503100F5A27326
:103EB000C0F84801C0F84031704700BFA94E000863
:103EC000064BC0F84C310023C0F8503100F5A27306
:103ED000C0F84801C0F84031704700BFC541000834
:103EE000064BC0F84C310023C0F8503100F5A273E6
:103EF000C0F84801C0F84031704700BF694D000864
:103F0000064BC0F84C310023C0F8503100F5A273C5
:103F1000C0F84801C0F84031704700BF294C000884
:103F2000064BC0F84C310023C0F8503100F5A273A5
:103F3000C0F84801C0F84031704700BFE94A0008A6
:103F4000064BC0F84C310023C0F8503100F5A27385
:103F5000C0F84801C0F84031704700BFA9490008C7
:103F6000064BC0F84C310023C0F8503100F5A27365
:103F7000C0F84801C0F84031704700BF85400008D4
:103F8000064BC0F84C310023C0F8503100F5A27345
:103F9000C0F84801C0F84031704700BF69480008C8
:103FA000064BC0F84C310023C0F8503100F5A27325
:103FB000C0F84801C0F84031704700BF29470008E9
:103FC000064BC0F84C310023C0F8503100F5A27305
:103FD000C0F84801C0F84031704700BFE94500080B
:103FE000064BC0F84C310023C0F8503100F5A273E5
:103FF000C0F84801C0F84031704700BFA94400082C
:10400000064BC0F84C310023C0F8503100F5A273C4
:10401000C0F84801C0F84031704700BFA53A000819
:1040200003685B6A18470000124B13B503604FF436
:1040300080734363104B417203611049104BB1F917
:104040000010B3F900308381002242600272827254
:10405000C281C0E90522C0E90722C0E90922C0E9FE
:104060000B220446009110301146FEF782FC2046D8
:1040700002B010BD54DB020838DA0208B232012067
:10408000B03201202DE9F047D0E9554A0746A06833
:1040900003681B6A9847B0F58A5F05D2424B434AD2
:1040A000A321434826F00CFD606803681B6A98470B
:1040B0000F2803D83F4B3D4AA421F2E7E06803688C
:1040C0001B6A9847372803D83B4B384AA521E8E7B5
:1040D00011F02EFEDFF8E490043011F08FFED9F8D5
:1040E000000010B10368DB689847D9F8000010B1F0
:1040F00003681B689847DFF8C880D8F8000010B143
:1041000003685B699847D7F83C0110B103685B68A6
:104110009847D8F8000010B103681B689847D7F893
:104120003C0110B103689B689847E0680021FFF7E5
:1041300077FF14210546FFF777FFA0680368002189
:104140005B6A9847064604F0FBF860680368002144
:104150005B6A98473146044604F0CCF8C9F8005031
:10416000C7F83C41C8F80060DCB1231DCAF8003034
:104170003368C4F808A03046DB68F46398472368C6
:1041800020461B6898472946304613F0FDFB2B68F4
:1041900028461B6998472B6828465B69BDE8F047AD
:1041A00018472346E2E700BFCCC70208FDCB020850
:1041B00068C90208AFC9020852CA020804330120C4
:1041C000003301202DE9F047D0E9554A0746A068A1
:1041D00003681B6A9847B0F58A5F05D2424B434A91
:1041E000A321434826F06CFC606803681B6A98476B
:1041F0000F2803D83F4B3D4AA421F2E7E06803684B
:104200001B6A9847372803D83B4B384AA521E8E773
:1042100011F08EFDDFF8E490043011F0EFFDD9F8D5
:10422000000010B10368DB689847D9F8000010B1AE
:1042300003681B689847DFF8C880D8F8000010B101
:1042400003685B699847D7F83C0110B103685B6865
:104250009847D8F8000010B103681B689847D7F852
:104260003C0110B103689B689847E0680021FFF7A4
:10427000D7FE14210546FFF7D7FEA068036800218A
:104280005B6A9847064603F0FBFF606803680021FD
:104290005B6A98473146044603F0CCFFC9F80050EA
:1042A000C7F83C41C8F80060DCB1231DCAF80030F3
:1042B0003368C4F808A03046DB68F4639847236885
:1042C00020461B6898472946304613F05DFB2B6853
:1042D00028461B6998472B6828465B69BDE8F0476C
:1042E00018472346E2E700BFCCC702082DCD0208DD
:1042F00068C90208AFC9020852CA02080433012083
:10430000003301202DE9F047D0E9554A0746A0685F
:1043100003681B6A984741F27B13984205D8424BC9
:10432000424AA321424826F0CBFB606803681B6A1F
:1043300098470F2803D83F4B3C4AA421F2E7E06896
:1043400003681B6A9847372803D83B4B374AA52197
:10435000E8E711F0EDFCDFF8E490043011F04EFDD9
:10436000D9F8000010B10368DB689847D9F800005D
:1043700010B103681B689847DFF8C480D8F80000C4
:1043800010B103685B699847D7F83C0110B1036826
:104390005B689847D8F8000010B103681B6898471D
:1043A000D7F83C0110B103689B689847E06800218A
:1043B000FFF736FE14210546FFF736FEA0680368B6
:1043C00000215B6A9847064603F0FAFE60680368BE
:1043D00000215B6A98473146044603F0CBFEC9F8DA
:1043E0000050C7F83C41C8F80060DCB1231DCAF892
:1043F00000303368C4F808A03046DB68F46398479F
:10440000236820461B6898472946304613F0BCFABB
:104410002B6828461B6998472B6828465B69BDE8CE
:10442000F04718472346E2E7CCC702084BCE020804
:1044300068C90208AFC9020852CA02080433012041
:104440000033012003685B6A18470000124B13B564
:1044500003604FF480734363104B41720361104952
:10446000104BB1F90010B3F9003083810022426093
:1044700002728272C281C0E90522C0E90722C0E946
:104480000922C0E90B220446009110301146FEF7C4
:1044900070FA204602B010BD30DB020838DA02089C
:1044A000B2320120B03201202DE9F047D0E9554A5F
:1044B0000746A06803681B6A984741F2AF03984219
:1044C00005D8424B424AA321424826F0F9FA6068D7
:1044D00003681B6A98470F2803D83F4B3C4AA42126
:1044E000F2E7E06803681B6A9847372803D83B4B1C
:1044F000374AA521E8E711F01BFCDFF8E49004300F
:1045000011F07CFCD9F8000010B10368DB68984713
:10451000D9F8000010B103681B689847DFF8C48021
:10452000D8F8000010B103685B699847D7F83C01E0
:1045300010B103685B689847D8F8000010B10368B1
:104540001B689847D7F83C0110B103689B689847EF
:10455000E0680021FFF776FF14210546FFF776FF9C
:10456000A068036800215B6A9847064604F02CF9AE
:104570006068036800215B6A98473146044604F08E
:10458000FDF8C9F80050C7F83C41C8F80060DCB13C
:10459000231DCAF800303368C4F808A03046DB6831
:1045A000F4639847236820461B689847294630469D
:1045B00013F0EAF92B6828461B6998472B682846B0
:1045C0005B69BDE8F04718472346E2E7CCC702081D
:1045D00065CF020868C90208AFC9020852CA0208BA
:1045E00004330120003301202DE9F047D0E9554A7A
:1045F0000746A06803681B6A984741F2CB7398424C
:1046000005D8424B424AA321424826F059FA606835
:1046100003681B6A98470F2803D83F4B3C4AA421E4
:10462000F2E7E06803681B6A9847372803D83B4BDA
:10463000374AA521E8E711F07BFBDFF8E49004306E
:1046400011F0DCFBD9F8000010B10368DB68984773
:10465000D9F8000010B103681B689847DFF8C480E0
:10466000D8F8000010B103685B699847D7F83C019F
:1046700010B103685B689847D8F8000010B1036870
:104680001B689847D7F83C0110B103689B689847AE
:10469000E0680021FFF7D6FE14210546FFF7D6FE9D
:1046A000A068036800215B6A9847064603F080FC17
:1046B0006068036800215B6A98473146044603F04E
:1046C00051FCC9F80050C7F83C41C8F80060DCB1A3
:1046D000231DCAF800303368C4F808A03046DB68F0
:1046E000F4639847236820461B689847294630465C
:1046F00013F04AF92B6828461B6998472B6828460F
:104700005B69BDE8F04718472346E2E7CCC70208DB
:1047100085D0020868C90208AFC9020852CA020857
:1047200004330120003301202DE9F047D0E9554A38
:104730000746A06803681B6A984741F25B039842EA
:1047400005D8424B424AA321424826F0B9F9606895
:1047500003681B6A98470F2803D83F4B3C4AA421A3
:10476000F2E7E06803681B6A9847372803D83B4B99
:10477000374AA521E8E711F0DBFADFF8E4900430CE
:1047800011F03CFBD9F8000010B10368DB689847D2
:10479000D9F8000010B103681B689847DFF8C4809F
:1047A000D8F8000010B103685B699847D7F83C015E
:1047B00010B103685B689847D8F8000010B103682F
:1047C0001B689847D7F83C0110B103689B6898476D
:1047D000E0680021FFF736FE14210546FFF736FE9C
:1047E000A068036800215B6A9847064603F044FE10
:1047F0006068036800215B6A98473146044603F00D
:1048000015FEC9F80050C7F83C41C8F80060DCB19B
:10481000231DCAF800303368C4F808A03046DB68AE
:10482000F4639847236820461B689847294630461A
:1048300013F0AAF82B6828461B6998472B6828466E
:104840005B69BDE8F04718472346E2E7CCC702089A
:10485000ABD1020868C90208AFC9020852CA0208EF
:1048600004330120003301202DE9F047D0E9554AF7
:104870000746A06803681B6A984741F25B039842A9
:1048800005D8424B424AA321424826F019F96068F4
:1048900003681B6A98470F2803D83F4B3C4AA42162
:1048A000F2E7E06803681B6A9847372803D83B4B58
:1048B000374AA521E8E711F03BFADFF8E49004302D
:1048C00011F09CFAD9F8000010B10368DB68984732
:1048D000D9F8000010B103681B689847DFF8C4805E
:1048E000D8F8000010B103685B699847D7F83C011D
:1048F00010B103685B689847D8F8000010B10368EE
:104900001B689847D7F83C0110B103689B6898472B
:10491000E0680021FFF796FD14210546FFF796FD9C
:10492000A068036800215B6A9847064603F062FDB1
:104930006068036800215B6A98473146044603F0CB
:1049400033FDC9F80050C7F83C41C8F80060DCB13D
:10495000231DCAF800303368C4F808A03046DB686D
:10496000F4639847236820461B68984729463046D9
:1049700013F00AF82B6828461B6998472B682846CD
:104980005B69BDE8F04718472346E2E7CCC7020859
:10499000EFD2020868C90208AFC9020852CA020869
:1049A00004330120003301202DE9F047D0E9554AB6
:1049B0000746A06803681B6A9847B0F58A5F05D26E
:1049C000424B434AA321434826F07AF860680368C3
:1049D0001B6A98470F2803D83F4B3D4AA421F2E7B2
:1049E000E06803681B6A9847372803D83B4B384A6E
:1049F000A521E8E711F09CF9DFF8E490043011F00C
:104A0000FDF9D9F8000010B10368DB689847D9F8C0
:104A1000000010B103681B689847DFF8C880D8F819
:104A2000000010B103685B699847D7F83C0110B1EA
:104A300003685B689847D8F8000010B103681B68EA
:104A40009847D7F83C0110B103689B689847E06825
:104A50000021FFF7F7FC14210546FFF7F7FCA068DB
:104A6000036800215B6A9847064603F069FC6068AA
:104A7000036800215B6A98473146044603F03AFC1C
:104A8000C9F80050C7F83C41C8F80060DCB1231DEC
:104A9000CAF800303368C4F808A03046DB68F46315
:104AA0009847236820461B6898472946304612F0ED
:104AB0006BFF2B6828461B6998472B6828465B6963
:104AC000BDE8F04718472346E2E700BFCCC702081D
:104AD0002FD4020868C90208AFC9020852CA0208E6
:104AE00004330120003301202DE9F047D0E9554A75
:104AF0000746A06803681B6A984741F25B03984227
:104B000005D8424B424AA321424825F0D9FF6068AC
:104B100003681B6A98470F2803D83F4B3C4AA421DF
:104B2000F2E7E06803681B6A9847372803D83B4BD5
:104B3000374AA521E8E711F0FBF8DFF8E4900430EC
:104B400011F05CF9D9F8000010B10368DB689847F0
:104B5000D9F8000010B103681B689847DFF8C480DB
:104B6000D8F8000010B103685B699847D7F83C019A
:104B700010B103685B689847D8F8000010B103686B
:104B80001B689847D7F83C0110B103689B689847A9
:104B9000E0680021FFF756FC14210546FFF756FC9C
:104BA000A068036800215B6A9847064603F0A6FDEB
:104BB0006068036800215B6A98473146044603F049
:104BC00077FDC9F80050C7F83C41C8F80060DCB177
:104BD000231DCAF800303368C4F808A03046DB68EB
:104BE000F4639847236820461B6898472946304657
:104BF00012F0CAFE2B6828461B6998472B68284686
:104C00005B69BDE8F04718472346E2E7CCC70208D6
:104C10005FD5020868C90208AFC9020852CA020873
:104C200004330120003301202DE9F047D0E9554A33
:104C30000746A06803681B6A984741F2F733984219
:104C400005D8424B424AA321424825F039FF60680B
:104C500003681B6A98470F2803D83F4B3C4AA4219E
:104C6000F2E7E06803681B6A9847372803D83B4B94
:104C7000374AA521E8E711F05BF8DFF8E49004304B
:104C800011F0BCF8D9F8000010B10368DB68984750
:104C9000D9F8000010B103681B689847DFF8C4809A
:104CA000D8F8000010B103685B699847D7F83C0159
:104CB00010B103685B689847D8F8000010B103682A
:104CC0001B689847D7F83C0110B103689B68984768
:104CD000E0680021FFF7B6FB14210546FFF7B6FB9D
:104CE000A068036800215B6A9847064603F066FCEB
:104CF0006068036800215B6A98473146044603F008
:104D000037FCC9F80050C7F83C41C8F80060DCB176
:104D1000231DCAF800303368C4F808A03046DB68A9
:104D2000F4639847236820461B6898472946304615
:104D300012F02AFE2B6828461B6998472B682846E4
:104D40005B69BDE8F04718472346E2E7CCC7020895
:104D5000A1D6020868C90208AFC9020852CA0208EF
:104D600004330120003301202DE9F047D0E9554AF2
:104D70000746A06803681B6A9847B0F58A5F05D2AA
:104D8000424B434AA321434825F09AFE60680368DA
:104D90001B6A98470F2803D83F4B3D4AA421F2E7EE
:104DA000E06803681B6A9847372803D83B4B384AAA
:104DB000A521E8E710F0BCFFDFF8E490043011F023
:104DC0001DF8D9F8000010B10368DB689847D9F8DE
:104DD000000010B103681B689847DFF8C880D8F856
:104DE000000010B103685B699847D7F83C0110B127
:104DF00003685B689847D8F8000010B103681B6827
:104E00009847D7F83C0110B103689B689847E06861
:104E10000021FFF717FB14210546FFF717FBA068D9
:104E2000036800215B6A9847064603F06DFB6068E3
:104E3000036800215B6A98473146044603F03EFB55
:104E4000C9F80050C7F83C41C8F80060DCB1231D28
:104E5000CAF800303368C4F808A03046DB68F46351
:104E60009847236820461B6898472946304612F029
:104E70008BFD2B6828461B6998472B6828465B6981
:104E8000BDE8F04718472346E2E700BFCCC7020859
:104E9000E3D7020868C90208AFC9020852CA02086B
:104EA00004330120003301202DE9F047D0E9554AB1
:104EB0000746A06803681B6A9847B0F58A5F05D269
:104EC000424B434AA321434825F0FAFD606803683A
:104ED0001B6A98470F2803D83F4B3D4AA421F2E7AD
:104EE000E06803681B6A9847372803D83B4B384A69
:104EF000A521E8E710F01CFFDFF8E490043010F083
:104F00007DFFD9F8000010B10368DB689847D9F835
:104F1000000010B103681B689847DFF8C880D8F814
:104F2000000010B103685B699847D7F83C0110B1E5
:104F300003685B689847D8F8000010B103681B68E5
:104F40009847D7F83C0110B103689B689847E06820
:104F50000021FFF777FA14210546FFF777FAA068DA
:104F6000036800215B6A9847064603F089F9606888
:104F7000036800215B6A98473146044603F05AF9FA
:104F8000C9F80050C7F83C41C8F80060DCB1231DE7
:104F9000CAF800303368C4F808A03046DB68F46310
:104FA0009847236820461B6898472946304612F0E8
:104FB000EBFC2B6828461B6998472B6828465B69E1
:104FC000BDE8F04718472346E2E700BFCCC7020818
:104FD0000FD9020868C90208AFC9020852CA0208FC
:104FE0000433012000330120406A7047806A704713
:104FF00070478B88C0690A68DB0A50F823001044A8
:10500000704710B5C2B1137BB3B1547BD27A24027E
:1050100004F4E0641443026A98B202EB8402138839
:105020008B4202D192F9020010BD05D8013880B23E
:1050300004320028F3D1F7E70020F5E710B52C2162
:10504000044624F02AFF204610BD000030B58BB086
:105050000446BDF860500895BDF85C5007959DF872
:10506000505006959DF84C5005959DF84850049574
:105070009DF8445003959DF8405002959DF83C5092
:105080000195BDF83850009511F0E8FF064B2360FC
:10509000159BE361169B2362199B63621A9BA362B3
:1050A00020460BB030BD00BF78DB02087047704768
:1050B00030B4C26844685510034604EB6200D2075E
:1050C00048BF62599B6830BC48BFD35818474368F3
:1050D0002BB183682BB9C06800F0010070471846F7
:1050E00070470120704710B51021044624F0D5FE0A
:1050F000204610BD10B5034B036004460FF016F9AF
:10510000204610BDF0DB020807B5074B0360019095
:105110000FF00CF9019841F27C1124F0BEFE0198C9
:1051200003B05DF804FB00BFF0DB020838B500F502
:105130003473994204460D4603D110F0F9FDFEF791
:10514000AFFE04F522739D4203D110F0F1FDFEF78E
:1051500037FF04F510739D4203D110F0E9FDFEF70F
:105160003FFF04F54674A5420AD1064800222021DB
:1051700004F020FA10F0DCFDBDE83840FEF740BF37
:1051800038BD00BF001002402DE9F04F2DED068B19
:1051900004468FB0A346002512F04AFA6A4BE56335
:1051A0004BF8403B26222946584625F08EFE5846AD
:1051B000FDF704FC04F16C0AFF26644B23642622ED
:1051C0004FF6FF73294684F866605046A566ADF831
:1051D000303025F07AFE5046FDF7F0FB5C4BE3667D
:1051E000BDF83030A4F892300CA9504604F198096B
:1051F00084F894600EF09DF84846FDF735FC04F104
:10520000E407544BC4F89830C4F8E05038460CF02A
:1052100083FD04F5AA7318460393FDF7CBF94E4BB3
:10522000C4F8543104F5B4782433C4F85C31C4F8BC
:1052300060514046FDF718FC04F5D873184608EE97
:10524000103AFDF711FC04F5FC73184608EE903A8D
:10525000FDF70AFC04F51073184609EE103A0EF03B
:105260009FF904F52273184609EE903A0EF098F96A
:1052700004F5347318460AEE103A0EF091F904F56D
:10528000467318460AEE903A0EF02CF8334A04F5AD
:105290008053C3E95B24324A4FF46161C3E95D2561
:1052A00004F557700FF038F84FF4A0732A465846AB
:1052B00000932946F023FDF75CFB261D4FF07F434A
:1052C000A366594630460AF05BFC2A4650462946FA
:1052D000FDF742FB082350460CA9ADF830300EF024
:1052E00028F8514630460AF04BFC4FF49A7256218A
:1052F0004846FDF731FBD4F89830A4F8CC500DF1B6
:10530000100A4FF0FF3B5046D3F88430C4F8C8B0C1
:10531000494698479AE8070004F1D40383E8070058
:10532000104B1B6804F5557A2BB90F4B0F4A6021BF
:105330000F4825F0C5FB0F4B1B88302B1ED80E4B9A
:105340000A4A6121F4E700BFF0DB0208A4EB02087F
:10535000F0ED0208F0C60208D8E80208D8DB02081F
:105360002D51000814330120A0C40208A5C502086D
:105370001DC502081833012064C50208A54B302161
:10538000186802F0B9FDA44A03460421504613F000
:105390007DFE4846C4F8E0A00DF0FAF99F4B0C934F
:1053A0000CA931234846ADF834300DF011FA4946C6
:1053B00030460AF0E5FB0A2300933222F023294607
:1053C0003846FDF7D6FA039BC4F80C31A0221146EB
:1053D0003846C4F860B1A4F864B10CF0B3FDA02263
:1053E0004FF4EB5138460CF0B8FDD4F82031202BA7
:1053F00005D02023C4F8203138460CF0ADFC3846E7
:1054000001210CF0B5FD3946304604AD4FF0FF37B1
:105410000AF0B6FB4FF0000A232240464521FDF773
:105420009BFA41462846C4F89871A4F89CA10CF058
:1054300035FF95E807000DF1300908F13C0383E8DA
:105440000700DFF8D8B1CDF830B04B2349464046CD
:10545000ADF834300DF0BCF9414630460AF090FB0F
:1054600018EE100A0C223621FDF776FA18EE101A03
:105470002846C4F8E071A4F8E4A10CF00FFF95E809
:10548000070018EE103A3C3383E807004C2318EE6F
:10549000100A4946ADF83430CDF830B00DF098F927
:1054A00018EE101A30460AF06BFB18EE900A3C22F8
:1054B0005821FDF751FA18EE901A2846C4F82872C0
:1054C000A4F82CA20CF0EAFE95E8070018EE903A3A
:1054D0003C3383E80700202318EE900A4946ADF8D4
:1054E0003430CDF830B00DF073F918EE901A304624
:1054F0000AF046FB19EE100AF0222121FDF72CFAE2
:105500004FF0030B4A464FF002080BA919EE100AA0
:10551000ADF82CB0ADF8308004F58B550DF013FDCF
:105520004D23A4F878320C3519EE100AFDF758FA1D
:1055300019EE101A3046C4E99F77C4F868520AF091
:105540001FFB19EE900AAA222121FDF705FA4A460F
:105550000BA919EE900AADF82CB0ADF830800DF023
:10556000F2FC4E23A4F8C03219EE900AFDF738FA87
:1055700019EE901A3046C4E9B177C4F8B0520AF077
:10558000FFFA1AEE100A64222121FDF7E5F94A46D6
:105590000BA91AEE100AADF82CB0ADF830800DF062
:1055A000D2FC4F23A4F808331AEE100AFDF718FABC
:1055B0001AEE101A3046C4E9C377C4F8F8520AF05C
:1055C000DFFA1AEE900A0522C621FDF7C5F901237C
:1055D000ADF828300A231AEE900AADF82C30ADF859
:1055E00030300AAA0BAB09A9CDF80090ADF824A081
:1055F0000DF0E3FD30461AEE901AC4F850A3C4F83B
:1056000040530AF0BDFA20460FB0BDEC068BBDE852
:10561000F08F00BF20330120DDC5020850C602080C
:105620007047704730B4C26844685510034604EBB5
:105630006200D20748BF62599B6830BC48BFD3584C
:10564000184743682BB183682BB9C06800F001008C
:105650007047184670470120704710B51021044666
:1056600024F01BFC204610BD10B5034B036004461C
:105670000EF05CFE204610BD3CDC020807B5074B6F
:10568000036001900EF052FE01984FF48A5124F00D
:1056900004FC019803B05DF804FB00BF3CDC020889
:1056A00038B500F51073994204460D4603D110F049
:1056B0003FFBFEF7E5FB04F534739D4203D110F088
:1056C00037FBFEF70DFC04F52274A54205D110F05E
:1056D0002FFBBDE83840FEF733BC38BD2DE9F04F55
:1056E0002DED068B04468DB0A346002511F0A0FFDA
:1056F000664BE5634BF8403B26222946584625F089
:10570000E4FB5846FDF75AF904F16C0AFF26604B9A
:10571000236426224FF6FF73294684F866605046BC
:10572000A566ADF8283025F0D0FB5046FDF746F9C8
:10573000584BE366BDF82830A4F892300AA95046C9
:1057400004F1980984F894600DF0F3FD4846FDF7E4
:105750008BF9514BC4F8983004F1E4031846C4F8AF
:10576000E05004F5967708EE903AFDF77DF938465B
:105770000CF0D2FA04F5CE7318460393FCF71AFF27
:10578000464BC4F89C3104F5D8782433C4F8A431CE
:10579000C4F8A8514046FDF767F904F5FC731846B4
:1057A00008EE103AFDF760F904F51073184609EE9B
:1057B000103A0DF0F5FE04F52273184609EE903A02
:1057C0000DF0EEFE04F5347318460AEE103A0DF0B3
:1057D000E7FE334A04F58053C3E94C24314A4FF4C1
:1057E0006161C3E94E2504F548700EF095FD4FF454
:1057F000A0732A46584600932946F023FDF7B9F8CE
:10580000261D4FF07F43A366594630460AF0B8F98B
:105810002A4650462946FDF79FF8082350460AA914
:10582000ADF828300DF085FD514630460AF0A8F954
:105830004FF49A7256214846FDF78EF84FF0FF3329
:10584000C4F8C830D4F89830A4F8CC500DF1100B3F
:10585000D3F884304946584698479BE8070004F13E
:10586000D40383E80700104B1B6804F5467A2BB974
:105870000E4B0F4A60210F4825F022F90E4B1B8872
:10588000212B1DD80D4B0A4A6121F4E73CDC0208AC
:10589000A4EB0208F0ED0208F0C60208D8E80208FE
:1058A00024DC0208A156000814330120A0C4020819
:1058B000A5C502081DC502081833012064C50208E9
:1058C000954B2121186802F017FB944A03460421E6
:1058D000504613F0DBFBC4F8E0A048460CF058FF3C
:1058E000DFF83CA2CDF828A022230AA94846ADF84B
:1058F0002C300CF06DFF494630460AF041F93C224D
:1059000018EE900A3D21FDF727F84FF0FF3318EE0F
:10591000901AC4F814315846A4F818510CF0BEFC83
:105920009BE8070004F5907383E807002F2318EE27
:10593000900A0AA9ADF82C30CDF828A00CF048FF49
:1059400018EE901A30460AF01BF90A23009332220F
:10595000F02329463846FDF70CF84FF0FF33A0221C
:10596000C4F8A831A4F8AC31039BC4F854311146F3
:1059700038460CF0E7FAA0224FF4EB5138460CF011
:10598000ECFAD4F86831202B05D02023C4F8683114
:1059900038460CF0E1F9384601210CF0E9FA3946B5
:1059A00030460AF0EDF84FF0FF3504AF23224046B1
:1059B0004FF0000A4521FCF7CFFF41463846C4F8B6
:1059C000E051A4F8E4A10CF069FC97E8070008F1A5
:1059D0003C0383E80700DFF84891CDF8289049237D
:1059E0000AA94046ADF82C300CF0F2FE4146304694
:1059F0000AF0C6F818EE100A0C223621FCF7ACFFAC
:105A000018EE101A3846C4F82852A4F82CA20CF04C
:105A100045FC97E8070018EE103A3C3383E807008E
:105A20004A2318EE100A0AA9ADF82C30CDF82890B8
:105A30000CF0CEFE18EE101A30460AF0A1F819EE5E
:105A4000100AF0222121FCF787FF4FF003090AAA70
:105A50004FF0020809A919EE100AADF82490ADF82C
:105A6000288004F589570DF06EFA4823A4F878329F
:105A7000103719EE100AFCF7B3FF19EE101A304672
:105A8000C4E99F55C4F868720AF07AF819EE900AD2
:105A9000AA222121FCF760FF0AAA09A919EE900A9F
:105AA000ADF82490ADF828800DF04DFA4723A4F806
:105AB000C03219EE900AFCF793FF19EE901A3046A7
:105AC000C4E9B155C4F8B0720AF05AF81AEE100AD7
:105AD00064222121FCF740FF0AAA09A91AEE100A44
