:020000040800F2
:1000000000000320890E0008992700089D2700089A
:10001000A1270008A5270008A92700080000000064
:1000200000000000000000000000000091FF000838
:10003000AD2700080000000021000108EDF70008CE
:10004000D90E0008D90E0008D90E0008D90E0008F4
:10005000D90E0008D90E0008D90E0008D90E0008E4
:10006000D90E0008B1270008D90E0008D90E0008E3
:10007000D90E0008D90E0008D90E0008D90E0008C4
:10008000D90E0008D90E0008D90E0008D90E0008B4
:10009000D90E0008D90E0008D90E0008D90E0008A4
:1000A000D90E0008D90E0008D90E0008D90E000894
:1000B000D90E0008D90E0008D90E0008D90E000884
:1000C000D90E0008D90E0008D90E0008D90E000874
:1000D000D90E0008D90E0008D90E0008D90E000864
:1000E000D90E0008D90E0008D90E0008D90E000854
:1000F000D90E0008D90E0008D90E0008D90E000844
:10010000D90E0008D90E0008D90E0008D90E000833
:10011000D90E0008D90E0008D1270008D90E000812
:10012000D90E000851200008D90E0008D90E000889
:10013000D90E0008D90E0008D90E0008D90E000803
:10014000D90E0008D90E0008D90E0008D90E0008F3
:10015000D90E0008D90E0008D90E0008D90E0008E3
:10016000DD270008D90E0008D90E0008D90E0008B6
:10017000D90E0008D90E0008D90E000800000000B2
:10018000D90E0008D90E0008D90E0008D90E0008B3
:10019000D90E0008D90E0008D90E0008D90E0008A3
:0C01A000E9270008D90E0008D90E00085D
:1001B00010B5054C237833B9044B13B10448AFF3A1
:1001C00000800123237010BD70010020000000009A
:1001D000B8E9020808B5034B1BB103490348AFF364
:1001E000008008BD0000000074010020B8E902088A
:1001F0004B1C012B98BF70472DE9F003911C9B0805
:10020000B1F80480B1F802900A8831F802CC804439
:10021000814402448444D9F80070D8F8006015681D
:10022000DCF80040C9F80060C8F80070CCF8005055
:100230001460D9F80470D8F804605568DCF80440FC
:10024000C9F80460C8F80470CCF804505460083150
:10025000013BD5D1BDE8F00370474B1C012B98BF83
:1002600070472DE9F003911C9B08B1F80480B1F8A8
:1002700002900A8831F802CC00EB580800EB5909CB
:1002800000EB520200EB5C0CD9F80070D8F800606B
:100290001568DCF80040C9F80060C8F80070CCF8B8
:1002A000005014600831013BDFD1BDE8F003704716
:1002B00001F0FF01102A2BDB10F0070F08D010F817
:1002C000013B013A8B422DD010F0070F42B3F6D11B
:1002D000F0B441EA012141EA014122F007047FF034
:1002E00000070023F0E80256083C85EA010586EA8B
:1002F000010685FA47F5A3FA87F586FA47F6A5FAC7
:1003000087F68EB9EED1F0BC01F0FF0102F00702D2
:1003100032B110F8013B013A83EA010313B1F8D17D
:100320000020704701387047002D06BF354603385E
:10033000073815F0010F07D1013015F4807F02BF97
:10034000013015F4C03F0130F0BC0138704700BFE8
:1003500081F0004102E000BF83F0004330B54FEA76
:1003600041044FEA430594EA050F08BF90EA020FE3
:100370001FBF54EA000C55EA020C7FEA645C7FEA76
:10038000655C00F0E2804FEA5454D4EB5555B8BF99
:100390006D420CDD2C4480EA020281EA030382EA0A
:1003A000000083EA010180EA020281EA0303362D9C
:1003B00088BF30BD11F0004F4FEA01314FF4801C6F
:1003C0004CEA113102D0404261EB410113F0004F81
:1003D0004FEA03334CEA133302D0524263EB430338
:1003E00094EA050F00F0A780A4F10104D5F1200ED6
:1003F0000DDB02FA0EFC22FA05F2801841F1000131
:1004000003FA0EF2801843FA05F359410EE0A5F104
:1004100020050EF1200E012A03FA0EFC28BF4CF035
:10042000020C43FA05F3C01851EBE37101F00045EB
:1004300007D54FF0000EDCF1000C7EEB00006EEBF8
:100440000101B1F5801F1BD3B1F5001F0CD3490882
:100450005FEA30004FEA3C0C04F101044FEA4452D9
:1004600012F5800F80F09A80BCF1004F08BF5FEA60
:10047000500C50F1000041EB045141EA050130BD40
:100480005FEA4C0C404141EB0101013C28BFB1F552
:10049000801FE9D291F0000F04BF01460020B1FA9D
:1004A00081F308BF2033A3F10B03B3F120020CDA70
:1004B0000C3208DD02F1140CC2F10C0201FA0CF04E
:1004C00021FA02F10CE002F11402D8BFC2F1200CB3
:1004D00001FA02F120FA0CFCDCBF41EA0C01904069
:1004E000E41AA2BF01EB0451294330BD6FEA0404B2
:1004F0001F3C1CDA0C340EDC04F11404C4F120029D
:1005000020FA04F001FA02F340EA030021FA04F3AE
:1005100045EA030130BDC4F10C04C4F1200220FA05
:1005200002F001FA04F340EA0300294630BD21FA43
:1005300004F0294630BD94F0000F83F4801306BF09
:1005400081F480110134013D4EE77FEA645C18BFFD
:100550007FEA655C29D094EA050F08BF90EA020F94
:1005600005D054EA000C04BF1946104630BD91EA8C
:10057000030F1EBF0021002030BD5FEA545C05D18F
:100580004000494128BF41F0004130BD14F58004CE
:100590003CBF01F5801130BD01F0004545F0FE4142
:1005A00041F470014FF0000030BD7FEA645C1ABF77
:1005B000194610467FEA655C1CBF0B46024650EAAE
:1005C000013406BF52EA033591EA030F41F40021DA
:1005D00030BD00BF90F0000F04BF0021704730B560
:1005E0004FF4806404F132044FF000054FF0000135
:1005F00050E700BF90F0000F04BF0021704730B5F6
:100600004FF4806404F1320410F0004548BF4042CA
:100610004FF000013EE700BF42004FEAE2014FEA1F
:1006200031014FEA02701FBF12F07F4393F07F4FFA
:1006300081F06051704732F07F4208BF704793F0FD
:100640007F4F04BF41F40021704730B54FF4607410
:1006500001F0004521F000411CE700BF50EA010213
:1006600008BF704730B54FF000050AE050EA0102BC
:1006700008BF704730B511F0004502D5404261EB2C
:1006800041014FF4806404F132045FEA915C3FF46D
:10069000D8AE4FF003025FEADC0C18BF03325FEA0A
:1006A000DC0C18BF033202EBDC02C2F1200300FABB
:1006B00003FC20FA02F001FA03FE40EA0E0021FAE0
:1006C00002F11444BDE600BF70B54FF0FF0C4CF4CE
:1006D000E06C1CEA11541DBF1CEA135594EA0C0F80
:1006E00095EA0C0F00F0DEF82C4481EA030621EABB
:1006F0004C5123EA4C5350EA013518BF52EA0335F6
:1007000041F4801143F4801338D0A0FB02CE4FF0A7
:100710000005E1FB02E506F00042E0FB03E54FF0D7
:100720000006E1FB03569CF0000F18BF4EF0010ECF
:10073000A4F1FF04B6F5007F64F5407404D25FEACB
:100740004E0E6D4146EB060642EAC62141EA55517E
:100750004FEAC52040EA5E504FEACE2EB4F1FD0CC0
:1007600088BFBCF5E06F1ED8BEF1004F08BF5FEA3E
:10077000500E50F1000041EB045170BD06F00046F0
:1007800046EA010140EA020081EA0301B4EB5C049D
:10079000C2BFD4EB0C0541EA045170BD41F4801195
:1007A0004FF0000E013C00F3AB8014F1360FDEBFBA
:1007B000002001F0004170BDC4F10004203C35DA96
:1007C0000C341BDC04F11404C4F1200500FA05F319
:1007D00020FA04F001FA05F240EA020001F00042BA
:1007E00021F0004110EBD37021FA04F642EB060130
:1007F0005EEA430E08BF20EAD37070BDC4F10C045A
:10080000C4F1200500FA04F320FA05F001FA04F21D
:1008100040EA020001F0004110EBD37041F1000109
:100820005EEA430E08BF20EAD37070BDC4F1200514
:1008300000FA05F24EEA020E20FA04F301FA05F27C
:1008400043EA020321FA04F001F0004121FA04F224
:1008500020EA020000EBD3705EEA430E08BF20EAF4
:10086000D37070BD94F0000F0FD101F0004640002E
:1008700041EB010111F4801F08BF013CF7D041EAB0
:10088000060195F0000F18BF704703F000465200B4
:1008900043EB030313F4801F08BF013DF7D043EA85
:1008A0000603704794EA0C0F0CEA135518BF95EA3B
:1008B0000C0F0CD050EA410618BF52EA4306D1D1C2
:1008C00081EA030101F000414FF0000070BD50EAE1
:1008D000410606BF1046194652EA430619D094EA6B
:1008E0000C0F02D150EA013613D195EA0C0F05D155
:1008F00052EA03361CBF104619460AD181EA0301A9
:1009000001F0004141F0FE4141F470014FF0000060
:1009100070BD41F0FE4141F4780170BD70B54FF0FB
:10092000FF0C4CF4E06C1CEA11541DBF1CEA13557B
:1009300094EA0C0F95EA0C0F00F0A7F8A4EB05045D
:1009400081EA030E52EA03354FEA013100F0888054
:100950004FEA03334FF0805545EA131343EA12631D
:100960004FEA022245EA111545EA10654FEA0026D2
:100970000EF000419D4208BF964244F1FD0404F58B
:10098000407402D25B084FEA3202B61A65EB0305E7
:100990005B084FEA32024FF480104FF4002CB6EBA4
:1009A000020E75EB030E22BFB61A754640EA0C0024
:1009B0005B084FEA3202B6EB020E75EB030E22BF64
:1009C000B61A754640EA5C005B084FEA3202B6EBA5
:1009D000020E75EB030E22BFB61A754640EA9C0064
:1009E0005B084FEA3202B6EB020E75EB030E22BF34
:1009F000B61A754640EADC0055EA060E18D04FEAF2
:100A0000051545EA16754FEA06164FEAC30343EA91
:100A100052734FEAC2025FEA1C1CC0D111F4801F5E
:100A20000BD141EA00014FF000004FF0004CB6E757
:100A300011F4801F04BF01430020B4F1FD0C88BFF6
:100A4000BCF5E06F3FF6AFAEB5EB030C04BFB6EB01
:100A5000020C5FEA500C50F1000041EB045170BDF4
:100A60000EF0004E4EEA113114EB5C04C2BFD4EB21
:100A70000C0541EA045170BD41F480114FF0000EA5
:100A8000013C90E645EA060E8DE60CEA135594EA21
:100A90000C0F08BF95EA0C0F3FF43BAF94EA0C0F24
:100AA0000AD150EA01347FF434AF95EA0C0F7FF499
:100AB00025AF104619462CE795EA0C0F06D152EAED
:100AC00003353FF4FDAE1046194622E750EA4106D1
:100AD00018BF52EA43067FF4C5AE50EA41047FF4E2
:100AE0000DAF52EA43057FF4EBAE12E74FEA410245
:100AF000B2F1E04324BFB3F5001CDCF1FE5C0DD97C
:100B000001F0004C4FEAC0024CEA5070B2F1004FC5
:100B100040EB830008BF20F00100704711F0804FC8
:100B200021D113F13872BCBF01F00040704741F48D
:100B300080114FEA5252C2F11802C2F1200C10FA91
:100B40000CF320FA02F018BF40F001004FEAC12375
:100B50004FEAD32303FA0CFC40EA0C0023FA02F319
:100B60004FEA4303CCE77FEA625307D150EA0133EF
:100B70001EBF4FF0FE4040F44000704701F00040BF
:100B800040F0FE4040F40000704700BF53B94AB93E
:100B9000002908BF00281CBF4FF0FF314FF0FF3085
:100BA00000F070B9ADF1080C6DE904CE00F006F864
:100BB000DDF804E0DDE9022304B070472DE9F047D9
:100BC000089E0D4604460F46002B4AD18A429446A1
:100BD00065D9B2FA82F343B102FA03FCC3F12002F1
:100BE0009F4020FA02F217439C404FEA1C4E1FFA26
:100BF0008CF5B7FBFEF1220C0EFB117742EA07429F
:100C000001FB05F090420AD91CEB020201F1FF370B
:100C100080F01C81904240F2198102396244121A1C
:100C2000A4B2B2FBFEF00EFB102244EA024400FB29
:100C300005F5A5420AD91CEB040400F1FF3280F04F
:100C40000781A54240F204816444023840EA014031
:100C5000641B00211EB1DC400023C6E90043BDE84F
:100C6000F0878B4208D9002E00F0ED800021C6E904
:100C700000050846BDE8F087B3FA83F1002949D1A1
:100C8000AB4202D3824200F2F880841A65EB030281
:100C900001201746002EE2D0C6E90047DFE702B97F
:100CA000FFDEB2FA82F3002B40F090808A1A4FEAFE
:100CB0001C471FFA8CFE0121B2FBF7F507FB15203C
:100CC000220C42EA00420EFB05F0904208D91CEBD0
:100CD000020205F1FF3802D2904200F2CB80454675
:100CE000121AA4B2B2FBF7F007FB102244EA024446
:100CF0000EFB00FEA64508D91CEB040400F1FF32F0
:100D000002D2A64500F2BB801046A4EB0E0440EAD6
:100D100005409FE7C1F120078B4022FA07FC4CEA0F
:100D2000030C05FA01F420FA07F3FD404FEA1C49D1
:100D30002343B5FBF9F81FFA8CFE09FB18551C0C70
:100D400044EA054408FB0EF5A54202FA01F200FA56
:100D500001F00BD91CEB040408F1FF3A80F0888005
:100D6000A54240F28580A8F102086444641B9DB24C
:100D7000B4FBF9F309FB134445EA044403FB0EFEFC
:100D8000A64508D91CEB040403F1FF356CD2A64537
:100D90006AD9023B644443EA0843A3FB0295A4EBEF
:100DA0000E04AC42C846AE4656D353D056B1B0EB53
:100DB000080264EB0E0404FA07F7CA40CC4017435C
:100DC000C6E9007418460021BDE8F087C3F1200190
:100DD00002FA03FC20FA01F225FA01F19D402A43B0
:100DE0004FEA1C471FFA8CFEB1FBF7F007FB10150A
:100DF000110C41EA054100FB0EF58D4204FA03F4A3
:100E000008D91CEB010100F1FF382FD28D422DD9FA
:100E100002386144491B92B2B1FBF7F507FB15118B
:100E200042EA014205FB0EF1914208D91CEB020295
:100E300005F1FF3816D2914214D9023D6244521A8C
:100E400045EA004138E73146304608E73946E6E6EC
:100E50001046FBE64845A9D2B9EB020865EB0C0E3B
:100E6000013BA3E74546EAE72B4694E74046D1E736
:100E7000D0467BE7023D624432E708460AE7644415
:100E8000023842E7704700BFDFF834D0002103E0AA
:100E90000C4B5B58435004310B480C4B42189A42A0
:100EA000F6D30B4A02E0002342F8043B094B9A4276
:100EB000F9D30AF03BFB2DF003F800F0D5FB7047A7
:100EC0000000032028F30C08000000206C01002023
:100ED0007001002084440120FEE7000000F1784307
:100EE00043F6FE72934205D9A3F58041914203D89F
:100EF0000120704700207047A3F50041914260D95E
:100F0000A3F5404393425ED900F1774303F57F0197
:100F10004FF6FE7291425AD902F5803203F57E01F6
:100F2000914252D903F57C01914252D903F57A01DD
:100F3000914250D903F5780191424ED903F57601DB
:100F400091424CD903F5740191424AD903F57201DB
:100F5000914248D9A0F1016043F6FE71884244D91C
:100F6000A0F5804C8C4542D9A0F5004C8C4540D969
:100F7000A0F5404088423ED903F56F004FF6FE7160
:100F800088423AD903F56E01914238D903F56C01D4
:100F9000914238D903F56A01914232D903F56801CB
:100FA000914236D903F56601914230D903F56401C7
:100FB00091422AD903F56203934294BF172000207F
:100FC00070470220704703207047052070470420B7
:100FD0007047062070470720704708207047092097
:100FE00070470A2070470B2070470C2070470D2077
:100FF00070470E2070470F20704710207047112057
:101000007047132070471220704716207047152034
:1010100070471420704700BFF0B5074683B01646EE
:101020000D460AF041FC3846FFF758FF044607EB2F
:101030008600FFF753FF431C13481B1BC0E9024304
:101040000023036001A9022303610AF0ABFC88B905
:10105000A6B17F1B0446043D043701E0A6420DD033
:101060007919002355F8042F022001340AF07AFB85
:101070000028F3D00AF036FC03B0F0BD0AF028FCDB
:10108000002003B0F0BD00BF8C0100200B460132F0
:1010900001EB8201C01A1A5843F8042B8B42FAD193
:1010A000704700BF2DE9F04F2DED028B8DB000AFE2
:1010B0000D46F860904601F039F803B2BB609B0022
:1010C0007B60073323F00703ADEB030D0446EB46CB
:1010D000F0B1013DD946DA46002601F025F806FBBD
:1010E000005008EB8003D3ED007A0136F8EE677A02
:1010F000B442EAEC017AF0D17E689FED477A5E4413
:10110000D9ED007A77EEC77AE9EC017A4E45F7D14E
:10111000BB686A46A2EBC30307EE904A9D466D4644
:10112000A1B207F11800F8EE678A64082AF01CFCE7
:101130000023594607F118002A462AF099FC224656
:10114000294628462BF002F907F1100307F1140293
:10115000214628462AF0A0FBD7ED047AB8EE678A2C
:1011600000F0E6FF07EE900AF8EE677A9FED2B7A23
:1011700067EE887A87EEA88AB4EEC78AF1EE10FA95
:101180001BD8DFED277AB4EEE78AF1EE10FA2DDBFB
:10119000BB6803EB830900F0CBFF09EB89094FEA39
:1011A0004909B9FBF0F005EB8000D0ED007A77EE4D
:1011B000A77A012387EEA87A0BE0DFED1A7AB4EE66
:1011C000E78AF1EE10FA1DD900F0B2FF9FED167A12
:1011D0000023FA683437104682ED008A82ED017AE6
:1011E0001372BD46BDEC028BBDE8F08FDFED0D7ACA
:1011F000B4EEE78AF1EE10FAE6D8B4EE478AF1EEE3
:1012000010FAE1D1BB68C3EB031900F091FF4FEA7C
:101210008909B9FBF0F0C6E700F0FF4400005C422A
:1012200000003442000082420000000090ED016A9C
:10123000D0ED025AD0ED004AD1ED026AD1ED013A6B
:1012400091ED004A2E492F4A2F4B76EE257A26EE55
:10125000251A74EEE77AB0EE417AA4EEA77A36EE5C
:10126000653A66EEE57A23EE077AB7EE005AC5EEE8
:10127000071AE6EE237A26EE065A24EEA47A65EEE5
:10128000A50A27EE033A23EEC50A67EE817AA0EE9F
:10129000A60AE3EE047A76EEC42AE4EE807A33EE10
:1012A000C42A67EEA17A22EE052A62EEA52A20EE74
:1012B000853A24EE865AC1ED007A74EE667A34EEF1
:1012C000634A65EE255AB0EE625AA0EEA72AA6EE52
:1012D000045A73EEE67A27EE027A67EE817A76EEAA
:1012E000E36AE4EE857AA3EE267A65EEA77A27EE26
:1012F000217A67EEA17A82ED007AC3ED007A704719
:10130000A0010020A4010020A8010020000000008E
:10131000F0B5534B534AD3ED007A93ED047A524F14
:101320002DED048BF8EE677A8DB0CDED037AD3ED19
:10133000017AF8EE677A0446CDED047AD3ED027AAD
:10134000F8EE677A0E46CDED057AD3ED037A07CA3B
:10135000F8EE676AD3ED057ACDED066AB8EE477A06
:10136000F8EE677A6D4685E8070006A829468DEDF8
:10137000077ACDED087AFFF759FF294603A8FFF752
:1013800055FF324609A80121FFF78CFEDDED0A7AF0
:10139000D7ED006A354DC6EEA78A3246344E09A80D
:1013A000022127EEA77AD6ED006AD5ED007A78EE15
:1013B000A78AC6EE877A78EEA78AFFF773FEDDED7F
:1013C0000A7A97ED007A96ED006A67EEA76A87EED3
:1013D000278AC6EE267A95ED007A38EE078A38EE2F
:1013E000278A78EEC87A17EE900AFFF715F90246B9
:1013F0000B4619A1D1E90001FFF790FA0F46064606
:10140000FFF774FB00EE100A2BF0B6FB07F100416A
:101410003046B0EE409AFFF769FB00EE100A2BF061
:10142000ABFB38EE887ADFED137AC4ED008AF6EE76
:10143000006A27EE267A69EE277A204684ED019A23
:1014400084ED028A84ED030A84ED047AC4ED057A02
:101450000DB0BDEC048BF0BD3333333333B34340B5
:10146000AC010020D0E90208A4010020A001002066
:10147000A8010020E02E654208B564200EF03CFA79
:10148000FBE700BF80B5194CDFF87480184E194D8A
:10149000194F2068154900231A4600F1FF3CD8F87F
:1014A0000000C4F800C00EF023FB22683C2338463D
:1014B000202112B923600AF049FC10484FF4005172
:1014C0000AF048FC002130460DF03EFD2B7800214B
:1014D000013B304673600DF0C7FC2B784FF47A70F7
:1014E0000A332B700EF008FAD3E700BF100000207B
:1014F000800300200C000020001002400018024071
:10150000E4010020F0B583B01F4E204D204C002791
:101510000097336B43F004033363336B03F004032E
:101520000093009B2B6823F00C032B602B6843F087
:1015300004032B60AB6943F40033AB610A200AF06B
:101540002FF82B6843F00C032B600197336B43F0AB
:1015500020033363336B03F020030193019BA368E3
:1015600023F44033A360636A23F00F036362E368EC
:1015700023F44033E3600A200AF012F8236843F4AE
:101580004033236003B0F0BD003802400008024041
:10159000001402402DE9F8431C469B0007336D46BA
:1015A000DB08A5EBC30300AF9D466D46164681469A
:1015B000884622462946FFF769FD45F826802246DF
:1015C00029464846FFF728FDBD46BDE8F88300BF21
:1015D00030B5002495B0CDE90A44CDE90C44CDE9FD
:1015E0000344CDE905441E4A01940794116C1D4B38
:1015F00041F080511164126C02F080520192019A04
:1016000002941A6842F440421A601B6803F4404393
:10161000029301224FF48033CDE9082308230225E9
:1016200010934FF480024FF4A873CDE90E5211933A
:101630000222042308A8CDE9122302990CF0C4F970
:101640000F23CDE903354FF4A0524FF4805303A884
:101650000521CDE9054207930CF0CEFB15B030BD56
:1016600000380240007000402DE9804800249DB001
:1016700009F06AFFFFF7ACFFFFF744FFCDE90F4425
:10168000CDE91144C34B00941394196BC248DFF8A1
:101690003CA341F010011963196B01F01001009196
:1016A00000990194196B41F020011963196B01F045
:1016B0002001019101990294196B41F08001196395
:1016C000196B01F08001029102990394196B41F0AA
:1016D00004011963196B01F0040103910399049447
:1016E000196B41F001011963196B01F001010491BB
:1016F00004990594196B41F002011963196B01F00B
:101700000201059105990694196B41F04001196396
:10171000196B01F04001069106990794196B41F08D
:10172000080119631B6B03F0080322460793142179
:10173000079B0AF00BFB9848202101220AF006FBC8
:101740009648224614210AF001FB954822464FF4A0
:1017500080510AF0FBFA934822464FF440510AF0B8
:10176000F5FA9148224604210AF0F0FA01228E4847
:101770004FF400510AF0EAFA4FF001084FF0030B62
:10178000142385480FA90826CDE90F38CDE9114B60
:101790000AF098F94FF488137F480F960FA9109319
:1017A00011940AF08FF920237B480F930FA902258B
:1017B0000427CDE9108412940AF084F97748129531
:1017C0000FA94FF01009CDE910840F970AF07AF9AC
:1017D000724812940FA9CDE91084CDF83C900AF01C
:1017E00071F94FF480536E480F930FA9CDE910841F
:1017F00012940AF067F94FF440536A4812950FA902
:10180000CDE910840F930AF05DF942F204036648B3
:101810000F930FA9CDE9108412940AF053F94FF4F5
:10182000004362480F930FA90F231393CDE910547F
:1018300012940AF047F905212246092009F0D4FE46
:10184000092009F00FFF5A485A4A026009F018FFB0
:1018500059495A4A5046CAE900124FF48042CAF820
:101860001020CAE90244CAE90544CAE907440AF05B
:10187000D3FC494650460BF09BFE214650460BF0E8
:10188000B7FEDFF84CC14E48DFF848A184624FF440
:101890008272C0E900C24FF4007E1822C0E906E25D
:1018A0000A22C262C0E90244C0E90444C0E9084413
:1018B0000CF090FD072210921292424ACAF80020C2
:1018C00040204FF4C072CAE905024FF40062CAF822
:1018D00020200FA94FF400525046CAE90184CAE9FA
:1018E0000379CDE913B5CAF82820CAF81C40CAF814
:1018F00024400F95119715950CF07AFC4FF6FF7266
:101900000BA95046CDE90B86CDE90D8408940CF067
:1019100091FC404609F044FE4FF6FF720BA9504679
:10192000CDE90B56CDE90D840CF084FC4FF6FF7227
:101930000BA95046CDE90BB6CDE90D740CF07AFC3D
:101940004FF40C72089208990E914FF6FF720BA992
:101950005046CDE90B76CDF834800CF06BFC504648
:1019600040F26A510CF084FCDFF86CA0342221466E
:101970000FA82CF0A6F9144ACAF800200922CAF8C8
:1019800014201D22CAF81C2040F20D1340F243120D
:1019900024E000BF0038024000100240000802406E
:1019A00000040240000C0240001802400000024007
:1019B000F001002000300240005C0040A0860100E1
:1019C00028030020400100A000680140F801002029
:1019D00000500140F40200204C020020CAE9093204
:1019E00040F2171140F24712AAF834405046CAE9B3
:1019F0000B12CAF81880CAF820B0CAE90144CAE933
:101A000003448AF836400BF017FEF0231093199325
:101A10004FF4A07312931A93FF234FF4806E224663
:101A20000FA9504614930523CDE916E3DFF86C8225
:101A300013950F94119415941894ADF86C408DF88B
:101A40006E400BF0CFFE824BC8F800301B68DFF809
:101A500050A29847D8F80030DFF84882DB689847F2
:101A60007C4BC8F8003040464FF6FF73C8F80C3086
:101A7000C8E90144C8F81040C8F81840CDE90B4443
:101A8000CDE90D44CDE90F44CDE91144CDE9094438
:101A900013940DF08FF84FF480530BA940460B932D
:101AA0000DF0B2FB0FA94046CDE90F440DF05CFCF0
:101AB00009A94046CDE909440DF094FD63234FF098
:101AC000804BA721CAF80C3050468023CAF800B0DA
:101AD000CAF81830CAF80410CDE90F44CDE9114412
:101AE000CDE90B44CAF80840CAF810400DF062F87E
:101AF0004FF480530FA950460F934FF032080DF06A
:101B000083FB0BA95046CDE90B440DF06BFDCBF8E0
:101B10003480214650460DF0A7F93946CBF838807D
:101B200050460DF0A1F94C4FCBF83C803146504661
:101B30000DF09AF94949BC606323D122C7E9033407
:101B400038468023BB61C7E90012CDE90F44CDE9D7
:101B50001144CDE9134415940DF02CF838460DF0DE
:101B6000F5F84FF0600B22460FA938463C4E13940F
:101B7000CDE91044CDF83CB00DF036FA384600F00F
:101B8000FBFC6323374FF3608023B361304653235C
:101B9000C6E90073CDE90B44CDE90D44CDE90F440E
:101BA000CDE91144CDE913441594B46034610DF0CE
:101BB00001F84FF480530BA930460B930DF024FB32
:101BC00030460DF0C3F822460FA93046CDE9108407
:101BD000CDF83CB013940DF007FA2146C7F83480D5
:101BE00030460DF041F9304600F0C6FC00F05AFED8
:101BF00000F056FEFFF786FC00F058F900F08AF975
:101C000019491A480C22FFF741FA0DF0FDFD29464B
:101C1000174A48460DF032FF164B174A1860214606
:101C200016480DF01DFE164B164A18602146164840
:101C30000DF016FE154B164A0546214615481D6047
:101C40000DF00EFE144B18600DF0F0FDFEE700BF26
:101C50001C00002000040040800300200020004001
:101C60005804002000400140AC01002000001E0884
:101C700074EA0208E4010020B0EA020879140008BE
:101C8000EC01002050EA0208B5280008DC01002021
:101C90008CEA020885140008E8010020E001002019
:101CA000C803002010040020704700BF704700BF29
:101CB00010B5094C86B024680294144601238DF8AF
:101CC00017400DF117040A4601930146009403489A
:101CD0000AF06AFB06B010BD04000020F8010020E5
:101CE00000B50B4B87B01B68029384460A4601235C
:101CF0000DF117010020CDE900138DF817006146A2
:101D000004480AF043FC9DF8170007B05DF804FB97
:101D100004000020F801002010B5094C84B084466E
:101D200020680290CDE9002306480A460123614657
:101D30000AF02CFC003818BF012004B010BD00BF11
:101D400004000020F801002009F02ABC08B506486C
:101D50000022042109F0FAFFBDE8084002480122F0
:101D6000042109F0F3BF00BF0008024030B5104D58
:101D700083B0044601220F484FF4005109F0E6FFFA
:101D800028460022042109F0E1FF0B4B0B481B6899
:101D9000ADF806400DF1060101220CF07DFB012299
:101DA0000421284603B0BDE8304009F0CFBF00BF92
:101DB00000080240000C0240080000202803002018
:101DC00030B5104D83B0044600220F484FF4005147
:101DD00009F0BCFF28460022042109F0B7FF0B4B95
:101DE0000B481B68ADF806400DF1060101220CF00E
:101DF00053FB01220421284603B0BDE8304009F01E
:101E0000A5BF00BF00080240000C024008000020EF
:101E1000280300202DE9F043194E1A4FDFF868908F
:101E2000DFF8688083B00C46054600223046042166
:101E300009F08CFF384600224FF4005109F086FF6C
:101E4000D9F80030ADF8045001A9012240460CF049
:101E500023FBD9F80030224601A940460CF0C4FD0E
:101E6000384601224FF40051019C09F06FFF3046C3
:101E70000122042109F06AFF204603B0BDE8F08387
:101E800000080240000C0240080000202803002047
:101E900009F086BB034B02689A4200D0704709F0F4
:101EA0006DBB00BF00100040704700BF10B483B08E
:101EB000154B1649002400941A6B42F020021A6355
:101EC0001A6B02F020020092009A0868104A40F44F
:101ED00040500860086840F4403008600194196B75
:101EE00041F0040119631B6B03F004030193019B90
:101EF000136843F0C0031360136843F00C031360CE
:101F000003B05DF8044B70470038024000140240F3
:101F10000008024010B483B00E4A00200190116CFA
:101F200041F001011164126C4FF0804302F0010294
:101F3000019243F244310922019C9962DA625A68A3
:101F4000054942F020025A6081F81C0303B05DF895
:101F5000044B70470038024000E100E010B483B049
:101F6000364A374B374C00210091506C40F480606A
:101F70005064506C00F4806000900098D86A40F47F
:101F80004010D862586B40F004005863586B40F41E
:101F9000D0705863586B40F4C0505863586B40F48D
:101FA000B0205863586840F480705860986840F0DA
:101FB00080509860986840F0C0609860986840F4DD
:101FC000807098600191106B40F480001063126B78
:101FD00002F48002019203F5A133019A84F83913C7
:101FE0009A6A22F001029A629A6AD207FCD49A682D
:101FF0001548164942F400629A609A6A42F080627B
:102000009A629A6A42F480329A629A6A42F48042F0
:102010009A629A6A42F480529A629A6A42F48062A0
:102020009A629A6A4FF4807442F010029A62DC62FB
:102030001863596303B05DF8044B704700380240E1
:102040000022014000E100E04C220140A0040020F9
:102050001B4B1A68110500D470471A4A4FF00071E3
:10206000C2F88410BFF34F8FBFF36F8FC2F8841193
:102070009A6A22F001029A629A6AD207FCD499689D
:102080004FF0804241F40061996013680E4923F0DB
:102090000103136088680D4B20F001008860886898
:1020A00020F480708860596A41F480715962596ADD
:1020B00021F480715962136823F0010313607047A3
:1020C0000064024000E100E00022014000380240CC
:1020D00010B54FF4806200210F482BF0F2FDFFF79E
:1020E0003DFF0E4A0E49936A0E484FF0007443F0CC
:1020F00001039362C1F884414C6083684FF08041D2
:1021000043F0010383600B6843F001030B60936AA3
:10211000DB07FCD4004810BDA0040020006402408E
:1021200000E100E000220140042070474020704799
:102130004FF42070704700BF82B00E4B0022009217
:10214000596C41F480415964586C00F4804000900F
:1021500000980192186C40F0805018641B6C03F0DA
:1021600080530193019B0F216FF0010002B009F031
:102170003BBA00BF003802400B4B02689A4200D0C5
:10218000704782B000220192D3F8302842F4805286
:10219000C3F8302803F500631B6B03F480530193ED
:1021A000019B02B0704700BF003002402DE9704330
:1021B0002E4B02688AB000249A42CDE90444CDE94E
:1021C0000644089402D00AB0BDE87083284D0194FB
:1021D0002B6B284843F004032B632B6B03F00403A1
:1021E0000193019B02942B6B43F001032B632B6B38
:1021F00003F0010302934FF400724FF001084FF017
:102200000309042604A91223CDE90423CDE9068994
:10221000029B089609F056FC04A94FF48072122321
:1022200015480896CDE90423CDE9068909F04AFC52
:1022300003942B6C43F400032B642B6C03F4000316
:102240002246052103934820039B09F0CDF948203D
:1022500009F008FA2B6A43F400032B622B6A23F47B
:1022600000032B620AB0BDE8708300BF005C004031
:102270000038024000080240000002402DE9F04111
:1022800004469AB0002130220EA8CDE90811CDE90C
:102290000A110C912BF015FD674B22689A4202D06F
:1022A0001AB0BDE8F081C0230821042212930EA8C1
:1022B0004FF400330E91149217930BF06DFE00282B
:1022C00040F0B7805D4B5E48002401945A6C42F0A8
:1022D00080625A645A6C02F080620192019A029400
:1022E0001A6B42F020021A631A6B02F0200202926B
:1022F000029A03941A6B42F001021A631A6B02F0FD
:1023000001020392039A04941A6B42F002021A63C8
:102310001A6B02F002020492049A05941A6B42F0BE
:1023200040021A631A6B02F040020592059A069465
:102330001A6B42F004021A631A6B02F0040206924E
:10234000069A07941A6B42F008021A631B6B03F09B
:102350000803002602270E25079308A94FF4806280
:102360000223CDE90823CDE90A67079B0C9509F004
:10237000A9FB08A941F65802022332480C95CDE981
:1023800008234FF00908CDE90A6709F09BFB08A96B
:10239000032202232C48CDF83080CDE90823CDE973
:1023A0000A6709F08FFB08A94FF4706202232648E0
:1023B0000C95CDE90823CDE90A6709F083FB08A94C
:1023C0004FF40C62022321480C95CDE90823CDE996
:1023D0000A6709F077FB08A9C02202231C480C9564
:1023E000CDE90823CDE90A6709F06CFB08A90822AA
:1023F000022318480C95CDE90823CDE90A6709F0B6
:1024000061FB022308A94FF4A0521048CDF8308098
:10241000CDE90823CDE90A6709F054FB22460521DE
:10242000582009F0E1F8582009F01CF91AB0BDE86D
:10243000F081FFF739FD45E70068014000380240B0
:102440000014024000000240000402400018024054
:1024500000080240000C024010B51B4A016888B019
:1024600000239142CDE90233CDE90433069301D034
:1024700008B010BD02F568420093506C40F4801023
:102480005064506C00F48010009000980193136B1E
:102490000E4843F020031363136B9FED097B03F099
:1024A000200301930322052302A98DED027BCDE9D0
:1024B0000523019C09F006FB08B010BDAFF30080B6
:1024C00080030000020000000050014000140240A0
:1024D0000368B3F1804F84B018D0224A934207D0EA
:1024E000214A934221D0214A93422CD004B0704714
:1024F0001F4B002201921A6C42F002021A641B6CFC
:1025000003F002030193019B04B0704703F50E33FF
:10251000002200921A6C42F001021A641B6C03F054
:1025200001030093009B04B07047114B00220292FC
:102530005A6C42F480325A645B6C03F48033029329
:10254000029B04B070470A4B002203921A6C42F4BB
:1025500080721A641B6C03F480730393039B04B0B2
:10256000704700BF000400400040014000200040D0
:10257000003802400000000000B50268244989B01C
:1025800000238A42CDE90233CDE90433069305D016
:1025900020498A421AD009B05DF804FB1E4A009314
:1025A000136B1E4843F001031363136B9FED147B01
:1025B00003F00103009302A903238DED027B009A2F
:1025C000069309F07FFA09B05DF804FB124A019303
:1025D000136B43F001031363136B9FED0B7B03F04D
:1025E0000103019301980D480222092302A98DEDF0
:1025F000027B0592069309F065FA09B05DF804FBC9
:102600000400000002000000800000000200000042
:10261000004001400020004000380240000002401D
:10262000F0B52B4B89B01C6800220492002C4CD1D1
:102630000127284A01941F60936B27483B4393630B
:10264000936B3B4003260C254FF63F02019302A9F2
:102650000223CDE90223CDE90565019B09F032FA99
:102660001E48029702A90227CDE90374CDE905654A
:1026700009F028FA48F233131948029302A9CDE968
:102680000374CDE9056509F01DFA4FF6837315480B
:10269000029302A9CDE90374CDE9056509F012FAA8
:1026A0004CF203731048029302A9CDE90374CDE9FB
:1026B000056509F007FA60230C48039702A9CDE9E4
:1026C00004460695029309F0FDF909B0F0BD00BF7C
:1026D000A008002000380240001402400008024018
:1026E0000018024000100240000C024000040240AA
:1026F00070B588B0234B002202921A6C42F010028F
:102700001A641B6C03F010030293054601A903A889
:10271000029B0BF01FFC069BD3B90BF00BFC03468E
:10272000194A1A4C1A49A2FB03239B0C013B0022B5
:10273000C4E90013204640F2E7332261A260A2619F
:10274000E3600CF037FA064630B1304608B070BD91
:102750000BF0F0FB4300E3E720460CF0B9FA064625
:102760000028F2D1362008F07DFF0F2D01D9012677
:10277000EBE732462946362008F036FF054B1D6050
:10278000E3E700BF0038024083DE1B43A4080020BB
:102790000010004084000020704700BFFEE700BF2B
:1027A000FEE700BFFEE700BFFEE700BF704700BFC7
:1027B00008B5C82008F0F4FE04480022202109F0E2
:1027C000C5FABDE80840082009F0D0BA0010024060
:1027D00001480CF05DBE00BFA408002001480AF0CB
:1027E00025BA00BFF801002001480AF099BF00BFD8
:1027F0004C0200200120704708B52BF05BFB16232C
:1028000003604FF0FF3008BD08B52BF053FB1623D3
:102810000360FEE770B5161E07DD0C468D19AFF399
:10282000008004F8010BA542F9D1304670BD00BF0D
:1028300070B5161E07DD0C468D1914F8010BAFF3A9
:102840000080AC42F9D1304670BD00BF4FF0FF3080
:10285000704700BF4FF400534B600020704700BF2B
:1028600001207047002070470B4A08B503461068E6
:1028700028B1034469468B4207D8136008BD074856
:102880001060034469468B42F7D92BF013FB0C23ED
:1028900003604FF0FF3008BDEC08002088440120A1
:1028A000704700BF08B500F0ABFBBDE8084000F082
:1028B00033BB00BF00F0A6BB704710B5042104462F
:1028C0002AF013F9204610BD38B50C4B0C4C18807B
:1028D0000C4B822019806368984740F61103984298
:1028E0000AD1094D23682C60822098472B688220EA
:1028F000DB689847002038BD0120FCE7F008002085
:1029000054000020F2080020F40800204FF4A071C9
:10291000F020FFF7D9BF0000F7B5334D2B68044610
:102920001B698220984780B2208000284AD02B68FB
:102930000DF106025B6901A982209847BDF80630B7
:1029400040F6746293423FD9ADF80620BDF80630D8
:10295000D21A92B20A2A3DD90B23B2FBF3F2234BCF
:102960001B889A4201D9013B9AB2BDF8043040F667
:10297000B8318B4230D8C3F571630E339BB20F214F
:10298000B3FBF1F31A4909888B4201D901398BB2A3
:10299000184E194D30682F68834281B28CBF591A86
:1029A000C91AB8B2BA428CBF101A801A89B280B262
:1029B00001440529C8BF33603368C8BF2A606380FB
:1029C0002B68A38003B0F0BDB32B9CBFB423ADF83C
:1029D0000630BBE70022C8E7C3F56D6308339BB23E
:1029E0000E2BCCD80023D3E7F4080020F2080020F7
:1029F000F0080020F8080020FC08002037B56846E1
:102A00000D461446FFF788FFBDF8000048B1BDF839
:102A100002302B60BDF804302360034B3C221A6067
:102A2000012003B030BD00BF1000002010B102280B
:102A300009D07047074B1A68B2FA82F25209042192
:102A4000054809F083B9034B9A68B2FA82F2520939
:102A50001021F5E7000900200010024010B1022803
:102A600009D07047074B1A68003A18BF01220421A9
:102A7000054809F06BB9034B9A68003A18BF012268
:102A80001021F5E7000900200010024010B10228D3
:102A900004D070470421024809F05CB91021FAE71C
:102AA0000010024008B530B1022809D00020431EB2
:102AB0005842584108BD0421024809F041F9F6E79F
:102AC0001021F9E70010024070B5084D00240126DE
:102AD000E0B2FFF7E7FF18B12B68012B18BF2E609B
:102AE0000134052C05F10405F2D170BD0009002068
:102AF000012380F8781080F8793070470020704703
:102B0000034B4164003918BF01211970704700BFA1
:102B10004B38012000207047836B0BB108461847E3
:102B200070474FF6FF707047406803689B6918470D
:102B3000704770477047000010B5044600F04EFB28
:102B400023680349D3F88C302046BDE8104018476D
:102B5000000000D008B503680446D3F880309847D9
:102B6000236820469B6F984700F0ECF823682046C6
:102B70001B6F98472920FFF723F900F0E3F823683B
:102B800020461B6F9847F8E710B5044611F0BEFACF
:102B900023682046D3F8AC30BDE81040184700F059
:102BA0000FBB00F013BB00F037BB00F0DFBA00F042
:102BB000E5BA00F03DBB00F0E9BA10F012BD10B567
:102BC0007C21044629F091FF204610BD90F87A3010
:102BD0001BB1406803681B6818471846704700001F
:102BE00010B590F8341090F878400C4B8C421A785D
:102BF00009D03AB90A4A0B491488088810800C8019
:102C000001221A7010BD002AFCD0054A054914881B
:102C1000088810800C800022F3E700BF44380120B0
:102C2000403801204238012070B50D46194635B9AB
:102C3000094B0A4A0A4840F2D2212AF03DFEC0E977
:102C40000F52084B003A18BF01221A700368BDE802
:102C50007040D3F88C301847ECEA020824EB0208E5
:102C600072EB02084A38012008B5094B1B888B42D9
:102C700003D8084B1B88934205D9074B074A0848DD
:102C80009E212AF019FE074B1980074B1A8008BDB8
:102C90004038012042380120B7EB02081AEC020844
:102CA00072EB02084638012048380120012108B59E
:102CB000002208460CF02EFE0A4B186028B90A4B79
:102CC0000A4A28210A482AF0F7FD0022042101209F
:102CD0000CF0D4FE074B186018B9074B034A2C219F
:102CE000F0E708BD1409002038ED020881ED020864
:102CF000B0ED0208100900202AEE0208024B4FF046
:102D0000FF3118680CF05ABE14090020014B1868F6
:102D10000CF088BE14090020024B002118680CF04A
:102D20004DBE00BF14090020FFF7F0BF034804495F
:102D3000006800231A460CF0DBBE00BF100900201B
:102D40001400002013B5084C00231A4601A920687E
:102D50000CF004FF20684FF0FF33002201A90CF0B3
:102D6000FDFE02B010BD00BF10090020704700201A
:102D700070477047704700207047704708B5034A96
:102D8000034B044822212AF097FD00BF8FEE020872
:102D90006CEE0208CDEE020808B5034A034B044866
:102DA00027212AF089FD00BF45EF02086CEE0208DA
:102DB000CDEE020810B54421044629F096FE2046C7
:102DC00010BD000038B5044621460025064B25728B
:102DD0000C3060606572012241F8203B11F0EEFA80
:102DE000E562204638BD00BF8CEF02080120704725
:102DF00038207047382303FB010008307047382320
:102E000003FB0100083070470120704741F6045071
:102E1000704741F6045303FB01000830704741F648
:102E2000045303FB01000830704701207047102055
:102E3000704700EB01100830704700EB01100830BC
:102E40007047084602F06CBB10B5034B03600446A4
:102E50000FF0DDFA204610BD44F0020810B504461C
:102E6000FFF7F2FF2046402129F03FFE204610BD2B
:102E700010B5034B036004460FF0C9FA204610BD9D
:102E800010F0020810B50446FFF7F2FF204641F6A5
:102E90000C5129F02AFE204610BD000010B5034B4E
:102EA000036004460FF0B3FA204610BDDCEF0208C1
:102EB00010B50446FFF7F2FF2046182129F015FE51
:102EC000204610BD10B5094B0360044600F5E950DB
:102ED0001830FFF7B9FF04F12C00FFF7C9FF04F128
:102EE0001400FFF7DBFF204610BD00BF78F002089A
:102EF00008B50248FFF7E6FF08BD00BF1C09002027
:102F000010B50446FFF7DEFF204641F6DC6129F0EC
:102F1000ECFD204610BD00002DE9F34100F05CFA05
:102F2000054600F05DFA0024014623462846224665
:102F3000009419F061F9264B264A274D1A60204665
:102F400007F04EFB254819F0BFF82B68BFF35B8FE5
:102F5000DB0736D4284629F0CAFD90B3204C214B1C
:102F6000214F236004F5EC5604F1140004F12C0801
:102F70006060C4F80880E76026610FF049FA1B4BD7
:102F8000636140460FF044FA194BE36238460FF094
:102F90003FFA04F58053174AC3F8382D03F67850EA
:102FA00007F084FF2246A6F10801304607F09EFC98
:102FB000304602F0B5FA10482AF09CFC284629F069
:102FC000A2FD0E4802B0BDE8F041FFF7B5BD00BF5D
:102FD000B0380120BC28002018090020180000206B
:102FE0001C09002078F0020854260020DCEF0208BB
:102FF00010F0020844F00208F12E000840280020DA
:10300000704700000148FFF7A5BD00BF4028002021
:1030100070B5224E224C234D234B23603046FFF7E0
:10302000D1FE28461DF0B4FB204B2148DC60002275
:103030004FF48071C3E912121E491A86C3E91A12AD
:103040001D4999671D4983F858200B60F0210180C4
:103050001B485A6601801B4883F870204FF4A0710A
:10306000C3E90422C3E90622C3E90822C3E90A220C
:10307000C3E90E22C3E91022C3E91422C3E91722CF
:103080005A67C3E9016501800F4801800F490A7042
:10309000012283F834200E4A1A6070BDFC270020FC
:1030A000F8270020C0280020DCEA02084028002081
:1030B0004038012001000001000001014C380120CE
:1030C0004638012042380120483801204438012088
:1030D00068EC02080020704781807047C18070470B
:1030E0000181704741817047704770477047704752
:1030F000704710B4C4880368121B84885B6D091B79
:1031000012B25DF8044B09B218474FF6FF73838182
:103110004FF0FF3303621368C3611060704790F88B
:1031200025201AB190F8242002B1186070470020C1
:1031300070478B88838001207047704780F8261085
:10314000704790F82600704710B50022B1F908408A
:10315000B1F90A10028042808480C18010BD002233
:10316000028042808280C28070470000024B902221
:1031700083F85823704700BF00E100E0024B4FF096
:1031800080729A60704700BF00E100E0094A0A4976
:10319000D3680A48C3F30A03013B9BB20B80116951
:1031A000C1F30A01013901801364536B43F0010339
:1031B00053637047006801404629002044290020DD
:1031C000014BD3F8AC00704700680140024B01226C
:1031D000C3F8AC105A6270470068014070B50446ED
:1031E00010F055FA23685D6E15F0CAFB01462046C3
:1031F000A8472368054AD3F888502046AC460023E8
:10320000BDE87040A2F51631604700BF00B004D0A1
:1032100010F024BA10F02EBA10F0E9B910F04BBB40
:1032200090F8252012B103685B69184770470000C9
:10323000044B4FF08072C3F88820BFF34F8FBFF369
:103240006F8F704700E100E070B50023124E83805D
:10325000124B0360336893F8582005460AB1D86CC6
:1032600000B998680368DB6A98473368B0FA80F45D
:10327000D86C640930B10368DB6A9847002808BF3E
:1032800044F001042CB9064B064A07482C212AF0C9
:1032900013FB284670BD00BF4C38012088F102089E
:1032A00084F00208E2F002081BF1020870470000F7
:1032B0002DE9F041FF2BBDF8184000EB410105D18D
:1032C00020F8024B8142FBD8BDE8F081174F04F48F
:1032D000FC6604EA070C04F01F0403FB0CFC5E43CD
:1032E0005C43DB43DBB2FF25B0F800E00EEA0702E7
:1032F0000EF4FC6803FB02C203FB08680EF01F0E0D
:10330000B2FBF5F2B8FBF5F83A4008F4FC6842EA83
:10331000080203FB0E4EBEFBF5FE0EF01F0E42EA46
:103320000E0220F8022B8142DED8CDE700F8FFFF25
:1033300010B5144C236823B3134B144A1B6C11882B
:103340008B4213D1124B19880AF01CFB226892F8A9
:103350006A30013382F86A30FFF7E8FC206810F029
:10336000D5FEBDE810400020FFF760BB0AF00AFB65
:10337000206803681B6A9847BDE810400020FFF7EB
:103380006DBB10BD4C38012000680140462900206B
:1033900044290020704710B50421044629F0A5FBFC
:1033A000204610BD08B5032913D8DFE801F0020656
:1033B0000A0E07F061F9006808BD07F05DF9406882
:1033C000FAE707F059F98068F6E707F055F9C068A1
:1033D000F2E70020F0E7000000487047B4F102086F
:1033E0000C20704713B5002451B1036801948DF887
:1033F000034001AA9C680DF10303A04702B010BD71
:103400000846FBE7C0897047008A7047C08870474C
:1034100080887047807A00F07F007047807AC0090A
:103420007047806A704770477047704770477047B1
:10343000704730B50368018185B06D460146D3F809
:10344000843004462846984795E807003C3484E8D1
:10345000070005B030BD30B50368418185B06D46C9
:103460000146D3F8843004462846984795E807007B
:103470003C3484E8070005B030BD00220280428061
:103480008280C280704780F83610704770B503683C
:1034900004461B6B154698472368294620465B6EF9
:1034A000BDE87040184700207047806C7047704737
:1034B0000368DB6A184703681B6B1847704770473F
:1034C000704730B4C26844685510034604EB62008C
:1034D000D20748BF62599B6830BC48BFD3581847D1
:1034E00043682BB183682BB9C06800F001007047B6
:1034F000184670470120704710B50821044629F08E
:10350000F4FA204610BD10B54C21044629F0EDFA1E
:10351000204610BD10B51021044629F0E6FA2046D9
:1035200010BD10B58C21044629F0DFFA204610BDED
:1035300038B50546054B45F8E03B044613F01EFD43
:1035400028460FF0D3FB204638BD00BF9CF502088B
:1035500010B50446FFF7ECFF204641F6045129F070
:10356000C4FA204610BD08B5FFF75AFE08BD00009A
:10357000036870B55E6B124B1B6804468DB22BB9A5
:10358000104B114A6C2111482AF096F91049828D8E
:103590000988914203D80F4B0B4A6D21F3E713F8CA
:1035A00012200D4B1B6853F8220003681B6B9847D1
:1035B000281A01B233462046BDE87040184700BFC4
:1035C000A4380120A4F20208E6F2020821F302085E
:1035D000A838012068F30208AC38012070B50368F0
:1035E00004461B6B154698472368294620465B6BAB
:1035F000BDE87040184770B504461D46BDF910601F
:10360000FFF7ECFF2368294620469B6B9847236809
:1036100031462046DB6BBDE8704018474FF480719F
:103620000022818405490160C0E90122C0E903222A
:10363000C0E90522C0E9072282627047C01403086E
:103640000022C0E90122C0E90322C0E90522C0E945
:1036500007224FF480728284014A0260704700BFE3
:10366000ECF302081A4B73B51B88018F8B42064698
:103670002BD9184B1B682BB9174B184A18486C21CB
:103680002AF01AF913F81120164B1B6853F8225030
:10369000154B186806F0E0FF2B6801909B6B2846DD
:1036A00098472B6801999B6C0446284698472B68DD
:1036B00001995B6A14FB00F428469847A4B22318CA
:1036C0001BB2A6F8463002B070BD0023F9E700BF78
:1036D000A8380120A4380120A4F20208E6F202086A
:1036E00021F30208AC380120B038012000224FF04D
:1036F000FF31C0E900218260704710B50446FFF732
:10370000F5FF204610BD000010B50021044626221A
:103710002AF0D7FA2046FFF793FF094B2360094BA5
:10372000A3624FF6FF73A3854FF47F020023C4E921
:103730000C32238704F13C00FFF7D8FF204610BD70
:103740001819030854F4020810B50446FFF7DCFF0B
:10375000024B23600023A364204610BDF4F402084A
:1037600010B504460B460D4944F8041B0246D3E944
:10377000010184E80300D3E9030102F10C0484E8A9
:103780000300D3E906015C69D161196A9B8C11625F
:10379000C2E905409384104610BD00BF381D0308E0
:1037A00038B50D460446FFF7DBFFAB6AA3622B4B2F
:1037B0002360EB6AE3622B6B23636B6B636305F13E
:1037C000380104F13800FFF7CBFF2B6E2366244B42
:1037D000A36395F8643084F86430B5F86630A4F8D3
:1037E000663005F1680104F16800FFF7B9FFD5F80C
:1037F0009030C4F890301B4BA36605F1940104F19E
:103800009400FFF7ADFFB5F8BA30A4F8BA3095F8D8
:10381000BC3084F8BC30144BC4F89430B5F8BE30DA
:10382000A4F8BE30B5F8C030A4F8C03005F1C4012A
:1038300004F1C400FFF794FF0C4BC4F8C430B5F892
:10384000EA30A4F8EA3095F8EC3084F8EC30B5F8BA
:10385000F030A4F8F030204638BD00BF5015030802
:103860001416030864F40208101A0308F41B030872
:10387000F0B500F198039942C1B004460D4603D15A
:1038800015F07EF801F05CFE04F51E739D4226D112
:1038900004F1E006314603A8FFF782FFFEF718FCAB
:1038A000012102466846FDF7FDFBDDED017ADF48A8
:1038B000FCEEE77A0C2317EE907A17EE901A0022AE
:1038C000FDF768FEDA4A3B460A2104F61C6018F050
:1038D00005FA304616F03CF903A80FF007FA04F594
:1038E0000F739D4226D104F1E006314603A8FFF78D
:1038F00057FFFEF7EDFB012102466846FDF7D2FBBC
:10390000DDED017AC948FCEEE77A0C2317EE907AD8
:1039100017EE901A0122FDF73DFEC54A3B460A21EB
:1039200004F6086018F0DAF9304616F011F903A829
:103930000FF0DCF904F500739D4226D104F1E00696
:10394000314603A8FFF72CFFFEF7C2FB0121024618
:103950006846FDF7A7FBDDED017AB448FCEEE77A97
:103960000C2317EE907A17EE901A0222FDF712FE42
:10397000AF4A3B460A2104F6F45018F0AFF930463E
:1039800016F0E6F803A80FF0B1F904F5A1639D4223
:1039900026D104F1E006314603A8FFF701FFFEF748
:1039A00097FB012102466846FDF77CFBDDED017ABD
:1039B0009E48FCEEE77A0C2317EE907A17EE901AE9
:1039C0000322FDF7E7FD9A4A3B460A2104F65860B8
:1039D00018F084F9304616F0BBF803A80FF086F90A
:1039E00004F2CC439D4226D104F1E006314603A8FF
:1039F000FFF7D6FEFEF76CFB012102466846FDF795
:103A000051FBDDED017A8948FCEEE77A0C2317EED5
:103A1000907A17EE901A0422FDF7BCFD844A3B46CB
:103A20000A2104F6446018F059F9304616F090F86F
:103A300003A80FF05BF904F592639D4226D104F1CF
:103A4000E006314603A8FFF7ABFEFEF741FB01217C
:103A500002466846FDF726FBDDED017A7348FCEE71
:103A6000E77A0C2317EE907A17EE901A0522FDF7ED
:103A700091FD6F4A3B460A2104F5636018F02EF968
:103A8000304616F065F803A80FF030F904F5F3633B
:103A90009D4226D104F1E006314603A8FFF780FEDF
:103AA000FEF716FB012102466846FDF7FBFADDED45
:103AB000017A5E48FCEEE77A0C2317EE907A17EE57
:103AC000901A0622FDF766FD594A3B460A2104F684
:103AD000946018F003F9304616F03AF803A80FF096
:103AE00005F904F25C739D4226D104F1E0063146EB
:103AF00003A8FFF755FEFEF7EBFA012102466846E0
:103B0000FDF7D0FADDED017A4848FCEEE77A0C23A8
:103B100017EE907A17EE901A0722FDF73BFD444A04
:103B20003B460A2104F5686018F0D8F8304616F0D4
:103B30000FF803A80FF0DAF804F5E4639D4226D1EC
:103B400004F1E006314603A8FFF72AFEFEF7C0FAAB
:103B5000012102466846FDF7A5FADDED017A3348FA
:103B6000FCEEE77A0C2317EE907A17EE901A0822F3
:103B7000FDF710FD2E4A3B460A2104F66C6018F052
:103B8000ADF8304615F0E4FF03A80FF0AFF804F6E7
:103B900028239D4226D104F1E006314603A8FFF711
:103BA000FFFDFEF795FA012102466846FDF77AFA15
:103BB000DDED017A1D48FCEEE77A0C2317EE907AD2
:103BC00017EE901A0922FDF7E5FC194A3B460A2137
:103BD00004F56D6018F082F8304615F0B9FF03A8BF
:103BE0000FF084F804F6EC139D422BD104F1E006AB
:103BF000314603A8FFF7D4FDFEF76AFA0121024619
:103C00006846FDF74FFADDED017A0848FCEEE77AE9
:103C10000C2317EE907A17EE901A0A22FDF7BAFCE1
:103C2000034A3B460A2104F6BC6003E000001E087C
:103C3000A6F3020818F052F8304615F089FF03A8E1
:103C40000FF054F804F51B639D4226D104F1E00601
:103C5000314603A8FFF7A4FDFEF73AFA0121024618
:103C60006846FDF71FFADDED017A0D48FCEEE77AB4
:103C70000C2317EE905A17EE901A0B22FDF78AFCD0
:103C8000084A2B460A2104F6A86018F027F83046A7
:103C900015F05EFF03A80FF029F841B0F0BD00BF9A
:103CA00000001E08A6F302085201490110F072BF7D
:103CB0005201490110F079BF10B4C46BB4EB411F3D
:103CC0004FEA411204D05DF8044BC26310F06CBEA1
:103CD0005DF8044B704700002DE9F04F2DED108B7F
:103CE0000446ADB0A146002516F0CAFAE54BE563DF
:103CF00049F8403B26222946484629F0E2FF48463B
:103D0000FFF79EFC04F16C08FF26DF4B236426229C
:103D10004FF6FF73294684F866604046A566ADF805
:103D2000A43029F0CEFF4046FFF78AFCD74BE3666C
:103D300084F89460BDF8A430A4F8923029AE3146DE
:103D400004F1980B404612F01CF9584612F050FA54
:103D500004F1E003184608EE103A0FF0F5F804F508
:103D6000EA73184608EE903AFFF758FC04F5007322
:103D70001846119312F0DEF804F50F7304F51E7760
:103D80001846129312F0D6F8384612F0D3F804F51C
:103D90002D7318460DEE903AFFF7D6FC04F54073EC
:103DA00018460EEE103AFFF7CFFC04F55373184691
:103DB0000EEE903AFFF7C8FC04F5667318460AEE5B
:103DC000903A10F0D1FD04F5816318461C93FFF77B
:103DD0003BFAAF4BC4F8083403F1240204F21C414F
:103DE000C4F810240846C4F8145404F2644A079135
:103DF000FFF78AFC5046FFF711FC04F59261084674
:103E0000139112F097F804F2CC410846149112F085
:103E100091F804F5A1610846159112F08BF804F2AF
:103E2000445108460891FFF78FFC04F5B26108463B
:103E30000991FFF789FC04F2DC5108460A91FFF76B
:103E400083FC04F5C56108460BEE101A10F08CFDDA
:103E500004F5D36108461D91FFF7F6F98C4BC4F8C1
:103E6000983603F1240204F2AC61C4F8A026084697
:103E7000C4F8A4560FEE101AFFF746FC04F2F461E2
:103E8000084609EE101AFFF7C9FB04F5E46108467D
:103E9000169112F04FF804F25C710846179112F077
:103EA00049F804F5F3610846189112F043F804F25A
:103EB000D47108460B91FFF747FC04F502610846F0
:103EC0000C91FFF741FC04F66C0108460D91FFF7D9
:103ED0003BFC04F6B80108460BEE901A10F044FDC6
:103EE00004F6281108461E91FFF7AEF9684BC4F896
:103EF000283903F1240204F63C11C4F8302908469D
:103F0000C4F834590FEE901AFFF7FEFB04F6841143
:103F1000084609EE901AFFF781FB04F51B6108467D
:103F2000199112F007F804F6EC1108461A9112F0F4
:103F300001F804F6282108461B9111F0FBFF04F656
:103F4000642108460E91FFF7FFFB04F52B6108463C
:103F50000F91FFF7F9FB04F6FC2108461091FFF7DB
:103F6000F3FB04F6483108460CEE101A10F0FCFC86
:103F700004F6B83108461F91FFF766F9444BC4F8C0
:103F8000B83B03F1240204F6CC31C4F8C02B084638
:103F9000C4F8C45B0391FFF7B7FB04F6144108466D
:103FA0000CEE901A10F0E0FC04F6844108462091D3
:103FB000FFF74AF9364BC4F8843C03F1240204F6B7
:103FC0009841C4F88C2C0846C4F8905C0491FFF723
:103FD0009BFB04F54E6108460DEE101A10F0C4FC70
:103FE00004F5556108462191FFF72EF9284BC4F8D6
:103FF000503D03F1240204F66453C4F8582D1846CA
:10400000C4F85C5D0593FFF77FFB04F6AC531846DC
:104010000693FFF779FB04F580531E4AC3F8F42C8E
:104020001D4AC3F8FC2CC3F8F84CC3F8005D4FF4EC
:10403000616104F6E46012F097FF4FF4A0732A4622
:10404000484600932946F023FFF7D5FA4FF07F4307
:10405000A366231D184649460AEE103A0EF0B8FB37
:104060002A4640462946FFF7B9FA0823404631461A
:10407000ADF8A43011F085FF41461AEE100A0EF09B
:10408000A7FB0BE09CF50208A8190308F41B030822
:10409000DC16030884F5020871380008584640F21F
:1040A00001122121FFF79AFA0323324628A9584624
:1040B000ADF8A0300223ADF8A43011F06CFD3B2325
:1040C0005846A4F8D030FFF7CDFA4FF0FF33C4E9DB
:1040D000353304F5E7531433C4F8C03059461AEEAB
:1040E000100A02930EF074FB18EE100A55222946AE
:1040F000FFF774FA062318EE100AADF8A030324626
:10410000072328A9ADF8A4300EF0BCFF8C2218EECE
:10411000100A50210EF064FE18EE100A32210EF043
:10412000E2FD18EE100A32210EF058FE474B1198AE
:10413000C4F8DC316122C221FFF750FA4FF00908C0
:104140004FF0010B27AA1198009628AB26A9ADF8CD
:104150009850ADF89CB0ADF8A080ADF8A48011F0F7
:1041600054FE029BC4F828321199C4F8385218EE54
:10417000900A0EF02DFB12983D22C221FFF72EFA75
:1041800027AA1298009628AB26A9ADF89850ADF84A
:104190009CB0ADF8A080ADF8A48011F036FE029B73
:1041A000C4F864321299C4F8745218EE900A0EF0F2
:1041B0000FFB38461922C221FFF710FA27AA38460A
:1041C00028AB26A90096ADF89850ADF89CB0ADF894
:1041D000A080ADF8A48011F018FE029BC4F8A032B4
:1041E000394618EE900AC4F8B0520EF0F1FA68227F
:1041F0001DEE900A0A21FFF7F1F94FF0FF33C4F8E2
:10420000E432D4F8B432A4F8E85222AFD3F88430C0
:104210001DEE901A3846984797E8070004F53C735E
:1042200083E807000A4B1B6804F6F4592BB9094BC5
:10423000094A6021094829F03FFB094B1B88262BBE
:1042400012D8084B044A6121F4E700BFF000AC002B
:10425000A4380120A4F20208A9F3020821F30208FD
:10426000A838012068F30208DB4B2621186806F005
:10427000F3F9DA4A03460A21484617F02FFD1DEEEE
:10428000900AC4F8FC9211F0ABF8D54B29931DEEBF
:10429000900A27233146ADF8A83011F0C1F81DEE81
:1042A000901A18EE900A0EF093FA1EEE100A4422AD
:1042B0001621FFF793F9D4F80033A4F834534FF0E4
:1042C000FF32D3F88430C4F830231EEE101A38467B
:1042D000984797E8070004F54F7383E80700C14A41
:1042E000136804F60869002BA1D0BF4A1388282B55
:1042F000A7D9B9482821006806F0AEF9B74A0346A5
:104300000A21484617F0EAFC1EEE100AC4F848934A
:1043100011F066F8B24B29931EEE100A292331469C
:10432000ADF8A83011F07CF81EEE101A18EE900AC5
:104330000EF04EFA20221EEE900A1621FFF74EF9DB
:10434000D4F84C33A4F880534FF0FF31D3F88430C5
:10435000C4F87C1338461EEE901A984797E8070079
:1043600004F5627383E807009E490B6804F61C6934
:10437000002B3FF45CAF9C4A13882A2B7FF661AF79
:1043800095482A21006806F067F9944A03460A21F5
:10439000484617F0A3FC1EEE900AC4F8949311F05F
:1043A0001FF88F4B29931EEE900A31233146ADF84A
:1043B000A8304FF00A0911F033F81EEE901A18EEEB
:1043C000900A0EF005FAF0231AEE900A0F22294601
:1043D000CDF80090FFF70FF94FF0FF3C1C99C4F89F
:1043E00014C40522A4F818C41AEE900AC4F8C01325
:1043F0001146FFF759FC05221AEE900AEB21FFF750
:1044000057FC1AEE900A5946FFF756FC1AEE900A2E
:10441000594610F0D5FB1AEE901A18EE900A0EF0DD
:10442000D7F92A4607986021FFF7D8F84FF0FF3EEA
:10443000C4F84CE438460799A4F8505410F056FDDF
:1044400097E8070004F58B6383E80700644B07983F
:10445000299331462523ADF8A83010F0E1FF0799E4
:1044600018EE900A0EF0B4F918EE901A18EE100A31
:104470000EF091FE5D4B1398C4F86C346122C2219A
:10448000FFF7ACF80DF1A00E73460DF19C0E7246CD
:104490000DF1980E714613980096ADF89850ADF84E
:1044A0009CB0ADF8A080ADF8A48011F0AEFC029FE6
:1044B0001399C4F8B8745046C4F8C8540EF088F97B
:1044C00014983D22C221FFF789F80DF1A00E734622
:1044D0000DF19C0E72460DF1980E714614980096DF
:1044E000ADF89850ADF89CB0ADF8A080ADF8A480C0
:1044F00011F08BFC029F1499C4F8F4745046C4F870
:1045000004550EF065F915981922C221FFF766F8D7
:104510000DF1A00E73460DF19C0E72460DF1980E32
:10452000714615980096ADF89850ADF89CB0ADF86E
:10453000A080ADF8A48011F068FC029F1599C4F822
:1045400030755046C4F840550EF042F9682249468D
:104550000898FFF743F84FF0FF3EC4F874E5A4F85D
:1045600078553046FFF7C2F896E8070004F5B063C7
:1045700083E807001B490B6804F56367002B3FF4D1
:1045800056AE194A13882F2B7FF65BAE12482F21A7
:10459000006806F061F8114A03464946384617F0AC
:1045A0009DFB0898C4F88C7510F01AFF0C4F089802
:1045B000299730233146ADF8A83010F031FF089923
:1045C00050460EF005F9442216210998FFF706F827
:1045D0004FF0FF330CE000BFB0380120E1F30208D8
:1045E00054F40208A4380120A8380120F000AC00DF
:1045F000C4F8C035A4F8C4553046FFF777F896E8FC
:10460000070004F2CC5383E80700DA490B6804F68C
:104610004465002B3FF40BAED74A13882D2B7FF651
:1046200010AED648DFF84CB300682D2106F014F820
:10463000D34A03464946284617F050FB0998C4F868
:10464000D85529AD10F0CCFE2E230998ADF8A8302E
:104650002946299710F0E4FE099950460EF0B8F863
:104660004FF0FF36202216210A98FEF7B7FFC4F854
:104670000C660026A4F810662846FFF737F895E880
:10468000070004F5C36383E80700DBF8003004F695
:104690005867002B3FF4CBADB74A13882C2B7FF61D
:1046A000D0ADB6482C21006805F0D6FFB44A0346C9
:1046B0004946384617F012FB0A98C4F8247610F0E1
:1046C0008FFEB04F0A9829974FF0310E2946ADF86A
:1046D000A8E010F0A5FE50460A990EF079F81BEEFE
:1046E000100AF0230F223146CDF80090FEF783FF29
:1046F0004FF0FF334FF0FF3C0522C4F8A4361D9B5A
:10470000A4F8A8C6C4F8503611461BEE100AFFF7ED
:10471000CBFA05221BEE100AEB21FFF7C9FA1BEEBC
:10472000100A0121FFF7C8FA1BEE100A012110F050
:1047300047FA50461BEE101A0EF04AF832461FEEAA
:10474000100A5C21FEF74AFF4FF0FF330DF1880C91
:1047500060461FEE101AC4F8DC36A4F8E06610F0CC
:10476000C5FB0DF1880C9CE807001FEE103A3C33A6
:1047700083E807002B231FEE100A2946ADF8A83066
:10478000299710F04DFE50461FEE101A0EF020F83B
:10479000514618EE100A0EF0FEFC7B491698C4F83C
:1047A000FC166122C221FEF719FF0DF1A00C634631
:1047B0000DF19C0C62460DF1980C092761464FF0F3
:1047C000010816980095ADF89860ADF89C80ADF89A
:1047D000A070ADF8A47011F018FB029BC4F8483724
:1047E0001699C4F8586719EE100A0DF0F1FF1798E2
:1047F0003D22C221FEF7F2FE0DF1A00C63460DF141
:104800009C0C62460DF1980C614617980095ADF826
:104810009860ADF89C80ADF8A070ADF8A47011F070
:10482000F4FA029BC4F884371799C4F8946719EE18
:10483000100A0DF0CDFF18981922C221FEF7CEFE06
:104840000DF1A00C63460DF19C0C62460DF1980C25
:10485000614618980095ADF89860ADF89C80ADF869
:10486000A070ADF8A47011F0D0FA029BC4F8C03764
:104870001899C4F8D06719EE100A0DF0A9FF682244
:1048800049460B98FEF7AAFE4FF0FF3CC4F804C857
:10489000A4F808682846FEF729FF95E8070004F504
:1048A000016383E80700DBF8003004F66C6A002B34
:1048B0003FF4BDAC304A1388242B7FF6C2AC2F489E
:1048C0002421006805F0C8FE2D4A0346494650469B
:1048D00017F004FA0B98C4F81CA810F081FD294BBE
:1048E0000B98299329462723ADF8A83010F098FD9E
:1048F0000B9919EE100A0DF06BFF442216210C984B
:10490000FEF76CFE4FF0FF3CC4F850C8A4F85468A2
:104910002846FEF7EBFE95E8070004F65C0383E803
:104920000700DBF8003004F5686A002B3FF47FAC29
:10493000114A1388232B7FF684AC1048232100688A
:1049400005F08AFE0E4A03464946504617F0C6F95E
:104950000C98C4F868A810F043FD0A4B0C982993F2
:1049600029462923ADF8A83010F05AFD0C9919EE0C
:10497000100A0BE0A4380120A8380120B03801202B
:10498000E1F3020854F40208F000AC000DF020FF3F
:10499000202216210D98FEF721FE4FF0FF3CC4F8AF
:1049A0009CC8A4F8A0682846FEF7A0FE95E807007A
:1049B00004F6A80383E80700DBF8003004F6946AE5
:1049C000002B3FF434ACDA4A1388222B7FF639AC43
:1049D000D8482221006805F03FFED74A03464946E1
:1049E000504617F07BF90D98C4F8B4A810F0F8FC05
:1049F0004FF0310ED14B0D98ADF8A8E02946299320
:104A000010F00EFD0D9919EE100A0DF0E1FE1BEEEF
:104A1000900AF0230F223146CDF80090FEF7EBFD0F
:104A20004FF0FF304FF6FF730522C4F834091E988B
:104A3000A4F838391146C4F8E0081BEE900AFFF7D5
:104A400033F905221BEE900AEB21FFF731F91BEE3B
:104A5000900A4146FFF730F91BEE900A414610F0EC
:104A6000AFF81BEE901A19EE100A0DF0B1FE3246A7
:104A70001FEE900A4921FEF7B1FD4FF0FF301FEE07
:104A8000901AC4F86C09A4F8706922A810F02EFAE4
:104A90001FEE900A00F13C0322A807C883E8070034
:104AA000A64B2993294621231FEE900AADF8A83082
:104AB00010F0B6FC1FEE901A19EE100A0DF088FEE9
:104AC00019EE101A18EE100A0EF065FB9C491998A1
:104AD000C4F88C196122C221FEF780FD27A90A467D
:104AE0001998009528AB26A9ADF89860ADF89C8080
:104AF000ADF8A070ADF8A47011F087F9029BC4F86E
:104B0000D8391999C4F8E86919EE900A0DF060FED9
:104B10001A983D22C221FEF761FD27A90A461A987C
:104B2000009528AB26A9ADF89860ADF89C80ADF84B
:104B3000A070ADF8A47011F068F9029BC4F8143AA3
:104B40001A99C4F8246A19EE900A0DF041FE1B98D8
:104B50001922C221FEF742FD27A90A461B9800959B
:104B600028AB26A9ADF89860ADF89C80ADF8A07090
:104B7000ADF8A47011F049F9029BC4F8503A1B99A2
:104B8000C4F8606A19EE900A0DF022FE68224946C8
:104B90000E98FEF723FD4FF0FF33C4F8943A2846F1
:104BA000A4F8986AFEF7A2FD95E8070004F52A63C9
:104BB00083E80700DBF8003004F6A865002B3FF41B
:104BC00036AB5B4A1388202B7FF63BABDFF8648162
:104BD000DFF868A1D8F80000202105F03DFD564A15
:104BE00003464946284617F079F80E98C4F8AC5A9F
:104BF00029AD10F0F5FB27230E98ADF8A830294613
:104C0000CDF8A4A010F00CFC0E9919EE900A0DF04E
:104C1000DFFD4FF0FF37442216210F98FEF7DEFC30
:104C2000C4F8E07AA4F8E46A2846FEF75FFD95E848
:104C3000070004F6EC2383E80700DBF8003004F6F5
:104C4000BC69002B3FF4F3AA394A13881F2B7FF667
:104C5000F8AA1F21D8F8000005F0FEFC364A0346EA
:104C60000A21484617F03AF80F98C4F8F89A10F05D
:104C7000B7FB29230F98ADF8A8302946CDF8A4A09A
:104C800010F0CEFB0F9919EE900A0DF0A1FD202235
:104C900016211098FEF7A2FCC4F82C7BA4F8306B08
:104CA0002846FEF723FD95E8070004F6383383E82D
:104CB0000700DBF8003004F56D69002B3FF4B7AA5C
:104CC0001B4A13881E2B7FF6BCAAD8F800001E21B1
:104CD00005F0C2FC184A03460A21484616F0FEFFBA
:104CE0001098C4F8449B10F07BFB31231098ADF86A
:104CF000A83029464FF00A09CDF8A4A010F090FB87
:104D0000109919EE900A0DF063FD1CEE100A314661
:104D1000CDF80090F0230F22FEF76DFC1F9BC4F826
:104D2000703B05221CEE100A1146C4F8C47B09E052
:104D3000A8380120B0380120E1F3020854F4020839
:104D4000F000AC00A4F8C87BFEF7AEFF05221CEE15
:104D5000100AEB21FEF7ACFF1CEE100A0121FEF752
:104D6000ABFF1CEE100A01210FF02AFF1CEE101AF7
:104D700019EE900A0DF188080DF02AFD32460398CD
:104D80004921FEF72BFC0399C4F8FC7B4046A4F8AC
:104D9000006C10F0ABF898E80700039BCDF8A4A0D6
:104DA0003C3383E807001D230398ADF8A83029465B
:104DB00010F036FB039919EE900A0DF009FD19EE7B
:104DC000901A18EE100A0EF0E6F918EE100A3146A5
:104DD0000EF0D2F918EE101A1AEE100A0DF0F8FCC7
:104DE0001CEE900A3146CDF80090F0234B22FEF7DE
:104DF00002FC4FF6FF73A4F8943C0522209BC4F8F4
:104E00003C3C1CEE900A1146C4F8907CFEF74CFF27
:104E100005221CEE900AEB21FEF74AFF1CEE900AD9
:104E20000121FEF749FF1CEE900A01210FF0C8FE98
:104E30001CEE901A1AEE100A0DF0CAFC04983C22DF
:104E40004621FEF7CBFB0499C4F8C87C4046A4F881
:104E5000CC6C10F04BF898E80700049BCDF8A4A0A8
:104E60003C3383E807003A230498ADF8A83029467C
:104E700010F0D6FA04991AEE100A0DF0A9FC1DEEF6
:104E8000100A3146CDF80090F0233222FEF7B3FB32
:104E9000219BC4F8083D05221DEE100A1146C4F8F6
:104EA0005C7DA4F8607DFEF7FFFE05221DEE100A72
:104EB000EB21FEF7FDFE1DEE100A0121FEF7FCFEC0
:104EC0001DEE100A01210FF07BFE1DEE101A1AEEE6
:104ED000100A0DF07DFC059823224521FEF77EFB8C
:104EE0000599C4F8947D4046A4F8986D0FF0FEFF34
:104EF00098E80700059BCDF8A4A03C3383E80700A1
:104F00003C230598ADF8A830294610F089FA059998
:104F10001AEE100A0DF05CFC06980C223621FEF702
:104F20005DFB0699C4F8DC7D4046A4F8E06D0FF007
:104F3000DDFF98E80700069BCDF8A4A03C3383E88A
:104F400007003D230698ADF8A830294610F068FA0E
:104F50001AEE100A06990DF03BFC20462DB0BDEC70
:104F6000108BBDE8F08F00BF7047704700F5987355
:104F70000868496803C370477047704741607047CD
:104F800010B50022B1F90840B1F90A100280428040
:104F90008480C18010BD704770470000064BC0F888
:104FA0004C310023C0F8503100F5A273C0F848011D
:104FB000C0F84031704700BF595300080123037205
:104FC00070477047704770477047704701464068A8
:104FD000036810315B6E1847014640680368103162
:104FE0001B6E1847704701464068036810315B6EBE
:104FF000184701464068036810311B6E1847704718
:1050000010B4C26841685410034601EB6200D20735
:1050100048BF0A599B685DF8044B48BFD3581847EE
:1050200043682BB183682BB9C06800F0010070475A
:10503000184670470120704710B50C21044627F030
:1050400054FD204610BD10B51021044627F04DFD3B
:10505000204610BD10B54FF4AE71044627F045FD53
:10506000204610BD10B53821044627F03EFD2046ED
:1050700010BD10B52821044627F037FD204610BD8D
:1050800010B53821044627F030FD204610BD10B57C
:1050900013F076FC0368BDE81040DB6B1847000096
:1050A00013B50446807A637A0130C0B29842A07288
:1050B00005D9012323720023A37202B010BDB4F9F5
:1050C0000C20002115F0CCFA10F0010283B22AD195
:1050D000E081194AB4F90E00E3891288B4F914107A
:1050E000A0820020D21AADF80200606822835B1A09
:1050F000124AADF804300368B2F900201B69ADF81C
:105100000010ADF8062069469847A37A012BD4D148
:105110000B4B1B78002BD0D013F032FC02B0BDE853
:10512000104013F033BC4FF6FF710028D8BF0A4679
:105130001344E381CDE700BF40380120423801200D
:105140004A38012010B50446D0F8400158B1036830
:10515000DB68984738B1D4F8400103689B689847EA
:105160000023C4F8403110BD2DE9F14FD0E9555A64
:105170000746A86803681B6A9847972805D8464BD6
:10518000464AA321464828F097FB686803681B6AD3
:1051900098470F2803D8434B404AA421F2E7E86818
:1051A00003681B6A98470B2803D83F4B3B4AA5214D
:1051B000E8E713F0E5FBDFF8F890043013F046FC65
:1051C000D9F8000010B10368DB689847D9F80000EF
:1051D00010B103681B689847DFF8D880D8F8000042
:1051E00010B103685B699847D7F83C0110B10368B8
:1051F0005B689847D8F8000010B103681B689847AF
:10520000D7F83C0110B103689B689847E8680368C9
:1052100000215B6A98474FF0000B244B0360044663
:10522000C0F804B080F808B0A868036859465B6A03
:105230009847064605F0ECFE6868036859465B6AC5
:1052400098473146054605F0BFFEC9F80040C7F84B
:105250003C51C8F80060E5B12B1DCAF80030336836
:10526000C5F808A03046DB68F56398472B682846E8
:105270001B6898472146304615F0AEF92368204652
:105280001B69984723685B69204601B0BDE8F04F71
:1052900018472B46E1E700BFD0F502085EF602088A
:1052A0006CF70208B3F7020856F802081009030861
:1052B000943801209038012037B50446807A637A0B
:1052C0000130C0B29842A07205D901232372002395
:1052D000A37203B030BDB4F90C20002115F0C0F961
:1052E00010F0010283B228D1E081184B18481988C8
:1052F000258BE389B0F90000ADF80600CA1A606892
:105300002B445B1A12B2ADF8043003682283ADF867
:10531000002000221B69ADF8022069469847A37A55
:10532000012BD6D10B4B1B78002BD2D013F028FBCE
:1053300003B0BDE8304013F029BB4FF6FF710028E1
:10534000D8BF0A461344E381CFE700BF40380120AD
:10535000423801204A3801202DE9F14FD0E9555A51
:105360000746A86803681B6A9847B0F5905F05D2A6
:10537000454B464AA321464828F09EFA68680368D0
:105380001B6A98470F2803D8424B404AA421F2E7F2
:10539000E86803681B6A98470B2803D83E4B3B4AD2
:1053A000A521E8E713F0ECFADFF8F490043013F0ED
:1053B0004DFBD9F8000010B10368DB689847D9F8B5
:1053C000000010B103681B689847DFF8D880D8F850
:1053D000000010B103685B699847D7F83C0110B131
:1053E00003685B689847D8F8000010B103681B6831
:1053F0009847D7F83C0110B103689B689847E86864
:10540000036800215B6A98474FF0000B234B036051
:105410000446C0F804B080F808B0A868036859468C
:105420005B6A9847064605F0A7FA6868036859461C
:105430005B6A98473146054605F078FAC9F800409E
:10544000C7F83C51C8F80060E5B12B1DCAF8003020
:105450003368C5F808A03046DB68F56398472B68C9
:1054600028461B6898472146304615F0B5F8236852
:1054700020461B69984723685B69204601B0BDE858
:10548000F04F18472B46E1E7D0F50208F9F802087B
:105490006CF70208B3F7020856F80208100903086F
:1054A0009438012090380120044B1B6893F8582051
:1054B0000AB1D86C00B99868704700BF4C38012019
:1054C000F8B5044617460E4613F08EFB104B1C60D1
:1054D000104B2360104B0025C4E951350F4BC4E934
:1054E00053551868036801219B68C4E94F55C4E906
:1054F00055769847284605F073F8FFF7D5FF1CF05E
:1055000076FFFFF7D1FF1CF0EDFF2046F8BD00BF8E
:10551000A0380120BC080308A40803084C38012067
:10552000064BC0F84C310023C0F8503100F5A2738F
:10553000C0F84801C0F84031704700BF5953000817
:10554000064BC0F84C310023C0F8503100F5A2736F
:10555000C0F84801C0F84031704700BFC559000885
:10556000064BC0F84C310023C0F8503100F5A2734F
:10557000C0F84801C0F84031704700BF69650008B5
:10558000064BC0F84C310023C0F8503100F5A2732F
:10559000C0F84801C0F84031704700BF8558000886
:1055A000064BC0F84C310023C0F8503100F5A2730F
:1055B000C0F84801C0F84031704700BF29640008B6
:1055C000064BC0F84C310023C0F8503100F5A273EF
:1055D000C0F84801C0F84031704700BFE9620008D8
:1055E000064BC0F84C310023C0F8503100F5A273CF
:1055F000C0F84801C0F84031704700BFA9610008F9
:10560000064BC0F84C310023C0F8503100F5A273AE
:10561000C0F84801C0F84031704700BF6960000819
:10562000064BC0F84C310023C0F8503100F5A2738E
:10563000C0F84801C0F84031704700BF4557000826
:10564000064BC0F84C310023C0F8503100F5A2736E
:10565000C0F84801C0F84031704700BF295F00081A
:10566000064BC0F84C310023C0F8503100F5A2734E
:10567000C0F84801C0F84031704700BFE95D00083C
:10568000064BC0F84C310023C0F8503100F5A2732E
:10569000C0F84801C0F84031704700BFA95C00085D
:1056A000064BC0F84C310023C0F8503100F5A2730E
:1056B000C0F84801C0F84031704700BF695B00087E
:1056C000064BC0F84C310023C0F8503100F5A273EE
:1056D000C0F84801C0F84031704700BF6951000868
:1056E00003685B6A18470000124B13B503604FF460
:1056F00080734363104B417203611049104BB1F941
:105700000010B3F90030838100224260027282727D
:10571000C281C0E90522C0E90722C0E90922C0E927
:105720000B220446009110301146FDF764FF20461D
:1057300002B010BD580903083C0803084238012094
:10574000403801202DE9F047D0E9554A0746A068C6
:1057500003681B6A984741F2C313984205D8424B2D
:10576000424AA321424828F0A7F8606803681B6AF0
:1057700098470F2803D83F4B3C4AA421F2E7E06842
:1057800003681B6A9847372803D83B4B374AA52143
:10579000E8E713F0F5F8DFF8E490043013F056F979
:1057A000D9F8000010B10368DB689847D9F8000009
:1057B00010B103681B689847DFF8C480D8F8000070
:1057C00010B103685B699847D7F83C0110B10368D2
:1057D0005B689847D8F8000010B103681B689847C9
:1057E000D7F83C0110B103689B689847E068002136
:1057F000FFF776FF14210546FFF776FFA0680368E0
:1058000000215B6A9847064605F076F960680368F0
:1058100000215B6A98473146044605F047F9C9F80C
:105820000050C7F83C41C8F80060DCB1231DCAF83D
:1058300000303368C4F808A03046DB68F46398474A
:10584000236820461B6898472946304614F0C4FE5A
:105850002B6828461B6998472B6828465B69BDE87A
:10586000F04718472346E2E7D0F5020801FA02089C
:105870006CF70208B3F7020856F8020894380120C2
:10588000903801202DE9F047D0E9554A0746A06835
:1058900003681B6A984741F2C313984205D8424BEC
:1058A000424AA321424828F007F8606803681B6A4F
:1058B00098470F2803D83F4B3C4AA421F2E7E06801
:1058C00003681B6A9847372803D83B4B374AA52102
:1058D000E8E713F055F8DFF8E490043013F0B6F879
:1058E000D9F8000010B10368DB689847D9F80000C8
:1058F00010B103681B689847DFF8C480D8F800002F
:1059000010B103685B699847D7F83C0110B1036890
:105910005B689847D8F8000010B103681B68984787
:10592000D7F83C0110B103689B689847E0680021F4
:10593000FFF7D6FE14210546FFF7D6FEA0680368E0
:1059400000215B6A9847064605F076F860680368B0
:1059500000215B6A98473146044605F047F8C9F8CC
:105960000050C7F83C41C8F80060DCB1231DCAF8FC
:1059700000303368C4F808A03046DB68F463984709
:10598000236820461B6898472946304614F024FEB9
:105990002B6828461B6998472B6828465B69BDE839
:1059A000F04718472346E2E7D0F5020831FB02082A
:1059B0006CF70208B3F7020856F802089438012081
:1059C000903801202DE9F047D0E9554A0746A068F4
:1059D00003681B6A9847B0F5905F05D2424B434A73
:1059E000A321434827F068FF606803681B6A984753
:1059F0000F2803D83F4B3D4AA421F2E7E068036833
:105A00001B6A9847372803D83B4B384AA521E8E75B
:105A100012F0B6FFDFF8E490043013F017F8D9F86D
:105A2000000010B10368DB689847D9F8000010B196
:105A300003681B689847DFF8C880D8F8000010B1E9
:105A400003685B699847D7F83C0110B103685B684D
:105A50009847D8F8000010B103681B689847D7F83A
:105A60003C0110B103689B689847E0680021FFF78C
:105A700037FE14210546FFF737FEA06803680021B2
:105A80005B6A9847064604F077FF60680368002168
:105A90005B6A98473146044604F048FFC9F8005055
:105AA000C7F83C41C8F80060DCB1231DCAF80030DB
:105AB0003368C4F808A03046DB68F463984723686D
:105AC00020461B6898472946304614F085FD2B6810
:105AD00028461B6998472B6828465B69BDE8F04754
