:020000040800F2
:10000000000003208D050008A1200008A32000089F
:10001000A5200008A7200008A92000080000000073
:100020000000000000000000000000001196000821
:10003000AB20000800000000A1960008198F0008FE
:10004000DD050008DD050008DD050008DD05000808
:10005000DD050008DD050008DD050008DD050008F8
:10006000DD050008AD200008DD050008DD050008FD
:10007000DD050008DD050008DD050008DD050008D8
:10008000DD050008DD050008DD050008DD050008C8
:10009000DD050008DD050008DD050008DD050008B8
:1000A000DD050008DD050008DD050008DD050008A8
:1000B000DD050008DD050008DD050008DD05000898
:1000C000DD050008DD050008DD050008DD05000888
:1000D000DD050008DD050008DD050008DD05000878
:1000E000DD050008DD050008DD050008DD05000868
:1000F000DD050008DD050008DD050008DD05000858
:10010000DD050008DD050008DD050008DD05000847
:10011000DD050008DD050008CD200008D920000815
:10012000DD050008DD050008DD050008DD05000827
:10013000DD050008DD050008DD050008DD05000817
:10014000DD050008DD050008DD050008DD05000807
:10015000DD050008DD050008DD050008DD050008F7
:10016000DD050008DD050008DD050008DD050008E7
:10017000DD050008DD050008DD05000800000000C1
:10018000DD050008DD050008DD050008DD050008C7
:10019000DD050008DD050008DD050008DD050008B7
:0C01A00015210008DD05000821210008E1
:1001B00010B5054C237833B9044B13B10448AFF3A1
:1001C00000800123237010BD6C010020000000009E
:1001D000D44C020808B5034B1BB103490348AFF3E5
:1001E000008008BD0000000070010020D44C02080F
:1001F00001F0FF01102A2BDB10F0070F08D010F8D8
:10020000013B013A8B422DD010F0070F42B3F6D1DB
:10021000F0B441EA012141EA014122F007047FF0F4
:1002200000070023F0E80256083C85EA010586EA4B
:10023000010685FA47F5A3FA87F586FA47F6A5FA87
:1002400087F68EB9EED1F0BC01F0FF0102F0070293
:1002500032B110F8013B013A83EA010313B1F8D13E
:100260000020704701387047002D06BF354603381F
:10027000073815F0010F07D1013015F4807F02BF58
:10028000013015F4C03F0130F0BC0138704700BFA9
:1002900053B94AB9002908BF00281CBF4FF0FF31ED
:1002A0004FF0FF3000F070B9ADF1080C6DE904CEED
:1002B00000F006F8DDF804E0DDE9022304B0704741
:1002C0002DE9F047089E0D4604460F46002B4AD103
:1002D0008A42944665D9B2FA82F343B102FA03FC2A
:1002E000C3F120029F4020FA02F217439C404FEADC
:1002F0001C4E1FFA8CF5B7FBFEF1220C0EFB11779A
:1003000042EA074201FB05F090420AD91CEB0202C7
:1003100001F1FF3780F01C81904240F219810239CF
:100320006244121AA4B2B2FBFEF00EFB102244EAA1
:10033000024400FB05F5A5420AD91CEB040400F1B8
:10034000FF3280F00781A54240F204816444023804
:1003500040EA0140641B00211EB1DC400023C6E9D5
:100360000043BDE8F0878B4208D9002E00F0ED80F5
:100370000021C6E900050846BDE8F087B3FA83F11D
:10038000002949D1AB4202D3824200F2F880841A9C
:1003900065EB030201201746002EE2D0C6E90047B4
:1003A000DFE702B9FFDEB2FA82F3002B40F0908063
:1003B0008A1A4FEA1C471FFA8CFE0121B2FBF7F59F
:1003C00007FB1520220C42EA00420EFB05F090428A
:1003D00008D91CEB020205F1FF3802D2904200F26C
:1003E000CB804546121AA4B2B2FBF7F007FB1022ED
:1003F00044EA02440EFB00FEA64508D91CEB0404A7
:1004000000F1FF3202D2A64500F2BB801046A4EBF9
:100410000E0440EA05409FE7C1F120078B4022FA15
:1004200007FC4CEA030C05FA01F420FA07F3FD403F
:100430004FEA1C492343B5FBF9F81FFA8CFE09FB70
:1004400018551C0C44EA054408FB0EF5A54202FAB7
:1004500001F200FA01F00BD91CEB040408F1FF3A99
:1004600080F08880A54240F28580A8F102086444AB
:10047000641B9DB2B4FBF9F309FB134445EA044441
:1004800003FB0EFEA64508D91CEB040403F1FF355F
:100490006CD2A6456AD9023B644443EA0843A3FBF5
:1004A0000295A4EB0E04AC42C846AE4656D353D0D8
:1004B00056B1B0EB080264EB0E0404FA07F7CA4029
:1004C000CC401743C6E9007418460021BDE8F08708
:1004D000C3F1200102FA03FC20FA01F225FA01F12E
:1004E0009D402A434FEA1C471FFA8CFEB1FBF7F0F0
:1004F00007FB1015110C41EA054100FB0EF58D427A
:1005000004FA03F408D91CEB010100F1FF382FD2E3
:100510008D422DD902386144491B92B2B1FBF7F5E7
:1005200007FB151142EA014205FB0EF1914208D981
:100530001CEB020205F1FF3816D2914214D9023D9C
:100540006244521A45EA004138E73146304608E72E
:100550003946E6E61046FBE64845A9D2B9EB020863
:1005600065EB0C0E013BA3E74546EAE72B4694E713
:100570004046D1E7D0467BE7023D624432E7084679
:100580000AE76444023842E7704700BFDFF834D01E
:10059000002103E00C4B5B58435004310B480C4BDB
:1005A00042189A42F6D30B4A02E0002342F8043B79
:1005B000094B9A42F9D306F02BF923F00FFE00F015
:1005C00053FF704700000320E8F8150800000020E2
:1005D0006C0100206C01002048440120FEE77047B8
:1005E00008B500F02DFDBDE8084000F0B5BC00F0F6
:1005F00029BD704710B50421044622F0FAFC2046BC
:1006000010BD000038B50C4B0C4C18800C4B8220F0
:1006100019806368984740F6110398420AD1094D42
:1006200023682C60822098472B688220DB689847DB
:10063000002038BD0120FCE7880100205400002084
:100640008A0100208C0100204FF4A071F020FFF7F8
:10065000D9BF0000F7B5334D2B6804461B698220D3
:10066000984780B2208000284AD02B680DF10602FE
:100670005B6901A982209847BDF8063040F6746294
:1006800093423FD9ADF80620BDF80630D21A92B297
:100690000A2A3DD90B23B2FBF3F2234B1B889A4263
:1006A00001D9013B9AB2BDF8043040F6B8318B4213
:1006B00030D8C3F571630E339BB20F21B3FBF1F356
:1006C0001A4909888B4201D901398BB2184E194D4C
:1006D00030682F68834281B28CBF591AC91AB8B2E8
:1006E000BA428CBF101A801A89B280B2014405291F
:1006F000C8BF33603368C8BF2A6063802B68A3809B
:1007000003B0F0BDB32B9CBFB423ADF80630BBE7FC
:100710000022C8E7C3F56D6308339BB20E2BCCD81B
:100720000023D3E78C0100208A01002088010020EB
:10073000900100209401002037B568460D4614460C
:10074000FFF788FFBDF8000030B1BDF802302B6024
:10075000BDF804302360012003B030BD10B1022881
:1007600009D07047074B1A68B2FA82F25209042185
:10077000054806F0E5BA034B9A68B2FA82F25209CC
:100780001021F5E7980100200010024010B1022866
:1007900009D07047074B1A68003A18BF012204219C
:1007A000054806F0CDBA034B9A68003A18BF0122FB
:1007B0001021F5E7980100200010024010B1022836
:1007C00004D070470421024806F0BFBA1021FAE7AE
:1007D0000010024008B530B1022809D00020431EA5
:1007E0005842584108BD0421024806F0A3FAF6E732
:1007F0001021F9E70010024070B5084D00240126D1
:10080000E0B2FFF7E7FF18B12B68012B18BF2E608D
:100810000134052C05F10405F2D170BD98010020CA
:10082000012380F8781080F87930704700207047F5
:10083000034B4164003918BF01211970704700BF94
:100840000F38012000207047836B0BB10846184712
:1008500070474FF6FF707047406803689B69184700
:10086000704770477047000010B5044600F0D6FC92
:1008700023680349D3F88C302046BDE81040184760
:10088000000000D008B503680446D3F880309847CC
:10089000236820469B6F984700F0ECF823682046B9
:1008A0001B6F9847292001F0D5F800F0E3F8236882
:1008B00020461B6F9847F8E710B504460BF09EFEE4
:1008C00023682046D3F8AC30BDE81040184700F04C
:1008D00097BC00F09BBC00F0BFBC00F06DBC00F00A
:1008E000C7BC00F0CFBC00F071BC0BF0F3B810B582
:1008F0007C21044622F07DFB204610BD90F87A3022
:100900001BB1406803681B68184718467047000011
:1009100010B590F8341090F878400C4B8C421A784F
:1009200009D03AB90A4A0B491488088810800C800B
:1009300001221A7010BD002AFCD0054A054914880E
:10094000088810800C800022F3E700BF08380120DF
:10095000043801200638012070B50D46194635B916
:10096000094B0A4A0A4840F2D22123F033F9C0E980
:100970000F52084B003A18BF01221A700368BDE8F5
:100980007040D3F88C301847444D02087C4D020863
:10099000CA4D02080E38012008B5094B1B888B424E
:1009A00003D8084B1B88934205D9074B074A0848D0
:1009B0009E2123F00FF9074B1980074B1A8008BDC1
:1009C00004380120063801200F4E0208724E02083A
:1009D000CA4D02080A3801200C380120012108B54F
:1009E0000022084608F025FB0A4B186028B90A4B7C
:1009F0000A4A28210A4823F0EDF8002204210120A8
:100A000008F0BDFB074B186018B9074B034A2C21AF
:100A1000F0E708BDAC010020904F0208D94F020852
:100A200008500208A801002082500208024B4FF033
:100A3000FF31186808F047BBAC010020014B186873
:100A400008F06CBBAC010020024B0021186808F0D4
:100A50003ABB00BFAC010020FFF7F0BF03480449D8
:100A6000006800231A4608F0C5BB00BFA80100209B
:100A70000400002013B5084C00231A4601A9206881
:100A800008F0E8FB20684FF0FF33002201A908F0CE
:100A9000E1FB02B010BD00BFA801002003685B6C41
:100AA00018470120704703689B6A184782B00023EB
:100AB00001930D4B1A6B42F400021A631A6B02F495
:100AC00000020192019A1A6942F400021A611A693D
:100AD00022F400021A61054B054A1A61054B4FF0DA
:100AE00080629A6002B070470038024040260020C1
:100AF000390B000800E100E040F2EF3070470000E1
:100B0000054B0360054B4FF08062C3F88820BFF3AC
:100B10004F8FBFF36F8F70474C52020800E100E027
:100B200010B504464FF45A61FFF7EAFF204622F061
:100B300060FA204610BD0000024B1B68586803682D
:100B40005B6918471038012070B5044625460A4BEA
:100B50000C30002660602672667245F8203B6022E9
:100B600029460BF0A3FE04F55A63EE602435AB4230
:100B7000FBD1204670BD00BF4C52020808B50B29BE
:100B80000BD8DFE801F01206100A0A0A0A08080862
:100B90000808012008BD0520FCE7054B054A06486A
:100BA000652123F017F80020F4E70220F2E700BFE8
:100BB000C4500208DF5002082951020808B50A296A
:100BC00009D8DFE801F010060E0808080806060636
:100BD0000600012008BD054B054A0648862122F083
:100BE000F9FF0020F6E70220F4E700BFC450020836
:100BF000A1510208295102082DE9F84391F81D80FE
:100C00000C4641460746FFF7B9FF94F81E9005468B
:100C100049463846FFF7B2FF494606463846FFF7D1
:100C2000CDFFA18A628B434B521A1A649A61228BC0
:100C3000521A1A61E28A586342EA01425A642069F0
:100C40006268D863DA602768802F28D0227F0FD8A7
:100C5000202F65D0402F63D0042F1AD0354B45EAA2
:100C6000026545F40035C845DD615FD0324A44E095
:100C7000B7F5807F04D0B7F5007FEFD12F4900E0B2
:100C80002F4941EA0262DA61E2681A625E625861E3
:100C900032E045EA026242F40032DA61F6E7A76820
:100CA0003A1DDA62217F3A7845EA016545F400355C
:100CB000DD615E62586142B1012A21D0214B224A96
:100CC00022484FF4887122F085FFDA69798822F48E
:100CD0007F42013922F0100242EA0122DA61012149
:100CE000144BDA6942F02002DA61DA699206FCD428
:100CF00010229A600029B9D0154A1A60BDE8F8831D
:100D0000DA69788822F47F42013822F0100242EA40
:100D10000022FF3942F0100218BF0121DA61DFE73B
:100D200045EA0262034B42F40032B6E740F2012288
:100D3000E3E700BF00B00240010201000900020029
:100D40000A000200EC51020806520208295102086A
:100D50000102020038B50C46897FFFF72FFFA58AF4
:100D6000E28A164B2169586342EA05425A64628B53
:100D7000D963521B1A642568082D0ED19A611A6135
:100D80005862207F0E4A42EA0062DA61E2681A6223
:100D90000C4A5961D9601A6038BD0022D8611A61C5
:100DA000E1680A0A480902F4784200F4FC60024350
:100DB000C1F3C4010A439A63034AECE700B002405E
:100DC000090001000102020001020300034B1A683E
:100DD000D207FCD423229A60704700BF00B00240C3
:100DE00030B50F4C2568ED07FCD423250904A56018
:100DF00041F001010225FF2B65636164E0630AD0C5
:100E00000849656241EA0363E361074B226260615E
:100E1000E060236030BDE561039BA363034BF8E70B
:100E200000B00240090001000100020001000300BF
:100E3000012070474020704700EB81100830704758
:100E400000EB8110083070470120704741F2E43018
:100E5000704741F2E43303FB01000830704741F270
:100E6000E43303FB01000830704701207047102075
:100E7000704700EB01100830704700EB011008309C
:100E80007047084602F0BAB910B5034B0360044638
:100E90000AF0A9F9204610BD0453020810B5044613
:100EA000FFF7F2FF2046482122F0A3F8204610BDAC
:100EB00010B5034B036004460AF095F9204610BDB7
:100EC000D052020810B50446FFF7F2FF204641F267
:100ED000EC3122F08EF8204610BD000010B5034B17
:100EE000036004460AF07FF9204610BD9C520208B8
:100EF00010B50446FFF7F2FF2046182122F079F8DA
:100F0000204610BD10B5094B0360044600F5A05003
:100F10001830FFF7B9FF04F12C00FFF7C9FF04F107
:100F20001400FFF7DBFF204610BD00BF3853020856
:100F300008B50248FFF7E6FF08BD00BFB401002076
:100F400010B50446FFF7DEFF204641F2C45122F0FF
:100F500050F8204610BD00002DE9F34101F05AF988
:100F6000054601F05BF90024014623462846224647
:100F7000009412F0E9FC264B264A274D1A602046C1
:100F800004F0C6FE254812F047FC2B68BFF35B8FC8
:100F9000DB0736D4284622F02EF890B3204C214FA0
:100FA000214B236007F1500604F1140004F12C08D2
:100FB0006060C4F80880E76026610AF015F91B4BF1
:100FC000636140460AF010F9194BE36238460AF0B3
:100FD0000BF904F58053174AC3F8182404F5A350FD
:100FE00005F0D6F8224604F5A351304604F048FF38
:100FF000304602F003F9104822F00AFE284622F09B
:1010000006F80E4802B0BDE8F041FFF72DBC00BF66
:101010007438012098250020B0010020080000202D
:10102000B4010020CC150020385302089C5202085D
:10103000D052020804530208310F00081C2500207A
:10104000704700000148FFF71DBC00BF1C250020B1
:1010500070B5224E224C234D234B23603046FFF7C0
:1010600073FD284616F03CFF204B2148DC6000222F
:101070004FF48071C3E912121E491A86C3E91A128D
:101080001D4999671D4983F858200B60F0210180A4
:101090001B485A6601801B4883F870204FF4A071EA
:1010A000C3E90422C3E90622C3E90822C3E90A22EC
:1010B000C3E90E22C3E91022C3E91422C3E91722AF
:1010C0005A67C3E9016501800F4801800F490A7022
:1010D000012283F834200E4A1A6070BD7C1700206C
:1010E000781700209C250020344D02081C25002084
:1010F0000438012001000001000001011038012026
:101100000A380120063801200C3801200838012057
:10111000C04E02080148FFF7F3BC00BF7C17002057
:101120000020704781807047C180704701817047FF
:10113000418170477047704770477047704710B4DF
:10114000C4880368121B84885B6D091B12B25DF8AA
:10115000044B09B218474FF6FF7383814FF0FF33FA
:1011600003621368C3611060704790F825201AB1BC
:1011700090F8242002B118607047002070478B88D7
:10118000838001207047704780F82610704790F8E0
:101190002600704710B50022B1F90840B1F90A10D5
:1011A000028042808480C18010BD00220280428083
:1011B0008280C28070470000034B902283F85A233C
:1011C00083F85823704700BF00E100E0094A0A494C
:1011D000D3680A48C3F30A03013B9BB20B80116931
:1011E000C1F30A01013901801364536B43F0010319
:1011F000536370470068014022260020202600200B
:10120000014BD3F8AC00704700680140024B01224B
:10121000C3F8AC105A6270470068014070B50446CC
:101220000AF0ADFC23685D6E0FF000FD014620461C
:10123000A8472368054AD3F888502046AC460023C7
:10124000BDE87040A2F51631604700BF00B004D081
:101250000AF07CBC0AF086BC0AF042BC0AF0A3BDCE
:1012600090F8252012B103685B69184770470000A9
:10127000034B4FF080629A604FF080729A60704723
:1012800000E100E0084B4FF08062C3F88820BFF314
:101290004F8FBFF36F8F4FF08072C3F88820BFF37A
:1012A0004F8FBFF36F8F704700E100E070B50023F0
:1012B000124E8380124B0360336893F85820054622
:1012C0000AB1D86C00B998680368DB6A984733683C
:1012D000B0FA80F4D86C640930B10368DB6A9847CF
:1012E000002808BF44F001042CB9064B064A074801
:1012F0002C2122F06FFC284670BD00BF1038012061
:101300004854020844530208A2530208DB5302085F
:1013100010B5144C236823B3134B144A1B6C11886B
:101320008B4213D1124B198806F0FAFA226892F810
:101330006A30013382F86A30FFF790FB20680BF0C7
:101340005DF9BDE810400020FFF708BA06F0E8FAA2
:10135000206803681B6A9847BDE810400020FFF72B
:1013600015BA10BD10380120006801402226002067
:101370002026002007B5064BADF806001B6805487F
:1013800001220DF1060107F013F803B05DF804FB2C
:1013900010000020B027002008B5642007F03DFEB3
:1013A000FBE7000008B5084C084D2368064928688B
:1013B000013B236000231A4607F01CFF4FF47A70AC
:1013C00007F02BFEF1E700BF140000202C260020C0
:1013D00030B595B0102200210AA822F000FE142298
:1013E000002103A822F0FBFD00241D4B01941A6C80
:1013F00042F080521A641B6C03F080530193019BEE
:10140000184B02941A6842F440421A601B6803F4B5
:10141000404302930122029B4FF48033CDE908231D
:1014200002254FF48003CDE90E5308214FF4A87331
:10143000CDE9101308A804231393129506F08EFA31
:101440000F23CDE903354FF4A0504FF48053CDE97D
:101450000603052103A8059406F05AFC15B030BD1B
:1014600000380240007000402DE980484FF0140819
:101470009DB005F0DBF9FFF7ABFF424600210FA856
:10148000002422F0ACFDC64B00941A6BC548C64D33
:1014900042F010021A631A6B02F010020092009AD6
:1014A00001941A6B42F020021A631A6B02F02002B8
:1014B0000192019A02941A6B42F080021A631A6B2D
:1014C00002F080020292029A03941A6B42F0040224
:1014D0001A631A6B02F004020392039A04941A6BC3
:1014E00042F001021A631A6B02F001020492049A9C
:1014F00005941A6B42F002021A631A6B02F00202A0
:101500000592059A06941A6B42F040021A631A6B10
:1015100002F040020692069A07941A6B42F0080203
:101520001A631B6B03F00803079322464146079B8F
:1015300005F006FC9B480122202105F001FC9B4898
:101540002246042105F0FCFB994822464FF4405105
:1015500005F0F6FB012297484FF4005105F0F0FB2F
:1015600001264FF0030B8F48CDF83C800FA94FF0B8
:101570000809CDE91064CDF848B005F0F5FA4FF44C
:101580008813884811940FA9CDE90F9305F0ECFA60
:10159000202384480FA902274FF0040ACDE90F3613
:1015A000CDE9114405F0E0FA804811940FA9CDE986
:1015B0000FA6129705F0D8FA4FF440537C480FA9B4
:1015C000CDE90F36CDE9114705F0CEFA4FF40053BF
:1015D00078480FA9CDE90F36CDE9114405F0C4FADA
:1015E00005212246092005F073F9092005F0A2F92A
:1015F0007148724B036005F0ABF9714A714B2C6274
:10160000C5E9002328464FF48043C5E90434C5E901
:101610000244C5E9064405F08BFD1021284605F07B
:10162000C7FF2146284605F0E2FF67486749846204
:101630004FF48273C0E900134FF400751823C0E91A
:1016400006530A23624DC362C0E90244C0E9044460
:10165000C0E9084406F050FE5E4B0F97C5E900361E
:1016600040221023C5E904324FF4C072C5E90624B4
:101670004FF400624FF40053C5E908240FA9072274
:101680002846AB62C5E9024ACDE9102ACDE9122B02
:10169000CDE9147706F02EFD4FF6FF720BA9284610
:1016A000CDE90B69CDE90D64089406F043FD3046A1
:1016B00005F0E8F84FF6FF720BA92846CDE90B7943
:1016C000CDE90D6406F036FD4FF6FF720BA92846F2
:1016D000CDE90BB9CDE90DA406F02CFD4FF40C7249
:1016E0000892089A0E920BA94FF6FF722846CDE990
:1016F0000BA90D9606F01EFD40F26A51284606F031
:1017000037FD214634220FA822F069FC324D334ABE
:10171000AC86C5E900240922C5E905261D2240F250
:101720000D1CC5E9072B40F24312C5E909C240F27E
:10173000171E40F247122846C5E90BE2C5E90244EC
:101740002C6185F8364005F0F3FFFF20F0214FF4BF
:10175000A072CDE914044FF480690520CDE910147E
:10176000CDE91227CDE91690CDE918411A920FA9BB
:10177000224628460F941A4DADF86C408DF86E4005
:1017800006F0A1F8174A2A601268DFF864A09047B3
:101790002A68154DD2689047144AC5E90A4729E0DE
:1017A000003802400010024080260020000802405D
:1017B000000C024000180240382600200030024091
:1017C000005C0040A0860100B027002000500140CE
:1017D0007C270020400100A0D426002000680140A2
:1017E000282600201C0000204026002000B00240D7
:1017F00000140040C5E90C442846C5E90024C5E9A9
:10180000027405F0B5F83146284605F069F9454DF2
:10181000214642460FA822F0E2FB434AAC604FF655
:10182000FF762846C5E90024C5E90364C5E90544F7
:10183000CDE90B4407F03CF90FA92846CDE90F4448
:1018400007F065FA0BA92846384DCDE90B4407F09F
:1018500085FA44F2A012C5E900A2284641F2883276
:10186000EA60AC60AC61CDE90F4407F021F90FA943
:101870002846CDE90F4407F071FA284606F0D2FF5A
:1018800010231A4621460BA8294D22F0A8FB214619
:1018900042460FA822F0A3FB264A2C612846C5E940
:1018A0000024CDE90944C5E90246AC6107F000F91E
:1018B0004FF480520BA928460B9207F02FF90FA97D
:1018C0002846CDE90F4407F022FA09A92846CDE9B8
:1018D000094407F043FAFEF783FEFEF780FE07F0A7
:1018E00029FB1023144A3946184607F048FC134BCD
:1018F000134A18602146134807F048FB124B134A5D
:1019000018602146124807F041FB124B124A18603A
:101910002146124807F03AFB114B186007F01CFBF8
:10192000FEE700BF082800200000014098280020A2
:101930005028002000040040B45402082C26002047
:10194000F05402089913000834260020905402082D
:10195000EF05000824260020CC540208A513000837
:1019600030260020704770477FB5094B8DF817204F
:101970001B6802930DF117020123009201930A469E
:101980000146044805F07CFC07B05DF804FB00BF8D
:101990000C000020802600207FB500238DF8173032
:1019A000084B1B6802930A4601230DF117010091B1
:1019B00001930146044805F0F3FC9DF8170007B0B9
:1019C0005DF804FB0C000020802600201FB5084CA9
:1019D00024680092CDE901340A46012301460548F6
:1019E00005F0DEFC003818BF012004B010BD00BFB8
:1019F0000C0000208026002004F044BF08B50648F3
:101A00000022042105F09CF9BDE8084002480122AB
:101A1000042105F095B900BF0008024038B50B4D10
:101A2000044601220A484FF4005105F089F90022CA
:101A30000421284605F084F92046FFF79BFC284640
:101A40000122BDE83840042105F07AB900080240BF
:101A5000000C024038B50B4D044600220A484FF4F2
:101A6000005105F06DF900220421284605F068F9BF
:101A70002046FFF77FFC28460122BDE838400421BC
:101A800005F05EB900080240000C0240F7B5144EA4
:101A9000144F05460C4630460022042105F050F94B
:101AA00000224FF40051384605F04AF92846FFF766
:101AB00061FC0D4B0D481B68224601A906F014FE7F
:101AC000384601224FF40051019C05F039F93046A7
:101AD0000122042105F034F9204603B0F0BD00BF17
:101AE00000080240000C024010000020B027002037
:101AF00004F0C8BE0268034B9A4201D104F0B0BEA4
:101B0000704700BF001000407047000082B00E4BCD
:101B100000220092596C41F480415964596C01F4DF
:101B20008041009100990192196C41F08051196433
:101B30001B6C03F080530193019B0F216FF0010098
:101B400002B004F0C5BE00BF003802400268094B75
:101B50009A4282B00BD100230193074B1A6B42F4D7
:101B600080521A631B6B03F480530193019B02B0F4
:101B7000704700BF003002400038024007B50F4BED
:101B800002689A4216D10022A3F5F0430192196B24
:101B900041F4000119631B6B03F400030193052159
:101BA0005A20019B04F094FE5A2003B05DF804EB28
:101BB00004F0C0BE03B05DF804FB00BF00B00240FB
:101BC0002DE9F043044689B01422002103A822F035
:101BD00006FA2268244B9A4243D1244C244800251B
:101BE0000095236B43F004032363236B03F004038A
:101BF0000093009B0195236B43F001032363236B48
:101C000003F001030193019B4FF012094FF400739D
:101C10004FF001080327042603A9CDE90339CDE9D4
:101C20000587079604F0A0FF4FF4807311480796CC
:101C300003A9CDE90339CDE9058704F095FF0295A5
:101C4000236C43F400032364236C03F40003029326
:101C5000029B236A43F400032362236A23F40003F4
:101C6000236209B0BDE8F083005C00400038024008
:101C70000008024000000240F0B599B0044614226A
:101C8000002107A822F0ABF930220DEB0200002161
:101C900022F0A5F922685E4B9A4240F0B7800823F3
:101CA0000C93C0231093042312930CA84FF4003319
:101CB000159306F0F5F808B1FFF726FF554B564887
:101CC000002400945A6C42F080625A645A6C02F00C
:101CD00080620092009A01941A6B42F020021A630B
:101CE0001A6B02F020020192019A02941A6B42F0E0
:101CF00001021A631A6B02F001020292029A039423
:101D00001A6B42F002021A631A6B02F0020203928B
:101D1000039A04941A6B42F040021A631A6B02F0A1
:101D200040020492049A05941A6B42F004021A636A
:101D30001A6B02F004020592059A06941A6B42F09F
:101D400008021A631B6B03F00803069302250E2694
:101D5000069B0B964FF4806307A9CDE90735CDE9C3
:101D6000094504F001FF41F658032C480B9607A9DA
:101D7000CDE907350927CDE9094504F0F5FE032330
:101D800027480B9707A9CDE90735CDE9094504F0A8
:101D9000EBFE4FF4706322480B9607A9CDE9073597
:101DA000CDE9094504F0E0FE4FF40C631D480B96A5
:101DB00007A9CDE90735CDE9094504F0D5FEC023D3
:101DC00019480B9607A9CDE90735CDE9094504F077
:101DD000CBFE082315480B9607A9CDE90735CDE9B9
:101DE000094504F0C1FE4FF4A0530E480B9707A914
:101DF000CDE90735CDE9094504F0B6FE5820224665
:101E0000052104F065FD582004F094FD19B0F0BDE3
:101E10000068014000380240001402400000024007
:101E2000000402400018024000080240000C02407A
:101E300010B5044688B01422002103A822F0CFF880
:101E40002268144B9A4223D103F568430021019183
:101E50005A6C114842F480125A645A6C02F480128F
:101E60000192019A02911A6B42F020021A631B6BD5
:101E700003F020030293029B4FF4607202230321BC
:101E8000CDE903230523CDE9061303A904F06CFE75
:101E900008B010BD00500140001402401FB5036897
:101EA0001D4A93420ED1002301931C4B5A6C42F001
:101EB00001025A645B6C03F001030193019B05B0BE
:101EC0005DF804FB164A93420CD100230293134B96
:101ED0001A6C42F002021A641B6C03F002030293B4
:101EE000029BECE70F4A9342E9D10C4B002203928C
:101EF000196C41F0200119641B6C03F0200303935B
:101F000005213720039B04F0E3FC372005B05DF882
:101F100004EB04F00FBD00BF000001400038024098
:101F200000040040001400402DE9F04186B0002379
:101F300003932B4B1C68002C4FD14FF00108C3F8C2
:101F40000080284B00949A6B274842EA08029A6363
:101F50009B6B03EA08030093022703260C25009BD2
:101F600001A94FF63F03CDE90137CDE9046504F03F
:101F7000FBFD1E48059501A9CDE90187CDE9034682
:101F800004F0F2FD48F233131948059501A9CDE993
:101F90000137CDE9034604F0E7FD4FF6837315489A
:101FA000059501A9CDE90137CDE9034604F0DCFD33
:101FB0004CF203731048059501A9CDE90137CDE92D
:101FC000034604F0D1FD60230C48059501A9CDE935
:101FD0000137CDE9034604F0C7FD06B0BDE8F08146
:101FE000E0280020003802400014024000080240AF
:101FF0000018024000100240000C024000040240A1
:1020000070B588B000230293204B1A6C42F0100286
:102010001A641B6C03F010030293054601A903A880
:10202000029B05F01FFF069B4BBB05F00BFF184EF4
:10203000184B336040F2E733F360174BB0FBF3F318
:10204000013B7360304600233361B360B36106F037
:102050002FFD044680B9304606F0E4FB044658B92B
:10206000362004F067FC0F2D0DD822462946362075
:1020700004F02EFC094B1D60204608B070BD05F031
:10208000E1FE4000D3E70124F6E700BF003802403C
:10209000E42800200010004040420F00840000208F
:1020A0007047FEE7FEE7FEE7FEE7704708B5C82089
:1020B00004F0E8FB04480022202104F041FEBDE8C2
:1020C0000840082004F04CBE00100240014806F011
:1020D000E7BB00BFE428002008B50A4806F0E0FB93
:1020E00009484FF4005104F030FE084B1A782AB921
:1020F000BDE808400648202104F022BE013A1A70CB
:1021000008BD00BF982800200018024018000020D9
:1021100000100240014805F079BB00BFD426002022
:10212000014804F053BC00BF402600200120704746
:1021300008B522F04DF8162303604FF0FF3008BDBC
:1021400008B522F045F816230360FEE770B50D468A
:1021500014460E46731B9C4201DC204670BDAFF353
:10216000008006F8010BF5E770B50D4614460E46E3
:10217000731B9C4201DC204670BD16F8010BAFF3C7
:102180000080F5E74FF0FF3070474FF400534B608D
:102190000020704701207047002070470A4A1168EC
:1021A00008B5034609B90949116010686946034436
:1021B0008B4206D922F00CF80C2303604FF0FF305D
:1021C00008BD1360FCE700BF2C2900204844012013
:1021D000704710B50421044620F00BFF204610BDC7
:1021E00008B5032913D8DFE801F002060A0E03F050
:1021F000DBFD006808BD03F0D7FD4068FAE703F097
:10220000D3FD8068F6E703F0CFFDC068F2E7002059
:10221000F0E700000048704728550208102070477A
:1022200013B5002451B1036801948DF8034001AA4D
:102230009C680DF10303A04702B010BD0846FBE700
:10224000C0897047008A7047C0887047808870478F
:10225000807A00F07F007047807AC009704770472D
:10226000704770477047704770477047704730B489
:10227000C26844685510034604EB6200D20748BFA9
:1022800062599B6830BC48BFD358184743682BB18C
:1022900083682BB9C06800F001007047184670478A
:1022A0000120704710B50821044620F0A2FE204608
:1022B00010BD10B51021044620F09BFE204610BD35
:1022C00010B5034B036004460CF0AEFF204610BD72
:1022D000C457020807B5074B036001900CF0A4FF38
:1022E000019841F2A40120F084FE019803B05DF84A
:1022F00004FB00BFC457020800F5D670884208B539
:1023000005D10EF093FCBDE8084000F087BF08BD82
:1023100070B5036804461B6B154698472368294629
:1023200020465B6BBDE87040184770B504461D46FB
:10233000BDF91060FFF7ECFF2368294620469B6B30
:102340009847236831462046DB6BBDE8704018474C
:102350000022C0E90122C0E90322C0E90522C0E948
:1023600007224FF480728284014A0260704700BFE6
:102370003457020810B526220446002121F02FFE12
:102380002046FFF7E5FF0A4B23600A4BA3624FF696
:10239000FF73A3854FF47F020023C4E90C324FF092
:1023A000FF32C4E910232387E363204610BD00BF3A
:1023B000787602089C5702081A4B73B51B88018F68
:1023C0008B4206462BD9184B1B682BB9174B184A62
:1023D00018486C2121F0FEFB13F81120164B1B68E6
:1023E00053F82250154B186803F0CEFC2B6801906F
:1023F0009B6B284698472B6801999B6C044628469E
:1024000098472B6801995B6A14FB00F428469847AB
:10241000A4B223181BB2A6F8463002B070BD002348
:10242000F9E700BF6C3801206838012068560208BF
:10243000AA560208E55602087038012074380120B7
:102440002DE9F04F2DED048B04468DB0A3460025F9
:1024500010F06CF8B54BE5634BF8403B262229465B
:10246000584621F0BCFD5846FFF772FF04F16C0A94
:10247000FF26AF4B236426224FF6FF73294684F8CC
:102480006660A5665046ADF8283021F0A8FD50469C
:10249000FFF75EFFA74BE366BDF82830A4F8923043
:1024A0000AA904F1980784F8946050460BF0B5FE31
:1024B00038460AF0D1FC04F5847318460393FEF7FE
:1024C000F5FE9D4BC4F8083104F58E792433C4F829
:1024D0001031C4F81451484604F5B278FFF74AFFAA
:1024E0004046FFF747FF04F5D673184608EE103A4A
:1024F0000BF0D4FF04F5FA73184608EE903A0BF08F
:10250000CDFF04F50F73184609EE103A0BF0C6FF25
:102510008A4A04F58053C3E92524894A4FF461614E
:10252000C3E9272504F521700CF074FE4FF4A07365
:102530002A4600932946F0235846FFF7F6FE261D4B
:102540004FF07F43A3665946304609F02DF82A46DE
:1025500029465046FFF7DCFE0C230AA95046ADF889
:1025600028300BF05AFE5146304609F01DF80A2378
:1025700000933222F02329463846FFF7D6FE4FF06B
:10258000FF33A022C4F81431A4F81831039BC4F817
:10259000C030114638460AF075FDA0224FF4EB51C9
:1025A00038460AF07AFDD4F8D430202B05D0202309
:1025B000C4F8D43038460AF06FFC384601210AF0DE
:1025C00077FD3946304608F0EFFF4FF0FF3504AF96
:1025D000242248464FF0000A4521FFF799FE49465C
:1025E0003846C4F84C51A4F850A10AF0A1FF97E86E
:1025F000070009F13C0383E80700DFF848B1CDF894
:1026000028B024230AA94846ADF82C300BF02AFA4A
:102610004946304608F0C8FF0C2240463221FFF7F9
:1026200077FE41463846C4F89451A4F898A10AF0C0
:102630007FFF97E8070008F13C0383E807002323A6
:102640000AA94046ADF82C30CDF828B00BF00AFAB4
:102650004146304608F0A8FF18EE100AF02221216A
:10266000FFF756FE4FF003080AAA022709A918EE41
:10267000100AADF82480ADF828700BF0D8FB2223A7
:1026800018EE100AA4F8E431FFF796FE04F584531F
:102690001433C4F8D43118EE101A3046C4E97A5510
:1026A00008F082FF18EE900AAA222121FFF730FEDF
:1026B0004FF021090AAA09A918EE900AADF8248062
:1026C000ADF828700BF0B3FB18EE900AA4F82C922A
:1026D000FFF772FE18EE901A3046C4E98C5508F0E8
:1026E00063FF19EE100A49466422FFF711FE0AAA99
:1026F00009A919EE100AADF82480ADF828700BF086
:1027000096FB202319EE100AA4F87432FFF754FE4A
:102710003046C4E99E5519EE101A08F045FF2046D0
:102720000DB0BDEC048BBDE8F08F00BFC4570208AC
:1027300008770208D0780208CC730208AC57020868
:10274000F92200089C5702087047704700F59873FB
:102750000868496803C37047704770474160704715
:1027600010B50022B1F90840B1F90A100280428088
:102770008480C18010BD704770470000064BC0F8D0
:102780004C310023C0F8503100F5A273C0F8480165
:10279000C0F84031704700BFF12C000801230372DC
:1027A0007047704770477047704770477047704771
:1027B00001464068036810315B6E18470146406867
:1027C000036810311B6E1847704701464068036864
:1027D00010315B6E184701464068036810311B6E6C
:1027E0001847704710B4C26841685410034601EBA3
:1027F0006200D20748BF0A599B685DF8044B48BF86
:10280000D358184743682BB183682BB9C06800F0D0
:1028100001007047184670470120704710B50C2121
:10282000044620F0E6FB204610BD10B510210446FA
:1028300020F0DFFB204610BD10B54FF4AE7104460A
:1028400020F0D7FB204610BD10B53821044620F0FB
:10285000D0FB204610BD10B52821044620F0C9FB4E
:10286000204610BD10B53821044620F0C2FB20469A
:1028700010BD10B54021044620F0BBFB204610BD22
:1028800010B54021044620F0B4FB204610BD10B521
:102890000EF0CCF90368BDE81040DB6B1847000070
:1028A000054B1B7801462BB1406818B103680C3109
:1028B0005B6E1847704700BF0F380120054B1B782F
:1028C00001462BB1406818B103680C315B6E1847A4
:1028D000704700BF0F38012013B50446807A637A31
:1028E0000130C0B29842A07205D90123237200239F
:1028F000A37202B010BDB4F90C2000210FF0C8FF84
:1029000010F0010283B22AD1E081194AB4F90E0015
:10291000E3891288B4F91410A0820020D21AADF80D
:102920000200606822835B1A124AADF80430036823
:10293000B2F900201B69ADF80010ADF80620694619
:102940009847A37A012BD4D10B4B1B78002BD0D006
:102950000EF06CF902B0BDE810400EF06DB94FF604
:10296000FF710028D8BF0A461344E381CDE700BFBA
:1029700004380120063801200E380120037A70B592
:102980000546BBB940680368DB69984704463CB913
:102990006868036805F10C011B6EBDE870401847BC
:1029A000A1886B8FC91A236820461B6B09B2984710
:1029B000A469ECE770BD70B5044690F8390094F84E
:1029C00038300130C0B2984284F8390005D901236B
:1029D0002372002384F8393070BDB4F93A20002105
:1029E0000FF056FF10F0010283B206D04FF6FF71D0
:1029F0000028D8BF0A46134418B2238AC01AA087F9
:102A000060680368DB69984705462DB9606803680C
:102A1000BDE870405B691847A988A38F19442B68EB
:102A200028461B6B09B29847AD69EEE7037A70B58B
:102A30000546BBB940680368DB69984704463CB962
:102A40006868036805F10C011B6EBDE8704018470B
:102A5000A1886B8FC91A236820461B6B09B298475F
:102A6000A469ECE770BD70B5044690F8390094F89D
:102A700038300130C0B2984284F8390005D90123BA
:102A80002372002384F8393070BDB4F93A20002154
:102A90000FF0FEFE10F0010283B206D04FF6FF7178
:102AA0000028D8BF0A46134418B2238AC01AA08748
:102AB00060680368DB69984705462DB9606803685C
:102AC000BDE870405B691847A988A38F19442B683B
:102AD00028461B6B09B29847AD69EEE710B504466E
:102AE000D0F8400158B10368DB68984738B1D4F892
:102AF000400103689B6898470023C4F8403110BD2B
:102B00002DE9F14FD0E9555A0746A86803681B6ABA
:102B10009847972805D8464B464AA321464821F0B6
:102B200059F8686803681B6A98470F2803D8434B15
:102B3000404AA421F2E7E86803681B6A98470B281B
:102B400003D83F4B3B4AA521E8E70EF06FF8DFF8CA
:102B5000F89004300EF0D0F8D9F8000010B10368F6
:102B6000DB689847D9F8000010B103681B689847E4
:102B7000DFF8D880D8F8000010B103685B69984787
:102B8000D7F83C0110B103685B689847D8F800009B
:102B900010B103681B689847D7F83C0110B103686F
:102BA0009B689847E868036800215B6A98474FF084
:102BB000000B244B03600446C0F804B080F808B052
:102BC000A868036859465B6A9847064603F074FB99
:102BD0006868036859465B6A98473146054603F0C2
:102BE00047FBC9F80040C7F83C51C8F80060E5B1A0
:102BF0002B1DCAF800303368C5F808A03046DB68E2
:102C0000F56398472B6828461B689847214630464D
:102C10000FF038FE236820461B69984723685B69DC
:102C2000204601B0BDE8F04F18472B46E1E700BF52
:102C3000F05702087E5802088C590208D35902083E
:102C4000765A02087067020858380120543801206B
:102C500037B50446807A637A0130C0B29842A072D8
:102C600005D9012323720023A37203B030BDB4F948
:102C70000C2000210FF00CFE10F0010283B228D1CD
:102C8000E081184B18481988258BE389B0F90000BA
:102C9000ADF80600CA1A60682B445B1A12B2ADF890
:102CA000043003682283ADF8002000221B69ADF8D0
:102CB000022069469847A37A012BD6D10B4B1B788B
:102CC000002BD2D00DF0B2FF03B0BDE830400DF0C4
:102CD000B3BF4FF6FF710028D8BF0A461344E38103
:102CE000CFE700BF04380120063801200E3801204C
:102CF0002DE9F14FD0E9555A0746A86803681B6AC9
:102D0000984741F2CB23984205D8464B464AA32127
:102D1000464820F05FFF686803681B6A98470F28E1
:102D200003D8434B404AA421F2E7E86803681B6AD2
:102D300098470B2803D83F4B3B4AA521E8E70DF005
:102D400075FFDFF8F89004300DF0D6FFD9F80000D9
:102D500010B10368DB689847D9F8000010B1036828
:102D60001B689847DFF8D880D8F8000010B10368D6
:102D70005B699847D7F83C0110B103685B689847D6
:102D8000D8F8000010B103681B689847D7F83C01D9
:102D900010B103689B689847E868036800215B6A84
:102DA00098474FF0000B244B03600446C0F804B072
:102DB00080F808B0A868036859465B6A98470646D9
:102DC00003F0C6F86868036859465B6A984731465D
:102DD000054603F097F8C9F80040C7F83C51C8F819
:102DE0000060E5B12B1DCAF800303368C5F808A0B3
:102DF0003046DB68F56398472B6828461B68984780
:102E0000214630460FF03EFD236820461B69984757
:102E100023685B69204601B0BDE8F04F18472B4698
:102E2000E1E700BFF0570208195B02088C5902085D
:102E3000D3590208765A02087067020858380120F0
:102E4000543801202DE9F74FD0E9555A0746A868B4
:102E500003681B6A984741F2A303984205D8564B72
:102E6000564AA321564820F0B5FE686803681B6ADD
:102E700098470F2803D8534B504AA421F2E7E8683B
:102E800003681B6A98473F2803D84F4B4B4AA5213C
:102E9000E8E70DF0CBFEDFF8409104300DF02CFF99
:102EA000D9F8000010B10368DB689847D9F8000032
:102EB00010B103681B689847DFF82081D8F800003C
:102EC00010B103685B699847D7F83C0110B10368FB
:102ED0005B689847D8F8000010B103681B689847F2
:102EE000D7F83C0110B103689B689847E86803680D
:102EF00000215B6A984706460022344B426002720A
:102F000046F80C3B044630460AF012FA1423238795
:102F10002F4B1B780022A287002B37D1012323726D
:102F2000A868036800215B6A9847064603F0A0F88A
:102F30006868036800215B6A98473146054603F0DC
:102F400071F8C9F80040C7F83C51C8F80060002D7E
:102F50002FD02B1DCAF800303368C5F808A03046C2
:102F6000DB68F56398472B6828461B68984721461D
:102F700030460FF087FC236820461B69984723687A
:102F80005B69204603B0BDE8F04F1847114BDFF8EE
:102F900050B0B3F9003000931146BBF90030304611
:102FA000FFF7C3F930460AF03EF9BBF800306387FB
:102FB000B6E72B46CEE700BFF0570208215C0208B7
:102FC0008C590208D3590208765A0208B8670208D9
:102FD0000F380120063801205838012054380120CC
:102FE000043801202DE9F74FD0E9555A0746A86863
:102FF00003681B6A984741F2E333984205D8564B61
:10300000564AA321564820F0E5FD686803681B6A0C
:1030100098470F2803D8534B504AA421F2E7E86899
:1030200003681B6A98473F2803D84F4B4B4AA5219A
:10303000E8E70DF0FBFDDFF8409104300DF05CFE99
:10304000D9F8000010B10368DB689847D9F8000090
:1030500010B103681B689847DFF82081D8F800009A
:1030600010B103685B699847D7F83C0110B1036859
:103070005B689847D8F8000010B103681B68984750
:10308000D7F83C0110B103689B689847E86803686B
:1030900000215B6A984706460022344B4260027268
:1030A00046F80C3B044630460AF042F914232387C5
:1030B0002F4B1B780022A287002B37D101232372CC
:1030C000A868036800215B6A9847064603F012F877
:1030D0006868036800215B6A98473146054602F03C
:1030E000E3FFC9F80040C7F83C51C8F80060002D64
:1030F00030D02B1DCAF800303368C5F808A0304620
:10310000DB68F56398472B6828461B68984721467B
:1031100030460FF0B7FB236820461B6998472368A9
:103120005B69204603B0BDE8F04F1847114BDFF84C
:1031300050B0B3F9003000931146BBF9003030466F
:10314000FFF7F3F830460AF06EF8BBF800305B4248
:103150006387B5E72B46CDE7F05702084E5D0208BE
:103160008C590208D3590208765A0208946702085B
:103170000F3801200638012058380120543801202A
:1031800004380120044B1B6893F858200AB1D86C0E
:1031900000B99868704700BF10380120F8B50446A0
:1031A00017460E460DF076FE104B1C60104B236048
:1031B000104B0025C4E951350F4BC4E9535518682D
:1031C000036801219B68C4E94F55C4E955769847C7
:1031D000284602F09DFDFFF7D5FF16F0B0FCFFF783
:1031E000D1FF16F027FD2046F8BD00BF643801204E
:1031F0001C6702080467020810380120064BC0F85B
:103200004C310023C0F8503100F5A273C0F84801DA
:10321000C0F84031704700BFF12C0008064BC0F8E1
:103220004C310023C0F8503100F5A273C0F84801BA
:10323000C0F84031704700BFFD340008064BC0F8AD
:103240004C310023C0F8503100F5A273C0F848019A
:10325000C0F84031704700BFA53B0008064BC0F8DE
:103260004C310023C0F8503100F5A273C0F848017A
:10327000C0F84031704700BFB9330008064BC0F8B2
:103280004C310023C0F8503100F5A273C0F848015A
:10329000C0F84031704700BF653A0008064BC0F8DF
:1032A0004C310023C0F8503100F5A273C0F848013A
:1032B000C0F84031704700BF452E0008064BC0F8EB
:1032C0004C310023C0F8503100F5A273C0F848011A
:1032D000C0F84031704700BFE52F0008064BC0F82A
:1032E0004C310023C0F8503100F5A273C0F84801FA
:1032F000C0F84031704700BF25390008064BC0F8C0
:103300004C310023C0F8503100F5A273C0F84801D9
:10331000C0F84031704700BFE5370008064BC0F8E1
:103320004C310023C0F8503100F5A273C0F84801B9
:10333000C0F84031704700BFA5360008064BC0F802
:103340004C310023C0F8503100F5A273C0F8480199
:10335000C0F84031704700BF012B0008124B13B575
:1033600003604FF480734363104B41720361104953
:10337000104BB1F90010B3F9003083810022426094
:1033800002728272C281C0E90522C0E90722C0E947
:103390000922C0E90B220446009110301146FEF7C5
:1033A000C4FF204602B010BDDC6702089C6602081C
:1033B00006380120043801202DE9F047D0E9554AAC
:1033C0000746A06803681B6A984741F2A303984226
:1033D00005D8434B434AA321434820F0FBFB6068D8
:1033E00003681B6A98470F2803D8404B3D4AA42125
:1033F000F2E7E06803681B6A9847372803D83C4B1C
:10340000384AA521E8E70DF011FCDFF8E890043018
:103410000DF072FCD9F8000010B10368DB68984722
:10342000D9F8000010B103681B689847DFF8C8801E
:10343000D8F8000010B103685B699847D7F83C01E1
:1034400010B103685B689847D8F8000010B10368B2
:103450001B689847D7F83C0110B103689B689847F0
:10346000E068036800215B6A984714210546FFF76E
:1034700075FFA068036800215B6A9847064602F062
:10348000B5FD6068036800215B6A984731460446D1
:1034900002F086FDC9F80050C7F83C41C8F800604A
:1034A000DCB1231DCAF800303368C4F808A03046E8
:1034B000DB68F4639847236820461B6898472946D1
:1034C00030460FF0DFF92B6828461B6998472B68B8
:1034D00028465B69BDE8F04718472346E2E700BF8E
:1034E000F0570208915E02088C590208D35902086D
:1034F000765A020858380120543801202DE9F04747
:10350000D0E9554A0746A06803681B6A984741F20C
:10351000CB23984205D8434B434AA321434820F08C
:1035200059FB606803681B6A98470F2803D8404B13
:103530003D4AA421F2E7E06803681B6A98473728F0
:1035400003D83C4B384AA521E8E70DF06FFBDFF8C4
:10355000E89004300DF0D0FBD9F8000010B10368FA
:10356000DB689847D9F8000010B103681B689847DA
:10357000DFF8C880D8F8000010B103685B6998478D
:10358000D7F83C0110B103685B689847D8F8000091
:1035900010B103681B689847D7F83C0110B1036865
:1035A0009B689847E068036800215B6A984714218C
:1035B0000546FFF7D3FEA068036800215B6A9847C1
:1035C000064602F0C5FC6068036800215B6A984704
:1035D0003146044602F096FCC9F80050C7F83C4159
:1035E000C8F80060DCB1231DCAF800303368C4F8A5
:1035F00008A03046DB68F4639847236820461B68C0
:103600009847294630460FF03DF92B6828461B693C
:1036100098472B6828465B69BDE8F0471847234662
:10362000E2E700BFF0570208AF5F02088C590208BA
:10363000D3590208765A020858380120543801201C
:1036400003685B6A18470000124B13B503604FF420
:1036500080734363104B417203611049104BB1F901
:103660000010B3F90030838100224260027282723E
:10367000C281C0E90522C0E90722C0E90922C0E9E8
:103680000B220446009110301146FEF74EFE2046F4
:1036900002B010BD006802089C66020806380120CE
:1036A000043801202DE9F047D0E9554A0746A068C3
:1036B00003681B6A984741F25B03984205D8424B66
:1036C000424AA321424820F085FA606803681B6AD9
:1036D00098470F2803D83F4B3C4AA421F2E7E06803
:1036E00003681B6A9847372803D83B4B374AA52104
:1036F000E8E70DF09BFADFF8E49004300DF0FCFAF7
:10370000D9F8000010B10368DB689847D9F80000C9
:1037100010B103681B689847DFF8C480D8F8000030
:1037200010B103685B699847D7F83C0110B1036892
:103730005B689847D8F8000010B103681B68984789
:10374000D7F83C0110B103689B689847E0680021F6
:10375000FFF776FF14210546FFF776FFA0680368A0
:1037600000215B6A9847064602F066FD60680368C0
:1037700000215B6A98473146044602F037FDC9F8DC
:103780000050C7F83C41C8F80060DCB1231DCAF8FE
:1037900000303368C4F808A03046DB68F46398470B
:1037A000236820461B689847294630460FF06AF880
:1037B0002B6828461B6998472B6828465B69BDE83B
:1037C000F04718472346E2E7F0570208C9600208AD
:1037D0008C590208D3590208765A02085838012039
:1037E000543801202DE9F047D0E9554A0746A06832
:1037F00003681B6A984741F2A303984205D8424BDD
:10380000424AA321424820F0E5F9606803681B6A38
:1038100098470F2803D83F4B3C4AA421F2E7E068C1
:1038200003681B6A9847372803D83B4B374AA521C2
:10383000E8E70DF0FBF9DFF8E49004300DF05CFAF6
:10384000D9F8000010B10368DB689847D9F8000088
:1038500010B103681B689847DFF8C480D8F80000EF
:1038600010B103685B699847D7F83C0110B1036851
:103870005B689847D8F8000010B103681B68984748
:10388000D7F83C0110B103689B689847E0680021B5
:10389000FFF7D6FE14210546FFF7D6FEA0680368A1
:1038A00000215B6A9847064602F0CAFA606803681E
:1038B00000215B6A98473146044602F09BFAC9F83A
:1038C0000050C7F83C41C8F80060DCB1231DCAF8BD
:1038D00000303368C4F808A03046DB68F4639847CA
:1038E000236820461B689847294630460EF0CAFFD9
:1038F0002B6828461B6998472B6828465B69BDE8FA
:10390000F04718472346E2E7F0570208E96102084A
:103910008C590208D3590208765A020858380120F7
:10392000543801202DE9F047D0E9554A0746A068F0
:1039300003681B6A984741F2FB13984205D8424B33
:10394000424AA321424820F045F9606803681B6A97
:1039500098470F2803D83F4B3C4AA421F2E7E06880
:1039600003681B6A9847372803D83B4B374AA52181
:10397000E8E70DF05BF9DFF8E49004300DF0BCF9F6
:10398000D9F8000010B10368DB689847D9F8000047
:1039900010B103681B689847DFF8C480D8F80000AE
:1039A00010B103685B699847D7F83C0110B1036810
:1039B0005B689847D8F8000010B103681B68984707
:1039C000D7F83C0110B103689B689847E068002174
:1039D000FFF736FE14210546FFF736FEA0680368A0
:1039E00000215B6A9847064602F0C6FB60680368E0
:1039F00000215B6A98473146044602F097FBC9F8FC
:103A00000050C7F83C41C8F80060DCB1231DCAF87B
:103A100000303368C4F808A03046DB68F463984788
:103A2000236820461B689847294630460EF02AFF37
:103A30002B6828461B6998472B6828465B69BDE8B8
:103A4000F04718472346E2E7F057020807630208E9
:103A50008C590208D3590208765A020858380120B6
:103A6000543801202DE9F047D0E9554A0746A068AF
:103A700003681B6A984741F2A303984205D8424B5A
:103A8000424AA321424820F0A5F8606803681B6AF7
:103A900098470F2803D83F4B3C4AA421F2E7E0683F
:103AA00003681B6A9847372803D83B4B374AA52140
:103AB000E8E70DF0BBF8DFF8E49004300DF01CF9F6
:103AC000D9F8000010B10368DB689847D9F8000006
:103AD00010B103681B689847DFF8C480D8F800006D
:103AE00010B103685B699847D7F83C0110B10368CF
:103AF0005B689847D8F8000010B103681B689847C6
:103B0000D7F83C0110B103689B689847E068002132
:103B1000FFF796FD14210546FFF796FDA0680368A0
:103B200000215B6A9847064602F0A2FA60680368C3
:103B300000215B6A98473146044602F073FAC9F8DF
:103B40000050C7F83C41C8F80060DCB1231DCAF83A
:103B500000303368C4F808A03046DB68F463984747
:103B6000236820461B689847294630460EF08AFE97
:103B70002B6828461B6998472B6828465B69BDE877
:103B8000F04718472346E2E7F05702084964020865
:103B90008C590208D3590208765A02085838012075
:103BA000543801202DE9F047D0E9554A0746A0686E
:103BB00003681B6A984741F2A303984205D8424B19
:103BC000424AA321424820F005F8606803681B6A56
:103BD00098470F2803D83F4B3C4AA421F2E7E068FE
:103BE00003681B6A9847372803D83B4B374AA521FF
:103BF000E8E70DF01BF8DFF8E49004300DF07CF8F6
:103C0000D9F8000010B10368DB689847D9F80000C4
:103C100010B103681B689847DFF8C480D8F800002B
:103C200010B103685B699847D7F83C0110B103688D
:103C30005B689847D8F8000010B103681B68984784
:103C4000D7F83C0110B103689B689847E0680021F1
:103C5000FFF7F6FC14210546FFF7F6FCA0680368A1
:103C600000215B6A9847064602F0C0F96068036865
:103C700000215B6A98473146044602F091F9C9F881
:103C80000050C7F83C41C8F80060DCB1231DCAF8F9
:103C900000303368C4F808A03046DB68F463984706
:103CA000236820461B689847294630460EF0EAFDF7
:103CB0002B6828461B6998472B6828465B69BDE836
:103CC000F04718472346E2E7F057020875650208F7
:103CD0008C590208D3590208765A02085838012034
:103CE00054380120806A704730B50368018185B07F
:103CF0006D460146D3F8843004462846984795E837
:103D000007003C3484E8070005B030BD30B50368D7
:103D1000418185B06D460146D3F88430044628467B
:103D2000984795E807003C3484E8070005B030BDAB
:103D30000022028042808280C280704780F8361064
:103D4000704770B5036804461B6B15469847236897
:103D5000294620465B6EBDE870401847002070473A
:103D6000806C704770477047704710B54C2104460F
:103D70001FF03FF9204610BD10B54FF462710446A4
:103D80001FF037F9204610BD08B5FDF769FA08BDE8
:103D9000036870B55E6B124B1B6804468DB22BB97D
:103DA000104B114A6C2111481FF014FF1049828DED
:103DB0000988914203D80F4B0B4A6D21F3E713F8A2
:103DC00012200D4B1B6853F8220003681B6B9847A9
:103DD000281A01B233462046BDE87040184700BF9C
:103DE0006838012068560208AA560208E5560208FB
:103DF0006C3801201C6802087038012000224FF046
:103E0000FF31C0E900218260704700002DE9F04FCA
:103E10004FF48073804600262DED028B8384B44BD3
:103E20008662C0E90166C0E90366C0E90566C0E9CB
:103E3000076648F82C3B8BB004464046FEF79AFADA
:103E400004F1740304F1BC0B1846039304F5827A61
:103E5000FEF790FA5846FEF78DFA04F5A879A54DBD
:103E60005046FEF787FAC4F80451C4F84C6148463E
:103E7000FEF780FA04F5CE7304F5F4771846C4F81B
:103E80005051C4F8986108EE103AFEF773FAC4F87E
:103E90009C51C4F8E461384609F082FE964AA2605B
:103EA00040466D22D92104ADFEF732FA4FF0FF33C0
:103EB000E36541462846A4F8606009F039FB95E8BF
:103EC000070004F1680C8CE807008C4B08934FF056
:103ED000040208A94046ADF8242009F0C3FD41467C
:103EE000204607F061FB039B6D2231461846FEF722
:103EF0000FFA039BA4F8A8604FF0FF31C4F8A41098
:103F00002846194609F014FB95E807007B4B0893F7
:103F1000039B04F1B00C8CE807004FF0050808A9DA
:103F20001846ADF8248009F09DFD039B20461946F4
:103F300007F03AFB324658467121FEF7E9F94FF097
:103F4000FF31C4F8EC1028465946A4F8F06009F097
:103F5000EFFA95E8070004F1F80383E80700674BE0
:103F6000089308A906235846ADF8243009F07AFDD5
:103F70005946204607F018FB7C2250464C21FEF79C
:103F8000C7F9D4F80431A4F838614FF0FF31C4F810
:103F9000341128465146D3F88430984795E80700F5
:103FA00004F5A07383E80700544B089308A9032382
:103FB0005046ADF8243009F055FD5146204607F033
:103FC000F3FA8B2248465621FEF7A2F9D4F8503175
:103FD000A4F884614FF0FF31C4F8801128464946A7
:103FE000D3F88430984795E8070004F5C67383E852
:103FF0000700424B089308A902234846ADF8243035
:1040000009F030FD4946204607F0CEFA18EE100AB6
:104010009A225621FEF77CF9D4F89C31A4F8D0619D
:104020004FF0FF31C4F8CC11284618EE101AD3F81F
:104030008430984795E8070004F5EC7383E807009F
:1040400001252E4B089318EE100A08A9ADF824504C
:1040500009F008FD18EE101A204607F0A5FA4FF0F7
:10406000040208A93846ADF8202007F02FFA1222E2
:1040700038461C21FEF74CF9D4F8E83138469B6BE2
:10408000B8219847D4F8E8313846DB6B6A21984765
:104090005C221146384609F02EFE38465A226FF04F
:1040A000590109F0ADFE33465A22384600966FF0AA
:1040B000590107F0B8F83146384609F04BFE352370
:1040C00008224146384609F001FE2946384609F0E3
:1040D0009FFD2946384609F09EFD2046394607F0E7
:1040E00063FA20460BB0BDEC028BBDE8F08F00BF39
:1040F000F468020864680208F000A9009C570208EE
:10410000406A7047806A704770478B88C0690A6848
:10411000DB0A50F823001044704710B5C2B1137B7E
:10412000B3B1547BD27A240204F4E0641443026AEB
:1041300098B202EB840213888B4202D192F90200FA
:1041400010BD05D8013880B204320028F3D1F7E75A
:104150000020F5E710B52C2104461EF04AFF20464A
:1041600010BD000030B58BB00446BDF86050089516
:10417000BDF85C5007959DF8505006959DF84C5041
:1041800005959DF8485004959DF8445003959DF879
:10419000405002959DF83C500195BDF8385000956F
:1041A0000DF0DAFE064B2360159BE361169B23623C
:1041B000199B63621A9BA36220460BB030BD00BFFF
:1041C000886902087047704730B4C2684468551067
:1041D000034604EB6200D20748BF62599B6830BCBB
:1041E00048BFD358184743682BB183682BB9C068C0
:1041F00000F001007047184670470120704710B565
:10420000102104461EF0F5FE204610BD10B5034BEC
:10421000036004460BF008F8204610BD006A02084F
:1042200007B5074B036001900AF0FEFF019841F2C9
:10423000CC211EF0DEFE019803B05DF804FB00BF48
:10424000006A020838B500F50F73994204460D461E
:1042500003D10CF0EBFCFEF7F1FF04F5FA739D427D
:1042600003D10CF0E3FCFFF749F804F5D6739D4247
:1042700003D10CF0DBFCFFF751F804F52174A542E3
:104280000AD106480022202102F05AFD0CF0CEFC93
:10429000BDE83840FFF752B838BD00BF00100240FB
:1042A0002DE9F04F2DED068B04468FB0A346002577
:1042B0000EF03CF9EA4BE5634BF8403B26222946D9
:1042C00058461FF08CFE5846FEF742F804F16C0A7F
:1042D000FF26E44B236426224FF6FF73294684F819
:1042E0006660A5665046ADF830301FF078FE504647
:1042F000FEF72EF8DC4BE366BDF83030A4F89230C0
:104300000CA904F1980784F89460504609F085FFE1
:10431000384608F0A1FD04F5847318460393FCF7B2
:10432000C5FFD24BC4F808312433C4F8103104F56A
:104330008E731846C4F8145104F5B27808EE103A9A
:10434000FEF718F84046FEF715F804F5D673184640
:1043500009EE103A0AF0A2F804F5FA73184609EECD
:10436000903A0AF09BF804F50F7318460AEE103ADB
:104370000AF094F804F5217318460AEE903A09F011
:1043800025FF04F53073184608EE903A04F543799A
:10439000FDF7F0FFB64BC4F8C032C4F808534846E6
:1043A00009F0FEFBB34A04F58053C3E9AF24B24AD7
:1043B0004FF46161C3E9B12504F2AC400AF02AFF71
:1043C0004FF4A0732A4600932946F0235846FDF780
:1043D000ACFF261D4FF07F43A3665946304607F0D9
:1043E000E3F82A4629465046FDF792FF0C230CA914
:1043F0005046ADF8303009F010FF5146304607F016
:10440000D3F80A2300933222F02329463846FDF7D9
:104410008CFF4FF0FF33A022C4F81431A4F81831F8
:10442000039BC4F8C0301146384608F02BFEA0228A
:104430004FF4EB51384608F030FED4F8D430202B3E
:1044400005D02023C4F8D430384608F025FD38467E
:10445000012108F02DFE39463046002507F0A4F86A
:104460004FF0FF3A0DF1100B18EE100A24224521EF
:10447000FDF74EFF18EE101A5846C4F84CA1A4F8E8
:10448000505109F055F89BE8070018EE103A3C33FC
:104490000CAF83E80700794B0C9318EE100A2A231F
:1044A0003946ADF8343009F0DDFA18EE101A30460E
:1044B00007F07AF80C2240463221FDF729FF4146E9
:1044C0005846C4F894A1A4F8985109F031F89BE833
:1044D000070008F13C0383E80700684B0C9339465A
:1044E0002B234046ADF8343009F0BCFA4146304643
:1044F00007F05AF819EE100AF0222121FDF708FF03
:104500004FF0030802230BA919EE100A3A46ADF842
:104510003030ADF82C8009F08AFC2C2219EE100AFC
:10452000A4F8E421FDF748FF04F595521C3219EE7A
:10453000101AC4F8D4213046C4E97AAA039207F0CD
:1045400033F819EE900AAA222121FDF7E1FE022399
:104550000BA919EE900A3A46ADF83030ADF82C8030
:1045600009F065FC2D2219EE900AA4F82C22FDF723
:1045700023FF039AC4F81C2219EE901A3046C4E9AE
:104580008CAA07F011F81AEE100A64222121FDF717
:10459000BFFE3A460BA91AEE100A0223ADF82C8092
:1045A000ADF8303009F043FC2E23A4F874321AEE33
:1045B000100AFDF701FF039AC4F864221AEE101ADC
:1045C0003046C4E99EAA06F0EFFF1AEE900A0522D3
:1045D000C621FDF79DFE0D230BAA4FF001081AEE30
:1045E000900AADF82C30ADF8303009A91346009789
:1045F0000AAAADF82450ADF8288009F052FD039ABC
:10460000C4F8AC221AEE901A3046C4F8BC5206F038
:10461000CBFF2A4618EE900A2946FDF779FED4F81A
:10462000C032C4F8F0A218EE901A5846D3F884307D
:10463000A4F8F452984718EE902A02F13C039BE844
:10464000070083E807000D4B0C9318EE900A3946DB
:10465000ADF8345009F006FA18EE901A30460FE023
:10466000006A020808770208D0780208CC730208B2
:1046700064680208E8690208454200089C5702087D
:1046800006F092FF072339464846ADF8303006F071
:104690001DFF7823009348466E226021FDF745FEFA
:1046A0003C221146484609F026FB48465A226FF044
:1046B000590109F0A5FB2B4664222946484600957E
:1046C00006F0B1FD4846322109F044FB21230522C2
:1046D0004846082109F0FAFA4146484609F098FA96
:1046E0004146484609F097FA3046494606F05CFFD5
:1046F00020460FB0BDEC068BBDE8F08F70477047C9
:1047000030B4C26844685510034604EB6200D20717
:1047100048BF62599B6830BC48BFD35818474368AC
:104720002BB183682BB9C06800F0010070471846B0
:1047300070470120704710B5102104461EF059FC47
:10474000204610BD10B5034B036004460AF06CFD13
:10475000204610BD4C6A020807B5074B0360019064
:104760000AF062FD019841F2A4011EF042FC01989A
:1047700003B05DF804FB00BF4C6A020838B500F5D1
:10478000D673994204460D4603D10CF04FFAFEF75A
:1047900045FD04F50F74A54205D10CF047FABDE8BC
:1047A0003840FEF76BBD38BD2DE9F04F2DED048B81
:1047B00004468DB0A34600250DF0B8FEB64BE56368
:1047C0004BF8403B2622294658461FF008FC584625
:1047D000FDF7BEFD04F16C0AFF26B04B23642622D0
:1047E0004FF6FF73294684F86660A5665046ADF81B
:1047F00028301FF0F4FB5046FDF7AAFDA84BE366F6
:10480000BDF82830A4F892300AA904F1980784F87A
:104810009460504609F001FD384608F01DFB04F590
:10482000847318460393FCF741FD9E4BC4F808318E
:1048300004F58E792433C4F81031C4F81451484675
:1048400004F5B278FDF796FD4046FDF793FD04F5BB
:10485000D673184608EE103A09F020FE04F5FA73F4
:10486000184608EE903A09F019FE04F50F73184641
:1048700009EE103A09F012FE8B4A04F58053C3E9A1
:1048800025248A4A4FF46161C3E9272504F5217084
:104890000AF0C0FC4FF4A0732A4600932946F02387
:1048A0005846FDF742FD261D4FF07F43A36659464B
:1048B000304606F079FE2A4629465046FDF728FD87
:1048C0000C230AA95046ADF8283009F0A6FC514641
:1048D000304606F069FE0A2300933222F02329466F
:1048E0003846FDF722FD4FF0FF33A022C4F8143103
:1048F000A4F81831039BC4F8C0301146384608F0BC
:10490000C1FBA0224FF4EB51384608F0C6FBD4F8A7
:10491000D430202B05D02023C4F8D430384608F0FA
:10492000BBFA3846012108F0C3FB3946304606F091
:104930003BFE4FF0FF3504AF242248464FF0000AFB
:104940004521FDF7E5FC49463846C4F84C51A4F82A
:1049500050A108F0EDFD97E8070009F13C0383E85A
:10496000070028230DEB0301DFF844B1ADF82C302C
:104970004846CDF828B009F075F84946304606F0AB
:1049800013FE0C2240463221FDF7C2FC4146384658
:10499000C4F89451A4F898A108F0CAFD97E807005C
:1049A00008F13C0383E8070029230AA94046ADF833
:1049B0002C30CDF828B009F055F84146304606F0C5
:1049C000F3FD18EE100AF0222121FDF7A1FC4FF0B3
:1049D00003090AAA4FF0020809A918EE100AADF857
:1049E0002490ADF8288004F5845709F020FA272395
:1049F000A4F8E43118EE100A1437FDF7DDFC18EEC8
:104A0000101A3046C4E97A55C4F8D47106F0CCFDCA
:104A100018EE900AAA222121FDF77AFC0AAA09A918
:104A200018EE900AADF82490ADF8288009F0FFF94F
:104A30002623A4F82C3218EE900AFDF7BDFC18EEE0
:104A4000901A3046C4E98C5506F0AEFD19EE100AF6
:104A500064222121FDF75CFC0AAA09A919EE100ABB
:104A6000ADF82490ADF8288009F0E1F9252319EE7E
:104A7000100AA4F87432FDF79FFC3046C4E99E5535
:104A800019EE101AC4F8647206F08EFD20460DB0BF
:104A9000BDEC048BBDE8F08F4C6A02080877020871
:104AA000D0780208CC730208346A02087D470008F7
:104AB0009C5702087047704730B4C268446855106C
:104AC000034604EB6200D20748BF62599B6830BCC2
:104AD00048BFD358184743682BB183682BB9C068C7
:104AE00000F001007047184670470120704710B56C
:104AF000102104461EF07DFA204610BD10B5034B70
:104B0000036004460AF090FB204610BD986A020834
:104B100007B5074B036001900AF086FB019841F24C
:104B2000A4011EF066FA019803B05DF804FB00BF13
:104B3000986A020838B500F5D673994204460D46C6
:104B400003D10CF073F8FEF789FB04F50F739D4257
:104B500003D10CF06BF8FEF7B1FB04F5FA74A54233
:104B600005D10CF063F8BDE83840FEF7B7BB38BD9F
:104B70002DE9F04F2DED048B04468DB0A3460025A2
:104B80000DF0D4FCB74BE5634BF8403B2622294699
:104B900058461FF024FA5846FDF7DAFB04F16C0A78
:104BA000FF26B14B236426224FF6FF73294684F873
:104BB0006660A5665046ADF828301FF010FA5046E2
:104BC000FDF7C6FBA94BE366BDF82830A4F8923088
:104BD0000AA904F1980784F89460504609F01DFB77
:104BE000384608F039F904F5847318460393FCF746
:104BF0005DFB9F4BC4F8083104F58E792433C4F86B
:104C00001031C4F81451484604F5B278FDF7B2FBF0
:104C10004046FDF7AFFB04F5D673184608EE103A90
:104C200009F03CFC04F5FA73184608EE903A09F0D6
:104C300035FC04F50F73184609EE103A09F02EFC06
:104C40008C4A04F58053C3E925248B4A4FF46161F3
:104C5000C3E9272504F521700AF0DCFA4FF4A073AC
:104C60002A4600932946F0235846FDF75EFB261D91
:104C70004FF07F43A3665946304606F095FC2A461E
:104C800029465046FDF744FB0C230AA95046ADF8CF
:104C9000283009F0C2FA5146304606F085FC0A2356
:104CA00000933222F02329463846FDF73EFB4FF0B1
:104CB000FF33A022C4F81431A4F81831039BC4F8C0
:104CC000C0301146384608F0DDF9A0224FF4EB5110
:104CD000384608F0E2F9D4F8D430202B05D0202350
:104CE000C4F8D430384608F0D7F83846012108F027
:104CF000DFF93946304606F057FC4FF0FF3504AF78
:104D0000242248464FF0000A4521FDF701FB4946A1
:104D10003846C4F84C51A4F850A108F009FC97E8B3
:104D2000070009F13C0383E80700DFF850B1CDF834
:104D300028B01B230AA94846ADF82C3008F092FE93
:104D40004946304606F030FC0C2240463221FDF741
:104D5000DFFA41463846C4F89451A4F898A108F007
:104D6000E7FB97E8070008F13C0383E807001A23F4
:104D70000AA94046ADF82C30CDF828B008F072FEF4
:104D80004146304606F010FC18EE100AF0222121B0
:104D9000FDF7BEFA4FF003090AAA4FF0020809A96D
:104DA00018EE100AADF82490ADF8288004F5845769
:104DB00009F03DF81923A4F8E431143718EE100A6D
:104DC000FDF7FAFA18EE101A3046C4E97A55C4F81D
:104DD000D47106F0E9FB18EE900AAA222121FDF712
:104DE00097FA0AAA09A918EE900AADF82490ADF82E
:104DF000288009F01CF81823A4F82C3218EE900A29
:104E0000FDF7DAFA18EE901A3046C4E98C55C4F86A
:104E10001C7206F0C9FB19EE100A64222121FDF76D
:104E200077FA0AAA09A919EE100AADF82490ADF88C
:104E3000288008F0FCFF172319EE100AA4F874323A
:104E4000FDF7BAFA3046C4E99E5519EE101AC4F8B7
:104E5000647206F0A9FB20460DB0BDEC048BBDE8E2
:104E6000F08F00BF986A020808770208D07802081D
:104E7000CC730208806A0208354B00089C57020870
:104E8000704730B4C26844685510034604EB6200B2
:104E9000D20748BF62599B6830BC48BFD3581847F7
:104EA00043682BB183682BB9C06800F001007047DC
:104EB000184670470120704710B5102104461EF0B7
:104EC00098F8204610BD00F50F7001F003B800F50A
:104ED000FA70884208B505D10BF0A8FEBDE808407D
:104EE000FEF7DCB908BD000010B5074B03600446AF
:104EF0000AF09AF9054BC4F83C3204F50F70FEF73E
:104F000031FF204610BD00BFE46A02087C6E020833
:104F100010B50446FFF7E8FF204641F2E4311EF0E9
:104F200068F8204610BD00002DE9F04F2DED048BF0
:104F300004468DB0A34600250DF0F8FAAE4BE563AC
:104F40004BF8403B2622294658461FF048F8584661
:104F5000FDF7FEF904F16C0AFF26A84B2364262214
:104F60004FF6FF73294684F86660A5665046ADF893
:104F700028301FF034F85046FDF7EAF9A04BE366FD
:104F8000BDF82830A4F892300AA904F1980784F8F3
:104F90009460504609F041F9384607F05DFF04F58A
:104FA000847318460393FCF781F9964BC4F80831D3
:104FB00004F58E792433C4F81031C4F814514846EE
:104FC00004F5B278FDF7D6F94046FDF7D3F904F5BC
:104FD000D673184608EE103AFDF7CCF904F5FA73CB
:104FE000184608EE903A09F059FA04F50F7318467E
:104FF00009EE103A00F064FF834A04F58053C3E9D8
:10500000F524824A4FF46161C3E9F72504F2C450E4
:105010000AF000F94FF4A0732A4600932946F023C2
:105020005846FDF782F9261D4FF07F43A366594687
:10503000304606F0B9FA2A4629465046FDF768F987
:105040000C230AA95046ADF8283009F0E6F851467D
:10505000304606F0A9FA0A2300933222F0232946AB
:105060003846FDF762F94FF0FF33A022C4F814313F
:10507000A4F81831039BC4F8C0301146384608F034
:1050800001F8A0224FF4EB51384608F006F8D4F8A6
:10509000D430202B05D02023C4F8D430384607F074
:1050A000FBFE3846012108F003F83946304604ADCE
:1050B00006F07AFA4FF0FF374FF0000A3F224846D9
:1050C0001D21FDF725F949462846C4F84C71A4F87E
:1050D00050A108F02DFA95E8070009F13C0383E898
:1050E0000700DFF82CB1CDF828B008230AA94846FC
:1050F000ADF82C3008F0B6FC4946304606F054FABC
:10510000242240464521FDF703F941462846C4F8CC
:105110009471A4F898A108F00BFA95E8070008F13B
:105120003C0383E807000B230AA94046ADF82C3066
:10513000CDF828B008F096FC4146304606F034FA27
:1051400018EE100A0C223221FDF7E2F818EE101AC0
:105150002846C4F8DC71A4F8E0A108F0E9F995E864
:10516000070018EE103A3C3383E807000A2318EED4
:10517000100A0AA9ADF82C30CDF828B008F072FC5E
:1051800018EE101A304606F00FFA18EE900A4FF497
:1051900080722121FDF7BCF803230AAA09A918EEA1
:1051A000900AADF824300223ADF8283008F03FFE15
:1051B000092318EE900AA4F82C32FDF7FDF804F547
:1051C0009E531433C4F81C3218EE901A3046C4E9CA
:1051D0008C7706F0E9F919EE100A4E225146FDF7D8
:1051E00097F8304619EE101A06F0DEF920460DB099
:1051F000BDEC048BBDE8F08FE46A02080877020872
:10520000D0780208CC730208CC6A0208CF4E00089E
:105210009C5702087047704730B4C2684468551004
:10522000034604EB6200D20748BF62599B6830BC5A
:1052300048BFD358184743682BB183682BB9C0685F
:1052400000F001007047184670470120704710B504
:10525000102104461DF0CDFE204610BD10B5034BB5
:105260000360044609F0E0FF204610BD306B0208E1
:1052700007B5074B0360019009F0D6FF019841F292
:10528000FC111DF0B6FE019803B05DF804FB00BFF1
:10529000306B020800F5FA70884208B505D10BF0B2
:1052A000C5FCBDE80840FDF7F9BF08BD2DE9F04F8A
:1052B0002DED048B04468DB0A34600260DF036F983
:1052C000C64BE6634BF8403B2622314658461EF05B
:1052D00086FE5846FDF73CF804F16C0AFF25C04BEA
:1052E000236426224FF6FF73314684F86650A66683
:1052F0005046ADF828301EF072FE5046FDF728F8F3
:10530000B84BE366BDF82830A4F892300AA904F13E
:10531000980884F89450504608F07FFF404607F004
:105320009BFD04F5847318460393FBF7BFFFAE4B58
:10533000C4F8083104F58E792433C4F81031C4F868
:1053400014614846FDF716F804F5B273184608EEE6
:10535000103AFDF70FF804F5D673184608EE903AA8
:10536000FDF708F804F5FA73184604F50F7509EE11
:10537000103A09F093F8284608F012FC9B4A04F50D
:105380008053C3E97B249A4A4FF46161C3E97D26C7
:1053900004F5777009F03EFF4FF4A0733246009396
:1053A0003146F0235846FCF7C0FF271D4FF07F43DE
:1053B000A3665946384606F0F7F83246314650465D
:1053C000FCF7A6FF0C230AA95046ADF8283008F0D8
:1053D00024FF5146384606F0E7F80A2300933222AC
:1053E000F02331464046FCF7A0FF4FF0FF33A022E8
:1053F000C4F81431A4F81831039BC4F8C030114626
:10540000404607F03FFEA0224FF4EB51404607F024
:1054100044FED4F8D430202B05D02023C4F8D43057
:10542000404607F039FD4046012107F041FE414664
:1054300038464FF0000804AE06F0B6F84FF0FF3AD9
:10544000462248462B21FCF763FF49463046C4F804
:105450004CA1A4F8508108F06BF896E8070009F118
:105460003C0383E80700DFF88CB1CDF828B00723B0
:105470000AA94846ADF82C3008F0F4FA49463846F7
:1054800006F092F818EE100A24224521FCF740FF9E
:1054900018EE101A3046C4F894A1A4F8988108F0C8
:1054A00047F896E8070018EE103A3C3383E8070007
:1054B000112318EE100A0AA9ADF82C30CDF828B047
:1054C00008F0D0FA18EE101A384606F06DF818EE0B
:1054D000900A0C223221FCF71BFF18EE901A30467E
:1054E000C4F8DCA1A4F8E08108F022F896E80700EF
:1054F00018EE903A3C3383E80700102318EE900A28
:105500000AA9ADF82C30CDF828B008F0ABFA18EEA7
:10551000901A384606F048F819EE100AF0222121B8
:10552000FCF7F6FE03230AAA09A919EE100AADF842
:1055300024300223ADF8283008F079FC0F2319EE4F
:10554000100AA4F82C32FCF737FF04F58F530C3304
:1055500019EE101AC4F81C323846C4E98CAA06F0B9
:1055600023F806230AA92846ADF8283005F0AEFF37
:1055700078230093284664223821FCF7D6FE3C228B
:105580001146284608F0B7FB28465A226FF0590109
:1055900008F036FC4346642241462846CDF8008098
:1055A00005F041FE2846322108F0D4FB21230522D4
:1055B0002846082108F08AFB2846012108F028FB2C
:1055C0002846012108F027FB3846294605F0ECFF64
:1055D00020460DB0BDEC048BBDE8F08F306B0208A7
:1055E00008770208D0780208CC730208186B02080A
:1055F000955200089C5702087047704730B4C26843
:1056000044685510034604EB6200D20748BF625954
:105610009B6830BC48BFD358184743682BB1836898
:105620002BB9C06800F00100704718467047012090
:10563000704710B5102104461DF0DBFC204610BD5C
:1056400010B5034B0360044609F0EEFD204610BD83
:105650007C6B020807B5074B0360019009F0E4FD7D
:10566000019841F25C011DF0C4FC019803B05DF8A3
:1056700004FB00BF7C6B020800F58E70884208B501
:1056800005D10BF0D3FABDE80840FDF7C7BD08BD52
:105690002DE9F04F2DED028B04468DB00CF046FF46
:1056A00022460025A34BE56342F8403B08EE102A52
:1056B0002946262218EE100A1EF091FC18EE100A58
:1056C000FCF746FE04F16C0BFF269B4B236426225D
:1056D0004FF6FF73294684F86660A5665846ADF814
:1056E00028301EF07CFC5846FCF732FE934BE366F4
:1056F000BDF82830A4F892300AA904F1980784F87C
:105700009460584608F089FD384607F0A5FB04F57B
:10571000847318460393FBF7C9FD894BC4F808311D
:105720002433C4F8103104F58E731846C4F81451AC
:1057300004F5B27A08EE903A04F5D67908F0AEFE98
:105740005046FCF717FE04F5FA784846FCF712FEBF
:105750004046FCF70FFE7B4A04F58053C3E913244F
:10576000794A4FF46161C3E9152504F50F7009F01A
:1057700051FD4FF4A0732A4618EE100A00932946F3
:10578000F023FCF7D2FD261D4FF07F43A36618EEF1
:10579000101A304605F008FF2A4629465846FCF7FD
:1057A000B7FD0C230AA95846ADF8283008F035FD9E
:1057B0005946304605F0F8FE0A2300933222F023C2
:1057C00029463846FCF7B1FD4FF0FF33A022C4F85C
:1057D0001431A4F81831039BC4F8C0301146384680
:1057E00007F050FCA0224FF4EB51384607F055FC6F
:1057F000D4F8D430202B05D02023C4F8D430384638
:1058000007F04AFB3846012107F052FC3946304682
:1058100005F0CAFE18EE900AF0222121FCF778FD6F
:1058200003230AAA09A918EE900AADF8243002232E
:10583000ADF8283008F0FBFA1C2318EE900AA4F803
:105840005431FCF7B9FD04F582534FF0FF370C33A8
:10585000C4F8443118EE901A3046C4E9567705F082
:10586000A3FE04AD4FF0000B5B2250460521FCF770
:105870004FFD51462846C4F89471A4F898B107F03A
:1058800057FE95E807000AF13C0C8CE807002F4B07
:105890000A931D220AA95046ADF82C2008F0E2F820
:1058A0005146304605F080FE242248464521FCF74B
:1058B0002FFD49462846C4F8DC71A4F8E0B107F092
:1058C00037FE95E8070009F13C0C8CE807001F4BF8
:1058D0000A931F220AA94846ADF82C2008F0C2F806
:1058E0004946304605F060FE0C2240463221FCF766
:1058F0000FFD41462846C4F82472A4F828B207F0E8
:1059000017FE95E8070008F13C0383E807000F4BFA
:105910000A930AA91E234046ADF82C3008F0A2F8DD
:105920003046414605F040FE20460DB0BDEC028BEE
:10593000BDE8F08F7C6B020808770208D078020877
:10594000CC730208646B0208795600089C57020861
:105950007047704710B5982104461DF04AFB204659
:1059600010BD00002DE9F341044626460CF0DEFD93
:1059700000252E4BE56346F8403B2D4B2566C4E9D8
:1059800010354FF48072FF2304F16C07A4F86420F3
:1059900084F86630A4F890204FF6FF73254AA4F8E7
:1059A000923084F89430E26601A93846C4E9125571
:1059B000C4E91455C4E91655C4E91C55C4E91E557B
:1059C000C4E92055C4E92255A566ADF8043008F0B5
:1059D00024FC2A4629463046FCF79AFC3046F02142
:1059E000FBF7A4FB30464FF4A071FBF7A1FB04F1D9
:1059F00004084FF07F43A3663146404605F0D4FDCE
:105A00002A4638466FF00201FCF782FC0E2301A9FA
:105A10003846ADF8043008F000FC4046394605F041
:105A2000C3FD204602B0BDE8F08100BFB06B0208A4
:105A300008770208D07802087047000030B5174D8B
:105A40002C68BFF35B8F14F001048FB022D128467D
:105A50001DF0D1FAF0B13F230993114B0893114B7C
:105A600007930123CDE9053304930423CDE90243D1
:105A70000A230D4900931D220C23CDE90B440B484A
:105A80000A940194FEF76EFB09481EF0C1F82846FF
:105A90001DF0BDFA05480FB030BD00BF3029002011
:105AA000F09B0208A09C02082C96020834290020D2
:105AB000395A00087047000030B5174D2C68BFF305
:105AC0005B8F14F001048FB022D128461DF093FAA9
:105AD000F0B13F230993114B0893114B0793012316
